{
  "_format": "hh-sol-artifact-1",
  "contractName": "AVL_Tree",
  "sourceName": "contracts/libs/utils/AVL_Tree.sol",
  "abi": [
    {
      "anonymous": false,
      "inputs": [
        {
          "indexed": false,
          "internalType": "uint8",
          "name": "version",
          "type": "uint8"
        }
      ],
      "name": "Initialized",
      "type": "event"
    },
    {
      "inputs": [
        {
          "internalType": "bytes[]",
          "name": "_leafs",
          "type": "bytes[]"
        }
      ],
      "name": "calculateRootByLeafs",
      "outputs": [
        {
          "internalType": "bytes",
          "name": "",
          "type": "bytes"
        }
      ],
      "stateMutability": "view",
      "type": "function"
    },
    {
      "inputs": [
        {
          "internalType": "uint256",
          "name": "_index",
          "type": "uint256"
        },
        {
          "internalType": "uint256",
          "name": "_total",
          "type": "uint256"
        },
        {
          "internalType": "bytes",
          "name": "_leaf",
          "type": "bytes"
        },
        {
          "internalType": "bytes[]",
          "name": "_siblings",
          "type": "bytes[]"
        }
      ],
      "name": "calulateRootBySiblings",
      "outputs": [
        {
          "internalType": "bytes",
          "name": "",
          "type": "bytes"
        }
      ],
      "stateMutability": "view",
      "type": "function"
    },
    {
      "inputs": [
        {
          "internalType": "bytes",
          "name": "_leafLeft",
          "type": "bytes"
        },
        {
          "internalType": "bytes",
          "name": "_leafRight",
          "type": "bytes"
        }
      ],
      "name": "hashInside",
      "outputs": [
        {
          "internalType": "bytes",
          "name": "",
          "type": "bytes"
        }
      ],
      "stateMutability": "pure",
      "type": "function"
    },
    {
      "inputs": [
        {
          "internalType": "bytes",
          "name": "_leaf",
          "type": "bytes"
        }
      ],
      "name": "hashLeaf",
      "outputs": [
        {
          "internalType": "bytes",
          "name": "",
          "type": "bytes"
        }
      ],
      "stateMutability": "pure",
      "type": "function"
    },
    {
      "inputs": [],
      "name": "initialize",
      "outputs": [],
      "stateMutability": "nonpayable",
      "type": "function"
    }
  ],
  "bytecode": "0x608060405234801561001057600080fd5b506117e9806100206000396000f3fe608060405234801561001057600080fd5b50600436106100575760003560e01c80631b62132e1461005c57806325537a9c1461008c5780638129fc1c146100bc5780639684a62f146100c6578063a7475332146100f6575b600080fd5b61007660048036038101906100719190610e41565b610126565b604051610083919061110c565b60405180910390f35b6100a660048036038101906100a19190610e00565b61013a565b6040516100b3919061110c565b60405180910390f35b6100c461014c565b005b6100e060048036038101906100db9190610d96565b6102ed565b6040516100ed919061110c565b60405180910390f35b610110600480360381019061010b9190610ead565b6103b7565b60405161011d919061110c565b60405180910390f35b6060610132838361064c565b905092915050565b606061014582610718565b9050919050565b60008060019054906101000a900460ff1615905080801561017d5750600160008054906101000a900460ff1660ff16105b806101aa575061018c306107bc565b1580156101a95750600160008054906101000a900460ff1660ff16145b5b6101e9576040517f08c379a00000000000000000000000000000000000000000000000000000000081526004016101e090611189565b60405180910390fd5b60016000806101000a81548160ff021916908360ff1602179055508015610226576001600060016101000a81548160ff0219169083151502179055505b600060029054906101000a900460ff1615610276576040517f08c379a000000000000000000000000000000000000000000000000000000000815260040161026d90611169565b60405180910390fd5b6001600060026101000a81548160ff02191690831515021790555080156102ea5760008060016101000a81548160ff0219169083151502179055507f7f26b83ff96e1f2b6a682f133852f6798a09c465da95921460cefb384740249860016040516102e1919061112e565b60405180910390a15b50565b606060008251905060008114156103165761030e6103096107df565b610834565b9150506103b2565b6001811415610371576103698360008151811061035c577f4e487b7100000000000000000000000000000000000000000000000000000000600052603260045260246000fd5b6020026020010151610718565b9150506103b2565b600061037c82610851565b90506103ad610395610390866000856108d1565b6102ed565b6103a86103a38785876108d1565b6102ed565b610126565b925050505b919050565b6060838511156103d857604051806020016040528060008152509050610644565b6000841161041b576040517f08c379a0000000000000000000000000000000000000000000000000000000008152600401610412906111a9565b60405180910390fd5b6000825190506001851415610453576000811461044a5760405180602001604052806000815250915050610644565b83915050610644565b60008114156104745760405180602001604052806000815250915050610644565b600061047f86610851565b9050808710156105485760006104ae8883886104a989600060018a6104a4919061149b565b6108d1565b6103b7565b90506104c98160405180602001604052806000815250610a59565b156104e857604051806020016040528060008152509350505050610644565b61053e81866001866104fa919061149b565b81518110610531577f4e487b7100000000000000000000000000000000000000000000000000000000600052603260045260246000fd5b6020026020010151610126565b9350505050610644565b8087108061055557508086105b15610573576040518060200160405280600081525092505050610644565b60006105ae8289610584919061149b565b8389610590919061149b565b886105a989600060018a6105a4919061149b565b6108d1565b6103b7565b90506105c98160405180602001604052806000815250610a59565b156105e857604051806020016040528060008152509350505050610644565b61063e856001856105f9919061149b565b81518110610630577f4e487b7100000000000000000000000000000000000000000000000000000000600052603260045260246000fd5b602002602001015182610126565b93505050505b949350505050565b606060006040518060400160405280600181526020017f0100000000000000000000000000000000000000000000000000000000000000815250848460405160200161069a939291906110c6565b604051602081830303815290604052905060006002826040516106bd919061108b565b602060405180830381855afa1580156106da573d6000803e3d6000fd5b5050506040513d601f19601f820116820180604052508101906106fd9190610dd7565b9050600061070a82610834565b905080935050505092915050565b606060006040518060400160405280600181526020016000815250836040516020016107459291906110a2565b604051602081830303815290604052905060006107b060028360405161076b919061108b565b602060405180830381855afa158015610788573d6000803e3d6000fd5b5050506040513d601f19601f820116820180604052508101906107ab9190610dd7565b610834565b90508092505050919050565b6000808273ffffffffffffffffffffffffffffffffffffffff163b119050919050565b600060026040516107ef906110f7565b602060405180830381855afa15801561080c573d6000803e3d6000fd5b5050506040513d601f19601f8201168201806040525081019061082f9190610dd7565b905090565b606060405190506020815281602082015260408101604052919050565b60006001821015610897576040517f08c379a000000000000000000000000000000000000000000000000000000000815260040161088e90611149565b60405180910390fd5b60006108a283610b73565b60026108ae919061137d565b9050828114156108c8576002816108c591906112f9565b90505b80915050919050565b606082821015610916576040517f08c379a000000000000000000000000000000000000000000000000000000000815260040161090d906111c9565b60405180910390fd5b60008383610924919061149b565b905060008167ffffffffffffffff811115610968577f4e487b7100000000000000000000000000000000000000000000000000000000600052604160045260246000fd5b60405190808252806020026020018201604052801561099b57816020015b60608152602001906001900390816109865790505b50905060005b82811015610a4c578681876109b691906112a3565b815181106109ed577f4e487b7100000000000000000000000000000000000000000000000000000000600052603260045260246000fd5b6020026020010151828281518110610a2e577f4e487b7100000000000000000000000000000000000000000000000000000000600052603260045260246000fd5b60200260200101819052508080610a4490611575565b9150506109a1565b5080925050509392505050565b60008151835114610a6d5760009050610b6d565b60005b8351811015610b6757828181518110610ab2577f4e487b7100000000000000000000000000000000000000000000000000000000600052603260045260246000fd5b602001015160f81c60f81b7effffffffffffffffffffffffffffffffffffffffffffffffffffffffffffff1916848281518110610b18577f4e487b7100000000000000000000000000000000000000000000000000000000600052603260045260246000fd5b602001015160f81c60f81b7effffffffffffffffffffffffffffffffffffffffffffffffffffffffffffff191614610b54576000915050610b6d565b8080610b5f90611575565b915050610a70565b50600190505b92915050565b600080600090506000608084901c1115610b9557608083901c92506080810190505b6000604084901c1115610bb057604083901c92506040810190505b6000602084901c1115610bcb57602083901c92506020810190505b6000601084901c1115610be657601083901c92506010810190505b6000600884901c1115610c0157600883901c92506008810190505b6000600484901c1115610c1c57600483901c92506004810190505b6000600284901c1115610c3757600283901c92506002810190505b6000600184901c1115610c4b576001810190505b80915050919050565b6000610c67610c628461120e565b6111e9565b90508083825260208201905082856020860282011115610c8657600080fd5b60005b85811015610cd057813567ffffffffffffffff811115610ca857600080fd5b808601610cb58982610d57565b85526020850194506020840193505050600181019050610c89565b5050509392505050565b6000610ced610ce88461123a565b6111e9565b905082815260208101848484011115610d0557600080fd5b610d10848285611502565b509392505050565b600082601f830112610d2957600080fd5b8135610d39848260208601610c54565b91505092915050565b600081519050610d5181611785565b92915050565b600082601f830112610d6857600080fd5b8135610d78848260208601610cda565b91505092915050565b600081359050610d908161179c565b92915050565b600060208284031215610da857600080fd5b600082013567ffffffffffffffff811115610dc257600080fd5b610dce84828501610d18565b91505092915050565b600060208284031215610de957600080fd5b6000610df784828501610d42565b91505092915050565b600060208284031215610e1257600080fd5b600082013567ffffffffffffffff811115610e2c57600080fd5b610e3884828501610d57565b91505092915050565b60008060408385031215610e5457600080fd5b600083013567ffffffffffffffff811115610e6e57600080fd5b610e7a85828601610d57565b925050602083013567ffffffffffffffff811115610e9757600080fd5b610ea385828601610d57565b9150509250929050565b60008060008060808587031215610ec357600080fd5b6000610ed187828801610d81565b9450506020610ee287828801610d81565b935050604085013567ffffffffffffffff811115610eff57600080fd5b610f0b87828801610d57565b925050606085013567ffffffffffffffff811115610f2857600080fd5b610f3487828801610d18565b91505092959194509250565b6000610f4b8261126b565b610f558185611276565b9350610f65818560208601611511565b610f6e8161164b565b840191505092915050565b6000610f848261126b565b610f8e8185611287565b9350610f9e818560208601611511565b80840191505092915050565b610fb3816114f0565b82525050565b6000610fc6602483611292565b9150610fd182611669565b604082019050919050565b6000610fe9601983611292565b9150610ff4826116b8565b602082019050919050565b600061100c602e83611292565b9150611017826116e1565b604082019050919050565b600061102f601e83611292565b915061103a82611730565b602082019050919050565b6000611052600d83611292565b915061105d82611759565b602082019050919050565b6000611075600083611287565b915061108082611782565b600082019050919050565b60006110978284610f79565b915081905092915050565b60006110ae8285610f79565b91506110ba8284610f79565b91508190509392505050565b60006110d28286610f79565b91506110de8285610f79565b91506110ea8284610f79565b9150819050949350505050565b600061110282611068565b9150819050919050565b600060208201905081810360008301526111268184610f40565b905092915050565b60006020820190506111436000830184610faa565b92915050565b6000602082019050818103600083015261116281610fb9565b9050919050565b6000602082019050818103600083015261118281610fdc565b9050919050565b600060208201905081810360008301526111a281610fff565b9050919050565b600060208201905081810360008301526111c281611022565b9050919050565b600060208201905081810360008301526111e281611045565b9050919050565b60006111f3611204565b90506111ff8282611544565b919050565b6000604051905090565b600067ffffffffffffffff8211156112295761122861161c565b5b602082029050602081019050919050565b600067ffffffffffffffff8211156112555761125461161c565b5b61125e8261164b565b9050602081019050919050565b600081519050919050565b600082825260208201905092915050565b600081905092915050565b600082825260208201905092915050565b60006112ae826114d9565b91506112b9836114d9565b9250827fffffffffffffffffffffffffffffffffffffffffffffffffffffffffffffffff038211156112ee576112ed6115be565b5b828201905092915050565b6000611304826114d9565b915061130f836114d9565b92508261131f5761131e6115ed565b5b828204905092915050565b6000808291508390505b6001851115611374578086048111156113505761134f6115be565b5b600185161561135f5780820291505b808102905061136d8561165c565b9450611334565b94509492505050565b6000611388826114d9565b9150611393836114d9565b92506113c07fffffffffffffffffffffffffffffffffffffffffffffffffffffffffffffffff84846113c8565b905092915050565b6000826113d85760019050611494565b816113e65760009050611494565b81600181146113fc576002811461140657611435565b6001915050611494565b60ff841115611418576114176115be565b5b8360020a91508482111561142f5761142e6115be565b5b50611494565b5060208310610133831016604e8410600b841016171561146a5782820a905083811115611465576114646115be565b5b611494565b611477848484600161132a565b9250905081840481111561148e5761148d6115be565b5b81810290505b9392505050565b60006114a6826114d9565b91506114b1836114d9565b9250828210156114c4576114c36115be565b5b828203905092915050565b6000819050919050565b6000819050919050565b600060ff82169050919050565b60006114fb826114e3565b9050919050565b82818337600083830152505050565b60005b8381101561152f578082015181840152602081019050611514565b8381111561153e576000848401525b50505050565b61154d8261164b565b810181811067ffffffffffffffff8211171561156c5761156b61161c565b5b80604052505050565b6000611580826114d9565b91507fffffffffffffffffffffffffffffffffffffffffffffffffffffffffffffffff8214156115b3576115b26115be565b5b600182019050919050565b7f4e487b7100000000000000000000000000000000000000000000000000000000600052601160045260246000fd5b7f4e487b7100000000000000000000000000000000000000000000000000000000600052601260045260246000fd5b7f4e487b7100000000000000000000000000000000000000000000000000000000600052604160045260246000fd5b6000601f19601f8301169050919050565b60008160011c9050919050565b7f547279696e6720746f2073706c697420747265652077697468206c656e67746860008201527f203c203100000000000000000000000000000000000000000000000000000000602082015250565b7f50726f63657373537472696e67206973206465706c6f79656400000000000000600082015250565b7f496e697469616c697a61626c653a20636f6e747261637420697320616c72656160008201527f647920696e697469616c697a6564000000000000000000000000000000000000602082015250565b7f746f74616c2073686f756c642062652067726561746572207468616e20300000600082015250565b7f496e76616c69642072616e676500000000000000000000000000000000000000600082015250565b50565b61178e816114cf565b811461179957600080fd5b50565b6117a5816114d9565b81146117b057600080fd5b5056fea26469706673582212205d4cbd0abc260673b87852166791584bf5489c7674f96007fce29c7eff99db1b64736f6c63430008040033",
  "linkReferences": {},
  "deployedLinkReferences": {}
}