{"contracts/ethBridge/MerkleTreeWithHistory.sol":{"MerkleTreeWithHistory":{"abi":[{"anonymous":false,"inputs":[{"indexed":false,"internalType":"uint8","name":"version","type":"uint8"}],"name":"Initialized","type":"event"},{"inputs":[],"name":"ROOT_HISTORY_SIZE","outputs":[{"internalType":"uint256","name":"","type":"uint256"}],"stateMutability":"view","type":"function"},{"inputs":[],"name":"currentDepositRoot","outputs":[{"internalType":"uint256","name":"","type":"uint256"}],"stateMutability":"view","type":"function"},{"inputs":[{"internalType":"uint256","name":"","type":"uint256"}],"name":"depositRoots","outputs":[{"internalType":"uint256","name":"","type":"uint256"}],"stateMutability":"view","type":"function"},{"inputs":[],"name":"getLastDepositRoot","outputs":[{"internalType":"uint256","name":"","type":"uint256"}],"stateMutability":"view","type":"function"},{"inputs":[{"internalType":"uint256","name":"_depositRoot","type":"uint256"}],"name":"isKnownDepostRoot","outputs":[{"internalType":"bool","name":"","type":"bool"}],"stateMutability":"view","type":"function"},{"inputs":[],"name":"levels","outputs":[{"internalType":"uint256","name":"","type":"uint256"}],"stateMutability":"view","type":"function"}],"evm":{"bytecode":{"linkReferences":{},"object":"608060405234801561001057600080fd5b5061034b806100206000396000f3fe608060405234801561001057600080fd5b50600436106100625760003560e01c80632cd4300c146100675780634ecf518b146100855780637ae1293f146100a35780639df22cd5146100d35780639ef46d0f146100f1578063cd87a3b414610121575b600080fd5b61006f61013f565b60405161007c9190610274565b60405180910390f35b61008d61015c565b60405161009a9190610274565b60405180910390f35b6100bd60048036038101906100b89190610212565b610162565b6040516100ca9190610259565b60405180910390f35b6100db6101d9565b6040516100e89190610274565b60405180910390f35b61010b60048036038101906101069190610212565b6101df565b6040516101189190610274565b60405180910390f35b6101296101f7565b6040516101369190610274565b60405180910390f35b600060046000600354815260200190815260200160002054905090565b60025481565b60008082141561017557600090506101d4565b6000600354905060008190505b60046000828152602001908152602001600020548414156101a8576001925050506101d4565b60008114156101b75760015490505b80806101c2906102a5565b91505081811415610182576000925050505b919050565b60035481565b60046020528060005260406000206000915090505481565b60015481565b60008135905061020c816102fe565b92915050565b60006020828403121561022457600080fd5b6000610232848285016101fd565b91505092915050565b6102448161028f565b82525050565b6102538161029b565b82525050565b600060208201905061026e600083018461023b565b92915050565b6000602082019050610289600083018461024a565b92915050565b60008115159050919050565b6000819050919050565b60006102b08261029b565b915060008214156102c4576102c36102cf565b5b600182039050919050565b7f4e487b7100000000000000000000000000000000000000000000000000000000600052601160045260246000fd5b6103078161029b565b811461031257600080fd5b5056fea264697066735822122032f25a26eb7270e24c5ced4219787ef14f455fa2a24ef196ee7829289908074364736f6c63430008040033","opcodes":"PUSH1 0x80 PUSH1 0x40 MSTORE CALLVALUE DUP1 ISZERO PUSH2 0x10 JUMPI PUSH1 0x0 DUP1 REVERT JUMPDEST POP PUSH2 0x34B DUP1 PUSH2 0x20 PUSH1 0x0 CODECOPY PUSH1 0x0 RETURN INVALID PUSH1 0x80 PUSH1 0x40 MSTORE CALLVALUE DUP1 ISZERO PUSH2 0x10 JUMPI PUSH1 0x0 DUP1 REVERT JUMPDEST POP PUSH1 0x4 CALLDATASIZE LT PUSH2 0x62 JUMPI PUSH1 0x0 CALLDATALOAD PUSH1 0xE0 SHR DUP1 PUSH4 0x2CD4300C EQ PUSH2 0x67 JUMPI DUP1 PUSH4 0x4ECF518B EQ PUSH2 0x85 JUMPI DUP1 PUSH4 0x7AE1293F EQ PUSH2 0xA3 JUMPI DUP1 PUSH4 0x9DF22CD5 EQ PUSH2 0xD3 JUMPI DUP1 PUSH4 0x9EF46D0F EQ PUSH2 0xF1 JUMPI DUP1 PUSH4 0xCD87A3B4 EQ PUSH2 0x121 JUMPI JUMPDEST PUSH1 0x0 DUP1 REVERT JUMPDEST PUSH2 0x6F PUSH2 0x13F JUMP JUMPDEST PUSH1 0x40 MLOAD PUSH2 0x7C SWAP2 SWAP1 PUSH2 0x274 JUMP JUMPDEST PUSH1 0x40 MLOAD DUP1 SWAP2 SUB SWAP1 RETURN JUMPDEST PUSH2 0x8D PUSH2 0x15C JUMP JUMPDEST PUSH1 0x40 MLOAD PUSH2 0x9A SWAP2 SWAP1 PUSH2 0x274 JUMP JUMPDEST PUSH1 0x40 MLOAD DUP1 SWAP2 SUB SWAP1 RETURN JUMPDEST PUSH2 0xBD PUSH1 0x4 DUP1 CALLDATASIZE SUB DUP2 ADD SWAP1 PUSH2 0xB8 SWAP2 SWAP1 PUSH2 0x212 JUMP JUMPDEST PUSH2 0x162 JUMP JUMPDEST PUSH1 0x40 MLOAD PUSH2 0xCA SWAP2 SWAP1 PUSH2 0x259 JUMP JUMPDEST PUSH1 0x40 MLOAD DUP1 SWAP2 SUB SWAP1 RETURN JUMPDEST PUSH2 0xDB PUSH2 0x1D9 JUMP JUMPDEST PUSH1 0x40 MLOAD PUSH2 0xE8 SWAP2 SWAP1 PUSH2 0x274 JUMP JUMPDEST PUSH1 0x40 MLOAD DUP1 SWAP2 SUB SWAP1 RETURN JUMPDEST PUSH2 0x10B PUSH1 0x4 DUP1 CALLDATASIZE SUB DUP2 ADD SWAP1 PUSH2 0x106 SWAP2 SWAP1 PUSH2 0x212 JUMP JUMPDEST PUSH2 0x1DF JUMP JUMPDEST PUSH1 0x40 MLOAD PUSH2 0x118 SWAP2 SWAP1 PUSH2 0x274 JUMP JUMPDEST PUSH1 0x40 MLOAD DUP1 SWAP2 SUB SWAP1 RETURN JUMPDEST PUSH2 0x129 PUSH2 0x1F7 JUMP JUMPDEST PUSH1 0x40 MLOAD PUSH2 0x136 SWAP2 SWAP1 PUSH2 0x274 JUMP JUMPDEST PUSH1 0x40 MLOAD DUP1 SWAP2 SUB SWAP1 RETURN JUMPDEST PUSH1 0x0 PUSH1 0x4 PUSH1 0x0 PUSH1 0x3 SLOAD DUP2 MSTORE PUSH1 0x20 ADD SWAP1 DUP2 MSTORE PUSH1 0x20 ADD PUSH1 0x0 KECCAK256 SLOAD SWAP1 POP SWAP1 JUMP JUMPDEST PUSH1 0x2 SLOAD DUP2 JUMP JUMPDEST PUSH1 0x0 DUP1 DUP3 EQ ISZERO PUSH2 0x175 JUMPI PUSH1 0x0 SWAP1 POP PUSH2 0x1D4 JUMP JUMPDEST PUSH1 0x0 PUSH1 0x3 SLOAD SWAP1 POP PUSH1 0x0 DUP2 SWAP1 POP JUMPDEST PUSH1 0x4 PUSH1 0x0 DUP3 DUP2 MSTORE PUSH1 0x20 ADD SWAP1 DUP2 MSTORE PUSH1 0x20 ADD PUSH1 0x0 KECCAK256 SLOAD DUP5 EQ ISZERO PUSH2 0x1A8 JUMPI PUSH1 0x1 SWAP3 POP POP POP PUSH2 0x1D4 JUMP JUMPDEST PUSH1 0x0 DUP2 EQ ISZERO PUSH2 0x1B7 JUMPI PUSH1 0x1 SLOAD SWAP1 POP JUMPDEST DUP1 DUP1 PUSH2 0x1C2 SWAP1 PUSH2 0x2A5 JUMP JUMPDEST SWAP2 POP POP DUP2 DUP2 EQ ISZERO PUSH2 0x182 JUMPI PUSH1 0x0 SWAP3 POP POP POP JUMPDEST SWAP2 SWAP1 POP JUMP JUMPDEST PUSH1 0x3 SLOAD DUP2 JUMP JUMPDEST PUSH1 0x4 PUSH1 0x20 MSTORE DUP1 PUSH1 0x0 MSTORE PUSH1 0x40 PUSH1 0x0 KECCAK256 PUSH1 0x0 SWAP2 POP SWAP1 POP SLOAD DUP2 JUMP JUMPDEST PUSH1 0x1 SLOAD DUP2 JUMP JUMPDEST PUSH1 0x0 DUP2 CALLDATALOAD SWAP1 POP PUSH2 0x20C DUP2 PUSH2 0x2FE JUMP JUMPDEST SWAP3 SWAP2 POP POP JUMP JUMPDEST PUSH1 0x0 PUSH1 0x20 DUP3 DUP5 SUB SLT ISZERO PUSH2 0x224 JUMPI PUSH1 0x0 DUP1 REVERT JUMPDEST PUSH1 0x0 PUSH2 0x232 DUP5 DUP3 DUP6 ADD PUSH2 0x1FD JUMP JUMPDEST SWAP2 POP POP SWAP3 SWAP2 POP POP JUMP JUMPDEST PUSH2 0x244 DUP2 PUSH2 0x28F JUMP JUMPDEST DUP3 MSTORE POP POP JUMP JUMPDEST PUSH2 0x253 DUP2 PUSH2 0x29B JUMP JUMPDEST DUP3 MSTORE POP POP JUMP JUMPDEST PUSH1 0x0 PUSH1 0x20 DUP3 ADD SWAP1 POP PUSH2 0x26E PUSH1 0x0 DUP4 ADD DUP5 PUSH2 0x23B JUMP JUMPDEST SWAP3 SWAP2 POP POP JUMP JUMPDEST PUSH1 0x0 PUSH1 0x20 DUP3 ADD SWAP1 POP PUSH2 0x289 PUSH1 0x0 DUP4 ADD DUP5 PUSH2 0x24A JUMP JUMPDEST SWAP3 SWAP2 POP POP JUMP JUMPDEST PUSH1 0x0 DUP2 ISZERO ISZERO SWAP1 POP SWAP2 SWAP1 POP JUMP JUMPDEST PUSH1 0x0 DUP2 SWAP1 POP SWAP2 SWAP1 POP JUMP JUMPDEST PUSH1 0x0 PUSH2 0x2B0 DUP3 PUSH2 0x29B JUMP JUMPDEST SWAP2 POP PUSH1 0x0 DUP3 EQ ISZERO PUSH2 0x2C4 JUMPI PUSH2 0x2C3 PUSH2 0x2CF JUMP JUMPDEST JUMPDEST PUSH1 0x1 DUP3 SUB SWAP1 POP SWAP2 SWAP1 POP JUMP JUMPDEST PUSH32 0x4E487B7100000000000000000000000000000000000000000000000000000000 PUSH1 0x0 MSTORE PUSH1 0x11 PUSH1 0x4 MSTORE PUSH1 0x24 PUSH1 0x0 REVERT JUMPDEST PUSH2 0x307 DUP2 PUSH2 0x29B JUMP JUMPDEST DUP2 EQ PUSH2 0x312 JUMPI PUSH1 0x0 DUP1 REVERT JUMPDEST POP JUMP INVALID LOG2 PUSH5 0x6970667358 0x22 SLT KECCAK256 ORIGIN CALLCODE GAS 0x26 0xEB PUSH19 0x70E24C5CED4219787EF14F455FA2A24EF196EE PUSH25 0x29289908074364736F6C634300080400330000000000000000 "},"methodIdentifiers":{"ROOT_HISTORY_SIZE()":"cd87a3b4","currentDepositRoot()":"9df22cd5","depositRoots(uint256)":"9ef46d0f","getLastDepositRoot()":"2cd4300c","isKnownDepostRoot(uint256)":"7ae1293f","levels()":"4ecf518b"}},"storageLayout":{"storage":[{"astId":138,"contract":"contracts/ethBridge/MerkleTreeWithHistory.sol:MerkleTreeWithHistory","label":"_initialized","offset":0,"slot":"0","type":"t_uint8"},{"astId":141,"contract":"contracts/ethBridge/MerkleTreeWithHistory.sol:MerkleTreeWithHistory","label":"_initializing","offset":1,"slot":"0","type":"t_bool"},{"astId":1548,"contract":"contracts/ethBridge/MerkleTreeWithHistory.sol:MerkleTreeWithHistory","label":"ROOT_HISTORY_SIZE","offset":0,"slot":"1","type":"t_uint256"},{"astId":1550,"contract":"contracts/ethBridge/MerkleTreeWithHistory.sol:MerkleTreeWithHistory","label":"levels","offset":0,"slot":"2","type":"t_uint256"},{"astId":1552,"contract":"contracts/ethBridge/MerkleTreeWithHistory.sol:MerkleTreeWithHistory","label":"currentDepositRoot","offset":0,"slot":"3","type":"t_uint256"},{"astId":1556,"contract":"contracts/ethBridge/MerkleTreeWithHistory.sol:MerkleTreeWithHistory","label":"depositRoots","offset":0,"slot":"4","type":"t_mapping(t_uint256,t_uint256)"}],"types":{"t_bool":{"encoding":"inplace","label":"bool","numberOfBytes":"1"},"t_mapping(t_uint256,t_uint256)":{"encoding":"mapping","key":"t_uint256","label":"mapping(uint256 => uint256)","numberOfBytes":"32","value":"t_uint256"},"t_uint256":{"encoding":"inplace","label":"uint256","numberOfBytes":"32"},"t_uint8":{"encoding":"inplace","label":"uint8","numberOfBytes":"1"}}}}}}