{"contracts/ethBridge/OraisanBridge.sol":{"OraisanBridge":{"abi":[{"anonymous":false,"inputs":[{"indexed":true,"internalType":"uint256[]","name":"inputs","type":"uint256[]"},{"indexed":false,"internalType":"uint256","name":"timestamp","type":"uint256"}],"name":"ClaimTransactionCompleted","type":"event"},{"anonymous":false,"inputs":[{"indexed":false,"internalType":"uint8","name":"version","type":"uint8"}],"name":"Initialized","type":"event"},{"anonymous":false,"inputs":[{"indexed":true,"internalType":"address","name":"previousOwner","type":"address"},{"indexed":true,"internalType":"address","name":"newOwner","type":"address"}],"name":"OwnershipTransferred","type":"event"},{"anonymous":false,"inputs":[{"indexed":false,"internalType":"address","name":"account","type":"address"}],"name":"Paused","type":"event"},{"anonymous":false,"inputs":[{"indexed":false,"internalType":"address","name":"account","type":"address"}],"name":"Unpaused","type":"event"},{"anonymous":false,"inputs":[{"indexed":true,"internalType":"uint256[]","name":"inputs","type":"uint256[]"},{"indexed":false,"internalType":"uint256","name":"timestamp","type":"uint256"}],"name":"UpdateDepositRootCompleted","type":"event"},{"inputs":[],"name":"ROOT_HISTORY_SIZE","outputs":[{"internalType":"uint256","name":"","type":"uint256"}],"stateMutability":"view","type":"function"},{"inputs":[{"components":[{"internalType":"string","name":"optionName","type":"string"},{"internalType":"uint256[2]","name":"pi_a","type":"uint256[2]"},{"internalType":"uint256[2][2]","name":"pi_b","type":"uint256[2][2]"},{"internalType":"uint256[2]","name":"pi_c","type":"uint256[2]"},{"internalType":"address","name":"eth_bridge_address","type":"address"},{"internalType":"address","name":"eth_receiver","type":"address"},{"internalType":"uint256","name":"amount","type":"uint256"},{"internalType":"uint160","name":"cosmos_token_address","type":"uint160"},{"internalType":"uint256","name":"depositRoot","type":"uint256"}],"internalType":"struct IVerifier.ClaimTransactionProof","name":"_claimTransactionProof","type":"tuple"}],"name":"claimTransaction","outputs":[],"stateMutability":"nonpayable","type":"function"},{"inputs":[{"internalType":"uint160","name":"","type":"uint160"}],"name":"cosmosToEthTokenAddress","outputs":[{"internalType":"address","name":"","type":"address"}],"stateMutability":"view","type":"function"},{"inputs":[],"name":"currentDepositRoot","outputs":[{"internalType":"uint256","name":"","type":"uint256"}],"stateMutability":"view","type":"function"},{"inputs":[{"internalType":"uint160","name":"_cosmosTokenAddress","type":"uint160"}],"name":"deleteTokenPair","outputs":[],"stateMutability":"nonpayable","type":"function"},{"inputs":[{"internalType":"uint256","name":"","type":"uint256"}],"name":"depositRoots","outputs":[{"internalType":"uint256","name":"","type":"uint256"}],"stateMutability":"view","type":"function"},{"inputs":[{"internalType":"address","name":"","type":"address"}],"name":"ethToCosmosTokenAddress","outputs":[{"internalType":"uint160","name":"","type":"uint160"}],"stateMutability":"view","type":"function"},{"inputs":[],"name":"getLastDepositRoot","outputs":[{"internalType":"uint256","name":"","type":"uint256"}],"stateMutability":"view","type":"function"},{"inputs":[{"internalType":"uint160","name":"_cosmosBridge","type":"uint160"}],"name":"getSupportCosmosBridge","outputs":[{"internalType":"bool","name":"","type":"bool"}],"stateMutability":"view","type":"function"},{"inputs":[{"internalType":"uint160","name":"_cosmosToken","type":"uint160"}],"name":"getTokenPairOfCosmosToken","outputs":[{"internalType":"address","name":"","type":"address"}],"stateMutability":"view","type":"function"},{"inputs":[{"internalType":"address","name":"_ethToken","type":"address"}],"name":"getTokenPairOfEthToken","outputs":[{"internalType":"uint160","name":"","type":"uint160"}],"stateMutability":"view","type":"function"},{"inputs":[{"internalType":"address","name":"_libAddressManager","type":"address"},{"internalType":"uint32","name":"_merkleTreeHeight","type":"uint32"}],"name":"initialize","outputs":[],"stateMutability":"nonpayable","type":"function"},{"inputs":[{"internalType":"uint256","name":"","type":"uint256"}],"name":"isClaimed","outputs":[{"internalType":"bool","name":"","type":"bool"}],"stateMutability":"view","type":"function"},{"inputs":[{"internalType":"uint256","name":"_depositRoot","type":"uint256"}],"name":"isKnownDepostRoot","outputs":[{"internalType":"bool","name":"","type":"bool"}],"stateMutability":"view","type":"function"},{"inputs":[{"internalType":"uint160","name":"","type":"uint160"}],"name":"isSupportCosmosBridge","outputs":[{"internalType":"bool","name":"","type":"bool"}],"stateMutability":"view","type":"function"},{"inputs":[],"name":"levels","outputs":[{"internalType":"uint256","name":"","type":"uint256"}],"stateMutability":"view","type":"function"},{"inputs":[],"name":"libAddressManager","outputs":[{"internalType":"contract Lib_AddressManager","name":"","type":"address"}],"stateMutability":"view","type":"function"},{"inputs":[],"name":"owner","outputs":[{"internalType":"address","name":"","type":"address"}],"stateMutability":"view","type":"function"},{"inputs":[],"name":"pause","outputs":[],"stateMutability":"nonpayable","type":"function"},{"inputs":[],"name":"paused","outputs":[{"internalType":"bool","name":"","type":"bool"}],"stateMutability":"view","type":"function"},{"inputs":[{"internalType":"uint160","name":"_cosmosBridge","type":"uint160"},{"internalType":"bool","name":"_isSupport","type":"bool"}],"name":"registerCosmosBridge","outputs":[],"stateMutability":"nonpayable","type":"function"},{"inputs":[{"internalType":"uint160","name":"_cosmosTokenAddress","type":"uint160"},{"internalType":"address","name":"_ethTokenAddress","type":"address"}],"name":"registerTokenPair","outputs":[],"stateMutability":"nonpayable","type":"function"},{"inputs":[],"name":"renounceOwnership","outputs":[],"stateMutability":"nonpayable","type":"function"},{"inputs":[{"internalType":"string","name":"_name","type":"string"}],"name":"resolve","outputs":[{"internalType":"address","name":"","type":"address"}],"stateMutability":"view","type":"function"},{"inputs":[{"internalType":"address","name":"newOwner","type":"address"}],"name":"transferOwnership","outputs":[],"stateMutability":"nonpayable","type":"function"},{"inputs":[],"name":"unpauseContract","outputs":[],"stateMutability":"nonpayable","type":"function"},{"inputs":[{"components":[{"internalType":"string","name":"optionName","type":"string"},{"internalType":"uint256[2]","name":"pi_a","type":"uint256[2]"},{"internalType":"uint256[2][2]","name":"pi_b","type":"uint256[2][2]"},{"internalType":"uint256[2]","name":"pi_c","type":"uint256[2]"},{"internalType":"uint160","name":"cosmosSender","type":"uint160"},{"internalType":"uint160","name":"cosmosBridge","type":"uint160"},{"internalType":"uint256","name":"depositRoot","type":"uint256"},{"internalType":"uint160","name":"dataHash","type":"uint160"}],"internalType":"struct IVerifier.DepositRootProof","name":"_depositRootProof","type":"tuple"}],"name":"updateRootDepositTree","outputs":[{"internalType":"bool","name":"","type":"bool"}],"stateMutability":"nonpayable","type":"function"}],"evm":{"bytecode":{"linkReferences":{},"object":"608060405234801561001057600080fd5b5061387c806100206000396000f3fe608060405234801561001057600080fd5b50600436106101a95760003560e01c80638da5cb5b116100f9578063b33712c511610097578063cd87a3b411610071578063cd87a3b4146104bc578063dcc4dcd2146104da578063e80b885b1461050a578063f2fde38b1461053a576101a9565b8063b33712c514610466578063bf60f95414610470578063c5e4c9f9146104a0576101a9565b80639df22cd5116100d35780639df22cd5146103b85780639e34070f146103d65780639ef46d0f14610406578063af00aa9214610436576101a9565b80638da5cb5b1461033a5780638e3327fa146103585780639139153f14610388576101a9565b8063461a4478116101665780635c975abb116101405780635c975abb146102d8578063715018a6146102f65780637ae1293f146103005780638456cb5914610330576101a9565b8063461a44781461026e5780634ecf518b1461029e578063517b0dc1146102bc576101a9565b806304ac7468146101ae5780631c00464e146101ca578063299ca478146101e65780632cd4300c146102045780633c975edb1461022257806341cfc0541461023e575b600080fd5b6101c860048036038101906101c39190612726565b610556565b005b6101e460048036038101906101df9190612778565b6106c4565b005b6101ee610922565b6040516101fb9190612dea565b60405180910390f35b61020c610948565b604051610219919061307d565b60405180910390f35b61023c600480360381019061023791906127b4565b610965565b005b610258600480360381019061025391906125ac565b610a63565b6040516102659190613062565b60405180910390f35b61028860048036038101906102839190612663565b610a96565b6040516102959190612d3d565b60405180910390f35b6102a6610b49565b6040516102b3919061307d565b60405180910390f35b6102d660048036038101906102d191906126a4565b610b4f565b005b6102e0611136565b6040516102ed9190612dcf565b60405180910390f35b6102fe61114d565b005b61031a600480360381019061031591906127f0565b611161565b6040516103279190612dcf565b60405180910390f35b6103386111d8565b005b6103426111ea565b60405161034f9190612d3d565b60405180910390f35b610372600480360381019061036d9190612726565b611214565b60405161037f9190612dcf565b60405180910390f35b6103a2600480360381019061039d91906125ac565b61126a565b6040516103af9190613062565b60405180910390f35b6103c06112d3565b6040516103cd919061307d565b60405180910390f35b6103f060048036038101906103eb91906127f0565b6112d9565b6040516103fd9190612dcf565b60405180910390f35b610420600480360381019061041b91906127f0565b6112f9565b60405161042d919061307d565b60405180910390f35b610450600480360381019061044b91906126e5565b611311565b60405161045d9190612dcf565b60405180910390f35b61046e61181f565b005b61048a60048036038101906104859190612726565b611831565b6040516104979190612d3d565b60405180910390f35b6104ba60048036038101906104b591906125fe565b611864565b005b6104c4611a73565b6040516104d1919061307d565b60405180910390f35b6104f460048036038101906104ef9190612726565b611a79565b6040516105019190612dcf565b60405180910390f35b610524600480360381019061051f9190612726565b611a99565b6040516105319190612d3d565b60405180910390f35b610554600480360381019061054f91906125ac565b611b02565b005b61055e611b86565b600060ce60008373ffffffffffffffffffffffffffffffffffffffff1673ffffffffffffffffffffffffffffffffffffffff16815260200190815260200160002060009054906101000a900473ffffffffffffffffffffffffffffffffffffffff169050600060ce60008473ffffffffffffffffffffffffffffffffffffffff1673ffffffffffffffffffffffffffffffffffffffff16815260200190815260200160002060006101000a81548173ffffffffffffffffffffffffffffffffffffffff021916908373ffffffffffffffffffffffffffffffffffffffff160217905550600060cf60008373ffffffffffffffffffffffffffffffffffffffff1673ffffffffffffffffffffffffffffffffffffffff16815260200190815260200160002060006101000a81548173ffffffffffffffffffffffffffffffffffffffff021916908373ffffffffffffffffffffffffffffffffffffffff1602179055505050565b6106cc611c04565b6106d4611b86565b600073ffffffffffffffffffffffffffffffffffffffff1660ce60008473ffffffffffffffffffffffffffffffffffffffff1673ffffffffffffffffffffffffffffffffffffffff16815260200190815260200160002060009054906101000a900473ffffffffffffffffffffffffffffffffffffffff1673ffffffffffffffffffffffffffffffffffffffff1614806107e35750600060cf60008373ffffffffffffffffffffffffffffffffffffffff1673ffffffffffffffffffffffffffffffffffffffff16815260200190815260200160002060009054906101000a900473ffffffffffffffffffffffffffffffffffffffff1673ffffffffffffffffffffffffffffffffffffffff16145b610822576040517f08c379a000000000000000000000000000000000000000000000000000000000815260040161081990613042565b60405180910390fd5b8060ce60008473ffffffffffffffffffffffffffffffffffffffff1673ffffffffffffffffffffffffffffffffffffffff16815260200190815260200160002060006101000a81548173ffffffffffffffffffffffffffffffffffffffff021916908373ffffffffffffffffffffffffffffffffffffffff1602179055508160cf60008373ffffffffffffffffffffffffffffffffffffffff1673ffffffffffffffffffffffffffffffffffffffff16815260200190815260200160002060006101000a81548173ffffffffffffffffffffffffffffffffffffffff021916908373ffffffffffffffffffffffffffffffffffffffff1602179055505050565b600060029054906101000a900473ffffffffffffffffffffffffffffffffffffffff1681565b600060046000600354815260200190815260200160002054905090565b61096d611c04565b610975611b86565b80151560cd60008473ffffffffffffffffffffffffffffffffffffffff1673ffffffffffffffffffffffffffffffffffffffff16815260200190815260200160002060009054906101000a900460ff1615151415610a08576040517f08c379a00000000000000000000000000000000000000000000000000000000081526004016109ff90612e62565b60405180910390fd5b8060cd60008473ffffffffffffffffffffffffffffffffffffffff1673ffffffffffffffffffffffffffffffffffffffff16815260200190815260200160002060006101000a81548160ff0219169083151502179055505050565b60cf6020528060005260406000206000915054906101000a900473ffffffffffffffffffffffffffffffffffffffff1681565b60008060029054906101000a900473ffffffffffffffffffffffffffffffffffffffff1673ffffffffffffffffffffffffffffffffffffffff1663bf40fac1836040518263ffffffff1660e01b8152600401610af29190612e20565b60206040518083038186803b158015610b0a57600080fd5b505afa158015610b1e573d6000803e3d6000fd5b505050506040513d601f19601f82011682018060405250810190610b4291906125d5565b9050919050565b60025481565b600073ffffffffffffffffffffffffffffffffffffffff1660ce60008360e0015173ffffffffffffffffffffffffffffffffffffffff1673ffffffffffffffffffffffffffffffffffffffff16815260200190815260200160002060009054906101000a900473ffffffffffffffffffffffffffffffffffffffff1673ffffffffffffffffffffffffffffffffffffffff161415610c22576040517f08c379a0000000000000000000000000000000000000000000000000000000008152600401610c1990612fa2565b60405180910390fd5b3073ffffffffffffffffffffffffffffffffffffffff16816080015173ffffffffffffffffffffffffffffffffffffffff1614610c94576040517f08c379a0000000000000000000000000000000000000000000000000000000008152600401610c8b90612ec2565b60405180910390fd5b610ca2816101000151611161565b610ce1576040517f08c379a0000000000000000000000000000000000000000000000000000000008152600401610cd890612f82565b60405180910390fd5b6000816000015190506000826020015190506000836040015190506000846060015190506000600567ffffffffffffffff811115610d48577f4e487b7100000000000000000000000000000000000000000000000000000000600052604160045260246000fd5b604051908082528060200260200182016040528015610d765781602001602082028036833780820191505090505b509050856080015173ffffffffffffffffffffffffffffffffffffffff1681600081518110610dce577f4e487b7100000000000000000000000000000000000000000000000000000000600052603260045260246000fd5b6020026020010181815250508560a0015173ffffffffffffffffffffffffffffffffffffffff1681600181518110610e2f577f4e487b7100000000000000000000000000000000000000000000000000000000600052603260045260246000fd5b6020026020010181815250508560c0015181600281518110610e7a577f4e487b7100000000000000000000000000000000000000000000000000000000600052603260045260246000fd5b6020026020010181815250508560e0015173ffffffffffffffffffffffffffffffffffffffff1681600381518110610edb577f4e487b7100000000000000000000000000000000000000000000000000000000600052603260045260246000fd5b60200260200101818152505085610100015181600481518110610f27577f4e487b7100000000000000000000000000000000000000000000000000000000600052603260045260246000fd5b602002602001018181525050610f3c85610a96565b73ffffffffffffffffffffffffffffffffffffffff1663c32e370e858585856040518563ffffffff1660e01b8152600401610f7a9493929190612d81565b60206040518083038186803b158015610f9257600080fd5b505afa158015610fa6573d6000803e3d6000fd5b505050506040513d601f19601f82011682018060405250810190610fca919061263a565b611009576040517f08c379a000000000000000000000000000000000000000000000000000000000815260040161100090612fc2565b60405180910390fd5b60ce60008760e0015173ffffffffffffffffffffffffffffffffffffffff1673ffffffffffffffffffffffffffffffffffffffff16815260200190815260200160002060009054906101000a900473ffffffffffffffffffffffffffffffffffffffff1673ffffffffffffffffffffffffffffffffffffffff166340c10f198760a001518860c001516040518363ffffffff1660e01b81526004016110af929190612d58565b600060405180830381600087803b1580156110c957600080fd5b505af11580156110dd573d6000803e3d6000fd5b50505050806040516110ef9190612d26565b60405180910390207f4e7589f75d86eccc05b3d94910b69255d4a905f5381ec472e446718f2c46079442604051611126919061307d565b60405180910390a2505050505050565b6000606960009054906101000a900460ff16905090565b611155611b86565b61115f6000611c4e565b565b60008082141561117457600090506111d3565b6000600354905060008190505b60046000828152602001908152602001600020548414156111a7576001925050506111d3565b60008114156111b65760015490505b80806111c190613332565b91505081811415611181576000925050505b919050565b6111e0611b86565b6111e8611d14565b565b6000603760009054906101000a900473ffffffffffffffffffffffffffffffffffffffff16905090565b600060cd60008373ffffffffffffffffffffffffffffffffffffffff1673ffffffffffffffffffffffffffffffffffffffff16815260200190815260200160002060009054906101000a900460ff169050919050565b600060cf60008373ffffffffffffffffffffffffffffffffffffffff1673ffffffffffffffffffffffffffffffffffffffff16815260200190815260200160002060009054906101000a900473ffffffffffffffffffffffffffffffffffffffff169050919050565b60035481565b60d06020528060005260406000206000915054906101000a900460ff1681565b60046020528060005260406000206000915090505481565b600061131b611c04565b60cd60008360a0015173ffffffffffffffffffffffffffffffffffffffff1673ffffffffffffffffffffffffffffffffffffffff16815260200190815260200160002060009054906101000a900460ff166113ab576040517f08c379a00000000000000000000000000000000000000000000000000000000081526004016113a290612f42565b60405180910390fd5b6113e96040518060400160405280601381526020017f434f534d4f535f424c4f434b5f48454144455200000000000000000000000000815250610a96565b73ffffffffffffffffffffffffffffffffffffffff16636096ade06040518163ffffffff1660e01b815260040160206040518083038186803b15801561142e57600080fd5b505afa158015611442573d6000803e3d6000fd5b505050506040513d601f19601f82011682018060405250810190611466919061274f565b73ffffffffffffffffffffffffffffffffffffffff168260e0015173ffffffffffffffffffffffffffffffffffffffff16146114d7576040517f08c379a00000000000000000000000000000000000000000000000000000000081526004016114ce90612ea2565b60405180910390fd5b6000826000015190506000836020015190506000846040015190506000856060015190506000600467ffffffffffffffff81111561153e577f4e487b7100000000000000000000000000000000000000000000000000000000600052604160045260246000fd5b60405190808252806020026020018201604052801561156c5781602001602082028036833780820191505090505b509050866080015173ffffffffffffffffffffffffffffffffffffffff16816000815181106115c4577f4e487b7100000000000000000000000000000000000000000000000000000000600052603260045260246000fd5b6020026020010181815250508660a0015173ffffffffffffffffffffffffffffffffffffffff1681600181518110611625577f4e487b7100000000000000000000000000000000000000000000000000000000600052603260045260246000fd5b6020026020010181815250508660c0015181600281518110611670577f4e487b7100000000000000000000000000000000000000000000000000000000600052603260045260246000fd5b6020026020010181815250508660e0015173ffffffffffffffffffffffffffffffffffffffff16816003815181106116d1577f4e487b7100000000000000000000000000000000000000000000000000000000600052603260045260246000fd5b6020026020010181815250506116e685610a96565b73ffffffffffffffffffffffffffffffffffffffff1663c32e370e858585856040518563ffffffff1660e01b81526004016117249493929190612d81565b60206040518083038186803b15801561173c57600080fd5b505afa158015611750573d6000803e3d6000fd5b505050506040513d601f19601f82011682018060405250810190611774919061263a565b6117b3576040517f08c379a00000000000000000000000000000000000000000000000000000000081526004016117aa90612fc2565b60405180910390fd5b60006117c28860c00151611d77565b9050816040516117d29190612d26565b60405180910390207fb863fd571fb24a5c7ec2e5259d558b03685336f31dcbf081507d6c4254bed30542604051611809919061307d565b60405180910390a2809650505050505050919050565b611827611b86565b61182f611dc3565b565b60ce6020528060005260406000206000915054906101000a900473ffffffffffffffffffffffffffffffffffffffff1681565b60008060019054906101000a900460ff161590508080156118955750600160008054906101000a900460ff1660ff16105b806118c257506118a430611e26565b1580156118c15750600160008054906101000a900460ff1660ff16145b5b611901576040517f08c379a00000000000000000000000000000000000000000000000000000000081526004016118f890612f22565b60405180910390fd5b60016000806101000a81548160ff021916908360ff160217905550801561193e576001600060016101000a81548160ff0219169083151502179055505b600060025414801561199e5750600073ffffffffffffffffffffffffffffffffffffffff16600060029054906101000a900473ffffffffffffffffffffffffffffffffffffffff1673ffffffffffffffffffffffffffffffffffffffff16145b6119dd576040517f08c379a00000000000000000000000000000000000000000000000000000000081526004016119d490612ee2565b60405180910390fd5b6119e683611e49565b6119f58263ffffffff16611edc565b6119fd611fe6565b611a05612037565b611a0d612098565b611a15612104565b8015611a6e5760008060016101000a81548160ff0219169083151502179055507f7f26b83ff96e1f2b6a682f133852f6798a09c465da95921460cefb38474024986001604051611a659190612e05565b60405180910390a15b505050565b60015481565b60cd6020528060005260406000206000915054906101000a900460ff1681565b600060ce60008373ffffffffffffffffffffffffffffffffffffffff1673ffffffffffffffffffffffffffffffffffffffff16815260200190815260200160002060009054906101000a900473ffffffffffffffffffffffffffffffffffffffff169050919050565b611b0a611b86565b600073ffffffffffffffffffffffffffffffffffffffff168173ffffffffffffffffffffffffffffffffffffffff161415611b7a576040517f08c379a0000000000000000000000000000000000000000000000000000000008152600401611b7190612e82565b60405180910390fd5b611b8381611c4e565b50565b611b8e61215d565b73ffffffffffffffffffffffffffffffffffffffff16611bac6111ea565b73ffffffffffffffffffffffffffffffffffffffff1614611c02576040517f08c379a0000000000000000000000000000000000000000000000000000000008152600401611bf990612f62565b60405180910390fd5b565b611c0c611136565b15611c4c576040517f08c379a0000000000000000000000000000000000000000000000000000000008152600401611c4390612f02565b60405180910390fd5b565b6000603760009054906101000a900473ffffffffffffffffffffffffffffffffffffffff16905081603760006101000a81548173ffffffffffffffffffffffffffffffffffffffff021916908373ffffffffffffffffffffffffffffffffffffffff1602179055508173ffffffffffffffffffffffffffffffffffffffff168173ffffffffffffffffffffffffffffffffffffffff167f8be0079c531659141344cd1fd0a4f28419497f9722a3daafe3b4186f6b6457e060405160405180910390a35050565b611d1c611c04565b6001606960006101000a81548160ff0219169083151502179055507f62e78cea01bee320cd4e420270b5ea74000d11b0c9f74754ebdbfc544b05a258611d6061215d565b604051611d6d9190612d3d565b60405180910390a1565b6000806001546001600354611d8c91906131ff565b611d96919061338d565b90508060038190555082600460006003548152602001908152602001600020819055506001915050919050565b611dcb612165565b6000606960006101000a81548160ff0219169083151502179055507f5db9ee0a495bf2e6ff9c91a7834c1ba4fdd244a5e8aa4e537bd38aeae4b073aa611e0f61215d565b604051611e1c9190612d3d565b60405180910390a1565b6000808273ffffffffffffffffffffffffffffffffffffffff163b119050919050565b600060019054906101000a900460ff16611e98576040517f08c379a0000000000000000000000000000000000000000000000000000000008152600401611e8f90612fe2565b60405180910390fd5b80600060026101000a81548173ffffffffffffffffffffffffffffffffffffffff021916908373ffffffffffffffffffffffffffffffffffffffff16021790555050565b600060019054906101000a900460ff16611f2b576040517f08c379a0000000000000000000000000000000000000000000000000000000008152600401611f2290612fe2565b60405180910390fd5b60008111611f6e576040517f08c379a0000000000000000000000000000000000000000000000000000000008152600401611f6590613022565b60405180910390fd5b60288110611fb1576040517f08c379a0000000000000000000000000000000000000000000000000000000008152600401611fa890613002565b60405180910390fd5b80600281905550600a600181905550600060038190555060006004600060035481526020019081526020016000208190555050565b600060019054906101000a900460ff16612035576040517f08c379a000000000000000000000000000000000000000000000000000000000815260040161202c90612fe2565b60405180910390fd5b565b600060019054906101000a900460ff16612086576040517f08c379a000000000000000000000000000000000000000000000000000000000815260040161207d90612fe2565b60405180910390fd5b61209661209161215d565b611c4e565b565b600060019054906101000a900460ff166120e7576040517f08c379a00000000000000000000000000000000000000000000000000000000081526004016120de90612fe2565b60405180910390fd5b6000606960006101000a81548160ff021916908315150217905550565b600060019054906101000a900460ff16612153576040517f08c379a000000000000000000000000000000000000000000000000000000000815260040161214a90612fe2565b60405180910390fd5b6001609b81905550565b600033905090565b61216d611136565b6121ac576040517f08c379a00000000000000000000000000000000000000000000000000000000081526004016121a390612e42565b60405180910390fd5b565b60006121c16121bc846130bd565b613098565b905080828560408602820111156121d757600080fd5b60005b8581101561220757816121ed8882612303565b8452602084019350604083019250506001810190506121da565b5050509392505050565b600061222461221f846130e3565b613098565b9050808285602086028201111561223a57600080fd5b60005b8581101561226a57816122508882612582565b84526020840193506020830192505060018101905061223d565b5050509392505050565b600061228761228284613109565b613098565b90508281526020810184848401111561229f57600080fd5b6122aa8482856132f0565b509392505050565b6000813590506122c1816137d3565b92915050565b6000815190506122d6816137d3565b92915050565b600082601f8301126122ed57600080fd5b60026122fa8482856121ae565b91505092915050565b600082601f83011261231457600080fd5b6002612321848285612211565b91505092915050565b600081359050612339816137ea565b92915050565b60008151905061234e816137ea565b92915050565b600082601f83011261236557600080fd5b8135612375848260208601612274565b91505092915050565b60006101c0828403121561239157600080fd5b61239c610120613098565b9050600082013567ffffffffffffffff8111156123b857600080fd5b6123c484828501612354565b60008301525060206123d884828501612303565b60208301525060606123ec848285016122dc565b60408301525060e061240084828501612303565b606083015250610120612415848285016122b2565b60808301525061014061242a848285016122b2565b60a08301525061016061243f84828501612582565b60c08301525061018061245484828501612558565b60e0830152506101a061246984828501612582565b6101008301525092915050565b60006101a0828403121561248957600080fd5b612494610100613098565b9050600082013567ffffffffffffffff8111156124b057600080fd5b6124bc84828501612354565b60008301525060206124d084828501612303565b60208301525060606124e4848285016122dc565b60408301525060e06124f884828501612303565b60608301525061012061250d84828501612558565b60808301525061014061252284828501612558565b60a08301525061016061253784828501612582565b60c08301525061018061254c84828501612558565b60e08301525092915050565b60008135905061256781613801565b92915050565b60008151905061257c81613801565b92915050565b60008135905061259181613818565b92915050565b6000813590506125a68161382f565b92915050565b6000602082840312156125be57600080fd5b60006125cc848285016122b2565b91505092915050565b6000602082840312156125e757600080fd5b60006125f5848285016122c7565b91505092915050565b6000806040838503121561261157600080fd5b600061261f858286016122b2565b925050602061263085828601612597565b9150509250929050565b60006020828403121561264c57600080fd5b600061265a8482850161233f565b91505092915050565b60006020828403121561267557600080fd5b600082013567ffffffffffffffff81111561268f57600080fd5b61269b84828501612354565b91505092915050565b6000602082840312156126b657600080fd5b600082013567ffffffffffffffff8111156126d057600080fd5b6126dc8482850161237e565b91505092915050565b6000602082840312156126f757600080fd5b600082013567ffffffffffffffff81111561271157600080fd5b61271d84828501612476565b91505092915050565b60006020828403121561273857600080fd5b600061274684828501612558565b91505092915050565b60006020828403121561276157600080fd5b600061276f8482850161256d565b91505092915050565b6000806040838503121561278b57600080fd5b600061279985828601612558565b92505060206127aa858286016122b2565b9150509250929050565b600080604083850312156127c757600080fd5b60006127d585828601612558565b92505060206127e68582860161232a565b9150509250929050565b60006020828403121561280257600080fd5b600061281084828501612582565b91505092915050565b600061282583836128c7565b60408301905092915050565b600061283d8383612cf9565b60208301905092915050565b60006128558383612d17565b60208301905092915050565b61286a81613255565b82525050565b6128798161315e565b61288381846131b1565b925061288e8261313a565b8060005b838110156128bf5781516128a68782612819565b96506128b18361318a565b925050600181019050612892565b505050505050565b6128d081613169565b6128da81846131bc565b92506128e582613144565b8060005b838110156129165781516128fd8782612831565b965061290883613197565b9250506001810190506128e9565b505050505050565b61292781613169565b61293181846131c7565b925061293c82613144565b8060005b8381101561296d5781516129548782612831565b965061295f83613197565b925050600181019050612940565b505050505050565b600061298082613174565b61298a81856131d2565b93506129958361314e565b8060005b838110156129c65781516129ad8882612831565b97506129b8836131a4565b925050600181019050612999565b5085935050505092915050565b60006129de82613174565b6129e881856131e3565b93506129f38361314e565b8060005b83811015612a24578151612a0b8882612849565b9750612a16836131a4565b9250506001810190506129f7565b5085935050505092915050565b612a3a81613267565b82525050565b612a49816132ba565b82525050565b612a58816132de565b82525050565b6000612a698261317f565b612a7381856131ee565b9350612a838185602086016132ff565b612a8c8161344b565b840191505092915050565b6000612aa46014836131ee565b9150612aaf8261345c565b602082019050919050565b6000612ac7601c836131ee565b9150612ad282613485565b602082019050919050565b6000612aea6026836131ee565b9150612af5826134ae565b604082019050919050565b6000612b0d6015836131ee565b9150612b18826134fd565b602082019050919050565b6000612b30602c836131ee565b9150612b3b82613526565b604082019050919050565b6000612b53601d836131ee565b9150612b5e82613575565b602082019050919050565b6000612b766010836131ee565b9150612b818261359e565b602082019050919050565b6000612b99602e836131ee565b9150612ba4826135c7565b604082019050919050565b6000612bbc601a836131ee565b9150612bc782613616565b602082019050919050565b6000612bdf6020836131ee565b9150612bea8261363f565b602082019050919050565b6000612c026017836131ee565b9150612c0d82613668565b602082019050919050565b6000612c256016836131ee565b9150612c3082613691565b602082019050919050565b6000612c486019836131ee565b9150612c53826136ba565b602082019050919050565b6000612c6b602b836131ee565b9150612c76826136e3565b604082019050919050565b6000612c8e601e836131ee565b9150612c9982613732565b602082019050919050565b6000612cb16023836131ee565b9150612cbc8261375b565b604082019050919050565b6000612cd46015836131ee565b9150612cdf826137aa565b602082019050919050565b612cf381613273565b82525050565b612d0281613293565b82525050565b612d1181613293565b82525050565b612d2081613293565b82525050565b6000612d3282846129d3565b915081905092915050565b6000602082019050612d526000830184612861565b92915050565b6000604082019050612d6d6000830185612861565b612d7a6020830184612d08565b9392505050565b600061012082019050612d97600083018761291e565b612da46040830186612870565b612db160c083018561291e565b818103610100830152612dc48184612975565b905095945050505050565b6000602082019050612de46000830184612a31565b92915050565b6000602082019050612dff6000830184612a40565b92915050565b6000602082019050612e1a6000830184612a4f565b92915050565b60006020820190508181036000830152612e3a8184612a5e565b905092915050565b60006020820190508181036000830152612e5b81612a97565b9050919050565b60006020820190508181036000830152612e7b81612aba565b9050919050565b60006020820190508181036000830152612e9b81612add565b9050919050565b60006020820190508181036000830152612ebb81612b00565b9050919050565b60006020820190508181036000830152612edb81612b23565b9050919050565b60006020820190508181036000830152612efb81612b46565b9050919050565b60006020820190508181036000830152612f1b81612b69565b9050919050565b60006020820190508181036000830152612f3b81612b8c565b9050919050565b60006020820190508181036000830152612f5b81612baf565b9050919050565b60006020820190508181036000830152612f7b81612bd2565b9050919050565b60006020820190508181036000830152612f9b81612bf5565b9050919050565b60006020820190508181036000830152612fbb81612c18565b9050919050565b60006020820190508181036000830152612fdb81612c3b565b9050919050565b60006020820190508181036000830152612ffb81612c5e565b9050919050565b6000602082019050818103600083015261301b81612c81565b9050919050565b6000602082019050818103600083015261303b81612ca4565b9050919050565b6000602082019050818103600083015261305b81612cc7565b9050919050565b60006020820190506130776000830184612cea565b92915050565b60006020820190506130926000830184612d08565b92915050565b60006130a26130b3565b90506130ae828261335c565b919050565b6000604051905090565b600067ffffffffffffffff8211156130d8576130d761341c565b5b602082029050919050565b600067ffffffffffffffff8211156130fe576130fd61341c565b5b602082029050919050565b600067ffffffffffffffff8211156131245761312361341c565b5b61312d8261344b565b9050602081019050919050565b6000819050919050565b6000819050919050565b6000819050602082019050919050565b600060029050919050565b600060029050919050565b600081519050919050565b600081519050919050565b6000602082019050919050565b6000602082019050919050565b6000602082019050919050565b600081905092915050565b600081905092915050565b600081905092915050565b600082825260208201905092915050565b600081905092915050565b600082825260208201905092915050565b600061320a82613293565b915061321583613293565b9250827fffffffffffffffffffffffffffffffffffffffffffffffffffffffffffffffff0382111561324a576132496133be565b5b828201905092915050565b600061326082613273565b9050919050565b60008115159050919050565b600073ffffffffffffffffffffffffffffffffffffffff82169050919050565b6000819050919050565b600063ffffffff82169050919050565b600060ff82169050919050565b60006132c5826132cc565b9050919050565b60006132d782613273565b9050919050565b60006132e9826132ad565b9050919050565b82818337600083830152505050565b60005b8381101561331d578082015181840152602081019050613302565b8381111561332c576000848401525b50505050565b600061333d82613293565b91506000821415613351576133506133be565b5b600182039050919050565b6133658261344b565b810181811067ffffffffffffffff821117156133845761338361341c565b5b80604052505050565b600061339882613293565b91506133a383613293565b9250826133b3576133b26133ed565b5b828206905092915050565b7f4e487b7100000000000000000000000000000000000000000000000000000000600052601160045260246000fd5b7f4e487b7100000000000000000000000000000000000000000000000000000000600052601260045260246000fd5b7f4e487b7100000000000000000000000000000000000000000000000000000000600052604160045260246000fd5b6000601f19601f8301169050919050565b7f5061757361626c653a206e6f7420706175736564000000000000000000000000600082015250565b7f636f736d6f73206272696467652077617320737570706f727465642100000000600082015250565b7f4f776e61626c653a206e6577206f776e657220697320746865207a65726f206160008201527f6464726573730000000000000000000000000000000000000000000000000000602082015250565b7f44617461206861736820697320696e76616c6964210000000000000000000000600082015250565b7f54686973206272696467652069736e277420737570706f727420666f7220636c60008201527f616d6d696e6720746f6b656e0000000000000000000000000000000000000000602082015250565b7f42726964676520697320616c726561647920696e697469616c697a6564000000600082015250565b7f5061757361626c653a2070617573656400000000000000000000000000000000600082015250565b7f496e697469616c697a61626c653a20636f6e747261637420697320616c72656160008201527f647920696e697469616c697a6564000000000000000000000000000000000000602082015250565b7f446f206e6f7420737570706f7274207468697320627269646765000000000000600082015250565b7f4f776e61626c653a2063616c6c6572206973206e6f7420746865206f776e6572600082015250565b7f4465706f73697420726f6f7420697320696e76616c6964000000000000000000600082015250565b7f4e6f7420737570706f7274207468697320746f6b656e00000000000000000000600082015250565b7f496e76616c6964206465706f736974526f6f742070726f6f6600000000000000600082015250565b7f496e697469616c697a61626c653a20636f6e7472616374206973206e6f74206960008201527f6e697469616c697a696e67000000000000000000000000000000000000000000602082015250565b7f5f6c6576656c732073686f756c64206265206c657373207468616e2034300000600082015250565b7f5f6c6576656c732073686f756c642062652067726561746572207468616e207a60008201527f65726f0000000000000000000000000000000000000000000000000000000000602082015250565b7f746f6b656e207761732072656769737465726564210000000000000000000000600082015250565b6137dc81613255565b81146137e757600080fd5b50565b6137f381613267565b81146137fe57600080fd5b50565b61380a81613273565b811461381557600080fd5b50565b61382181613293565b811461382c57600080fd5b50565b6138388161329d565b811461384357600080fd5b5056fea264697066735822122069dcadeea7710c10f5bdf3f817ae7c55757e7d80f88f148e4cf9a6840d61361464736f6c63430008040033","opcodes":"PUSH1 0x80 PUSH1 0x40 MSTORE CALLVALUE DUP1 ISZERO PUSH2 0x10 JUMPI PUSH1 0x0 DUP1 REVERT JUMPDEST POP PUSH2 0x387C DUP1 PUSH2 0x20 PUSH1 0x0 CODECOPY PUSH1 0x0 RETURN INVALID PUSH1 0x80 PUSH1 0x40 MSTORE CALLVALUE DUP1 ISZERO PUSH2 0x10 JUMPI PUSH1 0x0 DUP1 REVERT JUMPDEST POP PUSH1 0x4 CALLDATASIZE LT PUSH2 0x1A9 JUMPI PUSH1 0x0 CALLDATALOAD PUSH1 0xE0 SHR DUP1 PUSH4 0x8DA5CB5B GT PUSH2 0xF9 JUMPI DUP1 PUSH4 0xB33712C5 GT PUSH2 0x97 JUMPI DUP1 PUSH4 0xCD87A3B4 GT PUSH2 0x71 JUMPI DUP1 PUSH4 0xCD87A3B4 EQ PUSH2 0x4BC JUMPI DUP1 PUSH4 0xDCC4DCD2 EQ PUSH2 0x4DA JUMPI DUP1 PUSH4 0xE80B885B EQ PUSH2 0x50A JUMPI DUP1 PUSH4 0xF2FDE38B EQ PUSH2 0x53A JUMPI PUSH2 0x1A9 JUMP JUMPDEST DUP1 PUSH4 0xB33712C5 EQ PUSH2 0x466 JUMPI DUP1 PUSH4 0xBF60F954 EQ PUSH2 0x470 JUMPI DUP1 PUSH4 0xC5E4C9F9 EQ PUSH2 0x4A0 JUMPI PUSH2 0x1A9 JUMP JUMPDEST DUP1 PUSH4 0x9DF22CD5 GT PUSH2 0xD3 JUMPI DUP1 PUSH4 0x9DF22CD5 EQ PUSH2 0x3B8 JUMPI DUP1 PUSH4 0x9E34070F EQ PUSH2 0x3D6 JUMPI DUP1 PUSH4 0x9EF46D0F EQ PUSH2 0x406 JUMPI DUP1 PUSH4 0xAF00AA92 EQ PUSH2 0x436 JUMPI PUSH2 0x1A9 JUMP JUMPDEST DUP1 PUSH4 0x8DA5CB5B EQ PUSH2 0x33A JUMPI DUP1 PUSH4 0x8E3327FA EQ PUSH2 0x358 JUMPI DUP1 PUSH4 0x9139153F EQ PUSH2 0x388 JUMPI PUSH2 0x1A9 JUMP JUMPDEST DUP1 PUSH4 0x461A4478 GT PUSH2 0x166 JUMPI DUP1 PUSH4 0x5C975ABB GT PUSH2 0x140 JUMPI DUP1 PUSH4 0x5C975ABB EQ PUSH2 0x2D8 JUMPI DUP1 PUSH4 0x715018A6 EQ PUSH2 0x2F6 JUMPI DUP1 PUSH4 0x7AE1293F EQ PUSH2 0x300 JUMPI DUP1 PUSH4 0x8456CB59 EQ PUSH2 0x330 JUMPI PUSH2 0x1A9 JUMP JUMPDEST DUP1 PUSH4 0x461A4478 EQ PUSH2 0x26E JUMPI DUP1 PUSH4 0x4ECF518B EQ PUSH2 0x29E JUMPI DUP1 PUSH4 0x517B0DC1 EQ PUSH2 0x2BC JUMPI PUSH2 0x1A9 JUMP JUMPDEST DUP1 PUSH4 0x4AC7468 EQ PUSH2 0x1AE JUMPI DUP1 PUSH4 0x1C00464E EQ PUSH2 0x1CA JUMPI DUP1 PUSH4 0x299CA478 EQ PUSH2 0x1E6 JUMPI DUP1 PUSH4 0x2CD4300C EQ PUSH2 0x204 JUMPI DUP1 PUSH4 0x3C975EDB EQ PUSH2 0x222 JUMPI DUP1 PUSH4 0x41CFC054 EQ PUSH2 0x23E JUMPI JUMPDEST PUSH1 0x0 DUP1 REVERT JUMPDEST PUSH2 0x1C8 PUSH1 0x4 DUP1 CALLDATASIZE SUB DUP2 ADD SWAP1 PUSH2 0x1C3 SWAP2 SWAP1 PUSH2 0x2726 JUMP JUMPDEST PUSH2 0x556 JUMP JUMPDEST STOP JUMPDEST PUSH2 0x1E4 PUSH1 0x4 DUP1 CALLDATASIZE SUB DUP2 ADD SWAP1 PUSH2 0x1DF SWAP2 SWAP1 PUSH2 0x2778 JUMP JUMPDEST PUSH2 0x6C4 JUMP JUMPDEST STOP JUMPDEST PUSH2 0x1EE PUSH2 0x922 JUMP JUMPDEST PUSH1 0x40 MLOAD PUSH2 0x1FB SWAP2 SWAP1 PUSH2 0x2DEA JUMP JUMPDEST PUSH1 0x40 MLOAD DUP1 SWAP2 SUB SWAP1 RETURN JUMPDEST PUSH2 0x20C PUSH2 0x948 JUMP JUMPDEST PUSH1 0x40 MLOAD PUSH2 0x219 SWAP2 SWAP1 PUSH2 0x307D JUMP JUMPDEST PUSH1 0x40 MLOAD DUP1 SWAP2 SUB SWAP1 RETURN JUMPDEST PUSH2 0x23C PUSH1 0x4 DUP1 CALLDATASIZE SUB DUP2 ADD SWAP1 PUSH2 0x237 SWAP2 SWAP1 PUSH2 0x27B4 JUMP JUMPDEST PUSH2 0x965 JUMP JUMPDEST STOP JUMPDEST PUSH2 0x258 PUSH1 0x4 DUP1 CALLDATASIZE SUB DUP2 ADD SWAP1 PUSH2 0x253 SWAP2 SWAP1 PUSH2 0x25AC JUMP JUMPDEST PUSH2 0xA63 JUMP JUMPDEST PUSH1 0x40 MLOAD PUSH2 0x265 SWAP2 SWAP1 PUSH2 0x3062 JUMP JUMPDEST PUSH1 0x40 MLOAD DUP1 SWAP2 SUB SWAP1 RETURN JUMPDEST PUSH2 0x288 PUSH1 0x4 DUP1 CALLDATASIZE SUB DUP2 ADD SWAP1 PUSH2 0x283 SWAP2 SWAP1 PUSH2 0x2663 JUMP JUMPDEST PUSH2 0xA96 JUMP JUMPDEST PUSH1 0x40 MLOAD PUSH2 0x295 SWAP2 SWAP1 PUSH2 0x2D3D JUMP JUMPDEST PUSH1 0x40 MLOAD DUP1 SWAP2 SUB SWAP1 RETURN JUMPDEST PUSH2 0x2A6 PUSH2 0xB49 JUMP JUMPDEST PUSH1 0x40 MLOAD PUSH2 0x2B3 SWAP2 SWAP1 PUSH2 0x307D JUMP JUMPDEST PUSH1 0x40 MLOAD DUP1 SWAP2 SUB SWAP1 RETURN JUMPDEST PUSH2 0x2D6 PUSH1 0x4 DUP1 CALLDATASIZE SUB DUP2 ADD SWAP1 PUSH2 0x2D1 SWAP2 SWAP1 PUSH2 0x26A4 JUMP JUMPDEST PUSH2 0xB4F JUMP JUMPDEST STOP JUMPDEST PUSH2 0x2E0 PUSH2 0x1136 JUMP JUMPDEST PUSH1 0x40 MLOAD PUSH2 0x2ED SWAP2 SWAP1 PUSH2 0x2DCF JUMP JUMPDEST PUSH1 0x40 MLOAD DUP1 SWAP2 SUB SWAP1 RETURN JUMPDEST PUSH2 0x2FE PUSH2 0x114D JUMP JUMPDEST STOP JUMPDEST PUSH2 0x31A PUSH1 0x4 DUP1 CALLDATASIZE SUB DUP2 ADD SWAP1 PUSH2 0x315 SWAP2 SWAP1 PUSH2 0x27F0 JUMP JUMPDEST PUSH2 0x1161 JUMP JUMPDEST PUSH1 0x40 MLOAD PUSH2 0x327 SWAP2 SWAP1 PUSH2 0x2DCF JUMP JUMPDEST PUSH1 0x40 MLOAD DUP1 SWAP2 SUB SWAP1 RETURN JUMPDEST PUSH2 0x338 PUSH2 0x11D8 JUMP JUMPDEST STOP JUMPDEST PUSH2 0x342 PUSH2 0x11EA JUMP JUMPDEST PUSH1 0x40 MLOAD PUSH2 0x34F SWAP2 SWAP1 PUSH2 0x2D3D JUMP JUMPDEST PUSH1 0x40 MLOAD DUP1 SWAP2 SUB SWAP1 RETURN JUMPDEST PUSH2 0x372 PUSH1 0x4 DUP1 CALLDATASIZE SUB DUP2 ADD SWAP1 PUSH2 0x36D SWAP2 SWAP1 PUSH2 0x2726 JUMP JUMPDEST PUSH2 0x1214 JUMP JUMPDEST PUSH1 0x40 MLOAD PUSH2 0x37F SWAP2 SWAP1 PUSH2 0x2DCF JUMP JUMPDEST PUSH1 0x40 MLOAD DUP1 SWAP2 SUB SWAP1 RETURN JUMPDEST PUSH2 0x3A2 PUSH1 0x4 DUP1 CALLDATASIZE SUB DUP2 ADD SWAP1 PUSH2 0x39D SWAP2 SWAP1 PUSH2 0x25AC JUMP JUMPDEST PUSH2 0x126A JUMP JUMPDEST PUSH1 0x40 MLOAD PUSH2 0x3AF SWAP2 SWAP1 PUSH2 0x3062 JUMP JUMPDEST PUSH1 0x40 MLOAD DUP1 SWAP2 SUB SWAP1 RETURN JUMPDEST PUSH2 0x3C0 PUSH2 0x12D3 JUMP JUMPDEST PUSH1 0x40 MLOAD PUSH2 0x3CD SWAP2 SWAP1 PUSH2 0x307D JUMP JUMPDEST PUSH1 0x40 MLOAD DUP1 SWAP2 SUB SWAP1 RETURN JUMPDEST PUSH2 0x3F0 PUSH1 0x4 DUP1 CALLDATASIZE SUB DUP2 ADD SWAP1 PUSH2 0x3EB SWAP2 SWAP1 PUSH2 0x27F0 JUMP JUMPDEST PUSH2 0x12D9 JUMP JUMPDEST PUSH1 0x40 MLOAD PUSH2 0x3FD SWAP2 SWAP1 PUSH2 0x2DCF JUMP JUMPDEST PUSH1 0x40 MLOAD DUP1 SWAP2 SUB SWAP1 RETURN JUMPDEST PUSH2 0x420 PUSH1 0x4 DUP1 CALLDATASIZE SUB DUP2 ADD SWAP1 PUSH2 0x41B SWAP2 SWAP1 PUSH2 0x27F0 JUMP JUMPDEST PUSH2 0x12F9 JUMP JUMPDEST PUSH1 0x40 MLOAD PUSH2 0x42D SWAP2 SWAP1 PUSH2 0x307D JUMP JUMPDEST PUSH1 0x40 MLOAD DUP1 SWAP2 SUB SWAP1 RETURN JUMPDEST PUSH2 0x450 PUSH1 0x4 DUP1 CALLDATASIZE SUB DUP2 ADD SWAP1 PUSH2 0x44B SWAP2 SWAP1 PUSH2 0x26E5 JUMP JUMPDEST PUSH2 0x1311 JUMP JUMPDEST PUSH1 0x40 MLOAD PUSH2 0x45D SWAP2 SWAP1 PUSH2 0x2DCF JUMP JUMPDEST PUSH1 0x40 MLOAD DUP1 SWAP2 SUB SWAP1 RETURN JUMPDEST PUSH2 0x46E PUSH2 0x181F JUMP JUMPDEST STOP JUMPDEST PUSH2 0x48A PUSH1 0x4 DUP1 CALLDATASIZE SUB DUP2 ADD SWAP1 PUSH2 0x485 SWAP2 SWAP1 PUSH2 0x2726 JUMP JUMPDEST PUSH2 0x1831 JUMP JUMPDEST PUSH1 0x40 MLOAD PUSH2 0x497 SWAP2 SWAP1 PUSH2 0x2D3D JUMP JUMPDEST PUSH1 0x40 MLOAD DUP1 SWAP2 SUB SWAP1 RETURN JUMPDEST PUSH2 0x4BA PUSH1 0x4 DUP1 CALLDATASIZE SUB DUP2 ADD SWAP1 PUSH2 0x4B5 SWAP2 SWAP1 PUSH2 0x25FE JUMP JUMPDEST PUSH2 0x1864 JUMP JUMPDEST STOP JUMPDEST PUSH2 0x4C4 PUSH2 0x1A73 JUMP JUMPDEST PUSH1 0x40 MLOAD PUSH2 0x4D1 SWAP2 SWAP1 PUSH2 0x307D JUMP JUMPDEST PUSH1 0x40 MLOAD DUP1 SWAP2 SUB SWAP1 RETURN JUMPDEST PUSH2 0x4F4 PUSH1 0x4 DUP1 CALLDATASIZE SUB DUP2 ADD SWAP1 PUSH2 0x4EF SWAP2 SWAP1 PUSH2 0x2726 JUMP JUMPDEST PUSH2 0x1A79 JUMP JUMPDEST PUSH1 0x40 MLOAD PUSH2 0x501 SWAP2 SWAP1 PUSH2 0x2DCF JUMP JUMPDEST PUSH1 0x40 MLOAD DUP1 SWAP2 SUB SWAP1 RETURN JUMPDEST PUSH2 0x524 PUSH1 0x4 DUP1 CALLDATASIZE SUB DUP2 ADD SWAP1 PUSH2 0x51F SWAP2 SWAP1 PUSH2 0x2726 JUMP JUMPDEST PUSH2 0x1A99 JUMP JUMPDEST PUSH1 0x40 MLOAD PUSH2 0x531 SWAP2 SWAP1 PUSH2 0x2D3D JUMP JUMPDEST PUSH1 0x40 MLOAD DUP1 SWAP2 SUB SWAP1 RETURN JUMPDEST PUSH2 0x554 PUSH1 0x4 DUP1 CALLDATASIZE SUB DUP2 ADD SWAP1 PUSH2 0x54F SWAP2 SWAP1 PUSH2 0x25AC JUMP JUMPDEST PUSH2 0x1B02 JUMP JUMPDEST STOP JUMPDEST PUSH2 0x55E PUSH2 0x1B86 JUMP JUMPDEST PUSH1 0x0 PUSH1 0xCE PUSH1 0x0 DUP4 PUSH20 0xFFFFFFFFFFFFFFFFFFFFFFFFFFFFFFFFFFFFFFFF AND PUSH20 0xFFFFFFFFFFFFFFFFFFFFFFFFFFFFFFFFFFFFFFFF AND DUP2 MSTORE PUSH1 0x20 ADD SWAP1 DUP2 MSTORE PUSH1 0x20 ADD PUSH1 0x0 KECCAK256 PUSH1 0x0 SWAP1 SLOAD SWAP1 PUSH2 0x100 EXP SWAP1 DIV PUSH20 0xFFFFFFFFFFFFFFFFFFFFFFFFFFFFFFFFFFFFFFFF AND SWAP1 POP PUSH1 0x0 PUSH1 0xCE PUSH1 0x0 DUP5 PUSH20 0xFFFFFFFFFFFFFFFFFFFFFFFFFFFFFFFFFFFFFFFF AND PUSH20 0xFFFFFFFFFFFFFFFFFFFFFFFFFFFFFFFFFFFFFFFF AND DUP2 MSTORE PUSH1 0x20 ADD SWAP1 DUP2 MSTORE PUSH1 0x20 ADD PUSH1 0x0 KECCAK256 PUSH1 0x0 PUSH2 0x100 EXP DUP2 SLOAD DUP2 PUSH20 0xFFFFFFFFFFFFFFFFFFFFFFFFFFFFFFFFFFFFFFFF MUL NOT AND SWAP1 DUP4 PUSH20 0xFFFFFFFFFFFFFFFFFFFFFFFFFFFFFFFFFFFFFFFF AND MUL OR SWAP1 SSTORE POP PUSH1 0x0 PUSH1 0xCF PUSH1 0x0 DUP4 PUSH20 0xFFFFFFFFFFFFFFFFFFFFFFFFFFFFFFFFFFFFFFFF AND PUSH20 0xFFFFFFFFFFFFFFFFFFFFFFFFFFFFFFFFFFFFFFFF AND DUP2 MSTORE PUSH1 0x20 ADD SWAP1 DUP2 MSTORE PUSH1 0x20 ADD PUSH1 0x0 KECCAK256 PUSH1 0x0 PUSH2 0x100 EXP DUP2 SLOAD DUP2 PUSH20 0xFFFFFFFFFFFFFFFFFFFFFFFFFFFFFFFFFFFFFFFF MUL NOT AND SWAP1 DUP4 PUSH20 0xFFFFFFFFFFFFFFFFFFFFFFFFFFFFFFFFFFFFFFFF AND MUL OR SWAP1 SSTORE POP POP POP JUMP JUMPDEST PUSH2 0x6CC PUSH2 0x1C04 JUMP JUMPDEST PUSH2 0x6D4 PUSH2 0x1B86 JUMP JUMPDEST PUSH1 0x0 PUSH20 0xFFFFFFFFFFFFFFFFFFFFFFFFFFFFFFFFFFFFFFFF AND PUSH1 0xCE PUSH1 0x0 DUP5 PUSH20 0xFFFFFFFFFFFFFFFFFFFFFFFFFFFFFFFFFFFFFFFF AND PUSH20 0xFFFFFFFFFFFFFFFFFFFFFFFFFFFFFFFFFFFFFFFF AND DUP2 MSTORE PUSH1 0x20 ADD SWAP1 DUP2 MSTORE PUSH1 0x20 ADD PUSH1 0x0 KECCAK256 PUSH1 0x0 SWAP1 SLOAD SWAP1 PUSH2 0x100 EXP SWAP1 DIV PUSH20 0xFFFFFFFFFFFFFFFFFFFFFFFFFFFFFFFFFFFFFFFF AND PUSH20 0xFFFFFFFFFFFFFFFFFFFFFFFFFFFFFFFFFFFFFFFF AND EQ DUP1 PUSH2 0x7E3 JUMPI POP PUSH1 0x0 PUSH1 0xCF PUSH1 0x0 DUP4 PUSH20 0xFFFFFFFFFFFFFFFFFFFFFFFFFFFFFFFFFFFFFFFF AND PUSH20 0xFFFFFFFFFFFFFFFFFFFFFFFFFFFFFFFFFFFFFFFF AND DUP2 MSTORE PUSH1 0x20 ADD SWAP1 DUP2 MSTORE PUSH1 0x20 ADD PUSH1 0x0 KECCAK256 PUSH1 0x0 SWAP1 SLOAD SWAP1 PUSH2 0x100 EXP SWAP1 DIV PUSH20 0xFFFFFFFFFFFFFFFFFFFFFFFFFFFFFFFFFFFFFFFF AND PUSH20 0xFFFFFFFFFFFFFFFFFFFFFFFFFFFFFFFFFFFFFFFF AND EQ JUMPDEST PUSH2 0x822 JUMPI PUSH1 0x40 MLOAD PUSH32 0x8C379A000000000000000000000000000000000000000000000000000000000 DUP2 MSTORE PUSH1 0x4 ADD PUSH2 0x819 SWAP1 PUSH2 0x3042 JUMP JUMPDEST PUSH1 0x40 MLOAD DUP1 SWAP2 SUB SWAP1 REVERT JUMPDEST DUP1 PUSH1 0xCE PUSH1 0x0 DUP5 PUSH20 0xFFFFFFFFFFFFFFFFFFFFFFFFFFFFFFFFFFFFFFFF AND PUSH20 0xFFFFFFFFFFFFFFFFFFFFFFFFFFFFFFFFFFFFFFFF AND DUP2 MSTORE PUSH1 0x20 ADD SWAP1 DUP2 MSTORE PUSH1 0x20 ADD PUSH1 0x0 KECCAK256 PUSH1 0x0 PUSH2 0x100 EXP DUP2 SLOAD DUP2 PUSH20 0xFFFFFFFFFFFFFFFFFFFFFFFFFFFFFFFFFFFFFFFF MUL NOT AND SWAP1 DUP4 PUSH20 0xFFFFFFFFFFFFFFFFFFFFFFFFFFFFFFFFFFFFFFFF AND MUL OR SWAP1 SSTORE POP DUP2 PUSH1 0xCF PUSH1 0x0 DUP4 PUSH20 0xFFFFFFFFFFFFFFFFFFFFFFFFFFFFFFFFFFFFFFFF AND PUSH20 0xFFFFFFFFFFFFFFFFFFFFFFFFFFFFFFFFFFFFFFFF AND DUP2 MSTORE PUSH1 0x20 ADD SWAP1 DUP2 MSTORE PUSH1 0x20 ADD PUSH1 0x0 KECCAK256 PUSH1 0x0 PUSH2 0x100 EXP DUP2 SLOAD DUP2 PUSH20 0xFFFFFFFFFFFFFFFFFFFFFFFFFFFFFFFFFFFFFFFF MUL NOT AND SWAP1 DUP4 PUSH20 0xFFFFFFFFFFFFFFFFFFFFFFFFFFFFFFFFFFFFFFFF AND MUL OR SWAP1 SSTORE POP POP POP JUMP JUMPDEST PUSH1 0x0 PUSH1 0x2 SWAP1 SLOAD SWAP1 PUSH2 0x100 EXP SWAP1 DIV PUSH20 0xFFFFFFFFFFFFFFFFFFFFFFFFFFFFFFFFFFFFFFFF AND DUP2 JUMP JUMPDEST PUSH1 0x0 PUSH1 0x4 PUSH1 0x0 PUSH1 0x3 SLOAD DUP2 MSTORE PUSH1 0x20 ADD SWAP1 DUP2 MSTORE PUSH1 0x20 ADD PUSH1 0x0 KECCAK256 SLOAD SWAP1 POP SWAP1 JUMP JUMPDEST PUSH2 0x96D PUSH2 0x1C04 JUMP JUMPDEST PUSH2 0x975 PUSH2 0x1B86 JUMP JUMPDEST DUP1 ISZERO ISZERO PUSH1 0xCD PUSH1 0x0 DUP5 PUSH20 0xFFFFFFFFFFFFFFFFFFFFFFFFFFFFFFFFFFFFFFFF AND PUSH20 0xFFFFFFFFFFFFFFFFFFFFFFFFFFFFFFFFFFFFFFFF AND DUP2 MSTORE PUSH1 0x20 ADD SWAP1 DUP2 MSTORE PUSH1 0x20 ADD PUSH1 0x0 KECCAK256 PUSH1 0x0 SWAP1 SLOAD SWAP1 PUSH2 0x100 EXP SWAP1 DIV PUSH1 0xFF AND ISZERO ISZERO EQ ISZERO PUSH2 0xA08 JUMPI PUSH1 0x40 MLOAD PUSH32 0x8C379A000000000000000000000000000000000000000000000000000000000 DUP2 MSTORE PUSH1 0x4 ADD PUSH2 0x9FF SWAP1 PUSH2 0x2E62 JUMP JUMPDEST PUSH1 0x40 MLOAD DUP1 SWAP2 SUB SWAP1 REVERT JUMPDEST DUP1 PUSH1 0xCD PUSH1 0x0 DUP5 PUSH20 0xFFFFFFFFFFFFFFFFFFFFFFFFFFFFFFFFFFFFFFFF AND PUSH20 0xFFFFFFFFFFFFFFFFFFFFFFFFFFFFFFFFFFFFFFFF AND DUP2 MSTORE PUSH1 0x20 ADD SWAP1 DUP2 MSTORE PUSH1 0x20 ADD PUSH1 0x0 KECCAK256 PUSH1 0x0 PUSH2 0x100 EXP DUP2 SLOAD DUP2 PUSH1 0xFF MUL NOT AND SWAP1 DUP4 ISZERO ISZERO MUL OR SWAP1 SSTORE POP POP POP JUMP JUMPDEST PUSH1 0xCF PUSH1 0x20 MSTORE DUP1 PUSH1 0x0 MSTORE PUSH1 0x40 PUSH1 0x0 KECCAK256 PUSH1 0x0 SWAP2 POP SLOAD SWAP1 PUSH2 0x100 EXP SWAP1 DIV PUSH20 0xFFFFFFFFFFFFFFFFFFFFFFFFFFFFFFFFFFFFFFFF AND DUP2 JUMP JUMPDEST PUSH1 0x0 DUP1 PUSH1 0x2 SWAP1 SLOAD SWAP1 PUSH2 0x100 EXP SWAP1 DIV PUSH20 0xFFFFFFFFFFFFFFFFFFFFFFFFFFFFFFFFFFFFFFFF AND PUSH20 0xFFFFFFFFFFFFFFFFFFFFFFFFFFFFFFFFFFFFFFFF AND PUSH4 0xBF40FAC1 DUP4 PUSH1 0x40 MLOAD DUP3 PUSH4 0xFFFFFFFF AND PUSH1 0xE0 SHL DUP2 MSTORE PUSH1 0x4 ADD PUSH2 0xAF2 SWAP2 SWAP1 PUSH2 0x2E20 JUMP JUMPDEST PUSH1 0x20 PUSH1 0x40 MLOAD DUP1 DUP4 SUB DUP2 DUP7 DUP1 EXTCODESIZE ISZERO DUP1 ISZERO PUSH2 0xB0A JUMPI PUSH1 0x0 DUP1 REVERT JUMPDEST POP GAS STATICCALL ISZERO DUP1 ISZERO PUSH2 0xB1E JUMPI RETURNDATASIZE PUSH1 0x0 DUP1 RETURNDATACOPY RETURNDATASIZE PUSH1 0x0 REVERT JUMPDEST POP POP POP POP PUSH1 0x40 MLOAD RETURNDATASIZE PUSH1 0x1F NOT PUSH1 0x1F DUP3 ADD AND DUP3 ADD DUP1 PUSH1 0x40 MSTORE POP DUP2 ADD SWAP1 PUSH2 0xB42 SWAP2 SWAP1 PUSH2 0x25D5 JUMP JUMPDEST SWAP1 POP SWAP2 SWAP1 POP JUMP JUMPDEST PUSH1 0x2 SLOAD DUP2 JUMP JUMPDEST PUSH1 0x0 PUSH20 0xFFFFFFFFFFFFFFFFFFFFFFFFFFFFFFFFFFFFFFFF AND PUSH1 0xCE PUSH1 0x0 DUP4 PUSH1 0xE0 ADD MLOAD PUSH20 0xFFFFFFFFFFFFFFFFFFFFFFFFFFFFFFFFFFFFFFFF AND PUSH20 0xFFFFFFFFFFFFFFFFFFFFFFFFFFFFFFFFFFFFFFFF AND DUP2 MSTORE PUSH1 0x20 ADD SWAP1 DUP2 MSTORE PUSH1 0x20 ADD PUSH1 0x0 KECCAK256 PUSH1 0x0 SWAP1 SLOAD SWAP1 PUSH2 0x100 EXP SWAP1 DIV PUSH20 0xFFFFFFFFFFFFFFFFFFFFFFFFFFFFFFFFFFFFFFFF AND PUSH20 0xFFFFFFFFFFFFFFFFFFFFFFFFFFFFFFFFFFFFFFFF AND EQ ISZERO PUSH2 0xC22 JUMPI PUSH1 0x40 MLOAD PUSH32 0x8C379A000000000000000000000000000000000000000000000000000000000 DUP2 MSTORE PUSH1 0x4 ADD PUSH2 0xC19 SWAP1 PUSH2 0x2FA2 JUMP JUMPDEST PUSH1 0x40 MLOAD DUP1 SWAP2 SUB SWAP1 REVERT JUMPDEST ADDRESS PUSH20 0xFFFFFFFFFFFFFFFFFFFFFFFFFFFFFFFFFFFFFFFF AND DUP2 PUSH1 0x80 ADD MLOAD PUSH20 0xFFFFFFFFFFFFFFFFFFFFFFFFFFFFFFFFFFFFFFFF AND EQ PUSH2 0xC94 JUMPI PUSH1 0x40 MLOAD PUSH32 0x8C379A000000000000000000000000000000000000000000000000000000000 DUP2 MSTORE PUSH1 0x4 ADD PUSH2 0xC8B SWAP1 PUSH2 0x2EC2 JUMP JUMPDEST PUSH1 0x40 MLOAD DUP1 SWAP2 SUB SWAP1 REVERT JUMPDEST PUSH2 0xCA2 DUP2 PUSH2 0x100 ADD MLOAD PUSH2 0x1161 JUMP JUMPDEST PUSH2 0xCE1 JUMPI PUSH1 0x40 MLOAD PUSH32 0x8C379A000000000000000000000000000000000000000000000000000000000 DUP2 MSTORE PUSH1 0x4 ADD PUSH2 0xCD8 SWAP1 PUSH2 0x2F82 JUMP JUMPDEST PUSH1 0x40 MLOAD DUP1 SWAP2 SUB SWAP1 REVERT JUMPDEST PUSH1 0x0 DUP2 PUSH1 0x0 ADD MLOAD SWAP1 POP PUSH1 0x0 DUP3 PUSH1 0x20 ADD MLOAD SWAP1 POP PUSH1 0x0 DUP4 PUSH1 0x40 ADD MLOAD SWAP1 POP PUSH1 0x0 DUP5 PUSH1 0x60 ADD MLOAD SWAP1 POP PUSH1 0x0 PUSH1 0x5 PUSH8 0xFFFFFFFFFFFFFFFF DUP2 GT ISZERO PUSH2 0xD48 JUMPI PUSH32 0x4E487B7100000000000000000000000000000000000000000000000000000000 PUSH1 0x0 MSTORE PUSH1 0x41 PUSH1 0x4 MSTORE PUSH1 0x24 PUSH1 0x0 REVERT JUMPDEST PUSH1 0x40 MLOAD SWAP1 DUP1 DUP3 MSTORE DUP1 PUSH1 0x20 MUL PUSH1 0x20 ADD DUP3 ADD PUSH1 0x40 MSTORE DUP1 ISZERO PUSH2 0xD76 JUMPI DUP2 PUSH1 0x20 ADD PUSH1 0x20 DUP3 MUL DUP1 CALLDATASIZE DUP4 CALLDATACOPY DUP1 DUP3 ADD SWAP2 POP POP SWAP1 POP JUMPDEST POP SWAP1 POP DUP6 PUSH1 0x80 ADD MLOAD PUSH20 0xFFFFFFFFFFFFFFFFFFFFFFFFFFFFFFFFFFFFFFFF AND DUP2 PUSH1 0x0 DUP2 MLOAD DUP2 LT PUSH2 0xDCE JUMPI PUSH32 0x4E487B7100000000000000000000000000000000000000000000000000000000 PUSH1 0x0 MSTORE PUSH1 0x32 PUSH1 0x4 MSTORE PUSH1 0x24 PUSH1 0x0 REVERT JUMPDEST PUSH1 0x20 MUL PUSH1 0x20 ADD ADD DUP2 DUP2 MSTORE POP POP DUP6 PUSH1 0xA0 ADD MLOAD PUSH20 0xFFFFFFFFFFFFFFFFFFFFFFFFFFFFFFFFFFFFFFFF AND DUP2 PUSH1 0x1 DUP2 MLOAD DUP2 LT PUSH2 0xE2F JUMPI PUSH32 0x4E487B7100000000000000000000000000000000000000000000000000000000 PUSH1 0x0 MSTORE PUSH1 0x32 PUSH1 0x4 MSTORE PUSH1 0x24 PUSH1 0x0 REVERT JUMPDEST PUSH1 0x20 MUL PUSH1 0x20 ADD ADD DUP2 DUP2 MSTORE POP POP DUP6 PUSH1 0xC0 ADD MLOAD DUP2 PUSH1 0x2 DUP2 MLOAD DUP2 LT PUSH2 0xE7A JUMPI PUSH32 0x4E487B7100000000000000000000000000000000000000000000000000000000 PUSH1 0x0 MSTORE PUSH1 0x32 PUSH1 0x4 MSTORE PUSH1 0x24 PUSH1 0x0 REVERT JUMPDEST PUSH1 0x20 MUL PUSH1 0x20 ADD ADD DUP2 DUP2 MSTORE POP POP DUP6 PUSH1 0xE0 ADD MLOAD PUSH20 0xFFFFFFFFFFFFFFFFFFFFFFFFFFFFFFFFFFFFFFFF AND DUP2 PUSH1 0x3 DUP2 MLOAD DUP2 LT PUSH2 0xEDB JUMPI PUSH32 0x4E487B7100000000000000000000000000000000000000000000000000000000 PUSH1 0x0 MSTORE PUSH1 0x32 PUSH1 0x4 MSTORE PUSH1 0x24 PUSH1 0x0 REVERT JUMPDEST PUSH1 0x20 MUL PUSH1 0x20 ADD ADD DUP2 DUP2 MSTORE POP POP DUP6 PUSH2 0x100 ADD MLOAD DUP2 PUSH1 0x4 DUP2 MLOAD DUP2 LT PUSH2 0xF27 JUMPI PUSH32 0x4E487B7100000000000000000000000000000000000000000000000000000000 PUSH1 0x0 MSTORE PUSH1 0x32 PUSH1 0x4 MSTORE PUSH1 0x24 PUSH1 0x0 REVERT JUMPDEST PUSH1 0x20 MUL PUSH1 0x20 ADD ADD DUP2 DUP2 MSTORE POP POP PUSH2 0xF3C DUP6 PUSH2 0xA96 JUMP JUMPDEST PUSH20 0xFFFFFFFFFFFFFFFFFFFFFFFFFFFFFFFFFFFFFFFF AND PUSH4 0xC32E370E DUP6 DUP6 DUP6 DUP6 PUSH1 0x40 MLOAD DUP6 PUSH4 0xFFFFFFFF AND PUSH1 0xE0 SHL DUP2 MSTORE PUSH1 0x4 ADD PUSH2 0xF7A SWAP5 SWAP4 SWAP3 SWAP2 SWAP1 PUSH2 0x2D81 JUMP JUMPDEST PUSH1 0x20 PUSH1 0x40 MLOAD DUP1 DUP4 SUB DUP2 DUP7 DUP1 EXTCODESIZE ISZERO DUP1 ISZERO PUSH2 0xF92 JUMPI PUSH1 0x0 DUP1 REVERT JUMPDEST POP GAS STATICCALL ISZERO DUP1 ISZERO PUSH2 0xFA6 JUMPI RETURNDATASIZE PUSH1 0x0 DUP1 RETURNDATACOPY RETURNDATASIZE PUSH1 0x0 REVERT JUMPDEST POP POP POP POP PUSH1 0x40 MLOAD RETURNDATASIZE PUSH1 0x1F NOT PUSH1 0x1F DUP3 ADD AND DUP3 ADD DUP1 PUSH1 0x40 MSTORE POP DUP2 ADD SWAP1 PUSH2 0xFCA SWAP2 SWAP1 PUSH2 0x263A JUMP JUMPDEST PUSH2 0x1009 JUMPI PUSH1 0x40 MLOAD PUSH32 0x8C379A000000000000000000000000000000000000000000000000000000000 DUP2 MSTORE PUSH1 0x4 ADD PUSH2 0x1000 SWAP1 PUSH2 0x2FC2 JUMP JUMPDEST PUSH1 0x40 MLOAD DUP1 SWAP2 SUB SWAP1 REVERT JUMPDEST PUSH1 0xCE PUSH1 0x0 DUP8 PUSH1 0xE0 ADD MLOAD PUSH20 0xFFFFFFFFFFFFFFFFFFFFFFFFFFFFFFFFFFFFFFFF AND PUSH20 0xFFFFFFFFFFFFFFFFFFFFFFFFFFFFFFFFFFFFFFFF AND DUP2 MSTORE PUSH1 0x20 ADD SWAP1 DUP2 MSTORE PUSH1 0x20 ADD PUSH1 0x0 KECCAK256 PUSH1 0x0 SWAP1 SLOAD SWAP1 PUSH2 0x100 EXP SWAP1 DIV PUSH20 0xFFFFFFFFFFFFFFFFFFFFFFFFFFFFFFFFFFFFFFFF AND PUSH20 0xFFFFFFFFFFFFFFFFFFFFFFFFFFFFFFFFFFFFFFFF AND PUSH4 0x40C10F19 DUP8 PUSH1 0xA0 ADD MLOAD DUP9 PUSH1 0xC0 ADD MLOAD PUSH1 0x40 MLOAD DUP4 PUSH4 0xFFFFFFFF AND PUSH1 0xE0 SHL DUP2 MSTORE PUSH1 0x4 ADD PUSH2 0x10AF SWAP3 SWAP2 SWAP1 PUSH2 0x2D58 JUMP JUMPDEST PUSH1 0x0 PUSH1 0x40 MLOAD DUP1 DUP4 SUB DUP2 PUSH1 0x0 DUP8 DUP1 EXTCODESIZE ISZERO DUP1 ISZERO PUSH2 0x10C9 JUMPI PUSH1 0x0 DUP1 REVERT JUMPDEST POP GAS CALL ISZERO DUP1 ISZERO PUSH2 0x10DD JUMPI RETURNDATASIZE PUSH1 0x0 DUP1 RETURNDATACOPY RETURNDATASIZE PUSH1 0x0 REVERT JUMPDEST POP POP POP POP DUP1 PUSH1 0x40 MLOAD PUSH2 0x10EF SWAP2 SWAP1 PUSH2 0x2D26 JUMP JUMPDEST PUSH1 0x40 MLOAD DUP1 SWAP2 SUB SWAP1 KECCAK256 PUSH32 0x4E7589F75D86ECCC05B3D94910B69255D4A905F5381EC472E446718F2C460794 TIMESTAMP PUSH1 0x40 MLOAD PUSH2 0x1126 SWAP2 SWAP1 PUSH2 0x307D JUMP JUMPDEST PUSH1 0x40 MLOAD DUP1 SWAP2 SUB SWAP1 LOG2 POP POP POP POP POP POP JUMP JUMPDEST PUSH1 0x0 PUSH1 0x69 PUSH1 0x0 SWAP1 SLOAD SWAP1 PUSH2 0x100 EXP SWAP1 DIV PUSH1 0xFF AND SWAP1 POP SWAP1 JUMP JUMPDEST PUSH2 0x1155 PUSH2 0x1B86 JUMP JUMPDEST PUSH2 0x115F PUSH1 0x0 PUSH2 0x1C4E JUMP JUMPDEST JUMP JUMPDEST PUSH1 0x0 DUP1 DUP3 EQ ISZERO PUSH2 0x1174 JUMPI PUSH1 0x0 SWAP1 POP PUSH2 0x11D3 JUMP JUMPDEST PUSH1 0x0 PUSH1 0x3 SLOAD SWAP1 POP PUSH1 0x0 DUP2 SWAP1 POP JUMPDEST PUSH1 0x4 PUSH1 0x0 DUP3 DUP2 MSTORE PUSH1 0x20 ADD SWAP1 DUP2 MSTORE PUSH1 0x20 ADD PUSH1 0x0 KECCAK256 SLOAD DUP5 EQ ISZERO PUSH2 0x11A7 JUMPI PUSH1 0x1 SWAP3 POP POP POP PUSH2 0x11D3 JUMP JUMPDEST PUSH1 0x0 DUP2 EQ ISZERO PUSH2 0x11B6 JUMPI PUSH1 0x1 SLOAD SWAP1 POP JUMPDEST DUP1 DUP1 PUSH2 0x11C1 SWAP1 PUSH2 0x3332 JUMP JUMPDEST SWAP2 POP POP DUP2 DUP2 EQ ISZERO PUSH2 0x1181 JUMPI PUSH1 0x0 SWAP3 POP POP POP JUMPDEST SWAP2 SWAP1 POP JUMP JUMPDEST PUSH2 0x11E0 PUSH2 0x1B86 JUMP JUMPDEST PUSH2 0x11E8 PUSH2 0x1D14 JUMP JUMPDEST JUMP JUMPDEST PUSH1 0x0 PUSH1 0x37 PUSH1 0x0 SWAP1 SLOAD SWAP1 PUSH2 0x100 EXP SWAP1 DIV PUSH20 0xFFFFFFFFFFFFFFFFFFFFFFFFFFFFFFFFFFFFFFFF AND SWAP1 POP SWAP1 JUMP JUMPDEST PUSH1 0x0 PUSH1 0xCD PUSH1 0x0 DUP4 PUSH20 0xFFFFFFFFFFFFFFFFFFFFFFFFFFFFFFFFFFFFFFFF AND PUSH20 0xFFFFFFFFFFFFFFFFFFFFFFFFFFFFFFFFFFFFFFFF AND DUP2 MSTORE PUSH1 0x20 ADD SWAP1 DUP2 MSTORE PUSH1 0x20 ADD PUSH1 0x0 KECCAK256 PUSH1 0x0 SWAP1 SLOAD SWAP1 PUSH2 0x100 EXP SWAP1 DIV PUSH1 0xFF AND SWAP1 POP SWAP2 SWAP1 POP JUMP JUMPDEST PUSH1 0x0 PUSH1 0xCF PUSH1 0x0 DUP4 PUSH20 0xFFFFFFFFFFFFFFFFFFFFFFFFFFFFFFFFFFFFFFFF AND PUSH20 0xFFFFFFFFFFFFFFFFFFFFFFFFFFFFFFFFFFFFFFFF AND DUP2 MSTORE PUSH1 0x20 ADD SWAP1 DUP2 MSTORE PUSH1 0x20 ADD PUSH1 0x0 KECCAK256 PUSH1 0x0 SWAP1 SLOAD SWAP1 PUSH2 0x100 EXP SWAP1 DIV PUSH20 0xFFFFFFFFFFFFFFFFFFFFFFFFFFFFFFFFFFFFFFFF AND SWAP1 POP SWAP2 SWAP1 POP JUMP JUMPDEST PUSH1 0x3 SLOAD DUP2 JUMP JUMPDEST PUSH1 0xD0 PUSH1 0x20 MSTORE DUP1 PUSH1 0x0 MSTORE PUSH1 0x40 PUSH1 0x0 KECCAK256 PUSH1 0x0 SWAP2 POP SLOAD SWAP1 PUSH2 0x100 EXP SWAP1 DIV PUSH1 0xFF AND DUP2 JUMP JUMPDEST PUSH1 0x4 PUSH1 0x20 MSTORE DUP1 PUSH1 0x0 MSTORE PUSH1 0x40 PUSH1 0x0 KECCAK256 PUSH1 0x0 SWAP2 POP SWAP1 POP SLOAD DUP2 JUMP JUMPDEST PUSH1 0x0 PUSH2 0x131B PUSH2 0x1C04 JUMP JUMPDEST PUSH1 0xCD PUSH1 0x0 DUP4 PUSH1 0xA0 ADD MLOAD PUSH20 0xFFFFFFFFFFFFFFFFFFFFFFFFFFFFFFFFFFFFFFFF AND PUSH20 0xFFFFFFFFFFFFFFFFFFFFFFFFFFFFFFFFFFFFFFFF AND DUP2 MSTORE PUSH1 0x20 ADD SWAP1 DUP2 MSTORE PUSH1 0x20 ADD PUSH1 0x0 KECCAK256 PUSH1 0x0 SWAP1 SLOAD SWAP1 PUSH2 0x100 EXP SWAP1 DIV PUSH1 0xFF AND PUSH2 0x13AB JUMPI PUSH1 0x40 MLOAD PUSH32 0x8C379A000000000000000000000000000000000000000000000000000000000 DUP2 MSTORE PUSH1 0x4 ADD PUSH2 0x13A2 SWAP1 PUSH2 0x2F42 JUMP JUMPDEST PUSH1 0x40 MLOAD DUP1 SWAP2 SUB SWAP1 REVERT JUMPDEST PUSH2 0x13E9 PUSH1 0x40 MLOAD DUP1 PUSH1 0x40 ADD PUSH1 0x40 MSTORE DUP1 PUSH1 0x13 DUP2 MSTORE PUSH1 0x20 ADD PUSH32 0x434F534D4F535F424C4F434B5F48454144455200000000000000000000000000 DUP2 MSTORE POP PUSH2 0xA96 JUMP JUMPDEST PUSH20 0xFFFFFFFFFFFFFFFFFFFFFFFFFFFFFFFFFFFFFFFF AND PUSH4 0x6096ADE0 PUSH1 0x40 MLOAD DUP2 PUSH4 0xFFFFFFFF AND PUSH1 0xE0 SHL DUP2 MSTORE PUSH1 0x4 ADD PUSH1 0x20 PUSH1 0x40 MLOAD DUP1 DUP4 SUB DUP2 DUP7 DUP1 EXTCODESIZE ISZERO DUP1 ISZERO PUSH2 0x142E JUMPI PUSH1 0x0 DUP1 REVERT JUMPDEST POP GAS STATICCALL ISZERO DUP1 ISZERO PUSH2 0x1442 JUMPI RETURNDATASIZE PUSH1 0x0 DUP1 RETURNDATACOPY RETURNDATASIZE PUSH1 0x0 REVERT JUMPDEST POP POP POP POP PUSH1 0x40 MLOAD RETURNDATASIZE PUSH1 0x1F NOT PUSH1 0x1F DUP3 ADD AND DUP3 ADD DUP1 PUSH1 0x40 MSTORE POP DUP2 ADD SWAP1 PUSH2 0x1466 SWAP2 SWAP1 PUSH2 0x274F JUMP JUMPDEST PUSH20 0xFFFFFFFFFFFFFFFFFFFFFFFFFFFFFFFFFFFFFFFF AND DUP3 PUSH1 0xE0 ADD MLOAD PUSH20 0xFFFFFFFFFFFFFFFFFFFFFFFFFFFFFFFFFFFFFFFF AND EQ PUSH2 0x14D7 JUMPI PUSH1 0x40 MLOAD PUSH32 0x8C379A000000000000000000000000000000000000000000000000000000000 DUP2 MSTORE PUSH1 0x4 ADD PUSH2 0x14CE SWAP1 PUSH2 0x2EA2 JUMP JUMPDEST PUSH1 0x40 MLOAD DUP1 SWAP2 SUB SWAP1 REVERT JUMPDEST PUSH1 0x0 DUP3 PUSH1 0x0 ADD MLOAD SWAP1 POP PUSH1 0x0 DUP4 PUSH1 0x20 ADD MLOAD SWAP1 POP PUSH1 0x0 DUP5 PUSH1 0x40 ADD MLOAD SWAP1 POP PUSH1 0x0 DUP6 PUSH1 0x60 ADD MLOAD SWAP1 POP PUSH1 0x0 PUSH1 0x4 PUSH8 0xFFFFFFFFFFFFFFFF DUP2 GT ISZERO PUSH2 0x153E JUMPI PUSH32 0x4E487B7100000000000000000000000000000000000000000000000000000000 PUSH1 0x0 MSTORE PUSH1 0x41 PUSH1 0x4 MSTORE PUSH1 0x24 PUSH1 0x0 REVERT JUMPDEST PUSH1 0x40 MLOAD SWAP1 DUP1 DUP3 MSTORE DUP1 PUSH1 0x20 MUL PUSH1 0x20 ADD DUP3 ADD PUSH1 0x40 MSTORE DUP1 ISZERO PUSH2 0x156C JUMPI DUP2 PUSH1 0x20 ADD PUSH1 0x20 DUP3 MUL DUP1 CALLDATASIZE DUP4 CALLDATACOPY DUP1 DUP3 ADD SWAP2 POP POP SWAP1 POP JUMPDEST POP SWAP1 POP DUP7 PUSH1 0x80 ADD MLOAD PUSH20 0xFFFFFFFFFFFFFFFFFFFFFFFFFFFFFFFFFFFFFFFF AND DUP2 PUSH1 0x0 DUP2 MLOAD DUP2 LT PUSH2 0x15C4 JUMPI PUSH32 0x4E487B7100000000000000000000000000000000000000000000000000000000 PUSH1 0x0 MSTORE PUSH1 0x32 PUSH1 0x4 MSTORE PUSH1 0x24 PUSH1 0x0 REVERT JUMPDEST PUSH1 0x20 MUL PUSH1 0x20 ADD ADD DUP2 DUP2 MSTORE POP POP DUP7 PUSH1 0xA0 ADD MLOAD PUSH20 0xFFFFFFFFFFFFFFFFFFFFFFFFFFFFFFFFFFFFFFFF AND DUP2 PUSH1 0x1 DUP2 MLOAD DUP2 LT PUSH2 0x1625 JUMPI PUSH32 0x4E487B7100000000000000000000000000000000000000000000000000000000 PUSH1 0x0 MSTORE PUSH1 0x32 PUSH1 0x4 MSTORE PUSH1 0x24 PUSH1 0x0 REVERT JUMPDEST PUSH1 0x20 MUL PUSH1 0x20 ADD ADD DUP2 DUP2 MSTORE POP POP DUP7 PUSH1 0xC0 ADD MLOAD DUP2 PUSH1 0x2 DUP2 MLOAD DUP2 LT PUSH2 0x1670 JUMPI PUSH32 0x4E487B7100000000000000000000000000000000000000000000000000000000 PUSH1 0x0 MSTORE PUSH1 0x32 PUSH1 0x4 MSTORE PUSH1 0x24 PUSH1 0x0 REVERT JUMPDEST PUSH1 0x20 MUL PUSH1 0x20 ADD ADD DUP2 DUP2 MSTORE POP POP DUP7 PUSH1 0xE0 ADD MLOAD PUSH20 0xFFFFFFFFFFFFFFFFFFFFFFFFFFFFFFFFFFFFFFFF AND DUP2 PUSH1 0x3 DUP2 MLOAD DUP2 LT PUSH2 0x16D1 JUMPI PUSH32 0x4E487B7100000000000000000000000000000000000000000000000000000000 PUSH1 0x0 MSTORE PUSH1 0x32 PUSH1 0x4 MSTORE PUSH1 0x24 PUSH1 0x0 REVERT JUMPDEST PUSH1 0x20 MUL PUSH1 0x20 ADD ADD DUP2 DUP2 MSTORE POP POP PUSH2 0x16E6 DUP6 PUSH2 0xA96 JUMP JUMPDEST PUSH20 0xFFFFFFFFFFFFFFFFFFFFFFFFFFFFFFFFFFFFFFFF AND PUSH4 0xC32E370E DUP6 DUP6 DUP6 DUP6 PUSH1 0x40 MLOAD DUP6 PUSH4 0xFFFFFFFF AND PUSH1 0xE0 SHL DUP2 MSTORE PUSH1 0x4 ADD PUSH2 0x1724 SWAP5 SWAP4 SWAP3 SWAP2 SWAP1 PUSH2 0x2D81 JUMP JUMPDEST PUSH1 0x20 PUSH1 0x40 MLOAD DUP1 DUP4 SUB DUP2 DUP7 DUP1 EXTCODESIZE ISZERO DUP1 ISZERO PUSH2 0x173C JUMPI PUSH1 0x0 DUP1 REVERT JUMPDEST POP GAS STATICCALL ISZERO DUP1 ISZERO PUSH2 0x1750 JUMPI RETURNDATASIZE PUSH1 0x0 DUP1 RETURNDATACOPY RETURNDATASIZE PUSH1 0x0 REVERT JUMPDEST POP POP POP POP PUSH1 0x40 MLOAD RETURNDATASIZE PUSH1 0x1F NOT PUSH1 0x1F DUP3 ADD AND DUP3 ADD DUP1 PUSH1 0x40 MSTORE POP DUP2 ADD SWAP1 PUSH2 0x1774 SWAP2 SWAP1 PUSH2 0x263A JUMP JUMPDEST PUSH2 0x17B3 JUMPI PUSH1 0x40 MLOAD PUSH32 0x8C379A000000000000000000000000000000000000000000000000000000000 DUP2 MSTORE PUSH1 0x4 ADD PUSH2 0x17AA SWAP1 PUSH2 0x2FC2 JUMP JUMPDEST PUSH1 0x40 MLOAD DUP1 SWAP2 SUB SWAP1 REVERT JUMPDEST PUSH1 0x0 PUSH2 0x17C2 DUP9 PUSH1 0xC0 ADD MLOAD PUSH2 0x1D77 JUMP JUMPDEST SWAP1 POP DUP2 PUSH1 0x40 MLOAD PUSH2 0x17D2 SWAP2 SWAP1 PUSH2 0x2D26 JUMP JUMPDEST PUSH1 0x40 MLOAD DUP1 SWAP2 SUB SWAP1 KECCAK256 PUSH32 0xB863FD571FB24A5C7EC2E5259D558B03685336F31DCBF081507D6C4254BED305 TIMESTAMP PUSH1 0x40 MLOAD PUSH2 0x1809 SWAP2 SWAP1 PUSH2 0x307D JUMP JUMPDEST PUSH1 0x40 MLOAD DUP1 SWAP2 SUB SWAP1 LOG2 DUP1 SWAP7 POP POP POP POP POP POP POP SWAP2 SWAP1 POP JUMP JUMPDEST PUSH2 0x1827 PUSH2 0x1B86 JUMP JUMPDEST PUSH2 0x182F PUSH2 0x1DC3 JUMP JUMPDEST JUMP JUMPDEST PUSH1 0xCE PUSH1 0x20 MSTORE DUP1 PUSH1 0x0 MSTORE PUSH1 0x40 PUSH1 0x0 KECCAK256 PUSH1 0x0 SWAP2 POP SLOAD SWAP1 PUSH2 0x100 EXP SWAP1 DIV PUSH20 0xFFFFFFFFFFFFFFFFFFFFFFFFFFFFFFFFFFFFFFFF AND DUP2 JUMP JUMPDEST PUSH1 0x0 DUP1 PUSH1 0x1 SWAP1 SLOAD SWAP1 PUSH2 0x100 EXP SWAP1 DIV PUSH1 0xFF AND ISZERO SWAP1 POP DUP1 DUP1 ISZERO PUSH2 0x1895 JUMPI POP PUSH1 0x1 PUSH1 0x0 DUP1 SLOAD SWAP1 PUSH2 0x100 EXP SWAP1 DIV PUSH1 0xFF AND PUSH1 0xFF AND LT JUMPDEST DUP1 PUSH2 0x18C2 JUMPI POP PUSH2 0x18A4 ADDRESS PUSH2 0x1E26 JUMP JUMPDEST ISZERO DUP1 ISZERO PUSH2 0x18C1 JUMPI POP PUSH1 0x1 PUSH1 0x0 DUP1 SLOAD SWAP1 PUSH2 0x100 EXP SWAP1 DIV PUSH1 0xFF AND PUSH1 0xFF AND EQ JUMPDEST JUMPDEST PUSH2 0x1901 JUMPI PUSH1 0x40 MLOAD PUSH32 0x8C379A000000000000000000000000000000000000000000000000000000000 DUP2 MSTORE PUSH1 0x4 ADD PUSH2 0x18F8 SWAP1 PUSH2 0x2F22 JUMP JUMPDEST PUSH1 0x40 MLOAD DUP1 SWAP2 SUB SWAP1 REVERT JUMPDEST PUSH1 0x1 PUSH1 0x0 DUP1 PUSH2 0x100 EXP DUP2 SLOAD DUP2 PUSH1 0xFF MUL NOT AND SWAP1 DUP4 PUSH1 0xFF AND MUL OR SWAP1 SSTORE POP DUP1 ISZERO PUSH2 0x193E JUMPI PUSH1 0x1 PUSH1 0x0 PUSH1 0x1 PUSH2 0x100 EXP DUP2 SLOAD DUP2 PUSH1 0xFF MUL NOT AND SWAP1 DUP4 ISZERO ISZERO MUL OR SWAP1 SSTORE POP JUMPDEST PUSH1 0x0 PUSH1 0x2 SLOAD EQ DUP1 ISZERO PUSH2 0x199E JUMPI POP PUSH1 0x0 PUSH20 0xFFFFFFFFFFFFFFFFFFFFFFFFFFFFFFFFFFFFFFFF AND PUSH1 0x0 PUSH1 0x2 SWAP1 SLOAD SWAP1 PUSH2 0x100 EXP SWAP1 DIV PUSH20 0xFFFFFFFFFFFFFFFFFFFFFFFFFFFFFFFFFFFFFFFF AND PUSH20 0xFFFFFFFFFFFFFFFFFFFFFFFFFFFFFFFFFFFFFFFF AND EQ JUMPDEST PUSH2 0x19DD JUMPI PUSH1 0x40 MLOAD PUSH32 0x8C379A000000000000000000000000000000000000000000000000000000000 DUP2 MSTORE PUSH1 0x4 ADD PUSH2 0x19D4 SWAP1 PUSH2 0x2EE2 JUMP JUMPDEST PUSH1 0x40 MLOAD DUP1 SWAP2 SUB SWAP1 REVERT JUMPDEST PUSH2 0x19E6 DUP4 PUSH2 0x1E49 JUMP JUMPDEST PUSH2 0x19F5 DUP3 PUSH4 0xFFFFFFFF AND PUSH2 0x1EDC JUMP JUMPDEST PUSH2 0x19FD PUSH2 0x1FE6 JUMP JUMPDEST PUSH2 0x1A05 PUSH2 0x2037 JUMP JUMPDEST PUSH2 0x1A0D PUSH2 0x2098 JUMP JUMPDEST PUSH2 0x1A15 PUSH2 0x2104 JUMP JUMPDEST DUP1 ISZERO PUSH2 0x1A6E JUMPI PUSH1 0x0 DUP1 PUSH1 0x1 PUSH2 0x100 EXP DUP2 SLOAD DUP2 PUSH1 0xFF MUL NOT AND SWAP1 DUP4 ISZERO ISZERO MUL OR SWAP1 SSTORE POP PUSH32 0x7F26B83FF96E1F2B6A682F133852F6798A09C465DA95921460CEFB3847402498 PUSH1 0x1 PUSH1 0x40 MLOAD PUSH2 0x1A65 SWAP2 SWAP1 PUSH2 0x2E05 JUMP JUMPDEST PUSH1 0x40 MLOAD DUP1 SWAP2 SUB SWAP1 LOG1 JUMPDEST POP POP POP JUMP JUMPDEST PUSH1 0x1 SLOAD DUP2 JUMP JUMPDEST PUSH1 0xCD PUSH1 0x20 MSTORE DUP1 PUSH1 0x0 MSTORE PUSH1 0x40 PUSH1 0x0 KECCAK256 PUSH1 0x0 SWAP2 POP SLOAD SWAP1 PUSH2 0x100 EXP SWAP1 DIV PUSH1 0xFF AND DUP2 JUMP JUMPDEST PUSH1 0x0 PUSH1 0xCE PUSH1 0x0 DUP4 PUSH20 0xFFFFFFFFFFFFFFFFFFFFFFFFFFFFFFFFFFFFFFFF AND PUSH20 0xFFFFFFFFFFFFFFFFFFFFFFFFFFFFFFFFFFFFFFFF AND DUP2 MSTORE PUSH1 0x20 ADD SWAP1 DUP2 MSTORE PUSH1 0x20 ADD PUSH1 0x0 KECCAK256 PUSH1 0x0 SWAP1 SLOAD SWAP1 PUSH2 0x100 EXP SWAP1 DIV PUSH20 0xFFFFFFFFFFFFFFFFFFFFFFFFFFFFFFFFFFFFFFFF AND SWAP1 POP SWAP2 SWAP1 POP JUMP JUMPDEST PUSH2 0x1B0A PUSH2 0x1B86 JUMP JUMPDEST PUSH1 0x0 PUSH20 0xFFFFFFFFFFFFFFFFFFFFFFFFFFFFFFFFFFFFFFFF AND DUP2 PUSH20 0xFFFFFFFFFFFFFFFFFFFFFFFFFFFFFFFFFFFFFFFF AND EQ ISZERO PUSH2 0x1B7A JUMPI PUSH1 0x40 MLOAD PUSH32 0x8C379A000000000000000000000000000000000000000000000000000000000 DUP2 MSTORE PUSH1 0x4 ADD PUSH2 0x1B71 SWAP1 PUSH2 0x2E82 JUMP JUMPDEST PUSH1 0x40 MLOAD DUP1 SWAP2 SUB SWAP1 REVERT JUMPDEST PUSH2 0x1B83 DUP2 PUSH2 0x1C4E JUMP JUMPDEST POP JUMP JUMPDEST PUSH2 0x1B8E PUSH2 0x215D JUMP JUMPDEST PUSH20 0xFFFFFFFFFFFFFFFFFFFFFFFFFFFFFFFFFFFFFFFF AND PUSH2 0x1BAC PUSH2 0x11EA JUMP JUMPDEST PUSH20 0xFFFFFFFFFFFFFFFFFFFFFFFFFFFFFFFFFFFFFFFF AND EQ PUSH2 0x1C02 JUMPI PUSH1 0x40 MLOAD PUSH32 0x8C379A000000000000000000000000000000000000000000000000000000000 DUP2 MSTORE PUSH1 0x4 ADD PUSH2 0x1BF9 SWAP1 PUSH2 0x2F62 JUMP JUMPDEST PUSH1 0x40 MLOAD DUP1 SWAP2 SUB SWAP1 REVERT JUMPDEST JUMP JUMPDEST PUSH2 0x1C0C PUSH2 0x1136 JUMP JUMPDEST ISZERO PUSH2 0x1C4C JUMPI PUSH1 0x40 MLOAD PUSH32 0x8C379A000000000000000000000000000000000000000000000000000000000 DUP2 MSTORE PUSH1 0x4 ADD PUSH2 0x1C43 SWAP1 PUSH2 0x2F02 JUMP JUMPDEST PUSH1 0x40 MLOAD DUP1 SWAP2 SUB SWAP1 REVERT JUMPDEST JUMP JUMPDEST PUSH1 0x0 PUSH1 0x37 PUSH1 0x0 SWAP1 SLOAD SWAP1 PUSH2 0x100 EXP SWAP1 DIV PUSH20 0xFFFFFFFFFFFFFFFFFFFFFFFFFFFFFFFFFFFFFFFF AND SWAP1 POP DUP2 PUSH1 0x37 PUSH1 0x0 PUSH2 0x100 EXP DUP2 SLOAD DUP2 PUSH20 0xFFFFFFFFFFFFFFFFFFFFFFFFFFFFFFFFFFFFFFFF MUL NOT AND SWAP1 DUP4 PUSH20 0xFFFFFFFFFFFFFFFFFFFFFFFFFFFFFFFFFFFFFFFF AND MUL OR SWAP1 SSTORE POP DUP2 PUSH20 0xFFFFFFFFFFFFFFFFFFFFFFFFFFFFFFFFFFFFFFFF AND DUP2 PUSH20 0xFFFFFFFFFFFFFFFFFFFFFFFFFFFFFFFFFFFFFFFF AND PUSH32 0x8BE0079C531659141344CD1FD0A4F28419497F9722A3DAAFE3B4186F6B6457E0 PUSH1 0x40 MLOAD PUSH1 0x40 MLOAD DUP1 SWAP2 SUB SWAP1 LOG3 POP POP JUMP JUMPDEST PUSH2 0x1D1C PUSH2 0x1C04 JUMP JUMPDEST PUSH1 0x1 PUSH1 0x69 PUSH1 0x0 PUSH2 0x100 EXP DUP2 SLOAD DUP2 PUSH1 0xFF MUL NOT AND SWAP1 DUP4 ISZERO ISZERO MUL OR SWAP1 SSTORE POP PUSH32 0x62E78CEA01BEE320CD4E420270B5EA74000D11B0C9F74754EBDBFC544B05A258 PUSH2 0x1D60 PUSH2 0x215D JUMP JUMPDEST PUSH1 0x40 MLOAD PUSH2 0x1D6D SWAP2 SWAP1 PUSH2 0x2D3D JUMP JUMPDEST PUSH1 0x40 MLOAD DUP1 SWAP2 SUB SWAP1 LOG1 JUMP JUMPDEST PUSH1 0x0 DUP1 PUSH1 0x1 SLOAD PUSH1 0x1 PUSH1 0x3 SLOAD PUSH2 0x1D8C SWAP2 SWAP1 PUSH2 0x31FF JUMP JUMPDEST PUSH2 0x1D96 SWAP2 SWAP1 PUSH2 0x338D JUMP JUMPDEST SWAP1 POP DUP1 PUSH1 0x3 DUP2 SWAP1 SSTORE POP DUP3 PUSH1 0x4 PUSH1 0x0 PUSH1 0x3 SLOAD DUP2 MSTORE PUSH1 0x20 ADD SWAP1 DUP2 MSTORE PUSH1 0x20 ADD PUSH1 0x0 KECCAK256 DUP2 SWAP1 SSTORE POP PUSH1 0x1 SWAP2 POP POP SWAP2 SWAP1 POP JUMP JUMPDEST PUSH2 0x1DCB PUSH2 0x2165 JUMP JUMPDEST PUSH1 0x0 PUSH1 0x69 PUSH1 0x0 PUSH2 0x100 EXP DUP2 SLOAD DUP2 PUSH1 0xFF MUL NOT AND SWAP1 DUP4 ISZERO ISZERO MUL OR SWAP1 SSTORE POP PUSH32 0x5DB9EE0A495BF2E6FF9C91A7834C1BA4FDD244A5E8AA4E537BD38AEAE4B073AA PUSH2 0x1E0F PUSH2 0x215D JUMP JUMPDEST PUSH1 0x40 MLOAD PUSH2 0x1E1C SWAP2 SWAP1 PUSH2 0x2D3D JUMP JUMPDEST PUSH1 0x40 MLOAD DUP1 SWAP2 SUB SWAP1 LOG1 JUMP JUMPDEST PUSH1 0x0 DUP1 DUP3 PUSH20 0xFFFFFFFFFFFFFFFFFFFFFFFFFFFFFFFFFFFFFFFF AND EXTCODESIZE GT SWAP1 POP SWAP2 SWAP1 POP JUMP JUMPDEST PUSH1 0x0 PUSH1 0x1 SWAP1 SLOAD SWAP1 PUSH2 0x100 EXP SWAP1 DIV PUSH1 0xFF AND PUSH2 0x1E98 JUMPI PUSH1 0x40 MLOAD PUSH32 0x8C379A000000000000000000000000000000000000000000000000000000000 DUP2 MSTORE PUSH1 0x4 ADD PUSH2 0x1E8F SWAP1 PUSH2 0x2FE2 JUMP JUMPDEST PUSH1 0x40 MLOAD DUP1 SWAP2 SUB SWAP1 REVERT JUMPDEST DUP1 PUSH1 0x0 PUSH1 0x2 PUSH2 0x100 EXP DUP2 SLOAD DUP2 PUSH20 0xFFFFFFFFFFFFFFFFFFFFFFFFFFFFFFFFFFFFFFFF MUL NOT AND SWAP1 DUP4 PUSH20 0xFFFFFFFFFFFFFFFFFFFFFFFFFFFFFFFFFFFFFFFF AND MUL OR SWAP1 SSTORE POP POP JUMP JUMPDEST PUSH1 0x0 PUSH1 0x1 SWAP1 SLOAD SWAP1 PUSH2 0x100 EXP SWAP1 DIV PUSH1 0xFF AND PUSH2 0x1F2B JUMPI PUSH1 0x40 MLOAD PUSH32 0x8C379A000000000000000000000000000000000000000000000000000000000 DUP2 MSTORE PUSH1 0x4 ADD PUSH2 0x1F22 SWAP1 PUSH2 0x2FE2 JUMP JUMPDEST PUSH1 0x40 MLOAD DUP1 SWAP2 SUB SWAP1 REVERT JUMPDEST PUSH1 0x0 DUP2 GT PUSH2 0x1F6E JUMPI PUSH1 0x40 MLOAD PUSH32 0x8C379A000000000000000000000000000000000000000000000000000000000 DUP2 MSTORE PUSH1 0x4 ADD PUSH2 0x1F65 SWAP1 PUSH2 0x3022 JUMP JUMPDEST PUSH1 0x40 MLOAD DUP1 SWAP2 SUB SWAP1 REVERT JUMPDEST PUSH1 0x28 DUP2 LT PUSH2 0x1FB1 JUMPI PUSH1 0x40 MLOAD PUSH32 0x8C379A000000000000000000000000000000000000000000000000000000000 DUP2 MSTORE PUSH1 0x4 ADD PUSH2 0x1FA8 SWAP1 PUSH2 0x3002 JUMP JUMPDEST PUSH1 0x40 MLOAD DUP1 SWAP2 SUB SWAP1 REVERT JUMPDEST DUP1 PUSH1 0x2 DUP2 SWAP1 SSTORE POP PUSH1 0xA PUSH1 0x1 DUP2 SWAP1 SSTORE POP PUSH1 0x0 PUSH1 0x3 DUP2 SWAP1 SSTORE POP PUSH1 0x0 PUSH1 0x4 PUSH1 0x0 PUSH1 0x3 SLOAD DUP2 MSTORE PUSH1 0x20 ADD SWAP1 DUP2 MSTORE PUSH1 0x20 ADD PUSH1 0x0 KECCAK256 DUP2 SWAP1 SSTORE POP POP JUMP JUMPDEST PUSH1 0x0 PUSH1 0x1 SWAP1 SLOAD SWAP1 PUSH2 0x100 EXP SWAP1 DIV PUSH1 0xFF AND PUSH2 0x2035 JUMPI PUSH1 0x40 MLOAD PUSH32 0x8C379A000000000000000000000000000000000000000000000000000000000 DUP2 MSTORE PUSH1 0x4 ADD PUSH2 0x202C SWAP1 PUSH2 0x2FE2 JUMP JUMPDEST PUSH1 0x40 MLOAD DUP1 SWAP2 SUB SWAP1 REVERT JUMPDEST JUMP JUMPDEST PUSH1 0x0 PUSH1 0x1 SWAP1 SLOAD SWAP1 PUSH2 0x100 EXP SWAP1 DIV PUSH1 0xFF AND PUSH2 0x2086 JUMPI PUSH1 0x40 MLOAD PUSH32 0x8C379A000000000000000000000000000000000000000000000000000000000 DUP2 MSTORE PUSH1 0x4 ADD PUSH2 0x207D SWAP1 PUSH2 0x2FE2 JUMP JUMPDEST PUSH1 0x40 MLOAD DUP1 SWAP2 SUB SWAP1 REVERT JUMPDEST PUSH2 0x2096 PUSH2 0x2091 PUSH2 0x215D JUMP JUMPDEST PUSH2 0x1C4E JUMP JUMPDEST JUMP JUMPDEST PUSH1 0x0 PUSH1 0x1 SWAP1 SLOAD SWAP1 PUSH2 0x100 EXP SWAP1 DIV PUSH1 0xFF AND PUSH2 0x20E7 JUMPI PUSH1 0x40 MLOAD PUSH32 0x8C379A000000000000000000000000000000000000000000000000000000000 DUP2 MSTORE PUSH1 0x4 ADD PUSH2 0x20DE SWAP1 PUSH2 0x2FE2 JUMP JUMPDEST PUSH1 0x40 MLOAD DUP1 SWAP2 SUB SWAP1 REVERT JUMPDEST PUSH1 0x0 PUSH1 0x69 PUSH1 0x0 PUSH2 0x100 EXP DUP2 SLOAD DUP2 PUSH1 0xFF MUL NOT AND SWAP1 DUP4 ISZERO ISZERO MUL OR SWAP1 SSTORE POP JUMP JUMPDEST PUSH1 0x0 PUSH1 0x1 SWAP1 SLOAD SWAP1 PUSH2 0x100 EXP SWAP1 DIV PUSH1 0xFF AND PUSH2 0x2153 JUMPI PUSH1 0x40 MLOAD PUSH32 0x8C379A000000000000000000000000000000000000000000000000000000000 DUP2 MSTORE PUSH1 0x4 ADD PUSH2 0x214A SWAP1 PUSH2 0x2FE2 JUMP JUMPDEST PUSH1 0x40 MLOAD DUP1 SWAP2 SUB SWAP1 REVERT JUMPDEST PUSH1 0x1 PUSH1 0x9B DUP2 SWAP1 SSTORE POP JUMP JUMPDEST PUSH1 0x0 CALLER SWAP1 POP SWAP1 JUMP JUMPDEST PUSH2 0x216D PUSH2 0x1136 JUMP JUMPDEST PUSH2 0x21AC JUMPI PUSH1 0x40 MLOAD PUSH32 0x8C379A000000000000000000000000000000000000000000000000000000000 DUP2 MSTORE PUSH1 0x4 ADD PUSH2 0x21A3 SWAP1 PUSH2 0x2E42 JUMP JUMPDEST PUSH1 0x40 MLOAD DUP1 SWAP2 SUB SWAP1 REVERT JUMPDEST JUMP JUMPDEST PUSH1 0x0 PUSH2 0x21C1 PUSH2 0x21BC DUP5 PUSH2 0x30BD JUMP JUMPDEST PUSH2 0x3098 JUMP JUMPDEST SWAP1 POP DUP1 DUP3 DUP6 PUSH1 0x40 DUP7 MUL DUP3 ADD GT ISZERO PUSH2 0x21D7 JUMPI PUSH1 0x0 DUP1 REVERT JUMPDEST PUSH1 0x0 JUMPDEST DUP6 DUP2 LT ISZERO PUSH2 0x2207 JUMPI DUP2 PUSH2 0x21ED DUP9 DUP3 PUSH2 0x2303 JUMP JUMPDEST DUP5 MSTORE PUSH1 0x20 DUP5 ADD SWAP4 POP PUSH1 0x40 DUP4 ADD SWAP3 POP POP PUSH1 0x1 DUP2 ADD SWAP1 POP PUSH2 0x21DA JUMP JUMPDEST POP POP POP SWAP4 SWAP3 POP POP POP JUMP JUMPDEST PUSH1 0x0 PUSH2 0x2224 PUSH2 0x221F DUP5 PUSH2 0x30E3 JUMP JUMPDEST PUSH2 0x3098 JUMP JUMPDEST SWAP1 POP DUP1 DUP3 DUP6 PUSH1 0x20 DUP7 MUL DUP3 ADD GT ISZERO PUSH2 0x223A JUMPI PUSH1 0x0 DUP1 REVERT JUMPDEST PUSH1 0x0 JUMPDEST DUP6 DUP2 LT ISZERO PUSH2 0x226A JUMPI DUP2 PUSH2 0x2250 DUP9 DUP3 PUSH2 0x2582 JUMP JUMPDEST DUP5 MSTORE PUSH1 0x20 DUP5 ADD SWAP4 POP PUSH1 0x20 DUP4 ADD SWAP3 POP POP PUSH1 0x1 DUP2 ADD SWAP1 POP PUSH2 0x223D JUMP JUMPDEST POP POP POP SWAP4 SWAP3 POP POP POP JUMP JUMPDEST PUSH1 0x0 PUSH2 0x2287 PUSH2 0x2282 DUP5 PUSH2 0x3109 JUMP JUMPDEST PUSH2 0x3098 JUMP JUMPDEST SWAP1 POP DUP3 DUP2 MSTORE PUSH1 0x20 DUP2 ADD DUP5 DUP5 DUP5 ADD GT ISZERO PUSH2 0x229F JUMPI PUSH1 0x0 DUP1 REVERT JUMPDEST PUSH2 0x22AA DUP5 DUP3 DUP6 PUSH2 0x32F0 JUMP JUMPDEST POP SWAP4 SWAP3 POP POP POP JUMP JUMPDEST PUSH1 0x0 DUP2 CALLDATALOAD SWAP1 POP PUSH2 0x22C1 DUP2 PUSH2 0x37D3 JUMP JUMPDEST SWAP3 SWAP2 POP POP JUMP JUMPDEST PUSH1 0x0 DUP2 MLOAD SWAP1 POP PUSH2 0x22D6 DUP2 PUSH2 0x37D3 JUMP JUMPDEST SWAP3 SWAP2 POP POP JUMP JUMPDEST PUSH1 0x0 DUP3 PUSH1 0x1F DUP4 ADD SLT PUSH2 0x22ED JUMPI PUSH1 0x0 DUP1 REVERT JUMPDEST PUSH1 0x2 PUSH2 0x22FA DUP5 DUP3 DUP6 PUSH2 0x21AE JUMP JUMPDEST SWAP2 POP POP SWAP3 SWAP2 POP POP JUMP JUMPDEST PUSH1 0x0 DUP3 PUSH1 0x1F DUP4 ADD SLT PUSH2 0x2314 JUMPI PUSH1 0x0 DUP1 REVERT JUMPDEST PUSH1 0x2 PUSH2 0x2321 DUP5 DUP3 DUP6 PUSH2 0x2211 JUMP JUMPDEST SWAP2 POP POP SWAP3 SWAP2 POP POP JUMP JUMPDEST PUSH1 0x0 DUP2 CALLDATALOAD SWAP1 POP PUSH2 0x2339 DUP2 PUSH2 0x37EA JUMP JUMPDEST SWAP3 SWAP2 POP POP JUMP JUMPDEST PUSH1 0x0 DUP2 MLOAD SWAP1 POP PUSH2 0x234E DUP2 PUSH2 0x37EA JUMP JUMPDEST SWAP3 SWAP2 POP POP JUMP JUMPDEST PUSH1 0x0 DUP3 PUSH1 0x1F DUP4 ADD SLT PUSH2 0x2365 JUMPI PUSH1 0x0 DUP1 REVERT JUMPDEST DUP2 CALLDATALOAD PUSH2 0x2375 DUP5 DUP3 PUSH1 0x20 DUP7 ADD PUSH2 0x2274 JUMP JUMPDEST SWAP2 POP POP SWAP3 SWAP2 POP POP JUMP JUMPDEST PUSH1 0x0 PUSH2 0x1C0 DUP3 DUP5 SUB SLT ISZERO PUSH2 0x2391 JUMPI PUSH1 0x0 DUP1 REVERT JUMPDEST PUSH2 0x239C PUSH2 0x120 PUSH2 0x3098 JUMP JUMPDEST SWAP1 POP PUSH1 0x0 DUP3 ADD CALLDATALOAD PUSH8 0xFFFFFFFFFFFFFFFF DUP2 GT ISZERO PUSH2 0x23B8 JUMPI PUSH1 0x0 DUP1 REVERT JUMPDEST PUSH2 0x23C4 DUP5 DUP3 DUP6 ADD PUSH2 0x2354 JUMP JUMPDEST PUSH1 0x0 DUP4 ADD MSTORE POP PUSH1 0x20 PUSH2 0x23D8 DUP5 DUP3 DUP6 ADD PUSH2 0x2303 JUMP JUMPDEST PUSH1 0x20 DUP4 ADD MSTORE POP PUSH1 0x60 PUSH2 0x23EC DUP5 DUP3 DUP6 ADD PUSH2 0x22DC JUMP JUMPDEST PUSH1 0x40 DUP4 ADD MSTORE POP PUSH1 0xE0 PUSH2 0x2400 DUP5 DUP3 DUP6 ADD PUSH2 0x2303 JUMP JUMPDEST PUSH1 0x60 DUP4 ADD MSTORE POP PUSH2 0x120 PUSH2 0x2415 DUP5 DUP3 DUP6 ADD PUSH2 0x22B2 JUMP JUMPDEST PUSH1 0x80 DUP4 ADD MSTORE POP PUSH2 0x140 PUSH2 0x242A DUP5 DUP3 DUP6 ADD PUSH2 0x22B2 JUMP JUMPDEST PUSH1 0xA0 DUP4 ADD MSTORE POP PUSH2 0x160 PUSH2 0x243F DUP5 DUP3 DUP6 ADD PUSH2 0x2582 JUMP JUMPDEST PUSH1 0xC0 DUP4 ADD MSTORE POP PUSH2 0x180 PUSH2 0x2454 DUP5 DUP3 DUP6 ADD PUSH2 0x2558 JUMP JUMPDEST PUSH1 0xE0 DUP4 ADD MSTORE POP PUSH2 0x1A0 PUSH2 0x2469 DUP5 DUP3 DUP6 ADD PUSH2 0x2582 JUMP JUMPDEST PUSH2 0x100 DUP4 ADD MSTORE POP SWAP3 SWAP2 POP POP JUMP JUMPDEST PUSH1 0x0 PUSH2 0x1A0 DUP3 DUP5 SUB SLT ISZERO PUSH2 0x2489 JUMPI PUSH1 0x0 DUP1 REVERT JUMPDEST PUSH2 0x2494 PUSH2 0x100 PUSH2 0x3098 JUMP JUMPDEST SWAP1 POP PUSH1 0x0 DUP3 ADD CALLDATALOAD PUSH8 0xFFFFFFFFFFFFFFFF DUP2 GT ISZERO PUSH2 0x24B0 JUMPI PUSH1 0x0 DUP1 REVERT JUMPDEST PUSH2 0x24BC DUP5 DUP3 DUP6 ADD PUSH2 0x2354 JUMP JUMPDEST PUSH1 0x0 DUP4 ADD MSTORE POP PUSH1 0x20 PUSH2 0x24D0 DUP5 DUP3 DUP6 ADD PUSH2 0x2303 JUMP JUMPDEST PUSH1 0x20 DUP4 ADD MSTORE POP PUSH1 0x60 PUSH2 0x24E4 DUP5 DUP3 DUP6 ADD PUSH2 0x22DC JUMP JUMPDEST PUSH1 0x40 DUP4 ADD MSTORE POP PUSH1 0xE0 PUSH2 0x24F8 DUP5 DUP3 DUP6 ADD PUSH2 0x2303 JUMP JUMPDEST PUSH1 0x60 DUP4 ADD MSTORE POP PUSH2 0x120 PUSH2 0x250D DUP5 DUP3 DUP6 ADD PUSH2 0x2558 JUMP JUMPDEST PUSH1 0x80 DUP4 ADD MSTORE POP PUSH2 0x140 PUSH2 0x2522 DUP5 DUP3 DUP6 ADD PUSH2 0x2558 JUMP JUMPDEST PUSH1 0xA0 DUP4 ADD MSTORE POP PUSH2 0x160 PUSH2 0x2537 DUP5 DUP3 DUP6 ADD PUSH2 0x2582 JUMP JUMPDEST PUSH1 0xC0 DUP4 ADD MSTORE POP PUSH2 0x180 PUSH2 0x254C DUP5 DUP3 DUP6 ADD PUSH2 0x2558 JUMP JUMPDEST PUSH1 0xE0 DUP4 ADD MSTORE POP SWAP3 SWAP2 POP POP JUMP JUMPDEST PUSH1 0x0 DUP2 CALLDATALOAD SWAP1 POP PUSH2 0x2567 DUP2 PUSH2 0x3801 JUMP JUMPDEST SWAP3 SWAP2 POP POP JUMP JUMPDEST PUSH1 0x0 DUP2 MLOAD SWAP1 POP PUSH2 0x257C DUP2 PUSH2 0x3801 JUMP JUMPDEST SWAP3 SWAP2 POP POP JUMP JUMPDEST PUSH1 0x0 DUP2 CALLDATALOAD SWAP1 POP PUSH2 0x2591 DUP2 PUSH2 0x3818 JUMP JUMPDEST SWAP3 SWAP2 POP POP JUMP JUMPDEST PUSH1 0x0 DUP2 CALLDATALOAD SWAP1 POP PUSH2 0x25A6 DUP2 PUSH2 0x382F JUMP JUMPDEST SWAP3 SWAP2 POP POP JUMP JUMPDEST PUSH1 0x0 PUSH1 0x20 DUP3 DUP5 SUB SLT ISZERO PUSH2 0x25BE JUMPI PUSH1 0x0 DUP1 REVERT JUMPDEST PUSH1 0x0 PUSH2 0x25CC DUP5 DUP3 DUP6 ADD PUSH2 0x22B2 JUMP JUMPDEST SWAP2 POP POP SWAP3 SWAP2 POP POP JUMP JUMPDEST PUSH1 0x0 PUSH1 0x20 DUP3 DUP5 SUB SLT ISZERO PUSH2 0x25E7 JUMPI PUSH1 0x0 DUP1 REVERT JUMPDEST PUSH1 0x0 PUSH2 0x25F5 DUP5 DUP3 DUP6 ADD PUSH2 0x22C7 JUMP JUMPDEST SWAP2 POP POP SWAP3 SWAP2 POP POP JUMP JUMPDEST PUSH1 0x0 DUP1 PUSH1 0x40 DUP4 DUP6 SUB SLT ISZERO PUSH2 0x2611 JUMPI PUSH1 0x0 DUP1 REVERT JUMPDEST PUSH1 0x0 PUSH2 0x261F DUP6 DUP3 DUP7 ADD PUSH2 0x22B2 JUMP JUMPDEST SWAP3 POP POP PUSH1 0x20 PUSH2 0x2630 DUP6 DUP3 DUP7 ADD PUSH2 0x2597 JUMP JUMPDEST SWAP2 POP POP SWAP3 POP SWAP3 SWAP1 POP JUMP JUMPDEST PUSH1 0x0 PUSH1 0x20 DUP3 DUP5 SUB SLT ISZERO PUSH2 0x264C JUMPI PUSH1 0x0 DUP1 REVERT JUMPDEST PUSH1 0x0 PUSH2 0x265A DUP5 DUP3 DUP6 ADD PUSH2 0x233F JUMP JUMPDEST SWAP2 POP POP SWAP3 SWAP2 POP POP JUMP JUMPDEST PUSH1 0x0 PUSH1 0x20 DUP3 DUP5 SUB SLT ISZERO PUSH2 0x2675 JUMPI PUSH1 0x0 DUP1 REVERT JUMPDEST PUSH1 0x0 DUP3 ADD CALLDATALOAD PUSH8 0xFFFFFFFFFFFFFFFF DUP2 GT ISZERO PUSH2 0x268F JUMPI PUSH1 0x0 DUP1 REVERT JUMPDEST PUSH2 0x269B DUP5 DUP3 DUP6 ADD PUSH2 0x2354 JUMP JUMPDEST SWAP2 POP POP SWAP3 SWAP2 POP POP JUMP JUMPDEST PUSH1 0x0 PUSH1 0x20 DUP3 DUP5 SUB SLT ISZERO PUSH2 0x26B6 JUMPI PUSH1 0x0 DUP1 REVERT JUMPDEST PUSH1 0x0 DUP3 ADD CALLDATALOAD PUSH8 0xFFFFFFFFFFFFFFFF DUP2 GT ISZERO PUSH2 0x26D0 JUMPI PUSH1 0x0 DUP1 REVERT JUMPDEST PUSH2 0x26DC DUP5 DUP3 DUP6 ADD PUSH2 0x237E JUMP JUMPDEST SWAP2 POP POP SWAP3 SWAP2 POP POP JUMP JUMPDEST PUSH1 0x0 PUSH1 0x20 DUP3 DUP5 SUB SLT ISZERO PUSH2 0x26F7 JUMPI PUSH1 0x0 DUP1 REVERT JUMPDEST PUSH1 0x0 DUP3 ADD CALLDATALOAD PUSH8 0xFFFFFFFFFFFFFFFF DUP2 GT ISZERO PUSH2 0x2711 JUMPI PUSH1 0x0 DUP1 REVERT JUMPDEST PUSH2 0x271D DUP5 DUP3 DUP6 ADD PUSH2 0x2476 JUMP JUMPDEST SWAP2 POP POP SWAP3 SWAP2 POP POP JUMP JUMPDEST PUSH1 0x0 PUSH1 0x20 DUP3 DUP5 SUB SLT ISZERO PUSH2 0x2738 JUMPI PUSH1 0x0 DUP1 REVERT JUMPDEST PUSH1 0x0 PUSH2 0x2746 DUP5 DUP3 DUP6 ADD PUSH2 0x2558 JUMP JUMPDEST SWAP2 POP POP SWAP3 SWAP2 POP POP JUMP JUMPDEST PUSH1 0x0 PUSH1 0x20 DUP3 DUP5 SUB SLT ISZERO PUSH2 0x2761 JUMPI PUSH1 0x0 DUP1 REVERT JUMPDEST PUSH1 0x0 PUSH2 0x276F DUP5 DUP3 DUP6 ADD PUSH2 0x256D JUMP JUMPDEST SWAP2 POP POP SWAP3 SWAP2 POP POP JUMP JUMPDEST PUSH1 0x0 DUP1 PUSH1 0x40 DUP4 DUP6 SUB SLT ISZERO PUSH2 0x278B JUMPI PUSH1 0x0 DUP1 REVERT JUMPDEST PUSH1 0x0 PUSH2 0x2799 DUP6 DUP3 DUP7 ADD PUSH2 0x2558 JUMP JUMPDEST SWAP3 POP POP PUSH1 0x20 PUSH2 0x27AA DUP6 DUP3 DUP7 ADD PUSH2 0x22B2 JUMP JUMPDEST SWAP2 POP POP SWAP3 POP SWAP3 SWAP1 POP JUMP JUMPDEST PUSH1 0x0 DUP1 PUSH1 0x40 DUP4 DUP6 SUB SLT ISZERO PUSH2 0x27C7 JUMPI PUSH1 0x0 DUP1 REVERT JUMPDEST PUSH1 0x0 PUSH2 0x27D5 DUP6 DUP3 DUP7 ADD PUSH2 0x2558 JUMP JUMPDEST SWAP3 POP POP PUSH1 0x20 PUSH2 0x27E6 DUP6 DUP3 DUP7 ADD PUSH2 0x232A JUMP JUMPDEST SWAP2 POP POP SWAP3 POP SWAP3 SWAP1 POP JUMP JUMPDEST PUSH1 0x0 PUSH1 0x20 DUP3 DUP5 SUB SLT ISZERO PUSH2 0x2802 JUMPI PUSH1 0x0 DUP1 REVERT JUMPDEST PUSH1 0x0 PUSH2 0x2810 DUP5 DUP3 DUP6 ADD PUSH2 0x2582 JUMP JUMPDEST SWAP2 POP POP SWAP3 SWAP2 POP POP JUMP JUMPDEST PUSH1 0x0 PUSH2 0x2825 DUP4 DUP4 PUSH2 0x28C7 JUMP JUMPDEST PUSH1 0x40 DUP4 ADD SWAP1 POP SWAP3 SWAP2 POP POP JUMP JUMPDEST PUSH1 0x0 PUSH2 0x283D DUP4 DUP4 PUSH2 0x2CF9 JUMP JUMPDEST PUSH1 0x20 DUP4 ADD SWAP1 POP SWAP3 SWAP2 POP POP JUMP JUMPDEST PUSH1 0x0 PUSH2 0x2855 DUP4 DUP4 PUSH2 0x2D17 JUMP JUMPDEST PUSH1 0x20 DUP4 ADD SWAP1 POP SWAP3 SWAP2 POP POP JUMP JUMPDEST PUSH2 0x286A DUP2 PUSH2 0x3255 JUMP JUMPDEST DUP3 MSTORE POP POP JUMP JUMPDEST PUSH2 0x2879 DUP2 PUSH2 0x315E JUMP JUMPDEST PUSH2 0x2883 DUP2 DUP5 PUSH2 0x31B1 JUMP JUMPDEST SWAP3 POP PUSH2 0x288E DUP3 PUSH2 0x313A JUMP JUMPDEST DUP1 PUSH1 0x0 JUMPDEST DUP4 DUP2 LT ISZERO PUSH2 0x28BF JUMPI DUP2 MLOAD PUSH2 0x28A6 DUP8 DUP3 PUSH2 0x2819 JUMP JUMPDEST SWAP7 POP PUSH2 0x28B1 DUP4 PUSH2 0x318A JUMP JUMPDEST SWAP3 POP POP PUSH1 0x1 DUP2 ADD SWAP1 POP PUSH2 0x2892 JUMP JUMPDEST POP POP POP POP POP POP JUMP JUMPDEST PUSH2 0x28D0 DUP2 PUSH2 0x3169 JUMP JUMPDEST PUSH2 0x28DA DUP2 DUP5 PUSH2 0x31BC JUMP JUMPDEST SWAP3 POP PUSH2 0x28E5 DUP3 PUSH2 0x3144 JUMP JUMPDEST DUP1 PUSH1 0x0 JUMPDEST DUP4 DUP2 LT ISZERO PUSH2 0x2916 JUMPI DUP2 MLOAD PUSH2 0x28FD DUP8 DUP3 PUSH2 0x2831 JUMP JUMPDEST SWAP7 POP PUSH2 0x2908 DUP4 PUSH2 0x3197 JUMP JUMPDEST SWAP3 POP POP PUSH1 0x1 DUP2 ADD SWAP1 POP PUSH2 0x28E9 JUMP JUMPDEST POP POP POP POP POP POP JUMP JUMPDEST PUSH2 0x2927 DUP2 PUSH2 0x3169 JUMP JUMPDEST PUSH2 0x2931 DUP2 DUP5 PUSH2 0x31C7 JUMP JUMPDEST SWAP3 POP PUSH2 0x293C DUP3 PUSH2 0x3144 JUMP JUMPDEST DUP1 PUSH1 0x0 JUMPDEST DUP4 DUP2 LT ISZERO PUSH2 0x296D JUMPI DUP2 MLOAD PUSH2 0x2954 DUP8 DUP3 PUSH2 0x2831 JUMP JUMPDEST SWAP7 POP PUSH2 0x295F DUP4 PUSH2 0x3197 JUMP JUMPDEST SWAP3 POP POP PUSH1 0x1 DUP2 ADD SWAP1 POP PUSH2 0x2940 JUMP JUMPDEST POP POP POP POP POP POP JUMP JUMPDEST PUSH1 0x0 PUSH2 0x2980 DUP3 PUSH2 0x3174 JUMP JUMPDEST PUSH2 0x298A DUP2 DUP6 PUSH2 0x31D2 JUMP JUMPDEST SWAP4 POP PUSH2 0x2995 DUP4 PUSH2 0x314E JUMP JUMPDEST DUP1 PUSH1 0x0 JUMPDEST DUP4 DUP2 LT ISZERO PUSH2 0x29C6 JUMPI DUP2 MLOAD PUSH2 0x29AD DUP9 DUP3 PUSH2 0x2831 JUMP JUMPDEST SWAP8 POP PUSH2 0x29B8 DUP4 PUSH2 0x31A4 JUMP JUMPDEST SWAP3 POP POP PUSH1 0x1 DUP2 ADD SWAP1 POP PUSH2 0x2999 JUMP JUMPDEST POP DUP6 SWAP4 POP POP POP POP SWAP3 SWAP2 POP POP JUMP JUMPDEST PUSH1 0x0 PUSH2 0x29DE DUP3 PUSH2 0x3174 JUMP JUMPDEST PUSH2 0x29E8 DUP2 DUP6 PUSH2 0x31E3 JUMP JUMPDEST SWAP4 POP PUSH2 0x29F3 DUP4 PUSH2 0x314E JUMP JUMPDEST DUP1 PUSH1 0x0 JUMPDEST DUP4 DUP2 LT ISZERO PUSH2 0x2A24 JUMPI DUP2 MLOAD PUSH2 0x2A0B DUP9 DUP3 PUSH2 0x2849 JUMP JUMPDEST SWAP8 POP PUSH2 0x2A16 DUP4 PUSH2 0x31A4 JUMP JUMPDEST SWAP3 POP POP PUSH1 0x1 DUP2 ADD SWAP1 POP PUSH2 0x29F7 JUMP JUMPDEST POP DUP6 SWAP4 POP POP POP POP SWAP3 SWAP2 POP POP JUMP JUMPDEST PUSH2 0x2A3A DUP2 PUSH2 0x3267 JUMP JUMPDEST DUP3 MSTORE POP POP JUMP JUMPDEST PUSH2 0x2A49 DUP2 PUSH2 0x32BA JUMP JUMPDEST DUP3 MSTORE POP POP JUMP JUMPDEST PUSH2 0x2A58 DUP2 PUSH2 0x32DE JUMP JUMPDEST DUP3 MSTORE POP POP JUMP JUMPDEST PUSH1 0x0 PUSH2 0x2A69 DUP3 PUSH2 0x317F JUMP JUMPDEST PUSH2 0x2A73 DUP2 DUP6 PUSH2 0x31EE JUMP JUMPDEST SWAP4 POP PUSH2 0x2A83 DUP2 DUP6 PUSH1 0x20 DUP7 ADD PUSH2 0x32FF JUMP JUMPDEST PUSH2 0x2A8C DUP2 PUSH2 0x344B JUMP JUMPDEST DUP5 ADD SWAP2 POP POP SWAP3 SWAP2 POP POP JUMP JUMPDEST PUSH1 0x0 PUSH2 0x2AA4 PUSH1 0x14 DUP4 PUSH2 0x31EE JUMP JUMPDEST SWAP2 POP PUSH2 0x2AAF DUP3 PUSH2 0x345C JUMP JUMPDEST PUSH1 0x20 DUP3 ADD SWAP1 POP SWAP2 SWAP1 POP JUMP JUMPDEST PUSH1 0x0 PUSH2 0x2AC7 PUSH1 0x1C DUP4 PUSH2 0x31EE JUMP JUMPDEST SWAP2 POP PUSH2 0x2AD2 DUP3 PUSH2 0x3485 JUMP JUMPDEST PUSH1 0x20 DUP3 ADD SWAP1 POP SWAP2 SWAP1 POP JUMP JUMPDEST PUSH1 0x0 PUSH2 0x2AEA PUSH1 0x26 DUP4 PUSH2 0x31EE JUMP JUMPDEST SWAP2 POP PUSH2 0x2AF5 DUP3 PUSH2 0x34AE JUMP JUMPDEST PUSH1 0x40 DUP3 ADD SWAP1 POP SWAP2 SWAP1 POP JUMP JUMPDEST PUSH1 0x0 PUSH2 0x2B0D PUSH1 0x15 DUP4 PUSH2 0x31EE JUMP JUMPDEST SWAP2 POP PUSH2 0x2B18 DUP3 PUSH2 0x34FD JUMP JUMPDEST PUSH1 0x20 DUP3 ADD SWAP1 POP SWAP2 SWAP1 POP JUMP JUMPDEST PUSH1 0x0 PUSH2 0x2B30 PUSH1 0x2C DUP4 PUSH2 0x31EE JUMP JUMPDEST SWAP2 POP PUSH2 0x2B3B DUP3 PUSH2 0x3526 JUMP JUMPDEST PUSH1 0x40 DUP3 ADD SWAP1 POP SWAP2 SWAP1 POP JUMP JUMPDEST PUSH1 0x0 PUSH2 0x2B53 PUSH1 0x1D DUP4 PUSH2 0x31EE JUMP JUMPDEST SWAP2 POP PUSH2 0x2B5E DUP3 PUSH2 0x3575 JUMP JUMPDEST PUSH1 0x20 DUP3 ADD SWAP1 POP SWAP2 SWAP1 POP JUMP JUMPDEST PUSH1 0x0 PUSH2 0x2B76 PUSH1 0x10 DUP4 PUSH2 0x31EE JUMP JUMPDEST SWAP2 POP PUSH2 0x2B81 DUP3 PUSH2 0x359E JUMP JUMPDEST PUSH1 0x20 DUP3 ADD SWAP1 POP SWAP2 SWAP1 POP JUMP JUMPDEST PUSH1 0x0 PUSH2 0x2B99 PUSH1 0x2E DUP4 PUSH2 0x31EE JUMP JUMPDEST SWAP2 POP PUSH2 0x2BA4 DUP3 PUSH2 0x35C7 JUMP JUMPDEST PUSH1 0x40 DUP3 ADD SWAP1 POP SWAP2 SWAP1 POP JUMP JUMPDEST PUSH1 0x0 PUSH2 0x2BBC PUSH1 0x1A DUP4 PUSH2 0x31EE JUMP JUMPDEST SWAP2 POP PUSH2 0x2BC7 DUP3 PUSH2 0x3616 JUMP JUMPDEST PUSH1 0x20 DUP3 ADD SWAP1 POP SWAP2 SWAP1 POP JUMP JUMPDEST PUSH1 0x0 PUSH2 0x2BDF PUSH1 0x20 DUP4 PUSH2 0x31EE JUMP JUMPDEST SWAP2 POP PUSH2 0x2BEA DUP3 PUSH2 0x363F JUMP JUMPDEST PUSH1 0x20 DUP3 ADD SWAP1 POP SWAP2 SWAP1 POP JUMP JUMPDEST PUSH1 0x0 PUSH2 0x2C02 PUSH1 0x17 DUP4 PUSH2 0x31EE JUMP JUMPDEST SWAP2 POP PUSH2 0x2C0D DUP3 PUSH2 0x3668 JUMP JUMPDEST PUSH1 0x20 DUP3 ADD SWAP1 POP SWAP2 SWAP1 POP JUMP JUMPDEST PUSH1 0x0 PUSH2 0x2C25 PUSH1 0x16 DUP4 PUSH2 0x31EE JUMP JUMPDEST SWAP2 POP PUSH2 0x2C30 DUP3 PUSH2 0x3691 JUMP JUMPDEST PUSH1 0x20 DUP3 ADD SWAP1 POP SWAP2 SWAP1 POP JUMP JUMPDEST PUSH1 0x0 PUSH2 0x2C48 PUSH1 0x19 DUP4 PUSH2 0x31EE JUMP JUMPDEST SWAP2 POP PUSH2 0x2C53 DUP3 PUSH2 0x36BA JUMP JUMPDEST PUSH1 0x20 DUP3 ADD SWAP1 POP SWAP2 SWAP1 POP JUMP JUMPDEST PUSH1 0x0 PUSH2 0x2C6B PUSH1 0x2B DUP4 PUSH2 0x31EE JUMP JUMPDEST SWAP2 POP PUSH2 0x2C76 DUP3 PUSH2 0x36E3 JUMP JUMPDEST PUSH1 0x40 DUP3 ADD SWAP1 POP SWAP2 SWAP1 POP JUMP JUMPDEST PUSH1 0x0 PUSH2 0x2C8E PUSH1 0x1E DUP4 PUSH2 0x31EE JUMP JUMPDEST SWAP2 POP PUSH2 0x2C99 DUP3 PUSH2 0x3732 JUMP JUMPDEST PUSH1 0x20 DUP3 ADD SWAP1 POP SWAP2 SWAP1 POP JUMP JUMPDEST PUSH1 0x0 PUSH2 0x2CB1 PUSH1 0x23 DUP4 PUSH2 0x31EE JUMP JUMPDEST SWAP2 POP PUSH2 0x2CBC DUP3 PUSH2 0x375B JUMP JUMPDEST PUSH1 0x40 DUP3 ADD SWAP1 POP SWAP2 SWAP1 POP JUMP JUMPDEST PUSH1 0x0 PUSH2 0x2CD4 PUSH1 0x15 DUP4 PUSH2 0x31EE JUMP JUMPDEST SWAP2 POP PUSH2 0x2CDF DUP3 PUSH2 0x37AA JUMP JUMPDEST PUSH1 0x20 DUP3 ADD SWAP1 POP SWAP2 SWAP1 POP JUMP JUMPDEST PUSH2 0x2CF3 DUP2 PUSH2 0x3273 JUMP JUMPDEST DUP3 MSTORE POP POP JUMP JUMPDEST PUSH2 0x2D02 DUP2 PUSH2 0x3293 JUMP JUMPDEST DUP3 MSTORE POP POP JUMP JUMPDEST PUSH2 0x2D11 DUP2 PUSH2 0x3293 JUMP JUMPDEST DUP3 MSTORE POP POP JUMP JUMPDEST PUSH2 0x2D20 DUP2 PUSH2 0x3293 JUMP JUMPDEST DUP3 MSTORE POP POP JUMP JUMPDEST PUSH1 0x0 PUSH2 0x2D32 DUP3 DUP5 PUSH2 0x29D3 JUMP JUMPDEST SWAP2 POP DUP2 SWAP1 POP SWAP3 SWAP2 POP POP JUMP JUMPDEST PUSH1 0x0 PUSH1 0x20 DUP3 ADD SWAP1 POP PUSH2 0x2D52 PUSH1 0x0 DUP4 ADD DUP5 PUSH2 0x2861 JUMP JUMPDEST SWAP3 SWAP2 POP POP JUMP JUMPDEST PUSH1 0x0 PUSH1 0x40 DUP3 ADD SWAP1 POP PUSH2 0x2D6D PUSH1 0x0 DUP4 ADD DUP6 PUSH2 0x2861 JUMP JUMPDEST PUSH2 0x2D7A PUSH1 0x20 DUP4 ADD DUP5 PUSH2 0x2D08 JUMP JUMPDEST SWAP4 SWAP3 POP POP POP JUMP JUMPDEST PUSH1 0x0 PUSH2 0x120 DUP3 ADD SWAP1 POP PUSH2 0x2D97 PUSH1 0x0 DUP4 ADD DUP8 PUSH2 0x291E JUMP JUMPDEST PUSH2 0x2DA4 PUSH1 0x40 DUP4 ADD DUP7 PUSH2 0x2870 JUMP JUMPDEST PUSH2 0x2DB1 PUSH1 0xC0 DUP4 ADD DUP6 PUSH2 0x291E JUMP JUMPDEST DUP2 DUP2 SUB PUSH2 0x100 DUP4 ADD MSTORE PUSH2 0x2DC4 DUP2 DUP5 PUSH2 0x2975 JUMP JUMPDEST SWAP1 POP SWAP6 SWAP5 POP POP POP POP POP JUMP JUMPDEST PUSH1 0x0 PUSH1 0x20 DUP3 ADD SWAP1 POP PUSH2 0x2DE4 PUSH1 0x0 DUP4 ADD DUP5 PUSH2 0x2A31 JUMP JUMPDEST SWAP3 SWAP2 POP POP JUMP JUMPDEST PUSH1 0x0 PUSH1 0x20 DUP3 ADD SWAP1 POP PUSH2 0x2DFF PUSH1 0x0 DUP4 ADD DUP5 PUSH2 0x2A40 JUMP JUMPDEST SWAP3 SWAP2 POP POP JUMP JUMPDEST PUSH1 0x0 PUSH1 0x20 DUP3 ADD SWAP1 POP PUSH2 0x2E1A PUSH1 0x0 DUP4 ADD DUP5 PUSH2 0x2A4F JUMP JUMPDEST SWAP3 SWAP2 POP POP JUMP JUMPDEST PUSH1 0x0 PUSH1 0x20 DUP3 ADD SWAP1 POP DUP2 DUP2 SUB PUSH1 0x0 DUP4 ADD MSTORE PUSH2 0x2E3A DUP2 DUP5 PUSH2 0x2A5E JUMP JUMPDEST SWAP1 POP SWAP3 SWAP2 POP POP JUMP JUMPDEST PUSH1 0x0 PUSH1 0x20 DUP3 ADD SWAP1 POP DUP2 DUP2 SUB PUSH1 0x0 DUP4 ADD MSTORE PUSH2 0x2E5B DUP2 PUSH2 0x2A97 JUMP JUMPDEST SWAP1 POP SWAP2 SWAP1 POP JUMP JUMPDEST PUSH1 0x0 PUSH1 0x20 DUP3 ADD SWAP1 POP DUP2 DUP2 SUB PUSH1 0x0 DUP4 ADD MSTORE PUSH2 0x2E7B DUP2 PUSH2 0x2ABA JUMP JUMPDEST SWAP1 POP SWAP2 SWAP1 POP JUMP JUMPDEST PUSH1 0x0 PUSH1 0x20 DUP3 ADD SWAP1 POP DUP2 DUP2 SUB PUSH1 0x0 DUP4 ADD MSTORE PUSH2 0x2E9B DUP2 PUSH2 0x2ADD JUMP JUMPDEST SWAP1 POP SWAP2 SWAP1 POP JUMP JUMPDEST PUSH1 0x0 PUSH1 0x20 DUP3 ADD SWAP1 POP DUP2 DUP2 SUB PUSH1 0x0 DUP4 ADD MSTORE PUSH2 0x2EBB DUP2 PUSH2 0x2B00 JUMP JUMPDEST SWAP1 POP SWAP2 SWAP1 POP JUMP JUMPDEST PUSH1 0x0 PUSH1 0x20 DUP3 ADD SWAP1 POP DUP2 DUP2 SUB PUSH1 0x0 DUP4 ADD MSTORE PUSH2 0x2EDB DUP2 PUSH2 0x2B23 JUMP JUMPDEST SWAP1 POP SWAP2 SWAP1 POP JUMP JUMPDEST PUSH1 0x0 PUSH1 0x20 DUP3 ADD SWAP1 POP DUP2 DUP2 SUB PUSH1 0x0 DUP4 ADD MSTORE PUSH2 0x2EFB DUP2 PUSH2 0x2B46 JUMP JUMPDEST SWAP1 POP SWAP2 SWAP1 POP JUMP JUMPDEST PUSH1 0x0 PUSH1 0x20 DUP3 ADD SWAP1 POP DUP2 DUP2 SUB PUSH1 0x0 DUP4 ADD MSTORE PUSH2 0x2F1B DUP2 PUSH2 0x2B69 JUMP JUMPDEST SWAP1 POP SWAP2 SWAP1 POP JUMP JUMPDEST PUSH1 0x0 PUSH1 0x20 DUP3 ADD SWAP1 POP DUP2 DUP2 SUB PUSH1 0x0 DUP4 ADD MSTORE PUSH2 0x2F3B DUP2 PUSH2 0x2B8C JUMP JUMPDEST SWAP1 POP SWAP2 SWAP1 POP JUMP JUMPDEST PUSH1 0x0 PUSH1 0x20 DUP3 ADD SWAP1 POP DUP2 DUP2 SUB PUSH1 0x0 DUP4 ADD MSTORE PUSH2 0x2F5B DUP2 PUSH2 0x2BAF JUMP JUMPDEST SWAP1 POP SWAP2 SWAP1 POP JUMP JUMPDEST PUSH1 0x0 PUSH1 0x20 DUP3 ADD SWAP1 POP DUP2 DUP2 SUB PUSH1 0x0 DUP4 ADD MSTORE PUSH2 0x2F7B DUP2 PUSH2 0x2BD2 JUMP JUMPDEST SWAP1 POP SWAP2 SWAP1 POP JUMP JUMPDEST PUSH1 0x0 PUSH1 0x20 DUP3 ADD SWAP1 POP DUP2 DUP2 SUB PUSH1 0x0 DUP4 ADD MSTORE PUSH2 0x2F9B DUP2 PUSH2 0x2BF5 JUMP JUMPDEST SWAP1 POP SWAP2 SWAP1 POP JUMP JUMPDEST PUSH1 0x0 PUSH1 0x20 DUP3 ADD SWAP1 POP DUP2 DUP2 SUB PUSH1 0x0 DUP4 ADD MSTORE PUSH2 0x2FBB DUP2 PUSH2 0x2C18 JUMP JUMPDEST SWAP1 POP SWAP2 SWAP1 POP JUMP JUMPDEST PUSH1 0x0 PUSH1 0x20 DUP3 ADD SWAP1 POP DUP2 DUP2 SUB PUSH1 0x0 DUP4 ADD MSTORE PUSH2 0x2FDB DUP2 PUSH2 0x2C3B JUMP JUMPDEST SWAP1 POP SWAP2 SWAP1 POP JUMP JUMPDEST PUSH1 0x0 PUSH1 0x20 DUP3 ADD SWAP1 POP DUP2 DUP2 SUB PUSH1 0x0 DUP4 ADD MSTORE PUSH2 0x2FFB DUP2 PUSH2 0x2C5E JUMP JUMPDEST SWAP1 POP SWAP2 SWAP1 POP JUMP JUMPDEST PUSH1 0x0 PUSH1 0x20 DUP3 ADD SWAP1 POP DUP2 DUP2 SUB PUSH1 0x0 DUP4 ADD MSTORE PUSH2 0x301B DUP2 PUSH2 0x2C81 JUMP JUMPDEST SWAP1 POP SWAP2 SWAP1 POP JUMP JUMPDEST PUSH1 0x0 PUSH1 0x20 DUP3 ADD SWAP1 POP DUP2 DUP2 SUB PUSH1 0x0 DUP4 ADD MSTORE PUSH2 0x303B DUP2 PUSH2 0x2CA4 JUMP JUMPDEST SWAP1 POP SWAP2 SWAP1 POP JUMP JUMPDEST PUSH1 0x0 PUSH1 0x20 DUP3 ADD SWAP1 POP DUP2 DUP2 SUB PUSH1 0x0 DUP4 ADD MSTORE PUSH2 0x305B DUP2 PUSH2 0x2CC7 JUMP JUMPDEST SWAP1 POP SWAP2 SWAP1 POP JUMP JUMPDEST PUSH1 0x0 PUSH1 0x20 DUP3 ADD SWAP1 POP PUSH2 0x3077 PUSH1 0x0 DUP4 ADD DUP5 PUSH2 0x2CEA JUMP JUMPDEST SWAP3 SWAP2 POP POP JUMP JUMPDEST PUSH1 0x0 PUSH1 0x20 DUP3 ADD SWAP1 POP PUSH2 0x3092 PUSH1 0x0 DUP4 ADD DUP5 PUSH2 0x2D08 JUMP JUMPDEST SWAP3 SWAP2 POP POP JUMP JUMPDEST PUSH1 0x0 PUSH2 0x30A2 PUSH2 0x30B3 JUMP JUMPDEST SWAP1 POP PUSH2 0x30AE DUP3 DUP3 PUSH2 0x335C JUMP JUMPDEST SWAP2 SWAP1 POP JUMP JUMPDEST PUSH1 0x0 PUSH1 0x40 MLOAD SWAP1 POP SWAP1 JUMP JUMPDEST PUSH1 0x0 PUSH8 0xFFFFFFFFFFFFFFFF DUP3 GT ISZERO PUSH2 0x30D8 JUMPI PUSH2 0x30D7 PUSH2 0x341C JUMP JUMPDEST JUMPDEST PUSH1 0x20 DUP3 MUL SWAP1 POP SWAP2 SWAP1 POP JUMP JUMPDEST PUSH1 0x0 PUSH8 0xFFFFFFFFFFFFFFFF DUP3 GT ISZERO PUSH2 0x30FE JUMPI PUSH2 0x30FD PUSH2 0x341C JUMP JUMPDEST JUMPDEST PUSH1 0x20 DUP3 MUL SWAP1 POP SWAP2 SWAP1 POP JUMP JUMPDEST PUSH1 0x0 PUSH8 0xFFFFFFFFFFFFFFFF DUP3 GT ISZERO PUSH2 0x3124 JUMPI PUSH2 0x3123 PUSH2 0x341C JUMP JUMPDEST JUMPDEST PUSH2 0x312D DUP3 PUSH2 0x344B JUMP JUMPDEST SWAP1 POP PUSH1 0x20 DUP2 ADD SWAP1 POP SWAP2 SWAP1 POP JUMP JUMPDEST PUSH1 0x0 DUP2 SWAP1 POP SWAP2 SWAP1 POP JUMP JUMPDEST PUSH1 0x0 DUP2 SWAP1 POP SWAP2 SWAP1 POP JUMP JUMPDEST PUSH1 0x0 DUP2 SWAP1 POP PUSH1 0x20 DUP3 ADD SWAP1 POP SWAP2 SWAP1 POP JUMP JUMPDEST PUSH1 0x0 PUSH1 0x2 SWAP1 POP SWAP2 SWAP1 POP JUMP JUMPDEST PUSH1 0x0 PUSH1 0x2 SWAP1 POP SWAP2 SWAP1 POP JUMP JUMPDEST PUSH1 0x0 DUP2 MLOAD SWAP1 POP SWAP2 SWAP1 POP JUMP JUMPDEST PUSH1 0x0 DUP2 MLOAD SWAP1 POP SWAP2 SWAP1 POP JUMP JUMPDEST PUSH1 0x0 PUSH1 0x20 DUP3 ADD SWAP1 POP SWAP2 SWAP1 POP JUMP JUMPDEST PUSH1 0x0 PUSH1 0x20 DUP3 ADD SWAP1 POP SWAP2 SWAP1 POP JUMP JUMPDEST PUSH1 0x0 PUSH1 0x20 DUP3 ADD SWAP1 POP SWAP2 SWAP1 POP JUMP JUMPDEST PUSH1 0x0 DUP2 SWAP1 POP SWAP3 SWAP2 POP POP JUMP JUMPDEST PUSH1 0x0 DUP2 SWAP1 POP SWAP3 SWAP2 POP POP JUMP JUMPDEST PUSH1 0x0 DUP2 SWAP1 POP SWAP3 SWAP2 POP POP JUMP JUMPDEST PUSH1 0x0 DUP3 DUP3 MSTORE PUSH1 0x20 DUP3 ADD SWAP1 POP SWAP3 SWAP2 POP POP JUMP JUMPDEST PUSH1 0x0 DUP2 SWAP1 POP SWAP3 SWAP2 POP POP JUMP JUMPDEST PUSH1 0x0 DUP3 DUP3 MSTORE PUSH1 0x20 DUP3 ADD SWAP1 POP SWAP3 SWAP2 POP POP JUMP JUMPDEST PUSH1 0x0 PUSH2 0x320A DUP3 PUSH2 0x3293 JUMP JUMPDEST SWAP2 POP PUSH2 0x3215 DUP4 PUSH2 0x3293 JUMP JUMPDEST SWAP3 POP DUP3 PUSH32 0xFFFFFFFFFFFFFFFFFFFFFFFFFFFFFFFFFFFFFFFFFFFFFFFFFFFFFFFFFFFFFFFF SUB DUP3 GT ISZERO PUSH2 0x324A JUMPI PUSH2 0x3249 PUSH2 0x33BE JUMP JUMPDEST JUMPDEST DUP3 DUP3 ADD SWAP1 POP SWAP3 SWAP2 POP POP JUMP JUMPDEST PUSH1 0x0 PUSH2 0x3260 DUP3 PUSH2 0x3273 JUMP JUMPDEST SWAP1 POP SWAP2 SWAP1 POP JUMP JUMPDEST PUSH1 0x0 DUP2 ISZERO ISZERO SWAP1 POP SWAP2 SWAP1 POP JUMP JUMPDEST PUSH1 0x0 PUSH20 0xFFFFFFFFFFFFFFFFFFFFFFFFFFFFFFFFFFFFFFFF DUP3 AND SWAP1 POP SWAP2 SWAP1 POP JUMP JUMPDEST PUSH1 0x0 DUP2 SWAP1 POP SWAP2 SWAP1 POP JUMP JUMPDEST PUSH1 0x0 PUSH4 0xFFFFFFFF DUP3 AND SWAP1 POP SWAP2 SWAP1 POP JUMP JUMPDEST PUSH1 0x0 PUSH1 0xFF DUP3 AND SWAP1 POP SWAP2 SWAP1 POP JUMP JUMPDEST PUSH1 0x0 PUSH2 0x32C5 DUP3 PUSH2 0x32CC JUMP JUMPDEST SWAP1 POP SWAP2 SWAP1 POP JUMP JUMPDEST PUSH1 0x0 PUSH2 0x32D7 DUP3 PUSH2 0x3273 JUMP JUMPDEST SWAP1 POP SWAP2 SWAP1 POP JUMP JUMPDEST PUSH1 0x0 PUSH2 0x32E9 DUP3 PUSH2 0x32AD JUMP JUMPDEST SWAP1 POP SWAP2 SWAP1 POP JUMP JUMPDEST DUP3 DUP2 DUP4 CALLDATACOPY PUSH1 0x0 DUP4 DUP4 ADD MSTORE POP POP POP JUMP JUMPDEST PUSH1 0x0 JUMPDEST DUP4 DUP2 LT ISZERO PUSH2 0x331D JUMPI DUP1 DUP3 ADD MLOAD DUP2 DUP5 ADD MSTORE PUSH1 0x20 DUP2 ADD SWAP1 POP PUSH2 0x3302 JUMP JUMPDEST DUP4 DUP2 GT ISZERO PUSH2 0x332C JUMPI PUSH1 0x0 DUP5 DUP5 ADD MSTORE JUMPDEST POP POP POP POP JUMP JUMPDEST PUSH1 0x0 PUSH2 0x333D DUP3 PUSH2 0x3293 JUMP JUMPDEST SWAP2 POP PUSH1 0x0 DUP3 EQ ISZERO PUSH2 0x3351 JUMPI PUSH2 0x3350 PUSH2 0x33BE JUMP JUMPDEST JUMPDEST PUSH1 0x1 DUP3 SUB SWAP1 POP SWAP2 SWAP1 POP JUMP JUMPDEST PUSH2 0x3365 DUP3 PUSH2 0x344B JUMP JUMPDEST DUP2 ADD DUP2 DUP2 LT PUSH8 0xFFFFFFFFFFFFFFFF DUP3 GT OR ISZERO PUSH2 0x3384 JUMPI PUSH2 0x3383 PUSH2 0x341C JUMP JUMPDEST JUMPDEST DUP1 PUSH1 0x40 MSTORE POP POP POP JUMP JUMPDEST PUSH1 0x0 PUSH2 0x3398 DUP3 PUSH2 0x3293 JUMP JUMPDEST SWAP2 POP PUSH2 0x33A3 DUP4 PUSH2 0x3293 JUMP JUMPDEST SWAP3 POP DUP3 PUSH2 0x33B3 JUMPI PUSH2 0x33B2 PUSH2 0x33ED JUMP JUMPDEST JUMPDEST DUP3 DUP3 MOD SWAP1 POP SWAP3 SWAP2 POP POP JUMP JUMPDEST PUSH32 0x4E487B7100000000000000000000000000000000000000000000000000000000 PUSH1 0x0 MSTORE PUSH1 0x11 PUSH1 0x4 MSTORE PUSH1 0x24 PUSH1 0x0 REVERT JUMPDEST PUSH32 0x4E487B7100000000000000000000000000000000000000000000000000000000 PUSH1 0x0 MSTORE PUSH1 0x12 PUSH1 0x4 MSTORE PUSH1 0x24 PUSH1 0x0 REVERT JUMPDEST PUSH32 0x4E487B7100000000000000000000000000000000000000000000000000000000 PUSH1 0x0 MSTORE PUSH1 0x41 PUSH1 0x4 MSTORE PUSH1 0x24 PUSH1 0x0 REVERT JUMPDEST PUSH1 0x0 PUSH1 0x1F NOT PUSH1 0x1F DUP4 ADD AND SWAP1 POP SWAP2 SWAP1 POP JUMP JUMPDEST PUSH32 0x5061757361626C653A206E6F7420706175736564000000000000000000000000 PUSH1 0x0 DUP3 ADD MSTORE POP JUMP JUMPDEST PUSH32 0x636F736D6F73206272696467652077617320737570706F727465642100000000 PUSH1 0x0 DUP3 ADD MSTORE POP JUMP JUMPDEST PUSH32 0x4F776E61626C653A206E6577206F776E657220697320746865207A65726F2061 PUSH1 0x0 DUP3 ADD MSTORE PUSH32 0x6464726573730000000000000000000000000000000000000000000000000000 PUSH1 0x20 DUP3 ADD MSTORE POP JUMP JUMPDEST PUSH32 0x44617461206861736820697320696E76616C6964210000000000000000000000 PUSH1 0x0 DUP3 ADD MSTORE POP JUMP JUMPDEST PUSH32 0x54686973206272696467652069736E277420737570706F727420666F7220636C PUSH1 0x0 DUP3 ADD MSTORE PUSH32 0x616D6D696E6720746F6B656E0000000000000000000000000000000000000000 PUSH1 0x20 DUP3 ADD MSTORE POP JUMP JUMPDEST PUSH32 0x42726964676520697320616C726561647920696E697469616C697A6564000000 PUSH1 0x0 DUP3 ADD MSTORE POP JUMP JUMPDEST PUSH32 0x5061757361626C653A2070617573656400000000000000000000000000000000 PUSH1 0x0 DUP3 ADD MSTORE POP JUMP JUMPDEST PUSH32 0x496E697469616C697A61626C653A20636F6E747261637420697320616C726561 PUSH1 0x0 DUP3 ADD MSTORE PUSH32 0x647920696E697469616C697A6564000000000000000000000000000000000000 PUSH1 0x20 DUP3 ADD MSTORE POP JUMP JUMPDEST PUSH32 0x446F206E6F7420737570706F7274207468697320627269646765000000000000 PUSH1 0x0 DUP3 ADD MSTORE POP JUMP JUMPDEST PUSH32 0x4F776E61626C653A2063616C6C6572206973206E6F7420746865206F776E6572 PUSH1 0x0 DUP3 ADD MSTORE POP JUMP JUMPDEST PUSH32 0x4465706F73697420726F6F7420697320696E76616C6964000000000000000000 PUSH1 0x0 DUP3 ADD MSTORE POP JUMP JUMPDEST PUSH32 0x4E6F7420737570706F7274207468697320746F6B656E00000000000000000000 PUSH1 0x0 DUP3 ADD MSTORE POP JUMP JUMPDEST PUSH32 0x496E76616C6964206465706F736974526F6F742070726F6F6600000000000000 PUSH1 0x0 DUP3 ADD MSTORE POP JUMP JUMPDEST PUSH32 0x496E697469616C697A61626C653A20636F6E7472616374206973206E6F742069 PUSH1 0x0 DUP3 ADD MSTORE PUSH32 0x6E697469616C697A696E67000000000000000000000000000000000000000000 PUSH1 0x20 DUP3 ADD MSTORE POP JUMP JUMPDEST PUSH32 0x5F6C6576656C732073686F756C64206265206C657373207468616E2034300000 PUSH1 0x0 DUP3 ADD MSTORE POP JUMP JUMPDEST PUSH32 0x5F6C6576656C732073686F756C642062652067726561746572207468616E207A PUSH1 0x0 DUP3 ADD MSTORE PUSH32 0x65726F0000000000000000000000000000000000000000000000000000000000 PUSH1 0x20 DUP3 ADD MSTORE POP JUMP JUMPDEST PUSH32 0x746F6B656E207761732072656769737465726564210000000000000000000000 PUSH1 0x0 DUP3 ADD MSTORE POP JUMP JUMPDEST PUSH2 0x37DC DUP2 PUSH2 0x3255 JUMP JUMPDEST DUP2 EQ PUSH2 0x37E7 JUMPI PUSH1 0x0 DUP1 REVERT JUMPDEST POP JUMP JUMPDEST PUSH2 0x37F3 DUP2 PUSH2 0x3267 JUMP JUMPDEST DUP2 EQ PUSH2 0x37FE JUMPI PUSH1 0x0 DUP1 REVERT JUMPDEST POP JUMP JUMPDEST PUSH2 0x380A DUP2 PUSH2 0x3273 JUMP JUMPDEST DUP2 EQ PUSH2 0x3815 JUMPI PUSH1 0x0 DUP1 REVERT JUMPDEST POP JUMP JUMPDEST PUSH2 0x3821 DUP2 PUSH2 0x3293 JUMP JUMPDEST DUP2 EQ PUSH2 0x382C JUMPI PUSH1 0x0 DUP1 REVERT JUMPDEST POP JUMP JUMPDEST PUSH2 0x3838 DUP2 PUSH2 0x329D JUMP JUMPDEST DUP2 EQ PUSH2 0x3843 JUMPI PUSH1 0x0 DUP1 REVERT JUMPDEST POP JUMP INVALID LOG2 PUSH5 0x6970667358 0x22 SLT KECCAK256 PUSH10 0xDCADEEA7710C10F5BDF3 0xF8 OR 0xAE PUSH29 0x55757E7D80F88F148E4CF9A6840D61361464736F6C6343000804003300 "},"methodIdentifiers":{"ROOT_HISTORY_SIZE()":"cd87a3b4","claimTransaction((string,uint256[2],uint256[2][2],uint256[2],address,address,uint256,uint160,uint256))":"517b0dc1","cosmosToEthTokenAddress(uint160)":"bf60f954","currentDepositRoot()":"9df22cd5","deleteTokenPair(uint160)":"04ac7468","depositRoots(uint256)":"9ef46d0f","ethToCosmosTokenAddress(address)":"41cfc054","getLastDepositRoot()":"2cd4300c","getSupportCosmosBridge(uint160)":"8e3327fa","getTokenPairOfCosmosToken(uint160)":"e80b885b","getTokenPairOfEthToken(address)":"9139153f","initialize(address,uint32)":"c5e4c9f9","isClaimed(uint256)":"9e34070f","isKnownDepostRoot(uint256)":"7ae1293f","isSupportCosmosBridge(uint160)":"dcc4dcd2","levels()":"4ecf518b","libAddressManager()":"299ca478","owner()":"8da5cb5b","pause()":"8456cb59","paused()":"5c975abb","registerCosmosBridge(uint160,bool)":"3c975edb","registerTokenPair(uint160,address)":"1c00464e","renounceOwnership()":"715018a6","resolve(string)":"461a4478","transferOwnership(address)":"f2fde38b","unpauseContract()":"b33712c5","updateRootDepositTree((string,uint256[2],uint256[2][2],uint256[2],uint160,uint160,uint256,uint160))":"af00aa92"}},"storageLayout":{"storage":[{"astId":138,"contract":"contracts/ethBridge/OraisanBridge.sol:OraisanBridge","label":"_initialized","offset":0,"slot":"0","type":"t_uint8"},{"astId":141,"contract":"contracts/ethBridge/OraisanBridge.sol:OraisanBridge","label":"_initializing","offset":1,"slot":"0","type":"t_bool"},{"astId":2804,"contract":"contracts/ethBridge/OraisanBridge.sol:OraisanBridge","label":"libAddressManager","offset":2,"slot":"0","type":"t_contract(Lib_AddressManager)2793"},{"astId":1548,"contract":"contracts/ethBridge/OraisanBridge.sol:OraisanBridge","label":"ROOT_HISTORY_SIZE","offset":0,"slot":"1","type":"t_uint256"},{"astId":1550,"contract":"contracts/ethBridge/OraisanBridge.sol:OraisanBridge","label":"levels","offset":0,"slot":"2","type":"t_uint256"},{"astId":1552,"contract":"contracts/ethBridge/OraisanBridge.sol:OraisanBridge","label":"currentDepositRoot","offset":0,"slot":"3","type":"t_uint256"},{"astId":1556,"contract":"contracts/ethBridge/OraisanBridge.sol:OraisanBridge","label":"depositRoots","offset":0,"slot":"4","type":"t_mapping(t_uint256,t_uint256)"},{"astId":1540,"contract":"contracts/ethBridge/OraisanBridge.sol:OraisanBridge","label":"__gap","offset":0,"slot":"5","type":"t_array(t_uint256)50_storage"},{"astId":10,"contract":"contracts/ethBridge/OraisanBridge.sol:OraisanBridge","label":"_owner","offset":0,"slot":"55","type":"t_address"},{"astId":130,"contract":"contracts/ethBridge/OraisanBridge.sol:OraisanBridge","label":"__gap","offset":0,"slot":"56","type":"t_array(t_uint256)49_storage"},{"astId":321,"contract":"contracts/ethBridge/OraisanBridge.sol:OraisanBridge","label":"_paused","offset":0,"slot":"105","type":"t_bool"},{"astId":426,"contract":"contracts/ethBridge/OraisanBridge.sol:OraisanBridge","label":"__gap","offset":0,"slot":"106","type":"t_array(t_uint256)49_storage"},{"astId":441,"contract":"contracts/ethBridge/OraisanBridge.sol:OraisanBridge","label":"_status","offset":0,"slot":"155","type":"t_uint256"},{"astId":499,"contract":"contracts/ethBridge/OraisanBridge.sol:OraisanBridge","label":"__gap","offset":0,"slot":"156","type":"t_array(t_uint256)49_storage"},{"astId":1743,"contract":"contracts/ethBridge/OraisanBridge.sol:OraisanBridge","label":"isSupportCosmosBridge","offset":0,"slot":"205","type":"t_mapping(t_uint160,t_bool)"},{"astId":1747,"contract":"contracts/ethBridge/OraisanBridge.sol:OraisanBridge","label":"cosmosToEthTokenAddress","offset":0,"slot":"206","type":"t_mapping(t_uint160,t_address)"},{"astId":1751,"contract":"contracts/ethBridge/OraisanBridge.sol:OraisanBridge","label":"ethToCosmosTokenAddress","offset":0,"slot":"207","type":"t_mapping(t_address,t_uint160)"},{"astId":1755,"contract":"contracts/ethBridge/OraisanBridge.sol:OraisanBridge","label":"isClaimed","offset":0,"slot":"208","type":"t_mapping(t_uint256,t_bool)"}],"types":{"t_address":{"encoding":"inplace","label":"address","numberOfBytes":"20"},"t_array(t_uint256)49_storage":{"base":"t_uint256","encoding":"inplace","label":"uint256[49]","numberOfBytes":"1568"},"t_array(t_uint256)50_storage":{"base":"t_uint256","encoding":"inplace","label":"uint256[50]","numberOfBytes":"1600"},"t_bool":{"encoding":"inplace","label":"bool","numberOfBytes":"1"},"t_contract(Lib_AddressManager)2793":{"encoding":"inplace","label":"contract Lib_AddressManager","numberOfBytes":"20"},"t_mapping(t_address,t_uint160)":{"encoding":"mapping","key":"t_address","label":"mapping(address => uint160)","numberOfBytes":"32","value":"t_uint160"},"t_mapping(t_uint160,t_address)":{"encoding":"mapping","key":"t_uint160","label":"mapping(uint160 => address)","numberOfBytes":"32","value":"t_address"},"t_mapping(t_uint160,t_bool)":{"encoding":"mapping","key":"t_uint160","label":"mapping(uint160 => bool)","numberOfBytes":"32","value":"t_bool"},"t_mapping(t_uint256,t_bool)":{"encoding":"mapping","key":"t_uint256","label":"mapping(uint256 => bool)","numberOfBytes":"32","value":"t_bool"},"t_mapping(t_uint256,t_uint256)":{"encoding":"mapping","key":"t_uint256","label":"mapping(uint256 => uint256)","numberOfBytes":"32","value":"t_uint256"},"t_uint160":{"encoding":"inplace","label":"uint160","numberOfBytes":"20"},"t_uint256":{"encoding":"inplace","label":"uint256","numberOfBytes":"32"},"t_uint8":{"encoding":"inplace","label":"uint8","numberOfBytes":"1"}}}}}}