{
  "_format": "hh-sol-artifact-1",
  "contractName": "VerifierValidatorsLeft",
  "sourceName": "contracts/verifiers/validators/VerifierValidatorsLeft.sol",
  "abi": [
    {
      "inputs": [
        {
          "internalType": "uint256[2]",
          "name": "a",
          "type": "uint256[2]"
        },
        {
          "internalType": "uint256[2][2]",
          "name": "b",
          "type": "uint256[2][2]"
        },
        {
          "internalType": "uint256[2]",
          "name": "c",
          "type": "uint256[2]"
        },
        {
          "internalType": "uint256[]",
          "name": "input",
          "type": "uint256[]"
        }
      ],
      "name": "verifyProof",
      "outputs": [
        {
          "internalType": "bool",
          "name": "r",
          "type": "bool"
        }
      ],
      "stateMutability": "view",
      "type": "function"
    }
  ],
  "bytecode": "0x608060405234801561001057600080fd5b5061386a806100206000396000f3fe608060405234801561001057600080fd5b506004361061002b5760003560e01c8063c32e370e14610030575b600080fd5b61004a600480360381019061004591906131fd565b610060565b604051610057919061335b565b60405180910390f35b600061006a612efc565b6040518060400160405280876000600281106100af577f4e487b7100000000000000000000000000000000000000000000000000000000600052603260045260246000fd5b60200201518152602001876001600281106100f3577f4e487b7100000000000000000000000000000000000000000000000000000000600052603260045260246000fd5b602002015181525081600001819052506040518060400160405280604051806040016040528088600060028110610153577f4e487b7100000000000000000000000000000000000000000000000000000000600052603260045260246000fd5b6020020151600060028110610191577f4e487b7100000000000000000000000000000000000000000000000000000000600052603260045260246000fd5b60200201518152602001886000600281106101d5577f4e487b7100000000000000000000000000000000000000000000000000000000600052603260045260246000fd5b6020020151600160028110610213577f4e487b7100000000000000000000000000000000000000000000000000000000600052603260045260246000fd5b60200201518152508152602001604051806040016040528088600160028110610265577f4e487b7100000000000000000000000000000000000000000000000000000000600052603260045260246000fd5b60200201516000600281106102a3577f4e487b7100000000000000000000000000000000000000000000000000000000600052603260045260246000fd5b60200201518152602001886001600281106102e7577f4e487b7100000000000000000000000000000000000000000000000000000000600052603260045260246000fd5b6020020151600160028110610325577f4e487b7100000000000000000000000000000000000000000000000000000000600052603260045260246000fd5b6020020151815250815250816020018190525060405180604001604052808560006002811061037d577f4e487b7100000000000000000000000000000000000000000000000000000000600052603260045260246000fd5b60200201518152602001856001600281106103c1577f4e487b7100000000000000000000000000000000000000000000000000000000600052603260045260246000fd5b602002015181525081604001819052506000835167ffffffffffffffff811115610414577f4e487b7100000000000000000000000000000000000000000000000000000000600052604160045260246000fd5b6040519080825280602002602001820160405280156104425781602001602082028036833780820191505090505b50905060005b84518110156104ea5784818151811061048a577f4e487b7100000000000000000000000000000000000000000000000000000000600052603260045260246000fd5b60200260200101518282815181106104cb577f4e487b7100000000000000000000000000000000000000000000000000000000600052603260045260246000fd5b60200260200101818152505080806104e29061360f565b915050610448565b5060006104f78284610517565b14156105085760019250505061050f565b6000925050505b949350505050565b6000807f30644e72e131a029b85045b68181585d2833e84879b9709143e1f593f0000001905060006105476107a2565b90508060800151516001865161055d91906134e4565b1461059d576040517f08c379a000000000000000000000000000000000000000000000000000000000815260040161059490613376565b60405180910390fd5b60006040518060400160405280600081526020016000815250905060005b86518110156106fe57838782815181106105fe577f4e487b7100000000000000000000000000000000000000000000000000000000600052603260045260246000fd5b602002602001015110610646576040517f08c379a000000000000000000000000000000000000000000000000000000000815260040161063d906133b6565b60405180910390fd5b6106e9826106e4856080015160018561065f91906134e4565b81518110610696577f4e487b7100000000000000000000000000000000000000000000000000000000600052603260045260246000fd5b60200260200101518a85815181106106d7577f4e487b7100000000000000000000000000000000000000000000000000000000600052603260045260246000fd5b60200260200101516121b1565b612300565b915080806106f69061360f565b9150506105bb565b5061074e818360800151600081518110610741577f4e487b7100000000000000000000000000000000000000000000000000000000600052603260045260246000fd5b6020026020010151612300565b9050610784610760866000015161249b565b8660200151846000015185602001518587604001518b604001518960600151612540565b610794576001935050505061079c565b600093505050505b92915050565b6107aa612f2f565b60405180604001604052807f2d4d9aa7e302d9df41749d5507949d05dbea33fbb16c643b22f599a2be6df2e281526020017f14bedd503c37ceb061d8ec60209fe345ce89830a19230301f076caff004d19268152508160000181905250604051806040016040528060405180604001604052807f0967032fcbf776d1afc985f88877f182d38480a653f2decaa9794cbc3bf3060c81526020017f0e187847ad4c798374d0d6732bf501847dd68bc0e071241e0213bc7fc13db7ab815250815260200160405180604001604052807f304cfbd1e08a704a99f5e847d93f8c3caafddec46b7a0d379da69a4d112346a781526020017f1739c1b1a457a8c7313123d24d2f9192f896b7c63eea05a9d57f06547ad0cec88152508152508160200181905250604051806040016040528060405180604001604052807f198e9393920d483a7260bfb731fb5d25f1aa493335a9e71297e485b7aef312c281526020017f1800deef121f1e76426a00665e5c4479674322d4f75edadd46debd5cd992f6ed815250815260200160405180604001604052807f090689d0585ff075ec9e99ad690c3395bc4b313370b38ef355acdadcd122975b81526020017f12c85ea5db8c6deb4aab71808dcb408fe3d1e7690c43d37b4ce6cc0166fa7daa8152508152508160400181905250604051806040016040528060405180604001604052807f198e9393920d483a7260bfb731fb5d25f1aa493335a9e71297e485b7aef312c281526020017f1800deef121f1e76426a00665e5c4479674322d4f75edadd46debd5cd992f6ed815250815260200160405180604001604052807f090689d0585ff075ec9e99ad690c3395bc4b313370b38ef355acdadcd122975b81526020017f12c85ea5db8c6deb4aab71808dcb408fe3d1e7690c43d37b4ce6cc0166fa7daa8152508152508160600181905250602567ffffffffffffffff811115610a97577f4e487b7100000000000000000000000000000000000000000000000000000000600052604160045260246000fd5b604051908082528060200260200182016040528015610ad057816020015b610abd612f76565b815260200190600190039081610ab55790505b50816080018190525060405180604001604052807f21a86037deda922c538303a9143fdd10fca021693cf572089201ee95994092cb81526020017f06767fadbbdbad67b5a372c095144315b0fc68334c3e579a28a55dfc74a0d0b68152508160800151600081518110610b6c577f4e487b7100000000000000000000000000000000000000000000000000000000600052603260045260246000fd5b602002602001018190525060405180604001604052807f240833bda9b412b7cf72872c4b632f5a9e905f8600e9abb24fade8415e60aef181526020017f1580b0ae0363c16458461ee37f62790354209d9c491aff8a7960e7fbd9cff5bf8152508160800151600181518110610c0a577f4e487b7100000000000000000000000000000000000000000000000000000000600052603260045260246000fd5b602002602001018190525060405180604001604052807f14de73fe9c15a892e87bc1c55b2a186074e37a858ac550cb3cd6d26836fb158281526020017f071ea8656fb4a6b7c08f8d4def2659c8d352a80a5b73a3e688ea095a8e6a5c838152508160800151600281518110610ca8577f4e487b7100000000000000000000000000000000000000000000000000000000600052603260045260246000fd5b602002602001018190525060405180604001604052807f0115c358d2e4a596da4dacaa8ed1bafc98987731396b0593a117c255cbfdc42b81526020017f2605735d45292d19f13fd5f55b8c918d8733771351401e3c10f9ac0662ac58658152508160800151600381518110610d46577f4e487b7100000000000000000000000000000000000000000000000000000000600052603260045260246000fd5b602002602001018190525060405180604001604052807f2d14bc76f8c7718bb1393d2eaaa51d546f7969d36d5ce903f53bee42e2b5653b81526020017f03c757541efeec5aa9d1c4bf9ffffb3708fd58bad860aab264469b6512dc11ca8152508160800151600481518110610de4577f4e487b7100000000000000000000000000000000000000000000000000000000600052603260045260246000fd5b602002602001018190525060405180604001604052807f245c21dd2b42db6a5f9b5eba067efd33c55ba1aeea3b42c69183b0a69b365b1481526020017f250d881e9aff092a3958512a0b850d6a16165d7ca5510fa65a182cf7248cf51f8152508160800151600581518110610e82577f4e487b7100000000000000000000000000000000000000000000000000000000600052603260045260246000fd5b602002602001018190525060405180604001604052807ee6e300f4dc3896eaae552294b5a006054bb6ce57799b3b2fcf20959e37914481526020017f2ee09a32e1d9760e6c5de143ad82bf7b3f493160f489e7d493b4f03a24d342fc8152508160800151600681518110610f1f577f4e487b7100000000000000000000000000000000000000000000000000000000600052603260045260246000fd5b602002602001018190525060405180604001604052807f24c14e0104076aaddfe03226daf3b21c6c09e9a8797768b85e23ccbebeafbdaf81526020017f049e6d92f5d979c84fdc67d58d179f87c8710115e8e7f5ab12c2d4afc7ba19f08152508160800151600781518110610fbd577f4e487b7100000000000000000000000000000000000000000000000000000000600052603260045260246000fd5b602002602001018190525060405180604001604052807f13db508acb01a8141bd1f1a11de73d76b7664a2b8a09e5b58fabf684bea603f181526020017f127be8b73d7550ccbee35b61100e4114c4b64eb8222865e94ebc5474133abf38815250816080015160088151811061105b577f4e487b7100000000000000000000000000000000000000000000000000000000600052603260045260246000fd5b602002602001018190525060405180604001604052807f2e4ae0c475dbe8d6456ae908b98a640f40bc2f8bd6fc6ce29a20c1720b63abd681526020017f2f653dbea400e30a60cf914f110c49d438a229c68b7209538d812c4b618b9e7b81525081608001516009815181106110f9577f4e487b7100000000000000000000000000000000000000000000000000000000600052603260045260246000fd5b602002602001018190525060405180604001604052807f18db55d9e7353885a64855a0fb005d13260a5ff707222177f0f733d81e861cb281526020017f0359051fc60bed81f2f8e0d0589a8734f180dc918bcf2c91ec047ecf75176d638152508160800151600a81518110611197577f4e487b7100000000000000000000000000000000000000000000000000000000600052603260045260246000fd5b602002602001018190525060405180604001604052807f04e9b055c87a179ff1667dd071ebd257827ef45e4d67cb1ec04c4e910f8cb34981526020017f16705b7fbd091d845193a9b682f1f69a8f726689cc4a179eb6d70282ee29c39f8152508160800151600b81518110611235577f4e487b7100000000000000000000000000000000000000000000000000000000600052603260045260246000fd5b602002602001018190525060405180604001604052807f1ed187f3adc6d50c0c2e82ad93b070a1e20c1c2922512e3e935bc76a5201c61781526020017f2497cc8d942bfc06bc09005ed031382a87c3f8579477b55dd4c8783c88f538de8152508160800151600c815181106112d3577f4e487b7100000000000000000000000000000000000000000000000000000000600052603260045260246000fd5b602002602001018190525060405180604001604052807f14552e3b0b560fd6d67462f219e281f698cf54929fc44bd48f5ac4194680c62381526020017f0b5d519ef185b39cd6a41054e54e291558c2a4454a5d79a26a9da5c22dec81c58152508160800151600d81518110611371577f4e487b7100000000000000000000000000000000000000000000000000000000600052603260045260246000fd5b602002602001018190525060405180604001604052807f141f91cf4b12a6df12d183dc12a5a2046e1cbb954c6a29255c798efd29f670c881526020017f191db684f1147330733728f1844447ab70006c376f50df6acd9d01654121bb998152508160800151600e8151811061140f577f4e487b7100000000000000000000000000000000000000000000000000000000600052603260045260246000fd5b602002602001018190525060405180604001604052807f21c468c00c003be9e9087d1c5a300d30763dbcd8ad288563fa4d1ef5860b1d6881526020017f0eda8f20130146711b9fe5e77c63af9b6ce373adaed1f2a4caccf88715879e128152508160800151600f815181106114ad577f4e487b7100000000000000000000000000000000000000000000000000000000600052603260045260246000fd5b602002602001018190525060405180604001604052807f10136c93923ebc8896c003771a429514da7451844f7793a242d226d22233536681526020017f2cccca00f4ef4a76dbeb4ef9353db67802f11d55ad00c4f953248825748a23fa815250816080015160108151811061154b577f4e487b7100000000000000000000000000000000000000000000000000000000600052603260045260246000fd5b602002602001018190525060405180604001604052807f08314b7b27650acdfdf2ea2b4c8160b003eb851c825a627816c6eb88c2fa7c1d81526020017f29d5443da800fd78681310f6f8d531157bb402b0e8570378f17866f2a27a0a9381525081608001516011815181106115e9577f4e487b7100000000000000000000000000000000000000000000000000000000600052603260045260246000fd5b602002602001018190525060405180604001604052807f06750605942bb7d638b882bfe1b50c4f1a89fd1eca0a710de3845f6aa9a1241d81526020017f2b72fc40735c2964b0e44a055e76c3aa3d49c1184fd999d66938ba0c2324bc1c8152508160800151601281518110611687577f4e487b7100000000000000000000000000000000000000000000000000000000600052603260045260246000fd5b602002602001018190525060405180604001604052807f0b2db77db71eb455b32cdd76eaa0856c6bfc615dcdc58edaf2e3a74b30f1763d81526020017f0f25f1da27f80f9b66a30afc20834d6fcd2f73cfa69d3c33ae4162fe74a3b8e08152508160800151601381518110611725577f4e487b7100000000000000000000000000000000000000000000000000000000600052603260045260246000fd5b602002602001018190525060405180604001604052807f03273e83daa0cc977f42cfcf8e88b6b0325d10a3bffab1d46a94b4b10211795f81526020017f1101b93567ef81a476f81b130885f747c820b4c9163426b279d25f675da2bf8981525081608001516014815181106117c3577f4e487b7100000000000000000000000000000000000000000000000000000000600052603260045260246000fd5b602002602001018190525060405180604001604052807f06f038c722944a8d1195518495f8bb15e18fff2c97ee518ebae72f3eac612a6281526020017f2fe6aabb8d98a7a3f5b19d1c5cfbb95deaa46ad392c0d84adfcf0378e30930298152508160800151601581518110611861577f4e487b7100000000000000000000000000000000000000000000000000000000600052603260045260246000fd5b602002602001018190525060405180604001604052807f19bc7e3233da59e2aa26522cad3a3aba1bfc8ac0bc043a7109f7df4c9d91bd8081526020017f1999fe2d5d8adf4b995e8306e77714c16a2c8cc6e460bd21559487dffabf9e7a81525081608001516016815181106118ff577f4e487b7100000000000000000000000000000000000000000000000000000000600052603260045260246000fd5b602002602001018190525060405180604001604052807f22602716c3cbd66a1b88da4b0edab6290d24dc18483d63a79b271b0644de959881526020017f2ea4a8e801e480d8bbc47a90085da89c4bb557a4cae23571982bdc8c394116f7815250816080015160178151811061199d577f4e487b7100000000000000000000000000000000000000000000000000000000600052603260045260246000fd5b602002602001018190525060405180604001604052807f10aaff258f5d244e384fd2f73ef1093c08d448ba52597cf10b591dfd42f0296d81526020017f1c38840847d984e74829f960402dec9e8a79794546049173840b67b3ec7d58ef8152508160800151601881518110611a3b577f4e487b7100000000000000000000000000000000000000000000000000000000600052603260045260246000fd5b602002602001018190525060405180604001604052807f2161da202271785278a5cfc696bc847cb6d369a1832e989b86a1575a2e6d1d7a81526020017f2a619857884a67c52860774fa5c8dff24d6e0aeb8db6807e6d81a05801a7b9368152508160800151601981518110611ad9577f4e487b7100000000000000000000000000000000000000000000000000000000600052603260045260246000fd5b602002602001018190525060405180604001604052807f18d413358b864ef58b26c70173537beb65502f34bb4f91965ff47f777cac503481526020017f2d849f4128f6b27f5e7e0b50a24dc0c32bf52b12aa3848018e8bf725dacce47f8152508160800151601a81518110611b77577f4e487b7100000000000000000000000000000000000000000000000000000000600052603260045260246000fd5b602002602001018190525060405180604001604052807f2f69bcd77cf9fb0fa3ff6cd5e56a744bdacb6e9ab2986bbdcd625df1a239f14b81526020017f1aa3e7ebae88f55b5e3e1df9f2b67e7c28c2fb62fe6744fde55e66ff52ebab088152508160800151601b81518110611c15577f4e487b7100000000000000000000000000000000000000000000000000000000600052603260045260246000fd5b602002602001018190525060405180604001604052807f2e7c79d6035ea28f4472ed76184ac323c3eac2e2b155b179c4e937c5cd792b8f81526020017f2309d8b0c1ad4be935bcf1b72d91c7f717e2d97d7eeadc07b9af33a39748e44c8152508160800151601c81518110611cb3577f4e487b7100000000000000000000000000000000000000000000000000000000600052603260045260246000fd5b602002602001018190525060405180604001604052807f02aae295289edf5a7f4c11d34ba6258b3c740356ba93b64810507dfbcea6a99b81526020017f2a1e8c02ea36ff0e6fdda0858b5fe04e89fb3d2940a5614fee0beb9552b6a5238152508160800151601d81518110611d51577f4e487b7100000000000000000000000000000000000000000000000000000000600052603260045260246000fd5b602002602001018190525060405180604001604052807f11907b21460c09bd9ed32007856de74e8a55ff7d53401b89ba0cd103a4fc66a481526020017f26f0276bdca0de87f08c00790f6589dbf8820a1dbf22ac0b7a270a7c03a806598152508160800151601e81518110611def577f4e487b7100000000000000000000000000000000000000000000000000000000600052603260045260246000fd5b602002602001018190525060405180604001604052807f12521c4fa0c26f1477e4f691a06963905010b16bdc7aec4d674f068e5c6c9ba681526020017f13dcba3b4e71c51ea129625324493d57b6b1288e6fc91de217f9ac20a7408b2a8152508160800151601f81518110611e8d577f4e487b7100000000000000000000000000000000000000000000000000000000600052603260045260246000fd5b602002602001018190525060405180604001604052807f191dc94a6315fe754882b5a1ed2f65972065a7f20c17ac1550974c17797a89c081526020017f104d4d0536728061fa840ac9556f3e406fcfee278ae344996eac87e0d555a4db8152508160800151602081518110611f2b577f4e487b7100000000000000000000000000000000000000000000000000000000600052603260045260246000fd5b602002602001018190525060405180604001604052807f01688a9d0b00f0e6aa67ab5beec686da330479d40e9213c4ca16f06a8cad9cb581526020017f030d2bdd01d4c1bb479c016fd7c1c7078c73872326be15299f0a3c3e3b71eab48152508160800151602181518110611fc9577f4e487b7100000000000000000000000000000000000000000000000000000000600052603260045260246000fd5b602002602001018190525060405180604001604052807f17814cc609872c167d54becc25555b4d573c97cb2bc39826266b87036c040b5081526020017f19f0f9da7c32a47ea79b9d495e6752e9566f6ba1c0c62a01ed6802171b17281c8152508160800151602281518110612067577f4e487b7100000000000000000000000000000000000000000000000000000000600052603260045260246000fd5b602002602001018190525060405180604001604052807f08588657b6b0d12904d0cec3f64209e45acda22d289a813a8692f3dcf6703a7581526020017f1b140fa568741d6de54d010ab536ac187fe2489d3e35e08b9b4635ab70929b2d8152508160800151602381518110612105577f4e487b7100000000000000000000000000000000000000000000000000000000600052603260045260246000fd5b602002602001018190525060405180604001604052807f28fbd7503698a41362ed00c9ed92315e1c54c88c664e03af1ddb101ea97e2d3281526020017f30012bc35e495f6d90d421464340bf5a79105c42a2def357f60a6396b7cacf0681525081608001516024815181106121a3577f4e487b7100000000000000000000000000000000000000000000000000000000600052603260045260246000fd5b602002602001018190525090565b6121b9612f76565b6121c1612f90565b836000015181600060038110612200577f4e487b7100000000000000000000000000000000000000000000000000000000600052603260045260246000fd5b602002018181525050836020015181600160038110612248577f4e487b7100000000000000000000000000000000000000000000000000000000600052603260045260246000fd5b602002018181525050828160026003811061228c577f4e487b7100000000000000000000000000000000000000000000000000000000600052603260045260246000fd5b602002018181525050600060608360808460076107d05a03fa905080600081146122b5576122b7565bfe5b50806122f8576040517f08c379a00000000000000000000000000000000000000000000000000000000081526004016122ef90613396565b60405180910390fd5b505092915050565b612308612f76565b612310612fb2565b83600001518160006004811061234f577f4e487b7100000000000000000000000000000000000000000000000000000000600052603260045260246000fd5b602002018181525050836020015181600160048110612397577f4e487b7100000000000000000000000000000000000000000000000000000000600052603260045260246000fd5b6020020181815250508260000151816002600481106123df577f4e487b7100000000000000000000000000000000000000000000000000000000600052603260045260246000fd5b602002018181525050826020015181600360048110612427577f4e487b7100000000000000000000000000000000000000000000000000000000600052603260045260246000fd5b602002018181525050600060608360c08460066107d05a03fa9050806000811461245057612452565bfe5b5080612493576040517f08c379a000000000000000000000000000000000000000000000000000000000815260040161248a906133f6565b60405180910390fd5b505092915050565b6124a3612f76565b60007f30644e72e131a029b85045b68181585d97816a916871ca8d3c208c16d87cfd479050600083600001511480156124e0575060008360200151145b1561250457604051806040016040528060008152602001600081525091505061253b565b6040518060400160405280846000015181526020018285602001516125299190613658565b836125349190613594565b8152509150505b919050565b600080600467ffffffffffffffff811115612584577f4e487b7100000000000000000000000000000000000000000000000000000000600052604160045260246000fd5b6040519080825280602002602001820160405280156125bd57816020015b6125aa612f76565b8152602001906001900390816125a25790505b5090506000600467ffffffffffffffff811115612603577f4e487b7100000000000000000000000000000000000000000000000000000000600052604160045260246000fd5b60405190808252806020026020018201604052801561263c57816020015b612629612fd4565b8152602001906001900390816126215790505b5090508a8260008151811061267a577f4e487b7100000000000000000000000000000000000000000000000000000000600052603260045260246000fd5b602002602001018190525088826001815181106126c0577f4e487b7100000000000000000000000000000000000000000000000000000000600052603260045260246000fd5b60200260200101819052508682600281518110612706577f4e487b7100000000000000000000000000000000000000000000000000000000600052603260045260246000fd5b6020026020010181905250848260038151811061274c577f4e487b7100000000000000000000000000000000000000000000000000000000600052603260045260246000fd5b60200260200101819052508981600081518110612792577f4e487b7100000000000000000000000000000000000000000000000000000000600052603260045260246000fd5b602002602001018190525087816001815181106127d8577f4e487b7100000000000000000000000000000000000000000000000000000000600052603260045260246000fd5b6020026020010181905250858160028151811061281e577f4e487b7100000000000000000000000000000000000000000000000000000000600052603260045260246000fd5b60200260200101819052508381600381518110612864577f4e487b7100000000000000000000000000000000000000000000000000000000600052603260045260246000fd5b60200260200101819052506128798282612889565b9250505098975050505050505050565b600081518351146128cf576040517f08c379a00000000000000000000000000000000000000000000000000000000081526004016128c6906133d6565b60405180910390fd5b60008351905060006006826128e4919061353a565b905060008167ffffffffffffffff811115612928577f4e487b7100000000000000000000000000000000000000000000000000000000600052604160045260246000fd5b6040519080825280602002602001820160405280156129565781602001602082028036833780820191505090505b50905060005b83811015612e3b5786818151811061299d577f4e487b7100000000000000000000000000000000000000000000000000000000600052603260045260246000fd5b6020026020010151600001518260006006846129b9919061353a565b6129c391906134e4565b815181106129fa577f4e487b7100000000000000000000000000000000000000000000000000000000600052603260045260246000fd5b602002602001018181525050868181518110612a3f577f4e487b7100000000000000000000000000000000000000000000000000000000600052603260045260246000fd5b602002602001015160200151826001600684612a5b919061353a565b612a6591906134e4565b81518110612a9c577f4e487b7100000000000000000000000000000000000000000000000000000000600052603260045260246000fd5b602002602001018181525050858181518110612ae1577f4e487b7100000000000000000000000000000000000000000000000000000000600052603260045260246000fd5b602002602001015160000151600060028110612b26577f4e487b7100000000000000000000000000000000000000000000000000000000600052603260045260246000fd5b6020020151826002600684612b3b919061353a565b612b4591906134e4565b81518110612b7c577f4e487b7100000000000000000000000000000000000000000000000000000000600052603260045260246000fd5b602002602001018181525050858181518110612bc1577f4e487b7100000000000000000000000000000000000000000000000000000000600052603260045260246000fd5b602002602001015160000151600160028110612c06577f4e487b7100000000000000000000000000000000000000000000000000000000600052603260045260246000fd5b6020020151826003600684612c1b919061353a565b612c2591906134e4565b81518110612c5c577f4e487b7100000000000000000000000000000000000000000000000000000000600052603260045260246000fd5b602002602001018181525050858181518110612ca1577f4e487b7100000000000000000000000000000000000000000000000000000000600052603260045260246000fd5b602002602001015160200151600060028110612ce6577f4e487b7100000000000000000000000000000000000000000000000000000000600052603260045260246000fd5b6020020151826004600684612cfb919061353a565b612d0591906134e4565b81518110612d3c577f4e487b7100000000000000000000000000000000000000000000000000000000600052603260045260246000fd5b602002602001018181525050858181518110612d81577f4e487b7100000000000000000000000000000000000000000000000000000000600052603260045260246000fd5b602002602001015160200151600160028110612dc6577f4e487b7100000000000000000000000000000000000000000000000000000000600052603260045260246000fd5b6020020151826005600684612ddb919061353a565b612de591906134e4565b81518110612e1c577f4e487b7100000000000000000000000000000000000000000000000000000000600052603260045260246000fd5b6020026020010181815250508080612e339061360f565b91505061295c565b50612e44612ffa565b6000602082602086026020860160086107d05a03fa90508060008114612e6957612e6b565bfe5b5080612eac576040517f08c379a0000000000000000000000000000000000000000000000000000000008152600401612ea390613416565b60405180910390fd5b600082600060018110612ee8577f4e487b7100000000000000000000000000000000000000000000000000000000600052603260045260246000fd5b602002015114159550505050505092915050565b6040518060600160405280612f0f612f76565b8152602001612f1c612fd4565b8152602001612f29612f76565b81525090565b6040518060a00160405280612f42612f76565b8152602001612f4f612fd4565b8152602001612f5c612fd4565b8152602001612f69612fd4565b8152602001606081525090565b604051806040016040528060008152602001600081525090565b6040518060600160405280600390602082028036833780820191505090505090565b6040518060800160405280600490602082028036833780820191505090505090565b6040518060400160405280612fe761301c565b8152602001612ff461301c565b81525090565b6040518060200160405280600190602082028036833780820191505090505090565b6040518060400160405280600290602082028036833780820191505090505090565b600061305161304c8461345b565b613436565b9050808285604086028201111561306757600080fd5b60005b85811015613097578161307d8882613197565b84526020840193506040830192505060018101905061306a565b5050509392505050565b60006130b46130af84613481565b613436565b905080828560208602820111156130ca57600080fd5b60005b858110156130fa57816130e088826131e8565b8452602084019350602083019250506001810190506130cd565b5050509392505050565b6000613117613112846134a7565b613436565b9050808382526020820190508285602086028201111561313657600080fd5b60005b85811015613166578161314c88826131e8565b845260208401935060208301925050600181019050613139565b5050509392505050565b600082601f83011261318157600080fd5b600261318e84828561303e565b91505092915050565b600082601f8301126131a857600080fd5b60026131b58482856130a1565b91505092915050565b600082601f8301126131cf57600080fd5b81356131df848260208601613104565b91505092915050565b6000813590506131f78161381d565b92915050565b600080600080610120858703121561321457600080fd5b600061322287828801613197565b945050604061323387828801613170565b93505060c061324487828801613197565b92505061010085013567ffffffffffffffff81111561326257600080fd5b61326e878288016131be565b91505092959194509250565b613283816135c8565b82525050565b60006132966012836134d3565b91506132a182613727565b602082019050919050565b60006132b96012836134d3565b91506132c482613750565b602082019050919050565b60006132dc601f836134d3565b91506132e782613779565b602082019050919050565b60006132ff6016836134d3565b915061330a826137a2565b602082019050919050565b60006133226012836134d3565b915061332d826137cb565b602082019050919050565b60006133456015836134d3565b9150613350826137f4565b602082019050919050565b6000602082019050613370600083018461327a565b92915050565b6000602082019050818103600083015261338f81613289565b9050919050565b600060208201905081810360008301526133af816132ac565b9050919050565b600060208201905081810360008301526133cf816132cf565b9050919050565b600060208201905081810360008301526133ef816132f2565b9050919050565b6000602082019050818103600083015261340f81613315565b9050919050565b6000602082019050818103600083015261342f81613338565b9050919050565b6000613440613451565b905061344c82826135de565b919050565b6000604051905090565b600067ffffffffffffffff821115613476576134756136e7565b5b602082029050919050565b600067ffffffffffffffff82111561349c5761349b6136e7565b5b602082029050919050565b600067ffffffffffffffff8211156134c2576134c16136e7565b5b602082029050602081019050919050565b600082825260208201905092915050565b60006134ef826135d4565b91506134fa836135d4565b9250827fffffffffffffffffffffffffffffffffffffffffffffffffffffffffffffffff0382111561352f5761352e613689565b5b828201905092915050565b6000613545826135d4565b9150613550836135d4565b9250817fffffffffffffffffffffffffffffffffffffffffffffffffffffffffffffffff048311821515161561358957613588613689565b5b828202905092915050565b600061359f826135d4565b91506135aa836135d4565b9250828210156135bd576135bc613689565b5b828203905092915050565b60008115159050919050565b6000819050919050565b6135e782613716565b810181811067ffffffffffffffff82111715613606576136056136e7565b5b80604052505050565b600061361a826135d4565b91507fffffffffffffffffffffffffffffffffffffffffffffffffffffffffffffffff82141561364d5761364c613689565b5b600182019050919050565b6000613663826135d4565b915061366e836135d4565b92508261367e5761367d6136b8565b5b828206905092915050565b7f4e487b7100000000000000000000000000000000000000000000000000000000600052601160045260246000fd5b7f4e487b7100000000000000000000000000000000000000000000000000000000600052601260045260246000fd5b7f4e487b7100000000000000000000000000000000000000000000000000000000600052604160045260246000fd5b6000601f19601f8301169050919050565b7f76657269666965722d6261642d696e7075740000000000000000000000000000600082015250565b7f70616972696e672d6d756c2d6661696c65640000000000000000000000000000600082015250565b7f76657269666965722d6774652d736e61726b2d7363616c61722d6669656c6400600082015250565b7f70616972696e672d6c656e677468732d6661696c656400000000000000000000600082015250565b7f70616972696e672d6164642d6661696c65640000000000000000000000000000600082015250565b7f70616972696e672d6f70636f64652d6661696c65640000000000000000000000600082015250565b613826816135d4565b811461383157600080fd5b5056fea2646970667358221220065631558e558b8904edaf9e7de9c638b70091b5110623277a0b005ca3a0f43764736f6c63430008040033",
  "linkReferences": {},
  "deployedLinkReferences": {}
}