{
  "_format": "hh-sol-artifact-1",
  "contractName": "OraisanGate",
  "sourceName": "contracts/ethBridge/OraisanGate.sol",
  "abi": [
    {
      "anonymous": false,
      "inputs": [
        {
          "indexed": false,
          "internalType": "uint256",
          "name": "blockHeight",
          "type": "uint256"
        },
        {
          "indexed": false,
          "internalType": "bytes20",
          "name": "blockHash",
          "type": "bytes20"
        },
        {
          "indexed": false,
          "internalType": "address",
          "name": "updater",
          "type": "address"
        }
      ],
      "name": "BlockHeaderUpdated",
      "type": "event"
    },
    {
      "anonymous": false,
      "inputs": [
        {
          "indexed": false,
          "internalType": "uint8",
          "name": "version",
          "type": "uint8"
        }
      ],
      "name": "Initialized",
      "type": "event"
    },
    {
      "anonymous": false,
      "inputs": [
        {
          "indexed": true,
          "internalType": "address",
          "name": "previousOwner",
          "type": "address"
        },
        {
          "indexed": true,
          "internalType": "address",
          "name": "newOwner",
          "type": "address"
        }
      ],
      "name": "OwnershipTransferred",
      "type": "event"
    },
    {
      "anonymous": false,
      "inputs": [
        {
          "indexed": false,
          "internalType": "address",
          "name": "account",
          "type": "address"
        }
      ],
      "name": "Paused",
      "type": "event"
    },
    {
      "anonymous": false,
      "inputs": [
        {
          "indexed": false,
          "internalType": "address",
          "name": "account",
          "type": "address"
        }
      ],
      "name": "Unpaused",
      "type": "event"
    },
    {
      "inputs": [
        {
          "internalType": "address",
          "name": "_libAddressManager",
          "type": "address"
        }
      ],
      "name": "initialize",
      "outputs": [],
      "stateMutability": "nonpayable",
      "type": "function"
    },
    {
      "inputs": [],
      "name": "libAddressManager",
      "outputs": [
        {
          "internalType": "contract Lib_AddressManager",
          "name": "",
          "type": "address"
        }
      ],
      "stateMutability": "view",
      "type": "function"
    },
    {
      "inputs": [],
      "name": "owner",
      "outputs": [
        {
          "internalType": "address",
          "name": "",
          "type": "address"
        }
      ],
      "stateMutability": "view",
      "type": "function"
    },
    {
      "inputs": [],
      "name": "pause",
      "outputs": [],
      "stateMutability": "nonpayable",
      "type": "function"
    },
    {
      "inputs": [],
      "name": "paused",
      "outputs": [
        {
          "internalType": "bool",
          "name": "",
          "type": "bool"
        }
      ],
      "stateMutability": "view",
      "type": "function"
    },
    {
      "inputs": [],
      "name": "renounceOwnership",
      "outputs": [],
      "stateMutability": "nonpayable",
      "type": "function"
    },
    {
      "inputs": [
        {
          "internalType": "string",
          "name": "_name",
          "type": "string"
        }
      ],
      "name": "resolve",
      "outputs": [
        {
          "internalType": "address",
          "name": "",
          "type": "address"
        }
      ],
      "stateMutability": "view",
      "type": "function"
    },
    {
      "inputs": [
        {
          "internalType": "address",
          "name": "newOwner",
          "type": "address"
        }
      ],
      "name": "transferOwnership",
      "outputs": [],
      "stateMutability": "nonpayable",
      "type": "function"
    },
    {
      "inputs": [],
      "name": "unpauseContract",
      "outputs": [],
      "stateMutability": "nonpayable",
      "type": "function"
    },
    {
      "inputs": [
        {
          "components": [
            {
              "internalType": "uint256",
              "name": "height",
              "type": "uint256"
            },
            {
              "internalType": "bytes20",
              "name": "blockHash",
              "type": "bytes20"
            },
            {
              "internalType": "uint256",
              "name": "blockTime",
              "type": "uint256"
            },
            {
              "internalType": "bytes20",
              "name": "dataHash",
              "type": "bytes20"
            },
            {
              "internalType": "bytes20",
              "name": "validatorHash",
              "type": "bytes20"
            }
          ],
          "internalType": "struct ICosmosBlockHeader.Header",
          "name": "_newBlockHeader",
          "type": "tuple"
        },
        {
          "components": [
            {
              "internalType": "string",
              "name": "optionName",
              "type": "string"
            },
            {
              "internalType": "uint256[2]",
              "name": "pi_a",
              "type": "uint256[2]"
            },
            {
              "internalType": "uint256[2][2]",
              "name": "pi_b",
              "type": "uint256[2][2]"
            },
            {
              "internalType": "uint256[2]",
              "name": "pi_c",
              "type": "uint256[2]"
            },
            {
              "internalType": "uint256",
              "name": "totalVPsigned",
              "type": "uint256"
            },
            {
              "internalType": "uint256",
              "name": "totalVP",
              "type": "uint256"
            },
            {
              "internalType": "address[]",
              "name": "validatorAddress",
              "type": "address[]"
            },
            {
              "internalType": "uint256",
              "name": "signed",
              "type": "uint256"
            }
          ],
          "internalType": "struct IVerifier.ValidatorHashLeftProof",
          "name": "_validatorHashLeftProof",
          "type": "tuple"
        },
        {
          "components": [
            {
              "internalType": "string",
              "name": "optionName",
              "type": "string"
            },
            {
              "internalType": "uint256[2]",
              "name": "pi_a",
              "type": "uint256[2]"
            },
            {
              "internalType": "uint256[2][2]",
              "name": "pi_b",
              "type": "uint256[2][2]"
            },
            {
              "internalType": "uint256[2]",
              "name": "pi_c",
              "type": "uint256[2]"
            },
            {
              "internalType": "uint256",
              "name": "totalVPsigned",
              "type": "uint256"
            },
            {
              "internalType": "uint256",
              "name": "totalVP",
              "type": "uint256"
            },
            {
              "internalType": "address[]",
              "name": "validatorAddress",
              "type": "address[]"
            },
            {
              "internalType": "uint256",
              "name": "signed",
              "type": "uint256"
            }
          ],
          "internalType": "struct IVerifier.ValidatorHashRightProof",
          "name": "_validatorHashRightProof",
          "type": "tuple"
        },
        {
          "components": [
            {
              "internalType": "string",
              "name": "optionName",
              "type": "string"
            },
            {
              "internalType": "uint256[2]",
              "name": "pi_a",
              "type": "uint256[2]"
            },
            {
              "internalType": "uint256[2][2]",
              "name": "pi_b",
              "type": "uint256[2][2]"
            },
            {
              "internalType": "uint256[2]",
              "name": "pi_c",
              "type": "uint256[2]"
            },
            {
              "internalType": "uint256",
              "name": "index",
              "type": "uint256"
            }
          ],
          "internalType": "struct IVerifier.SignatureValidatorProof[]",
          "name": "_signatureValidatorProof",
          "type": "tuple[]"
        }
      ],
      "name": "updateblockHeader",
      "outputs": [],
      "stateMutability": "nonpayable",
      "type": "function"
    },
    {
      "inputs": [
        {
          "components": [
            {
              "internalType": "string",
              "name": "optionName",
              "type": "string"
            },
            {
              "internalType": "uint256[2]",
              "name": "pi_a",
              "type": "uint256[2]"
            },
            {
              "internalType": "uint256[2][2]",
              "name": "pi_b",
              "type": "uint256[2][2]"
            },
            {
              "internalType": "uint256[2]",
              "name": "pi_c",
              "type": "uint256[2]"
            },
            {
              "internalType": "address",
              "name": "validatorAddress",
              "type": "address"
            },
            {
              "internalType": "bytes20",
              "name": "validatorHash",
              "type": "bytes20"
            },
            {
              "internalType": "bytes20",
              "name": "dataHash",
              "type": "bytes20"
            },
            {
              "internalType": "bytes20",
              "name": "blockHash",
              "type": "bytes20"
            },
            {
              "internalType": "uint256",
              "name": "height",
              "type": "uint256"
            }
          ],
          "internalType": "struct IVerifier.BlockHeaderTestnetProof",
          "name": "_blockHeaderProof",
          "type": "tuple"
        }
      ],
      "name": "updateblockHeaderTestnet",
      "outputs": [],
      "stateMutability": "nonpayable",
      "type": "function"
    }
  ],
  "bytecode": "0x608060405234801561001057600080fd5b50612d54806100206000396000f3fe608060405234801561001057600080fd5b50600436106100a95760003560e01c80638456cb59116100715780638456cb59146101405780638da5cb5b1461014a578063ac1d5d9914610168578063b33712c514610184578063c4d66de81461018e578063f2fde38b146101aa576100a9565b80631d18d4af146100ae578063299ca478146100ca578063461a4478146100e85780635c975abb14610118578063715018a614610136575b600080fd5b6100c860048036038101906100c39190611b80565b6101c6565b005b6100d2610542565b6040516100df9190612481565b60405180910390f35b61010260048036038101906100fd9190611afe565b610568565b60405161010f91906123fd565b60405180910390f35b61012061061b565b60405161012d9190612466565b60405180910390f35b61013e610632565b005b610148610646565b005b610152610658565b60405161015f91906123fd565b60405180910390f35b610182600480360381019061017d9190611b3f565b610682565b005b61018c610c2d565b005b6101a860048036038101906101a39190611a83565b610c3f565b005b6101c460048036038101906101bf9190611a83565b610dec565b005b6101ce610e70565b61020c6040518060400160405280601181526020017f434f534d4f535f56414c494441544f5253000000000000000000000000000000815250610568565b73ffffffffffffffffffffffffffffffffffffffff16634013195d858585856040518563ffffffff1660e01b815260040161024a94939291906125f9565b602060405180830381600087803b15801561026457600080fd5b505af1158015610278573d6000803e3d6000fd5b505050506040513d601f19601f8201168201806040525081019061029c9190611ad5565b6102db576040517f08c379a00000000000000000000000000000000000000000000000000000000081526004016102d2906125d9565b60405180910390fd5b6000846000015190506103226040518060400160405280601181526020017f434f534d4f535f56414c494441544f5253000000000000000000000000000000815250610568565b73ffffffffffffffffffffffffffffffffffffffff166390809952828660c001518660c001516040518463ffffffff1660e01b81526004016103669392919061267d565b600060405180830381600087803b15801561038057600080fd5b505af1158015610394573d6000803e3d6000fd5b505050506103d66040518060400160405280601381526020017f434f534d4f535f424c4f434b5f48454144455200000000000000000000000000815250610568565b73ffffffffffffffffffffffffffffffffffffffff166398a7b57e8287602001516040518363ffffffff1660e01b81526004016104149291906126c2565b600060405180830381600087803b15801561042e57600080fd5b505af1158015610442573d6000803e3d6000fd5b505050506104846040518060400160405280601381526020017f434f534d4f535f424c4f434b5f48454144455200000000000000000000000000815250610568565b73ffffffffffffffffffffffffffffffffffffffff16630e95bd72866000015187606001516040518363ffffffff1660e01b81526004016104c69291906126c2565b600060405180830381600087803b1580156104e057600080fd5b505af11580156104f4573d6000803e3d6000fd5b505050507fb698e7a993903b77bfb336621e89a61330c2dfb1fe6db379ba27ebc8ae6d83c68560000151866020015133604051610533939291906126eb565b60405180910390a15050505050565b600060029054906101000a900473ffffffffffffffffffffffffffffffffffffffff1681565b60008060029054906101000a900473ffffffffffffffffffffffffffffffffffffffff1673ffffffffffffffffffffffffffffffffffffffff1663bf40fac1836040518263ffffffff1660e01b81526004016105c491906124b7565b60206040518083038186803b1580156105dc57600080fd5b505afa1580156105f0573d6000803e3d6000fd5b505050506040513d601f19601f820116820180604052508101906106149190611aac565b9050919050565b6000606560009054906101000a900460ff16905090565b61063a610eba565b6106446000610f38565b565b61064e610eba565b610656610ffe565b565b6000603360009054906101000a900473ffffffffffffffffffffffffffffffffffffffff16905090565b61068a610e70565b6000816000015190506000826020015190506000836040015190506000846060015190506000600567ffffffffffffffff8111156106f1577f4e487b7100000000000000000000000000000000000000000000000000000000600052604160045260246000fd5b60405190808252806020026020018201604052801561071f5781602001602082028036833780820191505090505b509050856080015173ffffffffffffffffffffffffffffffffffffffff1681600081518110610777577f4e487b7100000000000000000000000000000000000000000000000000000000600052603260045260246000fd5b6020026020010181815250508560a0015160601c73ffffffffffffffffffffffffffffffffffffffff16816001815181106107db577f4e487b7100000000000000000000000000000000000000000000000000000000600052603260045260246000fd5b6020026020010181815250508560c0015160601c73ffffffffffffffffffffffffffffffffffffffff168160028151811061083f577f4e487b7100000000000000000000000000000000000000000000000000000000600052603260045260246000fd5b6020026020010181815250508560e0015160601c73ffffffffffffffffffffffffffffffffffffffff16816003815181106108a3577f4e487b7100000000000000000000000000000000000000000000000000000000600052603260045260246000fd5b602002602001018181525050856101000151816004815181106108ef577f4e487b7100000000000000000000000000000000000000000000000000000000600052603260045260246000fd5b60200260200101818152505061090485610568565b73ffffffffffffffffffffffffffffffffffffffff1663c32e370e858585856040518563ffffffff1660e01b81526004016109429493929190612418565b60206040518083038186803b15801561095a57600080fd5b505afa15801561096e573d6000803e3d6000fd5b505050506040513d601f19601f820116820180604052508101906109929190611ad5565b6109d1576040517f08c379a00000000000000000000000000000000000000000000000000000000081526004016109c890612539565b60405180910390fd5b60008661010001519050610a196040518060400160405280601181526020017f434f534d4f535f56414c494441544f5253000000000000000000000000000000815250610568565b73ffffffffffffffffffffffffffffffffffffffff166325d44ca58289608001516040518363ffffffff1660e01b8152600401610a57929190612654565b600060405180830381600087803b158015610a7157600080fd5b505af1158015610a85573d6000803e3d6000fd5b50505050610ac76040518060400160405280601381526020017f434f534d4f535f424c4f434b5f48454144455200000000000000000000000000815250610568565b73ffffffffffffffffffffffffffffffffffffffff166398a7b57e828960e001516040518363ffffffff1660e01b8152600401610b059291906126c2565b600060405180830381600087803b158015610b1f57600080fd5b505af1158015610b33573d6000803e3d6000fd5b50505050610b756040518060400160405280601381526020017f434f534d4f535f424c4f434b5f48454144455200000000000000000000000000815250610568565b73ffffffffffffffffffffffffffffffffffffffff16630e95bd72828960c001516040518363ffffffff1660e01b8152600401610bb39291906126c2565b600060405180830381600087803b158015610bcd57600080fd5b505af1158015610be1573d6000803e3d6000fd5b505050507fb698e7a993903b77bfb336621e89a61330c2dfb1fe6db379ba27ebc8ae6d83c6818860e0015133604051610c1c939291906126eb565b60405180910390a150505050505050565b610c35610eba565b610c3d611061565b565b60008060019054906101000a900460ff16159050808015610c705750600160008054906101000a900460ff1660ff16105b80610c9d5750610c7f306110c4565b158015610c9c5750600160008054906101000a900460ff1660ff16145b5b610cdc576040517f08c379a0000000000000000000000000000000000000000000000000000000008152600401610cd390612579565b60405180910390fd5b60016000806101000a81548160ff021916908360ff1602179055508015610d19576001600060016101000a81548160ff0219169083151502179055505b600060c95414610d5e576040517f08c379a0000000000000000000000000000000000000000000000000000000008152600401610d55906124d9565b60405180910390fd5b600160c981905550610d6f826110e7565b610d7761117a565b610d7f6111cb565b610d8761122c565b610d8f611298565b8015610de85760008060016101000a81548160ff0219169083151502179055507f7f26b83ff96e1f2b6a682f133852f6798a09c465da95921460cefb38474024986001604051610ddf919061249c565b60405180910390a15b5050565b610df4610eba565b600073ffffffffffffffffffffffffffffffffffffffff168173ffffffffffffffffffffffffffffffffffffffff161415610e64576040517f08c379a0000000000000000000000000000000000000000000000000000000008152600401610e5b90612519565b60405180910390fd5b610e6d81610f38565b50565b610e7861061b565b15610eb8576040517f08c379a0000000000000000000000000000000000000000000000000000000008152600401610eaf90612559565b60405180910390fd5b565b610ec26112f1565b73ffffffffffffffffffffffffffffffffffffffff16610ee0610658565b73ffffffffffffffffffffffffffffffffffffffff1614610f36576040517f08c379a0000000000000000000000000000000000000000000000000000000008152600401610f2d90612599565b60405180910390fd5b565b6000603360009054906101000a900473ffffffffffffffffffffffffffffffffffffffff16905081603360006101000a81548173ffffffffffffffffffffffffffffffffffffffff021916908373ffffffffffffffffffffffffffffffffffffffff1602179055508173ffffffffffffffffffffffffffffffffffffffff168173ffffffffffffffffffffffffffffffffffffffff167f8be0079c531659141344cd1fd0a4f28419497f9722a3daafe3b4186f6b6457e060405160405180910390a35050565b611006610e70565b6001606560006101000a81548160ff0219169083151502179055507f62e78cea01bee320cd4e420270b5ea74000d11b0c9f74754ebdbfc544b05a25861104a6112f1565b60405161105791906123fd565b60405180910390a1565b6110696112f9565b6000606560006101000a81548160ff0219169083151502179055507f5db9ee0a495bf2e6ff9c91a7834c1ba4fdd244a5e8aa4e537bd38aeae4b073aa6110ad6112f1565b6040516110ba91906123fd565b60405180910390a1565b6000808273ffffffffffffffffffffffffffffffffffffffff163b119050919050565b600060019054906101000a900460ff16611136576040517f08c379a000000000000000000000000000000000000000000000000000000000815260040161112d906125b9565b60405180910390fd5b80600060026101000a81548173ffffffffffffffffffffffffffffffffffffffff021916908373ffffffffffffffffffffffffffffffffffffffff16021790555050565b600060019054906101000a900460ff166111c9576040517f08c379a00000000000000000000000000000000000000000000000000000000081526004016111c0906125b9565b60405180910390fd5b565b600060019054906101000a900460ff1661121a576040517f08c379a0000000000000000000000000000000000000000000000000000000008152600401611211906125b9565b60405180910390fd5b61122a6112256112f1565b610f38565b565b600060019054906101000a900460ff1661127b576040517f08c379a0000000000000000000000000000000000000000000000000000000008152600401611272906125b9565b60405180910390fd5b6000606560006101000a81548160ff021916908315150217905550565b600060019054906101000a900460ff166112e7576040517f08c379a00000000000000000000000000000000000000000000000000000000081526004016112de906125b9565b60405180910390fd5b6001609781905550565b600033905090565b61130161061b565b611340576040517f08c379a0000000000000000000000000000000000000000000000000000000008152600401611337906124f9565b60405180910390fd5b565b600061135561135084612747565b612722565b9050808382526020820190508285602086028201111561137457600080fd5b60005b858110156113a4578161138a8882611538565b845260208401935060208301925050600181019050611377565b5050509392505050565b60006113c16113bc84612773565b612722565b905080828560408602820111156113d757600080fd5b60005b8581101561140757816113ed88826115dd565b8452602084019350604083019250506001810190506113da565b5050509392505050565b600061142461141f84612799565b612722565b9050808382526020820190508285602086028201111561144357600080fd5b60005b8581101561148d57813567ffffffffffffffff81111561146557600080fd5b80860161147289826117d8565b85526020850194506020840193505050600181019050611446565b5050509392505050565b60006114aa6114a5846127c5565b612722565b905080828560208602820111156114c057600080fd5b60005b858110156114f057816114d68882611a6e565b8452602084019350602083019250506001810190506114c3565b5050509392505050565b600061150d611508846127eb565b612722565b90508281526020810184848401111561152557600080fd5b611530848285612a2c565b509392505050565b60008135905061154781612cc2565b92915050565b60008151905061155c81612cc2565b92915050565b600082601f83011261157357600080fd5b8135611583848260208601611342565b91505092915050565b600082601f83011261159d57600080fd5b60026115aa8482856113ae565b91505092915050565b600082601f8301126115c457600080fd5b81356115d4848260208601611411565b91505092915050565b600082601f8301126115ee57600080fd5b60026115fb848285611497565b91505092915050565b60008151905061161381612cd9565b92915050565b60008135905061162881612cf0565b92915050565b600082601f83011261163f57600080fd5b813561164f8482602086016114fa565b91505092915050565b60006101c0828403121561166b57600080fd5b611676610120612722565b9050600082013567ffffffffffffffff81111561169257600080fd5b61169e8482850161162e565b60008301525060206116b2848285016115dd565b60208301525060606116c68482850161158c565b60408301525060e06116da848285016115dd565b6060830152506101206116ef84828501611538565b60808301525061014061170484828501611619565b60a08301525061016061171984828501611619565b60c08301525061018061172e84828501611619565b60e0830152506101a061174384828501611a6e565b6101008301525092915050565b600060a0828403121561176257600080fd5b61176c60a0612722565b9050600061177c84828501611a6e565b600083015250602061179084828501611619565b60208301525060406117a484828501611a6e565b60408301525060606117b884828501611619565b60608301525060806117cc84828501611619565b60808301525092915050565b600061014082840312156117eb57600080fd5b6117f560a0612722565b9050600082013567ffffffffffffffff81111561181157600080fd5b61181d8482850161162e565b6000830152506020611831848285016115dd565b60208301525060606118458482850161158c565b60408301525060e0611859848285016115dd565b60608301525061012061186e84828501611a6e565b60808301525092915050565b60006101a0828403121561188d57600080fd5b611898610100612722565b9050600082013567ffffffffffffffff8111156118b457600080fd5b6118c08482850161162e565b60008301525060206118d4848285016115dd565b60208301525060606118e88482850161158c565b60408301525060e06118fc848285016115dd565b60608301525061012061191184828501611a6e565b60808301525061014061192684828501611a6e565b60a08301525061016082013567ffffffffffffffff81111561194757600080fd5b61195384828501611562565b60c08301525061018061196884828501611a6e565b60e08301525092915050565b60006101a0828403121561198757600080fd5b611992610100612722565b9050600082013567ffffffffffffffff8111156119ae57600080fd5b6119ba8482850161162e565b60008301525060206119ce848285016115dd565b60208301525060606119e28482850161158c565b60408301525060e06119f6848285016115dd565b606083015250610120611a0b84828501611a6e565b608083015250610140611a2084828501611a6e565b60a08301525061016082013567ffffffffffffffff811115611a4157600080fd5b611a4d84828501611562565b60c083015250610180611a6284828501611a6e565b60e08301525092915050565b600081359050611a7d81612d07565b92915050565b600060208284031215611a9557600080fd5b6000611aa384828501611538565b91505092915050565b600060208284031215611abe57600080fd5b6000611acc8482850161154d565b91505092915050565b600060208284031215611ae757600080fd5b6000611af584828501611604565b91505092915050565b600060208284031215611b1057600080fd5b600082013567ffffffffffffffff811115611b2a57600080fd5b611b368482850161162e565b91505092915050565b600060208284031215611b5157600080fd5b600082013567ffffffffffffffff811115611b6b57600080fd5b611b7784828501611658565b91505092915050565b6000806000806101008587031215611b9757600080fd5b6000611ba587828801611750565b94505060a085013567ffffffffffffffff811115611bc257600080fd5b611bce8782880161187a565b93505060c085013567ffffffffffffffff811115611beb57600080fd5b611bf787828801611974565b92505060e085013567ffffffffffffffff811115611c1457600080fd5b611c20878288016115b3565b91505092959194509250565b6000611c388383611c88565b60208301905092915050565b6000611c508383611e85565b60408301905092915050565b6000611c6883836121f1565b905092915050565b6000611c7c83836123df565b60208301905092915050565b611c9181612975565b82525050565b611ca081612975565b82525050565b6000611cb182612860565b611cbb81856128e3565b9350611cc68361281c565b8060005b83811015611cf7578151611cde8882611c2c565b9750611ce9836128a2565b925050600181019050611cca565b5085935050505092915050565b6000611d0f82612860565b611d1981856128f4565b9350611d248361281c565b8060005b83811015611d55578151611d3c8882611c2c565b9750611d47836128a2565b925050600181019050611d28565b5085935050505092915050565b611d6b8161286b565b611d758184612905565b9250611d808261282c565b8060005b83811015611db1578151611d988782611c44565b9650611da3836128af565b925050600181019050611d84565b505050505050565b611dc28161286b565b611dcc8184612910565b9250611dd78261282c565b8060005b83811015611e08578151611def8782611c44565b9650611dfa836128af565b925050600181019050611ddb565b505050505050565b6000611e1b82612876565b611e25818561291b565b935083602082028501611e3785612836565b8060005b85811015611e735784840389528151611e548582611c5c565b9450611e5f836128bc565b925060208a01995050600181019050611e3b565b50829750879550505050505092915050565b611e8e81612881565b611e98818461292c565b9250611ea382612846565b8060005b83811015611ed4578151611ebb8782611c70565b9650611ec6836128c9565b925050600181019050611ea7565b505050505050565b611ee581612881565b611eef8184612937565b9250611efa82612846565b8060005b83811015611f2b578151611f128782611c70565b9650611f1d836128c9565b925050600181019050611efe565b505050505050565b6000611f3e8261288c565b611f488185612942565b9350611f5383612850565b8060005b83811015611f84578151611f6b8882611c70565b9750611f76836128d6565b925050600181019050611f57565b5085935050505092915050565b611f9a81612987565b82525050565b611fa981612993565b82525050565b611fb881612993565b82525050565b611fc7816129f6565b82525050565b611fd681612a1a565b82525050565b6000611fe782612897565b611ff18185612953565b9350612001818560208601612a3b565b61200a81612ace565b840191505092915050565b600061202082612897565b61202a8185612964565b935061203a818560208601612a3b565b61204381612ace565b840191505092915050565b600061205b601783612964565b915061206682612adf565b602082019050919050565b600061207e601483612964565b915061208982612b08565b602082019050919050565b60006120a1602683612964565b91506120ac82612b31565b604082019050919050565b60006120c4601983612964565b91506120cf82612b80565b602082019050919050565b60006120e7601083612964565b91506120f282612ba9565b602082019050919050565b600061210a602e83612964565b915061211582612bd2565b604082019050919050565b600061212d602083612964565b915061213882612c21565b602082019050919050565b6000612150602b83612964565b915061215b82612c4a565b604082019050919050565b6000612173601b83612964565b915061217e82612c99565b602082019050919050565b60a08201600082015161219f60008501826123df565b5060208201516121b26020850182611fa0565b5060408201516121c560408501826123df565b5060608201516121d86060850182611fa0565b5060808201516121eb6080850182611fa0565b50505050565b600061014083016000830151848203600086015261220f8282611fdc565b91505060208301516122246020860182611e85565b5060408301516122376060860182611d62565b50606083015161224a60e0860182611e85565b50608083015161225e6101208601826123df565b508091505092915050565b60006101a08301600083015184820360008601526122878282611fdc565b915050602083015161229c6020860182611e85565b5060408301516122af6060860182611d62565b5060608301516122c260e0860182611e85565b5060808301516122d66101208601826123df565b5060a08301516122ea6101408601826123df565b5060c08301518482036101608601526123038282611ca6565b91505060e08301516123196101808601826123df565b508091505092915050565b60006101a08301600083015184820360008601526123428282611fdc565b91505060208301516123576020860182611e85565b50604083015161236a6060860182611d62565b50606083015161237d60e0860182611e85565b5060808301516123916101208601826123df565b5060a08301516123a56101408601826123df565b5060c08301518482036101608601526123be8282611ca6565b91505060e08301516123d46101808601826123df565b508091505092915050565b6123e8816129df565b82525050565b6123f7816129df565b82525050565b60006020820190506124126000830184611c97565b92915050565b60006101208201905061242e6000830187611edc565b61243b6040830186611db9565b61244860c0830185611edc565b81810361010083015261245b8184611f33565b905095945050505050565b600060208201905061247b6000830184611f91565b92915050565b60006020820190506124966000830184611fbe565b92915050565b60006020820190506124b16000830184611fcd565b92915050565b600060208201905081810360008301526124d18184612015565b905092915050565b600060208201905081810360008301526124f28161204e565b9050919050565b6000602082019050818103600083015261251281612071565b9050919050565b6000602082019050818103600083015261253281612094565b9050919050565b60006020820190508181036000830152612552816120b7565b9050919050565b60006020820190508181036000830152612572816120da565b9050919050565b60006020820190508181036000830152612592816120fd565b9050919050565b600060208201905081810360008301526125b281612120565b9050919050565b600060208201905081810360008301526125d281612143565b9050919050565b600060208201905081810360008301526125f281612166565b9050919050565b60006101008201905061260f6000830187612189565b81810360a08301526126218186612269565b905081810360c08301526126358185612324565b905081810360e08301526126498184611e10565b905095945050505050565b600060408201905061266960008301856123ee565b6126766020830184611c97565b9392505050565b600060608201905061269260008301866123ee565b81810360208301526126a48185611d04565b905081810360408301526126b88184611d04565b9050949350505050565b60006040820190506126d760008301856123ee565b6126e46020830184611faf565b9392505050565b600060608201905061270060008301866123ee565b61270d6020830185611faf565b61271a6040830184611c97565b949350505050565b600061272c61273d565b90506127388282612a6e565b919050565b6000604051905090565b600067ffffffffffffffff82111561276257612761612a9f565b5b602082029050602081019050919050565b600067ffffffffffffffff82111561278e5761278d612a9f565b5b602082029050919050565b600067ffffffffffffffff8211156127b4576127b3612a9f565b5b602082029050602081019050919050565b600067ffffffffffffffff8211156127e0576127df612a9f565b5b602082029050919050565b600067ffffffffffffffff82111561280657612805612a9f565b5b61280f82612ace565b9050602081019050919050565b6000819050602082019050919050565b6000819050919050565b6000819050602082019050919050565b6000819050919050565b6000819050602082019050919050565b600081519050919050565b600060029050919050565b600081519050919050565b600060029050919050565b600081519050919050565b600081519050919050565b6000602082019050919050565b6000602082019050919050565b6000602082019050919050565b6000602082019050919050565b6000602082019050919050565b600082825260208201905092915050565b600082825260208201905092915050565b600081905092915050565b600081905092915050565b600082825260208201905092915050565b600081905092915050565b600081905092915050565b600082825260208201905092915050565b600082825260208201905092915050565b600082825260208201905092915050565b6000612980826129bf565b9050919050565b60008115159050919050565b60007fffffffffffffffffffffffffffffffffffffffff00000000000000000000000082169050919050565b600073ffffffffffffffffffffffffffffffffffffffff82169050919050565b6000819050919050565b600060ff82169050919050565b6000612a0182612a08565b9050919050565b6000612a13826129bf565b9050919050565b6000612a25826129e9565b9050919050565b82818337600083830152505050565b60005b83811015612a59578082015181840152602081019050612a3e565b83811115612a68576000848401525b50505050565b612a7782612ace565b810181811067ffffffffffffffff82111715612a9657612a95612a9f565b5b80604052505050565b7f4e487b7100000000000000000000000000000000000000000000000000000000600052604160045260246000fd5b6000601f19601f8301169050919050565b7f4f72616973616e47617465206973206465706c6f796564000000000000000000600082015250565b7f5061757361626c653a206e6f7420706175736564000000000000000000000000600082015250565b7f4f776e61626c653a206e6577206f776e657220697320746865207a65726f206160008201527f6464726573730000000000000000000000000000000000000000000000000000602082015250565b7f496e76616c696420626c6f636b6865616465722070726f6f6600000000000000600082015250565b7f5061757361626c653a2070617573656400000000000000000000000000000000600082015250565b7f496e697469616c697a61626c653a20636f6e747261637420697320616c72656160008201527f647920696e697469616c697a6564000000000000000000000000000000000000602082015250565b7f4f776e61626c653a2063616c6c6572206973206e6f7420746865206f776e6572600082015250565b7f496e697469616c697a61626c653a20636f6e7472616374206973206e6f74206960008201527f6e697469616c697a696e67000000000000000000000000000000000000000000602082015250565b7f696e76616c69642076616c696461746f72207369676e61747572650000000000600082015250565b612ccb81612975565b8114612cd657600080fd5b50565b612ce281612987565b8114612ced57600080fd5b50565b612cf981612993565b8114612d0457600080fd5b50565b612d10816129df565b8114612d1b57600080fd5b5056fea2646970667358221220fae6cb0cc2ea608826e263f079f2c2da8159c4ff6aad3af306c97721e1319b7764736f6c63430008040033",
  "linkReferences": {},
  "deployedLinkReferences": {}
}