{
  "_format": "hh-sol-artifact-1",
  "contractName": "OraisanGate",
  "sourceName": "contracts/ethBridge/OraisanGate.sol",
  "abi": [
    {
      "anonymous": false,
      "inputs": [
        {
          "indexed": false,
          "internalType": "uint256",
          "name": "blockHeight",
          "type": "uint256"
        },
        {
          "indexed": false,
          "internalType": "uint160",
          "name": "blockHash",
          "type": "uint160"
        },
        {
          "indexed": false,
          "internalType": "address",
          "name": "updater",
          "type": "address"
        }
      ],
      "name": "BlockHeaderUpdated",
      "type": "event"
    },
    {
      "anonymous": false,
      "inputs": [
        {
          "indexed": false,
          "internalType": "uint8",
          "name": "version",
          "type": "uint8"
        }
      ],
      "name": "Initialized",
      "type": "event"
    },
    {
      "anonymous": false,
      "inputs": [
        {
          "indexed": true,
          "internalType": "address",
          "name": "previousOwner",
          "type": "address"
        },
        {
          "indexed": true,
          "internalType": "address",
          "name": "newOwner",
          "type": "address"
        }
      ],
      "name": "OwnershipTransferred",
      "type": "event"
    },
    {
      "anonymous": false,
      "inputs": [
        {
          "indexed": false,
          "internalType": "address",
          "name": "account",
          "type": "address"
        }
      ],
      "name": "Paused",
      "type": "event"
    },
    {
      "anonymous": false,
      "inputs": [
        {
          "indexed": false,
          "internalType": "address",
          "name": "account",
          "type": "address"
        }
      ],
      "name": "Unpaused",
      "type": "event"
    },
    {
      "inputs": [
        {
          "internalType": "address",
          "name": "_libAddressManager",
          "type": "address"
        }
      ],
      "name": "initialize",
      "outputs": [],
      "stateMutability": "nonpayable",
      "type": "function"
    },
    {
      "inputs": [],
      "name": "libAddressManager",
      "outputs": [
        {
          "internalType": "contract Lib_AddressManager",
          "name": "",
          "type": "address"
        }
      ],
      "stateMutability": "view",
      "type": "function"
    },
    {
      "inputs": [],
      "name": "owner",
      "outputs": [
        {
          "internalType": "address",
          "name": "",
          "type": "address"
        }
      ],
      "stateMutability": "view",
      "type": "function"
    },
    {
      "inputs": [],
      "name": "pause",
      "outputs": [],
      "stateMutability": "nonpayable",
      "type": "function"
    },
    {
      "inputs": [],
      "name": "paused",
      "outputs": [
        {
          "internalType": "bool",
          "name": "",
          "type": "bool"
        }
      ],
      "stateMutability": "view",
      "type": "function"
    },
    {
      "inputs": [],
      "name": "renounceOwnership",
      "outputs": [],
      "stateMutability": "nonpayable",
      "type": "function"
    },
    {
      "inputs": [
        {
          "internalType": "string",
          "name": "_name",
          "type": "string"
        }
      ],
      "name": "resolve",
      "outputs": [
        {
          "internalType": "address",
          "name": "",
          "type": "address"
        }
      ],
      "stateMutability": "view",
      "type": "function"
    },
    {
      "inputs": [
        {
          "internalType": "address",
          "name": "newOwner",
          "type": "address"
        }
      ],
      "name": "transferOwnership",
      "outputs": [],
      "stateMutability": "nonpayable",
      "type": "function"
    },
    {
      "inputs": [],
      "name": "unpauseContract",
      "outputs": [],
      "stateMutability": "nonpayable",
      "type": "function"
    },
    {
      "inputs": [
        {
          "components": [
            {
              "internalType": "uint256",
              "name": "height",
              "type": "uint256"
            },
            {
              "internalType": "uint160",
              "name": "blockHash",
              "type": "uint160"
            },
            {
              "internalType": "uint256",
              "name": "blockTime",
              "type": "uint256"
            },
            {
              "internalType": "uint160",
              "name": "dataHash",
              "type": "uint160"
            },
            {
              "internalType": "uint160",
              "name": "validatorHash",
              "type": "uint160"
            }
          ],
          "internalType": "struct ICosmosBlockHeader.Header",
          "name": "_newBlockHeader",
          "type": "tuple"
        },
        {
          "components": [
            {
              "internalType": "string",
              "name": "optionName",
              "type": "string"
            },
            {
              "internalType": "uint256[2]",
              "name": "pi_a",
              "type": "uint256[2]"
            },
            {
              "internalType": "uint256[2][2]",
              "name": "pi_b",
              "type": "uint256[2][2]"
            },
            {
              "internalType": "uint256[2]",
              "name": "pi_c",
              "type": "uint256[2]"
            },
            {
              "internalType": "uint256",
              "name": "totalVPsigned",
              "type": "uint256"
            },
            {
              "internalType": "uint256",
              "name": "totalVP",
              "type": "uint256"
            },
            {
              "internalType": "address[]",
              "name": "validatorAddress",
              "type": "address[]"
            },
            {
              "internalType": "uint256",
              "name": "signed",
              "type": "uint256"
            }
          ],
          "internalType": "struct IVerifier.ValidatorHashLeftProof",
          "name": "_validatorHashLeftProof",
          "type": "tuple"
        },
        {
          "components": [
            {
              "internalType": "string",
              "name": "optionName",
              "type": "string"
            },
            {
              "internalType": "uint256[2]",
              "name": "pi_a",
              "type": "uint256[2]"
            },
            {
              "internalType": "uint256[2][2]",
              "name": "pi_b",
              "type": "uint256[2][2]"
            },
            {
              "internalType": "uint256[2]",
              "name": "pi_c",
              "type": "uint256[2]"
            },
            {
              "internalType": "uint256",
              "name": "totalVPsigned",
              "type": "uint256"
            },
            {
              "internalType": "uint256",
              "name": "totalVP",
              "type": "uint256"
            },
            {
              "internalType": "address[]",
              "name": "validatorAddress",
              "type": "address[]"
            },
            {
              "internalType": "uint256",
              "name": "signed",
              "type": "uint256"
            }
          ],
          "internalType": "struct IVerifier.ValidatorHashRightProof",
          "name": "_validatorHashRightProof",
          "type": "tuple"
        },
        {
          "components": [
            {
              "internalType": "string",
              "name": "optionName",
              "type": "string"
            },
            {
              "internalType": "uint256[2]",
              "name": "pi_a",
              "type": "uint256[2]"
            },
            {
              "internalType": "uint256[2][2]",
              "name": "pi_b",
              "type": "uint256[2][2]"
            },
            {
              "internalType": "uint256[2]",
              "name": "pi_c",
              "type": "uint256[2]"
            },
            {
              "internalType": "uint256",
              "name": "index",
              "type": "uint256"
            }
          ],
          "internalType": "struct IVerifier.SignatureValidatorProof[]",
          "name": "_signatureValidatorProof",
          "type": "tuple[]"
        }
      ],
      "name": "updateblockHeader",
      "outputs": [],
      "stateMutability": "nonpayable",
      "type": "function"
    }
  ],
  "bytecode": "0x608060405234801561001057600080fd5b506123df806100206000396000f3fe608060405234801561001057600080fd5b506004361061009e5760003560e01c80638456cb59116100665780638456cb59146101355780638da5cb5b1461013f578063b33712c51461015d578063c4d66de814610167578063f2fde38b146101835761009e565b8063299ca478146100a3578063461a4478146100c157806346d746f7146100f15780635c975abb1461010d578063715018a61461012b575b600080fd5b6100ab61019f565b6040516100b89190611bf9565b60405180910390f35b6100db60048036038101906100d69190611434565b6101c5565b6040516100e89190611bc3565b60405180910390f35b61010b60048036038101906101069190611475565b610278565b005b6101156105f4565b6040516101229190611bde565b60405180910390f35b61013361060b565b005b61013d61061f565b005b610147610631565b6040516101549190611bc3565b60405180910390f35b61016561065b565b005b610181600480360381019061017c91906113b9565b61066d565b005b61019d600480360381019061019891906113b9565b61081a565b005b600060029054906101000a900473ffffffffffffffffffffffffffffffffffffffff1681565b60008060029054906101000a900473ffffffffffffffffffffffffffffffffffffffff1673ffffffffffffffffffffffffffffffffffffffff1663bf40fac1836040518263ffffffff1660e01b81526004016102219190611c2f565b60206040518083038186803b15801561023957600080fd5b505afa15801561024d573d6000803e3d6000fd5b505050506040513d601f19601f8201168201806040525081019061027191906113e2565b9050919050565b61028061089e565b6102be6040518060400160405280601181526020017f434f534d4f535f56414c494441544f52530000000000000000000000000000008152506101c5565b73ffffffffffffffffffffffffffffffffffffffff1663fbc4f881858585856040518563ffffffff1660e01b81526004016102fc9493929190611d51565b602060405180830381600087803b15801561031657600080fd5b505af115801561032a573d6000803e3d6000fd5b505050506040513d601f19601f8201168201806040525081019061034e919061140b565b61038d576040517f08c379a000000000000000000000000000000000000000000000000000000000815260040161038490611d31565b60405180910390fd5b6000846000015190506103d46040518060400160405280601181526020017f434f534d4f535f56414c494441544f52530000000000000000000000000000008152506101c5565b73ffffffffffffffffffffffffffffffffffffffff1663b9c9579f828660c001518660c001516040518463ffffffff1660e01b815260040161041893929190611dac565b600060405180830381600087803b15801561043257600080fd5b505af1158015610446573d6000803e3d6000fd5b505050506104886040518060400160405280601381526020017f434f534d4f535f424c4f434b5f484541444552000000000000000000000000008152506101c5565b73ffffffffffffffffffffffffffffffffffffffff16639298f1608287602001516040518363ffffffff1660e01b81526004016104c6929190611df1565b600060405180830381600087803b1580156104e057600080fd5b505af11580156104f4573d6000803e3d6000fd5b505050506105366040518060400160405280601381526020017f434f534d4f535f424c4f434b5f484541444552000000000000000000000000008152506101c5565b73ffffffffffffffffffffffffffffffffffffffff1663547546a1866000015187606001516040518363ffffffff1660e01b8152600401610578929190611df1565b600060405180830381600087803b15801561059257600080fd5b505af11580156105a6573d6000803e3d6000fd5b505050507f0bf1cb8e899d53a279aeb61883d94793562c844f0a6f34989eee97aee90c407a85600001518660200151336040516105e593929190611e1a565b60405180910390a15050505050565b6000606560009054906101000a900460ff16905090565b6106136108e8565b61061d6000610966565b565b6106276108e8565b61062f610a2c565b565b6000603360009054906101000a900473ffffffffffffffffffffffffffffffffffffffff16905090565b6106636108e8565b61066b610a8f565b565b60008060019054906101000a900460ff1615905080801561069e5750600160008054906101000a900460ff1660ff16105b806106cb57506106ad30610af2565b1580156106ca5750600160008054906101000a900460ff1660ff16145b5b61070a576040517f08c379a000000000000000000000000000000000000000000000000000000000815260040161070190611cd1565b60405180910390fd5b60016000806101000a81548160ff021916908360ff1602179055508015610747576001600060016101000a81548160ff0219169083151502179055505b600060c9541461078c576040517f08c379a000000000000000000000000000000000000000000000000000000000815260040161078390611c51565b60405180910390fd5b600160c98190555061079d82610b15565b6107a5610ba8565b6107ad610bf9565b6107b5610c5a565b6107bd610cc6565b80156108165760008060016101000a81548160ff0219169083151502179055507f7f26b83ff96e1f2b6a682f133852f6798a09c465da95921460cefb3847402498600160405161080d9190611c14565b60405180910390a15b5050565b6108226108e8565b600073ffffffffffffffffffffffffffffffffffffffff168173ffffffffffffffffffffffffffffffffffffffff161415610892576040517f08c379a000000000000000000000000000000000000000000000000000000000815260040161088990611c91565b60405180910390fd5b61089b81610966565b50565b6108a66105f4565b156108e6576040517f08c379a00000000000000000000000000000000000000000000000000000000081526004016108dd90611cb1565b60405180910390fd5b565b6108f0610d1f565b73ffffffffffffffffffffffffffffffffffffffff1661090e610631565b73ffffffffffffffffffffffffffffffffffffffff1614610964576040517f08c379a000000000000000000000000000000000000000000000000000000000815260040161095b90611cf1565b60405180910390fd5b565b6000603360009054906101000a900473ffffffffffffffffffffffffffffffffffffffff16905081603360006101000a81548173ffffffffffffffffffffffffffffffffffffffff021916908373ffffffffffffffffffffffffffffffffffffffff1602179055508173ffffffffffffffffffffffffffffffffffffffff168173ffffffffffffffffffffffffffffffffffffffff167f8be0079c531659141344cd1fd0a4f28419497f9722a3daafe3b4186f6b6457e060405160405180910390a35050565b610a3461089e565b6001606560006101000a81548160ff0219169083151502179055507f62e78cea01bee320cd4e420270b5ea74000d11b0c9f74754ebdbfc544b05a258610a78610d1f565b604051610a859190611bc3565b60405180910390a1565b610a97610d27565b6000606560006101000a81548160ff0219169083151502179055507f5db9ee0a495bf2e6ff9c91a7834c1ba4fdd244a5e8aa4e537bd38aeae4b073aa610adb610d1f565b604051610ae89190611bc3565b60405180910390a1565b6000808273ffffffffffffffffffffffffffffffffffffffff163b119050919050565b600060019054906101000a900460ff16610b64576040517f08c379a0000000000000000000000000000000000000000000000000000000008152600401610b5b90611d11565b60405180910390fd5b80600060026101000a81548173ffffffffffffffffffffffffffffffffffffffff021916908373ffffffffffffffffffffffffffffffffffffffff16021790555050565b600060019054906101000a900460ff16610bf7576040517f08c379a0000000000000000000000000000000000000000000000000000000008152600401610bee90611d11565b60405180910390fd5b565b600060019054906101000a900460ff16610c48576040517f08c379a0000000000000000000000000000000000000000000000000000000008152600401610c3f90611d11565b60405180910390fd5b610c58610c53610d1f565b610966565b565b600060019054906101000a900460ff16610ca9576040517f08c379a0000000000000000000000000000000000000000000000000000000008152600401610ca090611d11565b60405180910390fd5b6000606560006101000a81548160ff021916908315150217905550565b600060019054906101000a900460ff16610d15576040517f08c379a0000000000000000000000000000000000000000000000000000000008152600401610d0c90611d11565b60405180910390fd5b6001609781905550565b600033905090565b610d2f6105f4565b610d6e576040517f08c379a0000000000000000000000000000000000000000000000000000000008152600401610d6590611c71565b60405180910390fd5b565b6000610d83610d7e84611e76565b611e51565b90508083825260208201905082856020860282011115610da257600080fd5b60005b85811015610dd25781610db88882610f66565b845260208401935060208301925050600181019050610da5565b5050509392505050565b6000610def610dea84611ea2565b611e51565b90508082856040860282011115610e0557600080fd5b60005b85811015610e355781610e1b888261100b565b845260208401935060408301925050600181019050610e08565b5050509392505050565b6000610e52610e4d84611ec8565b611e51565b90508083825260208201905082856020860282011115610e7157600080fd5b60005b85811015610ebb57813567ffffffffffffffff811115610e9357600080fd5b808601610ea089826110f9565b85526020850194506020840193505050600181019050610e74565b5050509392505050565b6000610ed8610ed384611ef4565b611e51565b90508082856020860282011115610eee57600080fd5b60005b85811015610f1e5781610f0488826113a4565b845260208401935060208301925050600181019050610ef1565b5050509392505050565b6000610f3b610f3684611f1a565b611e51565b905082815260208101848484011115610f5357600080fd5b610f5e8482856120e0565b509392505050565b600081359050610f758161234d565b92915050565b600081519050610f8a8161234d565b92915050565b600082601f830112610fa157600080fd5b8135610fb1848260208601610d70565b91505092915050565b600082601f830112610fcb57600080fd5b6002610fd8848285610ddc565b91505092915050565b600082601f830112610ff257600080fd5b8135611002848260208601610e3f565b91505092915050565b600082601f83011261101c57600080fd5b6002611029848285610ec5565b91505092915050565b60008151905061104181612364565b92915050565b600082601f83011261105857600080fd5b8135611068848260208601610f28565b91505092915050565b600060a0828403121561108357600080fd5b61108d60a0611e51565b9050600061109d848285016113a4565b60008301525060206110b18482850161138f565b60208301525060406110c5848285016113a4565b60408301525060606110d98482850161138f565b60608301525060806110ed8482850161138f565b60808301525092915050565b6000610140828403121561110c57600080fd5b61111660a0611e51565b9050600082013567ffffffffffffffff81111561113257600080fd5b61113e84828501611047565b60008301525060206111528482850161100b565b602083015250606061116684828501610fba565b60408301525060e061117a8482850161100b565b60608301525061012061118f848285016113a4565b60808301525092915050565b60006101a082840312156111ae57600080fd5b6111b9610100611e51565b9050600082013567ffffffffffffffff8111156111d557600080fd5b6111e184828501611047565b60008301525060206111f58482850161100b565b602083015250606061120984828501610fba565b60408301525060e061121d8482850161100b565b606083015250610120611232848285016113a4565b608083015250610140611247848285016113a4565b60a08301525061016082013567ffffffffffffffff81111561126857600080fd5b61127484828501610f90565b60c083015250610180611289848285016113a4565b60e08301525092915050565b60006101a082840312156112a857600080fd5b6112b3610100611e51565b9050600082013567ffffffffffffffff8111156112cf57600080fd5b6112db84828501611047565b60008301525060206112ef8482850161100b565b602083015250606061130384828501610fba565b60408301525060e06113178482850161100b565b60608301525061012061132c848285016113a4565b608083015250610140611341848285016113a4565b60a08301525061016082013567ffffffffffffffff81111561136257600080fd5b61136e84828501610f90565b60c083015250610180611383848285016113a4565b60e08301525092915050565b60008135905061139e8161237b565b92915050565b6000813590506113b381612392565b92915050565b6000602082840312156113cb57600080fd5b60006113d984828501610f66565b91505092915050565b6000602082840312156113f457600080fd5b600061140284828501610f7b565b91505092915050565b60006020828403121561141d57600080fd5b600061142b84828501611032565b91505092915050565b60006020828403121561144657600080fd5b600082013567ffffffffffffffff81111561146057600080fd5b61146c84828501611047565b91505092915050565b600080600080610100858703121561148c57600080fd5b600061149a87828801611071565b94505060a085013567ffffffffffffffff8111156114b757600080fd5b6114c38782880161119b565b93505060c085013567ffffffffffffffff8111156114e057600080fd5b6114ec87828801611295565b92505060e085013567ffffffffffffffff81111561150957600080fd5b61151587828801610fe1565b91505092959194509250565b600061152d838361157d565b60208301905092915050565b60006115458383611723565b60408301905092915050565b600061155d8383611999565b905092915050565b60006115718383611ba5565b60208301905092915050565b61158681612055565b82525050565b61159581612055565b82525050565b60006115a682611f7f565b6115b08185611fea565b93506115bb83611f4b565b8060005b838110156115ec5781516115d38882611521565b97506115de83611fb6565b9250506001810190506115bf565b5085935050505092915050565b600061160482611f7f565b61160e8185611ffb565b935061161983611f4b565b8060005b8381101561164a5781516116318882611521565b975061163c83611fb6565b92505060018101905061161d565b5085935050505092915050565b61166081611f8a565b61166a818461200c565b925061167582611f5b565b8060005b838110156116a657815161168d8782611539565b965061169883611fc3565b925050600181019050611679565b505050505050565b60006116b982611f95565b6116c38185612017565b9350836020820285016116d585611f65565b8060005b8581101561171157848403895281516116f28582611551565b94506116fd83611fd0565b925060208a019950506001810190506116d9565b50829750879550505050505092915050565b61172c81611fa0565b6117368184612028565b925061174182611f75565b8060005b838110156117725781516117598782611565565b965061176483611fdd565b925050600181019050611745565b505050505050565b61178381612067565b82525050565b611792816120aa565b82525050565b6117a1816120ce565b82525050565b60006117b282611fab565b6117bc8185612033565b93506117cc8185602086016120ef565b6117d581612182565b840191505092915050565b60006117eb82611fab565b6117f58185612044565b93506118058185602086016120ef565b61180e81612182565b840191505092915050565b6000611826601783612044565b915061183182612193565b602082019050919050565b6000611849601483612044565b9150611854826121bc565b602082019050919050565b600061186c602683612044565b9150611877826121e5565b604082019050919050565b600061188f601083612044565b915061189a82612234565b602082019050919050565b60006118b2602e83612044565b91506118bd8261225d565b604082019050919050565b60006118d5602083612044565b91506118e0826122ac565b602082019050919050565b60006118f8602b83612044565b9150611903826122d5565b604082019050919050565b600061191b601b83612044565b915061192682612324565b602082019050919050565b60a0820160008201516119476000850182611ba5565b50602082015161195a6020850182611b87565b50604082015161196d6040850182611ba5565b5060608201516119806060850182611b87565b5060808201516119936080850182611b87565b50505050565b60006101408301600083015184820360008601526119b782826117a7565b91505060208301516119cc6020860182611723565b5060408301516119df6060860182611657565b5060608301516119f260e0860182611723565b506080830151611a06610120860182611ba5565b508091505092915050565b60006101a0830160008301518482036000860152611a2f82826117a7565b9150506020830151611a446020860182611723565b506040830151611a576060860182611657565b506060830151611a6a60e0860182611723565b506080830151611a7e610120860182611ba5565b5060a0830151611a92610140860182611ba5565b5060c0830151848203610160860152611aab828261159b565b91505060e0830151611ac1610180860182611ba5565b508091505092915050565b60006101a0830160008301518482036000860152611aea82826117a7565b9150506020830151611aff6020860182611723565b506040830151611b126060860182611657565b506060830151611b2560e0860182611723565b506080830151611b39610120860182611ba5565b5060a0830151611b4d610140860182611ba5565b5060c0830151848203610160860152611b66828261159b565b91505060e0830151611b7c610180860182611ba5565b508091505092915050565b611b9081612073565b82525050565b611b9f81612073565b82525050565b611bae81612093565b82525050565b611bbd81612093565b82525050565b6000602082019050611bd8600083018461158c565b92915050565b6000602082019050611bf3600083018461177a565b92915050565b6000602082019050611c0e6000830184611789565b92915050565b6000602082019050611c296000830184611798565b92915050565b60006020820190508181036000830152611c4981846117e0565b905092915050565b60006020820190508181036000830152611c6a81611819565b9050919050565b60006020820190508181036000830152611c8a8161183c565b9050919050565b60006020820190508181036000830152611caa8161185f565b9050919050565b60006020820190508181036000830152611cca81611882565b9050919050565b60006020820190508181036000830152611cea816118a5565b9050919050565b60006020820190508181036000830152611d0a816118c8565b9050919050565b60006020820190508181036000830152611d2a816118eb565b9050919050565b60006020820190508181036000830152611d4a8161190e565b9050919050565b600061010082019050611d676000830187611931565b81810360a0830152611d798186611a11565b905081810360c0830152611d8d8185611acc565b905081810360e0830152611da181846116ae565b905095945050505050565b6000606082019050611dc16000830186611bb4565b8181036020830152611dd381856115f9565b90508181036040830152611de781846115f9565b9050949350505050565b6000604082019050611e066000830185611bb4565b611e136020830184611b96565b9392505050565b6000606082019050611e2f6000830186611bb4565b611e3c6020830185611b96565b611e49604083018461158c565b949350505050565b6000611e5b611e6c565b9050611e678282612122565b919050565b6000604051905090565b600067ffffffffffffffff821115611e9157611e90612153565b5b602082029050602081019050919050565b600067ffffffffffffffff821115611ebd57611ebc612153565b5b602082029050919050565b600067ffffffffffffffff821115611ee357611ee2612153565b5b602082029050602081019050919050565b600067ffffffffffffffff821115611f0f57611f0e612153565b5b602082029050919050565b600067ffffffffffffffff821115611f3557611f34612153565b5b611f3e82612182565b9050602081019050919050565b6000819050602082019050919050565b6000819050919050565b6000819050602082019050919050565b6000819050919050565b600081519050919050565b600060029050919050565b600081519050919050565b600060029050919050565b600081519050919050565b6000602082019050919050565b6000602082019050919050565b6000602082019050919050565b6000602082019050919050565b600082825260208201905092915050565b600082825260208201905092915050565b600081905092915050565b600082825260208201905092915050565b600081905092915050565b600082825260208201905092915050565b600082825260208201905092915050565b600061206082612073565b9050919050565b60008115159050919050565b600073ffffffffffffffffffffffffffffffffffffffff82169050919050565b6000819050919050565b600060ff82169050919050565b60006120b5826120bc565b9050919050565b60006120c782612073565b9050919050565b60006120d98261209d565b9050919050565b82818337600083830152505050565b60005b8381101561210d5780820151818401526020810190506120f2565b8381111561211c576000848401525b50505050565b61212b82612182565b810181811067ffffffffffffffff8211171561214a57612149612153565b5b80604052505050565b7f4e487b7100000000000000000000000000000000000000000000000000000000600052604160045260246000fd5b6000601f19601f8301169050919050565b7f4f72616973616e47617465206973206465706c6f796564000000000000000000600082015250565b7f5061757361626c653a206e6f7420706175736564000000000000000000000000600082015250565b7f4f776e61626c653a206e6577206f776e657220697320746865207a65726f206160008201527f6464726573730000000000000000000000000000000000000000000000000000602082015250565b7f5061757361626c653a2070617573656400000000000000000000000000000000600082015250565b7f496e697469616c697a61626c653a20636f6e747261637420697320616c72656160008201527f647920696e697469616c697a6564000000000000000000000000000000000000602082015250565b7f4f776e61626c653a2063616c6c6572206973206e6f7420746865206f776e6572600082015250565b7f496e697469616c697a61626c653a20636f6e7472616374206973206e6f74206960008201527f6e697469616c697a696e67000000000000000000000000000000000000000000602082015250565b7f696e76616c69642076616c696461746f72207369676e61747572650000000000600082015250565b61235681612055565b811461236157600080fd5b50565b61236d81612067565b811461237857600080fd5b50565b61238481612073565b811461238f57600080fd5b50565b61239b81612093565b81146123a657600080fd5b5056fea2646970667358221220c5c3f1233cc2c23048ab312205a20d9641eb52051a88ed9a00baef28157d860064736f6c63430008040033",
  "linkReferences": {},
  "deployedLinkReferences": {}
}