{
	"contracts/ethBridge/OraisanBridge.sol": {
		"OraisanBridge": {
			"abi": [
				{
					"anonymous": false,
					"inputs": [
						{
							"indexed": true,
							"internalType": "uint256[]",
							"name": "inputs",
							"type": "uint256[]"
						},
						{
							"indexed": false,
							"internalType": "uint256",
							"name": "timestamp",
							"type": "uint256"
						}
					],
					"name": "ClaimTransactionCompleted",
					"type": "event"
				},
				{
					"anonymous": false,
					"inputs": [
						{
							"indexed": false,
							"internalType": "uint8",
							"name": "version",
							"type": "uint8"
						}
					],
					"name": "Initialized",
					"type": "event"
				},
				{
					"anonymous": false,
					"inputs": [
						{
							"indexed": true,
							"internalType": "address",
							"name": "previousOwner",
							"type": "address"
						},
						{
							"indexed": true,
							"internalType": "address",
							"name": "newOwner",
							"type": "address"
						}
					],
					"name": "OwnershipTransferred",
					"type": "event"
				},
				{
					"anonymous": false,
					"inputs": [
						{
							"indexed": false,
							"internalType": "address",
							"name": "account",
							"type": "address"
						}
					],
					"name": "Paused",
					"type": "event"
				},
				{
					"anonymous": false,
					"inputs": [
						{
							"indexed": false,
							"internalType": "address",
							"name": "account",
							"type": "address"
						}
					],
					"name": "Unpaused",
					"type": "event"
				},
				{
					"anonymous": false,
					"inputs": [
						{
							"indexed": true,
							"internalType": "uint256[]",
							"name": "inputs",
							"type": "uint256[]"
						},
						{
							"indexed": false,
							"internalType": "uint256",
							"name": "timestamp",
							"type": "uint256"
						}
					],
					"name": "UpdateDepositRootCompleted",
					"type": "event"
				},
				{
					"inputs": [],
					"name": "ROOT_HISTORY_SIZE",
					"outputs": [
						{
							"internalType": "uint256",
							"name": "",
							"type": "uint256"
						}
					],
					"stateMutability": "view",
					"type": "function"
				},
				{
					"inputs": [
						{
							"components": [
								{
									"internalType": "string",
									"name": "optionName",
									"type": "string"
								},
								{
									"internalType": "uint256[2]",
									"name": "pi_a",
									"type": "uint256[2]"
								},
								{
									"internalType": "uint256[2][2]",
									"name": "pi_b",
									"type": "uint256[2][2]"
								},
								{
									"internalType": "uint256[2]",
									"name": "pi_c",
									"type": "uint256[2]"
								},
								{
									"internalType": "address",
									"name": "eth_bridge_address",
									"type": "address"
								},
								{
									"internalType": "address",
									"name": "eth_receiver",
									"type": "address"
								},
								{
									"internalType": "uint256",
									"name": "amount",
									"type": "uint256"
								},
								{
									"internalType": "uint160",
									"name": "cosmos_token_address",
									"type": "uint160"
								},
								{
									"internalType": "uint256",
									"name": "depositRoot",
									"type": "uint256"
								}
							],
							"internalType": "struct IVerifier.ClaimTransactionProof",
							"name": "_claimTransactionProof",
							"type": "tuple"
						}
					],
					"name": "claimTransaction",
					"outputs": [],
					"stateMutability": "nonpayable",
					"type": "function"
				},
				{
					"inputs": [
						{
							"internalType": "uint160",
							"name": "",
							"type": "uint160"
						}
					],
					"name": "cosmosToEthTokenAddress",
					"outputs": [
						{
							"internalType": "address",
							"name": "",
							"type": "address"
						}
					],
					"stateMutability": "view",
					"type": "function"
				},
				{
					"inputs": [],
					"name": "currentDepositRoot",
					"outputs": [
						{
							"internalType": "uint256",
							"name": "",
							"type": "uint256"
						}
					],
					"stateMutability": "view",
					"type": "function"
				},
				{
					"inputs": [
						{
							"internalType": "uint160",
							"name": "_cosmosTokenAddress",
							"type": "uint160"
						}
					],
					"name": "deleteTokenPair",
					"outputs": [],
					"stateMutability": "nonpayable",
					"type": "function"
				},
				{
					"inputs": [
						{
							"internalType": "uint256",
							"name": "",
							"type": "uint256"
						}
					],
					"name": "depositRoots",
					"outputs": [
						{
							"internalType": "uint256",
							"name": "",
							"type": "uint256"
						}
					],
					"stateMutability": "view",
					"type": "function"
				},
				{
					"inputs": [
						{
							"internalType": "address",
							"name": "",
							"type": "address"
						}
					],
					"name": "ethToCosmosTokenAddress",
					"outputs": [
						{
							"internalType": "uint160",
							"name": "",
							"type": "uint160"
						}
					],
					"stateMutability": "view",
					"type": "function"
				},
				{
					"inputs": [],
					"name": "getLastDepositRoot",
					"outputs": [
						{
							"internalType": "uint256",
							"name": "",
							"type": "uint256"
						}
					],
					"stateMutability": "view",
					"type": "function"
				},
				{
					"inputs": [
						{
							"internalType": "uint160",
							"name": "_cosmosBridge",
							"type": "uint160"
						}
					],
					"name": "getSupportCosmosBridge",
					"outputs": [
						{
							"internalType": "bool",
							"name": "",
							"type": "bool"
						}
					],
					"stateMutability": "view",
					"type": "function"
				},
				{
					"inputs": [
						{
							"internalType": "uint160",
							"name": "_cosmosToken",
							"type": "uint160"
						}
					],
					"name": "getTokenPairOfCosmosToken",
					"outputs": [
						{
							"internalType": "address",
							"name": "",
							"type": "address"
						}
					],
					"stateMutability": "view",
					"type": "function"
				},
				{
					"inputs": [
						{
							"internalType": "address",
							"name": "_ethToken",
							"type": "address"
						}
					],
					"name": "getTokenPairOfEthToken",
					"outputs": [
						{
							"internalType": "uint160",
							"name": "",
							"type": "uint160"
						}
					],
					"stateMutability": "view",
					"type": "function"
				},
				{
					"inputs": [
						{
							"internalType": "address",
							"name": "_libAddressManager",
							"type": "address"
						},
						{
							"internalType": "uint32",
							"name": "_merkleTreeHeight",
							"type": "uint32"
						}
					],
					"name": "initialize",
					"outputs": [],
					"stateMutability": "nonpayable",
					"type": "function"
				},
				{
					"inputs": [
						{
							"internalType": "uint256",
							"name": "",
							"type": "uint256"
						}
					],
					"name": "isClaimed",
					"outputs": [
						{
							"internalType": "bool",
							"name": "",
							"type": "bool"
						}
					],
					"stateMutability": "view",
					"type": "function"
				},
				{
					"inputs": [
						{
							"internalType": "uint256",
							"name": "_depositRoot",
							"type": "uint256"
						}
					],
					"name": "isKnownDepostRoot",
					"outputs": [
						{
							"internalType": "bool",
							"name": "",
							"type": "bool"
						}
					],
					"stateMutability": "view",
					"type": "function"
				},
				{
					"inputs": [
						{
							"internalType": "uint160",
							"name": "",
							"type": "uint160"
						}
					],
					"name": "isSupportCosmosBridge",
					"outputs": [
						{
							"internalType": "bool",
							"name": "",
							"type": "bool"
						}
					],
					"stateMutability": "view",
					"type": "function"
				},
				{
					"inputs": [],
					"name": "levels",
					"outputs": [
						{
							"internalType": "uint256",
							"name": "",
							"type": "uint256"
						}
					],
					"stateMutability": "view",
					"type": "function"
				},
				{
					"inputs": [],
					"name": "libAddressManager",
					"outputs": [
						{
							"internalType": "contract Lib_AddressManager",
							"name": "",
							"type": "address"
						}
					],
					"stateMutability": "view",
					"type": "function"
				},
				{
					"inputs": [],
					"name": "owner",
					"outputs": [
						{
							"internalType": "address",
							"name": "",
							"type": "address"
						}
					],
					"stateMutability": "view",
					"type": "function"
				},
				{
					"inputs": [],
					"name": "pause",
					"outputs": [],
					"stateMutability": "nonpayable",
					"type": "function"
				},
				{
					"inputs": [],
					"name": "paused",
					"outputs": [
						{
							"internalType": "bool",
							"name": "",
							"type": "bool"
						}
					],
					"stateMutability": "view",
					"type": "function"
				},
				{
					"inputs": [
						{
							"internalType": "uint160",
							"name": "_cosmosBridge",
							"type": "uint160"
						},
						{
							"internalType": "bool",
							"name": "_isSupport",
							"type": "bool"
						}
					],
					"name": "registerCosmosBridge",
					"outputs": [],
					"stateMutability": "nonpayable",
					"type": "function"
				},
				{
					"inputs": [
						{
							"internalType": "uint160",
							"name": "_cosmosTokenAddress",
							"type": "uint160"
						},
						{
							"internalType": "address",
							"name": "_ethTokenAddress",
							"type": "address"
						}
					],
					"name": "registerTokenPair",
					"outputs": [],
					"stateMutability": "nonpayable",
					"type": "function"
				},
				{
					"inputs": [],
					"name": "renounceOwnership",
					"outputs": [],
					"stateMutability": "nonpayable",
					"type": "function"
				},
				{
					"inputs": [
						{
							"internalType": "string",
							"name": "_name",
							"type": "string"
						}
					],
					"name": "resolve",
					"outputs": [
						{
							"internalType": "address",
							"name": "",
							"type": "address"
						}
					],
					"stateMutability": "view",
					"type": "function"
				},
				{
					"inputs": [
						{
							"internalType": "address",
							"name": "newOwner",
							"type": "address"
						}
					],
					"name": "transferOwnership",
					"outputs": [],
					"stateMutability": "nonpayable",
					"type": "function"
				},
				{
					"inputs": [],
					"name": "unpauseContract",
					"outputs": [],
					"stateMutability": "nonpayable",
					"type": "function"
				},
				{
					"inputs": [
						{
							"components": [
								{
									"internalType": "string",
									"name": "optionName",
									"type": "string"
								},
								{
									"internalType": "uint256[2]",
									"name": "pi_a",
									"type": "uint256[2]"
								},
								{
									"internalType": "uint256[2][2]",
									"name": "pi_b",
									"type": "uint256[2][2]"
								},
								{
									"internalType": "uint256[2]",
									"name": "pi_c",
									"type": "uint256[2]"
								},
								{
									"internalType": "uint160",
									"name": "cosmosSender",
									"type": "uint160"
								},
								{
									"internalType": "uint160",
									"name": "cosmosBridge",
									"type": "uint160"
								},
								{
									"internalType": "uint256",
									"name": "depositRoot",
									"type": "uint256"
								},
								{
									"internalType": "uint160",
									"name": "dataHash",
									"type": "uint160"
								}
							],
							"internalType": "struct IVerifier.DepositRootProof",
							"name": "_depositRootProof",
							"type": "tuple"
						}
					],
					"name": "updateRootDepositTree",
					"outputs": [
						{
							"internalType": "bool",
							"name": "",
							"type": "bool"
						}
					],
					"stateMutability": "nonpayable",
					"type": "function"
				}
			],
			"devdoc": {
				"events": {
					"Initialized(uint8)": {
						"details": "Triggered when the contract has been initialized or reinitialized."
					},
					"Paused(address)": {
						"details": "Emitted when the pause is triggered by `account`."
					},
					"Unpaused(address)": {
						"details": "Emitted when the pause is lifted by `account`."
					}
				},
				"kind": "dev",
				"methods": {
					"getLastDepositRoot()": {
						"details": "Returns the last root claim"
					},
					"isKnownDepostRoot(uint256)": {
						"details": "Whether the root is present in the root history"
					},
					"owner()": {
						"details": "Returns the address of the current owner."
					},
					"paused()": {
						"details": "Returns true if the contract is paused, and false otherwise."
					},
					"renounceOwnership()": {
						"details": "Leaves the contract without owner. It will not be possible to call `onlyOwner` functions anymore. Can only be called by the current owner. NOTE: Renouncing ownership will leave the contract without an owner, thereby removing any functionality that is only available to the owner."
					},
					"resolve(string)": {
						"details": "get address of contract by its Name"
					},
					"transferOwnership(address)": {
						"details": "Transfers ownership of the contract to a new account (`newOwner`). Can only be called by the current owner."
					}
				},
				"version": 1
			},
			"evm": {
				"assembly": "    /* \"contracts/ethBridge/OraisanBridge.sol\":670:8253  contract OraisanBridge is... */\n  mstore(0x40, 0x80)\n  callvalue\n  dup1\n  iszero\n  tag_1\n  jumpi\n  0x00\n  dup1\n  revert\ntag_1:\n  pop\n  dataSize(sub_0)\n  dup1\n  dataOffset(sub_0)\n  0x00\n  codecopy\n  0x00\n  return\nstop\n\nsub_0: assembly {\n        /* \"contracts/ethBridge/OraisanBridge.sol\":670:8253  contract OraisanBridge is... */\n      mstore(0x40, 0x80)\n      callvalue\n      dup1\n      iszero\n      tag_1\n      jumpi\n      0x00\n      dup1\n      revert\n    tag_1:\n      pop\n      jumpi(tag_2, lt(calldatasize, 0x04))\n      shr(0xe0, calldataload(0x00))\n      dup1\n      0x8da5cb5b\n      gt\n      tag_30\n      jumpi\n      dup1\n      0xb33712c5\n      gt\n      tag_31\n      jumpi\n      dup1\n      0xcd87a3b4\n      gt\n      tag_32\n      jumpi\n      dup1\n      0xcd87a3b4\n      eq\n      tag_26\n      jumpi\n      dup1\n      0xdcc4dcd2\n      eq\n      tag_27\n      jumpi\n      dup1\n      0xe80b885b\n      eq\n      tag_28\n      jumpi\n      dup1\n      0xf2fde38b\n      eq\n      tag_29\n      jumpi\n      jump(tag_2)\n    tag_32:\n      dup1\n      0xb33712c5\n      eq\n      tag_23\n      jumpi\n      dup1\n      0xbf60f954\n      eq\n      tag_24\n      jumpi\n      dup1\n      0xc5e4c9f9\n      eq\n      tag_25\n      jumpi\n      jump(tag_2)\n    tag_31:\n      dup1\n      0x9df22cd5\n      gt\n      tag_33\n      jumpi\n      dup1\n      0x9df22cd5\n      eq\n      tag_19\n      jumpi\n      dup1\n      0x9e34070f\n      eq\n      tag_20\n      jumpi\n      dup1\n      0x9ef46d0f\n      eq\n      tag_21\n      jumpi\n      dup1\n      0xaf00aa92\n      eq\n      tag_22\n      jumpi\n      jump(tag_2)\n    tag_33:\n      dup1\n      0x8da5cb5b\n      eq\n      tag_16\n      jumpi\n      dup1\n      0x8e3327fa\n      eq\n      tag_17\n      jumpi\n      dup1\n      0x9139153f\n      eq\n      tag_18\n      jumpi\n      jump(tag_2)\n    tag_30:\n      dup1\n      0x461a4478\n      gt\n      tag_34\n      jumpi\n      dup1\n      0x5c975abb\n      gt\n      tag_35\n      jumpi\n      dup1\n      0x5c975abb\n      eq\n      tag_12\n      jumpi\n      dup1\n      0x715018a6\n      eq\n      tag_13\n      jumpi\n      dup1\n      0x7ae1293f\n      eq\n      tag_14\n      jumpi\n      dup1\n      0x8456cb59\n      eq\n      tag_15\n      jumpi\n      jump(tag_2)\n    tag_35:\n      dup1\n      0x461a4478\n      eq\n      tag_9\n      jumpi\n      dup1\n      0x4ecf518b\n      eq\n      tag_10\n      jumpi\n      dup1\n      0x517b0dc1\n      eq\n      tag_11\n      jumpi\n      jump(tag_2)\n    tag_34:\n      dup1\n      0x04ac7468\n      eq\n      tag_3\n      jumpi\n      dup1\n      0x1c00464e\n      eq\n      tag_4\n      jumpi\n      dup1\n      0x299ca478\n      eq\n      tag_5\n      jumpi\n      dup1\n      0x2cd4300c\n      eq\n      tag_6\n      jumpi\n      dup1\n      0x3c975edb\n      eq\n      tag_7\n      jumpi\n      dup1\n      0x41cfc054\n      eq\n      tag_8\n      jumpi\n    tag_2:\n      0x00\n      dup1\n      revert\n        /* \"contracts/ethBridge/OraisanBridge.sol\":3690:3963  function deleteTokenPair(uint160 _cosmosTokenAddress) external onlyOwner {... */\n    tag_3:\n      tag_36\n      0x04\n      dup1\n      calldatasize\n      sub\n      dup2\n      add\n      swap1\n      tag_37\n      swap2\n      swap1\n      tag_38\n      jump\t// in\n    tag_37:\n      tag_39\n      jump\t// in\n    tag_36:\n      stop\n        /* \"contracts/ethBridge/OraisanBridge.sol\":3179:3682  function registerTokenPair(... */\n    tag_4:\n      tag_40\n      0x04\n      dup1\n      calldatasize\n      sub\n      dup2\n      add\n      swap1\n      tag_41\n      swap2\n      swap1\n      tag_42\n      jump\t// in\n    tag_41:\n      tag_43\n      jump\t// in\n    tag_40:\n      stop\n        /* \"contracts/libs/Lib_AddressResolver.sol\":394:437  Lib_AddressManager public libAddressManager */\n    tag_5:\n      tag_44\n      tag_45\n      jump\t// in\n    tag_44:\n      mload(0x40)\n      tag_46\n      swap2\n      swap1\n      tag_47\n      jump\t// in\n    tag_46:\n      mload(0x40)\n      dup1\n      swap2\n      sub\n      swap1\n      return\n        /* \"contracts/ethBridge/MerkleTreeWithHistory.sol\":2561:2677  function getLastDepositRoot() public view returns (uint256) {... */\n    tag_6:\n      tag_48\n      tag_49\n      jump\t// in\n    tag_48:\n      mload(0x40)\n      tag_50\n      swap2\n      swap1\n      tag_51\n      jump\t// in\n    tag_50:\n      mload(0x40)\n      dup1\n      swap2\n      sub\n      swap1\n      return\n        /* \"contracts/ethBridge/OraisanBridge.sol\":2836:3171  function registerCosmosBridge(... */\n    tag_7:\n      tag_52\n      0x04\n      dup1\n      calldatasize\n      sub\n      dup2\n      add\n      swap1\n      tag_53\n      swap2\n      swap1\n      tag_54\n      jump\t// in\n    tag_53:\n      tag_55\n      jump\t// in\n    tag_52:\n      stop\n        /* \"contracts/ethBridge/OraisanBridge.sol\":1699:1757  mapping(address => uint160) public ethToCosmosTokenAddress */\n    tag_8:\n      tag_56\n      0x04\n      dup1\n      calldatasize\n      sub\n      dup2\n      add\n      swap1\n      tag_57\n      swap2\n      swap1\n      tag_58\n      jump\t// in\n    tag_57:\n      tag_59\n      jump\t// in\n    tag_56:\n      mload(0x40)\n      tag_60\n      swap2\n      swap1\n      tag_61\n      jump\t// in\n    tag_60:\n      mload(0x40)\n      dup1\n      swap2\n      sub\n      swap1\n      return\n        /* \"contracts/libs/Lib_AddressResolver.sol\":711:840  function resolve(string memory _name) public view returns (address) {... */\n    tag_9:\n      tag_62\n      0x04\n      dup1\n      calldatasize\n      sub\n      dup2\n      add\n      swap1\n      tag_63\n      swap2\n      swap1\n      tag_64\n      jump\t// in\n    tag_63:\n      tag_65\n      jump\t// in\n    tag_62:\n      mload(0x40)\n      tag_66\n      swap2\n      swap1\n      tag_67\n      jump\t// in\n    tag_66:\n      mload(0x40)\n      dup1\n      swap2\n      sub\n      swap1\n      return\n        /* \"contracts/ethBridge/MerkleTreeWithHistory.sol\":231:252  uint256 public levels */\n    tag_10:\n      tag_68\n      tag_69\n      jump\t// in\n    tag_68:\n      mload(0x40)\n      tag_70\n      swap2\n      swap1\n      tag_51\n      jump\t// in\n    tag_70:\n      mload(0x40)\n      dup1\n      swap2\n      sub\n      swap1\n      return\n        /* \"contracts/ethBridge/OraisanBridge.sol\":5333:7057  function claimTransaction(... */\n    tag_11:\n      tag_71\n      0x04\n      dup1\n      calldatasize\n      sub\n      dup2\n      add\n      swap1\n      tag_72\n      swap2\n      swap1\n      tag_73\n      jump\t// in\n    tag_72:\n      tag_74\n      jump\t// in\n    tag_71:\n      stop\n        /* \"@openzeppelin/contracts-upgradeable/security/PausableUpgradeable.sol\":1858:1942  function paused() public view virtual returns (bool) {... */\n    tag_12:\n      tag_75\n      tag_76\n      jump\t// in\n    tag_75:\n      mload(0x40)\n      tag_77\n      swap2\n      swap1\n      tag_78\n      jump\t// in\n    tag_77:\n      mload(0x40)\n      dup1\n      swap2\n      sub\n      swap1\n      return\n        /* \"@openzeppelin/contracts-upgradeable/access/OwnableUpgradeable.sol\":2071:2172  function renounceOwnership() public virtual onlyOwner {... */\n    tag_13:\n      tag_79\n      tag_80\n      jump\t// in\n    tag_79:\n      stop\n        /* \"contracts/ethBridge/MerkleTreeWithHistory.sol\":1985:2505  function isKnownDepostRoot(uint256 _depositRoot) public view returns (bool) {... */\n    tag_14:\n      tag_81\n      0x04\n      dup1\n      calldatasize\n      sub\n      dup2\n      add\n      swap1\n      tag_82\n      swap2\n      swap1\n      tag_83\n      jump\t// in\n    tag_82:\n      tag_84\n      jump\t// in\n    tag_81:\n      mload(0x40)\n      tag_85\n      swap2\n      swap1\n      tag_78\n      jump\t// in\n    tag_85:\n      mload(0x40)\n      dup1\n      swap2\n      sub\n      swap1\n      return\n        /* \"contracts/ethBridge/OraisanBridge.sol\":2413:2476  function pause() external onlyOwner {... */\n    tag_15:\n      tag_86\n      tag_87\n      jump\t// in\n    tag_86:\n      stop\n        /* \"@openzeppelin/contracts-upgradeable/access/OwnableUpgradeable.sol\":1441:1526  function owner() public view virtual returns (address) {... */\n    tag_16:\n      tag_88\n      tag_89\n      jump\t// in\n    tag_88:\n      mload(0x40)\n      tag_90\n      swap2\n      swap1\n      tag_67\n      jump\t// in\n    tag_90:\n      mload(0x40)\n      dup1\n      swap2\n      sub\n      swap1\n      return\n        /* \"contracts/ethBridge/OraisanBridge.sol\":8107:8250  function getSupportCosmosBridge(uint160 _cosmosBridge) public view returns(bool) {... */\n    tag_17:\n      tag_91\n      0x04\n      dup1\n      calldatasize\n      sub\n      dup2\n      add\n      swap1\n      tag_92\n      swap2\n      swap1\n      tag_38\n      jump\t// in\n    tag_92:\n      tag_93\n      jump\t// in\n    tag_91:\n      mload(0x40)\n      tag_94\n      swap2\n      swap1\n      tag_78\n      jump\t// in\n    tag_94:\n      mload(0x40)\n      dup1\n      swap2\n      sub\n      swap1\n      return\n        /* \"contracts/ethBridge/OraisanBridge.sol\":7942:8099  function getTokenPairOfEthToken(... */\n    tag_18:\n      tag_95\n      0x04\n      dup1\n      calldatasize\n      sub\n      dup2\n      add\n      swap1\n      tag_96\n      swap2\n      swap1\n      tag_58\n      jump\t// in\n    tag_96:\n      tag_97\n      jump\t// in\n    tag_95:\n      mload(0x40)\n      tag_98\n      swap2\n      swap1\n      tag_61\n      jump\t// in\n    tag_98:\n      mload(0x40)\n      dup1\n      swap2\n      sub\n      swap1\n      return\n        /* \"contracts/ethBridge/MerkleTreeWithHistory.sol\":258:291  uint256 public currentDepositRoot */\n    tag_19:\n      tag_99\n      tag_100\n      jump\t// in\n    tag_99:\n      mload(0x40)\n      tag_101\n      swap2\n      swap1\n      tag_51\n      jump\t// in\n    tag_101:\n      mload(0x40)\n      dup1\n      swap2\n      sub\n      swap1\n      return\n        /* \"contracts/ethBridge/OraisanBridge.sol\":1764:1805  mapping(uint256 => bool) public isClaimed */\n    tag_20:\n      tag_102\n      0x04\n      dup1\n      calldatasize\n      sub\n      dup2\n      add\n      swap1\n      tag_103\n      swap2\n      swap1\n      tag_83\n      jump\t// in\n    tag_103:\n      tag_104\n      jump\t// in\n    tag_102:\n      mload(0x40)\n      tag_105\n      swap2\n      swap1\n      tag_78\n      jump\t// in\n    tag_105:\n      mload(0x40)\n      dup1\n      swap2\n      sub\n      swap1\n      return\n        /* \"contracts/ethBridge/MerkleTreeWithHistory.sol\":298:345  mapping(uint256 => uint256) public depositRoots */\n    tag_21:\n      tag_106\n      0x04\n      dup1\n      calldatasize\n      sub\n      dup2\n      add\n      swap1\n      tag_107\n      swap2\n      swap1\n      tag_83\n      jump\t// in\n    tag_107:\n      tag_108\n      jump\t// in\n    tag_106:\n      mload(0x40)\n      tag_109\n      swap2\n      swap1\n      tag_51\n      jump\t// in\n    tag_109:\n      mload(0x40)\n      dup1\n      swap2\n      sub\n      swap1\n      return\n        /* \"contracts/ethBridge/OraisanBridge.sol\":3971:5325  function updateRootDepositTree(... */\n    tag_22:\n      tag_110\n      0x04\n      dup1\n      calldatasize\n      sub\n      dup2\n      add\n      swap1\n      tag_111\n      swap2\n      swap1\n      tag_112\n      jump\t// in\n    tag_111:\n      tag_113\n      jump\t// in\n    tag_110:\n      mload(0x40)\n      tag_114\n      swap2\n      swap1\n      tag_78\n      jump\t// in\n    tag_114:\n      mload(0x40)\n      dup1\n      swap2\n      sub\n      swap1\n      return\n        /* \"contracts/ethBridge/OraisanBridge.sol\":2484:2559  function unpauseContract() external onlyOwner {... */\n    tag_23:\n      tag_115\n      tag_116\n      jump\t// in\n    tag_115:\n      stop\n        /* \"contracts/ethBridge/OraisanBridge.sol\":1634:1692  mapping(uint160 => address) public cosmosToEthTokenAddress */\n    tag_24:\n      tag_117\n      0x04\n      dup1\n      calldatasize\n      sub\n      dup2\n      add\n      swap1\n      tag_118\n      swap2\n      swap1\n      tag_38\n      jump\t// in\n    tag_118:\n      tag_119\n      jump\t// in\n    tag_117:\n      mload(0x40)\n      tag_120\n      swap2\n      swap1\n      tag_67\n      jump\t// in\n    tag_120:\n      mload(0x40)\n      dup1\n      swap2\n      sub\n      swap1\n      return\n        /* \"contracts/ethBridge/OraisanBridge.sol\":1818:2363  function initialize(... */\n    tag_25:\n      tag_121\n      0x04\n      dup1\n      calldatasize\n      sub\n      dup2\n      add\n      swap1\n      tag_122\n      swap2\n      swap1\n      tag_123\n      jump\t// in\n    tag_122:\n      tag_124\n      jump\t// in\n    tag_121:\n      stop\n        /* \"contracts/ethBridge/MerkleTreeWithHistory.sol\":192:224  uint256 public ROOT_HISTORY_SIZE */\n    tag_26:\n      tag_125\n      tag_126\n      jump\t// in\n    tag_125:\n      mload(0x40)\n      tag_127\n      swap2\n      swap1\n      tag_51\n      jump\t// in\n    tag_127:\n      mload(0x40)\n      dup1\n      swap2\n      sub\n      swap1\n      return\n        /* \"contracts/ethBridge/OraisanBridge.sol\":1574:1627  mapping(uint160 => bool) public isSupportCosmosBridge */\n    tag_27:\n      tag_128\n      0x04\n      dup1\n      calldatasize\n      sub\n      dup2\n      add\n      swap1\n      tag_129\n      swap2\n      swap1\n      tag_38\n      jump\t// in\n    tag_129:\n      tag_130\n      jump\t// in\n    tag_128:\n      mload(0x40)\n      tag_131\n      swap2\n      swap1\n      tag_78\n      jump\t// in\n    tag_131:\n      mload(0x40)\n      dup1\n      swap2\n      sub\n      swap1\n      return\n        /* \"contracts/ethBridge/OraisanBridge.sol\":7768:7934  function getTokenPairOfCosmosToken(... */\n    tag_28:\n      tag_132\n      0x04\n      dup1\n      calldatasize\n      sub\n      dup2\n      add\n      swap1\n      tag_133\n      swap2\n      swap1\n      tag_38\n      jump\t// in\n    tag_133:\n      tag_134\n      jump\t// in\n    tag_132:\n      mload(0x40)\n      tag_135\n      swap2\n      swap1\n      tag_67\n      jump\t// in\n    tag_135:\n      mload(0x40)\n      dup1\n      swap2\n      sub\n      swap1\n      return\n        /* \"@openzeppelin/contracts-upgradeable/access/OwnableUpgradeable.sol\":2321:2519  function transferOwnership(address newOwner) public virtual onlyOwner {... */\n    tag_29:\n      tag_136\n      0x04\n      dup1\n      calldatasize\n      sub\n      dup2\n      add\n      swap1\n      tag_137\n      swap2\n      swap1\n      tag_58\n      jump\t// in\n    tag_137:\n      tag_138\n      jump\t// in\n    tag_136:\n      stop\n        /* \"contracts/ethBridge/OraisanBridge.sol\":3690:3963  function deleteTokenPair(uint160 _cosmosTokenAddress) external onlyOwner {... */\n    tag_39:\n        /* \"@openzeppelin/contracts-upgradeable/access/OwnableUpgradeable.sol\":1334:1347  _checkOwner() */\n      tag_140\n        /* \"@openzeppelin/contracts-upgradeable/access/OwnableUpgradeable.sol\":1334:1345  _checkOwner */\n      tag_141\n        /* \"@openzeppelin/contracts-upgradeable/access/OwnableUpgradeable.sol\":1334:1347  _checkOwner() */\n      jump\t// in\n    tag_140:\n        /* \"contracts/ethBridge/OraisanBridge.sol\":3774:3791  address _ethToken */\n      0x00\n        /* \"contracts/ethBridge/OraisanBridge.sol\":3794:3817  cosmosToEthTokenAddress */\n      0xce\n        /* \"contracts/ethBridge/OraisanBridge.sol\":3794:3838  cosmosToEthTokenAddress[_cosmosTokenAddress] */\n      0x00\n        /* \"contracts/ethBridge/OraisanBridge.sol\":3818:3837  _cosmosTokenAddress */\n      dup4\n        /* \"contracts/ethBridge/OraisanBridge.sol\":3794:3838  cosmosToEthTokenAddress[_cosmosTokenAddress] */\n      0xffffffffffffffffffffffffffffffffffffffff\n      and\n      0xffffffffffffffffffffffffffffffffffffffff\n      and\n      dup2\n      mstore\n      0x20\n      add\n      swap1\n      dup2\n      mstore\n      0x20\n      add\n      0x00\n      keccak256\n      0x00\n      swap1\n      sload\n      swap1\n      0x0100\n      exp\n      swap1\n      div\n      0xffffffffffffffffffffffffffffffffffffffff\n      and\n        /* \"contracts/ethBridge/OraisanBridge.sol\":3774:3838  address _ethToken = cosmosToEthTokenAddress[_cosmosTokenAddress] */\n      swap1\n      pop\n        /* \"contracts/ethBridge/OraisanBridge.sol\":3904:3905  0 */\n      0x00\n        /* \"contracts/ethBridge/OraisanBridge.sol\":3849:3872  cosmosToEthTokenAddress */\n      0xce\n        /* \"contracts/ethBridge/OraisanBridge.sol\":3849:3893  cosmosToEthTokenAddress[_cosmosTokenAddress] */\n      0x00\n        /* \"contracts/ethBridge/OraisanBridge.sol\":3873:3892  _cosmosTokenAddress */\n      dup5\n        /* \"contracts/ethBridge/OraisanBridge.sol\":3849:3893  cosmosToEthTokenAddress[_cosmosTokenAddress] */\n      0xffffffffffffffffffffffffffffffffffffffff\n      and\n      0xffffffffffffffffffffffffffffffffffffffff\n      and\n      dup2\n      mstore\n      0x20\n      add\n      swap1\n      dup2\n      mstore\n      0x20\n      add\n      0x00\n      keccak256\n      0x00\n        /* \"contracts/ethBridge/OraisanBridge.sol\":3849:3906  cosmosToEthTokenAddress[_cosmosTokenAddress] = address(0) */\n      0x0100\n      exp\n      dup2\n      sload\n      dup2\n      0xffffffffffffffffffffffffffffffffffffffff\n      mul\n      not\n      and\n      swap1\n      dup4\n      0xffffffffffffffffffffffffffffffffffffffff\n      and\n      mul\n      or\n      swap1\n      sstore\n      pop\n        /* \"contracts/ethBridge/OraisanBridge.sol\":3954:3955  0 */\n      0x00\n        /* \"contracts/ethBridge/OraisanBridge.sol\":3917:3940  ethToCosmosTokenAddress */\n      0xcf\n        /* \"contracts/ethBridge/OraisanBridge.sol\":3917:3951  ethToCosmosTokenAddress[_ethToken] */\n      0x00\n        /* \"contracts/ethBridge/OraisanBridge.sol\":3941:3950  _ethToken */\n      dup4\n        /* \"contracts/ethBridge/OraisanBridge.sol\":3917:3951  ethToCosmosTokenAddress[_ethToken] */\n      0xffffffffffffffffffffffffffffffffffffffff\n      and\n      0xffffffffffffffffffffffffffffffffffffffff\n      and\n      dup2\n      mstore\n      0x20\n      add\n      swap1\n      dup2\n      mstore\n      0x20\n      add\n      0x00\n      keccak256\n      0x00\n        /* \"contracts/ethBridge/OraisanBridge.sol\":3917:3955  ethToCosmosTokenAddress[_ethToken] = 0 */\n      0x0100\n      exp\n      dup2\n      sload\n      dup2\n      0xffffffffffffffffffffffffffffffffffffffff\n      mul\n      not\n      and\n      swap1\n      dup4\n      0xffffffffffffffffffffffffffffffffffffffff\n      and\n      mul\n      or\n      swap1\n      sstore\n      pop\n        /* \"contracts/ethBridge/OraisanBridge.sol\":3763:3963  {... */\n      pop\n        /* \"contracts/ethBridge/OraisanBridge.sol\":3690:3963  function deleteTokenPair(uint160 _cosmosTokenAddress) external onlyOwner {... */\n      pop\n      jump\t// out\n        /* \"contracts/ethBridge/OraisanBridge.sol\":3179:3682  function registerTokenPair(... */\n    tag_43:\n        /* \"@openzeppelin/contracts-upgradeable/security/PausableUpgradeable.sol\":1482:1501  _requireNotPaused() */\n      tag_144\n        /* \"@openzeppelin/contracts-upgradeable/security/PausableUpgradeable.sol\":1482:1499  _requireNotPaused */\n      tag_145\n        /* \"@openzeppelin/contracts-upgradeable/security/PausableUpgradeable.sol\":1482:1501  _requireNotPaused() */\n      jump\t// in\n    tag_144:\n        /* \"@openzeppelin/contracts-upgradeable/access/OwnableUpgradeable.sol\":1334:1347  _checkOwner() */\n      tag_147\n        /* \"@openzeppelin/contracts-upgradeable/access/OwnableUpgradeable.sol\":1334:1345  _checkOwner */\n      tag_141\n        /* \"@openzeppelin/contracts-upgradeable/access/OwnableUpgradeable.sol\":1334:1347  _checkOwner() */\n      jump\t// in\n    tag_147:\n        /* \"contracts/ethBridge/OraisanBridge.sol\":3408:3409  0 */\n      0x00\n        /* \"contracts/ethBridge/OraisanBridge.sol\":3352:3410  cosmosToEthTokenAddress[_cosmosTokenAddress] == address(0) */\n      0xffffffffffffffffffffffffffffffffffffffff\n      and\n        /* \"contracts/ethBridge/OraisanBridge.sol\":3352:3375  cosmosToEthTokenAddress */\n      0xce\n        /* \"contracts/ethBridge/OraisanBridge.sol\":3352:3396  cosmosToEthTokenAddress[_cosmosTokenAddress] */\n      0x00\n        /* \"contracts/ethBridge/OraisanBridge.sol\":3376:3395  _cosmosTokenAddress */\n      dup5\n        /* \"contracts/ethBridge/OraisanBridge.sol\":3352:3396  cosmosToEthTokenAddress[_cosmosTokenAddress] */\n      0xffffffffffffffffffffffffffffffffffffffff\n      and\n      0xffffffffffffffffffffffffffffffffffffffff\n      and\n      dup2\n      mstore\n      0x20\n      add\n      swap1\n      dup2\n      mstore\n      0x20\n      add\n      0x00\n      keccak256\n      0x00\n      swap1\n      sload\n      swap1\n      0x0100\n      exp\n      swap1\n      div\n      0xffffffffffffffffffffffffffffffffffffffff\n      and\n        /* \"contracts/ethBridge/OraisanBridge.sol\":3352:3410  cosmosToEthTokenAddress[_cosmosTokenAddress] == address(0) */\n      0xffffffffffffffffffffffffffffffffffffffff\n      and\n      eq\n        /* \"contracts/ethBridge/OraisanBridge.sol\":3352:3477  cosmosToEthTokenAddress[_cosmosTokenAddress] == address(0) ||... */\n      dup1\n      tag_149\n      jumpi\n      pop\n        /* \"contracts/ethBridge/OraisanBridge.sol\":3476:3477  0 */\n      0x00\n        /* \"contracts/ethBridge/OraisanBridge.sol\":3431:3454  ethToCosmosTokenAddress */\n      0xcf\n        /* \"contracts/ethBridge/OraisanBridge.sol\":3431:3472  ethToCosmosTokenAddress[_ethTokenAddress] */\n      0x00\n        /* \"contracts/ethBridge/OraisanBridge.sol\":3455:3471  _ethTokenAddress */\n      dup4\n        /* \"contracts/ethBridge/OraisanBridge.sol\":3431:3472  ethToCosmosTokenAddress[_ethTokenAddress] */\n      0xffffffffffffffffffffffffffffffffffffffff\n      and\n      0xffffffffffffffffffffffffffffffffffffffff\n      and\n      dup2\n      mstore\n      0x20\n      add\n      swap1\n      dup2\n      mstore\n      0x20\n      add\n      0x00\n      keccak256\n      0x00\n      swap1\n      sload\n      swap1\n      0x0100\n      exp\n      swap1\n      div\n      0xffffffffffffffffffffffffffffffffffffffff\n      and\n        /* \"contracts/ethBridge/OraisanBridge.sol\":3431:3477  ethToCosmosTokenAddress[_ethTokenAddress] == 0 */\n      0xffffffffffffffffffffffffffffffffffffffff\n      and\n      eq\n        /* \"contracts/ethBridge/OraisanBridge.sol\":3352:3477  cosmosToEthTokenAddress[_cosmosTokenAddress] == address(0) ||... */\n    tag_149:\n        /* \"contracts/ethBridge/OraisanBridge.sol\":3330:3526  require(... */\n      tag_150\n      jumpi\n      mload(0x40)\n      0x08c379a000000000000000000000000000000000000000000000000000000000\n      dup2\n      mstore\n      0x04\n      add\n      tag_151\n      swap1\n      tag_152\n      jump\t// in\n    tag_151:\n      mload(0x40)\n      dup1\n      swap2\n      sub\n      swap1\n      revert\n    tag_150:\n        /* \"contracts/ethBridge/OraisanBridge.sol\":3584:3600  _ethTokenAddress */\n      dup1\n        /* \"contracts/ethBridge/OraisanBridge.sol\":3537:3560  cosmosToEthTokenAddress */\n      0xce\n        /* \"contracts/ethBridge/OraisanBridge.sol\":3537:3581  cosmosToEthTokenAddress[_cosmosTokenAddress] */\n      0x00\n        /* \"contracts/ethBridge/OraisanBridge.sol\":3561:3580  _cosmosTokenAddress */\n      dup5\n        /* \"contracts/ethBridge/OraisanBridge.sol\":3537:3581  cosmosToEthTokenAddress[_cosmosTokenAddress] */\n      0xffffffffffffffffffffffffffffffffffffffff\n      and\n      0xffffffffffffffffffffffffffffffffffffffff\n      and\n      dup2\n      mstore\n      0x20\n      add\n      swap1\n      dup2\n      mstore\n      0x20\n      add\n      0x00\n      keccak256\n      0x00\n        /* \"contracts/ethBridge/OraisanBridge.sol\":3537:3600  cosmosToEthTokenAddress[_cosmosTokenAddress] = _ethTokenAddress */\n      0x0100\n      exp\n      dup2\n      sload\n      dup2\n      0xffffffffffffffffffffffffffffffffffffffff\n      mul\n      not\n      and\n      swap1\n      dup4\n      0xffffffffffffffffffffffffffffffffffffffff\n      and\n      mul\n      or\n      swap1\n      sstore\n      pop\n        /* \"contracts/ethBridge/OraisanBridge.sol\":3655:3674  _cosmosTokenAddress */\n      dup2\n        /* \"contracts/ethBridge/OraisanBridge.sol\":3611:3634  ethToCosmosTokenAddress */\n      0xcf\n        /* \"contracts/ethBridge/OraisanBridge.sol\":3611:3652  ethToCosmosTokenAddress[_ethTokenAddress] */\n      0x00\n        /* \"contracts/ethBridge/OraisanBridge.sol\":3635:3651  _ethTokenAddress */\n      dup4\n        /* \"contracts/ethBridge/OraisanBridge.sol\":3611:3652  ethToCosmosTokenAddress[_ethTokenAddress] */\n      0xffffffffffffffffffffffffffffffffffffffff\n      and\n      0xffffffffffffffffffffffffffffffffffffffff\n      and\n      dup2\n      mstore\n      0x20\n      add\n      swap1\n      dup2\n      mstore\n      0x20\n      add\n      0x00\n      keccak256\n      0x00\n        /* \"contracts/ethBridge/OraisanBridge.sol\":3611:3674  ethToCosmosTokenAddress[_ethTokenAddress] = _cosmosTokenAddress */\n      0x0100\n      exp\n      dup2\n      sload\n      dup2\n      0xffffffffffffffffffffffffffffffffffffffff\n      mul\n      not\n      and\n      swap1\n      dup4\n      0xffffffffffffffffffffffffffffffffffffffff\n      and\n      mul\n      or\n      swap1\n      sstore\n      pop\n        /* \"contracts/ethBridge/OraisanBridge.sol\":3179:3682  function registerTokenPair(... */\n      pop\n      pop\n      jump\t// out\n        /* \"contracts/libs/Lib_AddressResolver.sol\":394:437  Lib_AddressManager public libAddressManager */\n    tag_45:\n      0x00\n      0x02\n      swap1\n      sload\n      swap1\n      0x0100\n      exp\n      swap1\n      div\n      0xffffffffffffffffffffffffffffffffffffffff\n      and\n      dup2\n      jump\t// out\n        /* \"contracts/ethBridge/MerkleTreeWithHistory.sol\":2561:2677  function getLastDepositRoot() public view returns (uint256) {... */\n    tag_49:\n        /* \"contracts/ethBridge/MerkleTreeWithHistory.sol\":2612:2619  uint256 */\n      0x00\n        /* \"contracts/ethBridge/MerkleTreeWithHistory.sol\":2638:2650  depositRoots */\n      0x04\n        /* \"contracts/ethBridge/MerkleTreeWithHistory.sol\":2638:2670  depositRoots[currentDepositRoot] */\n      0x00\n        /* \"contracts/ethBridge/MerkleTreeWithHistory.sol\":2651:2669  currentDepositRoot */\n      sload(0x03)\n        /* \"contracts/ethBridge/MerkleTreeWithHistory.sol\":2638:2670  depositRoots[currentDepositRoot] */\n      dup2\n      mstore\n      0x20\n      add\n      swap1\n      dup2\n      mstore\n      0x20\n      add\n      0x00\n      keccak256\n      sload\n        /* \"contracts/ethBridge/MerkleTreeWithHistory.sol\":2631:2670  return depositRoots[currentDepositRoot] */\n      swap1\n      pop\n        /* \"contracts/ethBridge/MerkleTreeWithHistory.sol\":2561:2677  function getLastDepositRoot() public view returns (uint256) {... */\n      swap1\n      jump\t// out\n        /* \"contracts/ethBridge/OraisanBridge.sol\":2836:3171  function registerCosmosBridge(... */\n    tag_55:\n        /* \"@openzeppelin/contracts-upgradeable/security/PausableUpgradeable.sol\":1482:1501  _requireNotPaused() */\n      tag_155\n        /* \"@openzeppelin/contracts-upgradeable/security/PausableUpgradeable.sol\":1482:1499  _requireNotPaused */\n      tag_145\n        /* \"@openzeppelin/contracts-upgradeable/security/PausableUpgradeable.sol\":1482:1501  _requireNotPaused() */\n      jump\t// in\n    tag_155:\n        /* \"@openzeppelin/contracts-upgradeable/access/OwnableUpgradeable.sol\":1334:1347  _checkOwner() */\n      tag_157\n        /* \"@openzeppelin/contracts-upgradeable/access/OwnableUpgradeable.sol\":1334:1345  _checkOwner */\n      tag_141\n        /* \"@openzeppelin/contracts-upgradeable/access/OwnableUpgradeable.sol\":1334:1347  _checkOwner() */\n      jump\t// in\n    tag_157:\n        /* \"contracts/ethBridge/OraisanBridge.sol\":3037:3047  _isSupport */\n      dup1\n        /* \"contracts/ethBridge/OraisanBridge.sol\":2997:3047  isSupportCosmosBridge[_cosmosBridge] != _isSupport */\n      iszero\n      iszero\n        /* \"contracts/ethBridge/OraisanBridge.sol\":2997:3018  isSupportCosmosBridge */\n      0xcd\n        /* \"contracts/ethBridge/OraisanBridge.sol\":2997:3033  isSupportCosmosBridge[_cosmosBridge] */\n      0x00\n        /* \"contracts/ethBridge/OraisanBridge.sol\":3019:3032  _cosmosBridge */\n      dup5\n        /* \"contracts/ethBridge/OraisanBridge.sol\":2997:3033  isSupportCosmosBridge[_cosmosBridge] */\n      0xffffffffffffffffffffffffffffffffffffffff\n      and\n      0xffffffffffffffffffffffffffffffffffffffff\n      and\n      dup2\n      mstore\n      0x20\n      add\n      swap1\n      dup2\n      mstore\n      0x20\n      add\n      0x00\n      keccak256\n      0x00\n      swap1\n      sload\n      swap1\n      0x0100\n      exp\n      swap1\n      div\n      0xff\n      and\n        /* \"contracts/ethBridge/OraisanBridge.sol\":2997:3047  isSupportCosmosBridge[_cosmosBridge] != _isSupport */\n      iszero\n      iszero\n      sub\n        /* \"contracts/ethBridge/OraisanBridge.sol\":2975:3103  require(... */\n      tag_159\n      jumpi\n      mload(0x40)\n      0x08c379a000000000000000000000000000000000000000000000000000000000\n      dup2\n      mstore\n      0x04\n      add\n      tag_160\n      swap1\n      tag_161\n      jump\t// in\n    tag_160:\n      mload(0x40)\n      dup1\n      swap2\n      sub\n      swap1\n      revert\n    tag_159:\n        /* \"contracts/ethBridge/OraisanBridge.sol\":3153:3163  _isSupport */\n      dup1\n        /* \"contracts/ethBridge/OraisanBridge.sol\":3114:3135  isSupportCosmosBridge */\n      0xcd\n        /* \"contracts/ethBridge/OraisanBridge.sol\":3114:3150  isSupportCosmosBridge[_cosmosBridge] */\n      0x00\n        /* \"contracts/ethBridge/OraisanBridge.sol\":3136:3149  _cosmosBridge */\n      dup5\n        /* \"contracts/ethBridge/OraisanBridge.sol\":3114:3150  isSupportCosmosBridge[_cosmosBridge] */\n      0xffffffffffffffffffffffffffffffffffffffff\n      and\n      0xffffffffffffffffffffffffffffffffffffffff\n      and\n      dup2\n      mstore\n      0x20\n      add\n      swap1\n      dup2\n      mstore\n      0x20\n      add\n      0x00\n      keccak256\n      0x00\n        /* \"contracts/ethBridge/OraisanBridge.sol\":3114:3163  isSupportCosmosBridge[_cosmosBridge] = _isSupport */\n      0x0100\n      exp\n      dup2\n      sload\n      dup2\n      0xff\n      mul\n      not\n      and\n      swap1\n      dup4\n      iszero\n      iszero\n      mul\n      or\n      swap1\n      sstore\n      pop\n        /* \"contracts/ethBridge/OraisanBridge.sol\":2836:3171  function registerCosmosBridge(... */\n      pop\n      pop\n      jump\t// out\n        /* \"contracts/ethBridge/OraisanBridge.sol\":1699:1757  mapping(address => uint160) public ethToCosmosTokenAddress */\n    tag_59:\n      mstore(0x20, 0xcf)\n      dup1\n      0x00\n      mstore\n      keccak256(0x00, 0x40)\n      0x00\n      swap2\n      pop\n      sload\n      swap1\n      0x0100\n      exp\n      swap1\n      div\n      0xffffffffffffffffffffffffffffffffffffffff\n      and\n      dup2\n      jump\t// out\n        /* \"contracts/libs/Lib_AddressResolver.sol\":711:840  function resolve(string memory _name) public view returns (address) {... */\n    tag_65:\n        /* \"contracts/libs/Lib_AddressResolver.sol\":770:777  address */\n      0x00\n        /* \"contracts/libs/Lib_AddressResolver.sol\":797:814  libAddressManager */\n      dup1\n      0x02\n      swap1\n      sload\n      swap1\n      0x0100\n      exp\n      swap1\n      div\n      0xffffffffffffffffffffffffffffffffffffffff\n      and\n        /* \"contracts/libs/Lib_AddressResolver.sol\":797:825  libAddressManager.getAddress */\n      0xffffffffffffffffffffffffffffffffffffffff\n      and\n      0xbf40fac1\n        /* \"contracts/libs/Lib_AddressResolver.sol\":826:831  _name */\n      dup4\n        /* \"contracts/libs/Lib_AddressResolver.sol\":797:832  libAddressManager.getAddress(_name) */\n      mload(0x40)\n      dup3\n      0xffffffff\n      and\n      0xe0\n      shl\n      dup2\n      mstore\n      0x04\n      add\n      tag_163\n      swap2\n      swap1\n      tag_164\n      jump\t// in\n    tag_163:\n      0x20\n      mload(0x40)\n      dup1\n      dup4\n      sub\n      dup2\n      dup7\n      gas\n      staticcall\n      iszero\n      dup1\n      iszero\n      tag_166\n      jumpi\n      returndatasize\n      0x00\n      dup1\n      returndatacopy\n      revert(0x00, returndatasize)\n    tag_166:\n      pop\n      pop\n      pop\n      pop\n      mload(0x40)\n      returndatasize\n      not(0x1f)\n      0x1f\n      dup3\n      add\n      and\n      dup3\n      add\n      dup1\n      0x40\n      mstore\n      pop\n      dup2\n      add\n      swap1\n      tag_167\n      swap2\n      swap1\n      tag_168\n      jump\t// in\n    tag_167:\n        /* \"contracts/libs/Lib_AddressResolver.sol\":790:832  return libAddressManager.getAddress(_name) */\n      swap1\n      pop\n        /* \"contracts/libs/Lib_AddressResolver.sol\":711:840  function resolve(string memory _name) public view returns (address) {... */\n      swap2\n      swap1\n      pop\n      jump\t// out\n        /* \"contracts/ethBridge/MerkleTreeWithHistory.sol\":231:252  uint256 public levels */\n    tag_69:\n      sload(0x02)\n      dup2\n      jump\t// out\n        /* \"contracts/ethBridge/OraisanBridge.sol\":5333:7057  function claimTransaction(... */\n    tag_74:\n        /* \"contracts/ethBridge/OraisanBridge.sol\":5592:5593  0 */\n      0x00\n        /* \"contracts/ethBridge/OraisanBridge.sol\":5480:5594  cosmosToEthTokenAddress[... */\n      0xffffffffffffffffffffffffffffffffffffffff\n      and\n        /* \"contracts/ethBridge/OraisanBridge.sol\":5480:5503  cosmosToEthTokenAddress */\n      0xce\n        /* \"contracts/ethBridge/OraisanBridge.sol\":5480:5580  cosmosToEthTokenAddress[... */\n      0x00\n        /* \"contracts/ethBridge/OraisanBridge.sol\":5522:5544  _claimTransactionProof */\n      dup4\n        /* \"contracts/ethBridge/OraisanBridge.sol\":5522:5565  _claimTransactionProof.cosmos_token_address */\n      0xe0\n      add\n      mload\n        /* \"contracts/ethBridge/OraisanBridge.sol\":5480:5580  cosmosToEthTokenAddress[... */\n      0xffffffffffffffffffffffffffffffffffffffff\n      and\n      0xffffffffffffffffffffffffffffffffffffffff\n      and\n      dup2\n      mstore\n      0x20\n      add\n      swap1\n      dup2\n      mstore\n      0x20\n      add\n      0x00\n      keccak256\n      0x00\n      swap1\n      sload\n      swap1\n      0x0100\n      exp\n      swap1\n      div\n      0xffffffffffffffffffffffffffffffffffffffff\n      and\n        /* \"contracts/ethBridge/OraisanBridge.sol\":5480:5594  cosmosToEthTokenAddress[... */\n      0xffffffffffffffffffffffffffffffffffffffff\n      and\n      sub\n        /* \"contracts/ethBridge/OraisanBridge.sol\":5458:5644  require(... */\n      tag_170\n      jumpi\n      mload(0x40)\n      0x08c379a000000000000000000000000000000000000000000000000000000000\n      dup2\n      mstore\n      0x04\n      add\n      tag_171\n      swap1\n      tag_172\n      jump\t// in\n    tag_171:\n      mload(0x40)\n      dup1\n      swap2\n      sub\n      swap1\n      revert\n    tag_170:\n        /* \"contracts/ethBridge/OraisanBridge.sol\":5730:5734  this */\n      address\n        /* \"contracts/ethBridge/OraisanBridge.sol\":5677:5735  _claimTransactionProof.eth_bridge_address == address(this) */\n      0xffffffffffffffffffffffffffffffffffffffff\n      and\n        /* \"contracts/ethBridge/OraisanBridge.sol\":5677:5699  _claimTransactionProof */\n      dup2\n        /* \"contracts/ethBridge/OraisanBridge.sol\":5677:5718  _claimTransactionProof.eth_bridge_address */\n      0x80\n      add\n      mload\n        /* \"contracts/ethBridge/OraisanBridge.sol\":5677:5735  _claimTransactionProof.eth_bridge_address == address(this) */\n      0xffffffffffffffffffffffffffffffffffffffff\n      and\n      eq\n        /* \"contracts/ethBridge/OraisanBridge.sol\":5655:5807  require(... */\n      tag_173\n      jumpi\n      mload(0x40)\n      0x08c379a000000000000000000000000000000000000000000000000000000000\n      dup2\n      mstore\n      0x04\n      add\n      tag_174\n      swap1\n      tag_175\n      jump\t// in\n    tag_174:\n      mload(0x40)\n      dup1\n      swap2\n      sub\n      swap1\n      revert\n    tag_173:\n        /* \"contracts/ethBridge/OraisanBridge.sol\":5840:5893  isKnownDepostRoot(_claimTransactionProof.depositRoot) */\n      tag_176\n        /* \"contracts/ethBridge/OraisanBridge.sol\":5858:5880  _claimTransactionProof */\n      dup2\n        /* \"contracts/ethBridge/OraisanBridge.sol\":5858:5892  _claimTransactionProof.depositRoot */\n      0x0100\n      add\n      mload\n        /* \"contracts/ethBridge/OraisanBridge.sol\":5840:5857  isKnownDepostRoot */\n      tag_84\n        /* \"contracts/ethBridge/OraisanBridge.sol\":5840:5893  isKnownDepostRoot(_claimTransactionProof.depositRoot) */\n      jump\t// in\n    tag_176:\n        /* \"contracts/ethBridge/OraisanBridge.sol\":5818:5944  require(... */\n      tag_177\n      jumpi\n      mload(0x40)\n      0x08c379a000000000000000000000000000000000000000000000000000000000\n      dup2\n      mstore\n      0x04\n      add\n      tag_178\n      swap1\n      tag_179\n      jump\t// in\n    tag_178:\n      mload(0x40)\n      dup1\n      swap2\n      sub\n      swap1\n      revert\n    tag_177:\n        /* \"contracts/ethBridge/OraisanBridge.sol\":5955:5979  string memory optionName */\n      0x00\n        /* \"contracts/ethBridge/OraisanBridge.sol\":5982:6004  _claimTransactionProof */\n      dup2\n        /* \"contracts/ethBridge/OraisanBridge.sol\":5982:6015  _claimTransactionProof.optionName */\n      0x00\n      add\n      mload\n        /* \"contracts/ethBridge/OraisanBridge.sol\":5955:6015  string memory optionName = _claimTransactionProof.optionName */\n      swap1\n      pop\n        /* \"contracts/ethBridge/OraisanBridge.sol\":6026:6045  uint[2] memory pi_a */\n      0x00\n        /* \"contracts/ethBridge/OraisanBridge.sol\":6048:6070  _claimTransactionProof */\n      dup3\n        /* \"contracts/ethBridge/OraisanBridge.sol\":6048:6075  _claimTransactionProof.pi_a */\n      0x20\n      add\n      mload\n        /* \"contracts/ethBridge/OraisanBridge.sol\":6026:6075  uint[2] memory pi_a = _claimTransactionProof.pi_a */\n      swap1\n      pop\n        /* \"contracts/ethBridge/OraisanBridge.sol\":6086:6108  uint[2][2] memory pi_b */\n      0x00\n        /* \"contracts/ethBridge/OraisanBridge.sol\":6111:6133  _claimTransactionProof */\n      dup4\n        /* \"contracts/ethBridge/OraisanBridge.sol\":6111:6138  _claimTransactionProof.pi_b */\n      0x40\n      add\n      mload\n        /* \"contracts/ethBridge/OraisanBridge.sol\":6086:6138  uint[2][2] memory pi_b = _claimTransactionProof.pi_b */\n      swap1\n      pop\n        /* \"contracts/ethBridge/OraisanBridge.sol\":6149:6168  uint[2] memory pi_c */\n      0x00\n        /* \"contracts/ethBridge/OraisanBridge.sol\":6171:6193  _claimTransactionProof */\n      dup5\n        /* \"contracts/ethBridge/OraisanBridge.sol\":6171:6198  _claimTransactionProof.pi_c */\n      0x60\n      add\n      mload\n        /* \"contracts/ethBridge/OraisanBridge.sol\":6149:6198  uint[2] memory pi_c = _claimTransactionProof.pi_c */\n      swap1\n      pop\n        /* \"contracts/ethBridge/OraisanBridge.sol\":6209:6231  uint256[] memory input */\n      0x00\n        /* \"contracts/ethBridge/OraisanBridge.sol\":6248:6249  5 */\n      0x05\n        /* \"contracts/ethBridge/OraisanBridge.sol\":6234:6250  new uint256[](5) */\n      0xffffffffffffffff\n      dup2\n      gt\n      iszero\n      tag_180\n      jumpi\n      tag_181\n      tag_182\n      jump\t// in\n    tag_181:\n    tag_180:\n      mload(0x40)\n      swap1\n      dup1\n      dup3\n      mstore\n      dup1\n      0x20\n      mul\n      0x20\n      add\n      dup3\n      add\n      0x40\n      mstore\n      dup1\n      iszero\n      tag_183\n      jumpi\n      dup2\n      0x20\n      add\n      0x20\n      dup3\n      mul\n      dup1\n      calldatasize\n      dup4\n      calldatacopy\n      dup1\n      dup3\n      add\n      swap2\n      pop\n      pop\n      swap1\n      pop\n    tag_183:\n      pop\n        /* \"contracts/ethBridge/OraisanBridge.sol\":6209:6250  uint256[] memory input = new uint256[](5) */\n      swap1\n      pop\n        /* \"contracts/ethBridge/OraisanBridge.sol\":6290:6312  _claimTransactionProof */\n      dup6\n        /* \"contracts/ethBridge/OraisanBridge.sol\":6290:6331  _claimTransactionProof.eth_bridge_address */\n      0x80\n      add\n      mload\n        /* \"contracts/ethBridge/OraisanBridge.sol\":6274:6333  uint256(uint160(_claimTransactionProof.eth_bridge_address)) */\n      0xffffffffffffffffffffffffffffffffffffffff\n      and\n        /* \"contracts/ethBridge/OraisanBridge.sol\":6263:6268  input */\n      dup2\n        /* \"contracts/ethBridge/OraisanBridge.sol\":6269:6270  0 */\n      0x00\n        /* \"contracts/ethBridge/OraisanBridge.sol\":6263:6271  input[0] */\n      dup2\n      mload\n      dup2\n      lt\n      tag_184\n      jumpi\n      tag_185\n      tag_186\n      jump\t// in\n    tag_185:\n    tag_184:\n      0x20\n      mul\n      0x20\n      add\n      add\n        /* \"contracts/ethBridge/OraisanBridge.sol\":6263:6333  input[0] = uint256(uint160(_claimTransactionProof.eth_bridge_address)) */\n      dup2\n      dup2\n      mstore\n      pop\n      pop\n        /* \"contracts/ethBridge/OraisanBridge.sol\":6371:6393  _claimTransactionProof */\n      dup6\n        /* \"contracts/ethBridge/OraisanBridge.sol\":6371:6406  _claimTransactionProof.eth_receiver */\n      0xa0\n      add\n      mload\n        /* \"contracts/ethBridge/OraisanBridge.sol\":6355:6408  uint256(uint160(_claimTransactionProof.eth_receiver)) */\n      0xffffffffffffffffffffffffffffffffffffffff\n      and\n        /* \"contracts/ethBridge/OraisanBridge.sol\":6344:6349  input */\n      dup2\n        /* \"contracts/ethBridge/OraisanBridge.sol\":6350:6351  1 */\n      0x01\n        /* \"contracts/ethBridge/OraisanBridge.sol\":6344:6352  input[1] */\n      dup2\n      mload\n      dup2\n      lt\n      tag_187\n      jumpi\n      tag_188\n      tag_186\n      jump\t// in\n    tag_188:\n    tag_187:\n      0x20\n      mul\n      0x20\n      add\n      add\n        /* \"contracts/ethBridge/OraisanBridge.sol\":6344:6408  input[1] = uint256(uint160(_claimTransactionProof.eth_receiver)) */\n      dup2\n      dup2\n      mstore\n      pop\n      pop\n        /* \"contracts/ethBridge/OraisanBridge.sol\":6430:6452  _claimTransactionProof */\n      dup6\n        /* \"contracts/ethBridge/OraisanBridge.sol\":6430:6459  _claimTransactionProof.amount */\n      0xc0\n      add\n      mload\n        /* \"contracts/ethBridge/OraisanBridge.sol\":6419:6424  input */\n      dup2\n        /* \"contracts/ethBridge/OraisanBridge.sol\":6425:6426  2 */\n      0x02\n        /* \"contracts/ethBridge/OraisanBridge.sol\":6419:6427  input[2] */\n      dup2\n      mload\n      dup2\n      lt\n      tag_189\n      jumpi\n      tag_190\n      tag_186\n      jump\t// in\n    tag_190:\n    tag_189:\n      0x20\n      mul\n      0x20\n      add\n      add\n        /* \"contracts/ethBridge/OraisanBridge.sol\":6419:6459  input[2] = _claimTransactionProof.amount */\n      dup2\n      dup2\n      mstore\n      pop\n      pop\n        /* \"contracts/ethBridge/OraisanBridge.sol\":6489:6511  _claimTransactionProof */\n      dup6\n        /* \"contracts/ethBridge/OraisanBridge.sol\":6489:6532  _claimTransactionProof.cosmos_token_address */\n      0xe0\n      add\n      mload\n        /* \"contracts/ethBridge/OraisanBridge.sol\":6481:6533  uint256(_claimTransactionProof.cosmos_token_address) */\n      0xffffffffffffffffffffffffffffffffffffffff\n      and\n        /* \"contracts/ethBridge/OraisanBridge.sol\":6470:6475  input */\n      dup2\n        /* \"contracts/ethBridge/OraisanBridge.sol\":6476:6477  3 */\n      0x03\n        /* \"contracts/ethBridge/OraisanBridge.sol\":6470:6478  input[3] */\n      dup2\n      mload\n      dup2\n      lt\n      tag_191\n      jumpi\n      tag_192\n      tag_186\n      jump\t// in\n    tag_192:\n    tag_191:\n      0x20\n      mul\n      0x20\n      add\n      add\n        /* \"contracts/ethBridge/OraisanBridge.sol\":6470:6533  input[3] = uint256(_claimTransactionProof.cosmos_token_address) */\n      dup2\n      dup2\n      mstore\n      pop\n      pop\n        /* \"contracts/ethBridge/OraisanBridge.sol\":6555:6577  _claimTransactionProof */\n      dup6\n        /* \"contracts/ethBridge/OraisanBridge.sol\":6555:6589  _claimTransactionProof.depositRoot */\n      0x0100\n      add\n      mload\n        /* \"contracts/ethBridge/OraisanBridge.sol\":6544:6549  input */\n      dup2\n        /* \"contracts/ethBridge/OraisanBridge.sol\":6550:6551  4 */\n      0x04\n        /* \"contracts/ethBridge/OraisanBridge.sol\":6544:6552  input[4] */\n      dup2\n      mload\n      dup2\n      lt\n      tag_193\n      jumpi\n      tag_194\n      tag_186\n      jump\t// in\n    tag_194:\n    tag_193:\n      0x20\n      mul\n      0x20\n      add\n      add\n        /* \"contracts/ethBridge/OraisanBridge.sol\":6544:6589  input[4] = _claimTransactionProof.depositRoot */\n      dup2\n      dup2\n      mstore\n      pop\n      pop\n        /* \"contracts/ethBridge/OraisanBridge.sol\":6634:6653  resolve(optionName) */\n      tag_195\n        /* \"contracts/ethBridge/OraisanBridge.sol\":6642:6652  optionName */\n      dup6\n        /* \"contracts/ethBridge/OraisanBridge.sol\":6634:6641  resolve */\n      tag_65\n        /* \"contracts/ethBridge/OraisanBridge.sol\":6634:6653  resolve(optionName) */\n      jump\t// in\n    tag_195:\n        /* \"contracts/ethBridge/OraisanBridge.sol\":6624:6666  IVerifier(resolve(optionName)).verifyProof */\n      0xffffffffffffffffffffffffffffffffffffffff\n      and\n      0xc32e370e\n        /* \"contracts/ethBridge/OraisanBridge.sol\":6667:6671  pi_a */\n      dup6\n        /* \"contracts/ethBridge/OraisanBridge.sol\":6673:6677  pi_b */\n      dup6\n        /* \"contracts/ethBridge/OraisanBridge.sol\":6679:6683  pi_c */\n      dup6\n        /* \"contracts/ethBridge/OraisanBridge.sol\":6685:6690  input */\n      dup6\n        /* \"contracts/ethBridge/OraisanBridge.sol\":6624:6691  IVerifier(resolve(optionName)).verifyProof(pi_a, pi_b, pi_c, input) */\n      mload(0x40)\n      dup6\n      0xffffffff\n      and\n      0xe0\n      shl\n      dup2\n      mstore\n      0x04\n      add\n      tag_196\n      swap5\n      swap4\n      swap3\n      swap2\n      swap1\n      tag_197\n      jump\t// in\n    tag_196:\n      0x20\n      mload(0x40)\n      dup1\n      dup4\n      sub\n      dup2\n      dup7\n      gas\n      staticcall\n      iszero\n      dup1\n      iszero\n      tag_199\n      jumpi\n      returndatasize\n      0x00\n      dup1\n      returndatacopy\n      revert(0x00, returndatasize)\n    tag_199:\n      pop\n      pop\n      pop\n      pop\n      mload(0x40)\n      returndatasize\n      not(0x1f)\n      0x1f\n      dup3\n      add\n      and\n      dup3\n      add\n      dup1\n      0x40\n      mstore\n      pop\n      dup2\n      add\n      swap1\n      tag_200\n      swap2\n      swap1\n      tag_201\n      jump\t// in\n    tag_200:\n        /* \"contracts/ethBridge/OraisanBridge.sol\":6602:6744  require(... */\n      tag_202\n      jumpi\n      mload(0x40)\n      0x08c379a000000000000000000000000000000000000000000000000000000000\n      dup2\n      mstore\n      0x04\n      add\n      tag_203\n      swap1\n      tag_204\n      jump\t// in\n    tag_203:\n      mload(0x40)\n      dup1\n      swap2\n      sub\n      swap1\n      revert\n    tag_202:\n        /* \"contracts/ethBridge/OraisanBridge.sol\":6783:6806  cosmosToEthTokenAddress */\n      0xce\n        /* \"contracts/ethBridge/OraisanBridge.sol\":6783:6851  cosmosToEthTokenAddress[_claimTransactionProof.cosmos_token_address] */\n      0x00\n        /* \"contracts/ethBridge/OraisanBridge.sol\":6807:6829  _claimTransactionProof */\n      dup8\n        /* \"contracts/ethBridge/OraisanBridge.sol\":6807:6850  _claimTransactionProof.cosmos_token_address */\n      0xe0\n      add\n      mload\n        /* \"contracts/ethBridge/OraisanBridge.sol\":6783:6851  cosmosToEthTokenAddress[_claimTransactionProof.cosmos_token_address] */\n      0xffffffffffffffffffffffffffffffffffffffff\n      and\n      0xffffffffffffffffffffffffffffffffffffffff\n      and\n      dup2\n      mstore\n      0x20\n      add\n      swap1\n      dup2\n      mstore\n      0x20\n      add\n      0x00\n      keccak256\n      0x00\n      swap1\n      sload\n      swap1\n      0x0100\n      exp\n      swap1\n      div\n      0xffffffffffffffffffffffffffffffffffffffff\n      and\n        /* \"contracts/ethBridge/OraisanBridge.sol\":6757:6867  IERC20Token(... */\n      0xffffffffffffffffffffffffffffffffffffffff\n      and\n      0x40c10f19\n        /* \"contracts/ethBridge/OraisanBridge.sol\":6886:6908  _claimTransactionProof */\n      dup8\n        /* \"contracts/ethBridge/OraisanBridge.sol\":6886:6921  _claimTransactionProof.eth_receiver */\n      0xa0\n      add\n      mload\n        /* \"contracts/ethBridge/OraisanBridge.sol\":6940:6962  _claimTransactionProof */\n      dup9\n        /* \"contracts/ethBridge/OraisanBridge.sol\":6940:6969  _claimTransactionProof.amount */\n      0xc0\n      add\n      mload\n        /* \"contracts/ethBridge/OraisanBridge.sol\":6757:6984  IERC20Token(... */\n      mload(0x40)\n      dup4\n      0xffffffff\n      and\n      0xe0\n      shl\n      dup2\n      mstore\n      0x04\n      add\n      tag_205\n      swap3\n      swap2\n      swap1\n      tag_206\n      jump\t// in\n    tag_205:\n      0x00\n      mload(0x40)\n      dup1\n      dup4\n      sub\n      dup2\n      0x00\n      dup8\n      dup1\n      extcodesize\n      iszero\n      dup1\n      iszero\n      tag_207\n      jumpi\n      0x00\n      dup1\n      revert\n    tag_207:\n      pop\n      gas\n      call\n      iszero\n      dup1\n      iszero\n      tag_209\n      jumpi\n      returndatasize\n      0x00\n      dup1\n      returndatacopy\n      revert(0x00, returndatasize)\n    tag_209:\n      pop\n      pop\n      pop\n      pop\n        /* \"contracts/ethBridge/OraisanBridge.sol\":7026:7031  input */\n      dup1\n        /* \"contracts/ethBridge/OraisanBridge.sol\":7000:7049  ClaimTransactionCompleted(input, block.timestamp) */\n      mload(0x40)\n      tag_210\n      swap2\n      swap1\n      tag_211\n      jump\t// in\n    tag_210:\n      mload(0x40)\n      dup1\n      swap2\n      sub\n      swap1\n      keccak256\n      0x4e7589f75d86eccc05b3d94910b69255d4a905f5381ec472e446718f2c460794\n        /* \"contracts/ethBridge/OraisanBridge.sol\":7033:7048  block.timestamp */\n      timestamp\n        /* \"contracts/ethBridge/OraisanBridge.sol\":7000:7049  ClaimTransactionCompleted(input, block.timestamp) */\n      mload(0x40)\n      tag_212\n      swap2\n      swap1\n      tag_51\n      jump\t// in\n    tag_212:\n      mload(0x40)\n      dup1\n      swap2\n      sub\n      swap1\n      log2\n        /* \"contracts/ethBridge/OraisanBridge.sol\":5447:7057  {... */\n      pop\n      pop\n      pop\n      pop\n      pop\n        /* \"contracts/ethBridge/OraisanBridge.sol\":5333:7057  function claimTransaction(... */\n      pop\n      jump\t// out\n        /* \"@openzeppelin/contracts-upgradeable/security/PausableUpgradeable.sol\":1858:1942  function paused() public view virtual returns (bool) {... */\n    tag_76:\n        /* \"@openzeppelin/contracts-upgradeable/security/PausableUpgradeable.sol\":1905:1909  bool */\n      0x00\n        /* \"@openzeppelin/contracts-upgradeable/security/PausableUpgradeable.sol\":1928:1935  _paused */\n      0x69\n      0x00\n      swap1\n      sload\n      swap1\n      0x0100\n      exp\n      swap1\n      div\n      0xff\n      and\n        /* \"@openzeppelin/contracts-upgradeable/security/PausableUpgradeable.sol\":1921:1935  return _paused */\n      swap1\n      pop\n        /* \"@openzeppelin/contracts-upgradeable/security/PausableUpgradeable.sol\":1858:1942  function paused() public view virtual returns (bool) {... */\n      swap1\n      jump\t// out\n        /* \"@openzeppelin/contracts-upgradeable/access/OwnableUpgradeable.sol\":2071:2172  function renounceOwnership() public virtual onlyOwner {... */\n    tag_80:\n        /* \"@openzeppelin/contracts-upgradeable/access/OwnableUpgradeable.sol\":1334:1347  _checkOwner() */\n      tag_215\n        /* \"@openzeppelin/contracts-upgradeable/access/OwnableUpgradeable.sol\":1334:1345  _checkOwner */\n      tag_141\n        /* \"@openzeppelin/contracts-upgradeable/access/OwnableUpgradeable.sol\":1334:1347  _checkOwner() */\n      jump\t// in\n    tag_215:\n        /* \"@openzeppelin/contracts-upgradeable/access/OwnableUpgradeable.sol\":2135:2165  _transferOwnership(address(0)) */\n      tag_217\n        /* \"@openzeppelin/contracts-upgradeable/access/OwnableUpgradeable.sol\":2162:2163  0 */\n      0x00\n        /* \"@openzeppelin/contracts-upgradeable/access/OwnableUpgradeable.sol\":2135:2153  _transferOwnership */\n      tag_218\n        /* \"@openzeppelin/contracts-upgradeable/access/OwnableUpgradeable.sol\":2135:2165  _transferOwnership(address(0)) */\n      jump\t// in\n    tag_217:\n        /* \"@openzeppelin/contracts-upgradeable/access/OwnableUpgradeable.sol\":2071:2172  function renounceOwnership() public virtual onlyOwner {... */\n      jump\t// out\n        /* \"contracts/ethBridge/MerkleTreeWithHistory.sol\":1985:2505  function isKnownDepostRoot(uint256 _depositRoot) public view returns (bool) {... */\n    tag_84:\n        /* \"contracts/ethBridge/MerkleTreeWithHistory.sol\":2055:2059  bool */\n      0x00\n        /* \"contracts/ethBridge/MerkleTreeWithHistory.sol\":2091:2092  0 */\n      dup1\n        /* \"contracts/ethBridge/MerkleTreeWithHistory.sol\":2075:2087  _depositRoot */\n      dup3\n        /* \"contracts/ethBridge/MerkleTreeWithHistory.sol\":2075:2092  _depositRoot == 0 */\n      sub\n        /* \"contracts/ethBridge/MerkleTreeWithHistory.sol\":2071:2131  if (_depositRoot == 0) {... */\n      tag_220\n      jumpi\n        /* \"contracts/ethBridge/MerkleTreeWithHistory.sol\":2115:2120  false */\n      0x00\n        /* \"contracts/ethBridge/MerkleTreeWithHistory.sol\":2108:2120  return false */\n      swap1\n      pop\n      jump(tag_219)\n        /* \"contracts/ethBridge/MerkleTreeWithHistory.sol\":2071:2131  if (_depositRoot == 0) {... */\n    tag_220:\n        /* \"contracts/ethBridge/MerkleTreeWithHistory.sol\":2140:2167  uint256 _currentDepositRoot */\n      0x00\n        /* \"contracts/ethBridge/MerkleTreeWithHistory.sol\":2170:2188  currentDepositRoot */\n      sload(0x03)\n        /* \"contracts/ethBridge/MerkleTreeWithHistory.sol\":2140:2188  uint256 _currentDepositRoot = currentDepositRoot */\n      swap1\n      pop\n        /* \"contracts/ethBridge/MerkleTreeWithHistory.sol\":2198:2207  uint256 i */\n      0x00\n        /* \"contracts/ethBridge/MerkleTreeWithHistory.sol\":2210:2229  _currentDepositRoot */\n      dup2\n        /* \"contracts/ethBridge/MerkleTreeWithHistory.sol\":2198:2229  uint256 i = _currentDepositRoot */\n      swap1\n      pop\n        /* \"contracts/ethBridge/MerkleTreeWithHistory.sol\":2239:2477  do {... */\n    tag_221:\n        /* \"contracts/ethBridge/MerkleTreeWithHistory.sol\":2276:2288  depositRoots */\n      0x04\n        /* \"contracts/ethBridge/MerkleTreeWithHistory.sol\":2276:2291  depositRoots[i] */\n      0x00\n        /* \"contracts/ethBridge/MerkleTreeWithHistory.sol\":2289:2290  i */\n      dup3\n        /* \"contracts/ethBridge/MerkleTreeWithHistory.sol\":2276:2291  depositRoots[i] */\n      dup2\n      mstore\n      0x20\n      add\n      swap1\n      dup2\n      mstore\n      0x20\n      add\n      0x00\n      keccak256\n      sload\n        /* \"contracts/ethBridge/MerkleTreeWithHistory.sol\":2260:2272  _depositRoot */\n      dup5\n        /* \"contracts/ethBridge/MerkleTreeWithHistory.sol\":2260:2291  _depositRoot == depositRoots[i] */\n      sub\n        /* \"contracts/ethBridge/MerkleTreeWithHistory.sol\":2256:2337  if (_depositRoot == depositRoots[i]) {... */\n      tag_224\n      jumpi\n        /* \"contracts/ethBridge/MerkleTreeWithHistory.sol\":2318:2322  true */\n      0x01\n        /* \"contracts/ethBridge/MerkleTreeWithHistory.sol\":2311:2322  return true */\n      swap3\n      pop\n      pop\n      pop\n      jump(tag_219)\n        /* \"contracts/ethBridge/MerkleTreeWithHistory.sol\":2256:2337  if (_depositRoot == depositRoots[i]) {... */\n    tag_224:\n        /* \"contracts/ethBridge/MerkleTreeWithHistory.sol\":2359:2360  0 */\n      0x00\n        /* \"contracts/ethBridge/MerkleTreeWithHistory.sol\":2354:2355  i */\n      dup2\n        /* \"contracts/ethBridge/MerkleTreeWithHistory.sol\":2354:2360  i == 0 */\n      sub\n        /* \"contracts/ethBridge/MerkleTreeWithHistory.sol\":2350:2416  if (i == 0) {... */\n      tag_225\n      jumpi\n        /* \"contracts/ethBridge/MerkleTreeWithHistory.sol\":2384:2401  ROOT_HISTORY_SIZE */\n      sload(0x01)\n        /* \"contracts/ethBridge/MerkleTreeWithHistory.sol\":2380:2401  i = ROOT_HISTORY_SIZE */\n      swap1\n      pop\n        /* \"contracts/ethBridge/MerkleTreeWithHistory.sol\":2350:2416  if (i == 0) {... */\n    tag_225:\n        /* \"contracts/ethBridge/MerkleTreeWithHistory.sol\":2429:2432  i-- */\n      dup1\n      dup1\n      tag_226\n      swap1\n      tag_227\n      jump\t// in\n    tag_226:\n      swap2\n      pop\n      pop\n        /* \"contracts/ethBridge/MerkleTreeWithHistory.sol\":2456:2475  _currentDepositRoot */\n      dup2\n        /* \"contracts/ethBridge/MerkleTreeWithHistory.sol\":2451:2452  i */\n      dup2\n        /* \"contracts/ethBridge/MerkleTreeWithHistory.sol\":2451:2475  i != _currentDepositRoot */\n      sub\n        /* \"contracts/ethBridge/MerkleTreeWithHistory.sol\":2239:2477  do {... */\n      tag_221\n      jumpi\n        /* \"contracts/ethBridge/MerkleTreeWithHistory.sol\":2493:2498  false */\n      0x00\n        /* \"contracts/ethBridge/MerkleTreeWithHistory.sol\":2486:2498  return false */\n      swap3\n      pop\n      pop\n      pop\n        /* \"contracts/ethBridge/MerkleTreeWithHistory.sol\":1985:2505  function isKnownDepostRoot(uint256 _depositRoot) public view returns (bool) {... */\n    tag_219:\n      swap2\n      swap1\n      pop\n      jump\t// out\n        /* \"contracts/ethBridge/OraisanBridge.sol\":2413:2476  function pause() external onlyOwner {... */\n    tag_87:\n        /* \"@openzeppelin/contracts-upgradeable/access/OwnableUpgradeable.sol\":1334:1347  _checkOwner() */\n      tag_229\n        /* \"@openzeppelin/contracts-upgradeable/access/OwnableUpgradeable.sol\":1334:1345  _checkOwner */\n      tag_141\n        /* \"@openzeppelin/contracts-upgradeable/access/OwnableUpgradeable.sol\":1334:1347  _checkOwner() */\n      jump\t// in\n    tag_229:\n        /* \"contracts/ethBridge/OraisanBridge.sol\":2460:2468  _pause() */\n      tag_231\n        /* \"contracts/ethBridge/OraisanBridge.sol\":2460:2466  _pause */\n      tag_232\n        /* \"contracts/ethBridge/OraisanBridge.sol\":2460:2468  _pause() */\n      jump\t// in\n    tag_231:\n        /* \"contracts/ethBridge/OraisanBridge.sol\":2413:2476  function pause() external onlyOwner {... */\n      jump\t// out\n        /* \"@openzeppelin/contracts-upgradeable/access/OwnableUpgradeable.sol\":1441:1526  function owner() public view virtual returns (address) {... */\n    tag_89:\n        /* \"@openzeppelin/contracts-upgradeable/access/OwnableUpgradeable.sol\":1487:1494  address */\n      0x00\n        /* \"@openzeppelin/contracts-upgradeable/access/OwnableUpgradeable.sol\":1513:1519  _owner */\n      0x37\n      0x00\n      swap1\n      sload\n      swap1\n      0x0100\n      exp\n      swap1\n      div\n      0xffffffffffffffffffffffffffffffffffffffff\n      and\n        /* \"@openzeppelin/contracts-upgradeable/access/OwnableUpgradeable.sol\":1506:1519  return _owner */\n      swap1\n      pop\n        /* \"@openzeppelin/contracts-upgradeable/access/OwnableUpgradeable.sol\":1441:1526  function owner() public view virtual returns (address) {... */\n      swap1\n      jump\t// out\n        /* \"contracts/ethBridge/OraisanBridge.sol\":8107:8250  function getSupportCosmosBridge(uint160 _cosmosBridge) public view returns(bool) {... */\n    tag_93:\n        /* \"contracts/ethBridge/OraisanBridge.sol\":8182:8186  bool */\n      0x00\n        /* \"contracts/ethBridge/OraisanBridge.sol\":8206:8227  isSupportCosmosBridge */\n      0xcd\n        /* \"contracts/ethBridge/OraisanBridge.sol\":8206:8242  isSupportCosmosBridge[_cosmosBridge] */\n      0x00\n        /* \"contracts/ethBridge/OraisanBridge.sol\":8228:8241  _cosmosBridge */\n      dup4\n        /* \"contracts/ethBridge/OraisanBridge.sol\":8206:8242  isSupportCosmosBridge[_cosmosBridge] */\n      0xffffffffffffffffffffffffffffffffffffffff\n      and\n      0xffffffffffffffffffffffffffffffffffffffff\n      and\n      dup2\n      mstore\n      0x20\n      add\n      swap1\n      dup2\n      mstore\n      0x20\n      add\n      0x00\n      keccak256\n      0x00\n      swap1\n      sload\n      swap1\n      0x0100\n      exp\n      swap1\n      div\n      0xff\n      and\n        /* \"contracts/ethBridge/OraisanBridge.sol\":8199:8242  return isSupportCosmosBridge[_cosmosBridge] */\n      swap1\n      pop\n        /* \"contracts/ethBridge/OraisanBridge.sol\":8107:8250  function getSupportCosmosBridge(uint160 _cosmosBridge) public view returns(bool) {... */\n      swap2\n      swap1\n      pop\n      jump\t// out\n        /* \"contracts/ethBridge/OraisanBridge.sol\":7942:8099  function getTokenPairOfEthToken(... */\n    tag_97:\n        /* \"contracts/ethBridge/OraisanBridge.sol\":8030:8037  uint160 */\n      0x00\n        /* \"contracts/ethBridge/OraisanBridge.sol\":8057:8080  ethToCosmosTokenAddress */\n      0xcf\n        /* \"contracts/ethBridge/OraisanBridge.sol\":8057:8091  ethToCosmosTokenAddress[_ethToken] */\n      0x00\n        /* \"contracts/ethBridge/OraisanBridge.sol\":8081:8090  _ethToken */\n      dup4\n        /* \"contracts/ethBridge/OraisanBridge.sol\":8057:8091  ethToCosmosTokenAddress[_ethToken] */\n      0xffffffffffffffffffffffffffffffffffffffff\n      and\n      0xffffffffffffffffffffffffffffffffffffffff\n      and\n      dup2\n      mstore\n      0x20\n      add\n      swap1\n      dup2\n      mstore\n      0x20\n      add\n      0x00\n      keccak256\n      0x00\n      swap1\n      sload\n      swap1\n      0x0100\n      exp\n      swap1\n      div\n      0xffffffffffffffffffffffffffffffffffffffff\n      and\n        /* \"contracts/ethBridge/OraisanBridge.sol\":8050:8091  return ethToCosmosTokenAddress[_ethToken] */\n      swap1\n      pop\n        /* \"contracts/ethBridge/OraisanBridge.sol\":7942:8099  function getTokenPairOfEthToken(... */\n      swap2\n      swap1\n      pop\n      jump\t// out\n        /* \"contracts/ethBridge/MerkleTreeWithHistory.sol\":258:291  uint256 public currentDepositRoot */\n    tag_100:\n      sload(0x03)\n      dup2\n      jump\t// out\n        /* \"contracts/ethBridge/OraisanBridge.sol\":1764:1805  mapping(uint256 => bool) public isClaimed */\n    tag_104:\n      mstore(0x20, 0xd0)\n      dup1\n      0x00\n      mstore\n      keccak256(0x00, 0x40)\n      0x00\n      swap2\n      pop\n      sload\n      swap1\n      0x0100\n      exp\n      swap1\n      div\n      0xff\n      and\n      dup2\n      jump\t// out\n        /* \"contracts/ethBridge/MerkleTreeWithHistory.sol\":298:345  mapping(uint256 => uint256) public depositRoots */\n    tag_108:\n      mstore(0x20, 0x04)\n      dup1\n      0x00\n      mstore\n      keccak256(0x00, 0x40)\n      0x00\n      swap2\n      pop\n      swap1\n      pop\n      sload\n      dup2\n      jump\t// out\n        /* \"contracts/ethBridge/OraisanBridge.sol\":3971:5325  function updateRootDepositTree(... */\n    tag_113:\n        /* \"contracts/ethBridge/OraisanBridge.sol\":4103:4107  bool */\n      0x00\n        /* \"@openzeppelin/contracts-upgradeable/security/PausableUpgradeable.sol\":1482:1501  _requireNotPaused() */\n      tag_237\n        /* \"@openzeppelin/contracts-upgradeable/security/PausableUpgradeable.sol\":1482:1499  _requireNotPaused */\n      tag_145\n        /* \"@openzeppelin/contracts-upgradeable/security/PausableUpgradeable.sol\":1482:1501  _requireNotPaused() */\n      jump\t// in\n    tag_237:\n        /* \"contracts/ethBridge/OraisanBridge.sol\":4142:4163  isSupportCosmosBridge */\n      0xcd\n        /* \"contracts/ethBridge/OraisanBridge.sol\":4142:4195  isSupportCosmosBridge[_depositRootProof.cosmosBridge] */\n      0x00\n        /* \"contracts/ethBridge/OraisanBridge.sol\":4164:4181  _depositRootProof */\n      dup4\n        /* \"contracts/ethBridge/OraisanBridge.sol\":4164:4194  _depositRootProof.cosmosBridge */\n      0xa0\n      add\n      mload\n        /* \"contracts/ethBridge/OraisanBridge.sol\":4142:4195  isSupportCosmosBridge[_depositRootProof.cosmosBridge] */\n      0xffffffffffffffffffffffffffffffffffffffff\n      and\n      0xffffffffffffffffffffffffffffffffffffffff\n      and\n      dup2\n      mstore\n      0x20\n      add\n      swap1\n      dup2\n      mstore\n      0x20\n      add\n      0x00\n      keccak256\n      0x00\n      swap1\n      sload\n      swap1\n      0x0100\n      exp\n      swap1\n      div\n      0xff\n      and\n        /* \"contracts/ethBridge/OraisanBridge.sol\":4120:4249  require(... */\n      tag_239\n      jumpi\n      mload(0x40)\n      0x08c379a000000000000000000000000000000000000000000000000000000000\n      dup2\n      mstore\n      0x04\n      add\n      tag_240\n      swap1\n      tag_241\n      jump\t// in\n    tag_240:\n      mload(0x40)\n      dup1\n      swap2\n      sub\n      swap1\n      revert\n    tag_239:\n        /* \"contracts/ethBridge/OraisanBridge.sol\":4350:4380  resolve(\"COSMOS_BLOCK_HEADER\") */\n      tag_242\n      mload(0x40)\n      dup1\n      0x40\n      add\n      0x40\n      mstore\n      dup1\n      0x13\n      dup2\n      mstore\n      0x20\n      add\n      0x434f534d4f535f424c4f434b5f48454144455200000000000000000000000000\n      dup2\n      mstore\n      pop\n        /* \"contracts/ethBridge/OraisanBridge.sol\":4350:4357  resolve */\n      tag_65\n        /* \"contracts/ethBridge/OraisanBridge.sol\":4350:4380  resolve(\"COSMOS_BLOCK_HEADER\") */\n      jump\t// in\n    tag_242:\n        /* \"contracts/ethBridge/OraisanBridge.sol\":4331:4422  ICosmosBlockHeader(resolve(\"COSMOS_BLOCK_HEADER\"))... */\n      0xffffffffffffffffffffffffffffffffffffffff\n      and\n      0x6096ade0\n        /* \"contracts/ethBridge/OraisanBridge.sol\":4331:4424  ICosmosBlockHeader(resolve(\"COSMOS_BLOCK_HEADER\"))... */\n      mload(0x40)\n      dup2\n      0xffffffff\n      and\n      0xe0\n      shl\n      dup2\n      mstore\n      0x04\n      add\n      0x20\n      mload(0x40)\n      dup1\n      dup4\n      sub\n      dup2\n      dup7\n      gas\n      staticcall\n      iszero\n      dup1\n      iszero\n      tag_244\n      jumpi\n      returndatasize\n      0x00\n      dup1\n      returndatacopy\n      revert(0x00, returndatasize)\n    tag_244:\n      pop\n      pop\n      pop\n      pop\n      mload(0x40)\n      returndatasize\n      not(0x1f)\n      0x1f\n      dup3\n      add\n      and\n      dup3\n      add\n      dup1\n      0x40\n      mstore\n      pop\n      dup2\n      add\n      swap1\n      tag_245\n      swap2\n      swap1\n      tag_246\n      jump\t// in\n    tag_245:\n        /* \"contracts/ethBridge/OraisanBridge.sol\":4284:4424  _depositRootProof.dataHash ==... */\n      0xffffffffffffffffffffffffffffffffffffffff\n      and\n        /* \"contracts/ethBridge/OraisanBridge.sol\":4284:4301  _depositRootProof */\n      dup3\n        /* \"contracts/ethBridge/OraisanBridge.sol\":4284:4310  _depositRootProof.dataHash */\n      0xe0\n      add\n      mload\n        /* \"contracts/ethBridge/OraisanBridge.sol\":4284:4424  _depositRootProof.dataHash ==... */\n      0xffffffffffffffffffffffffffffffffffffffff\n      and\n      eq\n        /* \"contracts/ethBridge/OraisanBridge.sol\":4262:4473  require(... */\n      tag_247\n      jumpi\n      mload(0x40)\n      0x08c379a000000000000000000000000000000000000000000000000000000000\n      dup2\n      mstore\n      0x04\n      add\n      tag_248\n      swap1\n      tag_249\n      jump\t// in\n    tag_248:\n      mload(0x40)\n      dup1\n      swap2\n      sub\n      swap1\n      revert\n    tag_247:\n        /* \"contracts/ethBridge/OraisanBridge.sol\":4486:4510  string memory optionName */\n      0x00\n        /* \"contracts/ethBridge/OraisanBridge.sol\":4513:4530  _depositRootProof */\n      dup3\n        /* \"contracts/ethBridge/OraisanBridge.sol\":4513:4541  _depositRootProof.optionName */\n      0x00\n      add\n      mload\n        /* \"contracts/ethBridge/OraisanBridge.sol\":4486:4541  string memory optionName = _depositRootProof.optionName */\n      swap1\n      pop\n        /* \"contracts/ethBridge/OraisanBridge.sol\":4552:4571  uint[2] memory pi_a */\n      0x00\n        /* \"contracts/ethBridge/OraisanBridge.sol\":4574:4591  _depositRootProof */\n      dup4\n        /* \"contracts/ethBridge/OraisanBridge.sol\":4574:4596  _depositRootProof.pi_a */\n      0x20\n      add\n      mload\n        /* \"contracts/ethBridge/OraisanBridge.sol\":4552:4596  uint[2] memory pi_a = _depositRootProof.pi_a */\n      swap1\n      pop\n        /* \"contracts/ethBridge/OraisanBridge.sol\":4607:4629  uint[2][2] memory pi_b */\n      0x00\n        /* \"contracts/ethBridge/OraisanBridge.sol\":4632:4649  _depositRootProof */\n      dup5\n        /* \"contracts/ethBridge/OraisanBridge.sol\":4632:4654  _depositRootProof.pi_b */\n      0x40\n      add\n      mload\n        /* \"contracts/ethBridge/OraisanBridge.sol\":4607:4654  uint[2][2] memory pi_b = _depositRootProof.pi_b */\n      swap1\n      pop\n        /* \"contracts/ethBridge/OraisanBridge.sol\":4665:4684  uint[2] memory pi_c */\n      0x00\n        /* \"contracts/ethBridge/OraisanBridge.sol\":4687:4704  _depositRootProof */\n      dup6\n        /* \"contracts/ethBridge/OraisanBridge.sol\":4687:4709  _depositRootProof.pi_c */\n      0x60\n      add\n      mload\n        /* \"contracts/ethBridge/OraisanBridge.sol\":4665:4709  uint[2] memory pi_c = _depositRootProof.pi_c */\n      swap1\n      pop\n        /* \"contracts/ethBridge/OraisanBridge.sol\":4720:4742  uint256[] memory input */\n      0x00\n        /* \"contracts/ethBridge/OraisanBridge.sol\":4759:4760  4 */\n      0x04\n        /* \"contracts/ethBridge/OraisanBridge.sol\":4745:4761  new uint256[](4) */\n      0xffffffffffffffff\n      dup2\n      gt\n      iszero\n      tag_250\n      jumpi\n      tag_251\n      tag_182\n      jump\t// in\n    tag_251:\n    tag_250:\n      mload(0x40)\n      swap1\n      dup1\n      dup3\n      mstore\n      dup1\n      0x20\n      mul\n      0x20\n      add\n      dup3\n      add\n      0x40\n      mstore\n      dup1\n      iszero\n      tag_252\n      jumpi\n      dup2\n      0x20\n      add\n      0x20\n      dup3\n      mul\n      dup1\n      calldatasize\n      dup4\n      calldatacopy\n      dup1\n      dup3\n      add\n      swap2\n      pop\n      pop\n      swap1\n      pop\n    tag_252:\n      pop\n        /* \"contracts/ethBridge/OraisanBridge.sol\":4720:4761  uint256[] memory input = new uint256[](4) */\n      swap1\n      pop\n        /* \"contracts/ethBridge/OraisanBridge.sol\":4793:4810  _depositRootProof */\n      dup7\n        /* \"contracts/ethBridge/OraisanBridge.sol\":4793:4823  _depositRootProof.cosmosSender */\n      0x80\n      add\n      mload\n        /* \"contracts/ethBridge/OraisanBridge.sol\":4785:4824  uint256(_depositRootProof.cosmosSender) */\n      0xffffffffffffffffffffffffffffffffffffffff\n      and\n        /* \"contracts/ethBridge/OraisanBridge.sol\":4774:4779  input */\n      dup2\n        /* \"contracts/ethBridge/OraisanBridge.sol\":4780:4781  0 */\n      0x00\n        /* \"contracts/ethBridge/OraisanBridge.sol\":4774:4782  input[0] */\n      dup2\n      mload\n      dup2\n      lt\n      tag_253\n      jumpi\n      tag_254\n      tag_186\n      jump\t// in\n    tag_254:\n    tag_253:\n      0x20\n      mul\n      0x20\n      add\n      add\n        /* \"contracts/ethBridge/OraisanBridge.sol\":4774:4824  input[0] = uint256(_depositRootProof.cosmosSender) */\n      dup2\n      dup2\n      mstore\n      pop\n      pop\n        /* \"contracts/ethBridge/OraisanBridge.sol\":4854:4871  _depositRootProof */\n      dup7\n        /* \"contracts/ethBridge/OraisanBridge.sol\":4854:4884  _depositRootProof.cosmosBridge */\n      0xa0\n      add\n      mload\n        /* \"contracts/ethBridge/OraisanBridge.sol\":4846:4885  uint256(_depositRootProof.cosmosBridge) */\n      0xffffffffffffffffffffffffffffffffffffffff\n      and\n        /* \"contracts/ethBridge/OraisanBridge.sol\":4835:4840  input */\n      dup2\n        /* \"contracts/ethBridge/OraisanBridge.sol\":4841:4842  1 */\n      0x01\n        /* \"contracts/ethBridge/OraisanBridge.sol\":4835:4843  input[1] */\n      dup2\n      mload\n      dup2\n      lt\n      tag_255\n      jumpi\n      tag_256\n      tag_186\n      jump\t// in\n    tag_256:\n    tag_255:\n      0x20\n      mul\n      0x20\n      add\n      add\n        /* \"contracts/ethBridge/OraisanBridge.sol\":4835:4885  input[1] = uint256(_depositRootProof.cosmosBridge) */\n      dup2\n      dup2\n      mstore\n      pop\n      pop\n        /* \"contracts/ethBridge/OraisanBridge.sol\":4907:4924  _depositRootProof */\n      dup7\n        /* \"contracts/ethBridge/OraisanBridge.sol\":4907:4936  _depositRootProof.depositRoot */\n      0xc0\n      add\n      mload\n        /* \"contracts/ethBridge/OraisanBridge.sol\":4896:4901  input */\n      dup2\n        /* \"contracts/ethBridge/OraisanBridge.sol\":4902:4903  2 */\n      0x02\n        /* \"contracts/ethBridge/OraisanBridge.sol\":4896:4904  input[2] */\n      dup2\n      mload\n      dup2\n      lt\n      tag_257\n      jumpi\n      tag_258\n      tag_186\n      jump\t// in\n    tag_258:\n    tag_257:\n      0x20\n      mul\n      0x20\n      add\n      add\n        /* \"contracts/ethBridge/OraisanBridge.sol\":4896:4936  input[2] = _depositRootProof.depositRoot */\n      dup2\n      dup2\n      mstore\n      pop\n      pop\n        /* \"contracts/ethBridge/OraisanBridge.sol\":4966:4983  _depositRootProof */\n      dup7\n        /* \"contracts/ethBridge/OraisanBridge.sol\":4966:4992  _depositRootProof.dataHash */\n      0xe0\n      add\n      mload\n        /* \"contracts/ethBridge/OraisanBridge.sol\":4958:4993  uint256(_depositRootProof.dataHash) */\n      0xffffffffffffffffffffffffffffffffffffffff\n      and\n        /* \"contracts/ethBridge/OraisanBridge.sol\":4947:4952  input */\n      dup2\n        /* \"contracts/ethBridge/OraisanBridge.sol\":4953:4954  3 */\n      0x03\n        /* \"contracts/ethBridge/OraisanBridge.sol\":4947:4955  input[3] */\n      dup2\n      mload\n      dup2\n      lt\n      tag_259\n      jumpi\n      tag_260\n      tag_186\n      jump\t// in\n    tag_260:\n    tag_259:\n      0x20\n      mul\n      0x20\n      add\n      add\n        /* \"contracts/ethBridge/OraisanBridge.sol\":4947:4993  input[3] = uint256(_depositRootProof.dataHash) */\n      dup2\n      dup2\n      mstore\n      pop\n      pop\n        /* \"contracts/ethBridge/OraisanBridge.sol\":5046:5065  resolve(optionName) */\n      tag_261\n        /* \"contracts/ethBridge/OraisanBridge.sol\":5054:5064  optionName */\n      dup6\n        /* \"contracts/ethBridge/OraisanBridge.sol\":5046:5053  resolve */\n      tag_65\n        /* \"contracts/ethBridge/OraisanBridge.sol\":5046:5065  resolve(optionName) */\n      jump\t// in\n    tag_261:\n        /* \"contracts/ethBridge/OraisanBridge.sol\":5036:5078  IVerifier(resolve(optionName)).verifyProof */\n      0xffffffffffffffffffffffffffffffffffffffff\n      and\n      0xc32e370e\n        /* \"contracts/ethBridge/OraisanBridge.sol\":5079:5083  pi_a */\n      dup6\n        /* \"contracts/ethBridge/OraisanBridge.sol\":5085:5089  pi_b */\n      dup6\n        /* \"contracts/ethBridge/OraisanBridge.sol\":5091:5095  pi_c */\n      dup6\n        /* \"contracts/ethBridge/OraisanBridge.sol\":5097:5102  input */\n      dup6\n        /* \"contracts/ethBridge/OraisanBridge.sol\":5036:5103  IVerifier(resolve(optionName)).verifyProof(pi_a, pi_b, pi_c, input) */\n      mload(0x40)\n      dup6\n      0xffffffff\n      and\n      0xe0\n      shl\n      dup2\n      mstore\n      0x04\n      add\n      tag_262\n      swap5\n      swap4\n      swap3\n      swap2\n      swap1\n      tag_197\n      jump\t// in\n    tag_262:\n      0x20\n      mload(0x40)\n      dup1\n      dup4\n      sub\n      dup2\n      dup7\n      gas\n      staticcall\n      iszero\n      dup1\n      iszero\n      tag_264\n      jumpi\n      returndatasize\n      0x00\n      dup1\n      returndatacopy\n      revert(0x00, returndatasize)\n    tag_264:\n      pop\n      pop\n      pop\n      pop\n      mload(0x40)\n      returndatasize\n      not(0x1f)\n      0x1f\n      dup3\n      add\n      and\n      dup3\n      add\n      dup1\n      0x40\n      mstore\n      pop\n      dup2\n      add\n      swap1\n      tag_265\n      swap2\n      swap1\n      tag_201\n      jump\t// in\n    tag_265:\n        /* \"contracts/ethBridge/OraisanBridge.sol\":5014:5156  require(... */\n      tag_266\n      jumpi\n      mload(0x40)\n      0x08c379a000000000000000000000000000000000000000000000000000000000\n      dup2\n      mstore\n      0x04\n      add\n      tag_267\n      swap1\n      tag_204\n      jump\t// in\n    tag_267:\n      mload(0x40)\n      dup1\n      swap2\n      sub\n      swap1\n      revert\n    tag_266:\n        /* \"contracts/ethBridge/OraisanBridge.sol\":5169:5182  bool isInsert */\n      0x00\n        /* \"contracts/ethBridge/OraisanBridge.sol\":5185:5223  _insert(_depositRootProof.depositRoot) */\n      tag_268\n        /* \"contracts/ethBridge/OraisanBridge.sol\":5193:5210  _depositRootProof */\n      dup9\n        /* \"contracts/ethBridge/OraisanBridge.sol\":5193:5222  _depositRootProof.depositRoot */\n      0xc0\n      add\n      mload\n        /* \"contracts/ethBridge/OraisanBridge.sol\":5185:5192  _insert */\n      tag_269\n        /* \"contracts/ethBridge/OraisanBridge.sol\":5185:5223  _insert(_depositRootProof.depositRoot) */\n      jump\t// in\n    tag_268:\n        /* \"contracts/ethBridge/OraisanBridge.sol\":5169:5223  bool isInsert = _insert(_depositRootProof.depositRoot) */\n      swap1\n      pop\n        /* \"contracts/ethBridge/OraisanBridge.sol\":5268:5273  input */\n      dup2\n        /* \"contracts/ethBridge/OraisanBridge.sol\":5241:5291  UpdateDepositRootCompleted(input, block.timestamp) */\n      mload(0x40)\n      tag_270\n      swap2\n      swap1\n      tag_211\n      jump\t// in\n    tag_270:\n      mload(0x40)\n      dup1\n      swap2\n      sub\n      swap1\n      keccak256\n      0xb863fd571fb24a5c7ec2e5259d558b03685336f31dcbf081507d6c4254bed305\n        /* \"contracts/ethBridge/OraisanBridge.sol\":5275:5290  block.timestamp */\n      timestamp\n        /* \"contracts/ethBridge/OraisanBridge.sol\":5241:5291  UpdateDepositRootCompleted(input, block.timestamp) */\n      mload(0x40)\n      tag_271\n      swap2\n      swap1\n      tag_51\n      jump\t// in\n    tag_271:\n      mload(0x40)\n      dup1\n      swap2\n      sub\n      swap1\n      log2\n        /* \"contracts/ethBridge/OraisanBridge.sol\":5309:5317  isInsert */\n      dup1\n        /* \"contracts/ethBridge/OraisanBridge.sol\":5302:5317  return isInsert */\n      swap7\n      pop\n      pop\n      pop\n      pop\n      pop\n      pop\n      pop\n        /* \"contracts/ethBridge/OraisanBridge.sol\":3971:5325  function updateRootDepositTree(... */\n      swap2\n      swap1\n      pop\n      jump\t// out\n        /* \"contracts/ethBridge/OraisanBridge.sol\":2484:2559  function unpauseContract() external onlyOwner {... */\n    tag_116:\n        /* \"@openzeppelin/contracts-upgradeable/access/OwnableUpgradeable.sol\":1334:1347  _checkOwner() */\n      tag_273\n        /* \"@openzeppelin/contracts-upgradeable/access/OwnableUpgradeable.sol\":1334:1345  _checkOwner */\n      tag_141\n        /* \"@openzeppelin/contracts-upgradeable/access/OwnableUpgradeable.sol\":1334:1347  _checkOwner() */\n      jump\t// in\n    tag_273:\n        /* \"contracts/ethBridge/OraisanBridge.sol\":2541:2551  _unpause() */\n      tag_275\n        /* \"contracts/ethBridge/OraisanBridge.sol\":2541:2549  _unpause */\n      tag_276\n        /* \"contracts/ethBridge/OraisanBridge.sol\":2541:2551  _unpause() */\n      jump\t// in\n    tag_275:\n        /* \"contracts/ethBridge/OraisanBridge.sol\":2484:2559  function unpauseContract() external onlyOwner {... */\n      jump\t// out\n        /* \"contracts/ethBridge/OraisanBridge.sol\":1634:1692  mapping(uint160 => address) public cosmosToEthTokenAddress */\n    tag_119:\n      mstore(0x20, 0xce)\n      dup1\n      0x00\n      mstore\n      keccak256(0x00, 0x40)\n      0x00\n      swap2\n      pop\n      sload\n      swap1\n      0x0100\n      exp\n      swap1\n      div\n      0xffffffffffffffffffffffffffffffffffffffff\n      and\n      dup2\n      jump\t// out\n        /* \"contracts/ethBridge/OraisanBridge.sol\":1818:2363  function initialize(... */\n    tag_124:\n        /* \"@openzeppelin/contracts-upgradeable/proxy/utils/Initializable.sol\":3268:3287  bool isTopLevelCall */\n      0x00\n        /* \"@openzeppelin/contracts-upgradeable/proxy/utils/Initializable.sol\":3291:3304  _initializing */\n      dup1\n      0x01\n      swap1\n      sload\n      swap1\n      0x0100\n      exp\n      swap1\n      div\n      0xff\n      and\n        /* \"@openzeppelin/contracts-upgradeable/proxy/utils/Initializable.sol\":3290:3304  !_initializing */\n      iszero\n        /* \"@openzeppelin/contracts-upgradeable/proxy/utils/Initializable.sol\":3268:3304  bool isTopLevelCall = !_initializing */\n      swap1\n      pop\n        /* \"@openzeppelin/contracts-upgradeable/proxy/utils/Initializable.sol\":3336:3350  isTopLevelCall */\n      dup1\n        /* \"@openzeppelin/contracts-upgradeable/proxy/utils/Initializable.sol\":3336:3370  isTopLevelCall && _initialized < 1 */\n      dup1\n      iszero\n      tag_278\n      jumpi\n      pop\n        /* \"@openzeppelin/contracts-upgradeable/proxy/utils/Initializable.sol\":3369:3370  1 */\n      0x01\n        /* \"@openzeppelin/contracts-upgradeable/proxy/utils/Initializable.sol\":3354:3366  _initialized */\n      0x00\n      dup1\n      sload\n      swap1\n      0x0100\n      exp\n      swap1\n      div\n      0xff\n      and\n        /* \"@openzeppelin/contracts-upgradeable/proxy/utils/Initializable.sol\":3354:3370  _initialized < 1 */\n      0xff\n      and\n      lt\n        /* \"@openzeppelin/contracts-upgradeable/proxy/utils/Initializable.sol\":3336:3370  isTopLevelCall && _initialized < 1 */\n    tag_278:\n        /* \"@openzeppelin/contracts-upgradeable/proxy/utils/Initializable.sol\":3335:3443  (isTopLevelCall && _initialized < 1) || (!AddressUpgradeable.isContract(address(this)) && _initialized == 1) */\n      dup1\n      tag_279\n      jumpi\n      pop\n        /* \"@openzeppelin/contracts-upgradeable/proxy/utils/Initializable.sol\":3377:3421  AddressUpgradeable.isContract(address(this)) */\n      tag_280\n        /* \"@openzeppelin/contracts-upgradeable/proxy/utils/Initializable.sol\":3415:3419  this */\n      address\n        /* \"@openzeppelin/contracts-upgradeable/proxy/utils/Initializable.sol\":3377:3406  AddressUpgradeable.isContract */\n      tag_281\n        /* \"@openzeppelin/contracts-upgradeable/proxy/utils/Initializable.sol\":3377:3421  AddressUpgradeable.isContract(address(this)) */\n      jump\t// in\n    tag_280:\n        /* \"@openzeppelin/contracts-upgradeable/proxy/utils/Initializable.sol\":3376:3421  !AddressUpgradeable.isContract(address(this)) */\n      iszero\n        /* \"@openzeppelin/contracts-upgradeable/proxy/utils/Initializable.sol\":3376:3442  !AddressUpgradeable.isContract(address(this)) && _initialized == 1 */\n      dup1\n      iszero\n      tag_282\n      jumpi\n      pop\n        /* \"@openzeppelin/contracts-upgradeable/proxy/utils/Initializable.sol\":3441:3442  1 */\n      0x01\n        /* \"@openzeppelin/contracts-upgradeable/proxy/utils/Initializable.sol\":3425:3437  _initialized */\n      0x00\n      dup1\n      sload\n      swap1\n      0x0100\n      exp\n      swap1\n      div\n      0xff\n      and\n        /* \"@openzeppelin/contracts-upgradeable/proxy/utils/Initializable.sol\":3425:3442  _initialized == 1 */\n      0xff\n      and\n      eq\n        /* \"@openzeppelin/contracts-upgradeable/proxy/utils/Initializable.sol\":3376:3442  !AddressUpgradeable.isContract(address(this)) && _initialized == 1 */\n    tag_282:\n        /* \"@openzeppelin/contracts-upgradeable/proxy/utils/Initializable.sol\":3335:3443  (isTopLevelCall && _initialized < 1) || (!AddressUpgradeable.isContract(address(this)) && _initialized == 1) */\n    tag_279:\n        /* \"@openzeppelin/contracts-upgradeable/proxy/utils/Initializable.sol\":3314:3515  require(... */\n      tag_283\n      jumpi\n      mload(0x40)\n      0x08c379a000000000000000000000000000000000000000000000000000000000\n      dup2\n      mstore\n      0x04\n      add\n      tag_284\n      swap1\n      tag_285\n      jump\t// in\n    tag_284:\n      mload(0x40)\n      dup1\n      swap2\n      sub\n      swap1\n      revert\n    tag_283:\n        /* \"@openzeppelin/contracts-upgradeable/proxy/utils/Initializable.sol\":3540:3541  1 */\n      0x01\n        /* \"@openzeppelin/contracts-upgradeable/proxy/utils/Initializable.sol\":3525:3537  _initialized */\n      0x00\n      dup1\n        /* \"@openzeppelin/contracts-upgradeable/proxy/utils/Initializable.sol\":3525:3541  _initialized = 1 */\n      0x0100\n      exp\n      dup2\n      sload\n      dup2\n      0xff\n      mul\n      not\n      and\n      swap1\n      dup4\n      0xff\n      and\n      mul\n      or\n      swap1\n      sstore\n      pop\n        /* \"@openzeppelin/contracts-upgradeable/proxy/utils/Initializable.sol\":3555:3569  isTopLevelCall */\n      dup1\n        /* \"@openzeppelin/contracts-upgradeable/proxy/utils/Initializable.sol\":3551:3616  if (isTopLevelCall) {... */\n      iszero\n      tag_286\n      jumpi\n        /* \"@openzeppelin/contracts-upgradeable/proxy/utils/Initializable.sol\":3601:3605  true */\n      0x01\n        /* \"@openzeppelin/contracts-upgradeable/proxy/utils/Initializable.sol\":3585:3598  _initializing */\n      0x00\n      0x01\n        /* \"@openzeppelin/contracts-upgradeable/proxy/utils/Initializable.sol\":3585:3605  _initializing = true */\n      0x0100\n      exp\n      dup2\n      sload\n      dup2\n      0xff\n      mul\n      not\n      and\n      swap1\n      dup4\n      iszero\n      iszero\n      mul\n      or\n      swap1\n      sstore\n      pop\n        /* \"@openzeppelin/contracts-upgradeable/proxy/utils/Initializable.sol\":3551:3616  if (isTopLevelCall) {... */\n    tag_286:\n        /* \"contracts/ethBridge/OraisanBridge.sol\":1979:1980  0 */\n      0x00\n        /* \"contracts/ethBridge/OraisanBridge.sol\":1969:1975  levels */\n      sload(0x02)\n        /* \"contracts/ethBridge/OraisanBridge.sol\":1969:1980  levels == 0 */\n      eq\n        /* \"contracts/ethBridge/OraisanBridge.sol\":1969:2024  levels == 0 && address(libAddressManager) == address(0) */\n      dup1\n      iszero\n      tag_288\n      jumpi\n      pop\n        /* \"contracts/ethBridge/OraisanBridge.sol\":2022:2023  0 */\n      0x00\n        /* \"contracts/ethBridge/OraisanBridge.sol\":1984:2024  address(libAddressManager) == address(0) */\n      0xffffffffffffffffffffffffffffffffffffffff\n      and\n        /* \"contracts/ethBridge/OraisanBridge.sol\":1992:2009  libAddressManager */\n      0x00\n      0x02\n      swap1\n      sload\n      swap1\n      0x0100\n      exp\n      swap1\n      div\n      0xffffffffffffffffffffffffffffffffffffffff\n      and\n        /* \"contracts/ethBridge/OraisanBridge.sol\":1984:2024  address(libAddressManager) == address(0) */\n      0xffffffffffffffffffffffffffffffffffffffff\n      and\n      eq\n        /* \"contracts/ethBridge/OraisanBridge.sol\":1969:2024  levels == 0 && address(libAddressManager) == address(0) */\n    tag_288:\n        /* \"contracts/ethBridge/OraisanBridge.sol\":1947:2081  require(... */\n      tag_289\n      jumpi\n      mload(0x40)\n      0x08c379a000000000000000000000000000000000000000000000000000000000\n      dup2\n      mstore\n      0x04\n      add\n      tag_290\n      swap1\n      tag_291\n      jump\t// in\n    tag_290:\n      mload(0x40)\n      dup1\n      swap2\n      sub\n      swap1\n      revert\n    tag_289:\n        /* \"contracts/ethBridge/OraisanBridge.sol\":2094:2140  __Lib_AddressResolver_init(_libAddressManager) */\n      tag_292\n        /* \"contracts/ethBridge/OraisanBridge.sol\":2121:2139  _libAddressManager */\n      dup4\n        /* \"contracts/ethBridge/OraisanBridge.sol\":2094:2120  __Lib_AddressResolver_init */\n      tag_293\n        /* \"contracts/ethBridge/OraisanBridge.sol\":2094:2140  __Lib_AddressResolver_init(_libAddressManager) */\n      jump\t// in\n    tag_292:\n        /* \"contracts/ethBridge/OraisanBridge.sol\":2151:2198  __MerkleTreeWithHistory_init(_merkleTreeHeight) */\n      tag_294\n        /* \"contracts/ethBridge/OraisanBridge.sol\":2180:2197  _merkleTreeHeight */\n      dup3\n        /* \"contracts/ethBridge/OraisanBridge.sol\":2151:2198  __MerkleTreeWithHistory_init(_merkleTreeHeight) */\n      0xffffffff\n      and\n        /* \"contracts/ethBridge/OraisanBridge.sol\":2151:2179  __MerkleTreeWithHistory_init */\n      tag_295\n        /* \"contracts/ethBridge/OraisanBridge.sol\":2151:2198  __MerkleTreeWithHistory_init(_merkleTreeHeight) */\n      jump\t// in\n    tag_294:\n        /* \"contracts/ethBridge/OraisanBridge.sol\":2209:2235  __Context_init_unchained() */\n      tag_296\n        /* \"contracts/ethBridge/OraisanBridge.sol\":2209:2233  __Context_init_unchained */\n      tag_297\n        /* \"contracts/ethBridge/OraisanBridge.sol\":2209:2235  __Context_init_unchained() */\n      jump\t// in\n    tag_296:\n        /* \"contracts/ethBridge/OraisanBridge.sol\":2246:2272  __Ownable_init_unchained() */\n      tag_298\n        /* \"contracts/ethBridge/OraisanBridge.sol\":2246:2270  __Ownable_init_unchained */\n      tag_299\n        /* \"contracts/ethBridge/OraisanBridge.sol\":2246:2272  __Ownable_init_unchained() */\n      jump\t// in\n    tag_298:\n        /* \"contracts/ethBridge/OraisanBridge.sol\":2283:2310  __Pausable_init_unchained() */\n      tag_300\n        /* \"contracts/ethBridge/OraisanBridge.sol\":2283:2308  __Pausable_init_unchained */\n      tag_301\n        /* \"contracts/ethBridge/OraisanBridge.sol\":2283:2310  __Pausable_init_unchained() */\n      jump\t// in\n    tag_300:\n        /* \"contracts/ethBridge/OraisanBridge.sol\":2321:2355  __ReentrancyGuard_init_unchained() */\n      tag_302\n        /* \"contracts/ethBridge/OraisanBridge.sol\":2321:2353  __ReentrancyGuard_init_unchained */\n      tag_303\n        /* \"contracts/ethBridge/OraisanBridge.sol\":2321:2355  __ReentrancyGuard_init_unchained() */\n      jump\t// in\n    tag_302:\n        /* \"@openzeppelin/contracts-upgradeable/proxy/utils/Initializable.sol\":3640:3654  isTopLevelCall */\n      dup1\n        /* \"@openzeppelin/contracts-upgradeable/proxy/utils/Initializable.sol\":3636:3735  if (isTopLevelCall) {... */\n      iszero\n      tag_304\n      jumpi\n        /* \"@openzeppelin/contracts-upgradeable/proxy/utils/Initializable.sol\":3686:3691  false */\n      0x00\n        /* \"@openzeppelin/contracts-upgradeable/proxy/utils/Initializable.sol\":3670:3683  _initializing */\n      dup1\n      0x01\n        /* \"@openzeppelin/contracts-upgradeable/proxy/utils/Initializable.sol\":3670:3691  _initializing = false */\n      0x0100\n      exp\n      dup2\n      sload\n      dup2\n      0xff\n      mul\n      not\n      and\n      swap1\n      dup4\n      iszero\n      iszero\n      mul\n      or\n      swap1\n      sstore\n      pop\n        /* \"@openzeppelin/contracts-upgradeable/proxy/utils/Initializable.sol\":3710:3724  Initialized(1) */\n      0x7f26b83ff96e1f2b6a682f133852f6798a09c465da95921460cefb3847402498\n        /* \"@openzeppelin/contracts-upgradeable/proxy/utils/Initializable.sol\":3722:3723  1 */\n      0x01\n        /* \"@openzeppelin/contracts-upgradeable/proxy/utils/Initializable.sol\":3710:3724  Initialized(1) */\n      mload(0x40)\n      tag_305\n      swap2\n      swap1\n      tag_306\n      jump\t// in\n    tag_305:\n      mload(0x40)\n      dup1\n      swap2\n      sub\n      swap1\n      log1\n        /* \"@openzeppelin/contracts-upgradeable/proxy/utils/Initializable.sol\":3636:3735  if (isTopLevelCall) {... */\n    tag_304:\n        /* \"@openzeppelin/contracts-upgradeable/proxy/utils/Initializable.sol\":3258:3741  {... */\n      pop\n        /* \"contracts/ethBridge/OraisanBridge.sol\":1818:2363  function initialize(... */\n      pop\n      pop\n      jump\t// out\n        /* \"contracts/ethBridge/MerkleTreeWithHistory.sol\":192:224  uint256 public ROOT_HISTORY_SIZE */\n    tag_126:\n      sload(0x01)\n      dup2\n      jump\t// out\n        /* \"contracts/ethBridge/OraisanBridge.sol\":1574:1627  mapping(uint160 => bool) public isSupportCosmosBridge */\n    tag_130:\n      mstore(0x20, 0xcd)\n      dup1\n      0x00\n      mstore\n      keccak256(0x00, 0x40)\n      0x00\n      swap2\n      pop\n      sload\n      swap1\n      0x0100\n      exp\n      swap1\n      div\n      0xff\n      and\n      dup2\n      jump\t// out\n        /* \"contracts/ethBridge/OraisanBridge.sol\":7768:7934  function getTokenPairOfCosmosToken(... */\n    tag_134:\n        /* \"contracts/ethBridge/OraisanBridge.sol\":7862:7869  address */\n      0x00\n        /* \"contracts/ethBridge/OraisanBridge.sol\":7889:7912  cosmosToEthTokenAddress */\n      0xce\n        /* \"contracts/ethBridge/OraisanBridge.sol\":7889:7926  cosmosToEthTokenAddress[_cosmosToken] */\n      0x00\n        /* \"contracts/ethBridge/OraisanBridge.sol\":7913:7925  _cosmosToken */\n      dup4\n        /* \"contracts/ethBridge/OraisanBridge.sol\":7889:7926  cosmosToEthTokenAddress[_cosmosToken] */\n      0xffffffffffffffffffffffffffffffffffffffff\n      and\n      0xffffffffffffffffffffffffffffffffffffffff\n      and\n      dup2\n      mstore\n      0x20\n      add\n      swap1\n      dup2\n      mstore\n      0x20\n      add\n      0x00\n      keccak256\n      0x00\n      swap1\n      sload\n      swap1\n      0x0100\n      exp\n      swap1\n      div\n      0xffffffffffffffffffffffffffffffffffffffff\n      and\n        /* \"contracts/ethBridge/OraisanBridge.sol\":7882:7926  return cosmosToEthTokenAddress[_cosmosToken] */\n      swap1\n      pop\n        /* \"contracts/ethBridge/OraisanBridge.sol\":7768:7934  function getTokenPairOfCosmosToken(... */\n      swap2\n      swap1\n      pop\n      jump\t// out\n        /* \"@openzeppelin/contracts-upgradeable/access/OwnableUpgradeable.sol\":2321:2519  function transferOwnership(address newOwner) public virtual onlyOwner {... */\n    tag_138:\n        /* \"@openzeppelin/contracts-upgradeable/access/OwnableUpgradeable.sol\":1334:1347  _checkOwner() */\n      tag_309\n        /* \"@openzeppelin/contracts-upgradeable/access/OwnableUpgradeable.sol\":1334:1345  _checkOwner */\n      tag_141\n        /* \"@openzeppelin/contracts-upgradeable/access/OwnableUpgradeable.sol\":1334:1347  _checkOwner() */\n      jump\t// in\n    tag_309:\n        /* \"@openzeppelin/contracts-upgradeable/access/OwnableUpgradeable.sol\":2429:2430  0 */\n      0x00\n        /* \"@openzeppelin/contracts-upgradeable/access/OwnableUpgradeable.sol\":2409:2431  newOwner != address(0) */\n      0xffffffffffffffffffffffffffffffffffffffff\n      and\n        /* \"@openzeppelin/contracts-upgradeable/access/OwnableUpgradeable.sol\":2409:2417  newOwner */\n      dup2\n        /* \"@openzeppelin/contracts-upgradeable/access/OwnableUpgradeable.sol\":2409:2431  newOwner != address(0) */\n      0xffffffffffffffffffffffffffffffffffffffff\n      and\n      sub\n        /* \"@openzeppelin/contracts-upgradeable/access/OwnableUpgradeable.sol\":2401:2474  require(newOwner != address(0), \"Ownable: new owner is the zero address\") */\n      tag_311\n      jumpi\n      mload(0x40)\n      0x08c379a000000000000000000000000000000000000000000000000000000000\n      dup2\n      mstore\n      0x04\n      add\n      tag_312\n      swap1\n      tag_313\n      jump\t// in\n    tag_312:\n      mload(0x40)\n      dup1\n      swap2\n      sub\n      swap1\n      revert\n    tag_311:\n        /* \"@openzeppelin/contracts-upgradeable/access/OwnableUpgradeable.sol\":2484:2512  _transferOwnership(newOwner) */\n      tag_314\n        /* \"@openzeppelin/contracts-upgradeable/access/OwnableUpgradeable.sol\":2503:2511  newOwner */\n      dup2\n        /* \"@openzeppelin/contracts-upgradeable/access/OwnableUpgradeable.sol\":2484:2502  _transferOwnership */\n      tag_218\n        /* \"@openzeppelin/contracts-upgradeable/access/OwnableUpgradeable.sol\":2484:2512  _transferOwnership(newOwner) */\n      jump\t// in\n    tag_314:\n        /* \"@openzeppelin/contracts-upgradeable/access/OwnableUpgradeable.sol\":2321:2519  function transferOwnership(address newOwner) public virtual onlyOwner {... */\n      pop\n      jump\t// out\n        /* \"@openzeppelin/contracts-upgradeable/access/OwnableUpgradeable.sol\":1599:1729  function _checkOwner() internal view virtual {... */\n    tag_141:\n        /* \"@openzeppelin/contracts-upgradeable/access/OwnableUpgradeable.sol\":1673:1685  _msgSender() */\n      tag_316\n        /* \"@openzeppelin/contracts-upgradeable/access/OwnableUpgradeable.sol\":1673:1683  _msgSender */\n      tag_317\n        /* \"@openzeppelin/contracts-upgradeable/access/OwnableUpgradeable.sol\":1673:1685  _msgSender() */\n      jump\t// in\n    tag_316:\n        /* \"@openzeppelin/contracts-upgradeable/access/OwnableUpgradeable.sol\":1662:1685  owner() == _msgSender() */\n      0xffffffffffffffffffffffffffffffffffffffff\n      and\n        /* \"@openzeppelin/contracts-upgradeable/access/OwnableUpgradeable.sol\":1662:1669  owner() */\n      tag_318\n        /* \"@openzeppelin/contracts-upgradeable/access/OwnableUpgradeable.sol\":1662:1667  owner */\n      tag_89\n        /* \"@openzeppelin/contracts-upgradeable/access/OwnableUpgradeable.sol\":1662:1669  owner() */\n      jump\t// in\n    tag_318:\n        /* \"@openzeppelin/contracts-upgradeable/access/OwnableUpgradeable.sol\":1662:1685  owner() == _msgSender() */\n      0xffffffffffffffffffffffffffffffffffffffff\n      and\n      eq\n        /* \"@openzeppelin/contracts-upgradeable/access/OwnableUpgradeable.sol\":1654:1722  require(owner() == _msgSender(), \"Ownable: caller is not the owner\") */\n      tag_319\n      jumpi\n      mload(0x40)\n      0x08c379a000000000000000000000000000000000000000000000000000000000\n      dup2\n      mstore\n      0x04\n      add\n      tag_320\n      swap1\n      tag_321\n      jump\t// in\n    tag_320:\n      mload(0x40)\n      dup1\n      swap2\n      sub\n      swap1\n      revert\n    tag_319:\n        /* \"@openzeppelin/contracts-upgradeable/access/OwnableUpgradeable.sol\":1599:1729  function _checkOwner() internal view virtual {... */\n      jump\t// out\n        /* \"@openzeppelin/contracts-upgradeable/security/PausableUpgradeable.sol\":2010:2116  function _requireNotPaused() internal view virtual {... */\n    tag_145:\n        /* \"@openzeppelin/contracts-upgradeable/security/PausableUpgradeable.sol\":2080:2088  paused() */\n      tag_323\n        /* \"@openzeppelin/contracts-upgradeable/security/PausableUpgradeable.sol\":2080:2086  paused */\n      tag_76\n        /* \"@openzeppelin/contracts-upgradeable/security/PausableUpgradeable.sol\":2080:2088  paused() */\n      jump\t// in\n    tag_323:\n        /* \"@openzeppelin/contracts-upgradeable/security/PausableUpgradeable.sol\":2079:2088  !paused() */\n      iszero\n        /* \"@openzeppelin/contracts-upgradeable/security/PausableUpgradeable.sol\":2071:2109  require(!paused(), \"Pausable: paused\") */\n      tag_324\n      jumpi\n      mload(0x40)\n      0x08c379a000000000000000000000000000000000000000000000000000000000\n      dup2\n      mstore\n      0x04\n      add\n      tag_325\n      swap1\n      tag_326\n      jump\t// in\n    tag_325:\n      mload(0x40)\n      dup1\n      swap2\n      sub\n      swap1\n      revert\n    tag_324:\n        /* \"@openzeppelin/contracts-upgradeable/security/PausableUpgradeable.sol\":2010:2116  function _requireNotPaused() internal view virtual {... */\n      jump\t// out\n        /* \"@openzeppelin/contracts-upgradeable/access/OwnableUpgradeable.sol\":2673:2860  function _transferOwnership(address newOwner) internal virtual {... */\n    tag_218:\n        /* \"@openzeppelin/contracts-upgradeable/access/OwnableUpgradeable.sol\":2746:2762  address oldOwner */\n      0x00\n        /* \"@openzeppelin/contracts-upgradeable/access/OwnableUpgradeable.sol\":2765:2771  _owner */\n      0x37\n      0x00\n      swap1\n      sload\n      swap1\n      0x0100\n      exp\n      swap1\n      div\n      0xffffffffffffffffffffffffffffffffffffffff\n      and\n        /* \"@openzeppelin/contracts-upgradeable/access/OwnableUpgradeable.sol\":2746:2771  address oldOwner = _owner */\n      swap1\n      pop\n        /* \"@openzeppelin/contracts-upgradeable/access/OwnableUpgradeable.sol\":2790:2798  newOwner */\n      dup2\n        /* \"@openzeppelin/contracts-upgradeable/access/OwnableUpgradeable.sol\":2781:2787  _owner */\n      0x37\n      0x00\n        /* \"@openzeppelin/contracts-upgradeable/access/OwnableUpgradeable.sol\":2781:2798  _owner = newOwner */\n      0x0100\n      exp\n      dup2\n      sload\n      dup2\n      0xffffffffffffffffffffffffffffffffffffffff\n      mul\n      not\n      and\n      swap1\n      dup4\n      0xffffffffffffffffffffffffffffffffffffffff\n      and\n      mul\n      or\n      swap1\n      sstore\n      pop\n        /* \"@openzeppelin/contracts-upgradeable/access/OwnableUpgradeable.sol\":2844:2852  newOwner */\n      dup2\n        /* \"@openzeppelin/contracts-upgradeable/access/OwnableUpgradeable.sol\":2813:2853  OwnershipTransferred(oldOwner, newOwner) */\n      0xffffffffffffffffffffffffffffffffffffffff\n      and\n        /* \"@openzeppelin/contracts-upgradeable/access/OwnableUpgradeable.sol\":2834:2842  oldOwner */\n      dup2\n        /* \"@openzeppelin/contracts-upgradeable/access/OwnableUpgradeable.sol\":2813:2853  OwnershipTransferred(oldOwner, newOwner) */\n      0xffffffffffffffffffffffffffffffffffffffff\n      and\n      0x8be0079c531659141344cd1fd0a4f28419497f9722a3daafe3b4186f6b6457e0\n      mload(0x40)\n      mload(0x40)\n      dup1\n      swap2\n      sub\n      swap1\n      log3\n        /* \"@openzeppelin/contracts-upgradeable/access/OwnableUpgradeable.sol\":2736:2860  {... */\n      pop\n        /* \"@openzeppelin/contracts-upgradeable/access/OwnableUpgradeable.sol\":2673:2860  function _transferOwnership(address newOwner) internal virtual {... */\n      pop\n      jump\t// out\n        /* \"@openzeppelin/contracts-upgradeable/security/PausableUpgradeable.sol\":2429:2544  function _pause() internal virtual whenNotPaused {... */\n    tag_232:\n        /* \"@openzeppelin/contracts-upgradeable/security/PausableUpgradeable.sol\":1482:1501  _requireNotPaused() */\n      tag_329\n        /* \"@openzeppelin/contracts-upgradeable/security/PausableUpgradeable.sol\":1482:1499  _requireNotPaused */\n      tag_145\n        /* \"@openzeppelin/contracts-upgradeable/security/PausableUpgradeable.sol\":1482:1501  _requireNotPaused() */\n      jump\t// in\n    tag_329:\n        /* \"@openzeppelin/contracts-upgradeable/security/PausableUpgradeable.sol\":2498:2502  true */\n      0x01\n        /* \"@openzeppelin/contracts-upgradeable/security/PausableUpgradeable.sol\":2488:2495  _paused */\n      0x69\n      0x00\n        /* \"@openzeppelin/contracts-upgradeable/security/PausableUpgradeable.sol\":2488:2502  _paused = true */\n      0x0100\n      exp\n      dup2\n      sload\n      dup2\n      0xff\n      mul\n      not\n      and\n      swap1\n      dup4\n      iszero\n      iszero\n      mul\n      or\n      swap1\n      sstore\n      pop\n        /* \"@openzeppelin/contracts-upgradeable/security/PausableUpgradeable.sol\":2517:2537  Paused(_msgSender()) */\n      0x62e78cea01bee320cd4e420270b5ea74000d11b0c9f74754ebdbfc544b05a258\n        /* \"@openzeppelin/contracts-upgradeable/security/PausableUpgradeable.sol\":2524:2536  _msgSender() */\n      tag_331\n        /* \"@openzeppelin/contracts-upgradeable/security/PausableUpgradeable.sol\":2524:2534  _msgSender */\n      tag_317\n        /* \"@openzeppelin/contracts-upgradeable/security/PausableUpgradeable.sol\":2524:2536  _msgSender() */\n      jump\t// in\n    tag_331:\n        /* \"@openzeppelin/contracts-upgradeable/security/PausableUpgradeable.sol\":2517:2537  Paused(_msgSender()) */\n      mload(0x40)\n      tag_332\n      swap2\n      swap1\n      tag_67\n      jump\t// in\n    tag_332:\n      mload(0x40)\n      dup1\n      swap2\n      sub\n      swap1\n      log1\n        /* \"@openzeppelin/contracts-upgradeable/security/PausableUpgradeable.sol\":2429:2544  function _pause() internal virtual whenNotPaused {... */\n      jump\t// out\n        /* \"contracts/ethBridge/MerkleTreeWithHistory.sol\":1252:1540  function _insert(uint256 _depositRoot) internal returns (bool) {... */\n    tag_269:\n        /* \"contracts/ethBridge/MerkleTreeWithHistory.sol\":1309:1313  bool */\n      0x00\n        /* \"contracts/ethBridge/MerkleTreeWithHistory.sol\":1325:1349  uint256 newRootClaimLeaf */\n      dup1\n        /* \"contracts/ethBridge/MerkleTreeWithHistory.sol\":1391:1408  ROOT_HISTORY_SIZE */\n      sload(0x01)\n        /* \"contracts/ethBridge/MerkleTreeWithHistory.sol\":1374:1375  1 */\n      0x01\n        /* \"contracts/ethBridge/MerkleTreeWithHistory.sol\":1353:1371  currentDepositRoot */\n      sload(0x03)\n        /* \"contracts/ethBridge/MerkleTreeWithHistory.sol\":1353:1375  currentDepositRoot + 1 */\n      tag_334\n      swap2\n      swap1\n      tag_335\n      jump\t// in\n    tag_334:\n        /* \"contracts/ethBridge/MerkleTreeWithHistory.sol\":1352:1408  (currentDepositRoot + 1) %... */\n      tag_336\n      swap2\n      swap1\n      tag_337\n      jump\t// in\n    tag_336:\n        /* \"contracts/ethBridge/MerkleTreeWithHistory.sol\":1325:1408  uint256 newRootClaimLeaf = (currentDepositRoot + 1) %... */\n      swap1\n      pop\n        /* \"contracts/ethBridge/MerkleTreeWithHistory.sol\":1439:1455  newRootClaimLeaf */\n      dup1\n        /* \"contracts/ethBridge/MerkleTreeWithHistory.sol\":1418:1436  currentDepositRoot */\n      0x03\n        /* \"contracts/ethBridge/MerkleTreeWithHistory.sol\":1418:1455  currentDepositRoot = newRootClaimLeaf */\n      dup2\n      swap1\n      sstore\n      pop\n        /* \"contracts/ethBridge/MerkleTreeWithHistory.sol\":1500:1512  _depositRoot */\n      dup3\n        /* \"contracts/ethBridge/MerkleTreeWithHistory.sol\":1465:1477  depositRoots */\n      0x04\n        /* \"contracts/ethBridge/MerkleTreeWithHistory.sol\":1465:1497  depositRoots[currentDepositRoot] */\n      0x00\n        /* \"contracts/ethBridge/MerkleTreeWithHistory.sol\":1478:1496  currentDepositRoot */\n      sload(0x03)\n        /* \"contracts/ethBridge/MerkleTreeWithHistory.sol\":1465:1497  depositRoots[currentDepositRoot] */\n      dup2\n      mstore\n      0x20\n      add\n      swap1\n      dup2\n      mstore\n      0x20\n      add\n      0x00\n      keccak256\n        /* \"contracts/ethBridge/MerkleTreeWithHistory.sol\":1465:1512  depositRoots[currentDepositRoot] = _depositRoot */\n      dup2\n      swap1\n      sstore\n      pop\n        /* \"contracts/ethBridge/MerkleTreeWithHistory.sol\":1529:1533  true */\n      0x01\n        /* \"contracts/ethBridge/MerkleTreeWithHistory.sol\":1522:1533  return true */\n      swap2\n      pop\n      pop\n        /* \"contracts/ethBridge/MerkleTreeWithHistory.sol\":1252:1540  function _insert(uint256 _depositRoot) internal returns (bool) {... */\n      swap2\n      swap1\n      pop\n      jump\t// out\n        /* \"@openzeppelin/contracts-upgradeable/security/PausableUpgradeable.sol\":2676:2793  function _unpause() internal virtual whenPaused {... */\n    tag_276:\n        /* \"@openzeppelin/contracts-upgradeable/security/PausableUpgradeable.sol\":1729:1745  _requirePaused() */\n      tag_339\n        /* \"@openzeppelin/contracts-upgradeable/security/PausableUpgradeable.sol\":1729:1743  _requirePaused */\n      tag_340\n        /* \"@openzeppelin/contracts-upgradeable/security/PausableUpgradeable.sol\":1729:1745  _requirePaused() */\n      jump\t// in\n    tag_339:\n        /* \"@openzeppelin/contracts-upgradeable/security/PausableUpgradeable.sol\":2744:2749  false */\n      0x00\n        /* \"@openzeppelin/contracts-upgradeable/security/PausableUpgradeable.sol\":2734:2741  _paused */\n      0x69\n      0x00\n        /* \"@openzeppelin/contracts-upgradeable/security/PausableUpgradeable.sol\":2734:2749  _paused = false */\n      0x0100\n      exp\n      dup2\n      sload\n      dup2\n      0xff\n      mul\n      not\n      and\n      swap1\n      dup4\n      iszero\n      iszero\n      mul\n      or\n      swap1\n      sstore\n      pop\n        /* \"@openzeppelin/contracts-upgradeable/security/PausableUpgradeable.sol\":2764:2786  Unpaused(_msgSender()) */\n      0x5db9ee0a495bf2e6ff9c91a7834c1ba4fdd244a5e8aa4e537bd38aeae4b073aa\n        /* \"@openzeppelin/contracts-upgradeable/security/PausableUpgradeable.sol\":2773:2785  _msgSender() */\n      tag_342\n        /* \"@openzeppelin/contracts-upgradeable/security/PausableUpgradeable.sol\":2773:2783  _msgSender */\n      tag_317\n        /* \"@openzeppelin/contracts-upgradeable/security/PausableUpgradeable.sol\":2773:2785  _msgSender() */\n      jump\t// in\n    tag_342:\n        /* \"@openzeppelin/contracts-upgradeable/security/PausableUpgradeable.sol\":2764:2786  Unpaused(_msgSender()) */\n      mload(0x40)\n      tag_343\n      swap2\n      swap1\n      tag_67\n      jump\t// in\n    tag_343:\n      mload(0x40)\n      dup1\n      swap2\n      sub\n      swap1\n      log1\n        /* \"@openzeppelin/contracts-upgradeable/security/PausableUpgradeable.sol\":2676:2793  function _unpause() internal virtual whenPaused {... */\n      jump\t// out\n        /* \"@openzeppelin/contracts-upgradeable/utils/AddressUpgradeable.sol\":1186:1506  function isContract(address account) internal view returns (bool) {... */\n    tag_281:\n        /* \"@openzeppelin/contracts-upgradeable/utils/AddressUpgradeable.sol\":1246:1250  bool */\n      0x00\n        /* \"@openzeppelin/contracts-upgradeable/utils/AddressUpgradeable.sol\":1498:1499  0 */\n      dup1\n        /* \"@openzeppelin/contracts-upgradeable/utils/AddressUpgradeable.sol\":1476:1483  account */\n      dup3\n        /* \"@openzeppelin/contracts-upgradeable/utils/AddressUpgradeable.sol\":1476:1495  account.code.length */\n      0xffffffffffffffffffffffffffffffffffffffff\n      and\n      extcodesize\n        /* \"@openzeppelin/contracts-upgradeable/utils/AddressUpgradeable.sol\":1476:1499  account.code.length > 0 */\n      gt\n        /* \"@openzeppelin/contracts-upgradeable/utils/AddressUpgradeable.sol\":1469:1499  return account.code.length > 0 */\n      swap1\n      pop\n        /* \"@openzeppelin/contracts-upgradeable/utils/AddressUpgradeable.sol\":1186:1506  function isContract(address account) internal view returns (bool) {... */\n      swap2\n      swap1\n      pop\n      jump\t// out\n        /* \"contracts/libs/Lib_AddressResolver.sol\":446:636  function __Lib_AddressResolver_init(address _libAddressManager)... */\n    tag_293:\n        /* \"@openzeppelin/contracts-upgradeable/proxy/utils/Initializable.sol\":5363:5376  _initializing */\n      0x00\n      0x01\n      swap1\n      sload\n      swap1\n      0x0100\n      exp\n      swap1\n      div\n      0xff\n      and\n        /* \"@openzeppelin/contracts-upgradeable/proxy/utils/Initializable.sol\":5355:5424  require(_initializing, \"Initializable: contract is not initializing\") */\n      tag_346\n      jumpi\n      mload(0x40)\n      0x08c379a000000000000000000000000000000000000000000000000000000000\n      dup2\n      mstore\n      0x04\n      add\n      tag_347\n      swap1\n      tag_348\n      jump\t// in\n    tag_347:\n      mload(0x40)\n      dup1\n      swap2\n      sub\n      swap1\n      revert\n    tag_346:\n        /* \"contracts/libs/Lib_AddressResolver.sol\":609:627  _libAddressManager */\n      dup1\n        /* \"contracts/libs/Lib_AddressResolver.sol\":570:587  libAddressManager */\n      0x00\n      0x02\n        /* \"contracts/libs/Lib_AddressResolver.sol\":570:628  libAddressManager = Lib_AddressManager(_libAddressManager) */\n      0x0100\n      exp\n      dup2\n      sload\n      dup2\n      0xffffffffffffffffffffffffffffffffffffffff\n      mul\n      not\n      and\n      swap1\n      dup4\n      0xffffffffffffffffffffffffffffffffffffffff\n      and\n      mul\n      or\n      swap1\n      sstore\n      pop\n        /* \"contracts/libs/Lib_AddressResolver.sol\":446:636  function __Lib_AddressResolver_init(address _libAddressManager)... */\n      pop\n      jump\t// out\n        /* \"contracts/ethBridge/MerkleTreeWithHistory.sol\":604:991  function __MerkleTreeWithHistory_init(uint256 _levels)... */\n    tag_295:\n        /* \"@openzeppelin/contracts-upgradeable/proxy/utils/Initializable.sol\":5363:5376  _initializing */\n      0x00\n      0x01\n      swap1\n      sload\n      swap1\n      0x0100\n      exp\n      swap1\n      div\n      0xff\n      and\n        /* \"@openzeppelin/contracts-upgradeable/proxy/utils/Initializable.sol\":5355:5424  require(_initializing, \"Initializable: contract is not initializing\") */\n      tag_351\n      jumpi\n      mload(0x40)\n      0x08c379a000000000000000000000000000000000000000000000000000000000\n      dup2\n      mstore\n      0x04\n      add\n      tag_352\n      swap1\n      tag_348\n      jump\t// in\n    tag_352:\n      mload(0x40)\n      dup1\n      swap2\n      sub\n      swap1\n      revert\n    tag_351:\n        /* \"contracts/ethBridge/MerkleTreeWithHistory.sol\":733:734  0 */\n      0x00\n        /* \"contracts/ethBridge/MerkleTreeWithHistory.sol\":723:730  _levels */\n      dup2\n        /* \"contracts/ethBridge/MerkleTreeWithHistory.sol\":723:734  _levels > 0 */\n      gt\n        /* \"contracts/ethBridge/MerkleTreeWithHistory.sol\":715:774  require(_levels > 0, \"_levels should be greater than zero\") */\n      tag_354\n      jumpi\n      mload(0x40)\n      0x08c379a000000000000000000000000000000000000000000000000000000000\n      dup2\n      mstore\n      0x04\n      add\n      tag_355\n      swap1\n      tag_356\n      jump\t// in\n    tag_355:\n      mload(0x40)\n      dup1\n      swap2\n      sub\n      swap1\n      revert\n    tag_354:\n        /* \"contracts/ethBridge/MerkleTreeWithHistory.sol\":802:804  40 */\n      0x28\n        /* \"contracts/ethBridge/MerkleTreeWithHistory.sol\":792:799  _levels */\n      dup2\n        /* \"contracts/ethBridge/MerkleTreeWithHistory.sol\":792:804  _levels < 40 */\n      lt\n        /* \"contracts/ethBridge/MerkleTreeWithHistory.sol\":784:839  require(_levels < 40, \"_levels should be less than 40\") */\n      tag_357\n      jumpi\n      mload(0x40)\n      0x08c379a000000000000000000000000000000000000000000000000000000000\n      dup2\n      mstore\n      0x04\n      add\n      tag_358\n      swap1\n      tag_359\n      jump\t// in\n    tag_358:\n      mload(0x40)\n      dup1\n      swap2\n      sub\n      swap1\n      revert\n    tag_357:\n        /* \"contracts/ethBridge/MerkleTreeWithHistory.sol\":858:865  _levels */\n      dup1\n        /* \"contracts/ethBridge/MerkleTreeWithHistory.sol\":849:855  levels */\n      0x02\n        /* \"contracts/ethBridge/MerkleTreeWithHistory.sol\":849:865  levels = _levels */\n      dup2\n      swap1\n      sstore\n      pop\n        /* \"contracts/ethBridge/MerkleTreeWithHistory.sol\":895:897  10 */\n      0x0a\n        /* \"contracts/ethBridge/MerkleTreeWithHistory.sol\":875:892  ROOT_HISTORY_SIZE */\n      0x01\n        /* \"contracts/ethBridge/MerkleTreeWithHistory.sol\":875:897  ROOT_HISTORY_SIZE = 10 */\n      dup2\n      swap1\n      sstore\n      pop\n        /* \"contracts/ethBridge/MerkleTreeWithHistory.sol\":928:929  0 */\n      0x00\n        /* \"contracts/ethBridge/MerkleTreeWithHistory.sol\":907:925  currentDepositRoot */\n      0x03\n        /* \"contracts/ethBridge/MerkleTreeWithHistory.sol\":907:929  currentDepositRoot = 0 */\n      dup2\n      swap1\n      sstore\n      pop\n        /* \"contracts/ethBridge/MerkleTreeWithHistory.sol\":983:984  0 */\n      0x00\n        /* \"contracts/ethBridge/MerkleTreeWithHistory.sol\":948:960  depositRoots */\n      0x04\n        /* \"contracts/ethBridge/MerkleTreeWithHistory.sol\":948:980  depositRoots[currentDepositRoot] */\n      0x00\n        /* \"contracts/ethBridge/MerkleTreeWithHistory.sol\":961:979  currentDepositRoot */\n      sload(0x03)\n        /* \"contracts/ethBridge/MerkleTreeWithHistory.sol\":948:980  depositRoots[currentDepositRoot] */\n      dup2\n      mstore\n      0x20\n      add\n      swap1\n      dup2\n      mstore\n      0x20\n      add\n      0x00\n      keccak256\n        /* \"contracts/ethBridge/MerkleTreeWithHistory.sol\":948:984  depositRoots[currentDepositRoot] = 0 */\n      dup2\n      swap1\n      sstore\n      pop\n        /* \"contracts/ethBridge/MerkleTreeWithHistory.sol\":604:991  function __MerkleTreeWithHistory_init(uint256 _levels)... */\n      pop\n      jump\t// out\n        /* \"@openzeppelin/contracts-upgradeable/utils/ContextUpgradeable.sol\":776:845  function __Context_init_unchained() internal onlyInitializing {... */\n    tag_297:\n        /* \"@openzeppelin/contracts-upgradeable/proxy/utils/Initializable.sol\":5363:5376  _initializing */\n      0x00\n      0x01\n      swap1\n      sload\n      swap1\n      0x0100\n      exp\n      swap1\n      div\n      0xff\n      and\n        /* \"@openzeppelin/contracts-upgradeable/proxy/utils/Initializable.sol\":5355:5424  require(_initializing, \"Initializable: contract is not initializing\") */\n      tag_361\n      jumpi\n      mload(0x40)\n      0x08c379a000000000000000000000000000000000000000000000000000000000\n      dup2\n      mstore\n      0x04\n      add\n      tag_362\n      swap1\n      tag_348\n      jump\t// in\n    tag_362:\n      mload(0x40)\n      dup1\n      swap2\n      sub\n      swap1\n      revert\n    tag_361:\n        /* \"@openzeppelin/contracts-upgradeable/utils/ContextUpgradeable.sol\":776:845  function __Context_init_unchained() internal onlyInitializing {... */\n      jump\t// out\n        /* \"@openzeppelin/contracts-upgradeable/access/OwnableUpgradeable.sol\":1104:1215  function __Ownable_init_unchained() internal onlyInitializing {... */\n    tag_299:\n        /* \"@openzeppelin/contracts-upgradeable/proxy/utils/Initializable.sol\":5363:5376  _initializing */\n      0x00\n      0x01\n      swap1\n      sload\n      swap1\n      0x0100\n      exp\n      swap1\n      div\n      0xff\n      and\n        /* \"@openzeppelin/contracts-upgradeable/proxy/utils/Initializable.sol\":5355:5424  require(_initializing, \"Initializable: contract is not initializing\") */\n      tag_365\n      jumpi\n      mload(0x40)\n      0x08c379a000000000000000000000000000000000000000000000000000000000\n      dup2\n      mstore\n      0x04\n      add\n      tag_366\n      swap1\n      tag_348\n      jump\t// in\n    tag_366:\n      mload(0x40)\n      dup1\n      swap2\n      sub\n      swap1\n      revert\n    tag_365:\n        /* \"@openzeppelin/contracts-upgradeable/access/OwnableUpgradeable.sol\":1176:1208  _transferOwnership(_msgSender()) */\n      tag_368\n        /* \"@openzeppelin/contracts-upgradeable/access/OwnableUpgradeable.sol\":1195:1207  _msgSender() */\n      tag_369\n        /* \"@openzeppelin/contracts-upgradeable/access/OwnableUpgradeable.sol\":1195:1205  _msgSender */\n      tag_317\n        /* \"@openzeppelin/contracts-upgradeable/access/OwnableUpgradeable.sol\":1195:1207  _msgSender() */\n      jump\t// in\n    tag_369:\n        /* \"@openzeppelin/contracts-upgradeable/access/OwnableUpgradeable.sol\":1176:1194  _transferOwnership */\n      tag_218\n        /* \"@openzeppelin/contracts-upgradeable/access/OwnableUpgradeable.sol\":1176:1208  _transferOwnership(_msgSender()) */\n      jump\t// in\n    tag_368:\n        /* \"@openzeppelin/contracts-upgradeable/access/OwnableUpgradeable.sol\":1104:1215  function __Ownable_init_unchained() internal onlyInitializing {... */\n      jump\t// out\n        /* \"@openzeppelin/contracts-upgradeable/security/PausableUpgradeable.sol\":1166:1261  function __Pausable_init_unchained() internal onlyInitializing {... */\n    tag_301:\n        /* \"@openzeppelin/contracts-upgradeable/proxy/utils/Initializable.sol\":5363:5376  _initializing */\n      0x00\n      0x01\n      swap1\n      sload\n      swap1\n      0x0100\n      exp\n      swap1\n      div\n      0xff\n      and\n        /* \"@openzeppelin/contracts-upgradeable/proxy/utils/Initializable.sol\":5355:5424  require(_initializing, \"Initializable: contract is not initializing\") */\n      tag_371\n      jumpi\n      mload(0x40)\n      0x08c379a000000000000000000000000000000000000000000000000000000000\n      dup2\n      mstore\n      0x04\n      add\n      tag_372\n      swap1\n      tag_348\n      jump\t// in\n    tag_372:\n      mload(0x40)\n      dup1\n      swap2\n      sub\n      swap1\n      revert\n    tag_371:\n        /* \"@openzeppelin/contracts-upgradeable/security/PausableUpgradeable.sol\":1249:1254  false */\n      0x00\n        /* \"@openzeppelin/contracts-upgradeable/security/PausableUpgradeable.sol\":1239:1246  _paused */\n      0x69\n      0x00\n        /* \"@openzeppelin/contracts-upgradeable/security/PausableUpgradeable.sol\":1239:1254  _paused = false */\n      0x0100\n      exp\n      dup2\n      sload\n      dup2\n      0xff\n      mul\n      not\n      and\n      swap1\n      dup4\n      iszero\n      iszero\n      mul\n      or\n      swap1\n      sstore\n      pop\n        /* \"@openzeppelin/contracts-upgradeable/security/PausableUpgradeable.sol\":1166:1261  function __Pausable_init_unchained() internal onlyInitializing {... */\n      jump\t// out\n        /* \"@openzeppelin/contracts-upgradeable/security/ReentrancyGuardUpgradeable.sol\":1985:2094  function __ReentrancyGuard_init_unchained() internal onlyInitializing {... */\n    tag_303:\n        /* \"@openzeppelin/contracts-upgradeable/proxy/utils/Initializable.sol\":5363:5376  _initializing */\n      0x00\n      0x01\n      swap1\n      sload\n      swap1\n      0x0100\n      exp\n      swap1\n      div\n      0xff\n      and\n        /* \"@openzeppelin/contracts-upgradeable/proxy/utils/Initializable.sol\":5355:5424  require(_initializing, \"Initializable: contract is not initializing\") */\n      tag_375\n      jumpi\n      mload(0x40)\n      0x08c379a000000000000000000000000000000000000000000000000000000000\n      dup2\n      mstore\n      0x04\n      add\n      tag_376\n      swap1\n      tag_348\n      jump\t// in\n    tag_376:\n      mload(0x40)\n      dup1\n      swap2\n      sub\n      swap1\n      revert\n    tag_375:\n        /* \"@openzeppelin/contracts-upgradeable/security/ReentrancyGuardUpgradeable.sol\":1787:1788  1 */\n      0x01\n        /* \"@openzeppelin/contracts-upgradeable/security/ReentrancyGuardUpgradeable.sol\":2065:2072  _status */\n      0x9b\n        /* \"@openzeppelin/contracts-upgradeable/security/ReentrancyGuardUpgradeable.sol\":2065:2087  _status = _NOT_ENTERED */\n      dup2\n      swap1\n      sstore\n      pop\n        /* \"@openzeppelin/contracts-upgradeable/security/ReentrancyGuardUpgradeable.sol\":1985:2094  function __ReentrancyGuard_init_unchained() internal onlyInitializing {... */\n      jump\t// out\n        /* \"@openzeppelin/contracts-upgradeable/utils/ContextUpgradeable.sol\":850:946  function _msgSender() internal view virtual returns (address) {... */\n    tag_317:\n        /* \"@openzeppelin/contracts-upgradeable/utils/ContextUpgradeable.sol\":903:910  address */\n      0x00\n        /* \"@openzeppelin/contracts-upgradeable/utils/ContextUpgradeable.sol\":929:939  msg.sender */\n      caller\n        /* \"@openzeppelin/contracts-upgradeable/utils/ContextUpgradeable.sol\":922:939  return msg.sender */\n      swap1\n      pop\n        /* \"@openzeppelin/contracts-upgradeable/utils/ContextUpgradeable.sol\":850:946  function _msgSender() internal view virtual returns (address) {... */\n      swap1\n      jump\t// out\n        /* \"@openzeppelin/contracts-upgradeable/security/PausableUpgradeable.sol\":2188:2294  function _requirePaused() internal view virtual {... */\n    tag_340:\n        /* \"@openzeppelin/contracts-upgradeable/security/PausableUpgradeable.sol\":2254:2262  paused() */\n      tag_380\n        /* \"@openzeppelin/contracts-upgradeable/security/PausableUpgradeable.sol\":2254:2260  paused */\n      tag_76\n        /* \"@openzeppelin/contracts-upgradeable/security/PausableUpgradeable.sol\":2254:2262  paused() */\n      jump\t// in\n    tag_380:\n        /* \"@openzeppelin/contracts-upgradeable/security/PausableUpgradeable.sol\":2246:2287  require(paused(), \"Pausable: not paused\") */\n      tag_381\n      jumpi\n      mload(0x40)\n      0x08c379a000000000000000000000000000000000000000000000000000000000\n      dup2\n      mstore\n      0x04\n      add\n      tag_382\n      swap1\n      tag_383\n      jump\t// in\n    tag_382:\n      mload(0x40)\n      dup1\n      swap2\n      sub\n      swap1\n      revert\n    tag_381:\n        /* \"@openzeppelin/contracts-upgradeable/security/PausableUpgradeable.sol\":2188:2294  function _requirePaused() internal view virtual {... */\n      jump\t// out\n        /* \"#utility.yul\":7:82   */\n    tag_384:\n        /* \"#utility.yul\":40:46   */\n      0x00\n        /* \"#utility.yul\":73:75   */\n      0x40\n        /* \"#utility.yul\":67:76   */\n      mload\n        /* \"#utility.yul\":57:76   */\n      swap1\n      pop\n        /* \"#utility.yul\":7:82   */\n      swap1\n      jump\t// out\n        /* \"#utility.yul\":88:205   */\n    tag_385:\n        /* \"#utility.yul\":197:198   */\n      0x00\n        /* \"#utility.yul\":194:195   */\n      dup1\n        /* \"#utility.yul\":187:199   */\n      revert\n        /* \"#utility.yul\":211:328   */\n    tag_386:\n        /* \"#utility.yul\":320:321   */\n      0x00\n        /* \"#utility.yul\":317:318   */\n      dup1\n        /* \"#utility.yul\":310:322   */\n      revert\n        /* \"#utility.yul\":334:460   */\n    tag_387:\n        /* \"#utility.yul\":371:378   */\n      0x00\n        /* \"#utility.yul\":411:453   */\n      0xffffffffffffffffffffffffffffffffffffffff\n        /* \"#utility.yul\":404:409   */\n      dup3\n        /* \"#utility.yul\":400:454   */\n      and\n        /* \"#utility.yul\":389:454   */\n      swap1\n      pop\n        /* \"#utility.yul\":334:460   */\n      swap2\n      swap1\n      pop\n      jump\t// out\n        /* \"#utility.yul\":466:588   */\n    tag_388:\n        /* \"#utility.yul\":539:563   */\n      tag_508\n        /* \"#utility.yul\":557:562   */\n      dup2\n        /* \"#utility.yul\":539:563   */\n      tag_387\n      jump\t// in\n    tag_508:\n        /* \"#utility.yul\":532:537   */\n      dup2\n        /* \"#utility.yul\":529:564   */\n      eq\n        /* \"#utility.yul\":519:582   */\n      tag_509\n      jumpi\n        /* \"#utility.yul\":578:579   */\n      0x00\n        /* \"#utility.yul\":575:576   */\n      dup1\n        /* \"#utility.yul\":568:580   */\n      revert\n        /* \"#utility.yul\":519:582   */\n    tag_509:\n        /* \"#utility.yul\":466:588   */\n      pop\n      jump\t// out\n        /* \"#utility.yul\":594:733   */\n    tag_389:\n        /* \"#utility.yul\":640:645   */\n      0x00\n        /* \"#utility.yul\":678:684   */\n      dup2\n        /* \"#utility.yul\":665:685   */\n      calldataload\n        /* \"#utility.yul\":656:685   */\n      swap1\n      pop\n        /* \"#utility.yul\":694:727   */\n      tag_511\n        /* \"#utility.yul\":721:726   */\n      dup2\n        /* \"#utility.yul\":694:727   */\n      tag_388\n      jump\t// in\n    tag_511:\n        /* \"#utility.yul\":594:733   */\n      swap3\n      swap2\n      pop\n      pop\n      jump\t// out\n        /* \"#utility.yul\":739:1068   */\n    tag_38:\n        /* \"#utility.yul\":798:804   */\n      0x00\n        /* \"#utility.yul\":847:849   */\n      0x20\n        /* \"#utility.yul\":835:844   */\n      dup3\n        /* \"#utility.yul\":826:833   */\n      dup5\n        /* \"#utility.yul\":822:845   */\n      sub\n        /* \"#utility.yul\":818:850   */\n      slt\n        /* \"#utility.yul\":815:934   */\n      iszero\n      tag_513\n      jumpi\n        /* \"#utility.yul\":853:932   */\n      tag_514\n      tag_385\n      jump\t// in\n    tag_514:\n        /* \"#utility.yul\":815:934   */\n    tag_513:\n        /* \"#utility.yul\":973:974   */\n      0x00\n        /* \"#utility.yul\":998:1051   */\n      tag_515\n        /* \"#utility.yul\":1043:1050   */\n      dup5\n        /* \"#utility.yul\":1034:1040   */\n      dup3\n        /* \"#utility.yul\":1023:1032   */\n      dup6\n        /* \"#utility.yul\":1019:1041   */\n      add\n        /* \"#utility.yul\":998:1051   */\n      tag_389\n      jump\t// in\n    tag_515:\n        /* \"#utility.yul\":988:1051   */\n      swap2\n      pop\n        /* \"#utility.yul\":944:1061   */\n      pop\n        /* \"#utility.yul\":739:1068   */\n      swap3\n      swap2\n      pop\n      pop\n      jump\t// out\n        /* \"#utility.yul\":1074:1170   */\n    tag_390:\n        /* \"#utility.yul\":1111:1118   */\n      0x00\n        /* \"#utility.yul\":1140:1164   */\n      tag_517\n        /* \"#utility.yul\":1158:1163   */\n      dup3\n        /* \"#utility.yul\":1140:1164   */\n      tag_387\n      jump\t// in\n    tag_517:\n        /* \"#utility.yul\":1129:1164   */\n      swap1\n      pop\n        /* \"#utility.yul\":1074:1170   */\n      swap2\n      swap1\n      pop\n      jump\t// out\n        /* \"#utility.yul\":1176:1298   */\n    tag_391:\n        /* \"#utility.yul\":1249:1273   */\n      tag_519\n        /* \"#utility.yul\":1267:1272   */\n      dup2\n        /* \"#utility.yul\":1249:1273   */\n      tag_390\n      jump\t// in\n    tag_519:\n        /* \"#utility.yul\":1242:1247   */\n      dup2\n        /* \"#utility.yul\":1239:1274   */\n      eq\n        /* \"#utility.yul\":1229:1292   */\n      tag_520\n      jumpi\n        /* \"#utility.yul\":1288:1289   */\n      0x00\n        /* \"#utility.yul\":1285:1286   */\n      dup1\n        /* \"#utility.yul\":1278:1290   */\n      revert\n        /* \"#utility.yul\":1229:1292   */\n    tag_520:\n        /* \"#utility.yul\":1176:1298   */\n      pop\n      jump\t// out\n        /* \"#utility.yul\":1304:1443   */\n    tag_392:\n        /* \"#utility.yul\":1350:1355   */\n      0x00\n        /* \"#utility.yul\":1388:1394   */\n      dup2\n        /* \"#utility.yul\":1375:1395   */\n      calldataload\n        /* \"#utility.yul\":1366:1395   */\n      swap1\n      pop\n        /* \"#utility.yul\":1404:1437   */\n      tag_522\n        /* \"#utility.yul\":1431:1436   */\n      dup2\n        /* \"#utility.yul\":1404:1437   */\n      tag_391\n      jump\t// in\n    tag_522:\n        /* \"#utility.yul\":1304:1443   */\n      swap3\n      swap2\n      pop\n      pop\n      jump\t// out\n        /* \"#utility.yul\":1449:1923   */\n    tag_42:\n        /* \"#utility.yul\":1517:1523   */\n      0x00\n        /* \"#utility.yul\":1525:1531   */\n      dup1\n        /* \"#utility.yul\":1574:1576   */\n      0x40\n        /* \"#utility.yul\":1562:1571   */\n      dup4\n        /* \"#utility.yul\":1553:1560   */\n      dup6\n        /* \"#utility.yul\":1549:1572   */\n      sub\n        /* \"#utility.yul\":1545:1577   */\n      slt\n        /* \"#utility.yul\":1542:1661   */\n      iszero\n      tag_524\n      jumpi\n        /* \"#utility.yul\":1580:1659   */\n      tag_525\n      tag_385\n      jump\t// in\n    tag_525:\n        /* \"#utility.yul\":1542:1661   */\n    tag_524:\n        /* \"#utility.yul\":1700:1701   */\n      0x00\n        /* \"#utility.yul\":1725:1778   */\n      tag_526\n        /* \"#utility.yul\":1770:1777   */\n      dup6\n        /* \"#utility.yul\":1761:1767   */\n      dup3\n        /* \"#utility.yul\":1750:1759   */\n      dup7\n        /* \"#utility.yul\":1746:1768   */\n      add\n        /* \"#utility.yul\":1725:1778   */\n      tag_389\n      jump\t// in\n    tag_526:\n        /* \"#utility.yul\":1715:1778   */\n      swap3\n      pop\n        /* \"#utility.yul\":1671:1788   */\n      pop\n        /* \"#utility.yul\":1827:1829   */\n      0x20\n        /* \"#utility.yul\":1853:1906   */\n      tag_527\n        /* \"#utility.yul\":1898:1905   */\n      dup6\n        /* \"#utility.yul\":1889:1895   */\n      dup3\n        /* \"#utility.yul\":1878:1887   */\n      dup7\n        /* \"#utility.yul\":1874:1896   */\n      add\n        /* \"#utility.yul\":1853:1906   */\n      tag_392\n      jump\t// in\n    tag_527:\n        /* \"#utility.yul\":1843:1906   */\n      swap2\n      pop\n        /* \"#utility.yul\":1798:1916   */\n      pop\n        /* \"#utility.yul\":1449:1923   */\n      swap3\n      pop\n      swap3\n      swap1\n      pop\n      jump\t// out\n        /* \"#utility.yul\":1929:1989   */\n    tag_393:\n        /* \"#utility.yul\":1957:1960   */\n      0x00\n        /* \"#utility.yul\":1978:1983   */\n      dup2\n        /* \"#utility.yul\":1971:1983   */\n      swap1\n      pop\n        /* \"#utility.yul\":1929:1989   */\n      swap2\n      swap1\n      pop\n      jump\t// out\n        /* \"#utility.yul\":1995:2137   */\n    tag_394:\n        /* \"#utility.yul\":2045:2054   */\n      0x00\n        /* \"#utility.yul\":2078:2131   */\n      tag_530\n        /* \"#utility.yul\":2096:2130   */\n      tag_531\n        /* \"#utility.yul\":2105:2129   */\n      tag_532\n        /* \"#utility.yul\":2123:2128   */\n      dup5\n        /* \"#utility.yul\":2105:2129   */\n      tag_387\n      jump\t// in\n    tag_532:\n        /* \"#utility.yul\":2096:2130   */\n      tag_393\n      jump\t// in\n    tag_531:\n        /* \"#utility.yul\":2078:2131   */\n      tag_387\n      jump\t// in\n    tag_530:\n        /* \"#utility.yul\":2065:2131   */\n      swap1\n      pop\n        /* \"#utility.yul\":1995:2137   */\n      swap2\n      swap1\n      pop\n      jump\t// out\n        /* \"#utility.yul\":2143:2269   */\n    tag_395:\n        /* \"#utility.yul\":2193:2202   */\n      0x00\n        /* \"#utility.yul\":2226:2263   */\n      tag_534\n        /* \"#utility.yul\":2257:2262   */\n      dup3\n        /* \"#utility.yul\":2226:2263   */\n      tag_394\n      jump\t// in\n    tag_534:\n        /* \"#utility.yul\":2213:2263   */\n      swap1\n      pop\n        /* \"#utility.yul\":2143:2269   */\n      swap2\n      swap1\n      pop\n      jump\t// out\n        /* \"#utility.yul\":2275:2428   */\n    tag_396:\n        /* \"#utility.yul\":2352:2361   */\n      0x00\n        /* \"#utility.yul\":2385:2422   */\n      tag_536\n        /* \"#utility.yul\":2416:2421   */\n      dup3\n        /* \"#utility.yul\":2385:2422   */\n      tag_395\n      jump\t// in\n    tag_536:\n        /* \"#utility.yul\":2372:2422   */\n      swap1\n      pop\n        /* \"#utility.yul\":2275:2428   */\n      swap2\n      swap1\n      pop\n      jump\t// out\n        /* \"#utility.yul\":2434:2619   */\n    tag_397:\n        /* \"#utility.yul\":2548:2612   */\n      tag_538\n        /* \"#utility.yul\":2606:2611   */\n      dup2\n        /* \"#utility.yul\":2548:2612   */\n      tag_396\n      jump\t// in\n    tag_538:\n        /* \"#utility.yul\":2543:2546   */\n      dup3\n        /* \"#utility.yul\":2536:2613   */\n      mstore\n        /* \"#utility.yul\":2434:2619   */\n      pop\n      pop\n      jump\t// out\n        /* \"#utility.yul\":2625:2901   */\n    tag_47:\n        /* \"#utility.yul\":2745:2749   */\n      0x00\n        /* \"#utility.yul\":2783:2785   */\n      0x20\n        /* \"#utility.yul\":2772:2781   */\n      dup3\n        /* \"#utility.yul\":2768:2786   */\n      add\n        /* \"#utility.yul\":2760:2786   */\n      swap1\n      pop\n        /* \"#utility.yul\":2796:2894   */\n      tag_540\n        /* \"#utility.yul\":2891:2892   */\n      0x00\n        /* \"#utility.yul\":2880:2889   */\n      dup4\n        /* \"#utility.yul\":2876:2893   */\n      add\n        /* \"#utility.yul\":2867:2873   */\n      dup5\n        /* \"#utility.yul\":2796:2894   */\n      tag_397\n      jump\t// in\n    tag_540:\n        /* \"#utility.yul\":2625:2901   */\n      swap3\n      swap2\n      pop\n      pop\n      jump\t// out\n        /* \"#utility.yul\":2907:2984   */\n    tag_398:\n        /* \"#utility.yul\":2944:2951   */\n      0x00\n        /* \"#utility.yul\":2973:2978   */\n      dup2\n        /* \"#utility.yul\":2962:2978   */\n      swap1\n      pop\n        /* \"#utility.yul\":2907:2984   */\n      swap2\n      swap1\n      pop\n      jump\t// out\n        /* \"#utility.yul\":2990:3108   */\n    tag_399:\n        /* \"#utility.yul\":3077:3101   */\n      tag_543\n        /* \"#utility.yul\":3095:3100   */\n      dup2\n        /* \"#utility.yul\":3077:3101   */\n      tag_398\n      jump\t// in\n    tag_543:\n        /* \"#utility.yul\":3072:3075   */\n      dup3\n        /* \"#utility.yul\":3065:3102   */\n      mstore\n        /* \"#utility.yul\":2990:3108   */\n      pop\n      pop\n      jump\t// out\n        /* \"#utility.yul\":3114:3336   */\n    tag_51:\n        /* \"#utility.yul\":3207:3211   */\n      0x00\n        /* \"#utility.yul\":3245:3247   */\n      0x20\n        /* \"#utility.yul\":3234:3243   */\n      dup3\n        /* \"#utility.yul\":3230:3248   */\n      add\n        /* \"#utility.yul\":3222:3248   */\n      swap1\n      pop\n        /* \"#utility.yul\":3258:3329   */\n      tag_545\n        /* \"#utility.yul\":3326:3327   */\n      0x00\n        /* \"#utility.yul\":3315:3324   */\n      dup4\n        /* \"#utility.yul\":3311:3328   */\n      add\n        /* \"#utility.yul\":3302:3308   */\n      dup5\n        /* \"#utility.yul\":3258:3329   */\n      tag_399\n      jump\t// in\n    tag_545:\n        /* \"#utility.yul\":3114:3336   */\n      swap3\n      swap2\n      pop\n      pop\n      jump\t// out\n        /* \"#utility.yul\":3342:3432   */\n    tag_400:\n        /* \"#utility.yul\":3376:3383   */\n      0x00\n        /* \"#utility.yul\":3419:3424   */\n      dup2\n        /* \"#utility.yul\":3412:3425   */\n      iszero\n        /* \"#utility.yul\":3405:3426   */\n      iszero\n        /* \"#utility.yul\":3394:3426   */\n      swap1\n      pop\n        /* \"#utility.yul\":3342:3432   */\n      swap2\n      swap1\n      pop\n      jump\t// out\n        /* \"#utility.yul\":3438:3554   */\n    tag_401:\n        /* \"#utility.yul\":3508:3529   */\n      tag_548\n        /* \"#utility.yul\":3523:3528   */\n      dup2\n        /* \"#utility.yul\":3508:3529   */\n      tag_400\n      jump\t// in\n    tag_548:\n        /* \"#utility.yul\":3501:3506   */\n      dup2\n        /* \"#utility.yul\":3498:3530   */\n      eq\n        /* \"#utility.yul\":3488:3548   */\n      tag_549\n      jumpi\n        /* \"#utility.yul\":3544:3545   */\n      0x00\n        /* \"#utility.yul\":3541:3542   */\n      dup1\n        /* \"#utility.yul\":3534:3546   */\n      revert\n        /* \"#utility.yul\":3488:3548   */\n    tag_549:\n        /* \"#utility.yul\":3438:3554   */\n      pop\n      jump\t// out\n        /* \"#utility.yul\":3560:3693   */\n    tag_402:\n        /* \"#utility.yul\":3603:3608   */\n      0x00\n        /* \"#utility.yul\":3641:3647   */\n      dup2\n        /* \"#utility.yul\":3628:3648   */\n      calldataload\n        /* \"#utility.yul\":3619:3648   */\n      swap1\n      pop\n        /* \"#utility.yul\":3657:3687   */\n      tag_551\n        /* \"#utility.yul\":3681:3686   */\n      dup2\n        /* \"#utility.yul\":3657:3687   */\n      tag_401\n      jump\t// in\n    tag_551:\n        /* \"#utility.yul\":3560:3693   */\n      swap3\n      swap2\n      pop\n      pop\n      jump\t// out\n        /* \"#utility.yul\":3699:4167   */\n    tag_54:\n        /* \"#utility.yul\":3764:3770   */\n      0x00\n        /* \"#utility.yul\":3772:3778   */\n      dup1\n        /* \"#utility.yul\":3821:3823   */\n      0x40\n        /* \"#utility.yul\":3809:3818   */\n      dup4\n        /* \"#utility.yul\":3800:3807   */\n      dup6\n        /* \"#utility.yul\":3796:3819   */\n      sub\n        /* \"#utility.yul\":3792:3824   */\n      slt\n        /* \"#utility.yul\":3789:3908   */\n      iszero\n      tag_553\n      jumpi\n        /* \"#utility.yul\":3827:3906   */\n      tag_554\n      tag_385\n      jump\t// in\n    tag_554:\n        /* \"#utility.yul\":3789:3908   */\n    tag_553:\n        /* \"#utility.yul\":3947:3948   */\n      0x00\n        /* \"#utility.yul\":3972:4025   */\n      tag_555\n        /* \"#utility.yul\":4017:4024   */\n      dup6\n        /* \"#utility.yul\":4008:4014   */\n      dup3\n        /* \"#utility.yul\":3997:4006   */\n      dup7\n        /* \"#utility.yul\":3993:4015   */\n      add\n        /* \"#utility.yul\":3972:4025   */\n      tag_389\n      jump\t// in\n    tag_555:\n        /* \"#utility.yul\":3962:4025   */\n      swap3\n      pop\n        /* \"#utility.yul\":3918:4035   */\n      pop\n        /* \"#utility.yul\":4074:4076   */\n      0x20\n        /* \"#utility.yul\":4100:4150   */\n      tag_556\n        /* \"#utility.yul\":4142:4149   */\n      dup6\n        /* \"#utility.yul\":4133:4139   */\n      dup3\n        /* \"#utility.yul\":4122:4131   */\n      dup7\n        /* \"#utility.yul\":4118:4140   */\n      add\n        /* \"#utility.yul\":4100:4150   */\n      tag_402\n      jump\t// in\n    tag_556:\n        /* \"#utility.yul\":4090:4150   */\n      swap2\n      pop\n        /* \"#utility.yul\":4045:4160   */\n      pop\n        /* \"#utility.yul\":3699:4167   */\n      swap3\n      pop\n      swap3\n      swap1\n      pop\n      jump\t// out\n        /* \"#utility.yul\":4173:4502   */\n    tag_58:\n        /* \"#utility.yul\":4232:4238   */\n      0x00\n        /* \"#utility.yul\":4281:4283   */\n      0x20\n        /* \"#utility.yul\":4269:4278   */\n      dup3\n        /* \"#utility.yul\":4260:4267   */\n      dup5\n        /* \"#utility.yul\":4256:4279   */\n      sub\n        /* \"#utility.yul\":4252:4284   */\n      slt\n        /* \"#utility.yul\":4249:4368   */\n      iszero\n      tag_558\n      jumpi\n        /* \"#utility.yul\":4287:4366   */\n      tag_559\n      tag_385\n      jump\t// in\n    tag_559:\n        /* \"#utility.yul\":4249:4368   */\n    tag_558:\n        /* \"#utility.yul\":4407:4408   */\n      0x00\n        /* \"#utility.yul\":4432:4485   */\n      tag_560\n        /* \"#utility.yul\":4477:4484   */\n      dup5\n        /* \"#utility.yul\":4468:4474   */\n      dup3\n        /* \"#utility.yul\":4457:4466   */\n      dup6\n        /* \"#utility.yul\":4453:4475   */\n      add\n        /* \"#utility.yul\":4432:4485   */\n      tag_392\n      jump\t// in\n    tag_560:\n        /* \"#utility.yul\":4422:4485   */\n      swap2\n      pop\n        /* \"#utility.yul\":4378:4495   */\n      pop\n        /* \"#utility.yul\":4173:4502   */\n      swap3\n      swap2\n      pop\n      pop\n      jump\t// out\n        /* \"#utility.yul\":4508:4626   */\n    tag_403:\n        /* \"#utility.yul\":4595:4619   */\n      tag_562\n        /* \"#utility.yul\":4613:4618   */\n      dup2\n        /* \"#utility.yul\":4595:4619   */\n      tag_387\n      jump\t// in\n    tag_562:\n        /* \"#utility.yul\":4590:4593   */\n      dup3\n        /* \"#utility.yul\":4583:4620   */\n      mstore\n        /* \"#utility.yul\":4508:4626   */\n      pop\n      pop\n      jump\t// out\n        /* \"#utility.yul\":4632:4854   */\n    tag_61:\n        /* \"#utility.yul\":4725:4729   */\n      0x00\n        /* \"#utility.yul\":4763:4765   */\n      0x20\n        /* \"#utility.yul\":4752:4761   */\n      dup3\n        /* \"#utility.yul\":4748:4766   */\n      add\n        /* \"#utility.yul\":4740:4766   */\n      swap1\n      pop\n        /* \"#utility.yul\":4776:4847   */\n      tag_564\n        /* \"#utility.yul\":4844:4845   */\n      0x00\n        /* \"#utility.yul\":4833:4842   */\n      dup4\n        /* \"#utility.yul\":4829:4846   */\n      add\n        /* \"#utility.yul\":4820:4826   */\n      dup5\n        /* \"#utility.yul\":4776:4847   */\n      tag_403\n      jump\t// in\n    tag_564:\n        /* \"#utility.yul\":4632:4854   */\n      swap3\n      swap2\n      pop\n      pop\n      jump\t// out\n        /* \"#utility.yul\":4860:4977   */\n    tag_404:\n        /* \"#utility.yul\":4969:4970   */\n      0x00\n        /* \"#utility.yul\":4966:4967   */\n      dup1\n        /* \"#utility.yul\":4959:4971   */\n      revert\n        /* \"#utility.yul\":4983:5100   */\n    tag_405:\n        /* \"#utility.yul\":5092:5093   */\n      0x00\n        /* \"#utility.yul\":5089:5090   */\n      dup1\n        /* \"#utility.yul\":5082:5094   */\n      revert\n        /* \"#utility.yul\":5106:5208   */\n    tag_406:\n        /* \"#utility.yul\":5147:5153   */\n      0x00\n        /* \"#utility.yul\":5198:5200   */\n      0x1f\n        /* \"#utility.yul\":5194:5201   */\n      not\n        /* \"#utility.yul\":5189:5191   */\n      0x1f\n        /* \"#utility.yul\":5182:5187   */\n      dup4\n        /* \"#utility.yul\":5178:5192   */\n      add\n        /* \"#utility.yul\":5174:5202   */\n      and\n        /* \"#utility.yul\":5164:5202   */\n      swap1\n      pop\n        /* \"#utility.yul\":5106:5208   */\n      swap2\n      swap1\n      pop\n      jump\t// out\n        /* \"#utility.yul\":5214:5394   */\n    tag_182:\n        /* \"#utility.yul\":5262:5339   */\n      0x4e487b7100000000000000000000000000000000000000000000000000000000\n        /* \"#utility.yul\":5259:5260   */\n      0x00\n        /* \"#utility.yul\":5252:5340   */\n      mstore\n        /* \"#utility.yul\":5359:5363   */\n      0x41\n        /* \"#utility.yul\":5356:5357   */\n      0x04\n        /* \"#utility.yul\":5349:5364   */\n      mstore\n        /* \"#utility.yul\":5383:5387   */\n      0x24\n        /* \"#utility.yul\":5380:5381   */\n      0x00\n        /* \"#utility.yul\":5373:5388   */\n      revert\n        /* \"#utility.yul\":5400:5681   */\n    tag_407:\n        /* \"#utility.yul\":5483:5510   */\n      tag_570\n        /* \"#utility.yul\":5505:5509   */\n      dup3\n        /* \"#utility.yul\":5483:5510   */\n      tag_406\n      jump\t// in\n    tag_570:\n        /* \"#utility.yul\":5475:5481   */\n      dup2\n        /* \"#utility.yul\":5471:5511   */\n      add\n        /* \"#utility.yul\":5613:5619   */\n      dup2\n        /* \"#utility.yul\":5601:5611   */\n      dup2\n        /* \"#utility.yul\":5598:5620   */\n      lt\n        /* \"#utility.yul\":5577:5595   */\n      0xffffffffffffffff\n        /* \"#utility.yul\":5565:5575   */\n      dup3\n        /* \"#utility.yul\":5562:5596   */\n      gt\n        /* \"#utility.yul\":5559:5621   */\n      or\n        /* \"#utility.yul\":5556:5644   */\n      iszero\n      tag_571\n      jumpi\n        /* \"#utility.yul\":5624:5642   */\n      tag_572\n      tag_182\n      jump\t// in\n    tag_572:\n        /* \"#utility.yul\":5556:5644   */\n    tag_571:\n        /* \"#utility.yul\":5664:5674   */\n      dup1\n        /* \"#utility.yul\":5660:5662   */\n      0x40\n        /* \"#utility.yul\":5653:5675   */\n      mstore\n        /* \"#utility.yul\":5443:5681   */\n      pop\n        /* \"#utility.yul\":5400:5681   */\n      pop\n      pop\n      jump\t// out\n        /* \"#utility.yul\":5687:5816   */\n    tag_408:\n        /* \"#utility.yul\":5721:5727   */\n      0x00\n        /* \"#utility.yul\":5748:5768   */\n      tag_574\n      tag_384\n      jump\t// in\n    tag_574:\n        /* \"#utility.yul\":5738:5768   */\n      swap1\n      pop\n        /* \"#utility.yul\":5777:5810   */\n      tag_575\n        /* \"#utility.yul\":5805:5809   */\n      dup3\n        /* \"#utility.yul\":5797:5803   */\n      dup3\n        /* \"#utility.yul\":5777:5810   */\n      tag_407\n      jump\t// in\n    tag_575:\n        /* \"#utility.yul\":5687:5816   */\n      swap2\n      swap1\n      pop\n      jump\t// out\n        /* \"#utility.yul\":5822:6130   */\n    tag_409:\n        /* \"#utility.yul\":5884:5888   */\n      0x00\n        /* \"#utility.yul\":5974:5992   */\n      0xffffffffffffffff\n        /* \"#utility.yul\":5966:5972   */\n      dup3\n        /* \"#utility.yul\":5963:5993   */\n      gt\n        /* \"#utility.yul\":5960:6016   */\n      iszero\n      tag_577\n      jumpi\n        /* \"#utility.yul\":5996:6014   */\n      tag_578\n      tag_182\n      jump\t// in\n    tag_578:\n        /* \"#utility.yul\":5960:6016   */\n    tag_577:\n        /* \"#utility.yul\":6034:6063   */\n      tag_579\n        /* \"#utility.yul\":6056:6062   */\n      dup3\n        /* \"#utility.yul\":6034:6063   */\n      tag_406\n      jump\t// in\n    tag_579:\n        /* \"#utility.yul\":6026:6063   */\n      swap1\n      pop\n        /* \"#utility.yul\":6118:6122   */\n      0x20\n        /* \"#utility.yul\":6112:6116   */\n      dup2\n        /* \"#utility.yul\":6108:6123   */\n      add\n        /* \"#utility.yul\":6100:6123   */\n      swap1\n      pop\n        /* \"#utility.yul\":5822:6130   */\n      swap2\n      swap1\n      pop\n      jump\t// out\n        /* \"#utility.yul\":6136:6282   */\n    tag_410:\n        /* \"#utility.yul\":6233:6239   */\n      dup3\n        /* \"#utility.yul\":6228:6231   */\n      dup2\n        /* \"#utility.yul\":6223:6226   */\n      dup4\n        /* \"#utility.yul\":6210:6240   */\n      calldatacopy\n        /* \"#utility.yul\":6274:6275   */\n      0x00\n        /* \"#utility.yul\":6265:6271   */\n      dup4\n        /* \"#utility.yul\":6260:6263   */\n      dup4\n        /* \"#utility.yul\":6256:6272   */\n      add\n        /* \"#utility.yul\":6249:6276   */\n      mstore\n        /* \"#utility.yul\":6136:6282   */\n      pop\n      pop\n      pop\n      jump\t// out\n        /* \"#utility.yul\":6288:6713   */\n    tag_411:\n        /* \"#utility.yul\":6366:6371   */\n      0x00\n        /* \"#utility.yul\":6391:6457   */\n      tag_582\n        /* \"#utility.yul\":6407:6456   */\n      tag_583\n        /* \"#utility.yul\":6449:6455   */\n      dup5\n        /* \"#utility.yul\":6407:6456   */\n      tag_409\n      jump\t// in\n    tag_583:\n        /* \"#utility.yul\":6391:6457   */\n      tag_408\n      jump\t// in\n    tag_582:\n        /* \"#utility.yul\":6382:6457   */\n      swap1\n      pop\n        /* \"#utility.yul\":6480:6486   */\n      dup3\n        /* \"#utility.yul\":6473:6478   */\n      dup2\n        /* \"#utility.yul\":6466:6487   */\n      mstore\n        /* \"#utility.yul\":6518:6522   */\n      0x20\n        /* \"#utility.yul\":6511:6516   */\n      dup2\n        /* \"#utility.yul\":6507:6523   */\n      add\n        /* \"#utility.yul\":6556:6559   */\n      dup5\n        /* \"#utility.yul\":6547:6553   */\n      dup5\n        /* \"#utility.yul\":6542:6545   */\n      dup5\n        /* \"#utility.yul\":6538:6554   */\n      add\n        /* \"#utility.yul\":6535:6560   */\n      gt\n        /* \"#utility.yul\":6532:6644   */\n      iszero\n      tag_584\n      jumpi\n        /* \"#utility.yul\":6563:6642   */\n      tag_585\n      tag_405\n      jump\t// in\n    tag_585:\n        /* \"#utility.yul\":6532:6644   */\n    tag_584:\n        /* \"#utility.yul\":6653:6707   */\n      tag_586\n        /* \"#utility.yul\":6700:6706   */\n      dup5\n        /* \"#utility.yul\":6695:6698   */\n      dup3\n        /* \"#utility.yul\":6690:6693   */\n      dup6\n        /* \"#utility.yul\":6653:6707   */\n      tag_410\n      jump\t// in\n    tag_586:\n        /* \"#utility.yul\":6372:6713   */\n      pop\n        /* \"#utility.yul\":6288:6713   */\n      swap4\n      swap3\n      pop\n      pop\n      pop\n      jump\t// out\n        /* \"#utility.yul\":6733:7073   */\n    tag_412:\n        /* \"#utility.yul\":6789:6794   */\n      0x00\n        /* \"#utility.yul\":6838:6841   */\n      dup3\n        /* \"#utility.yul\":6831:6835   */\n      0x1f\n        /* \"#utility.yul\":6823:6829   */\n      dup4\n        /* \"#utility.yul\":6819:6836   */\n      add\n        /* \"#utility.yul\":6815:6842   */\n      slt\n        /* \"#utility.yul\":6805:6927   */\n      tag_588\n      jumpi\n        /* \"#utility.yul\":6846:6925   */\n      tag_589\n      tag_404\n      jump\t// in\n    tag_589:\n        /* \"#utility.yul\":6805:6927   */\n    tag_588:\n        /* \"#utility.yul\":6963:6969   */\n      dup2\n        /* \"#utility.yul\":6950:6970   */\n      calldataload\n        /* \"#utility.yul\":6988:7067   */\n      tag_590\n        /* \"#utility.yul\":7063:7066   */\n      dup5\n        /* \"#utility.yul\":7055:7061   */\n      dup3\n        /* \"#utility.yul\":7048:7052   */\n      0x20\n        /* \"#utility.yul\":7040:7046   */\n      dup7\n        /* \"#utility.yul\":7036:7053   */\n      add\n        /* \"#utility.yul\":6988:7067   */\n      tag_411\n      jump\t// in\n    tag_590:\n        /* \"#utility.yul\":6979:7067   */\n      swap2\n      pop\n        /* \"#utility.yul\":6795:7073   */\n      pop\n        /* \"#utility.yul\":6733:7073   */\n      swap3\n      swap2\n      pop\n      pop\n      jump\t// out\n        /* \"#utility.yul\":7079:7588   */\n    tag_64:\n        /* \"#utility.yul\":7148:7154   */\n      0x00\n        /* \"#utility.yul\":7197:7199   */\n      0x20\n        /* \"#utility.yul\":7185:7194   */\n      dup3\n        /* \"#utility.yul\":7176:7183   */\n      dup5\n        /* \"#utility.yul\":7172:7195   */\n      sub\n        /* \"#utility.yul\":7168:7200   */\n      slt\n        /* \"#utility.yul\":7165:7284   */\n      iszero\n      tag_592\n      jumpi\n        /* \"#utility.yul\":7203:7282   */\n      tag_593\n      tag_385\n      jump\t// in\n    tag_593:\n        /* \"#utility.yul\":7165:7284   */\n    tag_592:\n        /* \"#utility.yul\":7351:7352   */\n      0x00\n        /* \"#utility.yul\":7340:7349   */\n      dup3\n        /* \"#utility.yul\":7336:7353   */\n      add\n        /* \"#utility.yul\":7323:7354   */\n      calldataload\n        /* \"#utility.yul\":7381:7399   */\n      0xffffffffffffffff\n        /* \"#utility.yul\":7373:7379   */\n      dup2\n        /* \"#utility.yul\":7370:7400   */\n      gt\n        /* \"#utility.yul\":7367:7484   */\n      iszero\n      tag_594\n      jumpi\n        /* \"#utility.yul\":7403:7482   */\n      tag_595\n      tag_386\n      jump\t// in\n    tag_595:\n        /* \"#utility.yul\":7367:7484   */\n    tag_594:\n        /* \"#utility.yul\":7508:7571   */\n      tag_596\n        /* \"#utility.yul\":7563:7570   */\n      dup5\n        /* \"#utility.yul\":7554:7560   */\n      dup3\n        /* \"#utility.yul\":7543:7552   */\n      dup6\n        /* \"#utility.yul\":7539:7561   */\n      add\n        /* \"#utility.yul\":7508:7571   */\n      tag_412\n      jump\t// in\n    tag_596:\n        /* \"#utility.yul\":7498:7571   */\n      swap2\n      pop\n        /* \"#utility.yul\":7294:7581   */\n      pop\n        /* \"#utility.yul\":7079:7588   */\n      swap3\n      swap2\n      pop\n      pop\n      jump\t// out\n        /* \"#utility.yul\":7594:7712   */\n    tag_413:\n        /* \"#utility.yul\":7681:7705   */\n      tag_598\n        /* \"#utility.yul\":7699:7704   */\n      dup2\n        /* \"#utility.yul\":7681:7705   */\n      tag_390\n      jump\t// in\n    tag_598:\n        /* \"#utility.yul\":7676:7679   */\n      dup3\n        /* \"#utility.yul\":7669:7706   */\n      mstore\n        /* \"#utility.yul\":7594:7712   */\n      pop\n      pop\n      jump\t// out\n        /* \"#utility.yul\":7718:7940   */\n    tag_67:\n        /* \"#utility.yul\":7811:7815   */\n      0x00\n        /* \"#utility.yul\":7849:7851   */\n      0x20\n        /* \"#utility.yul\":7838:7847   */\n      dup3\n        /* \"#utility.yul\":7834:7852   */\n      add\n        /* \"#utility.yul\":7826:7852   */\n      swap1\n      pop\n        /* \"#utility.yul\":7862:7933   */\n      tag_600\n        /* \"#utility.yul\":7930:7931   */\n      0x00\n        /* \"#utility.yul\":7919:7928   */\n      dup4\n        /* \"#utility.yul\":7915:7932   */\n      add\n        /* \"#utility.yul\":7906:7912   */\n      dup5\n        /* \"#utility.yul\":7862:7933   */\n      tag_413\n      jump\t// in\n    tag_600:\n        /* \"#utility.yul\":7718:7940   */\n      swap3\n      swap2\n      pop\n      pop\n      jump\t// out\n        /* \"#utility.yul\":7946:8063   */\n    tag_414:\n        /* \"#utility.yul\":8055:8056   */\n      0x00\n        /* \"#utility.yul\":8052:8053   */\n      dup1\n        /* \"#utility.yul\":8045:8057   */\n      revert\n        /* \"#utility.yul\":8069:8186   */\n    tag_415:\n        /* \"#utility.yul\":8178:8179   */\n      0x00\n        /* \"#utility.yul\":8175:8176   */\n      dup1\n        /* \"#utility.yul\":8168:8180   */\n      revert\n        /* \"#utility.yul\":8192:8441   */\n    tag_416:\n        /* \"#utility.yul\":8267:8271   */\n      0x00\n        /* \"#utility.yul\":8357:8375   */\n      0xffffffffffffffff\n        /* \"#utility.yul\":8349:8355   */\n      dup3\n        /* \"#utility.yul\":8346:8376   */\n      gt\n        /* \"#utility.yul\":8343:8399   */\n      iszero\n      tag_604\n      jumpi\n        /* \"#utility.yul\":8379:8397   */\n      tag_605\n      tag_182\n      jump\t// in\n    tag_605:\n        /* \"#utility.yul\":8343:8399   */\n    tag_604:\n        /* \"#utility.yul\":8429:8433   */\n      0x20\n        /* \"#utility.yul\":8421:8427   */\n      dup3\n        /* \"#utility.yul\":8417:8434   */\n      mul\n        /* \"#utility.yul\":8409:8434   */\n      swap1\n      pop\n        /* \"#utility.yul\":8192:8441   */\n      swap2\n      swap1\n      pop\n      jump\t// out\n        /* \"#utility.yul\":8447:8564   */\n    tag_417:\n        /* \"#utility.yul\":8556:8557   */\n      0x00\n        /* \"#utility.yul\":8553:8554   */\n      dup1\n        /* \"#utility.yul\":8546:8558   */\n      revert\n        /* \"#utility.yul\":8570:8692   */\n    tag_418:\n        /* \"#utility.yul\":8643:8667   */\n      tag_608\n        /* \"#utility.yul\":8661:8666   */\n      dup2\n        /* \"#utility.yul\":8643:8667   */\n      tag_398\n      jump\t// in\n    tag_608:\n        /* \"#utility.yul\":8636:8641   */\n      dup2\n        /* \"#utility.yul\":8633:8668   */\n      eq\n        /* \"#utility.yul\":8623:8686   */\n      tag_609\n      jumpi\n        /* \"#utility.yul\":8682:8683   */\n      0x00\n        /* \"#utility.yul\":8679:8680   */\n      dup1\n        /* \"#utility.yul\":8672:8684   */\n      revert\n        /* \"#utility.yul\":8623:8686   */\n    tag_609:\n        /* \"#utility.yul\":8570:8692   */\n      pop\n      jump\t// out\n        /* \"#utility.yul\":8698:8837   */\n    tag_419:\n        /* \"#utility.yul\":8744:8749   */\n      0x00\n        /* \"#utility.yul\":8782:8788   */\n      dup2\n        /* \"#utility.yul\":8769:8789   */\n      calldataload\n        /* \"#utility.yul\":8760:8789   */\n      swap1\n      pop\n        /* \"#utility.yul\":8798:8831   */\n      tag_611\n        /* \"#utility.yul\":8825:8830   */\n      dup2\n        /* \"#utility.yul\":8798:8831   */\n      tag_418\n      jump\t// in\n    tag_611:\n        /* \"#utility.yul\":8698:8837   */\n      swap3\n      swap2\n      pop\n      pop\n      jump\t// out\n        /* \"#utility.yul\":8861:9504   */\n    tag_420:\n        /* \"#utility.yul\":8955:8960   */\n      0x00\n        /* \"#utility.yul\":8980:9059   */\n      tag_613\n        /* \"#utility.yul\":8996:9058   */\n      tag_614\n        /* \"#utility.yul\":9051:9057   */\n      dup5\n        /* \"#utility.yul\":8996:9058   */\n      tag_416\n      jump\t// in\n    tag_614:\n        /* \"#utility.yul\":8980:9059   */\n      tag_408\n      jump\t// in\n    tag_613:\n        /* \"#utility.yul\":8971:9059   */\n      swap1\n      pop\n        /* \"#utility.yul\":9079:9084   */\n      dup1\n        /* \"#utility.yul\":9132:9136   */\n      0x20\n        /* \"#utility.yul\":9124:9130   */\n      dup5\n        /* \"#utility.yul\":9120:9137   */\n      mul\n        /* \"#utility.yul\":9112:9118   */\n      dup4\n        /* \"#utility.yul\":9108:9138   */\n      add\n        /* \"#utility.yul\":9161:9164   */\n      dup6\n        /* \"#utility.yul\":9153:9159   */\n      dup2\n        /* \"#utility.yul\":9150:9165   */\n      gt\n        /* \"#utility.yul\":9147:9269   */\n      iszero\n      tag_615\n      jumpi\n        /* \"#utility.yul\":9180:9259   */\n      tag_616\n      tag_417\n      jump\t// in\n    tag_616:\n        /* \"#utility.yul\":9147:9269   */\n    tag_615:\n        /* \"#utility.yul\":9295:9301   */\n      dup4\n        /* \"#utility.yul\":9278:9498   */\n    tag_617:\n        /* \"#utility.yul\":9312:9318   */\n      dup2\n        /* \"#utility.yul\":9307:9310   */\n      dup2\n        /* \"#utility.yul\":9304:9319   */\n      lt\n        /* \"#utility.yul\":9278:9498   */\n      iszero\n      tag_619\n      jumpi\n        /* \"#utility.yul\":9387:9390   */\n      dup1\n        /* \"#utility.yul\":9416:9453   */\n      tag_620\n        /* \"#utility.yul\":9449:9452   */\n      dup9\n        /* \"#utility.yul\":9437:9447   */\n      dup3\n        /* \"#utility.yul\":9416:9453   */\n      tag_419\n      jump\t// in\n    tag_620:\n        /* \"#utility.yul\":9411:9414   */\n      dup5\n        /* \"#utility.yul\":9404:9454   */\n      mstore\n        /* \"#utility.yul\":9483:9487   */\n      0x20\n        /* \"#utility.yul\":9478:9481   */\n      dup5\n        /* \"#utility.yul\":9474:9488   */\n      add\n        /* \"#utility.yul\":9467:9488   */\n      swap4\n      pop\n        /* \"#utility.yul\":9354:9498   */\n      pop\n        /* \"#utility.yul\":9338:9342   */\n      0x20\n        /* \"#utility.yul\":9333:9336   */\n      dup2\n        /* \"#utility.yul\":9329:9343   */\n      add\n        /* \"#utility.yul\":9322:9343   */\n      swap1\n      pop\n        /* \"#utility.yul\":9278:9498   */\n      jump(tag_617)\n    tag_619:\n        /* \"#utility.yul\":9282:9303   */\n      pop\n        /* \"#utility.yul\":8961:9504   */\n      pop\n      pop\n        /* \"#utility.yul\":8861:9504   */\n      swap4\n      swap3\n      pop\n      pop\n      pop\n      jump\t// out\n        /* \"#utility.yul\":9528:9867   */\n    tag_421:\n        /* \"#utility.yul\":9597:9602   */\n      0x00\n        /* \"#utility.yul\":9646:9649   */\n      dup3\n        /* \"#utility.yul\":9639:9643   */\n      0x1f\n        /* \"#utility.yul\":9631:9637   */\n      dup4\n        /* \"#utility.yul\":9627:9644   */\n      add\n        /* \"#utility.yul\":9623:9650   */\n      slt\n        /* \"#utility.yul\":9613:9735   */\n      tag_622\n      jumpi\n        /* \"#utility.yul\":9654:9733   */\n      tag_623\n      tag_404\n      jump\t// in\n    tag_623:\n        /* \"#utility.yul\":9613:9735   */\n    tag_622:\n        /* \"#utility.yul\":9758:9762   */\n      0x02\n        /* \"#utility.yul\":9780:9861   */\n      tag_624\n        /* \"#utility.yul\":9857:9860   */\n      dup5\n        /* \"#utility.yul\":9849:9855   */\n      dup3\n        /* \"#utility.yul\":9841:9847   */\n      dup6\n        /* \"#utility.yul\":9780:9861   */\n      tag_420\n      jump\t// in\n    tag_624:\n        /* \"#utility.yul\":9771:9861   */\n      swap2\n      pop\n        /* \"#utility.yul\":9603:9867   */\n      pop\n        /* \"#utility.yul\":9528:9867   */\n      swap3\n      swap2\n      pop\n      pop\n      jump\t// out\n        /* \"#utility.yul\":9873:10145   */\n    tag_422:\n        /* \"#utility.yul\":9971:9975   */\n      0x00\n        /* \"#utility.yul\":10061:10079   */\n      0xffffffffffffffff\n        /* \"#utility.yul\":10053:10059   */\n      dup3\n        /* \"#utility.yul\":10050:10080   */\n      gt\n        /* \"#utility.yul\":10047:10103   */\n      iszero\n      tag_626\n      jumpi\n        /* \"#utility.yul\":10083:10101   */\n      tag_627\n      tag_182\n      jump\t// in\n    tag_627:\n        /* \"#utility.yul\":10047:10103   */\n    tag_626:\n        /* \"#utility.yul\":10133:10137   */\n      0x20\n        /* \"#utility.yul\":10125:10131   */\n      dup3\n        /* \"#utility.yul\":10121:10138   */\n      mul\n        /* \"#utility.yul\":10113:10138   */\n      swap1\n      pop\n        /* \"#utility.yul\":9873:10145   */\n      swap2\n      swap1\n      pop\n      jump\t// out\n        /* \"#utility.yul\":10172:10884   */\n    tag_423:\n        /* \"#utility.yul\":10289:10294   */\n      0x00\n        /* \"#utility.yul\":10314:10416   */\n      tag_629\n        /* \"#utility.yul\":10330:10415   */\n      tag_630\n        /* \"#utility.yul\":10408:10414   */\n      dup5\n        /* \"#utility.yul\":10330:10415   */\n      tag_422\n      jump\t// in\n    tag_630:\n        /* \"#utility.yul\":10314:10416   */\n      tag_408\n      jump\t// in\n    tag_629:\n        /* \"#utility.yul\":10305:10416   */\n      swap1\n      pop\n        /* \"#utility.yul\":10436:10441   */\n      dup1\n        /* \"#utility.yul\":10489:10493   */\n      0x40\n        /* \"#utility.yul\":10481:10487   */\n      dup5\n        /* \"#utility.yul\":10477:10494   */\n      mul\n        /* \"#utility.yul\":10469:10475   */\n      dup4\n        /* \"#utility.yul\":10465:10495   */\n      add\n        /* \"#utility.yul\":10518:10521   */\n      dup6\n        /* \"#utility.yul\":10510:10516   */\n      dup2\n        /* \"#utility.yul\":10507:10522   */\n      gt\n        /* \"#utility.yul\":10504:10626   */\n      iszero\n      tag_631\n      jumpi\n        /* \"#utility.yul\":10537:10616   */\n      tag_632\n      tag_417\n      jump\t// in\n    tag_632:\n        /* \"#utility.yul\":10504:10626   */\n    tag_631:\n        /* \"#utility.yul\":10652:10658   */\n      dup4\n        /* \"#utility.yul\":10635:10878   */\n    tag_633:\n        /* \"#utility.yul\":10669:10675   */\n      dup2\n        /* \"#utility.yul\":10664:10667   */\n      dup2\n        /* \"#utility.yul\":10661:10676   */\n      lt\n        /* \"#utility.yul\":10635:10878   */\n      iszero\n      tag_635\n      jumpi\n        /* \"#utility.yul\":10744:10747   */\n      dup1\n        /* \"#utility.yul\":10773:10833   */\n      tag_636\n        /* \"#utility.yul\":10829:10832   */\n      dup9\n        /* \"#utility.yul\":10817:10827   */\n      dup3\n        /* \"#utility.yul\":10773:10833   */\n      tag_421\n      jump\t// in\n    tag_636:\n        /* \"#utility.yul\":10768:10771   */\n      dup5\n        /* \"#utility.yul\":10761:10834   */\n      mstore\n        /* \"#utility.yul\":10863:10867   */\n      0x20\n        /* \"#utility.yul\":10858:10861   */\n      dup5\n        /* \"#utility.yul\":10854:10868   */\n      add\n        /* \"#utility.yul\":10847:10868   */\n      swap4\n      pop\n        /* \"#utility.yul\":10711:10878   */\n      pop\n        /* \"#utility.yul\":10695:10699   */\n      0x40\n        /* \"#utility.yul\":10690:10693   */\n      dup2\n        /* \"#utility.yul\":10686:10700   */\n      add\n        /* \"#utility.yul\":10679:10700   */\n      swap1\n      pop\n        /* \"#utility.yul\":10635:10878   */\n      jump(tag_633)\n    tag_635:\n        /* \"#utility.yul\":10639:10660   */\n      pop\n        /* \"#utility.yul\":10295:10884   */\n      pop\n      pop\n        /* \"#utility.yul\":10172:10884   */\n      swap4\n      swap3\n      pop\n      pop\n      pop\n      jump\t// out\n        /* \"#utility.yul\":10911:11296   */\n    tag_424:\n        /* \"#utility.yul\":11003:11008   */\n      0x00\n        /* \"#utility.yul\":11052:11055   */\n      dup3\n        /* \"#utility.yul\":11045:11049   */\n      0x1f\n        /* \"#utility.yul\":11037:11043   */\n      dup4\n        /* \"#utility.yul\":11033:11050   */\n      add\n        /* \"#utility.yul\":11029:11056   */\n      slt\n        /* \"#utility.yul\":11019:11141   */\n      tag_638\n      jumpi\n        /* \"#utility.yul\":11060:11139   */\n      tag_639\n      tag_404\n      jump\t// in\n    tag_639:\n        /* \"#utility.yul\":11019:11141   */\n    tag_638:\n        /* \"#utility.yul\":11164:11168   */\n      0x02\n        /* \"#utility.yul\":11186:11290   */\n      tag_640\n        /* \"#utility.yul\":11286:11289   */\n      dup5\n        /* \"#utility.yul\":11278:11284   */\n      dup3\n        /* \"#utility.yul\":11270:11276   */\n      dup6\n        /* \"#utility.yul\":11186:11290   */\n      tag_423\n      jump\t// in\n    tag_640:\n        /* \"#utility.yul\":11177:11290   */\n      swap2\n      pop\n        /* \"#utility.yul\":11009:11296   */\n      pop\n        /* \"#utility.yul\":10911:11296   */\n      swap3\n      swap2\n      pop\n      pop\n      jump\t// out\n        /* \"#utility.yul\":11348:13390   */\n    tag_425:\n        /* \"#utility.yul\":11436:11441   */\n      0x00\n        /* \"#utility.yul\":11480:11486   */\n      0x01c0\n        /* \"#utility.yul\":11468:11477   */\n      dup3\n        /* \"#utility.yul\":11463:11466   */\n      dup5\n        /* \"#utility.yul\":11459:11478   */\n      sub\n        /* \"#utility.yul\":11455:11487   */\n      slt\n        /* \"#utility.yul\":11452:11571   */\n      iszero\n      tag_642\n      jumpi\n        /* \"#utility.yul\":11490:11569   */\n      tag_643\n      tag_414\n      jump\t// in\n    tag_643:\n        /* \"#utility.yul\":11452:11571   */\n    tag_642:\n        /* \"#utility.yul\":11589:11612   */\n      tag_644\n        /* \"#utility.yul\":11605:11611   */\n      0x0120\n        /* \"#utility.yul\":11589:11612   */\n      tag_408\n      jump\t// in\n    tag_644:\n        /* \"#utility.yul\":11580:11612   */\n      swap1\n      pop\n        /* \"#utility.yul\":11705:11706   */\n      0x00\n        /* \"#utility.yul\":11694:11703   */\n      dup3\n        /* \"#utility.yul\":11690:11707   */\n      add\n        /* \"#utility.yul\":11677:11708   */\n      calldataload\n        /* \"#utility.yul\":11735:11753   */\n      0xffffffffffffffff\n        /* \"#utility.yul\":11727:11733   */\n      dup2\n        /* \"#utility.yul\":11724:11754   */\n      gt\n        /* \"#utility.yul\":11721:11838   */\n      iszero\n      tag_645\n      jumpi\n        /* \"#utility.yul\":11757:11836   */\n      tag_646\n      tag_415\n      jump\t// in\n    tag_646:\n        /* \"#utility.yul\":11721:11838   */\n    tag_645:\n        /* \"#utility.yul\":11877:11936   */\n      tag_647\n        /* \"#utility.yul\":11932:11935   */\n      dup5\n        /* \"#utility.yul\":11923:11929   */\n      dup3\n        /* \"#utility.yul\":11912:11921   */\n      dup6\n        /* \"#utility.yul\":11908:11930   */\n      add\n        /* \"#utility.yul\":11877:11936   */\n      tag_412\n      jump\t// in\n    tag_647:\n        /* \"#utility.yul\":11870:11874   */\n      0x00\n        /* \"#utility.yul\":11863:11868   */\n      dup4\n        /* \"#utility.yul\":11859:11875   */\n      add\n        /* \"#utility.yul\":11852:11937   */\n      mstore\n        /* \"#utility.yul\":11622:11948   */\n      pop\n        /* \"#utility.yul\":12007:12009   */\n      0x20\n        /* \"#utility.yul\":12048:12120   */\n      tag_648\n        /* \"#utility.yul\":12116:12119   */\n      dup5\n        /* \"#utility.yul\":12107:12113   */\n      dup3\n        /* \"#utility.yul\":12096:12105   */\n      dup6\n        /* \"#utility.yul\":12092:12114   */\n      add\n        /* \"#utility.yul\":12048:12120   */\n      tag_421\n      jump\t// in\n    tag_648:\n        /* \"#utility.yul\":12041:12045   */\n      0x20\n        /* \"#utility.yul\":12034:12039   */\n      dup4\n        /* \"#utility.yul\":12030:12046   */\n      add\n        /* \"#utility.yul\":12023:12121   */\n      mstore\n        /* \"#utility.yul\":11958:12132   */\n      pop\n        /* \"#utility.yul\":12191:12193   */\n      0x60\n        /* \"#utility.yul\":12232:12327   */\n      tag_649\n        /* \"#utility.yul\":12323:12326   */\n      dup5\n        /* \"#utility.yul\":12314:12320   */\n      dup3\n        /* \"#utility.yul\":12303:12312   */\n      dup6\n        /* \"#utility.yul\":12299:12321   */\n      add\n        /* \"#utility.yul\":12232:12327   */\n      tag_424\n      jump\t// in\n    tag_649:\n        /* \"#utility.yul\":12225:12229   */\n      0x40\n        /* \"#utility.yul\":12218:12223   */\n      dup4\n        /* \"#utility.yul\":12214:12230   */\n      add\n        /* \"#utility.yul\":12207:12328   */\n      mstore\n        /* \"#utility.yul\":12142:12339   */\n      pop\n        /* \"#utility.yul\":12398:12401   */\n      0xe0\n        /* \"#utility.yul\":12440:12512   */\n      tag_650\n        /* \"#utility.yul\":12508:12511   */\n      dup5\n        /* \"#utility.yul\":12499:12505   */\n      dup3\n        /* \"#utility.yul\":12488:12497   */\n      dup6\n        /* \"#utility.yul\":12484:12506   */\n      add\n        /* \"#utility.yul\":12440:12512   */\n      tag_421\n      jump\t// in\n    tag_650:\n        /* \"#utility.yul\":12433:12437   */\n      0x60\n        /* \"#utility.yul\":12426:12431   */\n      dup4\n        /* \"#utility.yul\":12422:12438   */\n      add\n        /* \"#utility.yul\":12415:12513   */\n      mstore\n        /* \"#utility.yul\":12349:12524   */\n      pop\n        /* \"#utility.yul\":12597:12600   */\n      0x0120\n        /* \"#utility.yul\":12639:12688   */\n      tag_651\n        /* \"#utility.yul\":12684:12687   */\n      dup5\n        /* \"#utility.yul\":12675:12681   */\n      dup3\n        /* \"#utility.yul\":12664:12673   */\n      dup6\n        /* \"#utility.yul\":12660:12682   */\n      add\n        /* \"#utility.yul\":12639:12688   */\n      tag_392\n      jump\t// in\n    tag_651:\n        /* \"#utility.yul\":12632:12636   */\n      0x80\n        /* \"#utility.yul\":12625:12630   */\n      dup4\n        /* \"#utility.yul\":12621:12637   */\n      add\n        /* \"#utility.yul\":12614:12689   */\n      mstore\n        /* \"#utility.yul\":12534:12700   */\n      pop\n        /* \"#utility.yul\":12767:12770   */\n      0x0140\n        /* \"#utility.yul\":12809:12858   */\n      tag_652\n        /* \"#utility.yul\":12854:12857   */\n      dup5\n        /* \"#utility.yul\":12845:12851   */\n      dup3\n        /* \"#utility.yul\":12834:12843   */\n      dup6\n        /* \"#utility.yul\":12830:12852   */\n      add\n        /* \"#utility.yul\":12809:12858   */\n      tag_392\n      jump\t// in\n    tag_652:\n        /* \"#utility.yul\":12802:12806   */\n      0xa0\n        /* \"#utility.yul\":12795:12800   */\n      dup4\n        /* \"#utility.yul\":12791:12807   */\n      add\n        /* \"#utility.yul\":12784:12859   */\n      mstore\n        /* \"#utility.yul\":12710:12870   */\n      pop\n        /* \"#utility.yul\":12931:12934   */\n      0x0160\n        /* \"#utility.yul\":12973:13022   */\n      tag_653\n        /* \"#utility.yul\":13018:13021   */\n      dup5\n        /* \"#utility.yul\":13009:13015   */\n      dup3\n        /* \"#utility.yul\":12998:13007   */\n      dup6\n        /* \"#utility.yul\":12994:13016   */\n      add\n        /* \"#utility.yul\":12973:13022   */\n      tag_419\n      jump\t// in\n    tag_653:\n        /* \"#utility.yul\":12966:12970   */\n      0xc0\n        /* \"#utility.yul\":12959:12964   */\n      dup4\n        /* \"#utility.yul\":12955:12971   */\n      add\n        /* \"#utility.yul\":12948:13023   */\n      mstore\n        /* \"#utility.yul\":12880:13034   */\n      pop\n        /* \"#utility.yul\":13109:13112   */\n      0x0180\n        /* \"#utility.yul\":13151:13200   */\n      tag_654\n        /* \"#utility.yul\":13196:13199   */\n      dup5\n        /* \"#utility.yul\":13187:13193   */\n      dup3\n        /* \"#utility.yul\":13176:13185   */\n      dup6\n        /* \"#utility.yul\":13172:13194   */\n      add\n        /* \"#utility.yul\":13151:13200   */\n      tag_389\n      jump\t// in\n    tag_654:\n        /* \"#utility.yul\":13144:13148   */\n      0xe0\n        /* \"#utility.yul\":13137:13142   */\n      dup4\n        /* \"#utility.yul\":13133:13149   */\n      add\n        /* \"#utility.yul\":13126:13201   */\n      mstore\n        /* \"#utility.yul\":13044:13212   */\n      pop\n        /* \"#utility.yul\":13278:13281   */\n      0x01a0\n        /* \"#utility.yul\":13322:13371   */\n      tag_655\n        /* \"#utility.yul\":13367:13370   */\n      dup5\n        /* \"#utility.yul\":13358:13364   */\n      dup3\n        /* \"#utility.yul\":13347:13356   */\n      dup6\n        /* \"#utility.yul\":13343:13365   */\n      add\n        /* \"#utility.yul\":13322:13371   */\n      tag_419\n      jump\t// in\n    tag_655:\n        /* \"#utility.yul\":13313:13319   */\n      0x0100\n        /* \"#utility.yul\":13306:13311   */\n      dup4\n        /* \"#utility.yul\":13302:13320   */\n      add\n        /* \"#utility.yul\":13295:13372   */\n      mstore\n        /* \"#utility.yul\":13222:13383   */\n      pop\n        /* \"#utility.yul\":11348:13390   */\n      swap3\n      swap2\n      pop\n      pop\n      jump\t// out\n        /* \"#utility.yul\":13396:13963   */\n    tag_73:\n        /* \"#utility.yul\":13494:13500   */\n      0x00\n        /* \"#utility.yul\":13543:13545   */\n      0x20\n        /* \"#utility.yul\":13531:13540   */\n      dup3\n        /* \"#utility.yul\":13522:13529   */\n      dup5\n        /* \"#utility.yul\":13518:13541   */\n      sub\n        /* \"#utility.yul\":13514:13546   */\n      slt\n        /* \"#utility.yul\":13511:13630   */\n      iszero\n      tag_657\n      jumpi\n        /* \"#utility.yul\":13549:13628   */\n      tag_658\n      tag_385\n      jump\t// in\n    tag_658:\n        /* \"#utility.yul\":13511:13630   */\n    tag_657:\n        /* \"#utility.yul\":13697:13698   */\n      0x00\n        /* \"#utility.yul\":13686:13695   */\n      dup3\n        /* \"#utility.yul\":13682:13699   */\n      add\n        /* \"#utility.yul\":13669:13700   */\n      calldataload\n        /* \"#utility.yul\":13727:13745   */\n      0xffffffffffffffff\n        /* \"#utility.yul\":13719:13725   */\n      dup2\n        /* \"#utility.yul\":13716:13746   */\n      gt\n        /* \"#utility.yul\":13713:13830   */\n      iszero\n      tag_659\n      jumpi\n        /* \"#utility.yul\":13749:13828   */\n      tag_660\n      tag_386\n      jump\t// in\n    tag_660:\n        /* \"#utility.yul\":13713:13830   */\n    tag_659:\n        /* \"#utility.yul\":13854:13946   */\n      tag_661\n        /* \"#utility.yul\":13938:13945   */\n      dup5\n        /* \"#utility.yul\":13929:13935   */\n      dup3\n        /* \"#utility.yul\":13918:13927   */\n      dup6\n        /* \"#utility.yul\":13914:13936   */\n      add\n        /* \"#utility.yul\":13854:13946   */\n      tag_425\n      jump\t// in\n    tag_661:\n        /* \"#utility.yul\":13844:13946   */\n      swap2\n      pop\n        /* \"#utility.yul\":13640:13956   */\n      pop\n        /* \"#utility.yul\":13396:13963   */\n      swap3\n      swap2\n      pop\n      pop\n      jump\t// out\n        /* \"#utility.yul\":13969:14078   */\n    tag_426:\n        /* \"#utility.yul\":14050:14071   */\n      tag_663\n        /* \"#utility.yul\":14065:14070   */\n      dup2\n        /* \"#utility.yul\":14050:14071   */\n      tag_400\n      jump\t// in\n    tag_663:\n        /* \"#utility.yul\":14045:14048   */\n      dup3\n        /* \"#utility.yul\":14038:14072   */\n      mstore\n        /* \"#utility.yul\":13969:14078   */\n      pop\n      pop\n      jump\t// out\n        /* \"#utility.yul\":14084:14294   */\n    tag_78:\n        /* \"#utility.yul\":14171:14175   */\n      0x00\n        /* \"#utility.yul\":14209:14211   */\n      0x20\n        /* \"#utility.yul\":14198:14207   */\n      dup3\n        /* \"#utility.yul\":14194:14212   */\n      add\n        /* \"#utility.yul\":14186:14212   */\n      swap1\n      pop\n        /* \"#utility.yul\":14222:14287   */\n      tag_665\n        /* \"#utility.yul\":14284:14285   */\n      0x00\n        /* \"#utility.yul\":14273:14282   */\n      dup4\n        /* \"#utility.yul\":14269:14286   */\n      add\n        /* \"#utility.yul\":14260:14266   */\n      dup5\n        /* \"#utility.yul\":14222:14287   */\n      tag_426\n      jump\t// in\n    tag_665:\n        /* \"#utility.yul\":14084:14294   */\n      swap3\n      swap2\n      pop\n      pop\n      jump\t// out\n        /* \"#utility.yul\":14300:14629   */\n    tag_83:\n        /* \"#utility.yul\":14359:14365   */\n      0x00\n        /* \"#utility.yul\":14408:14410   */\n      0x20\n        /* \"#utility.yul\":14396:14405   */\n      dup3\n        /* \"#utility.yul\":14387:14394   */\n      dup5\n        /* \"#utility.yul\":14383:14406   */\n      sub\n        /* \"#utility.yul\":14379:14411   */\n      slt\n        /* \"#utility.yul\":14376:14495   */\n      iszero\n      tag_667\n      jumpi\n        /* \"#utility.yul\":14414:14493   */\n      tag_668\n      tag_385\n      jump\t// in\n    tag_668:\n        /* \"#utility.yul\":14376:14495   */\n    tag_667:\n        /* \"#utility.yul\":14534:14535   */\n      0x00\n        /* \"#utility.yul\":14559:14612   */\n      tag_669\n        /* \"#utility.yul\":14604:14611   */\n      dup5\n        /* \"#utility.yul\":14595:14601   */\n      dup3\n        /* \"#utility.yul\":14584:14593   */\n      dup6\n        /* \"#utility.yul\":14580:14602   */\n      add\n        /* \"#utility.yul\":14559:14612   */\n      tag_419\n      jump\t// in\n    tag_669:\n        /* \"#utility.yul\":14549:14612   */\n      swap2\n      pop\n        /* \"#utility.yul\":14505:14622   */\n      pop\n        /* \"#utility.yul\":14300:14629   */\n      swap3\n      swap2\n      pop\n      pop\n      jump\t// out\n        /* \"#utility.yul\":14676:16529   */\n    tag_427:\n        /* \"#utility.yul\":14759:14764   */\n      0x00\n        /* \"#utility.yul\":14803:14809   */\n      0x01a0\n        /* \"#utility.yul\":14791:14800   */\n      dup3\n        /* \"#utility.yul\":14786:14789   */\n      dup5\n        /* \"#utility.yul\":14782:14801   */\n      sub\n        /* \"#utility.yul\":14778:14810   */\n      slt\n        /* \"#utility.yul\":14775:14894   */\n      iszero\n      tag_671\n      jumpi\n        /* \"#utility.yul\":14813:14892   */\n      tag_672\n      tag_414\n      jump\t// in\n    tag_672:\n        /* \"#utility.yul\":14775:14894   */\n    tag_671:\n        /* \"#utility.yul\":14912:14935   */\n      tag_673\n        /* \"#utility.yul\":14928:14934   */\n      0x0100\n        /* \"#utility.yul\":14912:14935   */\n      tag_408\n      jump\t// in\n    tag_673:\n        /* \"#utility.yul\":14903:14935   */\n      swap1\n      pop\n        /* \"#utility.yul\":15028:15029   */\n      0x00\n        /* \"#utility.yul\":15017:15026   */\n      dup3\n        /* \"#utility.yul\":15013:15030   */\n      add\n        /* \"#utility.yul\":15000:15031   */\n      calldataload\n        /* \"#utility.yul\":15058:15076   */\n      0xffffffffffffffff\n        /* \"#utility.yul\":15050:15056   */\n      dup2\n        /* \"#utility.yul\":15047:15077   */\n      gt\n        /* \"#utility.yul\":15044:15161   */\n      iszero\n      tag_674\n      jumpi\n        /* \"#utility.yul\":15080:15159   */\n      tag_675\n      tag_415\n      jump\t// in\n    tag_675:\n        /* \"#utility.yul\":15044:15161   */\n    tag_674:\n        /* \"#utility.yul\":15200:15259   */\n      tag_676\n        /* \"#utility.yul\":15255:15258   */\n      dup5\n        /* \"#utility.yul\":15246:15252   */\n      dup3\n        /* \"#utility.yul\":15235:15244   */\n      dup6\n        /* \"#utility.yul\":15231:15253   */\n      add\n        /* \"#utility.yul\":15200:15259   */\n      tag_412\n      jump\t// in\n    tag_676:\n        /* \"#utility.yul\":15193:15197   */\n      0x00\n        /* \"#utility.yul\":15186:15191   */\n      dup4\n        /* \"#utility.yul\":15182:15198   */\n      add\n        /* \"#utility.yul\":15175:15260   */\n      mstore\n        /* \"#utility.yul\":14945:15271   */\n      pop\n        /* \"#utility.yul\":15330:15332   */\n      0x20\n        /* \"#utility.yul\":15371:15443   */\n      tag_677\n        /* \"#utility.yul\":15439:15442   */\n      dup5\n        /* \"#utility.yul\":15430:15436   */\n      dup3\n        /* \"#utility.yul\":15419:15428   */\n      dup6\n        /* \"#utility.yul\":15415:15437   */\n      add\n        /* \"#utility.yul\":15371:15443   */\n      tag_421\n      jump\t// in\n    tag_677:\n        /* \"#utility.yul\":15364:15368   */\n      0x20\n        /* \"#utility.yul\":15357:15362   */\n      dup4\n        /* \"#utility.yul\":15353:15369   */\n      add\n        /* \"#utility.yul\":15346:15444   */\n      mstore\n        /* \"#utility.yul\":15281:15455   */\n      pop\n        /* \"#utility.yul\":15514:15516   */\n      0x60\n        /* \"#utility.yul\":15555:15650   */\n      tag_678\n        /* \"#utility.yul\":15646:15649   */\n      dup5\n        /* \"#utility.yul\":15637:15643   */\n      dup3\n        /* \"#utility.yul\":15626:15635   */\n      dup6\n        /* \"#utility.yul\":15622:15644   */\n      add\n        /* \"#utility.yul\":15555:15650   */\n      tag_424\n      jump\t// in\n    tag_678:\n        /* \"#utility.yul\":15548:15552   */\n      0x40\n        /* \"#utility.yul\":15541:15546   */\n      dup4\n        /* \"#utility.yul\":15537:15553   */\n      add\n        /* \"#utility.yul\":15530:15651   */\n      mstore\n        /* \"#utility.yul\":15465:15662   */\n      pop\n        /* \"#utility.yul\":15721:15724   */\n      0xe0\n        /* \"#utility.yul\":15763:15835   */\n      tag_679\n        /* \"#utility.yul\":15831:15834   */\n      dup5\n        /* \"#utility.yul\":15822:15828   */\n      dup3\n        /* \"#utility.yul\":15811:15820   */\n      dup6\n        /* \"#utility.yul\":15807:15829   */\n      add\n        /* \"#utility.yul\":15763:15835   */\n      tag_421\n      jump\t// in\n    tag_679:\n        /* \"#utility.yul\":15756:15760   */\n      0x60\n        /* \"#utility.yul\":15749:15754   */\n      dup4\n        /* \"#utility.yul\":15745:15761   */\n      add\n        /* \"#utility.yul\":15738:15836   */\n      mstore\n        /* \"#utility.yul\":15672:15847   */\n      pop\n        /* \"#utility.yul\":15914:15917   */\n      0x0120\n        /* \"#utility.yul\":15956:16005   */\n      tag_680\n        /* \"#utility.yul\":16001:16004   */\n      dup5\n        /* \"#utility.yul\":15992:15998   */\n      dup3\n        /* \"#utility.yul\":15981:15990   */\n      dup6\n        /* \"#utility.yul\":15977:15999   */\n      add\n        /* \"#utility.yul\":15956:16005   */\n      tag_389\n      jump\t// in\n    tag_680:\n        /* \"#utility.yul\":15949:15953   */\n      0x80\n        /* \"#utility.yul\":15942:15947   */\n      dup4\n        /* \"#utility.yul\":15938:15954   */\n      add\n        /* \"#utility.yul\":15931:16006   */\n      mstore\n        /* \"#utility.yul\":15857:16017   */\n      pop\n        /* \"#utility.yul\":16084:16087   */\n      0x0140\n        /* \"#utility.yul\":16126:16175   */\n      tag_681\n        /* \"#utility.yul\":16171:16174   */\n      dup5\n        /* \"#utility.yul\":16162:16168   */\n      dup3\n        /* \"#utility.yul\":16151:16160   */\n      dup6\n        /* \"#utility.yul\":16147:16169   */\n      add\n        /* \"#utility.yul\":16126:16175   */\n      tag_389\n      jump\t// in\n    tag_681:\n        /* \"#utility.yul\":16119:16123   */\n      0xa0\n        /* \"#utility.yul\":16112:16117   */\n      dup4\n        /* \"#utility.yul\":16108:16124   */\n      add\n        /* \"#utility.yul\":16101:16176   */\n      mstore\n        /* \"#utility.yul\":16027:16187   */\n      pop\n        /* \"#utility.yul\":16253:16256   */\n      0x0160\n        /* \"#utility.yul\":16295:16344   */\n      tag_682\n        /* \"#utility.yul\":16340:16343   */\n      dup5\n        /* \"#utility.yul\":16331:16337   */\n      dup3\n        /* \"#utility.yul\":16320:16329   */\n      dup6\n        /* \"#utility.yul\":16316:16338   */\n      add\n        /* \"#utility.yul\":16295:16344   */\n      tag_419\n      jump\t// in\n    tag_682:\n        /* \"#utility.yul\":16288:16292   */\n      0xc0\n        /* \"#utility.yul\":16281:16286   */\n      dup4\n        /* \"#utility.yul\":16277:16293   */\n      add\n        /* \"#utility.yul\":16270:16345   */\n      mstore\n        /* \"#utility.yul\":16197:16356   */\n      pop\n        /* \"#utility.yul\":16419:16422   */\n      0x0180\n        /* \"#utility.yul\":16461:16510   */\n      tag_683\n        /* \"#utility.yul\":16506:16509   */\n      dup5\n        /* \"#utility.yul\":16497:16503   */\n      dup3\n        /* \"#utility.yul\":16486:16495   */\n      dup6\n        /* \"#utility.yul\":16482:16504   */\n      add\n        /* \"#utility.yul\":16461:16510   */\n      tag_389\n      jump\t// in\n    tag_683:\n        /* \"#utility.yul\":16454:16458   */\n      0xe0\n        /* \"#utility.yul\":16447:16452   */\n      dup4\n        /* \"#utility.yul\":16443:16459   */\n      add\n        /* \"#utility.yul\":16436:16511   */\n      mstore\n        /* \"#utility.yul\":16366:16522   */\n      pop\n        /* \"#utility.yul\":14676:16529   */\n      swap3\n      swap2\n      pop\n      pop\n      jump\t// out\n        /* \"#utility.yul\":16535:17092   */\n    tag_112:\n        /* \"#utility.yul\":16628:16634   */\n      0x00\n        /* \"#utility.yul\":16677:16679   */\n      0x20\n        /* \"#utility.yul\":16665:16674   */\n      dup3\n        /* \"#utility.yul\":16656:16663   */\n      dup5\n        /* \"#utility.yul\":16652:16675   */\n      sub\n        /* \"#utility.yul\":16648:16680   */\n      slt\n        /* \"#utility.yul\":16645:16764   */\n      iszero\n      tag_685\n      jumpi\n        /* \"#utility.yul\":16683:16762   */\n      tag_686\n      tag_385\n      jump\t// in\n    tag_686:\n        /* \"#utility.yul\":16645:16764   */\n    tag_685:\n        /* \"#utility.yul\":16831:16832   */\n      0x00\n        /* \"#utility.yul\":16820:16829   */\n      dup3\n        /* \"#utility.yul\":16816:16833   */\n      add\n        /* \"#utility.yul\":16803:16834   */\n      calldataload\n        /* \"#utility.yul\":16861:16879   */\n      0xffffffffffffffff\n        /* \"#utility.yul\":16853:16859   */\n      dup2\n        /* \"#utility.yul\":16850:16880   */\n      gt\n        /* \"#utility.yul\":16847:16964   */\n      iszero\n      tag_687\n      jumpi\n        /* \"#utility.yul\":16883:16962   */\n      tag_688\n      tag_386\n      jump\t// in\n    tag_688:\n        /* \"#utility.yul\":16847:16964   */\n    tag_687:\n        /* \"#utility.yul\":16988:17075   */\n      tag_689\n        /* \"#utility.yul\":17067:17074   */\n      dup5\n        /* \"#utility.yul\":17058:17064   */\n      dup3\n        /* \"#utility.yul\":17047:17056   */\n      dup6\n        /* \"#utility.yul\":17043:17065   */\n      add\n        /* \"#utility.yul\":16988:17075   */\n      tag_427\n      jump\t// in\n    tag_689:\n        /* \"#utility.yul\":16978:17075   */\n      swap2\n      pop\n        /* \"#utility.yul\":16774:17085   */\n      pop\n        /* \"#utility.yul\":16535:17092   */\n      swap3\n      swap2\n      pop\n      pop\n      jump\t// out\n        /* \"#utility.yul\":17098:17191   */\n    tag_428:\n        /* \"#utility.yul\":17134:17141   */\n      0x00\n        /* \"#utility.yul\":17174:17184   */\n      0xffffffff\n        /* \"#utility.yul\":17167:17172   */\n      dup3\n        /* \"#utility.yul\":17163:17185   */\n      and\n        /* \"#utility.yul\":17152:17185   */\n      swap1\n      pop\n        /* \"#utility.yul\":17098:17191   */\n      swap2\n      swap1\n      pop\n      jump\t// out\n        /* \"#utility.yul\":17197:17317   */\n    tag_429:\n        /* \"#utility.yul\":17269:17292   */\n      tag_692\n        /* \"#utility.yul\":17286:17291   */\n      dup2\n        /* \"#utility.yul\":17269:17292   */\n      tag_428\n      jump\t// in\n    tag_692:\n        /* \"#utility.yul\":17262:17267   */\n      dup2\n        /* \"#utility.yul\":17259:17293   */\n      eq\n        /* \"#utility.yul\":17249:17311   */\n      tag_693\n      jumpi\n        /* \"#utility.yul\":17307:17308   */\n      0x00\n        /* \"#utility.yul\":17304:17305   */\n      dup1\n        /* \"#utility.yul\":17297:17309   */\n      revert\n        /* \"#utility.yul\":17249:17311   */\n    tag_693:\n        /* \"#utility.yul\":17197:17317   */\n      pop\n      jump\t// out\n        /* \"#utility.yul\":17323:17460   */\n    tag_430:\n        /* \"#utility.yul\":17368:17373   */\n      0x00\n        /* \"#utility.yul\":17406:17412   */\n      dup2\n        /* \"#utility.yul\":17393:17413   */\n      calldataload\n        /* \"#utility.yul\":17384:17413   */\n      swap1\n      pop\n        /* \"#utility.yul\":17422:17454   */\n      tag_695\n        /* \"#utility.yul\":17448:17453   */\n      dup2\n        /* \"#utility.yul\":17422:17454   */\n      tag_429\n      jump\t// in\n    tag_695:\n        /* \"#utility.yul\":17323:17460   */\n      swap3\n      swap2\n      pop\n      pop\n      jump\t// out\n        /* \"#utility.yul\":17466:17938   */\n    tag_123:\n        /* \"#utility.yul\":17533:17539   */\n      0x00\n        /* \"#utility.yul\":17541:17547   */\n      dup1\n        /* \"#utility.yul\":17590:17592   */\n      0x40\n        /* \"#utility.yul\":17578:17587   */\n      dup4\n        /* \"#utility.yul\":17569:17576   */\n      dup6\n        /* \"#utility.yul\":17565:17588   */\n      sub\n        /* \"#utility.yul\":17561:17593   */\n      slt\n        /* \"#utility.yul\":17558:17677   */\n      iszero\n      tag_697\n      jumpi\n        /* \"#utility.yul\":17596:17675   */\n      tag_698\n      tag_385\n      jump\t// in\n    tag_698:\n        /* \"#utility.yul\":17558:17677   */\n    tag_697:\n        /* \"#utility.yul\":17716:17717   */\n      0x00\n        /* \"#utility.yul\":17741:17794   */\n      tag_699\n        /* \"#utility.yul\":17786:17793   */\n      dup6\n        /* \"#utility.yul\":17777:17783   */\n      dup3\n        /* \"#utility.yul\":17766:17775   */\n      dup7\n        /* \"#utility.yul\":17762:17784   */\n      add\n        /* \"#utility.yul\":17741:17794   */\n      tag_392\n      jump\t// in\n    tag_699:\n        /* \"#utility.yul\":17731:17794   */\n      swap3\n      pop\n        /* \"#utility.yul\":17687:17804   */\n      pop\n        /* \"#utility.yul\":17843:17845   */\n      0x20\n        /* \"#utility.yul\":17869:17921   */\n      tag_700\n        /* \"#utility.yul\":17913:17920   */\n      dup6\n        /* \"#utility.yul\":17904:17910   */\n      dup3\n        /* \"#utility.yul\":17893:17902   */\n      dup7\n        /* \"#utility.yul\":17889:17911   */\n      add\n        /* \"#utility.yul\":17869:17921   */\n      tag_430\n      jump\t// in\n    tag_700:\n        /* \"#utility.yul\":17859:17921   */\n      swap2\n      pop\n        /* \"#utility.yul\":17814:17931   */\n      pop\n        /* \"#utility.yul\":17466:17938   */\n      swap3\n      pop\n      swap3\n      swap1\n      pop\n      jump\t// out\n        /* \"#utility.yul\":17944:18113   */\n    tag_431:\n        /* \"#utility.yul\":18028:18039   */\n      0x00\n        /* \"#utility.yul\":18062:18068   */\n      dup3\n        /* \"#utility.yul\":18057:18060   */\n      dup3\n        /* \"#utility.yul\":18050:18069   */\n      mstore\n        /* \"#utility.yul\":18102:18106   */\n      0x20\n        /* \"#utility.yul\":18097:18100   */\n      dup3\n        /* \"#utility.yul\":18093:18107   */\n      add\n        /* \"#utility.yul\":18078:18107   */\n      swap1\n      pop\n        /* \"#utility.yul\":17944:18113   */\n      swap3\n      swap2\n      pop\n      pop\n      jump\t// out\n        /* \"#utility.yul\":18119:18290   */\n    tag_432:\n        /* \"#utility.yul\":18259:18282   */\n      0x746f6b656e207761732072656769737465726564210000000000000000000000\n        /* \"#utility.yul\":18255:18256   */\n      0x00\n        /* \"#utility.yul\":18247:18253   */\n      dup3\n        /* \"#utility.yul\":18243:18257   */\n      add\n        /* \"#utility.yul\":18236:18283   */\n      mstore\n        /* \"#utility.yul\":18119:18290   */\n      pop\n      jump\t// out\n        /* \"#utility.yul\":18296:18662   */\n    tag_433:\n        /* \"#utility.yul\":18438:18441   */\n      0x00\n        /* \"#utility.yul\":18459:18526   */\n      tag_704\n        /* \"#utility.yul\":18523:18525   */\n      0x15\n        /* \"#utility.yul\":18518:18521   */\n      dup4\n        /* \"#utility.yul\":18459:18526   */\n      tag_431\n      jump\t// in\n    tag_704:\n        /* \"#utility.yul\":18452:18526   */\n      swap2\n      pop\n        /* \"#utility.yul\":18535:18628   */\n      tag_705\n        /* \"#utility.yul\":18624:18627   */\n      dup3\n        /* \"#utility.yul\":18535:18628   */\n      tag_432\n      jump\t// in\n    tag_705:\n        /* \"#utility.yul\":18653:18655   */\n      0x20\n        /* \"#utility.yul\":18648:18651   */\n      dup3\n        /* \"#utility.yul\":18644:18656   */\n      add\n        /* \"#utility.yul\":18637:18656   */\n      swap1\n      pop\n        /* \"#utility.yul\":18296:18662   */\n      swap2\n      swap1\n      pop\n      jump\t// out\n        /* \"#utility.yul\":18668:19087   */\n    tag_152:\n        /* \"#utility.yul\":18834:18838   */\n      0x00\n        /* \"#utility.yul\":18872:18874   */\n      0x20\n        /* \"#utility.yul\":18861:18870   */\n      dup3\n        /* \"#utility.yul\":18857:18875   */\n      add\n        /* \"#utility.yul\":18849:18875   */\n      swap1\n      pop\n        /* \"#utility.yul\":18921:18930   */\n      dup2\n        /* \"#utility.yul\":18915:18919   */\n      dup2\n        /* \"#utility.yul\":18911:18931   */\n      sub\n        /* \"#utility.yul\":18907:18908   */\n      0x00\n        /* \"#utility.yul\":18896:18905   */\n      dup4\n        /* \"#utility.yul\":18892:18909   */\n      add\n        /* \"#utility.yul\":18885:18932   */\n      mstore\n        /* \"#utility.yul\":18949:19080   */\n      tag_707\n        /* \"#utility.yul\":19075:19079   */\n      dup2\n        /* \"#utility.yul\":18949:19080   */\n      tag_433\n      jump\t// in\n    tag_707:\n        /* \"#utility.yul\":18941:19080   */\n      swap1\n      pop\n        /* \"#utility.yul\":18668:19087   */\n      swap2\n      swap1\n      pop\n      jump\t// out\n        /* \"#utility.yul\":19093:19271   */\n    tag_434:\n        /* \"#utility.yul\":19233:19263   */\n      0x636f736d6f73206272696467652077617320737570706f727465642100000000\n        /* \"#utility.yul\":19229:19230   */\n      0x00\n        /* \"#utility.yul\":19221:19227   */\n      dup3\n        /* \"#utility.yul\":19217:19231   */\n      add\n        /* \"#utility.yul\":19210:19264   */\n      mstore\n        /* \"#utility.yul\":19093:19271   */\n      pop\n      jump\t// out\n        /* \"#utility.yul\":19277:19643   */\n    tag_435:\n        /* \"#utility.yul\":19419:19422   */\n      0x00\n        /* \"#utility.yul\":19440:19507   */\n      tag_710\n        /* \"#utility.yul\":19504:19506   */\n      0x1c\n        /* \"#utility.yul\":19499:19502   */\n      dup4\n        /* \"#utility.yul\":19440:19507   */\n      tag_431\n      jump\t// in\n    tag_710:\n        /* \"#utility.yul\":19433:19507   */\n      swap2\n      pop\n        /* \"#utility.yul\":19516:19609   */\n      tag_711\n        /* \"#utility.yul\":19605:19608   */\n      dup3\n        /* \"#utility.yul\":19516:19609   */\n      tag_434\n      jump\t// in\n    tag_711:\n        /* \"#utility.yul\":19634:19636   */\n      0x20\n        /* \"#utility.yul\":19629:19632   */\n      dup3\n        /* \"#utility.yul\":19625:19637   */\n      add\n        /* \"#utility.yul\":19618:19637   */\n      swap1\n      pop\n        /* \"#utility.yul\":19277:19643   */\n      swap2\n      swap1\n      pop\n      jump\t// out\n        /* \"#utility.yul\":19649:20068   */\n    tag_161:\n        /* \"#utility.yul\":19815:19819   */\n      0x00\n        /* \"#utility.yul\":19853:19855   */\n      0x20\n        /* \"#utility.yul\":19842:19851   */\n      dup3\n        /* \"#utility.yul\":19838:19856   */\n      add\n        /* \"#utility.yul\":19830:19856   */\n      swap1\n      pop\n        /* \"#utility.yul\":19902:19911   */\n      dup2\n        /* \"#utility.yul\":19896:19900   */\n      dup2\n        /* \"#utility.yul\":19892:19912   */\n      sub\n        /* \"#utility.yul\":19888:19889   */\n      0x00\n        /* \"#utility.yul\":19877:19886   */\n      dup4\n        /* \"#utility.yul\":19873:19890   */\n      add\n        /* \"#utility.yul\":19866:19913   */\n      mstore\n        /* \"#utility.yul\":19930:20061   */\n      tag_713\n        /* \"#utility.yul\":20056:20060   */\n      dup2\n        /* \"#utility.yul\":19930:20061   */\n      tag_435\n      jump\t// in\n    tag_713:\n        /* \"#utility.yul\":19922:20061   */\n      swap1\n      pop\n        /* \"#utility.yul\":19649:20068   */\n      swap2\n      swap1\n      pop\n      jump\t// out\n        /* \"#utility.yul\":20074:20173   */\n    tag_436:\n        /* \"#utility.yul\":20126:20132   */\n      0x00\n        /* \"#utility.yul\":20160:20165   */\n      dup2\n        /* \"#utility.yul\":20154:20166   */\n      mload\n        /* \"#utility.yul\":20144:20166   */\n      swap1\n      pop\n        /* \"#utility.yul\":20074:20173   */\n      swap2\n      swap1\n      pop\n      jump\t// out\n        /* \"#utility.yul\":20179:20425   */\n    tag_437:\n        /* \"#utility.yul\":20260:20261   */\n      0x00\n        /* \"#utility.yul\":20270:20383   */\n    tag_716:\n        /* \"#utility.yul\":20284:20290   */\n      dup4\n        /* \"#utility.yul\":20281:20282   */\n      dup2\n        /* \"#utility.yul\":20278:20291   */\n      lt\n        /* \"#utility.yul\":20270:20383   */\n      iszero\n      tag_718\n      jumpi\n        /* \"#utility.yul\":20369:20370   */\n      dup1\n        /* \"#utility.yul\":20364:20367   */\n      dup3\n        /* \"#utility.yul\":20360:20371   */\n      add\n        /* \"#utility.yul\":20354:20372   */\n      mload\n        /* \"#utility.yul\":20350:20351   */\n      dup2\n        /* \"#utility.yul\":20345:20348   */\n      dup5\n        /* \"#utility.yul\":20341:20352   */\n      add\n        /* \"#utility.yul\":20334:20373   */\n      mstore\n        /* \"#utility.yul\":20306:20308   */\n      0x20\n        /* \"#utility.yul\":20303:20304   */\n      dup2\n        /* \"#utility.yul\":20299:20309   */\n      add\n        /* \"#utility.yul\":20294:20309   */\n      swap1\n      pop\n        /* \"#utility.yul\":20270:20383   */\n      jump(tag_716)\n    tag_718:\n        /* \"#utility.yul\":20417:20418   */\n      0x00\n        /* \"#utility.yul\":20408:20414   */\n      dup5\n        /* \"#utility.yul\":20403:20406   */\n      dup5\n        /* \"#utility.yul\":20399:20415   */\n      add\n        /* \"#utility.yul\":20392:20419   */\n      mstore\n        /* \"#utility.yul\":20241:20425   */\n      pop\n        /* \"#utility.yul\":20179:20425   */\n      pop\n      pop\n      pop\n      jump\t// out\n        /* \"#utility.yul\":20431:20808   */\n    tag_438:\n        /* \"#utility.yul\":20519:20522   */\n      0x00\n        /* \"#utility.yul\":20547:20586   */\n      tag_720\n        /* \"#utility.yul\":20580:20585   */\n      dup3\n        /* \"#utility.yul\":20547:20586   */\n      tag_436\n      jump\t// in\n    tag_720:\n        /* \"#utility.yul\":20602:20673   */\n      tag_721\n        /* \"#utility.yul\":20666:20672   */\n      dup2\n        /* \"#utility.yul\":20661:20664   */\n      dup6\n        /* \"#utility.yul\":20602:20673   */\n      tag_431\n      jump\t// in\n    tag_721:\n        /* \"#utility.yul\":20595:20673   */\n      swap4\n      pop\n        /* \"#utility.yul\":20682:20747   */\n      tag_722\n        /* \"#utility.yul\":20740:20746   */\n      dup2\n        /* \"#utility.yul\":20735:20738   */\n      dup6\n        /* \"#utility.yul\":20728:20732   */\n      0x20\n        /* \"#utility.yul\":20721:20726   */\n      dup7\n        /* \"#utility.yul\":20717:20733   */\n      add\n        /* \"#utility.yul\":20682:20747   */\n      tag_437\n      jump\t// in\n    tag_722:\n        /* \"#utility.yul\":20772:20801   */\n      tag_723\n        /* \"#utility.yul\":20794:20800   */\n      dup2\n        /* \"#utility.yul\":20772:20801   */\n      tag_406\n      jump\t// in\n    tag_723:\n        /* \"#utility.yul\":20767:20770   */\n      dup5\n        /* \"#utility.yul\":20763:20802   */\n      add\n        /* \"#utility.yul\":20756:20802   */\n      swap2\n      pop\n        /* \"#utility.yul\":20523:20808   */\n      pop\n        /* \"#utility.yul\":20431:20808   */\n      swap3\n      swap2\n      pop\n      pop\n      jump\t// out\n        /* \"#utility.yul\":20814:21127   */\n    tag_164:\n        /* \"#utility.yul\":20927:20931   */\n      0x00\n        /* \"#utility.yul\":20965:20967   */\n      0x20\n        /* \"#utility.yul\":20954:20963   */\n      dup3\n        /* \"#utility.yul\":20950:20968   */\n      add\n        /* \"#utility.yul\":20942:20968   */\n      swap1\n      pop\n        /* \"#utility.yul\":21014:21023   */\n      dup2\n        /* \"#utility.yul\":21008:21012   */\n      dup2\n        /* \"#utility.yul\":21004:21024   */\n      sub\n        /* \"#utility.yul\":21000:21001   */\n      0x00\n        /* \"#utility.yul\":20989:20998   */\n      dup4\n        /* \"#utility.yul\":20985:21002   */\n      add\n        /* \"#utility.yul\":20978:21025   */\n      mstore\n        /* \"#utility.yul\":21042:21120   */\n      tag_725\n        /* \"#utility.yul\":21115:21119   */\n      dup2\n        /* \"#utility.yul\":21106:21112   */\n      dup5\n        /* \"#utility.yul\":21042:21120   */\n      tag_438\n      jump\t// in\n    tag_725:\n        /* \"#utility.yul\":21034:21120   */\n      swap1\n      pop\n        /* \"#utility.yul\":20814:21127   */\n      swap3\n      swap2\n      pop\n      pop\n      jump\t// out\n        /* \"#utility.yul\":21133:21276   */\n    tag_439:\n        /* \"#utility.yul\":21190:21195   */\n      0x00\n        /* \"#utility.yul\":21221:21227   */\n      dup2\n        /* \"#utility.yul\":21215:21228   */\n      mload\n        /* \"#utility.yul\":21206:21228   */\n      swap1\n      pop\n        /* \"#utility.yul\":21237:21270   */\n      tag_727\n        /* \"#utility.yul\":21264:21269   */\n      dup2\n        /* \"#utility.yul\":21237:21270   */\n      tag_391\n      jump\t// in\n    tag_727:\n        /* \"#utility.yul\":21133:21276   */\n      swap3\n      swap2\n      pop\n      pop\n      jump\t// out\n        /* \"#utility.yul\":21282:21633   */\n    tag_168:\n        /* \"#utility.yul\":21352:21358   */\n      0x00\n        /* \"#utility.yul\":21401:21403   */\n      0x20\n        /* \"#utility.yul\":21389:21398   */\n      dup3\n        /* \"#utility.yul\":21380:21387   */\n      dup5\n        /* \"#utility.yul\":21376:21399   */\n      sub\n        /* \"#utility.yul\":21372:21404   */\n      slt\n        /* \"#utility.yul\":21369:21488   */\n      iszero\n      tag_729\n      jumpi\n        /* \"#utility.yul\":21407:21486   */\n      tag_730\n      tag_385\n      jump\t// in\n    tag_730:\n        /* \"#utility.yul\":21369:21488   */\n    tag_729:\n        /* \"#utility.yul\":21527:21528   */\n      0x00\n        /* \"#utility.yul\":21552:21616   */\n      tag_731\n        /* \"#utility.yul\":21608:21615   */\n      dup5\n        /* \"#utility.yul\":21599:21605   */\n      dup3\n        /* \"#utility.yul\":21588:21597   */\n      dup6\n        /* \"#utility.yul\":21584:21606   */\n      add\n        /* \"#utility.yul\":21552:21616   */\n      tag_439\n      jump\t// in\n    tag_731:\n        /* \"#utility.yul\":21542:21616   */\n      swap2\n      pop\n        /* \"#utility.yul\":21498:21626   */\n      pop\n        /* \"#utility.yul\":21282:21633   */\n      swap3\n      swap2\n      pop\n      pop\n      jump\t// out\n        /* \"#utility.yul\":21639:21811   */\n    tag_440:\n        /* \"#utility.yul\":21779:21803   */\n      0x4e6f7420737570706f7274207468697320746f6b656e00000000000000000000\n        /* \"#utility.yul\":21775:21776   */\n      0x00\n        /* \"#utility.yul\":21767:21773   */\n      dup3\n        /* \"#utility.yul\":21763:21777   */\n      add\n        /* \"#utility.yul\":21756:21804   */\n      mstore\n        /* \"#utility.yul\":21639:21811   */\n      pop\n      jump\t// out\n        /* \"#utility.yul\":21817:22183   */\n    tag_441:\n        /* \"#utility.yul\":21959:21962   */\n      0x00\n        /* \"#utility.yul\":21980:22047   */\n      tag_734\n        /* \"#utility.yul\":22044:22046   */\n      0x16\n        /* \"#utility.yul\":22039:22042   */\n      dup4\n        /* \"#utility.yul\":21980:22047   */\n      tag_431\n      jump\t// in\n    tag_734:\n        /* \"#utility.yul\":21973:22047   */\n      swap2\n      pop\n        /* \"#utility.yul\":22056:22149   */\n      tag_735\n        /* \"#utility.yul\":22145:22148   */\n      dup3\n        /* \"#utility.yul\":22056:22149   */\n      tag_440\n      jump\t// in\n    tag_735:\n        /* \"#utility.yul\":22174:22176   */\n      0x20\n        /* \"#utility.yul\":22169:22172   */\n      dup3\n        /* \"#utility.yul\":22165:22177   */\n      add\n        /* \"#utility.yul\":22158:22177   */\n      swap1\n      pop\n        /* \"#utility.yul\":21817:22183   */\n      swap2\n      swap1\n      pop\n      jump\t// out\n        /* \"#utility.yul\":22189:22608   */\n    tag_172:\n        /* \"#utility.yul\":22355:22359   */\n      0x00\n        /* \"#utility.yul\":22393:22395   */\n      0x20\n        /* \"#utility.yul\":22382:22391   */\n      dup3\n        /* \"#utility.yul\":22378:22396   */\n      add\n        /* \"#utility.yul\":22370:22396   */\n      swap1\n      pop\n        /* \"#utility.yul\":22442:22451   */\n      dup2\n        /* \"#utility.yul\":22436:22440   */\n      dup2\n        /* \"#utility.yul\":22432:22452   */\n      sub\n        /* \"#utility.yul\":22428:22429   */\n      0x00\n        /* \"#utility.yul\":22417:22426   */\n      dup4\n        /* \"#utility.yul\":22413:22430   */\n      add\n        /* \"#utility.yul\":22406:22453   */\n      mstore\n        /* \"#utility.yul\":22470:22601   */\n      tag_737\n        /* \"#utility.yul\":22596:22600   */\n      dup2\n        /* \"#utility.yul\":22470:22601   */\n      tag_441\n      jump\t// in\n    tag_737:\n        /* \"#utility.yul\":22462:22601   */\n      swap1\n      pop\n        /* \"#utility.yul\":22189:22608   */\n      swap2\n      swap1\n      pop\n      jump\t// out\n        /* \"#utility.yul\":22614:22845   */\n    tag_442:\n        /* \"#utility.yul\":22754:22788   */\n      0x54686973206272696467652069736e277420737570706f727420666f7220636c\n        /* \"#utility.yul\":22750:22751   */\n      0x00\n        /* \"#utility.yul\":22742:22748   */\n      dup3\n        /* \"#utility.yul\":22738:22752   */\n      add\n        /* \"#utility.yul\":22731:22789   */\n      mstore\n        /* \"#utility.yul\":22823:22837   */\n      0x616d6d696e6720746f6b656e0000000000000000000000000000000000000000\n        /* \"#utility.yul\":22818:22820   */\n      0x20\n        /* \"#utility.yul\":22810:22816   */\n      dup3\n        /* \"#utility.yul\":22806:22821   */\n      add\n        /* \"#utility.yul\":22799:22838   */\n      mstore\n        /* \"#utility.yul\":22614:22845   */\n      pop\n      jump\t// out\n        /* \"#utility.yul\":22851:23217   */\n    tag_443:\n        /* \"#utility.yul\":22993:22996   */\n      0x00\n        /* \"#utility.yul\":23014:23081   */\n      tag_740\n        /* \"#utility.yul\":23078:23080   */\n      0x2c\n        /* \"#utility.yul\":23073:23076   */\n      dup4\n        /* \"#utility.yul\":23014:23081   */\n      tag_431\n      jump\t// in\n    tag_740:\n        /* \"#utility.yul\":23007:23081   */\n      swap2\n      pop\n        /* \"#utility.yul\":23090:23183   */\n      tag_741\n        /* \"#utility.yul\":23179:23182   */\n      dup3\n        /* \"#utility.yul\":23090:23183   */\n      tag_442\n      jump\t// in\n    tag_741:\n        /* \"#utility.yul\":23208:23210   */\n      0x40\n        /* \"#utility.yul\":23203:23206   */\n      dup3\n        /* \"#utility.yul\":23199:23211   */\n      add\n        /* \"#utility.yul\":23192:23211   */\n      swap1\n      pop\n        /* \"#utility.yul\":22851:23217   */\n      swap2\n      swap1\n      pop\n      jump\t// out\n        /* \"#utility.yul\":23223:23642   */\n    tag_175:\n        /* \"#utility.yul\":23389:23393   */\n      0x00\n        /* \"#utility.yul\":23427:23429   */\n      0x20\n        /* \"#utility.yul\":23416:23425   */\n      dup3\n        /* \"#utility.yul\":23412:23430   */\n      add\n        /* \"#utility.yul\":23404:23430   */\n      swap1\n      pop\n        /* \"#utility.yul\":23476:23485   */\n      dup2\n        /* \"#utility.yul\":23470:23474   */\n      dup2\n        /* \"#utility.yul\":23466:23486   */\n      sub\n        /* \"#utility.yul\":23462:23463   */\n      0x00\n        /* \"#utility.yul\":23451:23460   */\n      dup4\n        /* \"#utility.yul\":23447:23464   */\n      add\n        /* \"#utility.yul\":23440:23487   */\n      mstore\n        /* \"#utility.yul\":23504:23635   */\n      tag_743\n        /* \"#utility.yul\":23630:23634   */\n      dup2\n        /* \"#utility.yul\":23504:23635   */\n      tag_443\n      jump\t// in\n    tag_743:\n        /* \"#utility.yul\":23496:23635   */\n      swap1\n      pop\n        /* \"#utility.yul\":23223:23642   */\n      swap2\n      swap1\n      pop\n      jump\t// out\n        /* \"#utility.yul\":23648:23821   */\n    tag_444:\n        /* \"#utility.yul\":23788:23813   */\n      0x4465706f73697420726f6f7420697320696e76616c6964000000000000000000\n        /* \"#utility.yul\":23784:23785   */\n      0x00\n        /* \"#utility.yul\":23776:23782   */\n      dup3\n        /* \"#utility.yul\":23772:23786   */\n      add\n        /* \"#utility.yul\":23765:23814   */\n      mstore\n        /* \"#utility.yul\":23648:23821   */\n      pop\n      jump\t// out\n        /* \"#utility.yul\":23827:24193   */\n    tag_445:\n        /* \"#utility.yul\":23969:23972   */\n      0x00\n        /* \"#utility.yul\":23990:24057   */\n      tag_746\n        /* \"#utility.yul\":24054:24056   */\n      0x17\n        /* \"#utility.yul\":24049:24052   */\n      dup4\n        /* \"#utility.yul\":23990:24057   */\n      tag_431\n      jump\t// in\n    tag_746:\n        /* \"#utility.yul\":23983:24057   */\n      swap2\n      pop\n        /* \"#utility.yul\":24066:24159   */\n      tag_747\n        /* \"#utility.yul\":24155:24158   */\n      dup3\n        /* \"#utility.yul\":24066:24159   */\n      tag_444\n      jump\t// in\n    tag_747:\n        /* \"#utility.yul\":24184:24186   */\n      0x20\n        /* \"#utility.yul\":24179:24182   */\n      dup3\n        /* \"#utility.yul\":24175:24187   */\n      add\n        /* \"#utility.yul\":24168:24187   */\n      swap1\n      pop\n        /* \"#utility.yul\":23827:24193   */\n      swap2\n      swap1\n      pop\n      jump\t// out\n        /* \"#utility.yul\":24199:24618   */\n    tag_179:\n        /* \"#utility.yul\":24365:24369   */\n      0x00\n        /* \"#utility.yul\":24403:24405   */\n      0x20\n        /* \"#utility.yul\":24392:24401   */\n      dup3\n        /* \"#utility.yul\":24388:24406   */\n      add\n        /* \"#utility.yul\":24380:24406   */\n      swap1\n      pop\n        /* \"#utility.yul\":24452:24461   */\n      dup2\n        /* \"#utility.yul\":24446:24450   */\n      dup2\n        /* \"#utility.yul\":24442:24462   */\n      sub\n        /* \"#utility.yul\":24438:24439   */\n      0x00\n        /* \"#utility.yul\":24427:24436   */\n      dup4\n        /* \"#utility.yul\":24423:24440   */\n      add\n        /* \"#utility.yul\":24416:24463   */\n      mstore\n        /* \"#utility.yul\":24480:24611   */\n      tag_749\n        /* \"#utility.yul\":24606:24610   */\n      dup2\n        /* \"#utility.yul\":24480:24611   */\n      tag_445\n      jump\t// in\n    tag_749:\n        /* \"#utility.yul\":24472:24611   */\n      swap1\n      pop\n        /* \"#utility.yul\":24199:24618   */\n      swap2\n      swap1\n      pop\n      jump\t// out\n        /* \"#utility.yul\":24624:24804   */\n    tag_186:\n        /* \"#utility.yul\":24672:24749   */\n      0x4e487b7100000000000000000000000000000000000000000000000000000000\n        /* \"#utility.yul\":24669:24670   */\n      0x00\n        /* \"#utility.yul\":24662:24750   */\n      mstore\n        /* \"#utility.yul\":24769:24773   */\n      0x32\n        /* \"#utility.yul\":24766:24767   */\n      0x04\n        /* \"#utility.yul\":24759:24774   */\n      mstore\n        /* \"#utility.yul\":24793:24797   */\n      0x24\n        /* \"#utility.yul\":24790:24791   */\n      0x00\n        /* \"#utility.yul\":24783:24798   */\n      revert\n        /* \"#utility.yul\":24810:24914   */\n    tag_446:\n        /* \"#utility.yul\":24875:24881   */\n      0x00\n        /* \"#utility.yul\":24903:24907   */\n      0x02\n        /* \"#utility.yul\":24893:24907   */\n      swap1\n      pop\n        /* \"#utility.yul\":24810:24914   */\n      swap2\n      swap1\n      pop\n      jump\t// out\n        /* \"#utility.yul\":24920:25063   */\n    tag_447:\n        /* \"#utility.yul\":25017:25028   */\n      0x00\n        /* \"#utility.yul\":25054:25057   */\n      dup2\n        /* \"#utility.yul\":25039:25057   */\n      swap1\n      pop\n        /* \"#utility.yul\":24920:25063   */\n      swap3\n      swap2\n      pop\n      pop\n      jump\t// out\n        /* \"#utility.yul\":25069:25167   */\n    tag_448:\n        /* \"#utility.yul\":25134:25138   */\n      0x00\n        /* \"#utility.yul\":25157:25160   */\n      dup2\n        /* \"#utility.yul\":25149:25160   */\n      swap1\n      pop\n        /* \"#utility.yul\":25069:25167   */\n      swap2\n      swap1\n      pop\n      jump\t// out\n        /* \"#utility.yul\":25173:25281   */\n    tag_449:\n        /* \"#utility.yul\":25250:25274   */\n      tag_755\n        /* \"#utility.yul\":25268:25273   */\n      dup2\n        /* \"#utility.yul\":25250:25274   */\n      tag_398\n      jump\t// in\n    tag_755:\n        /* \"#utility.yul\":25245:25248   */\n      dup3\n        /* \"#utility.yul\":25238:25275   */\n      mstore\n        /* \"#utility.yul\":25173:25281   */\n      pop\n      pop\n      jump\t// out\n        /* \"#utility.yul\":25287:25466   */\n    tag_450:\n        /* \"#utility.yul\":25356:25366   */\n      0x00\n        /* \"#utility.yul\":25377:25423   */\n      tag_757\n        /* \"#utility.yul\":25419:25422   */\n      dup4\n        /* \"#utility.yul\":25411:25417   */\n      dup4\n        /* \"#utility.yul\":25377:25423   */\n      tag_449\n      jump\t// in\n    tag_757:\n        /* \"#utility.yul\":25455:25459   */\n      0x20\n        /* \"#utility.yul\":25450:25453   */\n      dup4\n        /* \"#utility.yul\":25446:25460   */\n      add\n        /* \"#utility.yul\":25432:25460   */\n      swap1\n      pop\n        /* \"#utility.yul\":25287:25466   */\n      swap3\n      swap2\n      pop\n      pop\n      jump\t// out\n        /* \"#utility.yul\":25472:25583   */\n    tag_451:\n        /* \"#utility.yul\":25540:25544   */\n      0x00\n        /* \"#utility.yul\":25572:25576   */\n      0x20\n        /* \"#utility.yul\":25567:25570   */\n      dup3\n        /* \"#utility.yul\":25563:25577   */\n      add\n        /* \"#utility.yul\":25555:25577   */\n      swap1\n      pop\n        /* \"#utility.yul\":25472:25583   */\n      swap2\n      swap1\n      pop\n      jump\t// out\n        /* \"#utility.yul\":25621:26315   */\n    tag_452:\n        /* \"#utility.yul\":25757:25809   */\n      tag_760\n        /* \"#utility.yul\":25803:25808   */\n      dup2\n        /* \"#utility.yul\":25757:25809   */\n      tag_446\n      jump\t// in\n    tag_760:\n        /* \"#utility.yul\":25825:25909   */\n      tag_761\n        /* \"#utility.yul\":25902:25908   */\n      dup2\n        /* \"#utility.yul\":25897:25900   */\n      dup5\n        /* \"#utility.yul\":25825:25909   */\n      tag_447\n      jump\t// in\n    tag_761:\n        /* \"#utility.yul\":25818:25909   */\n      swap3\n      pop\n        /* \"#utility.yul\":25933:25987   */\n      tag_762\n        /* \"#utility.yul\":25981:25986   */\n      dup3\n        /* \"#utility.yul\":25933:25987   */\n      tag_448\n      jump\t// in\n    tag_762:\n        /* \"#utility.yul\":26010:26017   */\n      dup1\n        /* \"#utility.yul\":26041:26042   */\n      0x00\n        /* \"#utility.yul\":26026:26308   */\n    tag_763:\n        /* \"#utility.yul\":26051:26057   */\n      dup4\n        /* \"#utility.yul\":26048:26049   */\n      dup2\n        /* \"#utility.yul\":26045:26058   */\n      lt\n        /* \"#utility.yul\":26026:26308   */\n      iszero\n      tag_765\n      jumpi\n        /* \"#utility.yul\":26127:26133   */\n      dup2\n        /* \"#utility.yul\":26121:26134   */\n      mload\n        /* \"#utility.yul\":26154:26217   */\n      tag_766\n        /* \"#utility.yul\":26213:26216   */\n      dup8\n        /* \"#utility.yul\":26198:26211   */\n      dup3\n        /* \"#utility.yul\":26154:26217   */\n      tag_450\n      jump\t// in\n    tag_766:\n        /* \"#utility.yul\":26147:26217   */\n      swap7\n      pop\n        /* \"#utility.yul\":26240:26298   */\n      tag_767\n        /* \"#utility.yul\":26291:26297   */\n      dup4\n        /* \"#utility.yul\":26240:26298   */\n      tag_451\n      jump\t// in\n    tag_767:\n        /* \"#utility.yul\":26230:26298   */\n      swap3\n      pop\n        /* \"#utility.yul\":26086:26308   */\n      pop\n        /* \"#utility.yul\":26073:26074   */\n      0x01\n        /* \"#utility.yul\":26070:26071   */\n      dup2\n        /* \"#utility.yul\":26066:26075   */\n      add\n        /* \"#utility.yul\":26061:26075   */\n      swap1\n      pop\n        /* \"#utility.yul\":26026:26308   */\n      jump(tag_763)\n    tag_765:\n        /* \"#utility.yul\":26030:26044   */\n      pop\n        /* \"#utility.yul\":25733:26315   */\n      pop\n      pop\n      pop\n        /* \"#utility.yul\":25621:26315   */\n      pop\n      pop\n      jump\t// out\n        /* \"#utility.yul\":26321:26448   */\n    tag_453:\n        /* \"#utility.yul\":26409:26415   */\n      0x00\n        /* \"#utility.yul\":26437:26441   */\n      0x02\n        /* \"#utility.yul\":26427:26441   */\n      swap1\n      pop\n        /* \"#utility.yul\":26321:26448   */\n      swap2\n      swap1\n      pop\n      jump\t// out\n        /* \"#utility.yul\":26454:26620   */\n    tag_454:\n        /* \"#utility.yul\":26574:26585   */\n      0x00\n        /* \"#utility.yul\":26611:26614   */\n      dup2\n        /* \"#utility.yul\":26596:26614   */\n      swap1\n      pop\n        /* \"#utility.yul\":26454:26620   */\n      swap3\n      swap2\n      pop\n      pop\n      jump\t// out\n        /* \"#utility.yul\":26626:26747   */\n    tag_455:\n        /* \"#utility.yul\":26714:26718   */\n      0x00\n        /* \"#utility.yul\":26737:26740   */\n      dup2\n        /* \"#utility.yul\":26729:26740   */\n      swap1\n      pop\n        /* \"#utility.yul\":26626:26747   */\n      swap2\n      swap1\n      pop\n      jump\t// out\n        /* \"#utility.yul\":26753:26886   */\n    tag_456:\n        /* \"#utility.yul\":26840:26851   */\n      0x00\n        /* \"#utility.yul\":26877:26880   */\n      dup2\n        /* \"#utility.yul\":26862:26880   */\n      swap1\n      pop\n        /* \"#utility.yul\":26753:26886   */\n      swap3\n      swap2\n      pop\n      pop\n      jump\t// out\n        /* \"#utility.yul\":26924:27598   */\n    tag_457:\n        /* \"#utility.yul\":27050:27102   */\n      tag_773\n        /* \"#utility.yul\":27096:27101   */\n      dup2\n        /* \"#utility.yul\":27050:27102   */\n      tag_446\n      jump\t// in\n    tag_773:\n        /* \"#utility.yul\":27118:27192   */\n      tag_774\n        /* \"#utility.yul\":27185:27191   */\n      dup2\n        /* \"#utility.yul\":27180:27183   */\n      dup5\n        /* \"#utility.yul\":27118:27192   */\n      tag_456\n      jump\t// in\n    tag_774:\n        /* \"#utility.yul\":27111:27192   */\n      swap3\n      pop\n        /* \"#utility.yul\":27216:27270   */\n      tag_775\n        /* \"#utility.yul\":27264:27269   */\n      dup3\n        /* \"#utility.yul\":27216:27270   */\n      tag_448\n      jump\t// in\n    tag_775:\n        /* \"#utility.yul\":27293:27300   */\n      dup1\n        /* \"#utility.yul\":27324:27325   */\n      0x00\n        /* \"#utility.yul\":27309:27591   */\n    tag_776:\n        /* \"#utility.yul\":27334:27340   */\n      dup4\n        /* \"#utility.yul\":27331:27332   */\n      dup2\n        /* \"#utility.yul\":27328:27341   */\n      lt\n        /* \"#utility.yul\":27309:27591   */\n      iszero\n      tag_778\n      jumpi\n        /* \"#utility.yul\":27410:27416   */\n      dup2\n        /* \"#utility.yul\":27404:27417   */\n      mload\n        /* \"#utility.yul\":27437:27500   */\n      tag_779\n        /* \"#utility.yul\":27496:27499   */\n      dup8\n        /* \"#utility.yul\":27481:27494   */\n      dup3\n        /* \"#utility.yul\":27437:27500   */\n      tag_450\n      jump\t// in\n    tag_779:\n        /* \"#utility.yul\":27430:27500   */\n      swap7\n      pop\n        /* \"#utility.yul\":27523:27581   */\n      tag_780\n        /* \"#utility.yul\":27574:27580   */\n      dup4\n        /* \"#utility.yul\":27523:27581   */\n      tag_451\n      jump\t// in\n    tag_780:\n        /* \"#utility.yul\":27513:27581   */\n      swap3\n      pop\n        /* \"#utility.yul\":27369:27591   */\n      pop\n        /* \"#utility.yul\":27356:27357   */\n      0x01\n        /* \"#utility.yul\":27353:27354   */\n      dup2\n        /* \"#utility.yul\":27349:27358   */\n      add\n        /* \"#utility.yul\":27344:27358   */\n      swap1\n      pop\n        /* \"#utility.yul\":27309:27591   */\n      jump(tag_776)\n    tag_778:\n        /* \"#utility.yul\":27313:27327   */\n      pop\n        /* \"#utility.yul\":27026:27598   */\n      pop\n      pop\n      pop\n        /* \"#utility.yul\":26924:27598   */\n      pop\n      pop\n      jump\t// out\n        /* \"#utility.yul\":27604:27875   */\n    tag_458:\n        /* \"#utility.yul\":27719:27729   */\n      0x00\n        /* \"#utility.yul\":27740:27832   */\n      tag_782\n        /* \"#utility.yul\":27828:27831   */\n      dup4\n        /* \"#utility.yul\":27820:27826   */\n      dup4\n        /* \"#utility.yul\":27740:27832   */\n      tag_457\n      jump\t// in\n    tag_782:\n        /* \"#utility.yul\":27864:27868   */\n      0x40\n        /* \"#utility.yul\":27859:27862   */\n      dup4\n        /* \"#utility.yul\":27855:27869   */\n      add\n        /* \"#utility.yul\":27841:27869   */\n      swap1\n      pop\n        /* \"#utility.yul\":27604:27875   */\n      swap3\n      swap2\n      pop\n      pop\n      jump\t// out\n        /* \"#utility.yul\":27881:28015   */\n    tag_459:\n        /* \"#utility.yul\":27972:27976   */\n      0x00\n        /* \"#utility.yul\":28004:28008   */\n      0x20\n        /* \"#utility.yul\":27999:28002   */\n      dup3\n        /* \"#utility.yul\":27995:28009   */\n      add\n        /* \"#utility.yul\":27987:28009   */\n      swap1\n      pop\n        /* \"#utility.yul\":27881:28015   */\n      swap2\n      swap1\n      pop\n      jump\t// out\n        /* \"#utility.yul\":28059:28937   */\n    tag_460:\n        /* \"#utility.yul\":28241:28316   */\n      tag_785\n        /* \"#utility.yul\":28310:28315   */\n      dup2\n        /* \"#utility.yul\":28241:28316   */\n      tag_453\n      jump\t// in\n    tag_785:\n        /* \"#utility.yul\":28332:28439   */\n      tag_786\n        /* \"#utility.yul\":28432:28438   */\n      dup2\n        /* \"#utility.yul\":28427:28430   */\n      dup5\n        /* \"#utility.yul\":28332:28439   */\n      tag_454\n      jump\t// in\n    tag_786:\n        /* \"#utility.yul\":28325:28439   */\n      swap3\n      pop\n        /* \"#utility.yul\":28463:28540   */\n      tag_787\n        /* \"#utility.yul\":28534:28539   */\n      dup3\n        /* \"#utility.yul\":28463:28540   */\n      tag_455\n      jump\t// in\n    tag_787:\n        /* \"#utility.yul\":28563:28570   */\n      dup1\n        /* \"#utility.yul\":28594:28595   */\n      0x00\n        /* \"#utility.yul\":28579:28930   */\n    tag_788:\n        /* \"#utility.yul\":28604:28610   */\n      dup4\n        /* \"#utility.yul\":28601:28602   */\n      dup2\n        /* \"#utility.yul\":28598:28611   */\n      lt\n        /* \"#utility.yul\":28579:28930   */\n      iszero\n      tag_790\n      jumpi\n        /* \"#utility.yul\":28680:28686   */\n      dup2\n        /* \"#utility.yul\":28674:28687   */\n      mload\n        /* \"#utility.yul\":28707:28816   */\n      tag_791\n        /* \"#utility.yul\":28812:28815   */\n      dup8\n        /* \"#utility.yul\":28797:28810   */\n      dup3\n        /* \"#utility.yul\":28707:28816   */\n      tag_458\n      jump\t// in\n    tag_791:\n        /* \"#utility.yul\":28700:28816   */\n      swap7\n      pop\n        /* \"#utility.yul\":28839:28920   */\n      tag_792\n        /* \"#utility.yul\":28913:28919   */\n      dup4\n        /* \"#utility.yul\":28839:28920   */\n      tag_459\n      jump\t// in\n    tag_792:\n        /* \"#utility.yul\":28829:28920   */\n      swap3\n      pop\n        /* \"#utility.yul\":28639:28930   */\n      pop\n        /* \"#utility.yul\":28626:28627   */\n      0x01\n        /* \"#utility.yul\":28623:28624   */\n      dup2\n        /* \"#utility.yul\":28619:28628   */\n      add\n        /* \"#utility.yul\":28614:28628   */\n      swap1\n      pop\n        /* \"#utility.yul\":28579:28930   */\n      jump(tag_788)\n    tag_790:\n        /* \"#utility.yul\":28583:28597   */\n      pop\n        /* \"#utility.yul\":28217:28937   */\n      pop\n      pop\n      pop\n        /* \"#utility.yul\":28059:28937   */\n      pop\n      pop\n      jump\t// out\n        /* \"#utility.yul\":28943:29057   */\n    tag_461:\n        /* \"#utility.yul\":29010:29016   */\n      0x00\n        /* \"#utility.yul\":29044:29049   */\n      dup2\n        /* \"#utility.yul\":29038:29050   */\n      mload\n        /* \"#utility.yul\":29028:29050   */\n      swap1\n      pop\n        /* \"#utility.yul\":28943:29057   */\n      swap2\n      swap1\n      pop\n      jump\t// out\n        /* \"#utility.yul\":29063:29247   */\n    tag_462:\n        /* \"#utility.yul\":29162:29173   */\n      0x00\n        /* \"#utility.yul\":29196:29202   */\n      dup3\n        /* \"#utility.yul\":29191:29194   */\n      dup3\n        /* \"#utility.yul\":29184:29203   */\n      mstore\n        /* \"#utility.yul\":29236:29240   */\n      0x20\n        /* \"#utility.yul\":29231:29234   */\n      dup3\n        /* \"#utility.yul\":29227:29241   */\n      add\n        /* \"#utility.yul\":29212:29241   */\n      swap1\n      pop\n        /* \"#utility.yul\":29063:29247   */\n      swap3\n      swap2\n      pop\n      pop\n      jump\t// out\n        /* \"#utility.yul\":29253:29385   */\n    tag_463:\n        /* \"#utility.yul\":29320:29324   */\n      0x00\n        /* \"#utility.yul\":29343:29346   */\n      dup2\n        /* \"#utility.yul\":29335:29346   */\n      swap1\n      pop\n        /* \"#utility.yul\":29373:29377   */\n      0x20\n        /* \"#utility.yul\":29368:29371   */\n      dup3\n        /* \"#utility.yul\":29364:29378   */\n      add\n        /* \"#utility.yul\":29356:29378   */\n      swap1\n      pop\n        /* \"#utility.yul\":29253:29385   */\n      swap2\n      swap1\n      pop\n      jump\t// out\n        /* \"#utility.yul\":29391:29504   */\n    tag_464:\n        /* \"#utility.yul\":29461:29465   */\n      0x00\n        /* \"#utility.yul\":29493:29497   */\n      0x20\n        /* \"#utility.yul\":29488:29491   */\n      dup3\n        /* \"#utility.yul\":29484:29498   */\n      add\n        /* \"#utility.yul\":29476:29498   */\n      swap1\n      pop\n        /* \"#utility.yul\":29391:29504   */\n      swap2\n      swap1\n      pop\n      jump\t// out\n        /* \"#utility.yul\":29540:30272   */\n    tag_465:\n        /* \"#utility.yul\":29659:29662   */\n      0x00\n        /* \"#utility.yul\":29688:29742   */\n      tag_798\n        /* \"#utility.yul\":29736:29741   */\n      dup3\n        /* \"#utility.yul\":29688:29742   */\n      tag_461\n      jump\t// in\n    tag_798:\n        /* \"#utility.yul\":29758:29844   */\n      tag_799\n        /* \"#utility.yul\":29837:29843   */\n      dup2\n        /* \"#utility.yul\":29832:29835   */\n      dup6\n        /* \"#utility.yul\":29758:29844   */\n      tag_462\n      jump\t// in\n    tag_799:\n        /* \"#utility.yul\":29751:29844   */\n      swap4\n      pop\n        /* \"#utility.yul\":29868:29924   */\n      tag_800\n        /* \"#utility.yul\":29918:29923   */\n      dup4\n        /* \"#utility.yul\":29868:29924   */\n      tag_463\n      jump\t// in\n    tag_800:\n        /* \"#utility.yul\":29947:29954   */\n      dup1\n        /* \"#utility.yul\":29978:29979   */\n      0x00\n        /* \"#utility.yul\":29963:30247   */\n    tag_801:\n        /* \"#utility.yul\":29988:29994   */\n      dup4\n        /* \"#utility.yul\":29985:29986   */\n      dup2\n        /* \"#utility.yul\":29982:29995   */\n      lt\n        /* \"#utility.yul\":29963:30247   */\n      iszero\n      tag_803\n      jumpi\n        /* \"#utility.yul\":30064:30070   */\n      dup2\n        /* \"#utility.yul\":30058:30071   */\n      mload\n        /* \"#utility.yul\":30091:30154   */\n      tag_804\n        /* \"#utility.yul\":30150:30153   */\n      dup9\n        /* \"#utility.yul\":30135:30148   */\n      dup3\n        /* \"#utility.yul\":30091:30154   */\n      tag_450\n      jump\t// in\n    tag_804:\n        /* \"#utility.yul\":30084:30154   */\n      swap8\n      pop\n        /* \"#utility.yul\":30177:30237   */\n      tag_805\n        /* \"#utility.yul\":30230:30236   */\n      dup4\n        /* \"#utility.yul\":30177:30237   */\n      tag_464\n      jump\t// in\n    tag_805:\n        /* \"#utility.yul\":30167:30237   */\n      swap3\n      pop\n        /* \"#utility.yul\":30023:30247   */\n      pop\n        /* \"#utility.yul\":30010:30011   */\n      0x01\n        /* \"#utility.yul\":30007:30008   */\n      dup2\n        /* \"#utility.yul\":30003:30012   */\n      add\n        /* \"#utility.yul\":29998:30012   */\n      swap1\n      pop\n        /* \"#utility.yul\":29963:30247   */\n      jump(tag_801)\n    tag_803:\n        /* \"#utility.yul\":29967:29981   */\n      pop\n        /* \"#utility.yul\":30263:30266   */\n      dup6\n        /* \"#utility.yul\":30256:30266   */\n      swap4\n      pop\n        /* \"#utility.yul\":29664:30272   */\n      pop\n      pop\n      pop\n        /* \"#utility.yul\":29540:30272   */\n      swap3\n      swap2\n      pop\n      pop\n      jump\t// out\n        /* \"#utility.yul\":30278:31352   */\n    tag_197:\n        /* \"#utility.yul\":30689:30693   */\n      0x00\n        /* \"#utility.yul\":30727:30730   */\n      0x0120\n        /* \"#utility.yul\":30716:30725   */\n      dup3\n        /* \"#utility.yul\":30712:30731   */\n      add\n        /* \"#utility.yul\":30704:30731   */\n      swap1\n      pop\n        /* \"#utility.yul\":30741:30858   */\n      tag_807\n        /* \"#utility.yul\":30855:30856   */\n      0x00\n        /* \"#utility.yul\":30844:30853   */\n      dup4\n        /* \"#utility.yul\":30840:30857   */\n      add\n        /* \"#utility.yul\":30831:30837   */\n      dup8\n        /* \"#utility.yul\":30741:30858   */\n      tag_452\n      jump\t// in\n    tag_807:\n        /* \"#utility.yul\":30868:31032   */\n      tag_808\n        /* \"#utility.yul\":31028:31030   */\n      0x40\n        /* \"#utility.yul\":31017:31026   */\n      dup4\n        /* \"#utility.yul\":31013:31031   */\n      add\n        /* \"#utility.yul\":31004:31010   */\n      dup7\n        /* \"#utility.yul\":30868:31032   */\n      tag_460\n      jump\t// in\n    tag_808:\n        /* \"#utility.yul\":31042:31161   */\n      tag_809\n        /* \"#utility.yul\":31156:31159   */\n      0xc0\n        /* \"#utility.yul\":31145:31154   */\n      dup4\n        /* \"#utility.yul\":31141:31160   */\n      add\n        /* \"#utility.yul\":31132:31138   */\n      dup6\n        /* \"#utility.yul\":31042:31161   */\n      tag_452\n      jump\t// in\n    tag_809:\n        /* \"#utility.yul\":31209:31218   */\n      dup2\n        /* \"#utility.yul\":31203:31207   */\n      dup2\n        /* \"#utility.yul\":31199:31219   */\n      sub\n        /* \"#utility.yul\":31193:31196   */\n      0x0100\n        /* \"#utility.yul\":31182:31191   */\n      dup4\n        /* \"#utility.yul\":31178:31197   */\n      add\n        /* \"#utility.yul\":31171:31220   */\n      mstore\n        /* \"#utility.yul\":31237:31345   */\n      tag_810\n        /* \"#utility.yul\":31340:31344   */\n      dup2\n        /* \"#utility.yul\":31331:31337   */\n      dup5\n        /* \"#utility.yul\":31237:31345   */\n      tag_465\n      jump\t// in\n    tag_810:\n        /* \"#utility.yul\":31229:31345   */\n      swap1\n      pop\n        /* \"#utility.yul\":30278:31352   */\n      swap6\n      swap5\n      pop\n      pop\n      pop\n      pop\n      pop\n      jump\t// out\n        /* \"#utility.yul\":31358:31495   */\n    tag_466:\n        /* \"#utility.yul\":31412:31417   */\n      0x00\n        /* \"#utility.yul\":31443:31449   */\n      dup2\n        /* \"#utility.yul\":31437:31450   */\n      mload\n        /* \"#utility.yul\":31428:31450   */\n      swap1\n      pop\n        /* \"#utility.yul\":31459:31489   */\n      tag_812\n        /* \"#utility.yul\":31483:31488   */\n      dup2\n        /* \"#utility.yul\":31459:31489   */\n      tag_401\n      jump\t// in\n    tag_812:\n        /* \"#utility.yul\":31358:31495   */\n      swap3\n      swap2\n      pop\n      pop\n      jump\t// out\n        /* \"#utility.yul\":31501:31846   */\n    tag_201:\n        /* \"#utility.yul\":31568:31574   */\n      0x00\n        /* \"#utility.yul\":31617:31619   */\n      0x20\n        /* \"#utility.yul\":31605:31614   */\n      dup3\n        /* \"#utility.yul\":31596:31603   */\n      dup5\n        /* \"#utility.yul\":31592:31615   */\n      sub\n        /* \"#utility.yul\":31588:31620   */\n      slt\n        /* \"#utility.yul\":31585:31704   */\n      iszero\n      tag_814\n      jumpi\n        /* \"#utility.yul\":31623:31702   */\n      tag_815\n      tag_385\n      jump\t// in\n    tag_815:\n        /* \"#utility.yul\":31585:31704   */\n    tag_814:\n        /* \"#utility.yul\":31743:31744   */\n      0x00\n        /* \"#utility.yul\":31768:31829   */\n      tag_816\n        /* \"#utility.yul\":31821:31828   */\n      dup5\n        /* \"#utility.yul\":31812:31818   */\n      dup3\n        /* \"#utility.yul\":31801:31810   */\n      dup6\n        /* \"#utility.yul\":31797:31819   */\n      add\n        /* \"#utility.yul\":31768:31829   */\n      tag_466\n      jump\t// in\n    tag_816:\n        /* \"#utility.yul\":31758:31829   */\n      swap2\n      pop\n        /* \"#utility.yul\":31714:31839   */\n      pop\n        /* \"#utility.yul\":31501:31846   */\n      swap3\n      swap2\n      pop\n      pop\n      jump\t// out\n        /* \"#utility.yul\":31852:32027   */\n    tag_467:\n        /* \"#utility.yul\":31992:32019   */\n      0x496e76616c6964206465706f736974526f6f742070726f6f6600000000000000\n        /* \"#utility.yul\":31988:31989   */\n      0x00\n        /* \"#utility.yul\":31980:31986   */\n      dup3\n        /* \"#utility.yul\":31976:31990   */\n      add\n        /* \"#utility.yul\":31969:32020   */\n      mstore\n        /* \"#utility.yul\":31852:32027   */\n      pop\n      jump\t// out\n        /* \"#utility.yul\":32033:32399   */\n    tag_468:\n        /* \"#utility.yul\":32175:32178   */\n      0x00\n        /* \"#utility.yul\":32196:32263   */\n      tag_819\n        /* \"#utility.yul\":32260:32262   */\n      0x19\n        /* \"#utility.yul\":32255:32258   */\n      dup4\n        /* \"#utility.yul\":32196:32263   */\n      tag_431\n      jump\t// in\n    tag_819:\n        /* \"#utility.yul\":32189:32263   */\n      swap2\n      pop\n        /* \"#utility.yul\":32272:32365   */\n      tag_820\n        /* \"#utility.yul\":32361:32364   */\n      dup3\n        /* \"#utility.yul\":32272:32365   */\n      tag_467\n      jump\t// in\n    tag_820:\n        /* \"#utility.yul\":32390:32392   */\n      0x20\n        /* \"#utility.yul\":32385:32388   */\n      dup3\n        /* \"#utility.yul\":32381:32393   */\n      add\n        /* \"#utility.yul\":32374:32393   */\n      swap1\n      pop\n        /* \"#utility.yul\":32033:32399   */\n      swap2\n      swap1\n      pop\n      jump\t// out\n        /* \"#utility.yul\":32405:32824   */\n    tag_204:\n        /* \"#utility.yul\":32571:32575   */\n      0x00\n        /* \"#utility.yul\":32609:32611   */\n      0x20\n        /* \"#utility.yul\":32598:32607   */\n      dup3\n        /* \"#utility.yul\":32594:32612   */\n      add\n        /* \"#utility.yul\":32586:32612   */\n      swap1\n      pop\n        /* \"#utility.yul\":32658:32667   */\n      dup2\n        /* \"#utility.yul\":32652:32656   */\n      dup2\n        /* \"#utility.yul\":32648:32668   */\n      sub\n        /* \"#utility.yul\":32644:32645   */\n      0x00\n        /* \"#utility.yul\":32633:32642   */\n      dup4\n        /* \"#utility.yul\":32629:32646   */\n      add\n        /* \"#utility.yul\":32622:32669   */\n      mstore\n        /* \"#utility.yul\":32686:32817   */\n      tag_822\n        /* \"#utility.yul\":32812:32816   */\n      dup2\n        /* \"#utility.yul\":32686:32817   */\n      tag_468\n      jump\t// in\n    tag_822:\n        /* \"#utility.yul\":32678:32817   */\n      swap1\n      pop\n        /* \"#utility.yul\":32405:32824   */\n      swap2\n      swap1\n      pop\n      jump\t// out\n        /* \"#utility.yul\":32830:33162   */\n    tag_206:\n        /* \"#utility.yul\":32951:32955   */\n      0x00\n        /* \"#utility.yul\":32989:32991   */\n      0x40\n        /* \"#utility.yul\":32978:32987   */\n      dup3\n        /* \"#utility.yul\":32974:32992   */\n      add\n        /* \"#utility.yul\":32966:32992   */\n      swap1\n      pop\n        /* \"#utility.yul\":33002:33073   */\n      tag_824\n        /* \"#utility.yul\":33070:33071   */\n      0x00\n        /* \"#utility.yul\":33059:33068   */\n      dup4\n        /* \"#utility.yul\":33055:33072   */\n      add\n        /* \"#utility.yul\":33046:33052   */\n      dup6\n        /* \"#utility.yul\":33002:33073   */\n      tag_413\n      jump\t// in\n    tag_824:\n        /* \"#utility.yul\":33083:33155   */\n      tag_825\n        /* \"#utility.yul\":33151:33153   */\n      0x20\n        /* \"#utility.yul\":33140:33149   */\n      dup4\n        /* \"#utility.yul\":33136:33154   */\n      add\n        /* \"#utility.yul\":33127:33133   */\n      dup5\n        /* \"#utility.yul\":33083:33155   */\n      tag_399\n      jump\t// in\n    tag_825:\n        /* \"#utility.yul\":32830:33162   */\n      swap4\n      swap3\n      pop\n      pop\n      pop\n      jump\t// out\n        /* \"#utility.yul\":33168:33331   */\n    tag_469:\n        /* \"#utility.yul\":33285:33296   */\n      0x00\n        /* \"#utility.yul\":33322:33325   */\n      dup2\n        /* \"#utility.yul\":33307:33325   */\n      swap1\n      pop\n        /* \"#utility.yul\":33168:33331   */\n      swap3\n      swap2\n      pop\n      pop\n      jump\t// out\n        /* \"#utility.yul\":33337:33453   */\n    tag_470:\n        /* \"#utility.yul\":33422:33446   */\n      tag_828\n        /* \"#utility.yul\":33440:33445   */\n      dup2\n        /* \"#utility.yul\":33422:33446   */\n      tag_398\n      jump\t// in\n    tag_828:\n        /* \"#utility.yul\":33417:33420   */\n      dup3\n        /* \"#utility.yul\":33410:33447   */\n      mstore\n        /* \"#utility.yul\":33337:33453   */\n      pop\n      pop\n      jump\t// out\n        /* \"#utility.yul\":33459:33654   */\n    tag_471:\n        /* \"#utility.yul\":33536:33546   */\n      0x00\n        /* \"#utility.yul\":33557:33611   */\n      tag_830\n        /* \"#utility.yul\":33607:33610   */\n      dup4\n        /* \"#utility.yul\":33599:33605   */\n      dup4\n        /* \"#utility.yul\":33557:33611   */\n      tag_470\n      jump\t// in\n    tag_830:\n        /* \"#utility.yul\":33643:33647   */\n      0x20\n        /* \"#utility.yul\":33638:33641   */\n      dup4\n        /* \"#utility.yul\":33634:33648   */\n      add\n        /* \"#utility.yul\":33620:33648   */\n      swap1\n      pop\n        /* \"#utility.yul\":33459:33654   */\n      swap3\n      swap2\n      pop\n      pop\n      jump\t// out\n        /* \"#utility.yul\":33690:34466   */\n    tag_472:\n        /* \"#utility.yul\":33827:33830   */\n      0x00\n        /* \"#utility.yul\":33856:33910   */\n      tag_832\n        /* \"#utility.yul\":33904:33909   */\n      dup3\n        /* \"#utility.yul\":33856:33910   */\n      tag_461\n      jump\t// in\n    tag_832:\n        /* \"#utility.yul\":33926:34030   */\n      tag_833\n        /* \"#utility.yul\":34023:34029   */\n      dup2\n        /* \"#utility.yul\":34018:34021   */\n      dup6\n        /* \"#utility.yul\":33926:34030   */\n      tag_469\n      jump\t// in\n    tag_833:\n        /* \"#utility.yul\":33919:34030   */\n      swap4\n      pop\n        /* \"#utility.yul\":34054:34110   */\n      tag_834\n        /* \"#utility.yul\":34104:34109   */\n      dup4\n        /* \"#utility.yul\":34054:34110   */\n      tag_463\n      jump\t// in\n    tag_834:\n        /* \"#utility.yul\":34133:34140   */\n      dup1\n        /* \"#utility.yul\":34164:34165   */\n      0x00\n        /* \"#utility.yul\":34149:34441   */\n    tag_835:\n        /* \"#utility.yul\":34174:34180   */\n      dup4\n        /* \"#utility.yul\":34171:34172   */\n      dup2\n        /* \"#utility.yul\":34168:34181   */\n      lt\n        /* \"#utility.yul\":34149:34441   */\n      iszero\n      tag_837\n      jumpi\n        /* \"#utility.yul\":34250:34256   */\n      dup2\n        /* \"#utility.yul\":34244:34257   */\n      mload\n        /* \"#utility.yul\":34277:34348   */\n      tag_838\n        /* \"#utility.yul\":34344:34347   */\n      dup9\n        /* \"#utility.yul\":34329:34342   */\n      dup3\n        /* \"#utility.yul\":34277:34348   */\n      tag_471\n      jump\t// in\n    tag_838:\n        /* \"#utility.yul\":34270:34348   */\n      swap8\n      pop\n        /* \"#utility.yul\":34371:34431   */\n      tag_839\n        /* \"#utility.yul\":34424:34430   */\n      dup4\n        /* \"#utility.yul\":34371:34431   */\n      tag_464\n      jump\t// in\n    tag_839:\n        /* \"#utility.yul\":34361:34431   */\n      swap3\n      pop\n        /* \"#utility.yul\":34209:34441   */\n      pop\n        /* \"#utility.yul\":34196:34197   */\n      0x01\n        /* \"#utility.yul\":34193:34194   */\n      dup2\n        /* \"#utility.yul\":34189:34198   */\n      add\n        /* \"#utility.yul\":34184:34198   */\n      swap1\n      pop\n        /* \"#utility.yul\":34149:34441   */\n      jump(tag_835)\n    tag_837:\n        /* \"#utility.yul\":34153:34167   */\n      pop\n        /* \"#utility.yul\":34457:34460   */\n      dup6\n        /* \"#utility.yul\":34450:34460   */\n      swap4\n      pop\n        /* \"#utility.yul\":33832:34466   */\n      pop\n      pop\n      pop\n        /* \"#utility.yul\":33690:34466   */\n      swap3\n      swap2\n      pop\n      pop\n      jump\t// out\n        /* \"#utility.yul\":34472:34807   */\n    tag_211:\n        /* \"#utility.yul\":34634:34637   */\n      0x00\n        /* \"#utility.yul\":34656:34781   */\n      tag_841\n        /* \"#utility.yul\":34777:34780   */\n      dup3\n        /* \"#utility.yul\":34768:34774   */\n      dup5\n        /* \"#utility.yul\":34656:34781   */\n      tag_472\n      jump\t// in\n    tag_841:\n        /* \"#utility.yul\":34649:34781   */\n      swap2\n      pop\n        /* \"#utility.yul\":34798:34801   */\n      dup2\n        /* \"#utility.yul\":34791:34801   */\n      swap1\n      pop\n        /* \"#utility.yul\":34472:34807   */\n      swap3\n      swap2\n      pop\n      pop\n      jump\t// out\n        /* \"#utility.yul\":34813:34993   */\n    tag_473:\n        /* \"#utility.yul\":34861:34938   */\n      0x4e487b7100000000000000000000000000000000000000000000000000000000\n        /* \"#utility.yul\":34858:34859   */\n      0x00\n        /* \"#utility.yul\":34851:34939   */\n      mstore\n        /* \"#utility.yul\":34958:34962   */\n      0x11\n        /* \"#utility.yul\":34955:34956   */\n      0x04\n        /* \"#utility.yul\":34948:34963   */\n      mstore\n        /* \"#utility.yul\":34982:34986   */\n      0x24\n        /* \"#utility.yul\":34979:34980   */\n      0x00\n        /* \"#utility.yul\":34972:34987   */\n      revert\n        /* \"#utility.yul\":34999:35170   */\n    tag_227:\n        /* \"#utility.yul\":35038:35041   */\n      0x00\n        /* \"#utility.yul\":35061:35085   */\n      tag_844\n        /* \"#utility.yul\":35079:35084   */\n      dup3\n        /* \"#utility.yul\":35061:35085   */\n      tag_398\n      jump\t// in\n    tag_844:\n        /* \"#utility.yul\":35052:35085   */\n      swap2\n      pop\n        /* \"#utility.yul\":35107:35111   */\n      0x00\n        /* \"#utility.yul\":35100:35105   */\n      dup3\n        /* \"#utility.yul\":35097:35112   */\n      sub\n        /* \"#utility.yul\":35094:35135   */\n      tag_845\n      jumpi\n        /* \"#utility.yul\":35115:35133   */\n      tag_846\n      tag_473\n      jump\t// in\n    tag_846:\n        /* \"#utility.yul\":35094:35135   */\n    tag_845:\n        /* \"#utility.yul\":35162:35163   */\n      0x01\n        /* \"#utility.yul\":35155:35160   */\n      dup3\n        /* \"#utility.yul\":35151:35164   */\n      sub\n        /* \"#utility.yul\":35144:35164   */\n      swap1\n      pop\n        /* \"#utility.yul\":34999:35170   */\n      swap2\n      swap1\n      pop\n      jump\t// out\n        /* \"#utility.yul\":35176:35352   */\n    tag_474:\n        /* \"#utility.yul\":35316:35344   */\n      0x446f206e6f7420737570706f7274207468697320627269646765000000000000\n        /* \"#utility.yul\":35312:35313   */\n      0x00\n        /* \"#utility.yul\":35304:35310   */\n      dup3\n        /* \"#utility.yul\":35300:35314   */\n      add\n        /* \"#utility.yul\":35293:35345   */\n      mstore\n        /* \"#utility.yul\":35176:35352   */\n      pop\n      jump\t// out\n        /* \"#utility.yul\":35358:35724   */\n    tag_475:\n        /* \"#utility.yul\":35500:35503   */\n      0x00\n        /* \"#utility.yul\":35521:35588   */\n      tag_849\n        /* \"#utility.yul\":35585:35587   */\n      0x1a\n        /* \"#utility.yul\":35580:35583   */\n      dup4\n        /* \"#utility.yul\":35521:35588   */\n      tag_431\n      jump\t// in\n    tag_849:\n        /* \"#utility.yul\":35514:35588   */\n      swap2\n      pop\n        /* \"#utility.yul\":35597:35690   */\n      tag_850\n        /* \"#utility.yul\":35686:35689   */\n      dup3\n        /* \"#utility.yul\":35597:35690   */\n      tag_474\n      jump\t// in\n    tag_850:\n        /* \"#utility.yul\":35715:35717   */\n      0x20\n        /* \"#utility.yul\":35710:35713   */\n      dup3\n        /* \"#utility.yul\":35706:35718   */\n      add\n        /* \"#utility.yul\":35699:35718   */\n      swap1\n      pop\n        /* \"#utility.yul\":35358:35724   */\n      swap2\n      swap1\n      pop\n      jump\t// out\n        /* \"#utility.yul\":35730:36149   */\n    tag_241:\n        /* \"#utility.yul\":35896:35900   */\n      0x00\n        /* \"#utility.yul\":35934:35936   */\n      0x20\n        /* \"#utility.yul\":35923:35932   */\n      dup3\n        /* \"#utility.yul\":35919:35937   */\n      add\n        /* \"#utility.yul\":35911:35937   */\n      swap1\n      pop\n        /* \"#utility.yul\":35983:35992   */\n      dup2\n        /* \"#utility.yul\":35977:35981   */\n      dup2\n        /* \"#utility.yul\":35973:35993   */\n      sub\n        /* \"#utility.yul\":35969:35970   */\n      0x00\n        /* \"#utility.yul\":35958:35967   */\n      dup4\n        /* \"#utility.yul\":35954:35971   */\n      add\n        /* \"#utility.yul\":35947:35994   */\n      mstore\n        /* \"#utility.yul\":36011:36142   */\n      tag_852\n        /* \"#utility.yul\":36137:36141   */\n      dup2\n        /* \"#utility.yul\":36011:36142   */\n      tag_475\n      jump\t// in\n    tag_852:\n        /* \"#utility.yul\":36003:36142   */\n      swap1\n      pop\n        /* \"#utility.yul\":35730:36149   */\n      swap2\n      swap1\n      pop\n      jump\t// out\n        /* \"#utility.yul\":36155:36298   */\n    tag_476:\n        /* \"#utility.yul\":36212:36217   */\n      0x00\n        /* \"#utility.yul\":36243:36249   */\n      dup2\n        /* \"#utility.yul\":36237:36250   */\n      mload\n        /* \"#utility.yul\":36228:36250   */\n      swap1\n      pop\n        /* \"#utility.yul\":36259:36292   */\n      tag_854\n        /* \"#utility.yul\":36286:36291   */\n      dup2\n        /* \"#utility.yul\":36259:36292   */\n      tag_388\n      jump\t// in\n    tag_854:\n        /* \"#utility.yul\":36155:36298   */\n      swap3\n      swap2\n      pop\n      pop\n      jump\t// out\n        /* \"#utility.yul\":36304:36655   */\n    tag_246:\n        /* \"#utility.yul\":36374:36380   */\n      0x00\n        /* \"#utility.yul\":36423:36425   */\n      0x20\n        /* \"#utility.yul\":36411:36420   */\n      dup3\n        /* \"#utility.yul\":36402:36409   */\n      dup5\n        /* \"#utility.yul\":36398:36421   */\n      sub\n        /* \"#utility.yul\":36394:36426   */\n      slt\n        /* \"#utility.yul\":36391:36510   */\n      iszero\n      tag_856\n      jumpi\n        /* \"#utility.yul\":36429:36508   */\n      tag_857\n      tag_385\n      jump\t// in\n    tag_857:\n        /* \"#utility.yul\":36391:36510   */\n    tag_856:\n        /* \"#utility.yul\":36549:36550   */\n      0x00\n        /* \"#utility.yul\":36574:36638   */\n      tag_858\n        /* \"#utility.yul\":36630:36637   */\n      dup5\n        /* \"#utility.yul\":36621:36627   */\n      dup3\n        /* \"#utility.yul\":36610:36619   */\n      dup6\n        /* \"#utility.yul\":36606:36628   */\n      add\n        /* \"#utility.yul\":36574:36638   */\n      tag_476\n      jump\t// in\n    tag_858:\n        /* \"#utility.yul\":36564:36638   */\n      swap2\n      pop\n        /* \"#utility.yul\":36520:36648   */\n      pop\n        /* \"#utility.yul\":36304:36655   */\n      swap3\n      swap2\n      pop\n      pop\n      jump\t// out\n        /* \"#utility.yul\":36661:36832   */\n    tag_477:\n        /* \"#utility.yul\":36801:36824   */\n      0x44617461206861736820697320696e76616c6964210000000000000000000000\n        /* \"#utility.yul\":36797:36798   */\n      0x00\n        /* \"#utility.yul\":36789:36795   */\n      dup3\n        /* \"#utility.yul\":36785:36799   */\n      add\n        /* \"#utility.yul\":36778:36825   */\n      mstore\n        /* \"#utility.yul\":36661:36832   */\n      pop\n      jump\t// out\n        /* \"#utility.yul\":36838:37204   */\n    tag_478:\n        /* \"#utility.yul\":36980:36983   */\n      0x00\n        /* \"#utility.yul\":37001:37068   */\n      tag_861\n        /* \"#utility.yul\":37065:37067   */\n      0x15\n        /* \"#utility.yul\":37060:37063   */\n      dup4\n        /* \"#utility.yul\":37001:37068   */\n      tag_431\n      jump\t// in\n    tag_861:\n        /* \"#utility.yul\":36994:37068   */\n      swap2\n      pop\n        /* \"#utility.yul\":37077:37170   */\n      tag_862\n        /* \"#utility.yul\":37166:37169   */\n      dup3\n        /* \"#utility.yul\":37077:37170   */\n      tag_477\n      jump\t// in\n    tag_862:\n        /* \"#utility.yul\":37195:37197   */\n      0x20\n        /* \"#utility.yul\":37190:37193   */\n      dup3\n        /* \"#utility.yul\":37186:37198   */\n      add\n        /* \"#utility.yul\":37179:37198   */\n      swap1\n      pop\n        /* \"#utility.yul\":36838:37204   */\n      swap2\n      swap1\n      pop\n      jump\t// out\n        /* \"#utility.yul\":37210:37629   */\n    tag_249:\n        /* \"#utility.yul\":37376:37380   */\n      0x00\n        /* \"#utility.yul\":37414:37416   */\n      0x20\n        /* \"#utility.yul\":37403:37412   */\n      dup3\n        /* \"#utility.yul\":37399:37417   */\n      add\n        /* \"#utility.yul\":37391:37417   */\n      swap1\n      pop\n        /* \"#utility.yul\":37463:37472   */\n      dup2\n        /* \"#utility.yul\":37457:37461   */\n      dup2\n        /* \"#utility.yul\":37453:37473   */\n      sub\n        /* \"#utility.yul\":37449:37450   */\n      0x00\n        /* \"#utility.yul\":37438:37447   */\n      dup4\n        /* \"#utility.yul\":37434:37451   */\n      add\n        /* \"#utility.yul\":37427:37474   */\n      mstore\n        /* \"#utility.yul\":37491:37622   */\n      tag_864\n        /* \"#utility.yul\":37617:37621   */\n      dup2\n        /* \"#utility.yul\":37491:37622   */\n      tag_478\n      jump\t// in\n    tag_864:\n        /* \"#utility.yul\":37483:37622   */\n      swap1\n      pop\n        /* \"#utility.yul\":37210:37629   */\n      swap2\n      swap1\n      pop\n      jump\t// out\n        /* \"#utility.yul\":37635:37868   */\n    tag_479:\n        /* \"#utility.yul\":37775:37809   */\n      0x496e697469616c697a61626c653a20636f6e747261637420697320616c726561\n        /* \"#utility.yul\":37771:37772   */\n      0x00\n        /* \"#utility.yul\":37763:37769   */\n      dup3\n        /* \"#utility.yul\":37759:37773   */\n      add\n        /* \"#utility.yul\":37752:37810   */\n      mstore\n        /* \"#utility.yul\":37844:37860   */\n      0x647920696e697469616c697a6564000000000000000000000000000000000000\n        /* \"#utility.yul\":37839:37841   */\n      0x20\n        /* \"#utility.yul\":37831:37837   */\n      dup3\n        /* \"#utility.yul\":37827:37842   */\n      add\n        /* \"#utility.yul\":37820:37861   */\n      mstore\n        /* \"#utility.yul\":37635:37868   */\n      pop\n      jump\t// out\n        /* \"#utility.yul\":37874:38240   */\n    tag_480:\n        /* \"#utility.yul\":38016:38019   */\n      0x00\n        /* \"#utility.yul\":38037:38104   */\n      tag_867\n        /* \"#utility.yul\":38101:38103   */\n      0x2e\n        /* \"#utility.yul\":38096:38099   */\n      dup4\n        /* \"#utility.yul\":38037:38104   */\n      tag_431\n      jump\t// in\n    tag_867:\n        /* \"#utility.yul\":38030:38104   */\n      swap2\n      pop\n        /* \"#utility.yul\":38113:38206   */\n      tag_868\n        /* \"#utility.yul\":38202:38205   */\n      dup3\n        /* \"#utility.yul\":38113:38206   */\n      tag_479\n      jump\t// in\n    tag_868:\n        /* \"#utility.yul\":38231:38233   */\n      0x40\n        /* \"#utility.yul\":38226:38229   */\n      dup3\n        /* \"#utility.yul\":38222:38234   */\n      add\n        /* \"#utility.yul\":38215:38234   */\n      swap1\n      pop\n        /* \"#utility.yul\":37874:38240   */\n      swap2\n      swap1\n      pop\n      jump\t// out\n        /* \"#utility.yul\":38246:38665   */\n    tag_285:\n        /* \"#utility.yul\":38412:38416   */\n      0x00\n        /* \"#utility.yul\":38450:38452   */\n      0x20\n        /* \"#utility.yul\":38439:38448   */\n      dup3\n        /* \"#utility.yul\":38435:38453   */\n      add\n        /* \"#utility.yul\":38427:38453   */\n      swap1\n      pop\n        /* \"#utility.yul\":38499:38508   */\n      dup2\n        /* \"#utility.yul\":38493:38497   */\n      dup2\n        /* \"#utility.yul\":38489:38509   */\n      sub\n        /* \"#utility.yul\":38485:38486   */\n      0x00\n        /* \"#utility.yul\":38474:38483   */\n      dup4\n        /* \"#utility.yul\":38470:38487   */\n      add\n        /* \"#utility.yul\":38463:38510   */\n      mstore\n        /* \"#utility.yul\":38527:38658   */\n      tag_870\n        /* \"#utility.yul\":38653:38657   */\n      dup2\n        /* \"#utility.yul\":38527:38658   */\n      tag_480\n      jump\t// in\n    tag_870:\n        /* \"#utility.yul\":38519:38658   */\n      swap1\n      pop\n        /* \"#utility.yul\":38246:38665   */\n      swap2\n      swap1\n      pop\n      jump\t// out\n        /* \"#utility.yul\":38671:38850   */\n    tag_481:\n        /* \"#utility.yul\":38811:38842   */\n      0x42726964676520697320616c726561647920696e697469616c697a6564000000\n        /* \"#utility.yul\":38807:38808   */\n      0x00\n        /* \"#utility.yul\":38799:38805   */\n      dup3\n        /* \"#utility.yul\":38795:38809   */\n      add\n        /* \"#utility.yul\":38788:38843   */\n      mstore\n        /* \"#utility.yul\":38671:38850   */\n      pop\n      jump\t// out\n        /* \"#utility.yul\":38856:39222   */\n    tag_482:\n        /* \"#utility.yul\":38998:39001   */\n      0x00\n        /* \"#utility.yul\":39019:39086   */\n      tag_873\n        /* \"#utility.yul\":39083:39085   */\n      0x1d\n        /* \"#utility.yul\":39078:39081   */\n      dup4\n        /* \"#utility.yul\":39019:39086   */\n      tag_431\n      jump\t// in\n    tag_873:\n        /* \"#utility.yul\":39012:39086   */\n      swap2\n      pop\n        /* \"#utility.yul\":39095:39188   */\n      tag_874\n        /* \"#utility.yul\":39184:39187   */\n      dup3\n        /* \"#utility.yul\":39095:39188   */\n      tag_481\n      jump\t// in\n    tag_874:\n        /* \"#utility.yul\":39213:39215   */\n      0x20\n        /* \"#utility.yul\":39208:39211   */\n      dup3\n        /* \"#utility.yul\":39204:39216   */\n      add\n        /* \"#utility.yul\":39197:39216   */\n      swap1\n      pop\n        /* \"#utility.yul\":38856:39222   */\n      swap2\n      swap1\n      pop\n      jump\t// out\n        /* \"#utility.yul\":39228:39647   */\n    tag_291:\n        /* \"#utility.yul\":39394:39398   */\n      0x00\n        /* \"#utility.yul\":39432:39434   */\n      0x20\n        /* \"#utility.yul\":39421:39430   */\n      dup3\n        /* \"#utility.yul\":39417:39435   */\n      add\n        /* \"#utility.yul\":39409:39435   */\n      swap1\n      pop\n        /* \"#utility.yul\":39481:39490   */\n      dup2\n        /* \"#utility.yul\":39475:39479   */\n      dup2\n        /* \"#utility.yul\":39471:39491   */\n      sub\n        /* \"#utility.yul\":39467:39468   */\n      0x00\n        /* \"#utility.yul\":39456:39465   */\n      dup4\n        /* \"#utility.yul\":39452:39469   */\n      add\n        /* \"#utility.yul\":39445:39492   */\n      mstore\n        /* \"#utility.yul\":39509:39640   */\n      tag_876\n        /* \"#utility.yul\":39635:39639   */\n      dup2\n        /* \"#utility.yul\":39509:39640   */\n      tag_482\n      jump\t// in\n    tag_876:\n        /* \"#utility.yul\":39501:39640   */\n      swap1\n      pop\n        /* \"#utility.yul\":39228:39647   */\n      swap2\n      swap1\n      pop\n      jump\t// out\n        /* \"#utility.yul\":39653:39738   */\n    tag_483:\n        /* \"#utility.yul\":39698:39705   */\n      0x00\n        /* \"#utility.yul\":39727:39732   */\n      dup2\n        /* \"#utility.yul\":39716:39732   */\n      swap1\n      pop\n        /* \"#utility.yul\":39653:39738   */\n      swap2\n      swap1\n      pop\n      jump\t// out\n        /* \"#utility.yul\":39744:39830   */\n    tag_484:\n        /* \"#utility.yul\":39779:39786   */\n      0x00\n        /* \"#utility.yul\":39819:39823   */\n      0xff\n        /* \"#utility.yul\":39812:39817   */\n      dup3\n        /* \"#utility.yul\":39808:39824   */\n      and\n        /* \"#utility.yul\":39797:39824   */\n      swap1\n      pop\n        /* \"#utility.yul\":39744:39830   */\n      swap2\n      swap1\n      pop\n      jump\t// out\n        /* \"#utility.yul\":39836:39990   */\n    tag_485:\n        /* \"#utility.yul\":39892:39901   */\n      0x00\n        /* \"#utility.yul\":39925:39984   */\n      tag_880\n        /* \"#utility.yul\":39941:39983   */\n      tag_881\n        /* \"#utility.yul\":39950:39982   */\n      tag_882\n        /* \"#utility.yul\":39976:39981   */\n      dup5\n        /* \"#utility.yul\":39950:39982   */\n      tag_483\n      jump\t// in\n    tag_882:\n        /* \"#utility.yul\":39941:39983   */\n      tag_393\n      jump\t// in\n    tag_881:\n        /* \"#utility.yul\":39925:39984   */\n      tag_484\n      jump\t// in\n    tag_880:\n        /* \"#utility.yul\":39912:39984   */\n      swap1\n      pop\n        /* \"#utility.yul\":39836:39990   */\n      swap2\n      swap1\n      pop\n      jump\t// out\n        /* \"#utility.yul\":39996:40139   */\n    tag_486:\n        /* \"#utility.yul\":40089:40132   */\n      tag_884\n        /* \"#utility.yul\":40126:40131   */\n      dup2\n        /* \"#utility.yul\":40089:40132   */\n      tag_485\n      jump\t// in\n    tag_884:\n        /* \"#utility.yul\":40084:40087   */\n      dup3\n        /* \"#utility.yul\":40077:40133   */\n      mstore\n        /* \"#utility.yul\":39996:40139   */\n      pop\n      pop\n      jump\t// out\n        /* \"#utility.yul\":40145:40379   */\n    tag_306:\n        /* \"#utility.yul\":40244:40248   */\n      0x00\n        /* \"#utility.yul\":40282:40284   */\n      0x20\n        /* \"#utility.yul\":40271:40280   */\n      dup3\n        /* \"#utility.yul\":40267:40285   */\n      add\n        /* \"#utility.yul\":40259:40285   */\n      swap1\n      pop\n        /* \"#utility.yul\":40295:40372   */\n      tag_886\n        /* \"#utility.yul\":40369:40370   */\n      0x00\n        /* \"#utility.yul\":40358:40367   */\n      dup4\n        /* \"#utility.yul\":40354:40371   */\n      add\n        /* \"#utility.yul\":40345:40351   */\n      dup5\n        /* \"#utility.yul\":40295:40372   */\n      tag_486\n      jump\t// in\n    tag_886:\n        /* \"#utility.yul\":40145:40379   */\n      swap3\n      swap2\n      pop\n      pop\n      jump\t// out\n        /* \"#utility.yul\":40385:40610   */\n    tag_487:\n        /* \"#utility.yul\":40525:40559   */\n      0x4f776e61626c653a206e6577206f776e657220697320746865207a65726f2061\n        /* \"#utility.yul\":40521:40522   */\n      0x00\n        /* \"#utility.yul\":40513:40519   */\n      dup3\n        /* \"#utility.yul\":40509:40523   */\n      add\n        /* \"#utility.yul\":40502:40560   */\n      mstore\n        /* \"#utility.yul\":40594:40602   */\n      0x6464726573730000000000000000000000000000000000000000000000000000\n        /* \"#utility.yul\":40589:40591   */\n      0x20\n        /* \"#utility.yul\":40581:40587   */\n      dup3\n        /* \"#utility.yul\":40577:40592   */\n      add\n        /* \"#utility.yul\":40570:40603   */\n      mstore\n        /* \"#utility.yul\":40385:40610   */\n      pop\n      jump\t// out\n        /* \"#utility.yul\":40616:40982   */\n    tag_488:\n        /* \"#utility.yul\":40758:40761   */\n      0x00\n        /* \"#utility.yul\":40779:40846   */\n      tag_889\n        /* \"#utility.yul\":40843:40845   */\n      0x26\n        /* \"#utility.yul\":40838:40841   */\n      dup4\n        /* \"#utility.yul\":40779:40846   */\n      tag_431\n      jump\t// in\n    tag_889:\n        /* \"#utility.yul\":40772:40846   */\n      swap2\n      pop\n        /* \"#utility.yul\":40855:40948   */\n      tag_890\n        /* \"#utility.yul\":40944:40947   */\n      dup3\n        /* \"#utility.yul\":40855:40948   */\n      tag_487\n      jump\t// in\n    tag_890:\n        /* \"#utility.yul\":40973:40975   */\n      0x40\n        /* \"#utility.yul\":40968:40971   */\n      dup3\n        /* \"#utility.yul\":40964:40976   */\n      add\n        /* \"#utility.yul\":40957:40976   */\n      swap1\n      pop\n        /* \"#utility.yul\":40616:40982   */\n      swap2\n      swap1\n      pop\n      jump\t// out\n        /* \"#utility.yul\":40988:41407   */\n    tag_313:\n        /* \"#utility.yul\":41154:41158   */\n      0x00\n        /* \"#utility.yul\":41192:41194   */\n      0x20\n        /* \"#utility.yul\":41181:41190   */\n      dup3\n        /* \"#utility.yul\":41177:41195   */\n      add\n        /* \"#utility.yul\":41169:41195   */\n      swap1\n      pop\n        /* \"#utility.yul\":41241:41250   */\n      dup2\n        /* \"#utility.yul\":41235:41239   */\n      dup2\n        /* \"#utility.yul\":41231:41251   */\n      sub\n        /* \"#utility.yul\":41227:41228   */\n      0x00\n        /* \"#utility.yul\":41216:41225   */\n      dup4\n        /* \"#utility.yul\":41212:41229   */\n      add\n        /* \"#utility.yul\":41205:41252   */\n      mstore\n        /* \"#utility.yul\":41269:41400   */\n      tag_892\n        /* \"#utility.yul\":41395:41399   */\n      dup2\n        /* \"#utility.yul\":41269:41400   */\n      tag_488\n      jump\t// in\n    tag_892:\n        /* \"#utility.yul\":41261:41400   */\n      swap1\n      pop\n        /* \"#utility.yul\":40988:41407   */\n      swap2\n      swap1\n      pop\n      jump\t// out\n        /* \"#utility.yul\":41413:41595   */\n    tag_489:\n        /* \"#utility.yul\":41553:41587   */\n      0x4f776e61626c653a2063616c6c6572206973206e6f7420746865206f776e6572\n        /* \"#utility.yul\":41549:41550   */\n      0x00\n        /* \"#utility.yul\":41541:41547   */\n      dup3\n        /* \"#utility.yul\":41537:41551   */\n      add\n        /* \"#utility.yul\":41530:41588   */\n      mstore\n        /* \"#utility.yul\":41413:41595   */\n      pop\n      jump\t// out\n        /* \"#utility.yul\":41601:41967   */\n    tag_490:\n        /* \"#utility.yul\":41743:41746   */\n      0x00\n        /* \"#utility.yul\":41764:41831   */\n      tag_895\n        /* \"#utility.yul\":41828:41830   */\n      0x20\n        /* \"#utility.yul\":41823:41826   */\n      dup4\n        /* \"#utility.yul\":41764:41831   */\n      tag_431\n      jump\t// in\n    tag_895:\n        /* \"#utility.yul\":41757:41831   */\n      swap2\n      pop\n        /* \"#utility.yul\":41840:41933   */\n      tag_896\n        /* \"#utility.yul\":41929:41932   */\n      dup3\n        /* \"#utility.yul\":41840:41933   */\n      tag_489\n      jump\t// in\n    tag_896:\n        /* \"#utility.yul\":41958:41960   */\n      0x20\n        /* \"#utility.yul\":41953:41956   */\n      dup3\n        /* \"#utility.yul\":41949:41961   */\n      add\n        /* \"#utility.yul\":41942:41961   */\n      swap1\n      pop\n        /* \"#utility.yul\":41601:41967   */\n      swap2\n      swap1\n      pop\n      jump\t// out\n        /* \"#utility.yul\":41973:42392   */\n    tag_321:\n        /* \"#utility.yul\":42139:42143   */\n      0x00\n        /* \"#utility.yul\":42177:42179   */\n      0x20\n        /* \"#utility.yul\":42166:42175   */\n      dup3\n        /* \"#utility.yul\":42162:42180   */\n      add\n        /* \"#utility.yul\":42154:42180   */\n      swap1\n      pop\n        /* \"#utility.yul\":42226:42235   */\n      dup2\n        /* \"#utility.yul\":42220:42224   */\n      dup2\n        /* \"#utility.yul\":42216:42236   */\n      sub\n        /* \"#utility.yul\":42212:42213   */\n      0x00\n        /* \"#utility.yul\":42201:42210   */\n      dup4\n        /* \"#utility.yul\":42197:42214   */\n      add\n        /* \"#utility.yul\":42190:42237   */\n      mstore\n        /* \"#utility.yul\":42254:42385   */\n      tag_898\n        /* \"#utility.yul\":42380:42384   */\n      dup2\n        /* \"#utility.yul\":42254:42385   */\n      tag_490\n      jump\t// in\n    tag_898:\n        /* \"#utility.yul\":42246:42385   */\n      swap1\n      pop\n        /* \"#utility.yul\":41973:42392   */\n      swap2\n      swap1\n      pop\n      jump\t// out\n        /* \"#utility.yul\":42398:42564   */\n    tag_491:\n        /* \"#utility.yul\":42538:42556   */\n      0x5061757361626c653a2070617573656400000000000000000000000000000000\n        /* \"#utility.yul\":42534:42535   */\n      0x00\n        /* \"#utility.yul\":42526:42532   */\n      dup3\n        /* \"#utility.yul\":42522:42536   */\n      add\n        /* \"#utility.yul\":42515:42557   */\n      mstore\n        /* \"#utility.yul\":42398:42564   */\n      pop\n      jump\t// out\n        /* \"#utility.yul\":42570:42936   */\n    tag_492:\n        /* \"#utility.yul\":42712:42715   */\n      0x00\n        /* \"#utility.yul\":42733:42800   */\n      tag_901\n        /* \"#utility.yul\":42797:42799   */\n      0x10\n        /* \"#utility.yul\":42792:42795   */\n      dup4\n        /* \"#utility.yul\":42733:42800   */\n      tag_431\n      jump\t// in\n    tag_901:\n        /* \"#utility.yul\":42726:42800   */\n      swap2\n      pop\n        /* \"#utility.yul\":42809:42902   */\n      tag_902\n        /* \"#utility.yul\":42898:42901   */\n      dup3\n        /* \"#utility.yul\":42809:42902   */\n      tag_491\n      jump\t// in\n    tag_902:\n        /* \"#utility.yul\":42927:42929   */\n      0x20\n        /* \"#utility.yul\":42922:42925   */\n      dup3\n        /* \"#utility.yul\":42918:42930   */\n      add\n        /* \"#utility.yul\":42911:42930   */\n      swap1\n      pop\n        /* \"#utility.yul\":42570:42936   */\n      swap2\n      swap1\n      pop\n      jump\t// out\n        /* \"#utility.yul\":42942:43361   */\n    tag_326:\n        /* \"#utility.yul\":43108:43112   */\n      0x00\n        /* \"#utility.yul\":43146:43148   */\n      0x20\n        /* \"#utility.yul\":43135:43144   */\n      dup3\n        /* \"#utility.yul\":43131:43149   */\n      add\n        /* \"#utility.yul\":43123:43149   */\n      swap1\n      pop\n        /* \"#utility.yul\":43195:43204   */\n      dup2\n        /* \"#utility.yul\":43189:43193   */\n      dup2\n        /* \"#utility.yul\":43185:43205   */\n      sub\n        /* \"#utility.yul\":43181:43182   */\n      0x00\n        /* \"#utility.yul\":43170:43179   */\n      dup4\n        /* \"#utility.yul\":43166:43183   */\n      add\n        /* \"#utility.yul\":43159:43206   */\n      mstore\n        /* \"#utility.yul\":43223:43354   */\n      tag_904\n        /* \"#utility.yul\":43349:43353   */\n      dup2\n        /* \"#utility.yul\":43223:43354   */\n      tag_492\n      jump\t// in\n    tag_904:\n        /* \"#utility.yul\":43215:43354   */\n      swap1\n      pop\n        /* \"#utility.yul\":42942:43361   */\n      swap2\n      swap1\n      pop\n      jump\t// out\n        /* \"#utility.yul\":43367:43558   */\n    tag_335:\n        /* \"#utility.yul\":43407:43410   */\n      0x00\n        /* \"#utility.yul\":43426:43446   */\n      tag_906\n        /* \"#utility.yul\":43444:43445   */\n      dup3\n        /* \"#utility.yul\":43426:43446   */\n      tag_398\n      jump\t// in\n    tag_906:\n        /* \"#utility.yul\":43421:43446   */\n      swap2\n      pop\n        /* \"#utility.yul\":43460:43480   */\n      tag_907\n        /* \"#utility.yul\":43478:43479   */\n      dup4\n        /* \"#utility.yul\":43460:43480   */\n      tag_398\n      jump\t// in\n    tag_907:\n        /* \"#utility.yul\":43455:43480   */\n      swap3\n      pop\n        /* \"#utility.yul\":43503:43504   */\n      dup3\n        /* \"#utility.yul\":43500:43501   */\n      dup3\n        /* \"#utility.yul\":43496:43505   */\n      add\n        /* \"#utility.yul\":43489:43505   */\n      swap1\n      pop\n        /* \"#utility.yul\":43524:43527   */\n      dup1\n        /* \"#utility.yul\":43521:43522   */\n      dup3\n        /* \"#utility.yul\":43518:43528   */\n      gt\n        /* \"#utility.yul\":43515:43551   */\n      iszero\n      tag_908\n      jumpi\n        /* \"#utility.yul\":43531:43549   */\n      tag_909\n      tag_473\n      jump\t// in\n    tag_909:\n        /* \"#utility.yul\":43515:43551   */\n    tag_908:\n        /* \"#utility.yul\":43367:43558   */\n      swap3\n      swap2\n      pop\n      pop\n      jump\t// out\n        /* \"#utility.yul\":43564:43744   */\n    tag_493:\n        /* \"#utility.yul\":43612:43689   */\n      0x4e487b7100000000000000000000000000000000000000000000000000000000\n        /* \"#utility.yul\":43609:43610   */\n      0x00\n        /* \"#utility.yul\":43602:43690   */\n      mstore\n        /* \"#utility.yul\":43709:43713   */\n      0x12\n        /* \"#utility.yul\":43706:43707   */\n      0x04\n        /* \"#utility.yul\":43699:43714   */\n      mstore\n        /* \"#utility.yul\":43733:43737   */\n      0x24\n        /* \"#utility.yul\":43730:43731   */\n      0x00\n        /* \"#utility.yul\":43723:43738   */\n      revert\n        /* \"#utility.yul\":43750:43926   */\n    tag_337:\n        /* \"#utility.yul\":43782:43783   */\n      0x00\n        /* \"#utility.yul\":43799:43819   */\n      tag_912\n        /* \"#utility.yul\":43817:43818   */\n      dup3\n        /* \"#utility.yul\":43799:43819   */\n      tag_398\n      jump\t// in\n    tag_912:\n        /* \"#utility.yul\":43794:43819   */\n      swap2\n      pop\n        /* \"#utility.yul\":43833:43853   */\n      tag_913\n        /* \"#utility.yul\":43851:43852   */\n      dup4\n        /* \"#utility.yul\":43833:43853   */\n      tag_398\n      jump\t// in\n    tag_913:\n        /* \"#utility.yul\":43828:43853   */\n      swap3\n      pop\n        /* \"#utility.yul\":43872:43873   */\n      dup3\n        /* \"#utility.yul\":43862:43897   */\n      tag_914\n      jumpi\n        /* \"#utility.yul\":43877:43895   */\n      tag_915\n      tag_493\n      jump\t// in\n    tag_915:\n        /* \"#utility.yul\":43862:43897   */\n    tag_914:\n        /* \"#utility.yul\":43918:43919   */\n      dup3\n        /* \"#utility.yul\":43915:43916   */\n      dup3\n        /* \"#utility.yul\":43911:43920   */\n      mod\n        /* \"#utility.yul\":43906:43920   */\n      swap1\n      pop\n        /* \"#utility.yul\":43750:43926   */\n      swap3\n      swap2\n      pop\n      pop\n      jump\t// out\n        /* \"#utility.yul\":43932:44162   */\n    tag_494:\n        /* \"#utility.yul\":44072:44106   */\n      0x496e697469616c697a61626c653a20636f6e7472616374206973206e6f742069\n        /* \"#utility.yul\":44068:44069   */\n      0x00\n        /* \"#utility.yul\":44060:44066   */\n      dup3\n        /* \"#utility.yul\":44056:44070   */\n      add\n        /* \"#utility.yul\":44049:44107   */\n      mstore\n        /* \"#utility.yul\":44141:44154   */\n      0x6e697469616c697a696e67000000000000000000000000000000000000000000\n        /* \"#utility.yul\":44136:44138   */\n      0x20\n        /* \"#utility.yul\":44128:44134   */\n      dup3\n        /* \"#utility.yul\":44124:44139   */\n      add\n        /* \"#utility.yul\":44117:44155   */\n      mstore\n        /* \"#utility.yul\":43932:44162   */\n      pop\n      jump\t// out\n        /* \"#utility.yul\":44168:44534   */\n    tag_495:\n        /* \"#utility.yul\":44310:44313   */\n      0x00\n        /* \"#utility.yul\":44331:44398   */\n      tag_918\n        /* \"#utility.yul\":44395:44397   */\n      0x2b\n        /* \"#utility.yul\":44390:44393   */\n      dup4\n        /* \"#utility.yul\":44331:44398   */\n      tag_431\n      jump\t// in\n    tag_918:\n        /* \"#utility.yul\":44324:44398   */\n      swap2\n      pop\n        /* \"#utility.yul\":44407:44500   */\n      tag_919\n        /* \"#utility.yul\":44496:44499   */\n      dup3\n        /* \"#utility.yul\":44407:44500   */\n      tag_494\n      jump\t// in\n    tag_919:\n        /* \"#utility.yul\":44525:44527   */\n      0x40\n        /* \"#utility.yul\":44520:44523   */\n      dup3\n        /* \"#utility.yul\":44516:44528   */\n      add\n        /* \"#utility.yul\":44509:44528   */\n      swap1\n      pop\n        /* \"#utility.yul\":44168:44534   */\n      swap2\n      swap1\n      pop\n      jump\t// out\n        /* \"#utility.yul\":44540:44959   */\n    tag_348:\n        /* \"#utility.yul\":44706:44710   */\n      0x00\n        /* \"#utility.yul\":44744:44746   */\n      0x20\n        /* \"#utility.yul\":44733:44742   */\n      dup3\n        /* \"#utility.yul\":44729:44747   */\n      add\n        /* \"#utility.yul\":44721:44747   */\n      swap1\n      pop\n        /* \"#utility.yul\":44793:44802   */\n      dup2\n        /* \"#utility.yul\":44787:44791   */\n      dup2\n        /* \"#utility.yul\":44783:44803   */\n      sub\n        /* \"#utility.yul\":44779:44780   */\n      0x00\n        /* \"#utility.yul\":44768:44777   */\n      dup4\n        /* \"#utility.yul\":44764:44781   */\n      add\n        /* \"#utility.yul\":44757:44804   */\n      mstore\n        /* \"#utility.yul\":44821:44952   */\n      tag_921\n        /* \"#utility.yul\":44947:44951   */\n      dup2\n        /* \"#utility.yul\":44821:44952   */\n      tag_495\n      jump\t// in\n    tag_921:\n        /* \"#utility.yul\":44813:44952   */\n      swap1\n      pop\n        /* \"#utility.yul\":44540:44959   */\n      swap2\n      swap1\n      pop\n      jump\t// out\n        /* \"#utility.yul\":44965:45187   */\n    tag_496:\n        /* \"#utility.yul\":45105:45139   */\n      0x5f6c6576656c732073686f756c642062652067726561746572207468616e207a\n        /* \"#utility.yul\":45101:45102   */\n      0x00\n        /* \"#utility.yul\":45093:45099   */\n      dup3\n        /* \"#utility.yul\":45089:45103   */\n      add\n        /* \"#utility.yul\":45082:45140   */\n      mstore\n        /* \"#utility.yul\":45174:45179   */\n      0x65726f0000000000000000000000000000000000000000000000000000000000\n        /* \"#utility.yul\":45169:45171   */\n      0x20\n        /* \"#utility.yul\":45161:45167   */\n      dup3\n        /* \"#utility.yul\":45157:45172   */\n      add\n        /* \"#utility.yul\":45150:45180   */\n      mstore\n        /* \"#utility.yul\":44965:45187   */\n      pop\n      jump\t// out\n        /* \"#utility.yul\":45193:45559   */\n    tag_497:\n        /* \"#utility.yul\":45335:45338   */\n      0x00\n        /* \"#utility.yul\":45356:45423   */\n      tag_924\n        /* \"#utility.yul\":45420:45422   */\n      0x23\n        /* \"#utility.yul\":45415:45418   */\n      dup4\n        /* \"#utility.yul\":45356:45423   */\n      tag_431\n      jump\t// in\n    tag_924:\n        /* \"#utility.yul\":45349:45423   */\n      swap2\n      pop\n        /* \"#utility.yul\":45432:45525   */\n      tag_925\n        /* \"#utility.yul\":45521:45524   */\n      dup3\n        /* \"#utility.yul\":45432:45525   */\n      tag_496\n      jump\t// in\n    tag_925:\n        /* \"#utility.yul\":45550:45552   */\n      0x40\n        /* \"#utility.yul\":45545:45548   */\n      dup3\n        /* \"#utility.yul\":45541:45553   */\n      add\n        /* \"#utility.yul\":45534:45553   */\n      swap1\n      pop\n        /* \"#utility.yul\":45193:45559   */\n      swap2\n      swap1\n      pop\n      jump\t// out\n        /* \"#utility.yul\":45565:45984   */\n    tag_356:\n        /* \"#utility.yul\":45731:45735   */\n      0x00\n        /* \"#utility.yul\":45769:45771   */\n      0x20\n        /* \"#utility.yul\":45758:45767   */\n      dup3\n        /* \"#utility.yul\":45754:45772   */\n      add\n        /* \"#utility.yul\":45746:45772   */\n      swap1\n      pop\n        /* \"#utility.yul\":45818:45827   */\n      dup2\n        /* \"#utility.yul\":45812:45816   */\n      dup2\n        /* \"#utility.yul\":45808:45828   */\n      sub\n        /* \"#utility.yul\":45804:45805   */\n      0x00\n        /* \"#utility.yul\":45793:45802   */\n      dup4\n        /* \"#utility.yul\":45789:45806   */\n      add\n        /* \"#utility.yul\":45782:45829   */\n      mstore\n        /* \"#utility.yul\":45846:45977   */\n      tag_927\n        /* \"#utility.yul\":45972:45976   */\n      dup2\n        /* \"#utility.yul\":45846:45977   */\n      tag_497\n      jump\t// in\n    tag_927:\n        /* \"#utility.yul\":45838:45977   */\n      swap1\n      pop\n        /* \"#utility.yul\":45565:45984   */\n      swap2\n      swap1\n      pop\n      jump\t// out\n        /* \"#utility.yul\":45990:46170   */\n    tag_498:\n        /* \"#utility.yul\":46130:46162   */\n      0x5f6c6576656c732073686f756c64206265206c657373207468616e2034300000\n        /* \"#utility.yul\":46126:46127   */\n      0x00\n        /* \"#utility.yul\":46118:46124   */\n      dup3\n        /* \"#utility.yul\":46114:46128   */\n      add\n        /* \"#utility.yul\":46107:46163   */\n      mstore\n        /* \"#utility.yul\":45990:46170   */\n      pop\n      jump\t// out\n        /* \"#utility.yul\":46176:46542   */\n    tag_499:\n        /* \"#utility.yul\":46318:46321   */\n      0x00\n        /* \"#utility.yul\":46339:46406   */\n      tag_930\n        /* \"#utility.yul\":46403:46405   */\n      0x1e\n        /* \"#utility.yul\":46398:46401   */\n      dup4\n        /* \"#utility.yul\":46339:46406   */\n      tag_431\n      jump\t// in\n    tag_930:\n        /* \"#utility.yul\":46332:46406   */\n      swap2\n      pop\n        /* \"#utility.yul\":46415:46508   */\n      tag_931\n        /* \"#utility.yul\":46504:46507   */\n      dup3\n        /* \"#utility.yul\":46415:46508   */\n      tag_498\n      jump\t// in\n    tag_931:\n        /* \"#utility.yul\":46533:46535   */\n      0x20\n        /* \"#utility.yul\":46528:46531   */\n      dup3\n        /* \"#utility.yul\":46524:46536   */\n      add\n        /* \"#utility.yul\":46517:46536   */\n      swap1\n      pop\n        /* \"#utility.yul\":46176:46542   */\n      swap2\n      swap1\n      pop\n      jump\t// out\n        /* \"#utility.yul\":46548:46967   */\n    tag_359:\n        /* \"#utility.yul\":46714:46718   */\n      0x00\n        /* \"#utility.yul\":46752:46754   */\n      0x20\n        /* \"#utility.yul\":46741:46750   */\n      dup3\n        /* \"#utility.yul\":46737:46755   */\n      add\n        /* \"#utility.yul\":46729:46755   */\n      swap1\n      pop\n        /* \"#utility.yul\":46801:46810   */\n      dup2\n        /* \"#utility.yul\":46795:46799   */\n      dup2\n        /* \"#utility.yul\":46791:46811   */\n      sub\n        /* \"#utility.yul\":46787:46788   */\n      0x00\n        /* \"#utility.yul\":46776:46785   */\n      dup4\n        /* \"#utility.yul\":46772:46789   */\n      add\n        /* \"#utility.yul\":46765:46812   */\n      mstore\n        /* \"#utility.yul\":46829:46960   */\n      tag_933\n        /* \"#utility.yul\":46955:46959   */\n      dup2\n        /* \"#utility.yul\":46829:46960   */\n      tag_499\n      jump\t// in\n    tag_933:\n        /* \"#utility.yul\":46821:46960   */\n      swap1\n      pop\n        /* \"#utility.yul\":46548:46967   */\n      swap2\n      swap1\n      pop\n      jump\t// out\n        /* \"#utility.yul\":46973:47143   */\n    tag_500:\n        /* \"#utility.yul\":47113:47135   */\n      0x5061757361626c653a206e6f7420706175736564000000000000000000000000\n        /* \"#utility.yul\":47109:47110   */\n      0x00\n        /* \"#utility.yul\":47101:47107   */\n      dup3\n        /* \"#utility.yul\":47097:47111   */\n      add\n        /* \"#utility.yul\":47090:47136   */\n      mstore\n        /* \"#utility.yul\":46973:47143   */\n      pop\n      jump\t// out\n        /* \"#utility.yul\":47149:47515   */\n    tag_501:\n        /* \"#utility.yul\":47291:47294   */\n      0x00\n        /* \"#utility.yul\":47312:47379   */\n      tag_936\n        /* \"#utility.yul\":47376:47378   */\n      0x14\n        /* \"#utility.yul\":47371:47374   */\n      dup4\n        /* \"#utility.yul\":47312:47379   */\n      tag_431\n      jump\t// in\n    tag_936:\n        /* \"#utility.yul\":47305:47379   */\n      swap2\n      pop\n        /* \"#utility.yul\":47388:47481   */\n      tag_937\n        /* \"#utility.yul\":47477:47480   */\n      dup3\n        /* \"#utility.yul\":47388:47481   */\n      tag_500\n      jump\t// in\n    tag_937:\n        /* \"#utility.yul\":47506:47508   */\n      0x20\n        /* \"#utility.yul\":47501:47504   */\n      dup3\n        /* \"#utility.yul\":47497:47509   */\n      add\n        /* \"#utility.yul\":47490:47509   */\n      swap1\n      pop\n        /* \"#utility.yul\":47149:47515   */\n      swap2\n      swap1\n      pop\n      jump\t// out\n        /* \"#utility.yul\":47521:47940   */\n    tag_383:\n        /* \"#utility.yul\":47687:47691   */\n      0x00\n        /* \"#utility.yul\":47725:47727   */\n      0x20\n        /* \"#utility.yul\":47714:47723   */\n      dup3\n        /* \"#utility.yul\":47710:47728   */\n      add\n        /* \"#utility.yul\":47702:47728   */\n      swap1\n      pop\n        /* \"#utility.yul\":47774:47783   */\n      dup2\n        /* \"#utility.yul\":47768:47772   */\n      dup2\n        /* \"#utility.yul\":47764:47784   */\n      sub\n        /* \"#utility.yul\":47760:47761   */\n      0x00\n        /* \"#utility.yul\":47749:47758   */\n      dup4\n        /* \"#utility.yul\":47745:47762   */\n      add\n        /* \"#utility.yul\":47738:47785   */\n      mstore\n        /* \"#utility.yul\":47802:47933   */\n      tag_939\n        /* \"#utility.yul\":47928:47932   */\n      dup2\n        /* \"#utility.yul\":47802:47933   */\n      tag_501\n      jump\t// in\n    tag_939:\n        /* \"#utility.yul\":47794:47933   */\n      swap1\n      pop\n        /* \"#utility.yul\":47521:47940   */\n      swap2\n      swap1\n      pop\n      jump\t// out\n\n    auxdata: 0xa26469706673582212206d7f74eb09f8d8fa1d40a6d9b932f75c778febbc751ecfcd51373607a7c735d164736f6c63430008120033\n}\n",
				"bytecode": {
					"linkReferences": {},
					"object": "608060405234801561001057600080fd5b50613759806100206000396000f3fe608060405234801561001057600080fd5b50600436106101a95760003560e01c80638da5cb5b116100f9578063b33712c511610097578063cd87a3b411610071578063cd87a3b4146104bc578063dcc4dcd2146104da578063e80b885b1461050a578063f2fde38b1461053a576101a9565b8063b33712c514610466578063bf60f95414610470578063c5e4c9f9146104a0576101a9565b80639df22cd5116100d35780639df22cd5146103b85780639e34070f146103d65780639ef46d0f14610406578063af00aa9214610436576101a9565b80638da5cb5b1461033a5780638e3327fa146103585780639139153f14610388576101a9565b8063461a4478116101665780635c975abb116101405780635c975abb146102d8578063715018a6146102f65780637ae1293f146103005780638456cb5914610330576101a9565b8063461a44781461026e5780634ecf518b1461029e578063517b0dc1146102bc576101a9565b806304ac7468146101ae5780631c00464e146101ca578063299ca478146101e65780632cd4300c146102045780633c975edb1461022257806341cfc0541461023e575b600080fd5b6101c860048036038101906101c39190612029565b610556565b005b6101e460048036038101906101df9190612094565b6106c4565b005b6101ee610922565b6040516101fb9190612133565b60405180910390f35b61020c610948565b6040516102199190612167565b60405180910390f35b61023c600480360381019061023791906121ba565b610965565b005b610258600480360381019061025391906121fa565b610a62565b6040516102659190612236565b60405180910390f35b61028860048036038101906102839190612397565b610a95565b60405161029591906123ef565b60405180910390f35b6102a6610b39565b6040516102b39190612167565b60405180910390f35b6102d660048036038101906102d191906126a7565b610b3f565b005b6102e0611032565b6040516102ed91906126ff565b60405180910390f35b6102fe611049565b005b61031a6004803603810190610315919061271a565b61105d565b60405161032791906126ff565b60405180910390f35b6103386110d0565b005b6103426110e2565b60405161034f91906123ef565b60405180910390f35b610372600480360381019061036d9190612029565b61110c565b60405161037f91906126ff565b60405180910390f35b6103a2600480360381019061039d91906121fa565b611162565b6040516103af9190612236565b60405180910390f35b6103c06111cb565b6040516103cd9190612167565b60405180910390f35b6103f060048036038101906103eb919061271a565b6111d1565b6040516103fd91906126ff565b60405180910390f35b610420600480360381019061041b919061271a565b6111f1565b60405161042d9190612167565b60405180910390f35b610450600480360381019061044b9190612831565b611209565b60405161045d91906126ff565b60405180910390f35b61046e61163b565b005b61048a60048036038101906104859190612029565b61164d565b60405161049791906123ef565b60405180910390f35b6104ba60048036038101906104b591906128b6565b611680565b005b6104c461188f565b6040516104d19190612167565b60405180910390f35b6104f460048036038101906104ef9190612029565b611895565b60405161050191906126ff565b60405180910390f35b610524600480360381019061051f9190612029565b6118b5565b60405161053191906123ef565b60405180910390f35b610554600480360381019061054f91906121fa565b61191e565b005b61055e6119a1565b600060ce60008373ffffffffffffffffffffffffffffffffffffffff1673ffffffffffffffffffffffffffffffffffffffff16815260200190815260200160002060009054906101000a900473ffffffffffffffffffffffffffffffffffffffff169050600060ce60008473ffffffffffffffffffffffffffffffffffffffff1673ffffffffffffffffffffffffffffffffffffffff16815260200190815260200160002060006101000a81548173ffffffffffffffffffffffffffffffffffffffff021916908373ffffffffffffffffffffffffffffffffffffffff160217905550600060cf60008373ffffffffffffffffffffffffffffffffffffffff1673ffffffffffffffffffffffffffffffffffffffff16815260200190815260200160002060006101000a81548173ffffffffffffffffffffffffffffffffffffffff021916908373ffffffffffffffffffffffffffffffffffffffff1602179055505050565b6106cc611a1f565b6106d46119a1565b600073ffffffffffffffffffffffffffffffffffffffff1660ce60008473ffffffffffffffffffffffffffffffffffffffff1673ffffffffffffffffffffffffffffffffffffffff16815260200190815260200160002060009054906101000a900473ffffffffffffffffffffffffffffffffffffffff1673ffffffffffffffffffffffffffffffffffffffff1614806107e35750600060cf60008373ffffffffffffffffffffffffffffffffffffffff1673ffffffffffffffffffffffffffffffffffffffff16815260200190815260200160002060009054906101000a900473ffffffffffffffffffffffffffffffffffffffff1673ffffffffffffffffffffffffffffffffffffffff16145b610822576040517f08c379a000000000000000000000000000000000000000000000000000000000815260040161081990612953565b60405180910390fd5b8060ce60008473ffffffffffffffffffffffffffffffffffffffff1673ffffffffffffffffffffffffffffffffffffffff16815260200190815260200160002060006101000a81548173ffffffffffffffffffffffffffffffffffffffff021916908373ffffffffffffffffffffffffffffffffffffffff1602179055508160cf60008373ffffffffffffffffffffffffffffffffffffffff1673ffffffffffffffffffffffffffffffffffffffff16815260200190815260200160002060006101000a81548173ffffffffffffffffffffffffffffffffffffffff021916908373ffffffffffffffffffffffffffffffffffffffff1602179055505050565b600060029054906101000a900473ffffffffffffffffffffffffffffffffffffffff1681565b600060046000600354815260200190815260200160002054905090565b61096d611a1f565b6109756119a1565b80151560cd60008473ffffffffffffffffffffffffffffffffffffffff1673ffffffffffffffffffffffffffffffffffffffff16815260200190815260200160002060009054906101000a900460ff16151503610a07576040517f08c379a00000000000000000000000000000000000000000000000000000000081526004016109fe906129bf565b60405180910390fd5b8060cd60008473ffffffffffffffffffffffffffffffffffffffff1673ffffffffffffffffffffffffffffffffffffffff16815260200190815260200160002060006101000a81548160ff0219169083151502179055505050565b60cf6020528060005260406000206000915054906101000a900473ffffffffffffffffffffffffffffffffffffffff1681565b60008060029054906101000a900473ffffffffffffffffffffffffffffffffffffffff1673ffffffffffffffffffffffffffffffffffffffff1663bf40fac1836040518263ffffffff1660e01b8152600401610af19190612a4d565b602060405180830381865afa158015610b0e573d6000803e3d6000fd5b505050506040513d601f19601f82011682018060405250810190610b329190612a84565b9050919050565b60025481565b600073ffffffffffffffffffffffffffffffffffffffff1660ce60008360e0015173ffffffffffffffffffffffffffffffffffffffff1673ffffffffffffffffffffffffffffffffffffffff16815260200190815260200160002060009054906101000a900473ffffffffffffffffffffffffffffffffffffffff1673ffffffffffffffffffffffffffffffffffffffff1603610c11576040517f08c379a0000000000000000000000000000000000000000000000000000000008152600401610c0890612afd565b60405180910390fd5b3073ffffffffffffffffffffffffffffffffffffffff16816080015173ffffffffffffffffffffffffffffffffffffffff1614610c83576040517f08c379a0000000000000000000000000000000000000000000000000000000008152600401610c7a90612b8f565b60405180910390fd5b610c9181610100015161105d565b610cd0576040517f08c379a0000000000000000000000000000000000000000000000000000000008152600401610cc790612bfb565b60405180910390fd5b6000816000015190506000826020015190506000836040015190506000846060015190506000600567ffffffffffffffff811115610d1157610d1061226c565b5b604051908082528060200260200182016040528015610d3f5781602001602082028036833780820191505090505b509050856080015173ffffffffffffffffffffffffffffffffffffffff1681600081518110610d7157610d70612c1b565b5b6020026020010181815250508560a0015173ffffffffffffffffffffffffffffffffffffffff1681600181518110610dac57610dab612c1b565b5b6020026020010181815250508560c0015181600281518110610dd157610dd0612c1b565b5b6020026020010181815250508560e0015173ffffffffffffffffffffffffffffffffffffffff1681600381518110610e0c57610e0b612c1b565b5b60200260200101818152505085610100015181600481518110610e3257610e31612c1b565b5b602002602001018181525050610e4785610a95565b73ffffffffffffffffffffffffffffffffffffffff1663c32e370e858585856040518563ffffffff1660e01b8152600401610e859493929190612e8a565b602060405180830381865afa158015610ea2573d6000803e3d6000fd5b505050506040513d601f19601f82011682018060405250810190610ec69190612eed565b610f05576040517f08c379a0000000000000000000000000000000000000000000000000000000008152600401610efc90612f66565b60405180910390fd5b60ce60008760e0015173ffffffffffffffffffffffffffffffffffffffff1673ffffffffffffffffffffffffffffffffffffffff16815260200190815260200160002060009054906101000a900473ffffffffffffffffffffffffffffffffffffffff1673ffffffffffffffffffffffffffffffffffffffff166340c10f198760a001518860c001516040518363ffffffff1660e01b8152600401610fab929190612f86565b600060405180830381600087803b158015610fc557600080fd5b505af1158015610fd9573d6000803e3d6000fd5b5050505080604051610feb919061303f565b60405180910390207f4e7589f75d86eccc05b3d94910b69255d4a905f5381ec472e446718f2c460794426040516110229190612167565b60405180910390a2505050505050565b6000606960009054906101000a900460ff16905090565b6110516119a1565b61105b6000611a69565b565b600080820361106f57600090506110cb565b6000600354905060008190505b600460008281526020019081526020016000205484036110a1576001925050506110cb565b600081036110af5760015490505b80806110ba90613085565b91505081810361107c576000925050505b919050565b6110d86119a1565b6110e0611b2f565b565b6000603760009054906101000a900473ffffffffffffffffffffffffffffffffffffffff16905090565b600060cd60008373ffffffffffffffffffffffffffffffffffffffff1673ffffffffffffffffffffffffffffffffffffffff16815260200190815260200160002060009054906101000a900460ff169050919050565b600060cf60008373ffffffffffffffffffffffffffffffffffffffff1673ffffffffffffffffffffffffffffffffffffffff16815260200190815260200160002060009054906101000a900473ffffffffffffffffffffffffffffffffffffffff169050919050565b60035481565b60d06020528060005260406000206000915054906101000a900460ff1681565b60046020528060005260406000206000915090505481565b6000611213611a1f565b60cd60008360a0015173ffffffffffffffffffffffffffffffffffffffff1673ffffffffffffffffffffffffffffffffffffffff16815260200190815260200160002060009054906101000a900460ff166112a3576040517f08c379a000000000000000000000000000000000000000000000000000000000815260040161129a906130fa565b60405180910390fd5b6112e16040518060400160405280601381526020017f434f534d4f535f424c4f434b5f48454144455200000000000000000000000000815250610a95565b73ffffffffffffffffffffffffffffffffffffffff16636096ade06040518163ffffffff1660e01b8152600401602060405180830381865afa15801561132b573d6000803e3d6000fd5b505050506040513d601f19601f8201168201806040525081019061134f919061312f565b73ffffffffffffffffffffffffffffffffffffffff168260e0015173ffffffffffffffffffffffffffffffffffffffff16146113c0576040517f08c379a00000000000000000000000000000000000000000000000000000000081526004016113b7906131a8565b60405180910390fd5b6000826000015190506000836020015190506000846040015190506000856060015190506000600467ffffffffffffffff8111156114015761140061226c565b5b60405190808252806020026020018201604052801561142f5781602001602082028036833780820191505090505b509050866080015173ffffffffffffffffffffffffffffffffffffffff168160008151811061146157611460612c1b565b5b6020026020010181815250508660a0015173ffffffffffffffffffffffffffffffffffffffff168160018151811061149c5761149b612c1b565b5b6020026020010181815250508660c00151816002815181106114c1576114c0612c1b565b5b6020026020010181815250508660e0015173ffffffffffffffffffffffffffffffffffffffff16816003815181106114fc576114fb612c1b565b5b60200260200101818152505061151185610a95565b73ffffffffffffffffffffffffffffffffffffffff1663c32e370e858585856040518563ffffffff1660e01b815260040161154f9493929190612e8a565b602060405180830381865afa15801561156c573d6000803e3d6000fd5b505050506040513d601f19601f820116820180604052508101906115909190612eed565b6115cf576040517f08c379a00000000000000000000000000000000000000000000000000000000081526004016115c690612f66565b60405180910390fd5b60006115de8860c00151611b92565b9050816040516115ee919061303f565b60405180910390207fb863fd571fb24a5c7ec2e5259d558b03685336f31dcbf081507d6c4254bed305426040516116259190612167565b60405180910390a2809650505050505050919050565b6116436119a1565b61164b611bde565b565b60ce6020528060005260406000206000915054906101000a900473ffffffffffffffffffffffffffffffffffffffff1681565b60008060019054906101000a900460ff161590508080156116b15750600160008054906101000a900460ff1660ff16105b806116de57506116c030611c41565b1580156116dd5750600160008054906101000a900460ff1660ff16145b5b61171d576040517f08c379a00000000000000000000000000000000000000000000000000000000081526004016117149061323a565b60405180910390fd5b60016000806101000a81548160ff021916908360ff160217905550801561175a576001600060016101000a81548160ff0219169083151502179055505b60006002541480156117ba5750600073ffffffffffffffffffffffffffffffffffffffff16600060029054906101000a900473ffffffffffffffffffffffffffffffffffffffff1673ffffffffffffffffffffffffffffffffffffffff16145b6117f9576040517f08c379a00000000000000000000000000000000000000000000000000000000081526004016117f0906132a6565b60405180910390fd5b61180283611c64565b6118118263ffffffff16611cf7565b611819611e01565b611821611e52565b611829611eb3565b611831611f1f565b801561188a5760008060016101000a81548160ff0219169083151502179055507f7f26b83ff96e1f2b6a682f133852f6798a09c465da95921460cefb38474024986001604051611881919061330e565b60405180910390a15b505050565b60015481565b60cd6020528060005260406000206000915054906101000a900460ff1681565b600060ce60008373ffffffffffffffffffffffffffffffffffffffff1673ffffffffffffffffffffffffffffffffffffffff16815260200190815260200160002060009054906101000a900473ffffffffffffffffffffffffffffffffffffffff169050919050565b6119266119a1565b600073ffffffffffffffffffffffffffffffffffffffff168173ffffffffffffffffffffffffffffffffffffffff1603611995576040517f08c379a000000000000000000000000000000000000000000000000000000000815260040161198c9061339b565b60405180910390fd5b61199e81611a69565b50565b6119a9611f78565b73ffffffffffffffffffffffffffffffffffffffff166119c76110e2565b73ffffffffffffffffffffffffffffffffffffffff1614611a1d576040517f08c379a0000000000000000000000000000000000000000000000000000000008152600401611a1490613407565b60405180910390fd5b565b611a27611032565b15611a67576040517f08c379a0000000000000000000000000000000000000000000000000000000008152600401611a5e90613473565b60405180910390fd5b565b6000603760009054906101000a900473ffffffffffffffffffffffffffffffffffffffff16905081603760006101000a81548173ffffffffffffffffffffffffffffffffffffffff021916908373ffffffffffffffffffffffffffffffffffffffff1602179055508173ffffffffffffffffffffffffffffffffffffffff168173ffffffffffffffffffffffffffffffffffffffff167f8be0079c531659141344cd1fd0a4f28419497f9722a3daafe3b4186f6b6457e060405160405180910390a35050565b611b37611a1f565b6001606960006101000a81548160ff0219169083151502179055507f62e78cea01bee320cd4e420270b5ea74000d11b0c9f74754ebdbfc544b05a258611b7b611f78565b604051611b8891906123ef565b60405180910390a1565b6000806001546001600354611ba79190613493565b611bb191906134f6565b90508060038190555082600460006003548152602001908152602001600020819055506001915050919050565b611be6611f80565b6000606960006101000a81548160ff0219169083151502179055507f5db9ee0a495bf2e6ff9c91a7834c1ba4fdd244a5e8aa4e537bd38aeae4b073aa611c2a611f78565b604051611c3791906123ef565b60405180910390a1565b6000808273ffffffffffffffffffffffffffffffffffffffff163b119050919050565b600060019054906101000a900460ff16611cb3576040517f08c379a0000000000000000000000000000000000000000000000000000000008152600401611caa90613599565b60405180910390fd5b80600060026101000a81548173ffffffffffffffffffffffffffffffffffffffff021916908373ffffffffffffffffffffffffffffffffffffffff16021790555050565b600060019054906101000a900460ff16611d46576040517f08c379a0000000000000000000000000000000000000000000000000000000008152600401611d3d90613599565b60405180910390fd5b60008111611d89576040517f08c379a0000000000000000000000000000000000000000000000000000000008152600401611d809061362b565b60405180910390fd5b60288110611dcc576040517f08c379a0000000000000000000000000000000000000000000000000000000008152600401611dc390613697565b60405180910390fd5b80600281905550600a600181905550600060038190555060006004600060035481526020019081526020016000208190555050565b600060019054906101000a900460ff16611e50576040517f08c379a0000000000000000000000000000000000000000000000000000000008152600401611e4790613599565b60405180910390fd5b565b600060019054906101000a900460ff16611ea1576040517f08c379a0000000000000000000000000000000000000000000000000000000008152600401611e9890613599565b60405180910390fd5b611eb1611eac611f78565b611a69565b565b600060019054906101000a900460ff16611f02576040517f08c379a0000000000000000000000000000000000000000000000000000000008152600401611ef990613599565b60405180910390fd5b6000606960006101000a81548160ff021916908315150217905550565b600060019054906101000a900460ff16611f6e576040517f08c379a0000000000000000000000000000000000000000000000000000000008152600401611f6590613599565b60405180910390fd5b6001609b81905550565b600033905090565b611f88611032565b611fc7576040517f08c379a0000000000000000000000000000000000000000000000000000000008152600401611fbe90613703565b60405180910390fd5b565b6000604051905090565b600080fd5b600080fd5b600073ffffffffffffffffffffffffffffffffffffffff82169050919050565b61200681611fdd565b811461201157600080fd5b50565b60008135905061202381611ffd565b92915050565b60006020828403121561203f5761203e611fd3565b5b600061204d84828501612014565b91505092915050565b600061206182611fdd565b9050919050565b61207181612056565b811461207c57600080fd5b50565b60008135905061208e81612068565b92915050565b600080604083850312156120ab576120aa611fd3565b5b60006120b985828601612014565b92505060206120ca8582860161207f565b9150509250929050565b6000819050919050565b60006120f96120f46120ef84611fdd565b6120d4565b611fdd565b9050919050565b600061210b826120de565b9050919050565b600061211d82612100565b9050919050565b61212d81612112565b82525050565b60006020820190506121486000830184612124565b92915050565b6000819050919050565b6121618161214e565b82525050565b600060208201905061217c6000830184612158565b92915050565b60008115159050919050565b61219781612182565b81146121a257600080fd5b50565b6000813590506121b48161218e565b92915050565b600080604083850312156121d1576121d0611fd3565b5b60006121df85828601612014565b92505060206121f0858286016121a5565b9150509250929050565b6000602082840312156122105761220f611fd3565b5b600061221e8482850161207f565b91505092915050565b61223081611fdd565b82525050565b600060208201905061224b6000830184612227565b92915050565b600080fd5b600080fd5b6000601f19601f8301169050919050565b7f4e487b7100000000000000000000000000000000000000000000000000000000600052604160045260246000fd5b6122a48261225b565b810181811067ffffffffffffffff821117156122c3576122c261226c565b5b80604052505050565b60006122d6611fc9565b90506122e2828261229b565b919050565b600067ffffffffffffffff8211156123025761230161226c565b5b61230b8261225b565b9050602081019050919050565b82818337600083830152505050565b600061233a612335846122e7565b6122cc565b90508281526020810184848401111561235657612355612256565b5b612361848285612318565b509392505050565b600082601f83011261237e5761237d612251565b5b813561238e848260208601612327565b91505092915050565b6000602082840312156123ad576123ac611fd3565b5b600082013567ffffffffffffffff8111156123cb576123ca611fd8565b5b6123d784828501612369565b91505092915050565b6123e981612056565b82525050565b600060208201905061240460008301846123e0565b92915050565b600080fd5b600080fd5b600067ffffffffffffffff82111561242f5761242e61226c565b5b602082029050919050565b600080fd5b6124488161214e565b811461245357600080fd5b50565b6000813590506124658161243f565b92915050565b600061247e61247984612414565b6122cc565b905080602084028301858111156124985761249761243a565b5b835b818110156124c157806124ad8882612456565b84526020840193505060208101905061249a565b5050509392505050565b600082601f8301126124e0576124df612251565b5b60026124ed84828561246b565b91505092915050565b600067ffffffffffffffff8211156125115761251061226c565b5b602082029050919050565b600061252f61252a846124f6565b6122cc565b905080604084028301858111156125495761254861243a565b5b835b81811015612572578061255e88826124cb565b84526020840193505060408101905061254b565b5050509392505050565b600082601f83011261259157612590612251565b5b600261259e84828561251c565b91505092915050565b60006101c082840312156125be576125bd61240a565b5b6125c96101206122cc565b9050600082013567ffffffffffffffff8111156125e9576125e861240f565b5b6125f584828501612369565b6000830152506020612609848285016124cb565b602083015250606061261d8482850161257c565b60408301525060e0612631848285016124cb565b6060830152506101206126468482850161207f565b60808301525061014061265b8482850161207f565b60a08301525061016061267084828501612456565b60c08301525061018061268584828501612014565b60e0830152506101a061269a84828501612456565b6101008301525092915050565b6000602082840312156126bd576126bc611fd3565b5b600082013567ffffffffffffffff8111156126db576126da611fd8565b5b6126e7848285016125a7565b91505092915050565b6126f981612182565b82525050565b600060208201905061271460008301846126f0565b92915050565b6000602082840312156127305761272f611fd3565b5b600061273e84828501612456565b91505092915050565b60006101a0828403121561275e5761275d61240a565b5b6127696101006122cc565b9050600082013567ffffffffffffffff8111156127895761278861240f565b5b61279584828501612369565b60008301525060206127a9848285016124cb565b60208301525060606127bd8482850161257c565b60408301525060e06127d1848285016124cb565b6060830152506101206127e684828501612014565b6080830152506101406127fb84828501612014565b60a08301525061016061281084828501612456565b60c08301525061018061282584828501612014565b60e08301525092915050565b60006020828403121561284757612846611fd3565b5b600082013567ffffffffffffffff81111561286557612864611fd8565b5b61287184828501612747565b91505092915050565b600063ffffffff82169050919050565b6128938161287a565b811461289e57600080fd5b50565b6000813590506128b08161288a565b92915050565b600080604083850312156128cd576128cc611fd3565b5b60006128db8582860161207f565b92505060206128ec858286016128a1565b9150509250929050565b600082825260208201905092915050565b7f746f6b656e207761732072656769737465726564210000000000000000000000600082015250565b600061293d6015836128f6565b915061294882612907565b602082019050919050565b6000602082019050818103600083015261296c81612930565b9050919050565b7f636f736d6f73206272696467652077617320737570706f727465642100000000600082015250565b60006129a9601c836128f6565b91506129b482612973565b602082019050919050565b600060208201905081810360008301526129d88161299c565b9050919050565b600081519050919050565b60005b83811015612a085780820151818401526020810190506129ed565b60008484015250505050565b6000612a1f826129df565b612a2981856128f6565b9350612a398185602086016129ea565b612a428161225b565b840191505092915050565b60006020820190508181036000830152612a678184612a14565b905092915050565b600081519050612a7e81612068565b92915050565b600060208284031215612a9a57612a99611fd3565b5b6000612aa884828501612a6f565b91505092915050565b7f4e6f7420737570706f7274207468697320746f6b656e00000000000000000000600082015250565b6000612ae76016836128f6565b9150612af282612ab1565b602082019050919050565b60006020820190508181036000830152612b1681612ada565b9050919050565b7f54686973206272696467652069736e277420737570706f727420666f7220636c60008201527f616d6d696e6720746f6b656e0000000000000000000000000000000000000000602082015250565b6000612b79602c836128f6565b9150612b8482612b1d565b604082019050919050565b60006020820190508181036000830152612ba881612b6c565b9050919050565b7f4465706f73697420726f6f7420697320696e76616c6964000000000000000000600082015250565b6000612be56017836128f6565b9150612bf082612baf565b602082019050919050565b60006020820190508181036000830152612c1481612bd8565b9050919050565b7f4e487b7100000000000000000000000000000000000000000000000000000000600052603260045260246000fd5b600060029050919050565b600081905092915050565b6000819050919050565b612c738161214e565b82525050565b6000612c858383612c6a565b60208301905092915050565b6000602082019050919050565b612ca781612c4a565b612cb18184612c55565b9250612cbc82612c60565b8060005b83811015612ced578151612cd48782612c79565b9650612cdf83612c91565b925050600181019050612cc0565b505050505050565b600060029050919050565b600081905092915050565b6000819050919050565b600081905092915050565b612d2981612c4a565b612d338184612d15565b9250612d3e82612c60565b8060005b83811015612d6f578151612d568782612c79565b9650612d6183612c91565b925050600181019050612d42565b505050505050565b6000612d838383612d20565b60408301905092915050565b6000602082019050919050565b612da581612cf5565b612daf8184612d00565b9250612dba82612d0b565b8060005b83811015612deb578151612dd28782612d77565b9650612ddd83612d8f565b925050600181019050612dbe565b505050505050565b600081519050919050565b600082825260208201905092915050565b6000819050602082019050919050565b6000602082019050919050565b6000612e3782612df3565b612e418185612dfe565b9350612e4c83612e0f565b8060005b83811015612e7d578151612e648882612c79565b9750612e6f83612e1f565b925050600181019050612e50565b5085935050505092915050565b600061012082019050612ea06000830187612c9e565b612ead6040830186612d9c565b612eba60c0830185612c9e565b818103610100830152612ecd8184612e2c565b905095945050505050565b600081519050612ee78161218e565b92915050565b600060208284031215612f0357612f02611fd3565b5b6000612f1184828501612ed8565b91505092915050565b7f496e76616c6964206465706f736974526f6f742070726f6f6600000000000000600082015250565b6000612f506019836128f6565b9150612f5b82612f1a565b602082019050919050565b60006020820190508181036000830152612f7f81612f43565b9050919050565b6000604082019050612f9b60008301856123e0565b612fa86020830184612158565b9392505050565b600081905092915050565b612fc38161214e565b82525050565b6000612fd58383612fba565b60208301905092915050565b6000612fec82612df3565b612ff68185612faf565b935061300183612e0f565b8060005b838110156130325781516130198882612fc9565b975061302483612e1f565b925050600181019050613005565b5085935050505092915050565b600061304b8284612fe1565b915081905092915050565b7f4e487b7100000000000000000000000000000000000000000000000000000000600052601160045260246000fd5b60006130908261214e565b9150600082036130a3576130a2613056565b5b600182039050919050565b7f446f206e6f7420737570706f7274207468697320627269646765000000000000600082015250565b60006130e4601a836128f6565b91506130ef826130ae565b602082019050919050565b60006020820190508181036000830152613113816130d7565b9050919050565b60008151905061312981611ffd565b92915050565b60006020828403121561314557613144611fd3565b5b60006131538482850161311a565b91505092915050565b7f44617461206861736820697320696e76616c6964210000000000000000000000600082015250565b60006131926015836128f6565b915061319d8261315c565b602082019050919050565b600060208201905081810360008301526131c181613185565b9050919050565b7f496e697469616c697a61626c653a20636f6e747261637420697320616c72656160008201527f647920696e697469616c697a6564000000000000000000000000000000000000602082015250565b6000613224602e836128f6565b915061322f826131c8565b604082019050919050565b6000602082019050818103600083015261325381613217565b9050919050565b7f42726964676520697320616c726561647920696e697469616c697a6564000000600082015250565b6000613290601d836128f6565b915061329b8261325a565b602082019050919050565b600060208201905081810360008301526132bf81613283565b9050919050565b6000819050919050565b600060ff82169050919050565b60006132f86132f36132ee846132c6565b6120d4565b6132d0565b9050919050565b613308816132dd565b82525050565b600060208201905061332360008301846132ff565b92915050565b7f4f776e61626c653a206e6577206f776e657220697320746865207a65726f206160008201527f6464726573730000000000000000000000000000000000000000000000000000602082015250565b60006133856026836128f6565b915061339082613329565b604082019050919050565b600060208201905081810360008301526133b481613378565b9050919050565b7f4f776e61626c653a2063616c6c6572206973206e6f7420746865206f776e6572600082015250565b60006133f16020836128f6565b91506133fc826133bb565b602082019050919050565b60006020820190508181036000830152613420816133e4565b9050919050565b7f5061757361626c653a2070617573656400000000000000000000000000000000600082015250565b600061345d6010836128f6565b915061346882613427565b602082019050919050565b6000602082019050818103600083015261348c81613450565b9050919050565b600061349e8261214e565b91506134a98361214e565b92508282019050808211156134c1576134c0613056565b5b92915050565b7f4e487b7100000000000000000000000000000000000000000000000000000000600052601260045260246000fd5b60006135018261214e565b915061350c8361214e565b92508261351c5761351b6134c7565b5b828206905092915050565b7f496e697469616c697a61626c653a20636f6e7472616374206973206e6f74206960008201527f6e697469616c697a696e67000000000000000000000000000000000000000000602082015250565b6000613583602b836128f6565b915061358e82613527565b604082019050919050565b600060208201905081810360008301526135b281613576565b9050919050565b7f5f6c6576656c732073686f756c642062652067726561746572207468616e207a60008201527f65726f0000000000000000000000000000000000000000000000000000000000602082015250565b60006136156023836128f6565b9150613620826135b9565b604082019050919050565b6000602082019050818103600083015261364481613608565b9050919050565b7f5f6c6576656c732073686f756c64206265206c657373207468616e2034300000600082015250565b6000613681601e836128f6565b915061368c8261364b565b602082019050919050565b600060208201905081810360008301526136b081613674565b9050919050565b7f5061757361626c653a206e6f7420706175736564000000000000000000000000600082015250565b60006136ed6014836128f6565b91506136f8826136b7565b602082019050919050565b6000602082019050818103600083015261371c816136e0565b905091905056fea26469706673582212206d7f74eb09f8d8fa1d40a6d9b932f75c778febbc751ecfcd51373607a7c735d164736f6c63430008120033",
					"opcodes": "PUSH1 0x80 PUSH1 0x40 MSTORE CALLVALUE DUP1 ISZERO PUSH2 0x10 JUMPI PUSH1 0x0 DUP1 REVERT JUMPDEST POP PUSH2 0x3759 DUP1 PUSH2 0x20 PUSH1 0x0 CODECOPY PUSH1 0x0 RETURN INVALID PUSH1 0x80 PUSH1 0x40 MSTORE CALLVALUE DUP1 ISZERO PUSH2 0x10 JUMPI PUSH1 0x0 DUP1 REVERT JUMPDEST POP PUSH1 0x4 CALLDATASIZE LT PUSH2 0x1A9 JUMPI PUSH1 0x0 CALLDATALOAD PUSH1 0xE0 SHR DUP1 PUSH4 0x8DA5CB5B GT PUSH2 0xF9 JUMPI DUP1 PUSH4 0xB33712C5 GT PUSH2 0x97 JUMPI DUP1 PUSH4 0xCD87A3B4 GT PUSH2 0x71 JUMPI DUP1 PUSH4 0xCD87A3B4 EQ PUSH2 0x4BC JUMPI DUP1 PUSH4 0xDCC4DCD2 EQ PUSH2 0x4DA JUMPI DUP1 PUSH4 0xE80B885B EQ PUSH2 0x50A JUMPI DUP1 PUSH4 0xF2FDE38B EQ PUSH2 0x53A JUMPI PUSH2 0x1A9 JUMP JUMPDEST DUP1 PUSH4 0xB33712C5 EQ PUSH2 0x466 JUMPI DUP1 PUSH4 0xBF60F954 EQ PUSH2 0x470 JUMPI DUP1 PUSH4 0xC5E4C9F9 EQ PUSH2 0x4A0 JUMPI PUSH2 0x1A9 JUMP JUMPDEST DUP1 PUSH4 0x9DF22CD5 GT PUSH2 0xD3 JUMPI DUP1 PUSH4 0x9DF22CD5 EQ PUSH2 0x3B8 JUMPI DUP1 PUSH4 0x9E34070F EQ PUSH2 0x3D6 JUMPI DUP1 PUSH4 0x9EF46D0F EQ PUSH2 0x406 JUMPI DUP1 PUSH4 0xAF00AA92 EQ PUSH2 0x436 JUMPI PUSH2 0x1A9 JUMP JUMPDEST DUP1 PUSH4 0x8DA5CB5B EQ PUSH2 0x33A JUMPI DUP1 PUSH4 0x8E3327FA EQ PUSH2 0x358 JUMPI DUP1 PUSH4 0x9139153F EQ PUSH2 0x388 JUMPI PUSH2 0x1A9 JUMP JUMPDEST DUP1 PUSH4 0x461A4478 GT PUSH2 0x166 JUMPI DUP1 PUSH4 0x5C975ABB GT PUSH2 0x140 JUMPI DUP1 PUSH4 0x5C975ABB EQ PUSH2 0x2D8 JUMPI DUP1 PUSH4 0x715018A6 EQ PUSH2 0x2F6 JUMPI DUP1 PUSH4 0x7AE1293F EQ PUSH2 0x300 JUMPI DUP1 PUSH4 0x8456CB59 EQ PUSH2 0x330 JUMPI PUSH2 0x1A9 JUMP JUMPDEST DUP1 PUSH4 0x461A4478 EQ PUSH2 0x26E JUMPI DUP1 PUSH4 0x4ECF518B EQ PUSH2 0x29E JUMPI DUP1 PUSH4 0x517B0DC1 EQ PUSH2 0x2BC JUMPI PUSH2 0x1A9 JUMP JUMPDEST DUP1 PUSH4 0x4AC7468 EQ PUSH2 0x1AE JUMPI DUP1 PUSH4 0x1C00464E EQ PUSH2 0x1CA JUMPI DUP1 PUSH4 0x299CA478 EQ PUSH2 0x1E6 JUMPI DUP1 PUSH4 0x2CD4300C EQ PUSH2 0x204 JUMPI DUP1 PUSH4 0x3C975EDB EQ PUSH2 0x222 JUMPI DUP1 PUSH4 0x41CFC054 EQ PUSH2 0x23E JUMPI JUMPDEST PUSH1 0x0 DUP1 REVERT JUMPDEST PUSH2 0x1C8 PUSH1 0x4 DUP1 CALLDATASIZE SUB DUP2 ADD SWAP1 PUSH2 0x1C3 SWAP2 SWAP1 PUSH2 0x2029 JUMP JUMPDEST PUSH2 0x556 JUMP JUMPDEST STOP JUMPDEST PUSH2 0x1E4 PUSH1 0x4 DUP1 CALLDATASIZE SUB DUP2 ADD SWAP1 PUSH2 0x1DF SWAP2 SWAP1 PUSH2 0x2094 JUMP JUMPDEST PUSH2 0x6C4 JUMP JUMPDEST STOP JUMPDEST PUSH2 0x1EE PUSH2 0x922 JUMP JUMPDEST PUSH1 0x40 MLOAD PUSH2 0x1FB SWAP2 SWAP1 PUSH2 0x2133 JUMP JUMPDEST PUSH1 0x40 MLOAD DUP1 SWAP2 SUB SWAP1 RETURN JUMPDEST PUSH2 0x20C PUSH2 0x948 JUMP JUMPDEST PUSH1 0x40 MLOAD PUSH2 0x219 SWAP2 SWAP1 PUSH2 0x2167 JUMP JUMPDEST PUSH1 0x40 MLOAD DUP1 SWAP2 SUB SWAP1 RETURN JUMPDEST PUSH2 0x23C PUSH1 0x4 DUP1 CALLDATASIZE SUB DUP2 ADD SWAP1 PUSH2 0x237 SWAP2 SWAP1 PUSH2 0x21BA JUMP JUMPDEST PUSH2 0x965 JUMP JUMPDEST STOP JUMPDEST PUSH2 0x258 PUSH1 0x4 DUP1 CALLDATASIZE SUB DUP2 ADD SWAP1 PUSH2 0x253 SWAP2 SWAP1 PUSH2 0x21FA JUMP JUMPDEST PUSH2 0xA62 JUMP JUMPDEST PUSH1 0x40 MLOAD PUSH2 0x265 SWAP2 SWAP1 PUSH2 0x2236 JUMP JUMPDEST PUSH1 0x40 MLOAD DUP1 SWAP2 SUB SWAP1 RETURN JUMPDEST PUSH2 0x288 PUSH1 0x4 DUP1 CALLDATASIZE SUB DUP2 ADD SWAP1 PUSH2 0x283 SWAP2 SWAP1 PUSH2 0x2397 JUMP JUMPDEST PUSH2 0xA95 JUMP JUMPDEST PUSH1 0x40 MLOAD PUSH2 0x295 SWAP2 SWAP1 PUSH2 0x23EF JUMP JUMPDEST PUSH1 0x40 MLOAD DUP1 SWAP2 SUB SWAP1 RETURN JUMPDEST PUSH2 0x2A6 PUSH2 0xB39 JUMP JUMPDEST PUSH1 0x40 MLOAD PUSH2 0x2B3 SWAP2 SWAP1 PUSH2 0x2167 JUMP JUMPDEST PUSH1 0x40 MLOAD DUP1 SWAP2 SUB SWAP1 RETURN JUMPDEST PUSH2 0x2D6 PUSH1 0x4 DUP1 CALLDATASIZE SUB DUP2 ADD SWAP1 PUSH2 0x2D1 SWAP2 SWAP1 PUSH2 0x26A7 JUMP JUMPDEST PUSH2 0xB3F JUMP JUMPDEST STOP JUMPDEST PUSH2 0x2E0 PUSH2 0x1032 JUMP JUMPDEST PUSH1 0x40 MLOAD PUSH2 0x2ED SWAP2 SWAP1 PUSH2 0x26FF JUMP JUMPDEST PUSH1 0x40 MLOAD DUP1 SWAP2 SUB SWAP1 RETURN JUMPDEST PUSH2 0x2FE PUSH2 0x1049 JUMP JUMPDEST STOP JUMPDEST PUSH2 0x31A PUSH1 0x4 DUP1 CALLDATASIZE SUB DUP2 ADD SWAP1 PUSH2 0x315 SWAP2 SWAP1 PUSH2 0x271A JUMP JUMPDEST PUSH2 0x105D JUMP JUMPDEST PUSH1 0x40 MLOAD PUSH2 0x327 SWAP2 SWAP1 PUSH2 0x26FF JUMP JUMPDEST PUSH1 0x40 MLOAD DUP1 SWAP2 SUB SWAP1 RETURN JUMPDEST PUSH2 0x338 PUSH2 0x10D0 JUMP JUMPDEST STOP JUMPDEST PUSH2 0x342 PUSH2 0x10E2 JUMP JUMPDEST PUSH1 0x40 MLOAD PUSH2 0x34F SWAP2 SWAP1 PUSH2 0x23EF JUMP JUMPDEST PUSH1 0x40 MLOAD DUP1 SWAP2 SUB SWAP1 RETURN JUMPDEST PUSH2 0x372 PUSH1 0x4 DUP1 CALLDATASIZE SUB DUP2 ADD SWAP1 PUSH2 0x36D SWAP2 SWAP1 PUSH2 0x2029 JUMP JUMPDEST PUSH2 0x110C JUMP JUMPDEST PUSH1 0x40 MLOAD PUSH2 0x37F SWAP2 SWAP1 PUSH2 0x26FF JUMP JUMPDEST PUSH1 0x40 MLOAD DUP1 SWAP2 SUB SWAP1 RETURN JUMPDEST PUSH2 0x3A2 PUSH1 0x4 DUP1 CALLDATASIZE SUB DUP2 ADD SWAP1 PUSH2 0x39D SWAP2 SWAP1 PUSH2 0x21FA JUMP JUMPDEST PUSH2 0x1162 JUMP JUMPDEST PUSH1 0x40 MLOAD PUSH2 0x3AF SWAP2 SWAP1 PUSH2 0x2236 JUMP JUMPDEST PUSH1 0x40 MLOAD DUP1 SWAP2 SUB SWAP1 RETURN JUMPDEST PUSH2 0x3C0 PUSH2 0x11CB JUMP JUMPDEST PUSH1 0x40 MLOAD PUSH2 0x3CD SWAP2 SWAP1 PUSH2 0x2167 JUMP JUMPDEST PUSH1 0x40 MLOAD DUP1 SWAP2 SUB SWAP1 RETURN JUMPDEST PUSH2 0x3F0 PUSH1 0x4 DUP1 CALLDATASIZE SUB DUP2 ADD SWAP1 PUSH2 0x3EB SWAP2 SWAP1 PUSH2 0x271A JUMP JUMPDEST PUSH2 0x11D1 JUMP JUMPDEST PUSH1 0x40 MLOAD PUSH2 0x3FD SWAP2 SWAP1 PUSH2 0x26FF JUMP JUMPDEST PUSH1 0x40 MLOAD DUP1 SWAP2 SUB SWAP1 RETURN JUMPDEST PUSH2 0x420 PUSH1 0x4 DUP1 CALLDATASIZE SUB DUP2 ADD SWAP1 PUSH2 0x41B SWAP2 SWAP1 PUSH2 0x271A JUMP JUMPDEST PUSH2 0x11F1 JUMP JUMPDEST PUSH1 0x40 MLOAD PUSH2 0x42D SWAP2 SWAP1 PUSH2 0x2167 JUMP JUMPDEST PUSH1 0x40 MLOAD DUP1 SWAP2 SUB SWAP1 RETURN JUMPDEST PUSH2 0x450 PUSH1 0x4 DUP1 CALLDATASIZE SUB DUP2 ADD SWAP1 PUSH2 0x44B SWAP2 SWAP1 PUSH2 0x2831 JUMP JUMPDEST PUSH2 0x1209 JUMP JUMPDEST PUSH1 0x40 MLOAD PUSH2 0x45D SWAP2 SWAP1 PUSH2 0x26FF JUMP JUMPDEST PUSH1 0x40 MLOAD DUP1 SWAP2 SUB SWAP1 RETURN JUMPDEST PUSH2 0x46E PUSH2 0x163B JUMP JUMPDEST STOP JUMPDEST PUSH2 0x48A PUSH1 0x4 DUP1 CALLDATASIZE SUB DUP2 ADD SWAP1 PUSH2 0x485 SWAP2 SWAP1 PUSH2 0x2029 JUMP JUMPDEST PUSH2 0x164D JUMP JUMPDEST PUSH1 0x40 MLOAD PUSH2 0x497 SWAP2 SWAP1 PUSH2 0x23EF JUMP JUMPDEST PUSH1 0x40 MLOAD DUP1 SWAP2 SUB SWAP1 RETURN JUMPDEST PUSH2 0x4BA PUSH1 0x4 DUP1 CALLDATASIZE SUB DUP2 ADD SWAP1 PUSH2 0x4B5 SWAP2 SWAP1 PUSH2 0x28B6 JUMP JUMPDEST PUSH2 0x1680 JUMP JUMPDEST STOP JUMPDEST PUSH2 0x4C4 PUSH2 0x188F JUMP JUMPDEST PUSH1 0x40 MLOAD PUSH2 0x4D1 SWAP2 SWAP1 PUSH2 0x2167 JUMP JUMPDEST PUSH1 0x40 MLOAD DUP1 SWAP2 SUB SWAP1 RETURN JUMPDEST PUSH2 0x4F4 PUSH1 0x4 DUP1 CALLDATASIZE SUB DUP2 ADD SWAP1 PUSH2 0x4EF SWAP2 SWAP1 PUSH2 0x2029 JUMP JUMPDEST PUSH2 0x1895 JUMP JUMPDEST PUSH1 0x40 MLOAD PUSH2 0x501 SWAP2 SWAP1 PUSH2 0x26FF JUMP JUMPDEST PUSH1 0x40 MLOAD DUP1 SWAP2 SUB SWAP1 RETURN JUMPDEST PUSH2 0x524 PUSH1 0x4 DUP1 CALLDATASIZE SUB DUP2 ADD SWAP1 PUSH2 0x51F SWAP2 SWAP1 PUSH2 0x2029 JUMP JUMPDEST PUSH2 0x18B5 JUMP JUMPDEST PUSH1 0x40 MLOAD PUSH2 0x531 SWAP2 SWAP1 PUSH2 0x23EF JUMP JUMPDEST PUSH1 0x40 MLOAD DUP1 SWAP2 SUB SWAP1 RETURN JUMPDEST PUSH2 0x554 PUSH1 0x4 DUP1 CALLDATASIZE SUB DUP2 ADD SWAP1 PUSH2 0x54F SWAP2 SWAP1 PUSH2 0x21FA JUMP JUMPDEST PUSH2 0x191E JUMP JUMPDEST STOP JUMPDEST PUSH2 0x55E PUSH2 0x19A1 JUMP JUMPDEST PUSH1 0x0 PUSH1 0xCE PUSH1 0x0 DUP4 PUSH20 0xFFFFFFFFFFFFFFFFFFFFFFFFFFFFFFFFFFFFFFFF AND PUSH20 0xFFFFFFFFFFFFFFFFFFFFFFFFFFFFFFFFFFFFFFFF AND DUP2 MSTORE PUSH1 0x20 ADD SWAP1 DUP2 MSTORE PUSH1 0x20 ADD PUSH1 0x0 KECCAK256 PUSH1 0x0 SWAP1 SLOAD SWAP1 PUSH2 0x100 EXP SWAP1 DIV PUSH20 0xFFFFFFFFFFFFFFFFFFFFFFFFFFFFFFFFFFFFFFFF AND SWAP1 POP PUSH1 0x0 PUSH1 0xCE PUSH1 0x0 DUP5 PUSH20 0xFFFFFFFFFFFFFFFFFFFFFFFFFFFFFFFFFFFFFFFF AND PUSH20 0xFFFFFFFFFFFFFFFFFFFFFFFFFFFFFFFFFFFFFFFF AND DUP2 MSTORE PUSH1 0x20 ADD SWAP1 DUP2 MSTORE PUSH1 0x20 ADD PUSH1 0x0 KECCAK256 PUSH1 0x0 PUSH2 0x100 EXP DUP2 SLOAD DUP2 PUSH20 0xFFFFFFFFFFFFFFFFFFFFFFFFFFFFFFFFFFFFFFFF MUL NOT AND SWAP1 DUP4 PUSH20 0xFFFFFFFFFFFFFFFFFFFFFFFFFFFFFFFFFFFFFFFF AND MUL OR SWAP1 SSTORE POP PUSH1 0x0 PUSH1 0xCF PUSH1 0x0 DUP4 PUSH20 0xFFFFFFFFFFFFFFFFFFFFFFFFFFFFFFFFFFFFFFFF AND PUSH20 0xFFFFFFFFFFFFFFFFFFFFFFFFFFFFFFFFFFFFFFFF AND DUP2 MSTORE PUSH1 0x20 ADD SWAP1 DUP2 MSTORE PUSH1 0x20 ADD PUSH1 0x0 KECCAK256 PUSH1 0x0 PUSH2 0x100 EXP DUP2 SLOAD DUP2 PUSH20 0xFFFFFFFFFFFFFFFFFFFFFFFFFFFFFFFFFFFFFFFF MUL NOT AND SWAP1 DUP4 PUSH20 0xFFFFFFFFFFFFFFFFFFFFFFFFFFFFFFFFFFFFFFFF AND MUL OR SWAP1 SSTORE POP POP POP JUMP JUMPDEST PUSH2 0x6CC PUSH2 0x1A1F JUMP JUMPDEST PUSH2 0x6D4 PUSH2 0x19A1 JUMP JUMPDEST PUSH1 0x0 PUSH20 0xFFFFFFFFFFFFFFFFFFFFFFFFFFFFFFFFFFFFFFFF AND PUSH1 0xCE PUSH1 0x0 DUP5 PUSH20 0xFFFFFFFFFFFFFFFFFFFFFFFFFFFFFFFFFFFFFFFF AND PUSH20 0xFFFFFFFFFFFFFFFFFFFFFFFFFFFFFFFFFFFFFFFF AND DUP2 MSTORE PUSH1 0x20 ADD SWAP1 DUP2 MSTORE PUSH1 0x20 ADD PUSH1 0x0 KECCAK256 PUSH1 0x0 SWAP1 SLOAD SWAP1 PUSH2 0x100 EXP SWAP1 DIV PUSH20 0xFFFFFFFFFFFFFFFFFFFFFFFFFFFFFFFFFFFFFFFF AND PUSH20 0xFFFFFFFFFFFFFFFFFFFFFFFFFFFFFFFFFFFFFFFF AND EQ DUP1 PUSH2 0x7E3 JUMPI POP PUSH1 0x0 PUSH1 0xCF PUSH1 0x0 DUP4 PUSH20 0xFFFFFFFFFFFFFFFFFFFFFFFFFFFFFFFFFFFFFFFF AND PUSH20 0xFFFFFFFFFFFFFFFFFFFFFFFFFFFFFFFFFFFFFFFF AND DUP2 MSTORE PUSH1 0x20 ADD SWAP1 DUP2 MSTORE PUSH1 0x20 ADD PUSH1 0x0 KECCAK256 PUSH1 0x0 SWAP1 SLOAD SWAP1 PUSH2 0x100 EXP SWAP1 DIV PUSH20 0xFFFFFFFFFFFFFFFFFFFFFFFFFFFFFFFFFFFFFFFF AND PUSH20 0xFFFFFFFFFFFFFFFFFFFFFFFFFFFFFFFFFFFFFFFF AND EQ JUMPDEST PUSH2 0x822 JUMPI PUSH1 0x40 MLOAD PUSH32 0x8C379A000000000000000000000000000000000000000000000000000000000 DUP2 MSTORE PUSH1 0x4 ADD PUSH2 0x819 SWAP1 PUSH2 0x2953 JUMP JUMPDEST PUSH1 0x40 MLOAD DUP1 SWAP2 SUB SWAP1 REVERT JUMPDEST DUP1 PUSH1 0xCE PUSH1 0x0 DUP5 PUSH20 0xFFFFFFFFFFFFFFFFFFFFFFFFFFFFFFFFFFFFFFFF AND PUSH20 0xFFFFFFFFFFFFFFFFFFFFFFFFFFFFFFFFFFFFFFFF AND DUP2 MSTORE PUSH1 0x20 ADD SWAP1 DUP2 MSTORE PUSH1 0x20 ADD PUSH1 0x0 KECCAK256 PUSH1 0x0 PUSH2 0x100 EXP DUP2 SLOAD DUP2 PUSH20 0xFFFFFFFFFFFFFFFFFFFFFFFFFFFFFFFFFFFFFFFF MUL NOT AND SWAP1 DUP4 PUSH20 0xFFFFFFFFFFFFFFFFFFFFFFFFFFFFFFFFFFFFFFFF AND MUL OR SWAP1 SSTORE POP DUP2 PUSH1 0xCF PUSH1 0x0 DUP4 PUSH20 0xFFFFFFFFFFFFFFFFFFFFFFFFFFFFFFFFFFFFFFFF AND PUSH20 0xFFFFFFFFFFFFFFFFFFFFFFFFFFFFFFFFFFFFFFFF AND DUP2 MSTORE PUSH1 0x20 ADD SWAP1 DUP2 MSTORE PUSH1 0x20 ADD PUSH1 0x0 KECCAK256 PUSH1 0x0 PUSH2 0x100 EXP DUP2 SLOAD DUP2 PUSH20 0xFFFFFFFFFFFFFFFFFFFFFFFFFFFFFFFFFFFFFFFF MUL NOT AND SWAP1 DUP4 PUSH20 0xFFFFFFFFFFFFFFFFFFFFFFFFFFFFFFFFFFFFFFFF AND MUL OR SWAP1 SSTORE POP POP POP JUMP JUMPDEST PUSH1 0x0 PUSH1 0x2 SWAP1 SLOAD SWAP1 PUSH2 0x100 EXP SWAP1 DIV PUSH20 0xFFFFFFFFFFFFFFFFFFFFFFFFFFFFFFFFFFFFFFFF AND DUP2 JUMP JUMPDEST PUSH1 0x0 PUSH1 0x4 PUSH1 0x0 PUSH1 0x3 SLOAD DUP2 MSTORE PUSH1 0x20 ADD SWAP1 DUP2 MSTORE PUSH1 0x20 ADD PUSH1 0x0 KECCAK256 SLOAD SWAP1 POP SWAP1 JUMP JUMPDEST PUSH2 0x96D PUSH2 0x1A1F JUMP JUMPDEST PUSH2 0x975 PUSH2 0x19A1 JUMP JUMPDEST DUP1 ISZERO ISZERO PUSH1 0xCD PUSH1 0x0 DUP5 PUSH20 0xFFFFFFFFFFFFFFFFFFFFFFFFFFFFFFFFFFFFFFFF AND PUSH20 0xFFFFFFFFFFFFFFFFFFFFFFFFFFFFFFFFFFFFFFFF AND DUP2 MSTORE PUSH1 0x20 ADD SWAP1 DUP2 MSTORE PUSH1 0x20 ADD PUSH1 0x0 KECCAK256 PUSH1 0x0 SWAP1 SLOAD SWAP1 PUSH2 0x100 EXP SWAP1 DIV PUSH1 0xFF AND ISZERO ISZERO SUB PUSH2 0xA07 JUMPI PUSH1 0x40 MLOAD PUSH32 0x8C379A000000000000000000000000000000000000000000000000000000000 DUP2 MSTORE PUSH1 0x4 ADD PUSH2 0x9FE SWAP1 PUSH2 0x29BF JUMP JUMPDEST PUSH1 0x40 MLOAD DUP1 SWAP2 SUB SWAP1 REVERT JUMPDEST DUP1 PUSH1 0xCD PUSH1 0x0 DUP5 PUSH20 0xFFFFFFFFFFFFFFFFFFFFFFFFFFFFFFFFFFFFFFFF AND PUSH20 0xFFFFFFFFFFFFFFFFFFFFFFFFFFFFFFFFFFFFFFFF AND DUP2 MSTORE PUSH1 0x20 ADD SWAP1 DUP2 MSTORE PUSH1 0x20 ADD PUSH1 0x0 KECCAK256 PUSH1 0x0 PUSH2 0x100 EXP DUP2 SLOAD DUP2 PUSH1 0xFF MUL NOT AND SWAP1 DUP4 ISZERO ISZERO MUL OR SWAP1 SSTORE POP POP POP JUMP JUMPDEST PUSH1 0xCF PUSH1 0x20 MSTORE DUP1 PUSH1 0x0 MSTORE PUSH1 0x40 PUSH1 0x0 KECCAK256 PUSH1 0x0 SWAP2 POP SLOAD SWAP1 PUSH2 0x100 EXP SWAP1 DIV PUSH20 0xFFFFFFFFFFFFFFFFFFFFFFFFFFFFFFFFFFFFFFFF AND DUP2 JUMP JUMPDEST PUSH1 0x0 DUP1 PUSH1 0x2 SWAP1 SLOAD SWAP1 PUSH2 0x100 EXP SWAP1 DIV PUSH20 0xFFFFFFFFFFFFFFFFFFFFFFFFFFFFFFFFFFFFFFFF AND PUSH20 0xFFFFFFFFFFFFFFFFFFFFFFFFFFFFFFFFFFFFFFFF AND PUSH4 0xBF40FAC1 DUP4 PUSH1 0x40 MLOAD DUP3 PUSH4 0xFFFFFFFF AND PUSH1 0xE0 SHL DUP2 MSTORE PUSH1 0x4 ADD PUSH2 0xAF1 SWAP2 SWAP1 PUSH2 0x2A4D JUMP JUMPDEST PUSH1 0x20 PUSH1 0x40 MLOAD DUP1 DUP4 SUB DUP2 DUP7 GAS STATICCALL ISZERO DUP1 ISZERO PUSH2 0xB0E JUMPI RETURNDATASIZE PUSH1 0x0 DUP1 RETURNDATACOPY RETURNDATASIZE PUSH1 0x0 REVERT JUMPDEST POP POP POP POP PUSH1 0x40 MLOAD RETURNDATASIZE PUSH1 0x1F NOT PUSH1 0x1F DUP3 ADD AND DUP3 ADD DUP1 PUSH1 0x40 MSTORE POP DUP2 ADD SWAP1 PUSH2 0xB32 SWAP2 SWAP1 PUSH2 0x2A84 JUMP JUMPDEST SWAP1 POP SWAP2 SWAP1 POP JUMP JUMPDEST PUSH1 0x2 SLOAD DUP2 JUMP JUMPDEST PUSH1 0x0 PUSH20 0xFFFFFFFFFFFFFFFFFFFFFFFFFFFFFFFFFFFFFFFF AND PUSH1 0xCE PUSH1 0x0 DUP4 PUSH1 0xE0 ADD MLOAD PUSH20 0xFFFFFFFFFFFFFFFFFFFFFFFFFFFFFFFFFFFFFFFF AND PUSH20 0xFFFFFFFFFFFFFFFFFFFFFFFFFFFFFFFFFFFFFFFF AND DUP2 MSTORE PUSH1 0x20 ADD SWAP1 DUP2 MSTORE PUSH1 0x20 ADD PUSH1 0x0 KECCAK256 PUSH1 0x0 SWAP1 SLOAD SWAP1 PUSH2 0x100 EXP SWAP1 DIV PUSH20 0xFFFFFFFFFFFFFFFFFFFFFFFFFFFFFFFFFFFFFFFF AND PUSH20 0xFFFFFFFFFFFFFFFFFFFFFFFFFFFFFFFFFFFFFFFF AND SUB PUSH2 0xC11 JUMPI PUSH1 0x40 MLOAD PUSH32 0x8C379A000000000000000000000000000000000000000000000000000000000 DUP2 MSTORE PUSH1 0x4 ADD PUSH2 0xC08 SWAP1 PUSH2 0x2AFD JUMP JUMPDEST PUSH1 0x40 MLOAD DUP1 SWAP2 SUB SWAP1 REVERT JUMPDEST ADDRESS PUSH20 0xFFFFFFFFFFFFFFFFFFFFFFFFFFFFFFFFFFFFFFFF AND DUP2 PUSH1 0x80 ADD MLOAD PUSH20 0xFFFFFFFFFFFFFFFFFFFFFFFFFFFFFFFFFFFFFFFF AND EQ PUSH2 0xC83 JUMPI PUSH1 0x40 MLOAD PUSH32 0x8C379A000000000000000000000000000000000000000000000000000000000 DUP2 MSTORE PUSH1 0x4 ADD PUSH2 0xC7A SWAP1 PUSH2 0x2B8F JUMP JUMPDEST PUSH1 0x40 MLOAD DUP1 SWAP2 SUB SWAP1 REVERT JUMPDEST PUSH2 0xC91 DUP2 PUSH2 0x100 ADD MLOAD PUSH2 0x105D JUMP JUMPDEST PUSH2 0xCD0 JUMPI PUSH1 0x40 MLOAD PUSH32 0x8C379A000000000000000000000000000000000000000000000000000000000 DUP2 MSTORE PUSH1 0x4 ADD PUSH2 0xCC7 SWAP1 PUSH2 0x2BFB JUMP JUMPDEST PUSH1 0x40 MLOAD DUP1 SWAP2 SUB SWAP1 REVERT JUMPDEST PUSH1 0x0 DUP2 PUSH1 0x0 ADD MLOAD SWAP1 POP PUSH1 0x0 DUP3 PUSH1 0x20 ADD MLOAD SWAP1 POP PUSH1 0x0 DUP4 PUSH1 0x40 ADD MLOAD SWAP1 POP PUSH1 0x0 DUP5 PUSH1 0x60 ADD MLOAD SWAP1 POP PUSH1 0x0 PUSH1 0x5 PUSH8 0xFFFFFFFFFFFFFFFF DUP2 GT ISZERO PUSH2 0xD11 JUMPI PUSH2 0xD10 PUSH2 0x226C JUMP JUMPDEST JUMPDEST PUSH1 0x40 MLOAD SWAP1 DUP1 DUP3 MSTORE DUP1 PUSH1 0x20 MUL PUSH1 0x20 ADD DUP3 ADD PUSH1 0x40 MSTORE DUP1 ISZERO PUSH2 0xD3F JUMPI DUP2 PUSH1 0x20 ADD PUSH1 0x20 DUP3 MUL DUP1 CALLDATASIZE DUP4 CALLDATACOPY DUP1 DUP3 ADD SWAP2 POP POP SWAP1 POP JUMPDEST POP SWAP1 POP DUP6 PUSH1 0x80 ADD MLOAD PUSH20 0xFFFFFFFFFFFFFFFFFFFFFFFFFFFFFFFFFFFFFFFF AND DUP2 PUSH1 0x0 DUP2 MLOAD DUP2 LT PUSH2 0xD71 JUMPI PUSH2 0xD70 PUSH2 0x2C1B JUMP JUMPDEST JUMPDEST PUSH1 0x20 MUL PUSH1 0x20 ADD ADD DUP2 DUP2 MSTORE POP POP DUP6 PUSH1 0xA0 ADD MLOAD PUSH20 0xFFFFFFFFFFFFFFFFFFFFFFFFFFFFFFFFFFFFFFFF AND DUP2 PUSH1 0x1 DUP2 MLOAD DUP2 LT PUSH2 0xDAC JUMPI PUSH2 0xDAB PUSH2 0x2C1B JUMP JUMPDEST JUMPDEST PUSH1 0x20 MUL PUSH1 0x20 ADD ADD DUP2 DUP2 MSTORE POP POP DUP6 PUSH1 0xC0 ADD MLOAD DUP2 PUSH1 0x2 DUP2 MLOAD DUP2 LT PUSH2 0xDD1 JUMPI PUSH2 0xDD0 PUSH2 0x2C1B JUMP JUMPDEST JUMPDEST PUSH1 0x20 MUL PUSH1 0x20 ADD ADD DUP2 DUP2 MSTORE POP POP DUP6 PUSH1 0xE0 ADD MLOAD PUSH20 0xFFFFFFFFFFFFFFFFFFFFFFFFFFFFFFFFFFFFFFFF AND DUP2 PUSH1 0x3 DUP2 MLOAD DUP2 LT PUSH2 0xE0C JUMPI PUSH2 0xE0B PUSH2 0x2C1B JUMP JUMPDEST JUMPDEST PUSH1 0x20 MUL PUSH1 0x20 ADD ADD DUP2 DUP2 MSTORE POP POP DUP6 PUSH2 0x100 ADD MLOAD DUP2 PUSH1 0x4 DUP2 MLOAD DUP2 LT PUSH2 0xE32 JUMPI PUSH2 0xE31 PUSH2 0x2C1B JUMP JUMPDEST JUMPDEST PUSH1 0x20 MUL PUSH1 0x20 ADD ADD DUP2 DUP2 MSTORE POP POP PUSH2 0xE47 DUP6 PUSH2 0xA95 JUMP JUMPDEST PUSH20 0xFFFFFFFFFFFFFFFFFFFFFFFFFFFFFFFFFFFFFFFF AND PUSH4 0xC32E370E DUP6 DUP6 DUP6 DUP6 PUSH1 0x40 MLOAD DUP6 PUSH4 0xFFFFFFFF AND PUSH1 0xE0 SHL DUP2 MSTORE PUSH1 0x4 ADD PUSH2 0xE85 SWAP5 SWAP4 SWAP3 SWAP2 SWAP1 PUSH2 0x2E8A JUMP JUMPDEST PUSH1 0x20 PUSH1 0x40 MLOAD DUP1 DUP4 SUB DUP2 DUP7 GAS STATICCALL ISZERO DUP1 ISZERO PUSH2 0xEA2 JUMPI RETURNDATASIZE PUSH1 0x0 DUP1 RETURNDATACOPY RETURNDATASIZE PUSH1 0x0 REVERT JUMPDEST POP POP POP POP PUSH1 0x40 MLOAD RETURNDATASIZE PUSH1 0x1F NOT PUSH1 0x1F DUP3 ADD AND DUP3 ADD DUP1 PUSH1 0x40 MSTORE POP DUP2 ADD SWAP1 PUSH2 0xEC6 SWAP2 SWAP1 PUSH2 0x2EED JUMP JUMPDEST PUSH2 0xF05 JUMPI PUSH1 0x40 MLOAD PUSH32 0x8C379A000000000000000000000000000000000000000000000000000000000 DUP2 MSTORE PUSH1 0x4 ADD PUSH2 0xEFC SWAP1 PUSH2 0x2F66 JUMP JUMPDEST PUSH1 0x40 MLOAD DUP1 SWAP2 SUB SWAP1 REVERT JUMPDEST PUSH1 0xCE PUSH1 0x0 DUP8 PUSH1 0xE0 ADD MLOAD PUSH20 0xFFFFFFFFFFFFFFFFFFFFFFFFFFFFFFFFFFFFFFFF AND PUSH20 0xFFFFFFFFFFFFFFFFFFFFFFFFFFFFFFFFFFFFFFFF AND DUP2 MSTORE PUSH1 0x20 ADD SWAP1 DUP2 MSTORE PUSH1 0x20 ADD PUSH1 0x0 KECCAK256 PUSH1 0x0 SWAP1 SLOAD SWAP1 PUSH2 0x100 EXP SWAP1 DIV PUSH20 0xFFFFFFFFFFFFFFFFFFFFFFFFFFFFFFFFFFFFFFFF AND PUSH20 0xFFFFFFFFFFFFFFFFFFFFFFFFFFFFFFFFFFFFFFFF AND PUSH4 0x40C10F19 DUP8 PUSH1 0xA0 ADD MLOAD DUP9 PUSH1 0xC0 ADD MLOAD PUSH1 0x40 MLOAD DUP4 PUSH4 0xFFFFFFFF AND PUSH1 0xE0 SHL DUP2 MSTORE PUSH1 0x4 ADD PUSH2 0xFAB SWAP3 SWAP2 SWAP1 PUSH2 0x2F86 JUMP JUMPDEST PUSH1 0x0 PUSH1 0x40 MLOAD DUP1 DUP4 SUB DUP2 PUSH1 0x0 DUP8 DUP1 EXTCODESIZE ISZERO DUP1 ISZERO PUSH2 0xFC5 JUMPI PUSH1 0x0 DUP1 REVERT JUMPDEST POP GAS CALL ISZERO DUP1 ISZERO PUSH2 0xFD9 JUMPI RETURNDATASIZE PUSH1 0x0 DUP1 RETURNDATACOPY RETURNDATASIZE PUSH1 0x0 REVERT JUMPDEST POP POP POP POP DUP1 PUSH1 0x40 MLOAD PUSH2 0xFEB SWAP2 SWAP1 PUSH2 0x303F JUMP JUMPDEST PUSH1 0x40 MLOAD DUP1 SWAP2 SUB SWAP1 KECCAK256 PUSH32 0x4E7589F75D86ECCC05B3D94910B69255D4A905F5381EC472E446718F2C460794 TIMESTAMP PUSH1 0x40 MLOAD PUSH2 0x1022 SWAP2 SWAP1 PUSH2 0x2167 JUMP JUMPDEST PUSH1 0x40 MLOAD DUP1 SWAP2 SUB SWAP1 LOG2 POP POP POP POP POP POP JUMP JUMPDEST PUSH1 0x0 PUSH1 0x69 PUSH1 0x0 SWAP1 SLOAD SWAP1 PUSH2 0x100 EXP SWAP1 DIV PUSH1 0xFF AND SWAP1 POP SWAP1 JUMP JUMPDEST PUSH2 0x1051 PUSH2 0x19A1 JUMP JUMPDEST PUSH2 0x105B PUSH1 0x0 PUSH2 0x1A69 JUMP JUMPDEST JUMP JUMPDEST PUSH1 0x0 DUP1 DUP3 SUB PUSH2 0x106F JUMPI PUSH1 0x0 SWAP1 POP PUSH2 0x10CB JUMP JUMPDEST PUSH1 0x0 PUSH1 0x3 SLOAD SWAP1 POP PUSH1 0x0 DUP2 SWAP1 POP JUMPDEST PUSH1 0x4 PUSH1 0x0 DUP3 DUP2 MSTORE PUSH1 0x20 ADD SWAP1 DUP2 MSTORE PUSH1 0x20 ADD PUSH1 0x0 KECCAK256 SLOAD DUP5 SUB PUSH2 0x10A1 JUMPI PUSH1 0x1 SWAP3 POP POP POP PUSH2 0x10CB JUMP JUMPDEST PUSH1 0x0 DUP2 SUB PUSH2 0x10AF JUMPI PUSH1 0x1 SLOAD SWAP1 POP JUMPDEST DUP1 DUP1 PUSH2 0x10BA SWAP1 PUSH2 0x3085 JUMP JUMPDEST SWAP2 POP POP DUP2 DUP2 SUB PUSH2 0x107C JUMPI PUSH1 0x0 SWAP3 POP POP POP JUMPDEST SWAP2 SWAP1 POP JUMP JUMPDEST PUSH2 0x10D8 PUSH2 0x19A1 JUMP JUMPDEST PUSH2 0x10E0 PUSH2 0x1B2F JUMP JUMPDEST JUMP JUMPDEST PUSH1 0x0 PUSH1 0x37 PUSH1 0x0 SWAP1 SLOAD SWAP1 PUSH2 0x100 EXP SWAP1 DIV PUSH20 0xFFFFFFFFFFFFFFFFFFFFFFFFFFFFFFFFFFFFFFFF AND SWAP1 POP SWAP1 JUMP JUMPDEST PUSH1 0x0 PUSH1 0xCD PUSH1 0x0 DUP4 PUSH20 0xFFFFFFFFFFFFFFFFFFFFFFFFFFFFFFFFFFFFFFFF AND PUSH20 0xFFFFFFFFFFFFFFFFFFFFFFFFFFFFFFFFFFFFFFFF AND DUP2 MSTORE PUSH1 0x20 ADD SWAP1 DUP2 MSTORE PUSH1 0x20 ADD PUSH1 0x0 KECCAK256 PUSH1 0x0 SWAP1 SLOAD SWAP1 PUSH2 0x100 EXP SWAP1 DIV PUSH1 0xFF AND SWAP1 POP SWAP2 SWAP1 POP JUMP JUMPDEST PUSH1 0x0 PUSH1 0xCF PUSH1 0x0 DUP4 PUSH20 0xFFFFFFFFFFFFFFFFFFFFFFFFFFFFFFFFFFFFFFFF AND PUSH20 0xFFFFFFFFFFFFFFFFFFFFFFFFFFFFFFFFFFFFFFFF AND DUP2 MSTORE PUSH1 0x20 ADD SWAP1 DUP2 MSTORE PUSH1 0x20 ADD PUSH1 0x0 KECCAK256 PUSH1 0x0 SWAP1 SLOAD SWAP1 PUSH2 0x100 EXP SWAP1 DIV PUSH20 0xFFFFFFFFFFFFFFFFFFFFFFFFFFFFFFFFFFFFFFFF AND SWAP1 POP SWAP2 SWAP1 POP JUMP JUMPDEST PUSH1 0x3 SLOAD DUP2 JUMP JUMPDEST PUSH1 0xD0 PUSH1 0x20 MSTORE DUP1 PUSH1 0x0 MSTORE PUSH1 0x40 PUSH1 0x0 KECCAK256 PUSH1 0x0 SWAP2 POP SLOAD SWAP1 PUSH2 0x100 EXP SWAP1 DIV PUSH1 0xFF AND DUP2 JUMP JUMPDEST PUSH1 0x4 PUSH1 0x20 MSTORE DUP1 PUSH1 0x0 MSTORE PUSH1 0x40 PUSH1 0x0 KECCAK256 PUSH1 0x0 SWAP2 POP SWAP1 POP SLOAD DUP2 JUMP JUMPDEST PUSH1 0x0 PUSH2 0x1213 PUSH2 0x1A1F JUMP JUMPDEST PUSH1 0xCD PUSH1 0x0 DUP4 PUSH1 0xA0 ADD MLOAD PUSH20 0xFFFFFFFFFFFFFFFFFFFFFFFFFFFFFFFFFFFFFFFF AND PUSH20 0xFFFFFFFFFFFFFFFFFFFFFFFFFFFFFFFFFFFFFFFF AND DUP2 MSTORE PUSH1 0x20 ADD SWAP1 DUP2 MSTORE PUSH1 0x20 ADD PUSH1 0x0 KECCAK256 PUSH1 0x0 SWAP1 SLOAD SWAP1 PUSH2 0x100 EXP SWAP1 DIV PUSH1 0xFF AND PUSH2 0x12A3 JUMPI PUSH1 0x40 MLOAD PUSH32 0x8C379A000000000000000000000000000000000000000000000000000000000 DUP2 MSTORE PUSH1 0x4 ADD PUSH2 0x129A SWAP1 PUSH2 0x30FA JUMP JUMPDEST PUSH1 0x40 MLOAD DUP1 SWAP2 SUB SWAP1 REVERT JUMPDEST PUSH2 0x12E1 PUSH1 0x40 MLOAD DUP1 PUSH1 0x40 ADD PUSH1 0x40 MSTORE DUP1 PUSH1 0x13 DUP2 MSTORE PUSH1 0x20 ADD PUSH32 0x434F534D4F535F424C4F434B5F48454144455200000000000000000000000000 DUP2 MSTORE POP PUSH2 0xA95 JUMP JUMPDEST PUSH20 0xFFFFFFFFFFFFFFFFFFFFFFFFFFFFFFFFFFFFFFFF AND PUSH4 0x6096ADE0 PUSH1 0x40 MLOAD DUP2 PUSH4 0xFFFFFFFF AND PUSH1 0xE0 SHL DUP2 MSTORE PUSH1 0x4 ADD PUSH1 0x20 PUSH1 0x40 MLOAD DUP1 DUP4 SUB DUP2 DUP7 GAS STATICCALL ISZERO DUP1 ISZERO PUSH2 0x132B JUMPI RETURNDATASIZE PUSH1 0x0 DUP1 RETURNDATACOPY RETURNDATASIZE PUSH1 0x0 REVERT JUMPDEST POP POP POP POP PUSH1 0x40 MLOAD RETURNDATASIZE PUSH1 0x1F NOT PUSH1 0x1F DUP3 ADD AND DUP3 ADD DUP1 PUSH1 0x40 MSTORE POP DUP2 ADD SWAP1 PUSH2 0x134F SWAP2 SWAP1 PUSH2 0x312F JUMP JUMPDEST PUSH20 0xFFFFFFFFFFFFFFFFFFFFFFFFFFFFFFFFFFFFFFFF AND DUP3 PUSH1 0xE0 ADD MLOAD PUSH20 0xFFFFFFFFFFFFFFFFFFFFFFFFFFFFFFFFFFFFFFFF AND EQ PUSH2 0x13C0 JUMPI PUSH1 0x40 MLOAD PUSH32 0x8C379A000000000000000000000000000000000000000000000000000000000 DUP2 MSTORE PUSH1 0x4 ADD PUSH2 0x13B7 SWAP1 PUSH2 0x31A8 JUMP JUMPDEST PUSH1 0x40 MLOAD DUP1 SWAP2 SUB SWAP1 REVERT JUMPDEST PUSH1 0x0 DUP3 PUSH1 0x0 ADD MLOAD SWAP1 POP PUSH1 0x0 DUP4 PUSH1 0x20 ADD MLOAD SWAP1 POP PUSH1 0x0 DUP5 PUSH1 0x40 ADD MLOAD SWAP1 POP PUSH1 0x0 DUP6 PUSH1 0x60 ADD MLOAD SWAP1 POP PUSH1 0x0 PUSH1 0x4 PUSH8 0xFFFFFFFFFFFFFFFF DUP2 GT ISZERO PUSH2 0x1401 JUMPI PUSH2 0x1400 PUSH2 0x226C JUMP JUMPDEST JUMPDEST PUSH1 0x40 MLOAD SWAP1 DUP1 DUP3 MSTORE DUP1 PUSH1 0x20 MUL PUSH1 0x20 ADD DUP3 ADD PUSH1 0x40 MSTORE DUP1 ISZERO PUSH2 0x142F JUMPI DUP2 PUSH1 0x20 ADD PUSH1 0x20 DUP3 MUL DUP1 CALLDATASIZE DUP4 CALLDATACOPY DUP1 DUP3 ADD SWAP2 POP POP SWAP1 POP JUMPDEST POP SWAP1 POP DUP7 PUSH1 0x80 ADD MLOAD PUSH20 0xFFFFFFFFFFFFFFFFFFFFFFFFFFFFFFFFFFFFFFFF AND DUP2 PUSH1 0x0 DUP2 MLOAD DUP2 LT PUSH2 0x1461 JUMPI PUSH2 0x1460 PUSH2 0x2C1B JUMP JUMPDEST JUMPDEST PUSH1 0x20 MUL PUSH1 0x20 ADD ADD DUP2 DUP2 MSTORE POP POP DUP7 PUSH1 0xA0 ADD MLOAD PUSH20 0xFFFFFFFFFFFFFFFFFFFFFFFFFFFFFFFFFFFFFFFF AND DUP2 PUSH1 0x1 DUP2 MLOAD DUP2 LT PUSH2 0x149C JUMPI PUSH2 0x149B PUSH2 0x2C1B JUMP JUMPDEST JUMPDEST PUSH1 0x20 MUL PUSH1 0x20 ADD ADD DUP2 DUP2 MSTORE POP POP DUP7 PUSH1 0xC0 ADD MLOAD DUP2 PUSH1 0x2 DUP2 MLOAD DUP2 LT PUSH2 0x14C1 JUMPI PUSH2 0x14C0 PUSH2 0x2C1B JUMP JUMPDEST JUMPDEST PUSH1 0x20 MUL PUSH1 0x20 ADD ADD DUP2 DUP2 MSTORE POP POP DUP7 PUSH1 0xE0 ADD MLOAD PUSH20 0xFFFFFFFFFFFFFFFFFFFFFFFFFFFFFFFFFFFFFFFF AND DUP2 PUSH1 0x3 DUP2 MLOAD DUP2 LT PUSH2 0x14FC JUMPI PUSH2 0x14FB PUSH2 0x2C1B JUMP JUMPDEST JUMPDEST PUSH1 0x20 MUL PUSH1 0x20 ADD ADD DUP2 DUP2 MSTORE POP POP PUSH2 0x1511 DUP6 PUSH2 0xA95 JUMP JUMPDEST PUSH20 0xFFFFFFFFFFFFFFFFFFFFFFFFFFFFFFFFFFFFFFFF AND PUSH4 0xC32E370E DUP6 DUP6 DUP6 DUP6 PUSH1 0x40 MLOAD DUP6 PUSH4 0xFFFFFFFF AND PUSH1 0xE0 SHL DUP2 MSTORE PUSH1 0x4 ADD PUSH2 0x154F SWAP5 SWAP4 SWAP3 SWAP2 SWAP1 PUSH2 0x2E8A JUMP JUMPDEST PUSH1 0x20 PUSH1 0x40 MLOAD DUP1 DUP4 SUB DUP2 DUP7 GAS STATICCALL ISZERO DUP1 ISZERO PUSH2 0x156C JUMPI RETURNDATASIZE PUSH1 0x0 DUP1 RETURNDATACOPY RETURNDATASIZE PUSH1 0x0 REVERT JUMPDEST POP POP POP POP PUSH1 0x40 MLOAD RETURNDATASIZE PUSH1 0x1F NOT PUSH1 0x1F DUP3 ADD AND DUP3 ADD DUP1 PUSH1 0x40 MSTORE POP DUP2 ADD SWAP1 PUSH2 0x1590 SWAP2 SWAP1 PUSH2 0x2EED JUMP JUMPDEST PUSH2 0x15CF JUMPI PUSH1 0x40 MLOAD PUSH32 0x8C379A000000000000000000000000000000000000000000000000000000000 DUP2 MSTORE PUSH1 0x4 ADD PUSH2 0x15C6 SWAP1 PUSH2 0x2F66 JUMP JUMPDEST PUSH1 0x40 MLOAD DUP1 SWAP2 SUB SWAP1 REVERT JUMPDEST PUSH1 0x0 PUSH2 0x15DE DUP9 PUSH1 0xC0 ADD MLOAD PUSH2 0x1B92 JUMP JUMPDEST SWAP1 POP DUP2 PUSH1 0x40 MLOAD PUSH2 0x15EE SWAP2 SWAP1 PUSH2 0x303F JUMP JUMPDEST PUSH1 0x40 MLOAD DUP1 SWAP2 SUB SWAP1 KECCAK256 PUSH32 0xB863FD571FB24A5C7EC2E5259D558B03685336F31DCBF081507D6C4254BED305 TIMESTAMP PUSH1 0x40 MLOAD PUSH2 0x1625 SWAP2 SWAP1 PUSH2 0x2167 JUMP JUMPDEST PUSH1 0x40 MLOAD DUP1 SWAP2 SUB SWAP1 LOG2 DUP1 SWAP7 POP POP POP POP POP POP POP SWAP2 SWAP1 POP JUMP JUMPDEST PUSH2 0x1643 PUSH2 0x19A1 JUMP JUMPDEST PUSH2 0x164B PUSH2 0x1BDE JUMP JUMPDEST JUMP JUMPDEST PUSH1 0xCE PUSH1 0x20 MSTORE DUP1 PUSH1 0x0 MSTORE PUSH1 0x40 PUSH1 0x0 KECCAK256 PUSH1 0x0 SWAP2 POP SLOAD SWAP1 PUSH2 0x100 EXP SWAP1 DIV PUSH20 0xFFFFFFFFFFFFFFFFFFFFFFFFFFFFFFFFFFFFFFFF AND DUP2 JUMP JUMPDEST PUSH1 0x0 DUP1 PUSH1 0x1 SWAP1 SLOAD SWAP1 PUSH2 0x100 EXP SWAP1 DIV PUSH1 0xFF AND ISZERO SWAP1 POP DUP1 DUP1 ISZERO PUSH2 0x16B1 JUMPI POP PUSH1 0x1 PUSH1 0x0 DUP1 SLOAD SWAP1 PUSH2 0x100 EXP SWAP1 DIV PUSH1 0xFF AND PUSH1 0xFF AND LT JUMPDEST DUP1 PUSH2 0x16DE JUMPI POP PUSH2 0x16C0 ADDRESS PUSH2 0x1C41 JUMP JUMPDEST ISZERO DUP1 ISZERO PUSH2 0x16DD JUMPI POP PUSH1 0x1 PUSH1 0x0 DUP1 SLOAD SWAP1 PUSH2 0x100 EXP SWAP1 DIV PUSH1 0xFF AND PUSH1 0xFF AND EQ JUMPDEST JUMPDEST PUSH2 0x171D JUMPI PUSH1 0x40 MLOAD PUSH32 0x8C379A000000000000000000000000000000000000000000000000000000000 DUP2 MSTORE PUSH1 0x4 ADD PUSH2 0x1714 SWAP1 PUSH2 0x323A JUMP JUMPDEST PUSH1 0x40 MLOAD DUP1 SWAP2 SUB SWAP1 REVERT JUMPDEST PUSH1 0x1 PUSH1 0x0 DUP1 PUSH2 0x100 EXP DUP2 SLOAD DUP2 PUSH1 0xFF MUL NOT AND SWAP1 DUP4 PUSH1 0xFF AND MUL OR SWAP1 SSTORE POP DUP1 ISZERO PUSH2 0x175A JUMPI PUSH1 0x1 PUSH1 0x0 PUSH1 0x1 PUSH2 0x100 EXP DUP2 SLOAD DUP2 PUSH1 0xFF MUL NOT AND SWAP1 DUP4 ISZERO ISZERO MUL OR SWAP1 SSTORE POP JUMPDEST PUSH1 0x0 PUSH1 0x2 SLOAD EQ DUP1 ISZERO PUSH2 0x17BA JUMPI POP PUSH1 0x0 PUSH20 0xFFFFFFFFFFFFFFFFFFFFFFFFFFFFFFFFFFFFFFFF AND PUSH1 0x0 PUSH1 0x2 SWAP1 SLOAD SWAP1 PUSH2 0x100 EXP SWAP1 DIV PUSH20 0xFFFFFFFFFFFFFFFFFFFFFFFFFFFFFFFFFFFFFFFF AND PUSH20 0xFFFFFFFFFFFFFFFFFFFFFFFFFFFFFFFFFFFFFFFF AND EQ JUMPDEST PUSH2 0x17F9 JUMPI PUSH1 0x40 MLOAD PUSH32 0x8C379A000000000000000000000000000000000000000000000000000000000 DUP2 MSTORE PUSH1 0x4 ADD PUSH2 0x17F0 SWAP1 PUSH2 0x32A6 JUMP JUMPDEST PUSH1 0x40 MLOAD DUP1 SWAP2 SUB SWAP1 REVERT JUMPDEST PUSH2 0x1802 DUP4 PUSH2 0x1C64 JUMP JUMPDEST PUSH2 0x1811 DUP3 PUSH4 0xFFFFFFFF AND PUSH2 0x1CF7 JUMP JUMPDEST PUSH2 0x1819 PUSH2 0x1E01 JUMP JUMPDEST PUSH2 0x1821 PUSH2 0x1E52 JUMP JUMPDEST PUSH2 0x1829 PUSH2 0x1EB3 JUMP JUMPDEST PUSH2 0x1831 PUSH2 0x1F1F JUMP JUMPDEST DUP1 ISZERO PUSH2 0x188A JUMPI PUSH1 0x0 DUP1 PUSH1 0x1 PUSH2 0x100 EXP DUP2 SLOAD DUP2 PUSH1 0xFF MUL NOT AND SWAP1 DUP4 ISZERO ISZERO MUL OR SWAP1 SSTORE POP PUSH32 0x7F26B83FF96E1F2B6A682F133852F6798A09C465DA95921460CEFB3847402498 PUSH1 0x1 PUSH1 0x40 MLOAD PUSH2 0x1881 SWAP2 SWAP1 PUSH2 0x330E JUMP JUMPDEST PUSH1 0x40 MLOAD DUP1 SWAP2 SUB SWAP1 LOG1 JUMPDEST POP POP POP JUMP JUMPDEST PUSH1 0x1 SLOAD DUP2 JUMP JUMPDEST PUSH1 0xCD PUSH1 0x20 MSTORE DUP1 PUSH1 0x0 MSTORE PUSH1 0x40 PUSH1 0x0 KECCAK256 PUSH1 0x0 SWAP2 POP SLOAD SWAP1 PUSH2 0x100 EXP SWAP1 DIV PUSH1 0xFF AND DUP2 JUMP JUMPDEST PUSH1 0x0 PUSH1 0xCE PUSH1 0x0 DUP4 PUSH20 0xFFFFFFFFFFFFFFFFFFFFFFFFFFFFFFFFFFFFFFFF AND PUSH20 0xFFFFFFFFFFFFFFFFFFFFFFFFFFFFFFFFFFFFFFFF AND DUP2 MSTORE PUSH1 0x20 ADD SWAP1 DUP2 MSTORE PUSH1 0x20 ADD PUSH1 0x0 KECCAK256 PUSH1 0x0 SWAP1 SLOAD SWAP1 PUSH2 0x100 EXP SWAP1 DIV PUSH20 0xFFFFFFFFFFFFFFFFFFFFFFFFFFFFFFFFFFFFFFFF AND SWAP1 POP SWAP2 SWAP1 POP JUMP JUMPDEST PUSH2 0x1926 PUSH2 0x19A1 JUMP JUMPDEST PUSH1 0x0 PUSH20 0xFFFFFFFFFFFFFFFFFFFFFFFFFFFFFFFFFFFFFFFF AND DUP2 PUSH20 0xFFFFFFFFFFFFFFFFFFFFFFFFFFFFFFFFFFFFFFFF AND SUB PUSH2 0x1995 JUMPI PUSH1 0x40 MLOAD PUSH32 0x8C379A000000000000000000000000000000000000000000000000000000000 DUP2 MSTORE PUSH1 0x4 ADD PUSH2 0x198C SWAP1 PUSH2 0x339B JUMP JUMPDEST PUSH1 0x40 MLOAD DUP1 SWAP2 SUB SWAP1 REVERT JUMPDEST PUSH2 0x199E DUP2 PUSH2 0x1A69 JUMP JUMPDEST POP JUMP JUMPDEST PUSH2 0x19A9 PUSH2 0x1F78 JUMP JUMPDEST PUSH20 0xFFFFFFFFFFFFFFFFFFFFFFFFFFFFFFFFFFFFFFFF AND PUSH2 0x19C7 PUSH2 0x10E2 JUMP JUMPDEST PUSH20 0xFFFFFFFFFFFFFFFFFFFFFFFFFFFFFFFFFFFFFFFF AND EQ PUSH2 0x1A1D JUMPI PUSH1 0x40 MLOAD PUSH32 0x8C379A000000000000000000000000000000000000000000000000000000000 DUP2 MSTORE PUSH1 0x4 ADD PUSH2 0x1A14 SWAP1 PUSH2 0x3407 JUMP JUMPDEST PUSH1 0x40 MLOAD DUP1 SWAP2 SUB SWAP1 REVERT JUMPDEST JUMP JUMPDEST PUSH2 0x1A27 PUSH2 0x1032 JUMP JUMPDEST ISZERO PUSH2 0x1A67 JUMPI PUSH1 0x40 MLOAD PUSH32 0x8C379A000000000000000000000000000000000000000000000000000000000 DUP2 MSTORE PUSH1 0x4 ADD PUSH2 0x1A5E SWAP1 PUSH2 0x3473 JUMP JUMPDEST PUSH1 0x40 MLOAD DUP1 SWAP2 SUB SWAP1 REVERT JUMPDEST JUMP JUMPDEST PUSH1 0x0 PUSH1 0x37 PUSH1 0x0 SWAP1 SLOAD SWAP1 PUSH2 0x100 EXP SWAP1 DIV PUSH20 0xFFFFFFFFFFFFFFFFFFFFFFFFFFFFFFFFFFFFFFFF AND SWAP1 POP DUP2 PUSH1 0x37 PUSH1 0x0 PUSH2 0x100 EXP DUP2 SLOAD DUP2 PUSH20 0xFFFFFFFFFFFFFFFFFFFFFFFFFFFFFFFFFFFFFFFF MUL NOT AND SWAP1 DUP4 PUSH20 0xFFFFFFFFFFFFFFFFFFFFFFFFFFFFFFFFFFFFFFFF AND MUL OR SWAP1 SSTORE POP DUP2 PUSH20 0xFFFFFFFFFFFFFFFFFFFFFFFFFFFFFFFFFFFFFFFF AND DUP2 PUSH20 0xFFFFFFFFFFFFFFFFFFFFFFFFFFFFFFFFFFFFFFFF AND PUSH32 0x8BE0079C531659141344CD1FD0A4F28419497F9722A3DAAFE3B4186F6B6457E0 PUSH1 0x40 MLOAD PUSH1 0x40 MLOAD DUP1 SWAP2 SUB SWAP1 LOG3 POP POP JUMP JUMPDEST PUSH2 0x1B37 PUSH2 0x1A1F JUMP JUMPDEST PUSH1 0x1 PUSH1 0x69 PUSH1 0x0 PUSH2 0x100 EXP DUP2 SLOAD DUP2 PUSH1 0xFF MUL NOT AND SWAP1 DUP4 ISZERO ISZERO MUL OR SWAP1 SSTORE POP PUSH32 0x62E78CEA01BEE320CD4E420270B5EA74000D11B0C9F74754EBDBFC544B05A258 PUSH2 0x1B7B PUSH2 0x1F78 JUMP JUMPDEST PUSH1 0x40 MLOAD PUSH2 0x1B88 SWAP2 SWAP1 PUSH2 0x23EF JUMP JUMPDEST PUSH1 0x40 MLOAD DUP1 SWAP2 SUB SWAP1 LOG1 JUMP JUMPDEST PUSH1 0x0 DUP1 PUSH1 0x1 SLOAD PUSH1 0x1 PUSH1 0x3 SLOAD PUSH2 0x1BA7 SWAP2 SWAP1 PUSH2 0x3493 JUMP JUMPDEST PUSH2 0x1BB1 SWAP2 SWAP1 PUSH2 0x34F6 JUMP JUMPDEST SWAP1 POP DUP1 PUSH1 0x3 DUP2 SWAP1 SSTORE POP DUP3 PUSH1 0x4 PUSH1 0x0 PUSH1 0x3 SLOAD DUP2 MSTORE PUSH1 0x20 ADD SWAP1 DUP2 MSTORE PUSH1 0x20 ADD PUSH1 0x0 KECCAK256 DUP2 SWAP1 SSTORE POP PUSH1 0x1 SWAP2 POP POP SWAP2 SWAP1 POP JUMP JUMPDEST PUSH2 0x1BE6 PUSH2 0x1F80 JUMP JUMPDEST PUSH1 0x0 PUSH1 0x69 PUSH1 0x0 PUSH2 0x100 EXP DUP2 SLOAD DUP2 PUSH1 0xFF MUL NOT AND SWAP1 DUP4 ISZERO ISZERO MUL OR SWAP1 SSTORE POP PUSH32 0x5DB9EE0A495BF2E6FF9C91A7834C1BA4FDD244A5E8AA4E537BD38AEAE4B073AA PUSH2 0x1C2A PUSH2 0x1F78 JUMP JUMPDEST PUSH1 0x40 MLOAD PUSH2 0x1C37 SWAP2 SWAP1 PUSH2 0x23EF JUMP JUMPDEST PUSH1 0x40 MLOAD DUP1 SWAP2 SUB SWAP1 LOG1 JUMP JUMPDEST PUSH1 0x0 DUP1 DUP3 PUSH20 0xFFFFFFFFFFFFFFFFFFFFFFFFFFFFFFFFFFFFFFFF AND EXTCODESIZE GT SWAP1 POP SWAP2 SWAP1 POP JUMP JUMPDEST PUSH1 0x0 PUSH1 0x1 SWAP1 SLOAD SWAP1 PUSH2 0x100 EXP SWAP1 DIV PUSH1 0xFF AND PUSH2 0x1CB3 JUMPI PUSH1 0x40 MLOAD PUSH32 0x8C379A000000000000000000000000000000000000000000000000000000000 DUP2 MSTORE PUSH1 0x4 ADD PUSH2 0x1CAA SWAP1 PUSH2 0x3599 JUMP JUMPDEST PUSH1 0x40 MLOAD DUP1 SWAP2 SUB SWAP1 REVERT JUMPDEST DUP1 PUSH1 0x0 PUSH1 0x2 PUSH2 0x100 EXP DUP2 SLOAD DUP2 PUSH20 0xFFFFFFFFFFFFFFFFFFFFFFFFFFFFFFFFFFFFFFFF MUL NOT AND SWAP1 DUP4 PUSH20 0xFFFFFFFFFFFFFFFFFFFFFFFFFFFFFFFFFFFFFFFF AND MUL OR SWAP1 SSTORE POP POP JUMP JUMPDEST PUSH1 0x0 PUSH1 0x1 SWAP1 SLOAD SWAP1 PUSH2 0x100 EXP SWAP1 DIV PUSH1 0xFF AND PUSH2 0x1D46 JUMPI PUSH1 0x40 MLOAD PUSH32 0x8C379A000000000000000000000000000000000000000000000000000000000 DUP2 MSTORE PUSH1 0x4 ADD PUSH2 0x1D3D SWAP1 PUSH2 0x3599 JUMP JUMPDEST PUSH1 0x40 MLOAD DUP1 SWAP2 SUB SWAP1 REVERT JUMPDEST PUSH1 0x0 DUP2 GT PUSH2 0x1D89 JUMPI PUSH1 0x40 MLOAD PUSH32 0x8C379A000000000000000000000000000000000000000000000000000000000 DUP2 MSTORE PUSH1 0x4 ADD PUSH2 0x1D80 SWAP1 PUSH2 0x362B JUMP JUMPDEST PUSH1 0x40 MLOAD DUP1 SWAP2 SUB SWAP1 REVERT JUMPDEST PUSH1 0x28 DUP2 LT PUSH2 0x1DCC JUMPI PUSH1 0x40 MLOAD PUSH32 0x8C379A000000000000000000000000000000000000000000000000000000000 DUP2 MSTORE PUSH1 0x4 ADD PUSH2 0x1DC3 SWAP1 PUSH2 0x3697 JUMP JUMPDEST PUSH1 0x40 MLOAD DUP1 SWAP2 SUB SWAP1 REVERT JUMPDEST DUP1 PUSH1 0x2 DUP2 SWAP1 SSTORE POP PUSH1 0xA PUSH1 0x1 DUP2 SWAP1 SSTORE POP PUSH1 0x0 PUSH1 0x3 DUP2 SWAP1 SSTORE POP PUSH1 0x0 PUSH1 0x4 PUSH1 0x0 PUSH1 0x3 SLOAD DUP2 MSTORE PUSH1 0x20 ADD SWAP1 DUP2 MSTORE PUSH1 0x20 ADD PUSH1 0x0 KECCAK256 DUP2 SWAP1 SSTORE POP POP JUMP JUMPDEST PUSH1 0x0 PUSH1 0x1 SWAP1 SLOAD SWAP1 PUSH2 0x100 EXP SWAP1 DIV PUSH1 0xFF AND PUSH2 0x1E50 JUMPI PUSH1 0x40 MLOAD PUSH32 0x8C379A000000000000000000000000000000000000000000000000000000000 DUP2 MSTORE PUSH1 0x4 ADD PUSH2 0x1E47 SWAP1 PUSH2 0x3599 JUMP JUMPDEST PUSH1 0x40 MLOAD DUP1 SWAP2 SUB SWAP1 REVERT JUMPDEST JUMP JUMPDEST PUSH1 0x0 PUSH1 0x1 SWAP1 SLOAD SWAP1 PUSH2 0x100 EXP SWAP1 DIV PUSH1 0xFF AND PUSH2 0x1EA1 JUMPI PUSH1 0x40 MLOAD PUSH32 0x8C379A000000000000000000000000000000000000000000000000000000000 DUP2 MSTORE PUSH1 0x4 ADD PUSH2 0x1E98 SWAP1 PUSH2 0x3599 JUMP JUMPDEST PUSH1 0x40 MLOAD DUP1 SWAP2 SUB SWAP1 REVERT JUMPDEST PUSH2 0x1EB1 PUSH2 0x1EAC PUSH2 0x1F78 JUMP JUMPDEST PUSH2 0x1A69 JUMP JUMPDEST JUMP JUMPDEST PUSH1 0x0 PUSH1 0x1 SWAP1 SLOAD SWAP1 PUSH2 0x100 EXP SWAP1 DIV PUSH1 0xFF AND PUSH2 0x1F02 JUMPI PUSH1 0x40 MLOAD PUSH32 0x8C379A000000000000000000000000000000000000000000000000000000000 DUP2 MSTORE PUSH1 0x4 ADD PUSH2 0x1EF9 SWAP1 PUSH2 0x3599 JUMP JUMPDEST PUSH1 0x40 MLOAD DUP1 SWAP2 SUB SWAP1 REVERT JUMPDEST PUSH1 0x0 PUSH1 0x69 PUSH1 0x0 PUSH2 0x100 EXP DUP2 SLOAD DUP2 PUSH1 0xFF MUL NOT AND SWAP1 DUP4 ISZERO ISZERO MUL OR SWAP1 SSTORE POP JUMP JUMPDEST PUSH1 0x0 PUSH1 0x1 SWAP1 SLOAD SWAP1 PUSH2 0x100 EXP SWAP1 DIV PUSH1 0xFF AND PUSH2 0x1F6E JUMPI PUSH1 0x40 MLOAD PUSH32 0x8C379A000000000000000000000000000000000000000000000000000000000 DUP2 MSTORE PUSH1 0x4 ADD PUSH2 0x1F65 SWAP1 PUSH2 0x3599 JUMP JUMPDEST PUSH1 0x40 MLOAD DUP1 SWAP2 SUB SWAP1 REVERT JUMPDEST PUSH1 0x1 PUSH1 0x9B DUP2 SWAP1 SSTORE POP JUMP JUMPDEST PUSH1 0x0 CALLER SWAP1 POP SWAP1 JUMP JUMPDEST PUSH2 0x1F88 PUSH2 0x1032 JUMP JUMPDEST PUSH2 0x1FC7 JUMPI PUSH1 0x40 MLOAD PUSH32 0x8C379A000000000000000000000000000000000000000000000000000000000 DUP2 MSTORE PUSH1 0x4 ADD PUSH2 0x1FBE SWAP1 PUSH2 0x3703 JUMP JUMPDEST PUSH1 0x40 MLOAD DUP1 SWAP2 SUB SWAP1 REVERT JUMPDEST JUMP JUMPDEST PUSH1 0x0 PUSH1 0x40 MLOAD SWAP1 POP SWAP1 JUMP JUMPDEST PUSH1 0x0 DUP1 REVERT JUMPDEST PUSH1 0x0 DUP1 REVERT JUMPDEST PUSH1 0x0 PUSH20 0xFFFFFFFFFFFFFFFFFFFFFFFFFFFFFFFFFFFFFFFF DUP3 AND SWAP1 POP SWAP2 SWAP1 POP JUMP JUMPDEST PUSH2 0x2006 DUP2 PUSH2 0x1FDD JUMP JUMPDEST DUP2 EQ PUSH2 0x2011 JUMPI PUSH1 0x0 DUP1 REVERT JUMPDEST POP JUMP JUMPDEST PUSH1 0x0 DUP2 CALLDATALOAD SWAP1 POP PUSH2 0x2023 DUP2 PUSH2 0x1FFD JUMP JUMPDEST SWAP3 SWAP2 POP POP JUMP JUMPDEST PUSH1 0x0 PUSH1 0x20 DUP3 DUP5 SUB SLT ISZERO PUSH2 0x203F JUMPI PUSH2 0x203E PUSH2 0x1FD3 JUMP JUMPDEST JUMPDEST PUSH1 0x0 PUSH2 0x204D DUP5 DUP3 DUP6 ADD PUSH2 0x2014 JUMP JUMPDEST SWAP2 POP POP SWAP3 SWAP2 POP POP JUMP JUMPDEST PUSH1 0x0 PUSH2 0x2061 DUP3 PUSH2 0x1FDD JUMP JUMPDEST SWAP1 POP SWAP2 SWAP1 POP JUMP JUMPDEST PUSH2 0x2071 DUP2 PUSH2 0x2056 JUMP JUMPDEST DUP2 EQ PUSH2 0x207C JUMPI PUSH1 0x0 DUP1 REVERT JUMPDEST POP JUMP JUMPDEST PUSH1 0x0 DUP2 CALLDATALOAD SWAP1 POP PUSH2 0x208E DUP2 PUSH2 0x2068 JUMP JUMPDEST SWAP3 SWAP2 POP POP JUMP JUMPDEST PUSH1 0x0 DUP1 PUSH1 0x40 DUP4 DUP6 SUB SLT ISZERO PUSH2 0x20AB JUMPI PUSH2 0x20AA PUSH2 0x1FD3 JUMP JUMPDEST JUMPDEST PUSH1 0x0 PUSH2 0x20B9 DUP6 DUP3 DUP7 ADD PUSH2 0x2014 JUMP JUMPDEST SWAP3 POP POP PUSH1 0x20 PUSH2 0x20CA DUP6 DUP3 DUP7 ADD PUSH2 0x207F JUMP JUMPDEST SWAP2 POP POP SWAP3 POP SWAP3 SWAP1 POP JUMP JUMPDEST PUSH1 0x0 DUP2 SWAP1 POP SWAP2 SWAP1 POP JUMP JUMPDEST PUSH1 0x0 PUSH2 0x20F9 PUSH2 0x20F4 PUSH2 0x20EF DUP5 PUSH2 0x1FDD JUMP JUMPDEST PUSH2 0x20D4 JUMP JUMPDEST PUSH2 0x1FDD JUMP JUMPDEST SWAP1 POP SWAP2 SWAP1 POP JUMP JUMPDEST PUSH1 0x0 PUSH2 0x210B DUP3 PUSH2 0x20DE JUMP JUMPDEST SWAP1 POP SWAP2 SWAP1 POP JUMP JUMPDEST PUSH1 0x0 PUSH2 0x211D DUP3 PUSH2 0x2100 JUMP JUMPDEST SWAP1 POP SWAP2 SWAP1 POP JUMP JUMPDEST PUSH2 0x212D DUP2 PUSH2 0x2112 JUMP JUMPDEST DUP3 MSTORE POP POP JUMP JUMPDEST PUSH1 0x0 PUSH1 0x20 DUP3 ADD SWAP1 POP PUSH2 0x2148 PUSH1 0x0 DUP4 ADD DUP5 PUSH2 0x2124 JUMP JUMPDEST SWAP3 SWAP2 POP POP JUMP JUMPDEST PUSH1 0x0 DUP2 SWAP1 POP SWAP2 SWAP1 POP JUMP JUMPDEST PUSH2 0x2161 DUP2 PUSH2 0x214E JUMP JUMPDEST DUP3 MSTORE POP POP JUMP JUMPDEST PUSH1 0x0 PUSH1 0x20 DUP3 ADD SWAP1 POP PUSH2 0x217C PUSH1 0x0 DUP4 ADD DUP5 PUSH2 0x2158 JUMP JUMPDEST SWAP3 SWAP2 POP POP JUMP JUMPDEST PUSH1 0x0 DUP2 ISZERO ISZERO SWAP1 POP SWAP2 SWAP1 POP JUMP JUMPDEST PUSH2 0x2197 DUP2 PUSH2 0x2182 JUMP JUMPDEST DUP2 EQ PUSH2 0x21A2 JUMPI PUSH1 0x0 DUP1 REVERT JUMPDEST POP JUMP JUMPDEST PUSH1 0x0 DUP2 CALLDATALOAD SWAP1 POP PUSH2 0x21B4 DUP2 PUSH2 0x218E JUMP JUMPDEST SWAP3 SWAP2 POP POP JUMP JUMPDEST PUSH1 0x0 DUP1 PUSH1 0x40 DUP4 DUP6 SUB SLT ISZERO PUSH2 0x21D1 JUMPI PUSH2 0x21D0 PUSH2 0x1FD3 JUMP JUMPDEST JUMPDEST PUSH1 0x0 PUSH2 0x21DF DUP6 DUP3 DUP7 ADD PUSH2 0x2014 JUMP JUMPDEST SWAP3 POP POP PUSH1 0x20 PUSH2 0x21F0 DUP6 DUP3 DUP7 ADD PUSH2 0x21A5 JUMP JUMPDEST SWAP2 POP POP SWAP3 POP SWAP3 SWAP1 POP JUMP JUMPDEST PUSH1 0x0 PUSH1 0x20 DUP3 DUP5 SUB SLT ISZERO PUSH2 0x2210 JUMPI PUSH2 0x220F PUSH2 0x1FD3 JUMP JUMPDEST JUMPDEST PUSH1 0x0 PUSH2 0x221E DUP5 DUP3 DUP6 ADD PUSH2 0x207F JUMP JUMPDEST SWAP2 POP POP SWAP3 SWAP2 POP POP JUMP JUMPDEST PUSH2 0x2230 DUP2 PUSH2 0x1FDD JUMP JUMPDEST DUP3 MSTORE POP POP JUMP JUMPDEST PUSH1 0x0 PUSH1 0x20 DUP3 ADD SWAP1 POP PUSH2 0x224B PUSH1 0x0 DUP4 ADD DUP5 PUSH2 0x2227 JUMP JUMPDEST SWAP3 SWAP2 POP POP JUMP JUMPDEST PUSH1 0x0 DUP1 REVERT JUMPDEST PUSH1 0x0 DUP1 REVERT JUMPDEST PUSH1 0x0 PUSH1 0x1F NOT PUSH1 0x1F DUP4 ADD AND SWAP1 POP SWAP2 SWAP1 POP JUMP JUMPDEST PUSH32 0x4E487B7100000000000000000000000000000000000000000000000000000000 PUSH1 0x0 MSTORE PUSH1 0x41 PUSH1 0x4 MSTORE PUSH1 0x24 PUSH1 0x0 REVERT JUMPDEST PUSH2 0x22A4 DUP3 PUSH2 0x225B JUMP JUMPDEST DUP2 ADD DUP2 DUP2 LT PUSH8 0xFFFFFFFFFFFFFFFF DUP3 GT OR ISZERO PUSH2 0x22C3 JUMPI PUSH2 0x22C2 PUSH2 0x226C JUMP JUMPDEST JUMPDEST DUP1 PUSH1 0x40 MSTORE POP POP POP JUMP JUMPDEST PUSH1 0x0 PUSH2 0x22D6 PUSH2 0x1FC9 JUMP JUMPDEST SWAP1 POP PUSH2 0x22E2 DUP3 DUP3 PUSH2 0x229B JUMP JUMPDEST SWAP2 SWAP1 POP JUMP JUMPDEST PUSH1 0x0 PUSH8 0xFFFFFFFFFFFFFFFF DUP3 GT ISZERO PUSH2 0x2302 JUMPI PUSH2 0x2301 PUSH2 0x226C JUMP JUMPDEST JUMPDEST PUSH2 0x230B DUP3 PUSH2 0x225B JUMP JUMPDEST SWAP1 POP PUSH1 0x20 DUP2 ADD SWAP1 POP SWAP2 SWAP1 POP JUMP JUMPDEST DUP3 DUP2 DUP4 CALLDATACOPY PUSH1 0x0 DUP4 DUP4 ADD MSTORE POP POP POP JUMP JUMPDEST PUSH1 0x0 PUSH2 0x233A PUSH2 0x2335 DUP5 PUSH2 0x22E7 JUMP JUMPDEST PUSH2 0x22CC JUMP JUMPDEST SWAP1 POP DUP3 DUP2 MSTORE PUSH1 0x20 DUP2 ADD DUP5 DUP5 DUP5 ADD GT ISZERO PUSH2 0x2356 JUMPI PUSH2 0x2355 PUSH2 0x2256 JUMP JUMPDEST JUMPDEST PUSH2 0x2361 DUP5 DUP3 DUP6 PUSH2 0x2318 JUMP JUMPDEST POP SWAP4 SWAP3 POP POP POP JUMP JUMPDEST PUSH1 0x0 DUP3 PUSH1 0x1F DUP4 ADD SLT PUSH2 0x237E JUMPI PUSH2 0x237D PUSH2 0x2251 JUMP JUMPDEST JUMPDEST DUP2 CALLDATALOAD PUSH2 0x238E DUP5 DUP3 PUSH1 0x20 DUP7 ADD PUSH2 0x2327 JUMP JUMPDEST SWAP2 POP POP SWAP3 SWAP2 POP POP JUMP JUMPDEST PUSH1 0x0 PUSH1 0x20 DUP3 DUP5 SUB SLT ISZERO PUSH2 0x23AD JUMPI PUSH2 0x23AC PUSH2 0x1FD3 JUMP JUMPDEST JUMPDEST PUSH1 0x0 DUP3 ADD CALLDATALOAD PUSH8 0xFFFFFFFFFFFFFFFF DUP2 GT ISZERO PUSH2 0x23CB JUMPI PUSH2 0x23CA PUSH2 0x1FD8 JUMP JUMPDEST JUMPDEST PUSH2 0x23D7 DUP5 DUP3 DUP6 ADD PUSH2 0x2369 JUMP JUMPDEST SWAP2 POP POP SWAP3 SWAP2 POP POP JUMP JUMPDEST PUSH2 0x23E9 DUP2 PUSH2 0x2056 JUMP JUMPDEST DUP3 MSTORE POP POP JUMP JUMPDEST PUSH1 0x0 PUSH1 0x20 DUP3 ADD SWAP1 POP PUSH2 0x2404 PUSH1 0x0 DUP4 ADD DUP5 PUSH2 0x23E0 JUMP JUMPDEST SWAP3 SWAP2 POP POP JUMP JUMPDEST PUSH1 0x0 DUP1 REVERT JUMPDEST PUSH1 0x0 DUP1 REVERT JUMPDEST PUSH1 0x0 PUSH8 0xFFFFFFFFFFFFFFFF DUP3 GT ISZERO PUSH2 0x242F JUMPI PUSH2 0x242E PUSH2 0x226C JUMP JUMPDEST JUMPDEST PUSH1 0x20 DUP3 MUL SWAP1 POP SWAP2 SWAP1 POP JUMP JUMPDEST PUSH1 0x0 DUP1 REVERT JUMPDEST PUSH2 0x2448 DUP2 PUSH2 0x214E JUMP JUMPDEST DUP2 EQ PUSH2 0x2453 JUMPI PUSH1 0x0 DUP1 REVERT JUMPDEST POP JUMP JUMPDEST PUSH1 0x0 DUP2 CALLDATALOAD SWAP1 POP PUSH2 0x2465 DUP2 PUSH2 0x243F JUMP JUMPDEST SWAP3 SWAP2 POP POP JUMP JUMPDEST PUSH1 0x0 PUSH2 0x247E PUSH2 0x2479 DUP5 PUSH2 0x2414 JUMP JUMPDEST PUSH2 0x22CC JUMP JUMPDEST SWAP1 POP DUP1 PUSH1 0x20 DUP5 MUL DUP4 ADD DUP6 DUP2 GT ISZERO PUSH2 0x2498 JUMPI PUSH2 0x2497 PUSH2 0x243A JUMP JUMPDEST JUMPDEST DUP4 JUMPDEST DUP2 DUP2 LT ISZERO PUSH2 0x24C1 JUMPI DUP1 PUSH2 0x24AD DUP9 DUP3 PUSH2 0x2456 JUMP JUMPDEST DUP5 MSTORE PUSH1 0x20 DUP5 ADD SWAP4 POP POP PUSH1 0x20 DUP2 ADD SWAP1 POP PUSH2 0x249A JUMP JUMPDEST POP POP POP SWAP4 SWAP3 POP POP POP JUMP JUMPDEST PUSH1 0x0 DUP3 PUSH1 0x1F DUP4 ADD SLT PUSH2 0x24E0 JUMPI PUSH2 0x24DF PUSH2 0x2251 JUMP JUMPDEST JUMPDEST PUSH1 0x2 PUSH2 0x24ED DUP5 DUP3 DUP6 PUSH2 0x246B JUMP JUMPDEST SWAP2 POP POP SWAP3 SWAP2 POP POP JUMP JUMPDEST PUSH1 0x0 PUSH8 0xFFFFFFFFFFFFFFFF DUP3 GT ISZERO PUSH2 0x2511 JUMPI PUSH2 0x2510 PUSH2 0x226C JUMP JUMPDEST JUMPDEST PUSH1 0x20 DUP3 MUL SWAP1 POP SWAP2 SWAP1 POP JUMP JUMPDEST PUSH1 0x0 PUSH2 0x252F PUSH2 0x252A DUP5 PUSH2 0x24F6 JUMP JUMPDEST PUSH2 0x22CC JUMP JUMPDEST SWAP1 POP DUP1 PUSH1 0x40 DUP5 MUL DUP4 ADD DUP6 DUP2 GT ISZERO PUSH2 0x2549 JUMPI PUSH2 0x2548 PUSH2 0x243A JUMP JUMPDEST JUMPDEST DUP4 JUMPDEST DUP2 DUP2 LT ISZERO PUSH2 0x2572 JUMPI DUP1 PUSH2 0x255E DUP9 DUP3 PUSH2 0x24CB JUMP JUMPDEST DUP5 MSTORE PUSH1 0x20 DUP5 ADD SWAP4 POP POP PUSH1 0x40 DUP2 ADD SWAP1 POP PUSH2 0x254B JUMP JUMPDEST POP POP POP SWAP4 SWAP3 POP POP POP JUMP JUMPDEST PUSH1 0x0 DUP3 PUSH1 0x1F DUP4 ADD SLT PUSH2 0x2591 JUMPI PUSH2 0x2590 PUSH2 0x2251 JUMP JUMPDEST JUMPDEST PUSH1 0x2 PUSH2 0x259E DUP5 DUP3 DUP6 PUSH2 0x251C JUMP JUMPDEST SWAP2 POP POP SWAP3 SWAP2 POP POP JUMP JUMPDEST PUSH1 0x0 PUSH2 0x1C0 DUP3 DUP5 SUB SLT ISZERO PUSH2 0x25BE JUMPI PUSH2 0x25BD PUSH2 0x240A JUMP JUMPDEST JUMPDEST PUSH2 0x25C9 PUSH2 0x120 PUSH2 0x22CC JUMP JUMPDEST SWAP1 POP PUSH1 0x0 DUP3 ADD CALLDATALOAD PUSH8 0xFFFFFFFFFFFFFFFF DUP2 GT ISZERO PUSH2 0x25E9 JUMPI PUSH2 0x25E8 PUSH2 0x240F JUMP JUMPDEST JUMPDEST PUSH2 0x25F5 DUP5 DUP3 DUP6 ADD PUSH2 0x2369 JUMP JUMPDEST PUSH1 0x0 DUP4 ADD MSTORE POP PUSH1 0x20 PUSH2 0x2609 DUP5 DUP3 DUP6 ADD PUSH2 0x24CB JUMP JUMPDEST PUSH1 0x20 DUP4 ADD MSTORE POP PUSH1 0x60 PUSH2 0x261D DUP5 DUP3 DUP6 ADD PUSH2 0x257C JUMP JUMPDEST PUSH1 0x40 DUP4 ADD MSTORE POP PUSH1 0xE0 PUSH2 0x2631 DUP5 DUP3 DUP6 ADD PUSH2 0x24CB JUMP JUMPDEST PUSH1 0x60 DUP4 ADD MSTORE POP PUSH2 0x120 PUSH2 0x2646 DUP5 DUP3 DUP6 ADD PUSH2 0x207F JUMP JUMPDEST PUSH1 0x80 DUP4 ADD MSTORE POP PUSH2 0x140 PUSH2 0x265B DUP5 DUP3 DUP6 ADD PUSH2 0x207F JUMP JUMPDEST PUSH1 0xA0 DUP4 ADD MSTORE POP PUSH2 0x160 PUSH2 0x2670 DUP5 DUP3 DUP6 ADD PUSH2 0x2456 JUMP JUMPDEST PUSH1 0xC0 DUP4 ADD MSTORE POP PUSH2 0x180 PUSH2 0x2685 DUP5 DUP3 DUP6 ADD PUSH2 0x2014 JUMP JUMPDEST PUSH1 0xE0 DUP4 ADD MSTORE POP PUSH2 0x1A0 PUSH2 0x269A DUP5 DUP3 DUP6 ADD PUSH2 0x2456 JUMP JUMPDEST PUSH2 0x100 DUP4 ADD MSTORE POP SWAP3 SWAP2 POP POP JUMP JUMPDEST PUSH1 0x0 PUSH1 0x20 DUP3 DUP5 SUB SLT ISZERO PUSH2 0x26BD JUMPI PUSH2 0x26BC PUSH2 0x1FD3 JUMP JUMPDEST JUMPDEST PUSH1 0x0 DUP3 ADD CALLDATALOAD PUSH8 0xFFFFFFFFFFFFFFFF DUP2 GT ISZERO PUSH2 0x26DB JUMPI PUSH2 0x26DA PUSH2 0x1FD8 JUMP JUMPDEST JUMPDEST PUSH2 0x26E7 DUP5 DUP3 DUP6 ADD PUSH2 0x25A7 JUMP JUMPDEST SWAP2 POP POP SWAP3 SWAP2 POP POP JUMP JUMPDEST PUSH2 0x26F9 DUP2 PUSH2 0x2182 JUMP JUMPDEST DUP3 MSTORE POP POP JUMP JUMPDEST PUSH1 0x0 PUSH1 0x20 DUP3 ADD SWAP1 POP PUSH2 0x2714 PUSH1 0x0 DUP4 ADD DUP5 PUSH2 0x26F0 JUMP JUMPDEST SWAP3 SWAP2 POP POP JUMP JUMPDEST PUSH1 0x0 PUSH1 0x20 DUP3 DUP5 SUB SLT ISZERO PUSH2 0x2730 JUMPI PUSH2 0x272F PUSH2 0x1FD3 JUMP JUMPDEST JUMPDEST PUSH1 0x0 PUSH2 0x273E DUP5 DUP3 DUP6 ADD PUSH2 0x2456 JUMP JUMPDEST SWAP2 POP POP SWAP3 SWAP2 POP POP JUMP JUMPDEST PUSH1 0x0 PUSH2 0x1A0 DUP3 DUP5 SUB SLT ISZERO PUSH2 0x275E JUMPI PUSH2 0x275D PUSH2 0x240A JUMP JUMPDEST JUMPDEST PUSH2 0x2769 PUSH2 0x100 PUSH2 0x22CC JUMP JUMPDEST SWAP1 POP PUSH1 0x0 DUP3 ADD CALLDATALOAD PUSH8 0xFFFFFFFFFFFFFFFF DUP2 GT ISZERO PUSH2 0x2789 JUMPI PUSH2 0x2788 PUSH2 0x240F JUMP JUMPDEST JUMPDEST PUSH2 0x2795 DUP5 DUP3 DUP6 ADD PUSH2 0x2369 JUMP JUMPDEST PUSH1 0x0 DUP4 ADD MSTORE POP PUSH1 0x20 PUSH2 0x27A9 DUP5 DUP3 DUP6 ADD PUSH2 0x24CB JUMP JUMPDEST PUSH1 0x20 DUP4 ADD MSTORE POP PUSH1 0x60 PUSH2 0x27BD DUP5 DUP3 DUP6 ADD PUSH2 0x257C JUMP JUMPDEST PUSH1 0x40 DUP4 ADD MSTORE POP PUSH1 0xE0 PUSH2 0x27D1 DUP5 DUP3 DUP6 ADD PUSH2 0x24CB JUMP JUMPDEST PUSH1 0x60 DUP4 ADD MSTORE POP PUSH2 0x120 PUSH2 0x27E6 DUP5 DUP3 DUP6 ADD PUSH2 0x2014 JUMP JUMPDEST PUSH1 0x80 DUP4 ADD MSTORE POP PUSH2 0x140 PUSH2 0x27FB DUP5 DUP3 DUP6 ADD PUSH2 0x2014 JUMP JUMPDEST PUSH1 0xA0 DUP4 ADD MSTORE POP PUSH2 0x160 PUSH2 0x2810 DUP5 DUP3 DUP6 ADD PUSH2 0x2456 JUMP JUMPDEST PUSH1 0xC0 DUP4 ADD MSTORE POP PUSH2 0x180 PUSH2 0x2825 DUP5 DUP3 DUP6 ADD PUSH2 0x2014 JUMP JUMPDEST PUSH1 0xE0 DUP4 ADD MSTORE POP SWAP3 SWAP2 POP POP JUMP JUMPDEST PUSH1 0x0 PUSH1 0x20 DUP3 DUP5 SUB SLT ISZERO PUSH2 0x2847 JUMPI PUSH2 0x2846 PUSH2 0x1FD3 JUMP JUMPDEST JUMPDEST PUSH1 0x0 DUP3 ADD CALLDATALOAD PUSH8 0xFFFFFFFFFFFFFFFF DUP2 GT ISZERO PUSH2 0x2865 JUMPI PUSH2 0x2864 PUSH2 0x1FD8 JUMP JUMPDEST JUMPDEST PUSH2 0x2871 DUP5 DUP3 DUP6 ADD PUSH2 0x2747 JUMP JUMPDEST SWAP2 POP POP SWAP3 SWAP2 POP POP JUMP JUMPDEST PUSH1 0x0 PUSH4 0xFFFFFFFF DUP3 AND SWAP1 POP SWAP2 SWAP1 POP JUMP JUMPDEST PUSH2 0x2893 DUP2 PUSH2 0x287A JUMP JUMPDEST DUP2 EQ PUSH2 0x289E JUMPI PUSH1 0x0 DUP1 REVERT JUMPDEST POP JUMP JUMPDEST PUSH1 0x0 DUP2 CALLDATALOAD SWAP1 POP PUSH2 0x28B0 DUP2 PUSH2 0x288A JUMP JUMPDEST SWAP3 SWAP2 POP POP JUMP JUMPDEST PUSH1 0x0 DUP1 PUSH1 0x40 DUP4 DUP6 SUB SLT ISZERO PUSH2 0x28CD JUMPI PUSH2 0x28CC PUSH2 0x1FD3 JUMP JUMPDEST JUMPDEST PUSH1 0x0 PUSH2 0x28DB DUP6 DUP3 DUP7 ADD PUSH2 0x207F JUMP JUMPDEST SWAP3 POP POP PUSH1 0x20 PUSH2 0x28EC DUP6 DUP3 DUP7 ADD PUSH2 0x28A1 JUMP JUMPDEST SWAP2 POP POP SWAP3 POP SWAP3 SWAP1 POP JUMP JUMPDEST PUSH1 0x0 DUP3 DUP3 MSTORE PUSH1 0x20 DUP3 ADD SWAP1 POP SWAP3 SWAP2 POP POP JUMP JUMPDEST PUSH32 0x746F6B656E207761732072656769737465726564210000000000000000000000 PUSH1 0x0 DUP3 ADD MSTORE POP JUMP JUMPDEST PUSH1 0x0 PUSH2 0x293D PUSH1 0x15 DUP4 PUSH2 0x28F6 JUMP JUMPDEST SWAP2 POP PUSH2 0x2948 DUP3 PUSH2 0x2907 JUMP JUMPDEST PUSH1 0x20 DUP3 ADD SWAP1 POP SWAP2 SWAP1 POP JUMP JUMPDEST PUSH1 0x0 PUSH1 0x20 DUP3 ADD SWAP1 POP DUP2 DUP2 SUB PUSH1 0x0 DUP4 ADD MSTORE PUSH2 0x296C DUP2 PUSH2 0x2930 JUMP JUMPDEST SWAP1 POP SWAP2 SWAP1 POP JUMP JUMPDEST PUSH32 0x636F736D6F73206272696467652077617320737570706F727465642100000000 PUSH1 0x0 DUP3 ADD MSTORE POP JUMP JUMPDEST PUSH1 0x0 PUSH2 0x29A9 PUSH1 0x1C DUP4 PUSH2 0x28F6 JUMP JUMPDEST SWAP2 POP PUSH2 0x29B4 DUP3 PUSH2 0x2973 JUMP JUMPDEST PUSH1 0x20 DUP3 ADD SWAP1 POP SWAP2 SWAP1 POP JUMP JUMPDEST PUSH1 0x0 PUSH1 0x20 DUP3 ADD SWAP1 POP DUP2 DUP2 SUB PUSH1 0x0 DUP4 ADD MSTORE PUSH2 0x29D8 DUP2 PUSH2 0x299C JUMP JUMPDEST SWAP1 POP SWAP2 SWAP1 POP JUMP JUMPDEST PUSH1 0x0 DUP2 MLOAD SWAP1 POP SWAP2 SWAP1 POP JUMP JUMPDEST PUSH1 0x0 JUMPDEST DUP4 DUP2 LT ISZERO PUSH2 0x2A08 JUMPI DUP1 DUP3 ADD MLOAD DUP2 DUP5 ADD MSTORE PUSH1 0x20 DUP2 ADD SWAP1 POP PUSH2 0x29ED JUMP JUMPDEST PUSH1 0x0 DUP5 DUP5 ADD MSTORE POP POP POP POP JUMP JUMPDEST PUSH1 0x0 PUSH2 0x2A1F DUP3 PUSH2 0x29DF JUMP JUMPDEST PUSH2 0x2A29 DUP2 DUP6 PUSH2 0x28F6 JUMP JUMPDEST SWAP4 POP PUSH2 0x2A39 DUP2 DUP6 PUSH1 0x20 DUP7 ADD PUSH2 0x29EA JUMP JUMPDEST PUSH2 0x2A42 DUP2 PUSH2 0x225B JUMP JUMPDEST DUP5 ADD SWAP2 POP POP SWAP3 SWAP2 POP POP JUMP JUMPDEST PUSH1 0x0 PUSH1 0x20 DUP3 ADD SWAP1 POP DUP2 DUP2 SUB PUSH1 0x0 DUP4 ADD MSTORE PUSH2 0x2A67 DUP2 DUP5 PUSH2 0x2A14 JUMP JUMPDEST SWAP1 POP SWAP3 SWAP2 POP POP JUMP JUMPDEST PUSH1 0x0 DUP2 MLOAD SWAP1 POP PUSH2 0x2A7E DUP2 PUSH2 0x2068 JUMP JUMPDEST SWAP3 SWAP2 POP POP JUMP JUMPDEST PUSH1 0x0 PUSH1 0x20 DUP3 DUP5 SUB SLT ISZERO PUSH2 0x2A9A JUMPI PUSH2 0x2A99 PUSH2 0x1FD3 JUMP JUMPDEST JUMPDEST PUSH1 0x0 PUSH2 0x2AA8 DUP5 DUP3 DUP6 ADD PUSH2 0x2A6F JUMP JUMPDEST SWAP2 POP POP SWAP3 SWAP2 POP POP JUMP JUMPDEST PUSH32 0x4E6F7420737570706F7274207468697320746F6B656E00000000000000000000 PUSH1 0x0 DUP3 ADD MSTORE POP JUMP JUMPDEST PUSH1 0x0 PUSH2 0x2AE7 PUSH1 0x16 DUP4 PUSH2 0x28F6 JUMP JUMPDEST SWAP2 POP PUSH2 0x2AF2 DUP3 PUSH2 0x2AB1 JUMP JUMPDEST PUSH1 0x20 DUP3 ADD SWAP1 POP SWAP2 SWAP1 POP JUMP JUMPDEST PUSH1 0x0 PUSH1 0x20 DUP3 ADD SWAP1 POP DUP2 DUP2 SUB PUSH1 0x0 DUP4 ADD MSTORE PUSH2 0x2B16 DUP2 PUSH2 0x2ADA JUMP JUMPDEST SWAP1 POP SWAP2 SWAP1 POP JUMP JUMPDEST PUSH32 0x54686973206272696467652069736E277420737570706F727420666F7220636C PUSH1 0x0 DUP3 ADD MSTORE PUSH32 0x616D6D696E6720746F6B656E0000000000000000000000000000000000000000 PUSH1 0x20 DUP3 ADD MSTORE POP JUMP JUMPDEST PUSH1 0x0 PUSH2 0x2B79 PUSH1 0x2C DUP4 PUSH2 0x28F6 JUMP JUMPDEST SWAP2 POP PUSH2 0x2B84 DUP3 PUSH2 0x2B1D JUMP JUMPDEST PUSH1 0x40 DUP3 ADD SWAP1 POP SWAP2 SWAP1 POP JUMP JUMPDEST PUSH1 0x0 PUSH1 0x20 DUP3 ADD SWAP1 POP DUP2 DUP2 SUB PUSH1 0x0 DUP4 ADD MSTORE PUSH2 0x2BA8 DUP2 PUSH2 0x2B6C JUMP JUMPDEST SWAP1 POP SWAP2 SWAP1 POP JUMP JUMPDEST PUSH32 0x4465706F73697420726F6F7420697320696E76616C6964000000000000000000 PUSH1 0x0 DUP3 ADD MSTORE POP JUMP JUMPDEST PUSH1 0x0 PUSH2 0x2BE5 PUSH1 0x17 DUP4 PUSH2 0x28F6 JUMP JUMPDEST SWAP2 POP PUSH2 0x2BF0 DUP3 PUSH2 0x2BAF JUMP JUMPDEST PUSH1 0x20 DUP3 ADD SWAP1 POP SWAP2 SWAP1 POP JUMP JUMPDEST PUSH1 0x0 PUSH1 0x20 DUP3 ADD SWAP1 POP DUP2 DUP2 SUB PUSH1 0x0 DUP4 ADD MSTORE PUSH2 0x2C14 DUP2 PUSH2 0x2BD8 JUMP JUMPDEST SWAP1 POP SWAP2 SWAP1 POP JUMP JUMPDEST PUSH32 0x4E487B7100000000000000000000000000000000000000000000000000000000 PUSH1 0x0 MSTORE PUSH1 0x32 PUSH1 0x4 MSTORE PUSH1 0x24 PUSH1 0x0 REVERT JUMPDEST PUSH1 0x0 PUSH1 0x2 SWAP1 POP SWAP2 SWAP1 POP JUMP JUMPDEST PUSH1 0x0 DUP2 SWAP1 POP SWAP3 SWAP2 POP POP JUMP JUMPDEST PUSH1 0x0 DUP2 SWAP1 POP SWAP2 SWAP1 POP JUMP JUMPDEST PUSH2 0x2C73 DUP2 PUSH2 0x214E JUMP JUMPDEST DUP3 MSTORE POP POP JUMP JUMPDEST PUSH1 0x0 PUSH2 0x2C85 DUP4 DUP4 PUSH2 0x2C6A JUMP JUMPDEST PUSH1 0x20 DUP4 ADD SWAP1 POP SWAP3 SWAP2 POP POP JUMP JUMPDEST PUSH1 0x0 PUSH1 0x20 DUP3 ADD SWAP1 POP SWAP2 SWAP1 POP JUMP JUMPDEST PUSH2 0x2CA7 DUP2 PUSH2 0x2C4A JUMP JUMPDEST PUSH2 0x2CB1 DUP2 DUP5 PUSH2 0x2C55 JUMP JUMPDEST SWAP3 POP PUSH2 0x2CBC DUP3 PUSH2 0x2C60 JUMP JUMPDEST DUP1 PUSH1 0x0 JUMPDEST DUP4 DUP2 LT ISZERO PUSH2 0x2CED JUMPI DUP2 MLOAD PUSH2 0x2CD4 DUP8 DUP3 PUSH2 0x2C79 JUMP JUMPDEST SWAP7 POP PUSH2 0x2CDF DUP4 PUSH2 0x2C91 JUMP JUMPDEST SWAP3 POP POP PUSH1 0x1 DUP2 ADD SWAP1 POP PUSH2 0x2CC0 JUMP JUMPDEST POP POP POP POP POP POP JUMP JUMPDEST PUSH1 0x0 PUSH1 0x2 SWAP1 POP SWAP2 SWAP1 POP JUMP JUMPDEST PUSH1 0x0 DUP2 SWAP1 POP SWAP3 SWAP2 POP POP JUMP JUMPDEST PUSH1 0x0 DUP2 SWAP1 POP SWAP2 SWAP1 POP JUMP JUMPDEST PUSH1 0x0 DUP2 SWAP1 POP SWAP3 SWAP2 POP POP JUMP JUMPDEST PUSH2 0x2D29 DUP2 PUSH2 0x2C4A JUMP JUMPDEST PUSH2 0x2D33 DUP2 DUP5 PUSH2 0x2D15 JUMP JUMPDEST SWAP3 POP PUSH2 0x2D3E DUP3 PUSH2 0x2C60 JUMP JUMPDEST DUP1 PUSH1 0x0 JUMPDEST DUP4 DUP2 LT ISZERO PUSH2 0x2D6F JUMPI DUP2 MLOAD PUSH2 0x2D56 DUP8 DUP3 PUSH2 0x2C79 JUMP JUMPDEST SWAP7 POP PUSH2 0x2D61 DUP4 PUSH2 0x2C91 JUMP JUMPDEST SWAP3 POP POP PUSH1 0x1 DUP2 ADD SWAP1 POP PUSH2 0x2D42 JUMP JUMPDEST POP POP POP POP POP POP JUMP JUMPDEST PUSH1 0x0 PUSH2 0x2D83 DUP4 DUP4 PUSH2 0x2D20 JUMP JUMPDEST PUSH1 0x40 DUP4 ADD SWAP1 POP SWAP3 SWAP2 POP POP JUMP JUMPDEST PUSH1 0x0 PUSH1 0x20 DUP3 ADD SWAP1 POP SWAP2 SWAP1 POP JUMP JUMPDEST PUSH2 0x2DA5 DUP2 PUSH2 0x2CF5 JUMP JUMPDEST PUSH2 0x2DAF DUP2 DUP5 PUSH2 0x2D00 JUMP JUMPDEST SWAP3 POP PUSH2 0x2DBA DUP3 PUSH2 0x2D0B JUMP JUMPDEST DUP1 PUSH1 0x0 JUMPDEST DUP4 DUP2 LT ISZERO PUSH2 0x2DEB JUMPI DUP2 MLOAD PUSH2 0x2DD2 DUP8 DUP3 PUSH2 0x2D77 JUMP JUMPDEST SWAP7 POP PUSH2 0x2DDD DUP4 PUSH2 0x2D8F JUMP JUMPDEST SWAP3 POP POP PUSH1 0x1 DUP2 ADD SWAP1 POP PUSH2 0x2DBE JUMP JUMPDEST POP POP POP POP POP POP JUMP JUMPDEST PUSH1 0x0 DUP2 MLOAD SWAP1 POP SWAP2 SWAP1 POP JUMP JUMPDEST PUSH1 0x0 DUP3 DUP3 MSTORE PUSH1 0x20 DUP3 ADD SWAP1 POP SWAP3 SWAP2 POP POP JUMP JUMPDEST PUSH1 0x0 DUP2 SWAP1 POP PUSH1 0x20 DUP3 ADD SWAP1 POP SWAP2 SWAP1 POP JUMP JUMPDEST PUSH1 0x0 PUSH1 0x20 DUP3 ADD SWAP1 POP SWAP2 SWAP1 POP JUMP JUMPDEST PUSH1 0x0 PUSH2 0x2E37 DUP3 PUSH2 0x2DF3 JUMP JUMPDEST PUSH2 0x2E41 DUP2 DUP6 PUSH2 0x2DFE JUMP JUMPDEST SWAP4 POP PUSH2 0x2E4C DUP4 PUSH2 0x2E0F JUMP JUMPDEST DUP1 PUSH1 0x0 JUMPDEST DUP4 DUP2 LT ISZERO PUSH2 0x2E7D JUMPI DUP2 MLOAD PUSH2 0x2E64 DUP9 DUP3 PUSH2 0x2C79 JUMP JUMPDEST SWAP8 POP PUSH2 0x2E6F DUP4 PUSH2 0x2E1F JUMP JUMPDEST SWAP3 POP POP PUSH1 0x1 DUP2 ADD SWAP1 POP PUSH2 0x2E50 JUMP JUMPDEST POP DUP6 SWAP4 POP POP POP POP SWAP3 SWAP2 POP POP JUMP JUMPDEST PUSH1 0x0 PUSH2 0x120 DUP3 ADD SWAP1 POP PUSH2 0x2EA0 PUSH1 0x0 DUP4 ADD DUP8 PUSH2 0x2C9E JUMP JUMPDEST PUSH2 0x2EAD PUSH1 0x40 DUP4 ADD DUP7 PUSH2 0x2D9C JUMP JUMPDEST PUSH2 0x2EBA PUSH1 0xC0 DUP4 ADD DUP6 PUSH2 0x2C9E JUMP JUMPDEST DUP2 DUP2 SUB PUSH2 0x100 DUP4 ADD MSTORE PUSH2 0x2ECD DUP2 DUP5 PUSH2 0x2E2C JUMP JUMPDEST SWAP1 POP SWAP6 SWAP5 POP POP POP POP POP JUMP JUMPDEST PUSH1 0x0 DUP2 MLOAD SWAP1 POP PUSH2 0x2EE7 DUP2 PUSH2 0x218E JUMP JUMPDEST SWAP3 SWAP2 POP POP JUMP JUMPDEST PUSH1 0x0 PUSH1 0x20 DUP3 DUP5 SUB SLT ISZERO PUSH2 0x2F03 JUMPI PUSH2 0x2F02 PUSH2 0x1FD3 JUMP JUMPDEST JUMPDEST PUSH1 0x0 PUSH2 0x2F11 DUP5 DUP3 DUP6 ADD PUSH2 0x2ED8 JUMP JUMPDEST SWAP2 POP POP SWAP3 SWAP2 POP POP JUMP JUMPDEST PUSH32 0x496E76616C6964206465706F736974526F6F742070726F6F6600000000000000 PUSH1 0x0 DUP3 ADD MSTORE POP JUMP JUMPDEST PUSH1 0x0 PUSH2 0x2F50 PUSH1 0x19 DUP4 PUSH2 0x28F6 JUMP JUMPDEST SWAP2 POP PUSH2 0x2F5B DUP3 PUSH2 0x2F1A JUMP JUMPDEST PUSH1 0x20 DUP3 ADD SWAP1 POP SWAP2 SWAP1 POP JUMP JUMPDEST PUSH1 0x0 PUSH1 0x20 DUP3 ADD SWAP1 POP DUP2 DUP2 SUB PUSH1 0x0 DUP4 ADD MSTORE PUSH2 0x2F7F DUP2 PUSH2 0x2F43 JUMP JUMPDEST SWAP1 POP SWAP2 SWAP1 POP JUMP JUMPDEST PUSH1 0x0 PUSH1 0x40 DUP3 ADD SWAP1 POP PUSH2 0x2F9B PUSH1 0x0 DUP4 ADD DUP6 PUSH2 0x23E0 JUMP JUMPDEST PUSH2 0x2FA8 PUSH1 0x20 DUP4 ADD DUP5 PUSH2 0x2158 JUMP JUMPDEST SWAP4 SWAP3 POP POP POP JUMP JUMPDEST PUSH1 0x0 DUP2 SWAP1 POP SWAP3 SWAP2 POP POP JUMP JUMPDEST PUSH2 0x2FC3 DUP2 PUSH2 0x214E JUMP JUMPDEST DUP3 MSTORE POP POP JUMP JUMPDEST PUSH1 0x0 PUSH2 0x2FD5 DUP4 DUP4 PUSH2 0x2FBA JUMP JUMPDEST PUSH1 0x20 DUP4 ADD SWAP1 POP SWAP3 SWAP2 POP POP JUMP JUMPDEST PUSH1 0x0 PUSH2 0x2FEC DUP3 PUSH2 0x2DF3 JUMP JUMPDEST PUSH2 0x2FF6 DUP2 DUP6 PUSH2 0x2FAF JUMP JUMPDEST SWAP4 POP PUSH2 0x3001 DUP4 PUSH2 0x2E0F JUMP JUMPDEST DUP1 PUSH1 0x0 JUMPDEST DUP4 DUP2 LT ISZERO PUSH2 0x3032 JUMPI DUP2 MLOAD PUSH2 0x3019 DUP9 DUP3 PUSH2 0x2FC9 JUMP JUMPDEST SWAP8 POP PUSH2 0x3024 DUP4 PUSH2 0x2E1F JUMP JUMPDEST SWAP3 POP POP PUSH1 0x1 DUP2 ADD SWAP1 POP PUSH2 0x3005 JUMP JUMPDEST POP DUP6 SWAP4 POP POP POP POP SWAP3 SWAP2 POP POP JUMP JUMPDEST PUSH1 0x0 PUSH2 0x304B DUP3 DUP5 PUSH2 0x2FE1 JUMP JUMPDEST SWAP2 POP DUP2 SWAP1 POP SWAP3 SWAP2 POP POP JUMP JUMPDEST PUSH32 0x4E487B7100000000000000000000000000000000000000000000000000000000 PUSH1 0x0 MSTORE PUSH1 0x11 PUSH1 0x4 MSTORE PUSH1 0x24 PUSH1 0x0 REVERT JUMPDEST PUSH1 0x0 PUSH2 0x3090 DUP3 PUSH2 0x214E JUMP JUMPDEST SWAP2 POP PUSH1 0x0 DUP3 SUB PUSH2 0x30A3 JUMPI PUSH2 0x30A2 PUSH2 0x3056 JUMP JUMPDEST JUMPDEST PUSH1 0x1 DUP3 SUB SWAP1 POP SWAP2 SWAP1 POP JUMP JUMPDEST PUSH32 0x446F206E6F7420737570706F7274207468697320627269646765000000000000 PUSH1 0x0 DUP3 ADD MSTORE POP JUMP JUMPDEST PUSH1 0x0 PUSH2 0x30E4 PUSH1 0x1A DUP4 PUSH2 0x28F6 JUMP JUMPDEST SWAP2 POP PUSH2 0x30EF DUP3 PUSH2 0x30AE JUMP JUMPDEST PUSH1 0x20 DUP3 ADD SWAP1 POP SWAP2 SWAP1 POP JUMP JUMPDEST PUSH1 0x0 PUSH1 0x20 DUP3 ADD SWAP1 POP DUP2 DUP2 SUB PUSH1 0x0 DUP4 ADD MSTORE PUSH2 0x3113 DUP2 PUSH2 0x30D7 JUMP JUMPDEST SWAP1 POP SWAP2 SWAP1 POP JUMP JUMPDEST PUSH1 0x0 DUP2 MLOAD SWAP1 POP PUSH2 0x3129 DUP2 PUSH2 0x1FFD JUMP JUMPDEST SWAP3 SWAP2 POP POP JUMP JUMPDEST PUSH1 0x0 PUSH1 0x20 DUP3 DUP5 SUB SLT ISZERO PUSH2 0x3145 JUMPI PUSH2 0x3144 PUSH2 0x1FD3 JUMP JUMPDEST JUMPDEST PUSH1 0x0 PUSH2 0x3153 DUP5 DUP3 DUP6 ADD PUSH2 0x311A JUMP JUMPDEST SWAP2 POP POP SWAP3 SWAP2 POP POP JUMP JUMPDEST PUSH32 0x44617461206861736820697320696E76616C6964210000000000000000000000 PUSH1 0x0 DUP3 ADD MSTORE POP JUMP JUMPDEST PUSH1 0x0 PUSH2 0x3192 PUSH1 0x15 DUP4 PUSH2 0x28F6 JUMP JUMPDEST SWAP2 POP PUSH2 0x319D DUP3 PUSH2 0x315C JUMP JUMPDEST PUSH1 0x20 DUP3 ADD SWAP1 POP SWAP2 SWAP1 POP JUMP JUMPDEST PUSH1 0x0 PUSH1 0x20 DUP3 ADD SWAP1 POP DUP2 DUP2 SUB PUSH1 0x0 DUP4 ADD MSTORE PUSH2 0x31C1 DUP2 PUSH2 0x3185 JUMP JUMPDEST SWAP1 POP SWAP2 SWAP1 POP JUMP JUMPDEST PUSH32 0x496E697469616C697A61626C653A20636F6E747261637420697320616C726561 PUSH1 0x0 DUP3 ADD MSTORE PUSH32 0x647920696E697469616C697A6564000000000000000000000000000000000000 PUSH1 0x20 DUP3 ADD MSTORE POP JUMP JUMPDEST PUSH1 0x0 PUSH2 0x3224 PUSH1 0x2E DUP4 PUSH2 0x28F6 JUMP JUMPDEST SWAP2 POP PUSH2 0x322F DUP3 PUSH2 0x31C8 JUMP JUMPDEST PUSH1 0x40 DUP3 ADD SWAP1 POP SWAP2 SWAP1 POP JUMP JUMPDEST PUSH1 0x0 PUSH1 0x20 DUP3 ADD SWAP1 POP DUP2 DUP2 SUB PUSH1 0x0 DUP4 ADD MSTORE PUSH2 0x3253 DUP2 PUSH2 0x3217 JUMP JUMPDEST SWAP1 POP SWAP2 SWAP1 POP JUMP JUMPDEST PUSH32 0x42726964676520697320616C726561647920696E697469616C697A6564000000 PUSH1 0x0 DUP3 ADD MSTORE POP JUMP JUMPDEST PUSH1 0x0 PUSH2 0x3290 PUSH1 0x1D DUP4 PUSH2 0x28F6 JUMP JUMPDEST SWAP2 POP PUSH2 0x329B DUP3 PUSH2 0x325A JUMP JUMPDEST PUSH1 0x20 DUP3 ADD SWAP1 POP SWAP2 SWAP1 POP JUMP JUMPDEST PUSH1 0x0 PUSH1 0x20 DUP3 ADD SWAP1 POP DUP2 DUP2 SUB PUSH1 0x0 DUP4 ADD MSTORE PUSH2 0x32BF DUP2 PUSH2 0x3283 JUMP JUMPDEST SWAP1 POP SWAP2 SWAP1 POP JUMP JUMPDEST PUSH1 0x0 DUP2 SWAP1 POP SWAP2 SWAP1 POP JUMP JUMPDEST PUSH1 0x0 PUSH1 0xFF DUP3 AND SWAP1 POP SWAP2 SWAP1 POP JUMP JUMPDEST PUSH1 0x0 PUSH2 0x32F8 PUSH2 0x32F3 PUSH2 0x32EE DUP5 PUSH2 0x32C6 JUMP JUMPDEST PUSH2 0x20D4 JUMP JUMPDEST PUSH2 0x32D0 JUMP JUMPDEST SWAP1 POP SWAP2 SWAP1 POP JUMP JUMPDEST PUSH2 0x3308 DUP2 PUSH2 0x32DD JUMP JUMPDEST DUP3 MSTORE POP POP JUMP JUMPDEST PUSH1 0x0 PUSH1 0x20 DUP3 ADD SWAP1 POP PUSH2 0x3323 PUSH1 0x0 DUP4 ADD DUP5 PUSH2 0x32FF JUMP JUMPDEST SWAP3 SWAP2 POP POP JUMP JUMPDEST PUSH32 0x4F776E61626C653A206E6577206F776E657220697320746865207A65726F2061 PUSH1 0x0 DUP3 ADD MSTORE PUSH32 0x6464726573730000000000000000000000000000000000000000000000000000 PUSH1 0x20 DUP3 ADD MSTORE POP JUMP JUMPDEST PUSH1 0x0 PUSH2 0x3385 PUSH1 0x26 DUP4 PUSH2 0x28F6 JUMP JUMPDEST SWAP2 POP PUSH2 0x3390 DUP3 PUSH2 0x3329 JUMP JUMPDEST PUSH1 0x40 DUP3 ADD SWAP1 POP SWAP2 SWAP1 POP JUMP JUMPDEST PUSH1 0x0 PUSH1 0x20 DUP3 ADD SWAP1 POP DUP2 DUP2 SUB PUSH1 0x0 DUP4 ADD MSTORE PUSH2 0x33B4 DUP2 PUSH2 0x3378 JUMP JUMPDEST SWAP1 POP SWAP2 SWAP1 POP JUMP JUMPDEST PUSH32 0x4F776E61626C653A2063616C6C6572206973206E6F7420746865206F776E6572 PUSH1 0x0 DUP3 ADD MSTORE POP JUMP JUMPDEST PUSH1 0x0 PUSH2 0x33F1 PUSH1 0x20 DUP4 PUSH2 0x28F6 JUMP JUMPDEST SWAP2 POP PUSH2 0x33FC DUP3 PUSH2 0x33BB JUMP JUMPDEST PUSH1 0x20 DUP3 ADD SWAP1 POP SWAP2 SWAP1 POP JUMP JUMPDEST PUSH1 0x0 PUSH1 0x20 DUP3 ADD SWAP1 POP DUP2 DUP2 SUB PUSH1 0x0 DUP4 ADD MSTORE PUSH2 0x3420 DUP2 PUSH2 0x33E4 JUMP JUMPDEST SWAP1 POP SWAP2 SWAP1 POP JUMP JUMPDEST PUSH32 0x5061757361626C653A2070617573656400000000000000000000000000000000 PUSH1 0x0 DUP3 ADD MSTORE POP JUMP JUMPDEST PUSH1 0x0 PUSH2 0x345D PUSH1 0x10 DUP4 PUSH2 0x28F6 JUMP JUMPDEST SWAP2 POP PUSH2 0x3468 DUP3 PUSH2 0x3427 JUMP JUMPDEST PUSH1 0x20 DUP3 ADD SWAP1 POP SWAP2 SWAP1 POP JUMP JUMPDEST PUSH1 0x0 PUSH1 0x20 DUP3 ADD SWAP1 POP DUP2 DUP2 SUB PUSH1 0x0 DUP4 ADD MSTORE PUSH2 0x348C DUP2 PUSH2 0x3450 JUMP JUMPDEST SWAP1 POP SWAP2 SWAP1 POP JUMP JUMPDEST PUSH1 0x0 PUSH2 0x349E DUP3 PUSH2 0x214E JUMP JUMPDEST SWAP2 POP PUSH2 0x34A9 DUP4 PUSH2 0x214E JUMP JUMPDEST SWAP3 POP DUP3 DUP3 ADD SWAP1 POP DUP1 DUP3 GT ISZERO PUSH2 0x34C1 JUMPI PUSH2 0x34C0 PUSH2 0x3056 JUMP JUMPDEST JUMPDEST SWAP3 SWAP2 POP POP JUMP JUMPDEST PUSH32 0x4E487B7100000000000000000000000000000000000000000000000000000000 PUSH1 0x0 MSTORE PUSH1 0x12 PUSH1 0x4 MSTORE PUSH1 0x24 PUSH1 0x0 REVERT JUMPDEST PUSH1 0x0 PUSH2 0x3501 DUP3 PUSH2 0x214E JUMP JUMPDEST SWAP2 POP PUSH2 0x350C DUP4 PUSH2 0x214E JUMP JUMPDEST SWAP3 POP DUP3 PUSH2 0x351C JUMPI PUSH2 0x351B PUSH2 0x34C7 JUMP JUMPDEST JUMPDEST DUP3 DUP3 MOD SWAP1 POP SWAP3 SWAP2 POP POP JUMP JUMPDEST PUSH32 0x496E697469616C697A61626C653A20636F6E7472616374206973206E6F742069 PUSH1 0x0 DUP3 ADD MSTORE PUSH32 0x6E697469616C697A696E67000000000000000000000000000000000000000000 PUSH1 0x20 DUP3 ADD MSTORE POP JUMP JUMPDEST PUSH1 0x0 PUSH2 0x3583 PUSH1 0x2B DUP4 PUSH2 0x28F6 JUMP JUMPDEST SWAP2 POP PUSH2 0x358E DUP3 PUSH2 0x3527 JUMP JUMPDEST PUSH1 0x40 DUP3 ADD SWAP1 POP SWAP2 SWAP1 POP JUMP JUMPDEST PUSH1 0x0 PUSH1 0x20 DUP3 ADD SWAP1 POP DUP2 DUP2 SUB PUSH1 0x0 DUP4 ADD MSTORE PUSH2 0x35B2 DUP2 PUSH2 0x3576 JUMP JUMPDEST SWAP1 POP SWAP2 SWAP1 POP JUMP JUMPDEST PUSH32 0x5F6C6576656C732073686F756C642062652067726561746572207468616E207A PUSH1 0x0 DUP3 ADD MSTORE PUSH32 0x65726F0000000000000000000000000000000000000000000000000000000000 PUSH1 0x20 DUP3 ADD MSTORE POP JUMP JUMPDEST PUSH1 0x0 PUSH2 0x3615 PUSH1 0x23 DUP4 PUSH2 0x28F6 JUMP JUMPDEST SWAP2 POP PUSH2 0x3620 DUP3 PUSH2 0x35B9 JUMP JUMPDEST PUSH1 0x40 DUP3 ADD SWAP1 POP SWAP2 SWAP1 POP JUMP JUMPDEST PUSH1 0x0 PUSH1 0x20 DUP3 ADD SWAP1 POP DUP2 DUP2 SUB PUSH1 0x0 DUP4 ADD MSTORE PUSH2 0x3644 DUP2 PUSH2 0x3608 JUMP JUMPDEST SWAP1 POP SWAP2 SWAP1 POP JUMP JUMPDEST PUSH32 0x5F6C6576656C732073686F756C64206265206C657373207468616E2034300000 PUSH1 0x0 DUP3 ADD MSTORE POP JUMP JUMPDEST PUSH1 0x0 PUSH2 0x3681 PUSH1 0x1E DUP4 PUSH2 0x28F6 JUMP JUMPDEST SWAP2 POP PUSH2 0x368C DUP3 PUSH2 0x364B JUMP JUMPDEST PUSH1 0x20 DUP3 ADD SWAP1 POP SWAP2 SWAP1 POP JUMP JUMPDEST PUSH1 0x0 PUSH1 0x20 DUP3 ADD SWAP1 POP DUP2 DUP2 SUB PUSH1 0x0 DUP4 ADD MSTORE PUSH2 0x36B0 DUP2 PUSH2 0x3674 JUMP JUMPDEST SWAP1 POP SWAP2 SWAP1 POP JUMP JUMPDEST PUSH32 0x5061757361626C653A206E6F7420706175736564000000000000000000000000 PUSH1 0x0 DUP3 ADD MSTORE POP JUMP JUMPDEST PUSH1 0x0 PUSH2 0x36ED PUSH1 0x14 DUP4 PUSH2 0x28F6 JUMP JUMPDEST SWAP2 POP PUSH2 0x36F8 DUP3 PUSH2 0x36B7 JUMP JUMPDEST PUSH1 0x20 DUP3 ADD SWAP1 POP SWAP2 SWAP1 POP JUMP JUMPDEST PUSH1 0x0 PUSH1 0x20 DUP3 ADD SWAP1 POP DUP2 DUP2 SUB PUSH1 0x0 DUP4 ADD MSTORE PUSH2 0x371C DUP2 PUSH2 0x36E0 JUMP JUMPDEST SWAP1 POP SWAP2 SWAP1 POP JUMP INVALID LOG2 PUSH5 0x6970667358 0x22 SLT KECCAK256 PUSH14 0x7F74EB09F8D8FA1D40A6D9B932F7 0x5C PUSH24 0x8FEBBC751ECFCD51373607A7C735D164736F6C6343000812 STOP CALLER "
				},
				"gasEstimates": {
					"creation": {
						"codeDepositCost": "2833800",
						"executionCost": "3092",
						"totalCost": "2836892"
					},
					"external": {
						"ROOT_HISTORY_SIZE()": "2473",
						"claimTransaction((string,uint256[2],uint256[2][2],uint256[2],address,address,uint256,uint160,uint256))": "infinite",
						"cosmosToEthTokenAddress(uint160)": "infinite",
						"currentDepositRoot()": "2474",
						"deleteTokenPair(uint160)": "53653",
						"depositRoots(uint256)": "infinite",
						"ethToCosmosTokenAddress(address)": "infinite",
						"getLastDepositRoot()": "4705",
						"getSupportCosmosBridge(uint160)": "2908",
						"getTokenPairOfCosmosToken(uint160)": "infinite",
						"getTokenPairOfEthToken(address)": "infinite",
						"initialize(address,uint32)": "257160",
						"isClaimed(uint256)": "2863",
						"isKnownDepostRoot(uint256)": "infinite",
						"isSupportCosmosBridge(uint160)": "2868",
						"levels()": "2497",
						"libAddressManager()": "infinite",
						"owner()": "2568",
						"pause()": "infinite",
						"paused()": "2524",
						"registerCosmosBridge(uint160,bool)": "31800",
						"registerTokenPair(uint160,address)": "infinite",
						"renounceOwnership()": "30465",
						"resolve(string)": "infinite",
						"transferOwnership(address)": "30854",
						"unpauseContract()": "infinite",
						"updateRootDepositTree((string,uint256[2],uint256[2][2],uint256[2],uint160,uint160,uint256,uint160))": "infinite"
					},
					"internal": {
						"_verifyProof(string memory,uint256[2] memory,uint256[2] memory[2] memory,uint256[2] memory,uint256[] memory)": "infinite"
					}
				},
				"methodIdentifiers": {
					"ROOT_HISTORY_SIZE()": "cd87a3b4",
					"claimTransaction((string,uint256[2],uint256[2][2],uint256[2],address,address,uint256,uint160,uint256))": "517b0dc1",
					"cosmosToEthTokenAddress(uint160)": "bf60f954",
					"currentDepositRoot()": "9df22cd5",
					"deleteTokenPair(uint160)": "04ac7468",
					"depositRoots(uint256)": "9ef46d0f",
					"ethToCosmosTokenAddress(address)": "41cfc054",
					"getLastDepositRoot()": "2cd4300c",
					"getSupportCosmosBridge(uint160)": "8e3327fa",
					"getTokenPairOfCosmosToken(uint160)": "e80b885b",
					"getTokenPairOfEthToken(address)": "9139153f",
					"initialize(address,uint32)": "c5e4c9f9",
					"isClaimed(uint256)": "9e34070f",
					"isKnownDepostRoot(uint256)": "7ae1293f",
					"isSupportCosmosBridge(uint160)": "dcc4dcd2",
					"levels()": "4ecf518b",
					"libAddressManager()": "299ca478",
					"owner()": "8da5cb5b",
					"pause()": "8456cb59",
					"paused()": "5c975abb",
					"registerCosmosBridge(uint160,bool)": "3c975edb",
					"registerTokenPair(uint160,address)": "1c00464e",
					"renounceOwnership()": "715018a6",
					"resolve(string)": "461a4478",
					"transferOwnership(address)": "f2fde38b",
					"unpauseContract()": "b33712c5",
					"updateRootDepositTree((string,uint256[2],uint256[2][2],uint256[2],uint160,uint160,uint256,uint160))": "af00aa92"
				}
			},
			"storageLayout": {
				"storage": [
					{
						"astId": 138,
						"contract": "contracts/ethBridge/OraisanBridge.sol:OraisanBridge",
						"label": "_initialized",
						"offset": 0,
						"slot": "0",
						"type": "t_uint8"
					},
					{
						"astId": 141,
						"contract": "contracts/ethBridge/OraisanBridge.sol:OraisanBridge",
						"label": "_initializing",
						"offset": 1,
						"slot": "0",
						"type": "t_bool"
					},
					{
						"astId": 1918,
						"contract": "contracts/ethBridge/OraisanBridge.sol:OraisanBridge",
						"label": "libAddressManager",
						"offset": 2,
						"slot": "0",
						"type": "t_contract(Lib_AddressManager)1907"
					},
					{
						"astId": 833,
						"contract": "contracts/ethBridge/OraisanBridge.sol:OraisanBridge",
						"label": "ROOT_HISTORY_SIZE",
						"offset": 0,
						"slot": "1",
						"type": "t_uint256"
					},
					{
						"astId": 835,
						"contract": "contracts/ethBridge/OraisanBridge.sol:OraisanBridge",
						"label": "levels",
						"offset": 0,
						"slot": "2",
						"type": "t_uint256"
					},
					{
						"astId": 837,
						"contract": "contracts/ethBridge/OraisanBridge.sol:OraisanBridge",
						"label": "currentDepositRoot",
						"offset": 0,
						"slot": "3",
						"type": "t_uint256"
					},
					{
						"astId": 841,
						"contract": "contracts/ethBridge/OraisanBridge.sol:OraisanBridge",
						"label": "depositRoots",
						"offset": 0,
						"slot": "4",
						"type": "t_mapping(t_uint256,t_uint256)"
					},
					{
						"astId": 825,
						"contract": "contracts/ethBridge/OraisanBridge.sol:OraisanBridge",
						"label": "__gap",
						"offset": 0,
						"slot": "5",
						"type": "t_array(t_uint256)50_storage"
					},
					{
						"astId": 10,
						"contract": "contracts/ethBridge/OraisanBridge.sol:OraisanBridge",
						"label": "_owner",
						"offset": 0,
						"slot": "55",
						"type": "t_address"
					},
					{
						"astId": 130,
						"contract": "contracts/ethBridge/OraisanBridge.sol:OraisanBridge",
						"label": "__gap",
						"offset": 0,
						"slot": "56",
						"type": "t_array(t_uint256)49_storage"
					},
					{
						"astId": 321,
						"contract": "contracts/ethBridge/OraisanBridge.sol:OraisanBridge",
						"label": "_paused",
						"offset": 0,
						"slot": "105",
						"type": "t_bool"
					},
					{
						"astId": 426,
						"contract": "contracts/ethBridge/OraisanBridge.sol:OraisanBridge",
						"label": "__gap",
						"offset": 0,
						"slot": "106",
						"type": "t_array(t_uint256)49_storage"
					},
					{
						"astId": 441,
						"contract": "contracts/ethBridge/OraisanBridge.sol:OraisanBridge",
						"label": "_status",
						"offset": 0,
						"slot": "155",
						"type": "t_uint256"
					},
					{
						"astId": 499,
						"contract": "contracts/ethBridge/OraisanBridge.sol:OraisanBridge",
						"label": "__gap",
						"offset": 0,
						"slot": "156",
						"type": "t_array(t_uint256)49_storage"
					},
					{
						"astId": 1028,
						"contract": "contracts/ethBridge/OraisanBridge.sol:OraisanBridge",
						"label": "isSupportCosmosBridge",
						"offset": 0,
						"slot": "205",
						"type": "t_mapping(t_uint160,t_bool)"
					},
					{
						"astId": 1032,
						"contract": "contracts/ethBridge/OraisanBridge.sol:OraisanBridge",
						"label": "cosmosToEthTokenAddress",
						"offset": 0,
						"slot": "206",
						"type": "t_mapping(t_uint160,t_address)"
					},
					{
						"astId": 1036,
						"contract": "contracts/ethBridge/OraisanBridge.sol:OraisanBridge",
						"label": "ethToCosmosTokenAddress",
						"offset": 0,
						"slot": "207",
						"type": "t_mapping(t_address,t_uint160)"
					},
					{
						"astId": 1040,
						"contract": "contracts/ethBridge/OraisanBridge.sol:OraisanBridge",
						"label": "isClaimed",
						"offset": 0,
						"slot": "208",
						"type": "t_mapping(t_uint256,t_bool)"
					}
				],
				"types": {
					"t_address": {
						"encoding": "inplace",
						"label": "address",
						"numberOfBytes": "20"
					},
					"t_array(t_uint256)49_storage": {
						"base": "t_uint256",
						"encoding": "inplace",
						"label": "uint256[49]",
						"numberOfBytes": "1568"
					},
					"t_array(t_uint256)50_storage": {
						"base": "t_uint256",
						"encoding": "inplace",
						"label": "uint256[50]",
						"numberOfBytes": "1600"
					},
					"t_bool": {
						"encoding": "inplace",
						"label": "bool",
						"numberOfBytes": "1"
					},
					"t_contract(Lib_AddressManager)1907": {
						"encoding": "inplace",
						"label": "contract Lib_AddressManager",
						"numberOfBytes": "20"
					},
					"t_mapping(t_address,t_uint160)": {
						"encoding": "mapping",
						"key": "t_address",
						"label": "mapping(address => uint160)",
						"numberOfBytes": "32",
						"value": "t_uint160"
					},
					"t_mapping(t_uint160,t_address)": {
						"encoding": "mapping",
						"key": "t_uint160",
						"label": "mapping(uint160 => address)",
						"numberOfBytes": "32",
						"value": "t_address"
					},
					"t_mapping(t_uint160,t_bool)": {
						"encoding": "mapping",
						"key": "t_uint160",
						"label": "mapping(uint160 => bool)",
						"numberOfBytes": "32",
						"value": "t_bool"
					},
					"t_mapping(t_uint256,t_bool)": {
						"encoding": "mapping",
						"key": "t_uint256",
						"label": "mapping(uint256 => bool)",
						"numberOfBytes": "32",
						"value": "t_bool"
					},
					"t_mapping(t_uint256,t_uint256)": {
						"encoding": "mapping",
						"key": "t_uint256",
						"label": "mapping(uint256 => uint256)",
						"numberOfBytes": "32",
						"value": "t_uint256"
					},
					"t_uint160": {
						"encoding": "inplace",
						"label": "uint160",
						"numberOfBytes": "20"
					},
					"t_uint256": {
						"encoding": "inplace",
						"label": "uint256",
						"numberOfBytes": "32"
					},
					"t_uint8": {
						"encoding": "inplace",
						"label": "uint8",
						"numberOfBytes": "1"
					}
				}
			},
			"userdoc": {
				"kind": "user",
				"methods": {
					"pause()": {
						"notice": "Pause relaying."
					}
				},
				"version": 1
			}
		}
	}
}