{
	"contracts/ethBridge/MerkleTreeWithHistory.sol": {
		"MerkleTreeWithHistory": {
			"abi": [
				{
					"anonymous": false,
					"inputs": [
						{
							"indexed": false,
							"internalType": "uint8",
							"name": "version",
							"type": "uint8"
						}
					],
					"name": "Initialized",
					"type": "event"
				},
				{
					"inputs": [],
					"name": "ROOT_HISTORY_SIZE",
					"outputs": [
						{
							"internalType": "uint256",
							"name": "",
							"type": "uint256"
						}
					],
					"stateMutability": "view",
					"type": "function"
				},
				{
					"inputs": [],
					"name": "currentDepositRoot",
					"outputs": [
						{
							"internalType": "uint256",
							"name": "",
							"type": "uint256"
						}
					],
					"stateMutability": "view",
					"type": "function"
				},
				{
					"inputs": [
						{
							"internalType": "uint256",
							"name": "",
							"type": "uint256"
						}
					],
					"name": "depositRoots",
					"outputs": [
						{
							"internalType": "uint256",
							"name": "",
							"type": "uint256"
						}
					],
					"stateMutability": "view",
					"type": "function"
				},
				{
					"inputs": [],
					"name": "getLastDepositRoot",
					"outputs": [
						{
							"internalType": "uint256",
							"name": "",
							"type": "uint256"
						}
					],
					"stateMutability": "view",
					"type": "function"
				},
				{
					"inputs": [
						{
							"internalType": "uint256",
							"name": "_depositRoot",
							"type": "uint256"
						}
					],
					"name": "isKnownDepostRoot",
					"outputs": [
						{
							"internalType": "bool",
							"name": "",
							"type": "bool"
						}
					],
					"stateMutability": "view",
					"type": "function"
				},
				{
					"inputs": [],
					"name": "levels",
					"outputs": [
						{
							"internalType": "uint256",
							"name": "",
							"type": "uint256"
						}
					],
					"stateMutability": "view",
					"type": "function"
				}
			],
			"devdoc": {
				"events": {
					"Initialized(uint8)": {
						"details": "Triggered when the contract has been initialized or reinitialized."
					}
				},
				"kind": "dev",
				"methods": {
					"getLastDepositRoot()": {
						"details": "Returns the last root claim"
					},
					"isKnownDepostRoot(uint256)": {
						"details": "Whether the root is present in the root history"
					}
				},
				"version": 1
			},
			"evm": {
				"assembly": "    /* \"contracts/ethBridge/MerkleTreeWithHistory.sol\":138:2679  contract MerkleTreeWithHistory is Initializable {... */\n  mstore(0x40, 0x80)\n  callvalue\n  dup1\n  iszero\n  tag_1\n  jumpi\n  0x00\n  dup1\n  revert\ntag_1:\n  pop\n  dataSize(sub_0)\n  dup1\n  dataOffset(sub_0)\n  0x00\n  codecopy\n  0x00\n  return\nstop\n\nsub_0: assembly {\n        /* \"contracts/ethBridge/MerkleTreeWithHistory.sol\":138:2679  contract MerkleTreeWithHistory is Initializable {... */\n      mstore(0x40, 0x80)\n      callvalue\n      dup1\n      iszero\n      tag_1\n      jumpi\n      0x00\n      dup1\n      revert\n    tag_1:\n      pop\n      jumpi(tag_2, lt(calldatasize, 0x04))\n      shr(0xe0, calldataload(0x00))\n      dup1\n      0x2cd4300c\n      eq\n      tag_3\n      jumpi\n      dup1\n      0x4ecf518b\n      eq\n      tag_4\n      jumpi\n      dup1\n      0x7ae1293f\n      eq\n      tag_5\n      jumpi\n      dup1\n      0x9df22cd5\n      eq\n      tag_6\n      jumpi\n      dup1\n      0x9ef46d0f\n      eq\n      tag_7\n      jumpi\n      dup1\n      0xcd87a3b4\n      eq\n      tag_8\n      jumpi\n    tag_2:\n      0x00\n      dup1\n      revert\n        /* \"contracts/ethBridge/MerkleTreeWithHistory.sol\":2561:2677  function getLastDepositRoot() public view returns (uint256) {... */\n    tag_3:\n      tag_9\n      tag_10\n      jump\t// in\n    tag_9:\n      mload(0x40)\n      tag_11\n      swap2\n      swap1\n      tag_12\n      jump\t// in\n    tag_11:\n      mload(0x40)\n      dup1\n      swap2\n      sub\n      swap1\n      return\n        /* \"contracts/ethBridge/MerkleTreeWithHistory.sol\":231:252  uint256 public levels */\n    tag_4:\n      tag_13\n      tag_14\n      jump\t// in\n    tag_13:\n      mload(0x40)\n      tag_15\n      swap2\n      swap1\n      tag_12\n      jump\t// in\n    tag_15:\n      mload(0x40)\n      dup1\n      swap2\n      sub\n      swap1\n      return\n        /* \"contracts/ethBridge/MerkleTreeWithHistory.sol\":1985:2505  function isKnownDepostRoot(uint256 _depositRoot) public view returns (bool) {... */\n    tag_5:\n      tag_16\n      0x04\n      dup1\n      calldatasize\n      sub\n      dup2\n      add\n      swap1\n      tag_17\n      swap2\n      swap1\n      tag_18\n      jump\t// in\n    tag_17:\n      tag_19\n      jump\t// in\n    tag_16:\n      mload(0x40)\n      tag_20\n      swap2\n      swap1\n      tag_21\n      jump\t// in\n    tag_20:\n      mload(0x40)\n      dup1\n      swap2\n      sub\n      swap1\n      return\n        /* \"contracts/ethBridge/MerkleTreeWithHistory.sol\":258:291  uint256 public currentDepositRoot */\n    tag_6:\n      tag_22\n      tag_23\n      jump\t// in\n    tag_22:\n      mload(0x40)\n      tag_24\n      swap2\n      swap1\n      tag_12\n      jump\t// in\n    tag_24:\n      mload(0x40)\n      dup1\n      swap2\n      sub\n      swap1\n      return\n        /* \"contracts/ethBridge/MerkleTreeWithHistory.sol\":298:345  mapping(uint256 => uint256) public depositRoots */\n    tag_7:\n      tag_25\n      0x04\n      dup1\n      calldatasize\n      sub\n      dup2\n      add\n      swap1\n      tag_26\n      swap2\n      swap1\n      tag_18\n      jump\t// in\n    tag_26:\n      tag_27\n      jump\t// in\n    tag_25:\n      mload(0x40)\n      tag_28\n      swap2\n      swap1\n      tag_12\n      jump\t// in\n    tag_28:\n      mload(0x40)\n      dup1\n      swap2\n      sub\n      swap1\n      return\n        /* \"contracts/ethBridge/MerkleTreeWithHistory.sol\":192:224  uint256 public ROOT_HISTORY_SIZE */\n    tag_8:\n      tag_29\n      tag_30\n      jump\t// in\n    tag_29:\n      mload(0x40)\n      tag_31\n      swap2\n      swap1\n      tag_12\n      jump\t// in\n    tag_31:\n      mload(0x40)\n      dup1\n      swap2\n      sub\n      swap1\n      return\n        /* \"contracts/ethBridge/MerkleTreeWithHistory.sol\":2561:2677  function getLastDepositRoot() public view returns (uint256) {... */\n    tag_10:\n        /* \"contracts/ethBridge/MerkleTreeWithHistory.sol\":2612:2619  uint256 */\n      0x00\n        /* \"contracts/ethBridge/MerkleTreeWithHistory.sol\":2638:2650  depositRoots */\n      0x04\n        /* \"contracts/ethBridge/MerkleTreeWithHistory.sol\":2638:2670  depositRoots[currentDepositRoot] */\n      0x00\n        /* \"contracts/ethBridge/MerkleTreeWithHistory.sol\":2651:2669  currentDepositRoot */\n      sload(0x03)\n        /* \"contracts/ethBridge/MerkleTreeWithHistory.sol\":2638:2670  depositRoots[currentDepositRoot] */\n      dup2\n      mstore\n      0x20\n      add\n      swap1\n      dup2\n      mstore\n      0x20\n      add\n      0x00\n      keccak256\n      sload\n        /* \"contracts/ethBridge/MerkleTreeWithHistory.sol\":2631:2670  return depositRoots[currentDepositRoot] */\n      swap1\n      pop\n        /* \"contracts/ethBridge/MerkleTreeWithHistory.sol\":2561:2677  function getLastDepositRoot() public view returns (uint256) {... */\n      swap1\n      jump\t// out\n        /* \"contracts/ethBridge/MerkleTreeWithHistory.sol\":231:252  uint256 public levels */\n    tag_14:\n      sload(0x02)\n      dup2\n      jump\t// out\n        /* \"contracts/ethBridge/MerkleTreeWithHistory.sol\":1985:2505  function isKnownDepostRoot(uint256 _depositRoot) public view returns (bool) {... */\n    tag_19:\n        /* \"contracts/ethBridge/MerkleTreeWithHistory.sol\":2055:2059  bool */\n      0x00\n        /* \"contracts/ethBridge/MerkleTreeWithHistory.sol\":2091:2092  0 */\n      dup1\n        /* \"contracts/ethBridge/MerkleTreeWithHistory.sol\":2075:2087  _depositRoot */\n      dup3\n        /* \"contracts/ethBridge/MerkleTreeWithHistory.sol\":2075:2092  _depositRoot == 0 */\n      sub\n        /* \"contracts/ethBridge/MerkleTreeWithHistory.sol\":2071:2131  if (_depositRoot == 0) {... */\n      tag_34\n      jumpi\n        /* \"contracts/ethBridge/MerkleTreeWithHistory.sol\":2115:2120  false */\n      0x00\n        /* \"contracts/ethBridge/MerkleTreeWithHistory.sol\":2108:2120  return false */\n      swap1\n      pop\n      jump(tag_33)\n        /* \"contracts/ethBridge/MerkleTreeWithHistory.sol\":2071:2131  if (_depositRoot == 0) {... */\n    tag_34:\n        /* \"contracts/ethBridge/MerkleTreeWithHistory.sol\":2140:2167  uint256 _currentDepositRoot */\n      0x00\n        /* \"contracts/ethBridge/MerkleTreeWithHistory.sol\":2170:2188  currentDepositRoot */\n      sload(0x03)\n        /* \"contracts/ethBridge/MerkleTreeWithHistory.sol\":2140:2188  uint256 _currentDepositRoot = currentDepositRoot */\n      swap1\n      pop\n        /* \"contracts/ethBridge/MerkleTreeWithHistory.sol\":2198:2207  uint256 i */\n      0x00\n        /* \"contracts/ethBridge/MerkleTreeWithHistory.sol\":2210:2229  _currentDepositRoot */\n      dup2\n        /* \"contracts/ethBridge/MerkleTreeWithHistory.sol\":2198:2229  uint256 i = _currentDepositRoot */\n      swap1\n      pop\n        /* \"contracts/ethBridge/MerkleTreeWithHistory.sol\":2239:2477  do {... */\n    tag_35:\n        /* \"contracts/ethBridge/MerkleTreeWithHistory.sol\":2276:2288  depositRoots */\n      0x04\n        /* \"contracts/ethBridge/MerkleTreeWithHistory.sol\":2276:2291  depositRoots[i] */\n      0x00\n        /* \"contracts/ethBridge/MerkleTreeWithHistory.sol\":2289:2290  i */\n      dup3\n        /* \"contracts/ethBridge/MerkleTreeWithHistory.sol\":2276:2291  depositRoots[i] */\n      dup2\n      mstore\n      0x20\n      add\n      swap1\n      dup2\n      mstore\n      0x20\n      add\n      0x00\n      keccak256\n      sload\n        /* \"contracts/ethBridge/MerkleTreeWithHistory.sol\":2260:2272  _depositRoot */\n      dup5\n        /* \"contracts/ethBridge/MerkleTreeWithHistory.sol\":2260:2291  _depositRoot == depositRoots[i] */\n      sub\n        /* \"contracts/ethBridge/MerkleTreeWithHistory.sol\":2256:2337  if (_depositRoot == depositRoots[i]) {... */\n      tag_38\n      jumpi\n        /* \"contracts/ethBridge/MerkleTreeWithHistory.sol\":2318:2322  true */\n      0x01\n        /* \"contracts/ethBridge/MerkleTreeWithHistory.sol\":2311:2322  return true */\n      swap3\n      pop\n      pop\n      pop\n      jump(tag_33)\n        /* \"contracts/ethBridge/MerkleTreeWithHistory.sol\":2256:2337  if (_depositRoot == depositRoots[i]) {... */\n    tag_38:\n        /* \"contracts/ethBridge/MerkleTreeWithHistory.sol\":2359:2360  0 */\n      0x00\n        /* \"contracts/ethBridge/MerkleTreeWithHistory.sol\":2354:2355  i */\n      dup2\n        /* \"contracts/ethBridge/MerkleTreeWithHistory.sol\":2354:2360  i == 0 */\n      sub\n        /* \"contracts/ethBridge/MerkleTreeWithHistory.sol\":2350:2416  if (i == 0) {... */\n      tag_39\n      jumpi\n        /* \"contracts/ethBridge/MerkleTreeWithHistory.sol\":2384:2401  ROOT_HISTORY_SIZE */\n      sload(0x01)\n        /* \"contracts/ethBridge/MerkleTreeWithHistory.sol\":2380:2401  i = ROOT_HISTORY_SIZE */\n      swap1\n      pop\n        /* \"contracts/ethBridge/MerkleTreeWithHistory.sol\":2350:2416  if (i == 0) {... */\n    tag_39:\n        /* \"contracts/ethBridge/MerkleTreeWithHistory.sol\":2429:2432  i-- */\n      dup1\n      dup1\n      tag_40\n      swap1\n      tag_41\n      jump\t// in\n    tag_40:\n      swap2\n      pop\n      pop\n        /* \"contracts/ethBridge/MerkleTreeWithHistory.sol\":2456:2475  _currentDepositRoot */\n      dup2\n        /* \"contracts/ethBridge/MerkleTreeWithHistory.sol\":2451:2452  i */\n      dup2\n        /* \"contracts/ethBridge/MerkleTreeWithHistory.sol\":2451:2475  i != _currentDepositRoot */\n      sub\n        /* \"contracts/ethBridge/MerkleTreeWithHistory.sol\":2239:2477  do {... */\n      tag_35\n      jumpi\n        /* \"contracts/ethBridge/MerkleTreeWithHistory.sol\":2493:2498  false */\n      0x00\n        /* \"contracts/ethBridge/MerkleTreeWithHistory.sol\":2486:2498  return false */\n      swap3\n      pop\n      pop\n      pop\n        /* \"contracts/ethBridge/MerkleTreeWithHistory.sol\":1985:2505  function isKnownDepostRoot(uint256 _depositRoot) public view returns (bool) {... */\n    tag_33:\n      swap2\n      swap1\n      pop\n      jump\t// out\n        /* \"contracts/ethBridge/MerkleTreeWithHistory.sol\":258:291  uint256 public currentDepositRoot */\n    tag_23:\n      sload(0x03)\n      dup2\n      jump\t// out\n        /* \"contracts/ethBridge/MerkleTreeWithHistory.sol\":298:345  mapping(uint256 => uint256) public depositRoots */\n    tag_27:\n      mstore(0x20, 0x04)\n      dup1\n      0x00\n      mstore\n      keccak256(0x00, 0x40)\n      0x00\n      swap2\n      pop\n      swap1\n      pop\n      sload\n      dup2\n      jump\t// out\n        /* \"contracts/ethBridge/MerkleTreeWithHistory.sol\":192:224  uint256 public ROOT_HISTORY_SIZE */\n    tag_30:\n      sload(0x01)\n      dup2\n      jump\t// out\n        /* \"#utility.yul\":7:84   */\n    tag_42:\n        /* \"#utility.yul\":44:51   */\n      0x00\n        /* \"#utility.yul\":73:78   */\n      dup2\n        /* \"#utility.yul\":62:78   */\n      swap1\n      pop\n        /* \"#utility.yul\":7:84   */\n      swap2\n      swap1\n      pop\n      jump\t// out\n        /* \"#utility.yul\":90:208   */\n    tag_43:\n        /* \"#utility.yul\":177:201   */\n      tag_55\n        /* \"#utility.yul\":195:200   */\n      dup2\n        /* \"#utility.yul\":177:201   */\n      tag_42\n      jump\t// in\n    tag_55:\n        /* \"#utility.yul\":172:175   */\n      dup3\n        /* \"#utility.yul\":165:202   */\n      mstore\n        /* \"#utility.yul\":90:208   */\n      pop\n      pop\n      jump\t// out\n        /* \"#utility.yul\":214:436   */\n    tag_12:\n        /* \"#utility.yul\":307:311   */\n      0x00\n        /* \"#utility.yul\":345:347   */\n      0x20\n        /* \"#utility.yul\":334:343   */\n      dup3\n        /* \"#utility.yul\":330:348   */\n      add\n        /* \"#utility.yul\":322:348   */\n      swap1\n      pop\n        /* \"#utility.yul\":358:429   */\n      tag_57\n        /* \"#utility.yul\":426:427   */\n      0x00\n        /* \"#utility.yul\":415:424   */\n      dup4\n        /* \"#utility.yul\":411:428   */\n      add\n        /* \"#utility.yul\":402:408   */\n      dup5\n        /* \"#utility.yul\":358:429   */\n      tag_43\n      jump\t// in\n    tag_57:\n        /* \"#utility.yul\":214:436   */\n      swap3\n      swap2\n      pop\n      pop\n      jump\t// out\n        /* \"#utility.yul\":523:640   */\n    tag_45:\n        /* \"#utility.yul\":632:633   */\n      0x00\n        /* \"#utility.yul\":629:630   */\n      dup1\n        /* \"#utility.yul\":622:634   */\n      revert\n        /* \"#utility.yul\":769:891   */\n    tag_47:\n        /* \"#utility.yul\":842:866   */\n      tag_62\n        /* \"#utility.yul\":860:865   */\n      dup2\n        /* \"#utility.yul\":842:866   */\n      tag_42\n      jump\t// in\n    tag_62:\n        /* \"#utility.yul\":835:840   */\n      dup2\n        /* \"#utility.yul\":832:867   */\n      eq\n        /* \"#utility.yul\":822:885   */\n      tag_63\n      jumpi\n        /* \"#utility.yul\":881:882   */\n      0x00\n        /* \"#utility.yul\":878:879   */\n      dup1\n        /* \"#utility.yul\":871:883   */\n      revert\n        /* \"#utility.yul\":822:885   */\n    tag_63:\n        /* \"#utility.yul\":769:891   */\n      pop\n      jump\t// out\n        /* \"#utility.yul\":897:1036   */\n    tag_48:\n        /* \"#utility.yul\":943:948   */\n      0x00\n        /* \"#utility.yul\":981:987   */\n      dup2\n        /* \"#utility.yul\":968:988   */\n      calldataload\n        /* \"#utility.yul\":959:988   */\n      swap1\n      pop\n        /* \"#utility.yul\":997:1030   */\n      tag_65\n        /* \"#utility.yul\":1024:1029   */\n      dup2\n        /* \"#utility.yul\":997:1030   */\n      tag_47\n      jump\t// in\n    tag_65:\n        /* \"#utility.yul\":897:1036   */\n      swap3\n      swap2\n      pop\n      pop\n      jump\t// out\n        /* \"#utility.yul\":1042:1371   */\n    tag_18:\n        /* \"#utility.yul\":1101:1107   */\n      0x00\n        /* \"#utility.yul\":1150:1152   */\n      0x20\n        /* \"#utility.yul\":1138:1147   */\n      dup3\n        /* \"#utility.yul\":1129:1136   */\n      dup5\n        /* \"#utility.yul\":1125:1148   */\n      sub\n        /* \"#utility.yul\":1121:1153   */\n      slt\n        /* \"#utility.yul\":1118:1237   */\n      iszero\n      tag_67\n      jumpi\n        /* \"#utility.yul\":1156:1235   */\n      tag_68\n      tag_45\n      jump\t// in\n    tag_68:\n        /* \"#utility.yul\":1118:1237   */\n    tag_67:\n        /* \"#utility.yul\":1276:1277   */\n      0x00\n        /* \"#utility.yul\":1301:1354   */\n      tag_69\n        /* \"#utility.yul\":1346:1353   */\n      dup5\n        /* \"#utility.yul\":1337:1343   */\n      dup3\n        /* \"#utility.yul\":1326:1335   */\n      dup6\n        /* \"#utility.yul\":1322:1344   */\n      add\n        /* \"#utility.yul\":1301:1354   */\n      tag_48\n      jump\t// in\n    tag_69:\n        /* \"#utility.yul\":1291:1354   */\n      swap2\n      pop\n        /* \"#utility.yul\":1247:1364   */\n      pop\n        /* \"#utility.yul\":1042:1371   */\n      swap3\n      swap2\n      pop\n      pop\n      jump\t// out\n        /* \"#utility.yul\":1377:1467   */\n    tag_49:\n        /* \"#utility.yul\":1411:1418   */\n      0x00\n        /* \"#utility.yul\":1454:1459   */\n      dup2\n        /* \"#utility.yul\":1447:1460   */\n      iszero\n        /* \"#utility.yul\":1440:1461   */\n      iszero\n        /* \"#utility.yul\":1429:1461   */\n      swap1\n      pop\n        /* \"#utility.yul\":1377:1467   */\n      swap2\n      swap1\n      pop\n      jump\t// out\n        /* \"#utility.yul\":1473:1582   */\n    tag_50:\n        /* \"#utility.yul\":1554:1575   */\n      tag_72\n        /* \"#utility.yul\":1569:1574   */\n      dup2\n        /* \"#utility.yul\":1554:1575   */\n      tag_49\n      jump\t// in\n    tag_72:\n        /* \"#utility.yul\":1549:1552   */\n      dup3\n        /* \"#utility.yul\":1542:1576   */\n      mstore\n        /* \"#utility.yul\":1473:1582   */\n      pop\n      pop\n      jump\t// out\n        /* \"#utility.yul\":1588:1798   */\n    tag_21:\n        /* \"#utility.yul\":1675:1679   */\n      0x00\n        /* \"#utility.yul\":1713:1715   */\n      0x20\n        /* \"#utility.yul\":1702:1711   */\n      dup3\n        /* \"#utility.yul\":1698:1716   */\n      add\n        /* \"#utility.yul\":1690:1716   */\n      swap1\n      pop\n        /* \"#utility.yul\":1726:1791   */\n      tag_74\n        /* \"#utility.yul\":1788:1789   */\n      0x00\n        /* \"#utility.yul\":1777:1786   */\n      dup4\n        /* \"#utility.yul\":1773:1790   */\n      add\n        /* \"#utility.yul\":1764:1770   */\n      dup5\n        /* \"#utility.yul\":1726:1791   */\n      tag_50\n      jump\t// in\n    tag_74:\n        /* \"#utility.yul\":1588:1798   */\n      swap3\n      swap2\n      pop\n      pop\n      jump\t// out\n        /* \"#utility.yul\":1804:1984   */\n    tag_51:\n        /* \"#utility.yul\":1852:1929   */\n      0x4e487b7100000000000000000000000000000000000000000000000000000000\n        /* \"#utility.yul\":1849:1850   */\n      0x00\n        /* \"#utility.yul\":1842:1930   */\n      mstore\n        /* \"#utility.yul\":1949:1953   */\n      0x11\n        /* \"#utility.yul\":1946:1947   */\n      0x04\n        /* \"#utility.yul\":1939:1954   */\n      mstore\n        /* \"#utility.yul\":1973:1977   */\n      0x24\n        /* \"#utility.yul\":1970:1971   */\n      0x00\n        /* \"#utility.yul\":1963:1978   */\n      revert\n        /* \"#utility.yul\":1990:2161   */\n    tag_41:\n        /* \"#utility.yul\":2029:2032   */\n      0x00\n        /* \"#utility.yul\":2052:2076   */\n      tag_77\n        /* \"#utility.yul\":2070:2075   */\n      dup3\n        /* \"#utility.yul\":2052:2076   */\n      tag_42\n      jump\t// in\n    tag_77:\n        /* \"#utility.yul\":2043:2076   */\n      swap2\n      pop\n        /* \"#utility.yul\":2098:2102   */\n      0x00\n        /* \"#utility.yul\":2091:2096   */\n      dup3\n        /* \"#utility.yul\":2088:2103   */\n      sub\n        /* \"#utility.yul\":2085:2126   */\n      tag_78\n      jumpi\n        /* \"#utility.yul\":2106:2124   */\n      tag_79\n      tag_51\n      jump\t// in\n    tag_79:\n        /* \"#utility.yul\":2085:2126   */\n    tag_78:\n        /* \"#utility.yul\":2153:2154   */\n      0x01\n        /* \"#utility.yul\":2146:2151   */\n      dup3\n        /* \"#utility.yul\":2142:2155   */\n      sub\n        /* \"#utility.yul\":2135:2155   */\n      swap1\n      pop\n        /* \"#utility.yul\":1990:2161   */\n      swap2\n      swap1\n      pop\n      jump\t// out\n\n    auxdata: 0xa2646970667358221220e184eb554d1d0b3ac9f8cb42cd44188d16b727ece190dc56b9d795c40b856ca864736f6c63430008120033\n}\n",
				"bytecode": {
					"linkReferences": {},
					"object": "608060405234801561001057600080fd5b5061034f806100206000396000f3fe608060405234801561001057600080fd5b50600436106100625760003560e01c80632cd4300c146100675780634ecf518b146100855780637ae1293f146100a35780639df22cd5146100d35780639ef46d0f146100f1578063cd87a3b414610121575b600080fd5b61006f61013f565b60405161007c9190610212565b60405180910390f35b61008d61015c565b60405161009a9190610212565b60405180910390f35b6100bd60048036038101906100b8919061025e565b610162565b6040516100ca91906102a6565b60405180910390f35b6100db6101d5565b6040516100e89190610212565b60405180910390f35b61010b6004803603810190610106919061025e565b6101db565b6040516101189190610212565b60405180910390f35b6101296101f3565b6040516101369190610212565b60405180910390f35b600060046000600354815260200190815260200160002054905090565b60025481565b600080820361017457600090506101d0565b6000600354905060008190505b600460008281526020019081526020016000205484036101a6576001925050506101d0565b600081036101b45760015490505b80806101bf906102f0565b915050818103610181576000925050505b919050565b60035481565b60046020528060005260406000206000915090505481565b60015481565b6000819050919050565b61020c816101f9565b82525050565b60006020820190506102276000830184610203565b92915050565b600080fd5b61023b816101f9565b811461024657600080fd5b50565b60008135905061025881610232565b92915050565b6000602082840312156102745761027361022d565b5b600061028284828501610249565b91505092915050565b60008115159050919050565b6102a08161028b565b82525050565b60006020820190506102bb6000830184610297565b92915050565b7f4e487b7100000000000000000000000000000000000000000000000000000000600052601160045260246000fd5b60006102fb826101f9565b91506000820361030e5761030d6102c1565b5b60018203905091905056fea2646970667358221220e184eb554d1d0b3ac9f8cb42cd44188d16b727ece190dc56b9d795c40b856ca864736f6c63430008120033",
					"opcodes": "PUSH1 0x80 PUSH1 0x40 MSTORE CALLVALUE DUP1 ISZERO PUSH2 0x10 JUMPI PUSH1 0x0 DUP1 REVERT JUMPDEST POP PUSH2 0x34F DUP1 PUSH2 0x20 PUSH1 0x0 CODECOPY PUSH1 0x0 RETURN INVALID PUSH1 0x80 PUSH1 0x40 MSTORE CALLVALUE DUP1 ISZERO PUSH2 0x10 JUMPI PUSH1 0x0 DUP1 REVERT JUMPDEST POP PUSH1 0x4 CALLDATASIZE LT PUSH2 0x62 JUMPI PUSH1 0x0 CALLDATALOAD PUSH1 0xE0 SHR DUP1 PUSH4 0x2CD4300C EQ PUSH2 0x67 JUMPI DUP1 PUSH4 0x4ECF518B EQ PUSH2 0x85 JUMPI DUP1 PUSH4 0x7AE1293F EQ PUSH2 0xA3 JUMPI DUP1 PUSH4 0x9DF22CD5 EQ PUSH2 0xD3 JUMPI DUP1 PUSH4 0x9EF46D0F EQ PUSH2 0xF1 JUMPI DUP1 PUSH4 0xCD87A3B4 EQ PUSH2 0x121 JUMPI JUMPDEST PUSH1 0x0 DUP1 REVERT JUMPDEST PUSH2 0x6F PUSH2 0x13F JUMP JUMPDEST PUSH1 0x40 MLOAD PUSH2 0x7C SWAP2 SWAP1 PUSH2 0x212 JUMP JUMPDEST PUSH1 0x40 MLOAD DUP1 SWAP2 SUB SWAP1 RETURN JUMPDEST PUSH2 0x8D PUSH2 0x15C JUMP JUMPDEST PUSH1 0x40 MLOAD PUSH2 0x9A SWAP2 SWAP1 PUSH2 0x212 JUMP JUMPDEST PUSH1 0x40 MLOAD DUP1 SWAP2 SUB SWAP1 RETURN JUMPDEST PUSH2 0xBD PUSH1 0x4 DUP1 CALLDATASIZE SUB DUP2 ADD SWAP1 PUSH2 0xB8 SWAP2 SWAP1 PUSH2 0x25E JUMP JUMPDEST PUSH2 0x162 JUMP JUMPDEST PUSH1 0x40 MLOAD PUSH2 0xCA SWAP2 SWAP1 PUSH2 0x2A6 JUMP JUMPDEST PUSH1 0x40 MLOAD DUP1 SWAP2 SUB SWAP1 RETURN JUMPDEST PUSH2 0xDB PUSH2 0x1D5 JUMP JUMPDEST PUSH1 0x40 MLOAD PUSH2 0xE8 SWAP2 SWAP1 PUSH2 0x212 JUMP JUMPDEST PUSH1 0x40 MLOAD DUP1 SWAP2 SUB SWAP1 RETURN JUMPDEST PUSH2 0x10B PUSH1 0x4 DUP1 CALLDATASIZE SUB DUP2 ADD SWAP1 PUSH2 0x106 SWAP2 SWAP1 PUSH2 0x25E JUMP JUMPDEST PUSH2 0x1DB JUMP JUMPDEST PUSH1 0x40 MLOAD PUSH2 0x118 SWAP2 SWAP1 PUSH2 0x212 JUMP JUMPDEST PUSH1 0x40 MLOAD DUP1 SWAP2 SUB SWAP1 RETURN JUMPDEST PUSH2 0x129 PUSH2 0x1F3 JUMP JUMPDEST PUSH1 0x40 MLOAD PUSH2 0x136 SWAP2 SWAP1 PUSH2 0x212 JUMP JUMPDEST PUSH1 0x40 MLOAD DUP1 SWAP2 SUB SWAP1 RETURN JUMPDEST PUSH1 0x0 PUSH1 0x4 PUSH1 0x0 PUSH1 0x3 SLOAD DUP2 MSTORE PUSH1 0x20 ADD SWAP1 DUP2 MSTORE PUSH1 0x20 ADD PUSH1 0x0 KECCAK256 SLOAD SWAP1 POP SWAP1 JUMP JUMPDEST PUSH1 0x2 SLOAD DUP2 JUMP JUMPDEST PUSH1 0x0 DUP1 DUP3 SUB PUSH2 0x174 JUMPI PUSH1 0x0 SWAP1 POP PUSH2 0x1D0 JUMP JUMPDEST PUSH1 0x0 PUSH1 0x3 SLOAD SWAP1 POP PUSH1 0x0 DUP2 SWAP1 POP JUMPDEST PUSH1 0x4 PUSH1 0x0 DUP3 DUP2 MSTORE PUSH1 0x20 ADD SWAP1 DUP2 MSTORE PUSH1 0x20 ADD PUSH1 0x0 KECCAK256 SLOAD DUP5 SUB PUSH2 0x1A6 JUMPI PUSH1 0x1 SWAP3 POP POP POP PUSH2 0x1D0 JUMP JUMPDEST PUSH1 0x0 DUP2 SUB PUSH2 0x1B4 JUMPI PUSH1 0x1 SLOAD SWAP1 POP JUMPDEST DUP1 DUP1 PUSH2 0x1BF SWAP1 PUSH2 0x2F0 JUMP JUMPDEST SWAP2 POP POP DUP2 DUP2 SUB PUSH2 0x181 JUMPI PUSH1 0x0 SWAP3 POP POP POP JUMPDEST SWAP2 SWAP1 POP JUMP JUMPDEST PUSH1 0x3 SLOAD DUP2 JUMP JUMPDEST PUSH1 0x4 PUSH1 0x20 MSTORE DUP1 PUSH1 0x0 MSTORE PUSH1 0x40 PUSH1 0x0 KECCAK256 PUSH1 0x0 SWAP2 POP SWAP1 POP SLOAD DUP2 JUMP JUMPDEST PUSH1 0x1 SLOAD DUP2 JUMP JUMPDEST PUSH1 0x0 DUP2 SWAP1 POP SWAP2 SWAP1 POP JUMP JUMPDEST PUSH2 0x20C DUP2 PUSH2 0x1F9 JUMP JUMPDEST DUP3 MSTORE POP POP JUMP JUMPDEST PUSH1 0x0 PUSH1 0x20 DUP3 ADD SWAP1 POP PUSH2 0x227 PUSH1 0x0 DUP4 ADD DUP5 PUSH2 0x203 JUMP JUMPDEST SWAP3 SWAP2 POP POP JUMP JUMPDEST PUSH1 0x0 DUP1 REVERT JUMPDEST PUSH2 0x23B DUP2 PUSH2 0x1F9 JUMP JUMPDEST DUP2 EQ PUSH2 0x246 JUMPI PUSH1 0x0 DUP1 REVERT JUMPDEST POP JUMP JUMPDEST PUSH1 0x0 DUP2 CALLDATALOAD SWAP1 POP PUSH2 0x258 DUP2 PUSH2 0x232 JUMP JUMPDEST SWAP3 SWAP2 POP POP JUMP JUMPDEST PUSH1 0x0 PUSH1 0x20 DUP3 DUP5 SUB SLT ISZERO PUSH2 0x274 JUMPI PUSH2 0x273 PUSH2 0x22D JUMP JUMPDEST JUMPDEST PUSH1 0x0 PUSH2 0x282 DUP5 DUP3 DUP6 ADD PUSH2 0x249 JUMP JUMPDEST SWAP2 POP POP SWAP3 SWAP2 POP POP JUMP JUMPDEST PUSH1 0x0 DUP2 ISZERO ISZERO SWAP1 POP SWAP2 SWAP1 POP JUMP JUMPDEST PUSH2 0x2A0 DUP2 PUSH2 0x28B JUMP JUMPDEST DUP3 MSTORE POP POP JUMP JUMPDEST PUSH1 0x0 PUSH1 0x20 DUP3 ADD SWAP1 POP PUSH2 0x2BB PUSH1 0x0 DUP4 ADD DUP5 PUSH2 0x297 JUMP JUMPDEST SWAP3 SWAP2 POP POP JUMP JUMPDEST PUSH32 0x4E487B7100000000000000000000000000000000000000000000000000000000 PUSH1 0x0 MSTORE PUSH1 0x11 PUSH1 0x4 MSTORE PUSH1 0x24 PUSH1 0x0 REVERT JUMPDEST PUSH1 0x0 PUSH2 0x2FB DUP3 PUSH2 0x1F9 JUMP JUMPDEST SWAP2 POP PUSH1 0x0 DUP3 SUB PUSH2 0x30E JUMPI PUSH2 0x30D PUSH2 0x2C1 JUMP JUMPDEST JUMPDEST PUSH1 0x1 DUP3 SUB SWAP1 POP SWAP2 SWAP1 POP JUMP INVALID LOG2 PUSH5 0x6970667358 0x22 SLT KECCAK256 0xE1 DUP5 0xEB SSTORE 0x4D SAR SIGNEXTEND GASPRICE 0xC9 0xF8 0xCB TIMESTAMP 0xCD PREVRANDAO XOR DUP14 AND 0xB7 0x27 0xEC 0xE1 SWAP1 0xDC JUMP 0xB9 0xD7 SWAP6 0xC4 SIGNEXTEND DUP6 PUSH13 0xA864736F6C6343000812003300 "
				},
				"gasEstimates": {
					"creation": {
						"codeDepositCost": "169400",
						"executionCost": "214",
						"totalCost": "169614"
					},
					"external": {
						"ROOT_HISTORY_SIZE()": "2517",
						"currentDepositRoot()": "2473",
						"depositRoots(uint256)": "infinite",
						"getLastDepositRoot()": "4593",
						"isKnownDepostRoot(uint256)": "infinite",
						"levels()": "2429"
					},
					"internal": {
						"__MerkleTreeWithHistory_init(uint256)": "infinite",
						"_insert(uint256)": "infinite",
						"_setRootHistorySize(uint256)": "infinite"
					}
				},
				"methodIdentifiers": {
					"ROOT_HISTORY_SIZE()": "cd87a3b4",
					"currentDepositRoot()": "9df22cd5",
					"depositRoots(uint256)": "9ef46d0f",
					"getLastDepositRoot()": "2cd4300c",
					"isKnownDepostRoot(uint256)": "7ae1293f",
					"levels()": "4ecf518b"
				}
			},
			"storageLayout": {
				"storage": [
					{
						"astId": 138,
						"contract": "contracts/ethBridge/MerkleTreeWithHistory.sol:MerkleTreeWithHistory",
						"label": "_initialized",
						"offset": 0,
						"slot": "0",
						"type": "t_uint8"
					},
					{
						"astId": 141,
						"contract": "contracts/ethBridge/MerkleTreeWithHistory.sol:MerkleTreeWithHistory",
						"label": "_initializing",
						"offset": 1,
						"slot": "0",
						"type": "t_bool"
					},
					{
						"astId": 833,
						"contract": "contracts/ethBridge/MerkleTreeWithHistory.sol:MerkleTreeWithHistory",
						"label": "ROOT_HISTORY_SIZE",
						"offset": 0,
						"slot": "1",
						"type": "t_uint256"
					},
					{
						"astId": 835,
						"contract": "contracts/ethBridge/MerkleTreeWithHistory.sol:MerkleTreeWithHistory",
						"label": "levels",
						"offset": 0,
						"slot": "2",
						"type": "t_uint256"
					},
					{
						"astId": 837,
						"contract": "contracts/ethBridge/MerkleTreeWithHistory.sol:MerkleTreeWithHistory",
						"label": "currentDepositRoot",
						"offset": 0,
						"slot": "3",
						"type": "t_uint256"
					},
					{
						"astId": 841,
						"contract": "contracts/ethBridge/MerkleTreeWithHistory.sol:MerkleTreeWithHistory",
						"label": "depositRoots",
						"offset": 0,
						"slot": "4",
						"type": "t_mapping(t_uint256,t_uint256)"
					}
				],
				"types": {
					"t_bool": {
						"encoding": "inplace",
						"label": "bool",
						"numberOfBytes": "1"
					},
					"t_mapping(t_uint256,t_uint256)": {
						"encoding": "mapping",
						"key": "t_uint256",
						"label": "mapping(uint256 => uint256)",
						"numberOfBytes": "32",
						"value": "t_uint256"
					},
					"t_uint256": {
						"encoding": "inplace",
						"label": "uint256",
						"numberOfBytes": "32"
					},
					"t_uint8": {
						"encoding": "inplace",
						"label": "uint8",
						"numberOfBytes": "1"
					}
				}
			},
			"userdoc": {
				"kind": "user",
				"methods": {},
				"version": 1
			}
		}
	}
}