{
  "_format": "hh-sol-artifact-1",
  "contractName": "ERC20Token",
  "sourceName": "contracts/ethBridge/ercToken/Erc20Token.sol",
  "abi": [
    {
      "anonymous": false,
      "inputs": [
        {
          "indexed": true,
          "internalType": "address",
          "name": "owner",
          "type": "address"
        },
        {
          "indexed": true,
          "internalType": "address",
          "name": "spender",
          "type": "address"
        },
        {
          "indexed": false,
          "internalType": "uint256",
          "name": "value",
          "type": "uint256"
        }
      ],
      "name": "Approval",
      "type": "event"
    },
    {
      "anonymous": false,
      "inputs": [
        {
          "indexed": true,
          "internalType": "address",
          "name": "account",
          "type": "address"
        },
        {
          "indexed": false,
          "internalType": "uint256",
          "name": "amount",
          "type": "uint256"
        }
      ],
      "name": "Burn",
      "type": "event"
    },
    {
      "anonymous": false,
      "inputs": [
        {
          "indexed": false,
          "internalType": "uint8",
          "name": "version",
          "type": "uint8"
        }
      ],
      "name": "Initialized",
      "type": "event"
    },
    {
      "anonymous": false,
      "inputs": [
        {
          "indexed": true,
          "internalType": "address",
          "name": "account",
          "type": "address"
        },
        {
          "indexed": false,
          "internalType": "uint256",
          "name": "amount",
          "type": "uint256"
        }
      ],
      "name": "Mint",
      "type": "event"
    },
    {
      "anonymous": false,
      "inputs": [
        {
          "indexed": true,
          "internalType": "address",
          "name": "previousOwner",
          "type": "address"
        },
        {
          "indexed": true,
          "internalType": "address",
          "name": "newOwner",
          "type": "address"
        }
      ],
      "name": "OwnershipTransferred",
      "type": "event"
    },
    {
      "anonymous": false,
      "inputs": [
        {
          "indexed": false,
          "internalType": "address",
          "name": "account",
          "type": "address"
        }
      ],
      "name": "Paused",
      "type": "event"
    },
    {
      "anonymous": false,
      "inputs": [
        {
          "indexed": true,
          "internalType": "address",
          "name": "from",
          "type": "address"
        },
        {
          "indexed": true,
          "internalType": "address",
          "name": "to",
          "type": "address"
        },
        {
          "indexed": false,
          "internalType": "uint256",
          "name": "value",
          "type": "uint256"
        }
      ],
      "name": "Transfer",
      "type": "event"
    },
    {
      "anonymous": false,
      "inputs": [
        {
          "indexed": false,
          "internalType": "address",
          "name": "account",
          "type": "address"
        }
      ],
      "name": "Unpaused",
      "type": "event"
    },
    {
      "inputs": [
        {
          "internalType": "address",
          "name": "owner",
          "type": "address"
        },
        {
          "internalType": "address",
          "name": "spender",
          "type": "address"
        }
      ],
      "name": "allowance",
      "outputs": [
        {
          "internalType": "uint256",
          "name": "",
          "type": "uint256"
        }
      ],
      "stateMutability": "view",
      "type": "function"
    },
    {
      "inputs": [
        {
          "internalType": "address",
          "name": "spender",
          "type": "address"
        },
        {
          "internalType": "uint256",
          "name": "amount",
          "type": "uint256"
        }
      ],
      "name": "approve",
      "outputs": [
        {
          "internalType": "bool",
          "name": "",
          "type": "bool"
        }
      ],
      "stateMutability": "nonpayable",
      "type": "function"
    },
    {
      "inputs": [
        {
          "internalType": "address",
          "name": "account",
          "type": "address"
        }
      ],
      "name": "balanceOf",
      "outputs": [
        {
          "internalType": "uint256",
          "name": "",
          "type": "uint256"
        }
      ],
      "stateMutability": "view",
      "type": "function"
    },
    {
      "inputs": [
        {
          "internalType": "address",
          "name": "_owner",
          "type": "address"
        },
        {
          "internalType": "uint256",
          "name": "_amount",
          "type": "uint256"
        }
      ],
      "name": "burn",
      "outputs": [],
      "stateMutability": "nonpayable",
      "type": "function"
    },
    {
      "inputs": [],
      "name": "decimals",
      "outputs": [
        {
          "internalType": "uint8",
          "name": "",
          "type": "uint8"
        }
      ],
      "stateMutability": "view",
      "type": "function"
    },
    {
      "inputs": [
        {
          "internalType": "address",
          "name": "spender",
          "type": "address"
        },
        {
          "internalType": "uint256",
          "name": "subtractedValue",
          "type": "uint256"
        }
      ],
      "name": "decreaseAllowance",
      "outputs": [
        {
          "internalType": "bool",
          "name": "",
          "type": "bool"
        }
      ],
      "stateMutability": "nonpayable",
      "type": "function"
    },
    {
      "inputs": [],
      "name": "getEthBridge",
      "outputs": [
        {
          "internalType": "address",
          "name": "",
          "type": "address"
        }
      ],
      "stateMutability": "view",
      "type": "function"
    },
    {
      "inputs": [
        {
          "internalType": "address",
          "name": "spender",
          "type": "address"
        },
        {
          "internalType": "uint256",
          "name": "addedValue",
          "type": "uint256"
        }
      ],
      "name": "increaseAllowance",
      "outputs": [
        {
          "internalType": "bool",
          "name": "",
          "type": "bool"
        }
      ],
      "stateMutability": "nonpayable",
      "type": "function"
    },
    {
      "inputs": [
        {
          "internalType": "string",
          "name": "_name",
          "type": "string"
        },
        {
          "internalType": "string",
          "name": "_symbol",
          "type": "string"
        },
        {
          "internalType": "address",
          "name": "_ethBridge",
          "type": "address"
        }
      ],
      "name": "initialize",
      "outputs": [],
      "stateMutability": "nonpayable",
      "type": "function"
    },
    {
      "inputs": [
        {
          "internalType": "address",
          "name": "_to",
          "type": "address"
        },
        {
          "internalType": "uint256",
          "name": "_amount",
          "type": "uint256"
        }
      ],
      "name": "mint",
      "outputs": [],
      "stateMutability": "nonpayable",
      "type": "function"
    },
    {
      "inputs": [],
      "name": "name",
      "outputs": [
        {
          "internalType": "string",
          "name": "",
          "type": "string"
        }
      ],
      "stateMutability": "view",
      "type": "function"
    },
    {
      "inputs": [],
      "name": "owner",
      "outputs": [
        {
          "internalType": "address",
          "name": "",
          "type": "address"
        }
      ],
      "stateMutability": "view",
      "type": "function"
    },
    {
      "inputs": [],
      "name": "pauseContract",
      "outputs": [],
      "stateMutability": "nonpayable",
      "type": "function"
    },
    {
      "inputs": [],
      "name": "paused",
      "outputs": [
        {
          "internalType": "bool",
          "name": "",
          "type": "bool"
        }
      ],
      "stateMutability": "view",
      "type": "function"
    },
    {
      "inputs": [],
      "name": "renounceOwnership",
      "outputs": [],
      "stateMutability": "nonpayable",
      "type": "function"
    },
    {
      "inputs": [
        {
          "internalType": "address",
          "name": "_bridgeAdmin",
          "type": "address"
        }
      ],
      "name": "setBridgeAdmin",
      "outputs": [],
      "stateMutability": "nonpayable",
      "type": "function"
    },
    {
      "inputs": [],
      "name": "symbol",
      "outputs": [
        {
          "internalType": "string",
          "name": "",
          "type": "string"
        }
      ],
      "stateMutability": "view",
      "type": "function"
    },
    {
      "inputs": [],
      "name": "totalSupply",
      "outputs": [
        {
          "internalType": "uint256",
          "name": "",
          "type": "uint256"
        }
      ],
      "stateMutability": "view",
      "type": "function"
    },
    {
      "inputs": [
        {
          "internalType": "address",
          "name": "to",
          "type": "address"
        },
        {
          "internalType": "uint256",
          "name": "amount",
          "type": "uint256"
        }
      ],
      "name": "transfer",
      "outputs": [
        {
          "internalType": "bool",
          "name": "",
          "type": "bool"
        }
      ],
      "stateMutability": "nonpayable",
      "type": "function"
    },
    {
      "inputs": [
        {
          "internalType": "address",
          "name": "from",
          "type": "address"
        },
        {
          "internalType": "address",
          "name": "to",
          "type": "address"
        },
        {
          "internalType": "uint256",
          "name": "amount",
          "type": "uint256"
        }
      ],
      "name": "transferFrom",
      "outputs": [
        {
          "internalType": "bool",
          "name": "",
          "type": "bool"
        }
      ],
      "stateMutability": "nonpayable",
      "type": "function"
    },
    {
      "inputs": [
        {
          "internalType": "address",
          "name": "newOwner",
          "type": "address"
        }
      ],
      "name": "transferOwnership",
      "outputs": [],
      "stateMutability": "nonpayable",
      "type": "function"
    },
    {
      "inputs": [],
      "name": "unpauseContract",
      "outputs": [],
      "stateMutability": "nonpayable",
      "type": "function"
    }
  ],
  "bytecode": "0x608060405234801561001057600080fd5b50612a41806100206000396000f3fe608060405234801561001057600080fd5b50600436106101425760003560e01c806370a08231116100b85780639dc29fac1161007c5780639dc29fac14610341578063a457c2d71461035d578063a9059cbb1461038d578063b33712c5146103bd578063dd62ed3e146103c7578063f2fde38b146103f757610142565b806370a08231146102af578063715018a6146102df57806377226967146102e95780638da5cb5b1461030557806395d89b411461032357610142565b8063313ce5671161010a578063313ce567146101ff578063318204511461021d578063395093511461023b57806340c10f191461026b578063439766ce146102875780635c975abb1461029157610142565b806306fdde0314610147578063077f224a14610165578063095ea7b31461018157806318160ddd146101b157806323b872dd146101cf575b600080fd5b61014f610413565b60405161015c919061204f565b60405180910390f35b61017f600480360381019061017a9190611c85565b6104a5565b005b61019b60048036038101906101969190611c49565b6106ca565b6040516101a89190612019565b60405180910390f35b6101b96106ed565b6040516101c691906122b1565b60405180910390f35b6101e960048036038101906101e49190611bfa565b6106f7565b6040516101f69190612019565b60405180910390f35b610207610726565b60405161021491906122cc565b60405180910390f35b61022561072f565b6040516102329190611ffe565b60405180910390f35b61025560048036038101906102509190611c49565b610759565b6040516102629190612019565b60405180910390f35b61028560048036038101906102809190611c49565b610790565b005b61028f6108c1565b005b6102996108d3565b6040516102a69190612019565b60405180910390f35b6102c960048036038101906102c49190611b95565b6108ea565b6040516102d691906122b1565b60405180910390f35b6102e7610933565b005b61030360048036038101906102fe9190611b95565b610947565b005b61030d610993565b60405161031a9190611ffe565b60405180910390f35b61032b6109bd565b604051610338919061204f565b60405180910390f35b61035b60048036038101906103569190611c49565b610a4f565b005b61037760048036038101906103729190611c49565b610b80565b6040516103849190612019565b60405180910390f35b6103a760048036038101906103a29190611c49565b610bf7565b6040516103b49190612019565b60405180910390f35b6103c5610c1a565b005b6103e160048036038101906103dc9190611bbe565b610c2c565b6040516103ee91906122b1565b60405180910390f35b610411600480360381019061040c9190611b95565b610cb3565b005b60606036805461042290612458565b80601f016020809104026020016040519081016040528092919081815260200182805461044e90612458565b801561049b5780601f106104705761010080835404028352916020019161049b565b820191906000526020600020905b81548152906001019060200180831161047e57829003601f168201915b5050505050905090565b60008060019054906101000a900460ff161590508080156104d65750600160008054906101000a900460ff1660ff16105b8061050357506104e530610d37565b1580156105025750600160008054906101000a900460ff1660ff16145b5b610542576040517f08c379a0000000000000000000000000000000000000000000000000000000008152600401610539906121b1565b60405180910390fd5b60016000806101000a81548160ff021916908360ff160217905550801561057f576001600060016101000a81548160ff0219169083151502179055505b600073ffffffffffffffffffffffffffffffffffffffff1660fb60009054906101000a900473ffffffffffffffffffffffffffffffffffffffff1673ffffffffffffffffffffffffffffffffffffffff1614610610576040517f08c379a000000000000000000000000000000000000000000000000000000000815260040161060790612191565b60405180910390fd5b8160fb60006101000a81548173ffffffffffffffffffffffffffffffffffffffff021916908373ffffffffffffffffffffffffffffffffffffffff16021790555061065b8484610d5a565b610663610db7565b61066b610e10565b80156106c45760008060016101000a81548160ff0219169083151502179055507f7f26b83ff96e1f2b6a682f133852f6798a09c465da95921460cefb384740249860016040516106bb9190612034565b60405180910390a15b50505050565b6000806106d5610e69565b90506106e2818585610e71565b600191505092915050565b6000603554905090565b600080610702610e69565b905061070f85828561103c565b61071a8585856110c8565b60019150509392505050565b60006012905090565b600060fb60009054906101000a900473ffffffffffffffffffffffffffffffffffffffff16905090565b600080610764610e69565b90506107858185856107768589610c2c565b6107809190612359565b610e71565b600191505092915050565b60fb60009054906101000a900473ffffffffffffffffffffffffffffffffffffffff1673ffffffffffffffffffffffffffffffffffffffff163373ffffffffffffffffffffffffffffffffffffffff16148061081e57506107ef610993565b73ffffffffffffffffffffffffffffffffffffffff163373ffffffffffffffffffffffffffffffffffffffff16145b61085d576040517f08c379a000000000000000000000000000000000000000000000000000000000815260040161085490612151565b60405180910390fd5b610865611343565b61086f828261138d565b8173ffffffffffffffffffffffffffffffffffffffff167f0f6798a560793a54c3bcfe86a93cde1e73087d944c0ea20544137d4121396885826040516108b591906122b1565b60405180910390a25050565b6108c96114e5565b6108d1611563565b565b6000609760009054906101000a900460ff16905090565b6000603360008373ffffffffffffffffffffffffffffffffffffffff1673ffffffffffffffffffffffffffffffffffffffff168152602001908152602001600020549050919050565b61093b6114e5565b61094560006115c6565b565b61094f6114e5565b8060fb60006101000a81548173ffffffffffffffffffffffffffffffffffffffff021916908373ffffffffffffffffffffffffffffffffffffffff16021790555050565b6000606560009054906101000a900473ffffffffffffffffffffffffffffffffffffffff16905090565b6060603780546109cc90612458565b80601f01602080910402602001604051908101604052809291908181526020018280546109f890612458565b8015610a455780601f10610a1a57610100808354040283529160200191610a45565b820191906000526020600020905b815481529060010190602001808311610a2857829003601f168201915b5050505050905090565b60fb60009054906101000a900473ffffffffffffffffffffffffffffffffffffffff1673ffffffffffffffffffffffffffffffffffffffff163373ffffffffffffffffffffffffffffffffffffffff161480610add5750610aae610993565b73ffffffffffffffffffffffffffffffffffffffff163373ffffffffffffffffffffffffffffffffffffffff16145b610b1c576040517f08c379a0000000000000000000000000000000000000000000000000000000008152600401610b1390612151565b60405180910390fd5b610b24611343565b610b2e828261168c565b8173ffffffffffffffffffffffffffffffffffffffff167fcc16f5dbb4873280815c1ee09dbd06736cffcc184412cf7a71a0fdb75d397ca582604051610b7491906122b1565b60405180910390a25050565b600080610b8b610e69565b90506000610b998286610c2c565b905083811015610bde576040517f08c379a0000000000000000000000000000000000000000000000000000000008152600401610bd590612271565b60405180910390fd5b610beb8286868403610e71565b60019250505092915050565b600080610c02610e69565b9050610c0f8185856110c8565b600191505092915050565b610c226114e5565b610c2a61185c565b565b6000603460008473ffffffffffffffffffffffffffffffffffffffff1673ffffffffffffffffffffffffffffffffffffffff16815260200190815260200160002060008373ffffffffffffffffffffffffffffffffffffffff1673ffffffffffffffffffffffffffffffffffffffff16815260200190815260200160002054905092915050565b610cbb6114e5565b600073ffffffffffffffffffffffffffffffffffffffff168173ffffffffffffffffffffffffffffffffffffffff161415610d2b576040517f08c379a0000000000000000000000000000000000000000000000000000000008152600401610d22906120d1565b60405180910390fd5b610d34816115c6565b50565b6000808273ffffffffffffffffffffffffffffffffffffffff163b119050919050565b600060019054906101000a900460ff16610da9576040517f08c379a0000000000000000000000000000000000000000000000000000000008152600401610da090612251565b60405180910390fd5b610db382826118bf565b5050565b600060019054906101000a900460ff16610e06576040517f08c379a0000000000000000000000000000000000000000000000000000000008152600401610dfd90612251565b60405180910390fd5b610e0e611940565b565b600060019054906101000a900460ff16610e5f576040517f08c379a0000000000000000000000000000000000000000000000000000000008152600401610e5690612251565b60405180910390fd5b610e676119ac565b565b600033905090565b600073ffffffffffffffffffffffffffffffffffffffff168373ffffffffffffffffffffffffffffffffffffffff161415610ee1576040517f08c379a0000000000000000000000000000000000000000000000000000000008152600401610ed890612231565b60405180910390fd5b600073ffffffffffffffffffffffffffffffffffffffff168273ffffffffffffffffffffffffffffffffffffffff161415610f51576040517f08c379a0000000000000000000000000000000000000000000000000000000008152600401610f48906120f1565b60405180910390fd5b80603460008573ffffffffffffffffffffffffffffffffffffffff1673ffffffffffffffffffffffffffffffffffffffff16815260200190815260200160002060008473ffffffffffffffffffffffffffffffffffffffff1673ffffffffffffffffffffffffffffffffffffffff168152602001908152602001600020819055508173ffffffffffffffffffffffffffffffffffffffff168373ffffffffffffffffffffffffffffffffffffffff167f8c5be1e5ebec7d5bd14f71427d1e84f3dd0314c0f7b2291e5b200ac8c7c3b9258360405161102f91906122b1565b60405180910390a3505050565b60006110488484610c2c565b90507fffffffffffffffffffffffffffffffffffffffffffffffffffffffffffffffff81146110c257818110156110b4576040517f08c379a00000000000000000000000000000000000000000000000000000000081526004016110ab90612111565b60405180910390fd5b6110c18484848403610e71565b5b50505050565b600073ffffffffffffffffffffffffffffffffffffffff168373ffffffffffffffffffffffffffffffffffffffff161415611138576040517f08c379a000000000000000000000000000000000000000000000000000000000815260040161112f90612211565b60405180910390fd5b600073ffffffffffffffffffffffffffffffffffffffff168273ffffffffffffffffffffffffffffffffffffffff1614156111a8576040517f08c379a000000000000000000000000000000000000000000000000000000000815260040161119f90612071565b60405180910390fd5b6111b3838383611a0d565b6000603360008573ffffffffffffffffffffffffffffffffffffffff1673ffffffffffffffffffffffffffffffffffffffff1681526020019081526020016000205490508181101561123a576040517f08c379a000000000000000000000000000000000000000000000000000000000815260040161123190612131565b60405180910390fd5b818103603360008673ffffffffffffffffffffffffffffffffffffffff1673ffffffffffffffffffffffffffffffffffffffff1681526020019081526020016000208190555081603360008573ffffffffffffffffffffffffffffffffffffffff1673ffffffffffffffffffffffffffffffffffffffff168152602001908152602001600020600082825401925050819055508273ffffffffffffffffffffffffffffffffffffffff168473ffffffffffffffffffffffffffffffffffffffff167fddf252ad1be2c89b69c2b068fc378daa952ba7f163c4a11628f55a4df523b3ef8460405161132a91906122b1565b60405180910390a361133d848484611a12565b50505050565b61134b6108d3565b1561138b576040517f08c379a000000000000000000000000000000000000000000000000000000000815260040161138290612171565b60405180910390fd5b565b600073ffffffffffffffffffffffffffffffffffffffff168273ffffffffffffffffffffffffffffffffffffffff1614156113fd576040517f08c379a00000000000000000000000000000000000000000000000000000000081526004016113f490612291565b60405180910390fd5b61140960008383611a0d565b806035600082825461141b9190612359565b9250508190555080603360008473ffffffffffffffffffffffffffffffffffffffff1673ffffffffffffffffffffffffffffffffffffffff168152602001908152602001600020600082825401925050819055508173ffffffffffffffffffffffffffffffffffffffff16600073ffffffffffffffffffffffffffffffffffffffff167fddf252ad1be2c89b69c2b068fc378daa952ba7f163c4a11628f55a4df523b3ef836040516114cd91906122b1565b60405180910390a36114e160008383611a12565b5050565b6114ed610e69565b73ffffffffffffffffffffffffffffffffffffffff1661150b610993565b73ffffffffffffffffffffffffffffffffffffffff1614611561576040517f08c379a0000000000000000000000000000000000000000000000000000000008152600401611558906121d1565b60405180910390fd5b565b61156b611343565b6001609760006101000a81548160ff0219169083151502179055507f62e78cea01bee320cd4e420270b5ea74000d11b0c9f74754ebdbfc544b05a2586115af610e69565b6040516115bc9190611ffe565b60405180910390a1565b6000606560009054906101000a900473ffffffffffffffffffffffffffffffffffffffff16905081606560006101000a81548173ffffffffffffffffffffffffffffffffffffffff021916908373ffffffffffffffffffffffffffffffffffffffff1602179055508173ffffffffffffffffffffffffffffffffffffffff168173ffffffffffffffffffffffffffffffffffffffff167f8be0079c531659141344cd1fd0a4f28419497f9722a3daafe3b4186f6b6457e060405160405180910390a35050565b600073ffffffffffffffffffffffffffffffffffffffff168273ffffffffffffffffffffffffffffffffffffffff1614156116fc576040517f08c379a00000000000000000000000000000000000000000000000000000000081526004016116f3906121f1565b60405180910390fd5b61170882600083611a0d565b6000603360008473ffffffffffffffffffffffffffffffffffffffff1673ffffffffffffffffffffffffffffffffffffffff1681526020019081526020016000205490508181101561178f576040517f08c379a0000000000000000000000000000000000000000000000000000000008152600401611786906120b1565b60405180910390fd5b818103603360008573ffffffffffffffffffffffffffffffffffffffff1673ffffffffffffffffffffffffffffffffffffffff1681526020019081526020016000208190555081603560008282540392505081905550600073ffffffffffffffffffffffffffffffffffffffff168373ffffffffffffffffffffffffffffffffffffffff167fddf252ad1be2c89b69c2b068fc378daa952ba7f163c4a11628f55a4df523b3ef8460405161184391906122b1565b60405180910390a361185783600084611a12565b505050565b611864611a17565b6000609760006101000a81548160ff0219169083151502179055507f5db9ee0a495bf2e6ff9c91a7834c1ba4fdd244a5e8aa4e537bd38aeae4b073aa6118a8610e69565b6040516118b59190611ffe565b60405180910390a1565b600060019054906101000a900460ff1661190e576040517f08c379a000000000000000000000000000000000000000000000000000000000815260040161190590612251565b60405180910390fd5b8160369080519060200190611924929190611a60565b50806037908051906020019061193b929190611a60565b505050565b600060019054906101000a900460ff1661198f576040517f08c379a000000000000000000000000000000000000000000000000000000000815260040161198690612251565b60405180910390fd5b6000609760006101000a81548160ff021916908315150217905550565b600060019054906101000a900460ff166119fb576040517f08c379a00000000000000000000000000000000000000000000000000000000081526004016119f290612251565b60405180910390fd5b611a0b611a06610e69565b6115c6565b565b505050565b505050565b611a1f6108d3565b611a5e576040517f08c379a0000000000000000000000000000000000000000000000000000000008152600401611a5590612091565b60405180910390fd5b565b828054611a6c90612458565b90600052602060002090601f016020900481019282611a8e5760008555611ad5565b82601f10611aa757805160ff1916838001178555611ad5565b82800160010185558215611ad5579182015b82811115611ad4578251825591602001919060010190611ab9565b5b509050611ae29190611ae6565b5090565b5b80821115611aff576000816000905550600101611ae7565b5090565b6000611b16611b118461230c565b6122e7565b905082815260208101848484011115611b2e57600080fd5b611b39848285612416565b509392505050565b600081359050611b50816129dd565b92915050565b600082601f830112611b6757600080fd5b8135611b77848260208601611b03565b91505092915050565b600081359050611b8f816129f4565b92915050565b600060208284031215611ba757600080fd5b6000611bb584828501611b41565b91505092915050565b60008060408385031215611bd157600080fd5b6000611bdf85828601611b41565b9250506020611bf085828601611b41565b9150509250929050565b600080600060608486031215611c0f57600080fd5b6000611c1d86828701611b41565b9350506020611c2e86828701611b41565b9250506040611c3f86828701611b80565b9150509250925092565b60008060408385031215611c5c57600080fd5b6000611c6a85828601611b41565b9250506020611c7b85828601611b80565b9150509250929050565b600080600060608486031215611c9a57600080fd5b600084013567ffffffffffffffff811115611cb457600080fd5b611cc086828701611b56565b935050602084013567ffffffffffffffff811115611cdd57600080fd5b611ce986828701611b56565b9250506040611cfa86828701611b41565b9150509250925092565b611d0d816123af565b82525050565b611d1c816123c1565b82525050565b611d2b81612404565b82525050565b6000611d3c8261233d565b611d468185612348565b9350611d56818560208601612425565b611d5f81612548565b840191505092915050565b6000611d77602383612348565b9150611d8282612559565b604082019050919050565b6000611d9a601483612348565b9150611da5826125a8565b602082019050919050565b6000611dbd602283612348565b9150611dc8826125d1565b604082019050919050565b6000611de0602683612348565b9150611deb82612620565b604082019050919050565b6000611e03602283612348565b9150611e0e8261266f565b604082019050919050565b6000611e26601d83612348565b9150611e31826126be565b602082019050919050565b6000611e49602683612348565b9150611e54826126e7565b604082019050919050565b6000611e6c601e83612348565b9150611e7782612736565b602082019050919050565b6000611e8f601083612348565b9150611e9a8261275f565b602082019050919050565b6000611eb2601a83612348565b9150611ebd82612788565b602082019050919050565b6000611ed5602e83612348565b9150611ee0826127b1565b604082019050919050565b6000611ef8602083612348565b9150611f0382612800565b602082019050919050565b6000611f1b602183612348565b9150611f2682612829565b604082019050919050565b6000611f3e602583612348565b9150611f4982612878565b604082019050919050565b6000611f61602483612348565b9150611f6c826128c7565b604082019050919050565b6000611f84602b83612348565b9150611f8f82612916565b604082019050919050565b6000611fa7602583612348565b9150611fb282612965565b604082019050919050565b6000611fca601f83612348565b9150611fd5826129b4565b602082019050919050565b611fe9816123ed565b82525050565b611ff8816123f7565b82525050565b60006020820190506120136000830184611d04565b92915050565b600060208201905061202e6000830184611d13565b92915050565b60006020820190506120496000830184611d22565b92915050565b600060208201905081810360008301526120698184611d31565b905092915050565b6000602082019050818103600083015261208a81611d6a565b9050919050565b600060208201905081810360008301526120aa81611d8d565b9050919050565b600060208201905081810360008301526120ca81611db0565b9050919050565b600060208201905081810360008301526120ea81611dd3565b9050919050565b6000602082019050818103600083015261210a81611df6565b9050919050565b6000602082019050818103600083015261212a81611e19565b9050919050565b6000602082019050818103600083015261214a81611e3c565b9050919050565b6000602082019050818103600083015261216a81611e5f565b9050919050565b6000602082019050818103600083015261218a81611e82565b9050919050565b600060208201905081810360008301526121aa81611ea5565b9050919050565b600060208201905081810360008301526121ca81611ec8565b9050919050565b600060208201905081810360008301526121ea81611eeb565b9050919050565b6000602082019050818103600083015261220a81611f0e565b9050919050565b6000602082019050818103600083015261222a81611f31565b9050919050565b6000602082019050818103600083015261224a81611f54565b9050919050565b6000602082019050818103600083015261226a81611f77565b9050919050565b6000602082019050818103600083015261228a81611f9a565b9050919050565b600060208201905081810360008301526122aa81611fbd565b9050919050565b60006020820190506122c66000830184611fe0565b92915050565b60006020820190506122e16000830184611fef565b92915050565b60006122f1612302565b90506122fd828261248a565b919050565b6000604051905090565b600067ffffffffffffffff82111561232757612326612519565b5b61233082612548565b9050602081019050919050565b600081519050919050565b600082825260208201905092915050565b6000612364826123ed565b915061236f836123ed565b9250827fffffffffffffffffffffffffffffffffffffffffffffffffffffffffffffffff038211156123a4576123a36124bb565b5b828201905092915050565b60006123ba826123cd565b9050919050565b60008115159050919050565b600073ffffffffffffffffffffffffffffffffffffffff82169050919050565b6000819050919050565b600060ff82169050919050565b600061240f826123f7565b9050919050565b82818337600083830152505050565b60005b83811015612443578082015181840152602081019050612428565b83811115612452576000848401525b50505050565b6000600282049050600182168061247057607f821691505b60208210811415612484576124836124ea565b5b50919050565b61249382612548565b810181811067ffffffffffffffff821117156124b2576124b1612519565b5b80604052505050565b7f4e487b7100000000000000000000000000000000000000000000000000000000600052601160045260246000fd5b7f4e487b7100000000000000000000000000000000000000000000000000000000600052602260045260246000fd5b7f4e487b7100000000000000000000000000000000000000000000000000000000600052604160045260246000fd5b6000601f19601f8301169050919050565b7f45524332303a207472616e7366657220746f20746865207a65726f206164647260008201527f6573730000000000000000000000000000000000000000000000000000000000602082015250565b7f5061757361626c653a206e6f7420706175736564000000000000000000000000600082015250565b7f45524332303a206275726e20616d6f756e7420657863656564732062616c616e60008201527f6365000000000000000000000000000000000000000000000000000000000000602082015250565b7f4f776e61626c653a206e6577206f776e657220697320746865207a65726f206160008201527f6464726573730000000000000000000000000000000000000000000000000000602082015250565b7f45524332303a20617070726f766520746f20746865207a65726f20616464726560008201527f7373000000000000000000000000000000000000000000000000000000000000602082015250565b7f45524332303a20696e73756666696369656e7420616c6c6f77616e6365000000600082015250565b7f45524332303a207472616e7366657220616d6f756e742065786365656473206260008201527f616c616e63650000000000000000000000000000000000000000000000000000602082015250565b7f4f6e6c7920627269646765206f72206f776e65722063616e206d696e74210000600082015250565b7f5061757361626c653a2070617573656400000000000000000000000000000000600082015250565b7f455243323020746f6b656e20697320696e697469616c697a6564000000000000600082015250565b7f496e697469616c697a61626c653a20636f6e747261637420697320616c72656160008201527f647920696e697469616c697a6564000000000000000000000000000000000000602082015250565b7f4f776e61626c653a2063616c6c6572206973206e6f7420746865206f776e6572600082015250565b7f45524332303a206275726e2066726f6d20746865207a65726f2061646472657360008201527f7300000000000000000000000000000000000000000000000000000000000000602082015250565b7f45524332303a207472616e736665722066726f6d20746865207a65726f20616460008201527f6472657373000000000000000000000000000000000000000000000000000000602082015250565b7f45524332303a20617070726f76652066726f6d20746865207a65726f2061646460008201527f7265737300000000000000000000000000000000000000000000000000000000602082015250565b7f496e697469616c697a61626c653a20636f6e7472616374206973206e6f74206960008201527f6e697469616c697a696e67000000000000000000000000000000000000000000602082015250565b7f45524332303a2064656372656173656420616c6c6f77616e63652062656c6f7760008201527f207a65726f000000000000000000000000000000000000000000000000000000602082015250565b7f45524332303a206d696e7420746f20746865207a65726f206164647265737300600082015250565b6129e6816123af565b81146129f157600080fd5b50565b6129fd816123ed565b8114612a0857600080fd5b5056fea2646970667358221220261eac5f2d30c7fd7f391293e06342fd6ce4ce8d4387f84ee6b64217285227a264736f6c63430008040033",
  "linkReferences": {},
  "deployedLinkReferences": {}
}