{
  "_format": "hh-sol-artifact-1",
  "contractName": "CosmosBlockHeader",
  "sourceName": "contracts/ethBridge/blockHeader/CosmosBlockHeader.sol",
  "abi": [
    {
      "anonymous": false,
      "inputs": [
        {
          "indexed": false,
          "internalType": "uint8",
          "name": "version",
          "type": "uint8"
        }
      ],
      "name": "Initialized",
      "type": "event"
    },
    {
      "anonymous": false,
      "inputs": [
        {
          "indexed": true,
          "internalType": "address",
          "name": "previousOwner",
          "type": "address"
        },
        {
          "indexed": true,
          "internalType": "address",
          "name": "newOwner",
          "type": "address"
        }
      ],
      "name": "OwnershipTransferred",
      "type": "event"
    },
    {
      "anonymous": false,
      "inputs": [
        {
          "indexed": false,
          "internalType": "address",
          "name": "account",
          "type": "address"
        }
      ],
      "name": "Paused",
      "type": "event"
    },
    {
      "anonymous": false,
      "inputs": [
        {
          "indexed": false,
          "internalType": "address",
          "name": "account",
          "type": "address"
        }
      ],
      "name": "Unpaused",
      "type": "event"
    },
    {
      "inputs": [
        {
          "internalType": "uint256",
          "name": "",
          "type": "uint256"
        }
      ],
      "name": "blockHashAtHeight",
      "outputs": [
        {
          "internalType": "uint160",
          "name": "",
          "type": "uint160"
        }
      ],
      "stateMutability": "view",
      "type": "function"
    },
    {
      "inputs": [
        {
          "internalType": "uint256",
          "name": "",
          "type": "uint256"
        }
      ],
      "name": "dataHashAtHeight",
      "outputs": [
        {
          "internalType": "uint160",
          "name": "",
          "type": "uint160"
        }
      ],
      "stateMutability": "view",
      "type": "function"
    },
    {
      "inputs": [
        {
          "internalType": "uint256",
          "name": "_height",
          "type": "uint256"
        }
      ],
      "name": "getBlockHash",
      "outputs": [
        {
          "internalType": "uint160",
          "name": "",
          "type": "uint160"
        }
      ],
      "stateMutability": "view",
      "type": "function"
    },
    {
      "inputs": [],
      "name": "getCurrentBlockHash",
      "outputs": [
        {
          "internalType": "uint160",
          "name": "",
          "type": "uint160"
        }
      ],
      "stateMutability": "view",
      "type": "function"
    },
    {
      "inputs": [],
      "name": "getCurrentBlockHeight",
      "outputs": [
        {
          "internalType": "uint256",
          "name": "",
          "type": "uint256"
        }
      ],
      "stateMutability": "view",
      "type": "function"
    },
    {
      "inputs": [],
      "name": "getCurrentDataHash",
      "outputs": [
        {
          "internalType": "uint160",
          "name": "",
          "type": "uint160"
        }
      ],
      "stateMutability": "view",
      "type": "function"
    },
    {
      "inputs": [
        {
          "internalType": "uint256",
          "name": "_height",
          "type": "uint256"
        }
      ],
      "name": "getDataHash",
      "outputs": [
        {
          "internalType": "uint160",
          "name": "",
          "type": "uint160"
        }
      ],
      "stateMutability": "view",
      "type": "function"
    },
    {
      "inputs": [
        {
          "internalType": "address",
          "name": "_libAddressManager",
          "type": "address"
        },
        {
          "internalType": "uint256",
          "name": "_height",
          "type": "uint256"
        },
        {
          "internalType": "uint160",
          "name": "_blockHash",
          "type": "uint160"
        },
        {
          "internalType": "uint160",
          "name": "_dataHash",
          "type": "uint160"
        },
        {
          "internalType": "uint160",
          "name": "_validatorHash",
          "type": "uint160"
        }
      ],
      "name": "initialize",
      "outputs": [],
      "stateMutability": "nonpayable",
      "type": "function"
    },
    {
      "inputs": [],
      "name": "libAddressManager",
      "outputs": [
        {
          "internalType": "contract Lib_AddressManager",
          "name": "",
          "type": "address"
        }
      ],
      "stateMutability": "view",
      "type": "function"
    },
    {
      "inputs": [],
      "name": "owner",
      "outputs": [
        {
          "internalType": "address",
          "name": "",
          "type": "address"
        }
      ],
      "stateMutability": "view",
      "type": "function"
    },
    {
      "inputs": [],
      "name": "pause",
      "outputs": [],
      "stateMutability": "nonpayable",
      "type": "function"
    },
    {
      "inputs": [],
      "name": "paused",
      "outputs": [
        {
          "internalType": "bool",
          "name": "",
          "type": "bool"
        }
      ],
      "stateMutability": "view",
      "type": "function"
    },
    {
      "inputs": [],
      "name": "renounceOwnership",
      "outputs": [],
      "stateMutability": "nonpayable",
      "type": "function"
    },
    {
      "inputs": [
        {
          "internalType": "string",
          "name": "_name",
          "type": "string"
        }
      ],
      "name": "resolve",
      "outputs": [
        {
          "internalType": "address",
          "name": "",
          "type": "address"
        }
      ],
      "stateMutability": "view",
      "type": "function"
    },
    {
      "inputs": [
        {
          "internalType": "address",
          "name": "newOwner",
          "type": "address"
        }
      ],
      "name": "transferOwnership",
      "outputs": [],
      "stateMutability": "nonpayable",
      "type": "function"
    },
    {
      "inputs": [],
      "name": "unpauseContract",
      "outputs": [],
      "stateMutability": "nonpayable",
      "type": "function"
    },
    {
      "inputs": [
        {
          "internalType": "uint256",
          "name": "_height",
          "type": "uint256"
        },
        {
          "internalType": "uint160",
          "name": "_blockHash",
          "type": "uint160"
        }
      ],
      "name": "updateBlockHash",
      "outputs": [],
      "stateMutability": "nonpayable",
      "type": "function"
    },
    {
      "inputs": [
        {
          "internalType": "uint256",
          "name": "_height",
          "type": "uint256"
        },
        {
          "internalType": "uint160",
          "name": "_dataHash",
          "type": "uint160"
        }
      ],
      "name": "updateDataHash",
      "outputs": [],
      "stateMutability": "nonpayable",
      "type": "function"
    }
  ],
  "bytecode": "0x608060405234801561001057600080fd5b50611e86806100206000396000f3fe608060405234801561001057600080fd5b50600436106101165760003560e01c80638456cb59116100a2578063a595d8fc11610071578063a595d8fc14610297578063afa5b49b146102c7578063b33712c5146102f7578063ee82ac5e14610301578063f2fde38b1461033157610116565b80638456cb59146102235780638da5cb5b1461022d5780639298f1601461024b578063a22118881461026757610116565b80635c975abb116100e95780635c975abb146101a15780636096ade0146101bf578063715018a6146101dd5780637ca3d498146101e75780638060679e1461020557610116565b8063299ca4781461011b578063461a4478146101395780634656778214610169578063547546a114610185575b600080fd5b61012361034d565b6040516101309190611838565b60405180910390f35b610153600480360381019061014e919061151f565b610373565b6040516101609190611802565b60405180910390f35b610183600480360381019061017e91906114a8565b610426565b005b61019f600480360381019061019a91906115b2565b61073d565b005b6101a9610948565b6040516101b6919061181d565b60405180910390f35b6101c761095f565b6040516101d491906119f0565b60405180910390f35b6101e5610989565b005b6101ef61099d565b6040516101fc91906119f0565b60405180910390f35b61020d6109c7565b60405161021a9190611a0b565b60405180910390f35b61022b6109d1565b005b6102356109e3565b6040516102429190611802565b60405180910390f35b610265600480360381019061026091906115b2565b610a0d565b005b610281600480360381019061027c9190611560565b610d3d565b60405161028e91906119f0565b60405180910390f35b6102b160048036038101906102ac9190611560565b610d70565b6040516102be91906119f0565b60405180910390f35b6102e160048036038101906102dc9190611560565b610dad565b6040516102ee91906119f0565b60405180910390f35b6102ff610de0565b005b61031b60048036038101906103169190611560565b610df2565b60405161032891906119f0565b60405180910390f35b61034b60048036038101906103469190611456565b610e2f565b005b600060029054906101000a900473ffffffffffffffffffffffffffffffffffffffff1681565b60008060029054906101000a900473ffffffffffffffffffffffffffffffffffffffff1673ffffffffffffffffffffffffffffffffffffffff1663bf40fac1836040518263ffffffff1660e01b81526004016103cf919061186e565b60206040518083038186803b1580156103e757600080fd5b505afa1580156103fb573d6000803e3d6000fd5b505050506040513d601f19601f8201168201806040525081019061041f919061147f565b9050919050565b60008060019054906101000a900460ff161590508080156104575750600160008054906101000a900460ff1660ff16105b80610484575061046630610eb3565b1580156104835750600160008054906101000a900460ff1660ff16145b5b6104c3576040517f08c379a00000000000000000000000000000000000000000000000000000000081526004016104ba90611950565b60405180910390fd5b60016000806101000a81548160ff021916908360ff1602179055508015610500576001600060016101000a81548160ff0219169083151502179055505b600060c95414610545576040517f08c379a000000000000000000000000000000000000000000000000000000000815260040161053c90611910565b60405180910390fd5b8460c9819055508360ca60006101000a81548173ffffffffffffffffffffffffffffffffffffffff021916908373ffffffffffffffffffffffffffffffffffffffff1602179055508260cb60006101000a81548173ffffffffffffffffffffffffffffffffffffffff021916908373ffffffffffffffffffffffffffffffffffffffff1602179055508160cc60006101000a81548173ffffffffffffffffffffffffffffffffffffffff021916908373ffffffffffffffffffffffffffffffffffffffff1602179055508260cd600087815260200190815260200160002060006101000a81548173ffffffffffffffffffffffffffffffffffffffff021916908373ffffffffffffffffffffffffffffffffffffffff1602179055508360ce600087815260200190815260200160002060006101000a81548173ffffffffffffffffffffffffffffffffffffffff021916908373ffffffffffffffffffffffffffffffffffffffff1602179055506106bc86610ed6565b6106c4610f69565b6106cc610fba565b6106d461101b565b6106dc611087565b80156107355760008060016101000a81548160ff0219169083151502179055507f7f26b83ff96e1f2b6a682f133852f6798a09c465da95921460cefb3847402498600160405161072c9190611853565b60405180910390a15b505050505050565b61077b6040518060400160405280600c81526020017f4f52414953414e5f474154450000000000000000000000000000000000000000815250610373565b73ffffffffffffffffffffffffffffffffffffffff163373ffffffffffffffffffffffffffffffffffffffff1614806107e657506107b76109e3565b73ffffffffffffffffffffffffffffffffffffffff163373ffffffffffffffffffffffffffffffffffffffff16145b610825576040517f08c379a000000000000000000000000000000000000000000000000000000000815260040161081c906118b0565b60405180910390fd5b600060cd600084815260200190815260200160002060009054906101000a900473ffffffffffffffffffffffffffffffffffffffff1673ffffffffffffffffffffffffffffffffffffffff16146108b1576040517f08c379a00000000000000000000000000000000000000000000000000000000081526004016108a8906118f0565b60405180910390fd5b8060cb60006101000a81548173ffffffffffffffffffffffffffffffffffffffff021916908373ffffffffffffffffffffffffffffffffffffffff1602179055508060cd600084815260200190815260200160002060006101000a81548173ffffffffffffffffffffffffffffffffffffffff021916908373ffffffffffffffffffffffffffffffffffffffff1602179055505050565b6000606560009054906101000a900460ff16905090565b600060cb60009054906101000a900473ffffffffffffffffffffffffffffffffffffffff16905090565b6109916110e0565b61099b600061115e565b565b600060ca60009054906101000a900473ffffffffffffffffffffffffffffffffffffffff16905090565b600060c954905090565b6109d96110e0565b6109e1611224565b565b6000603360009054906101000a900473ffffffffffffffffffffffffffffffffffffffff16905090565b610a4b6040518060400160405280600c81526020017f4f52414953414e5f474154450000000000000000000000000000000000000000815250610373565b73ffffffffffffffffffffffffffffffffffffffff163373ffffffffffffffffffffffffffffffffffffffff161480610ab65750610a876109e3565b73ffffffffffffffffffffffffffffffffffffffff163373ffffffffffffffffffffffffffffffffffffffff16145b610af5576040517f08c379a0000000000000000000000000000000000000000000000000000000008152600401610aec906118b0565b60405180910390fd5b610b336040518060400160405280601181526020017f434f534d4f535f56414c494441544f5253000000000000000000000000000000815250610373565b73ffffffffffffffffffffffffffffffffffffffff16638060679e6040518163ffffffff1660e01b815260040160206040518083038186803b158015610b7857600080fd5b505afa158015610b8c573d6000803e3d6000fd5b505050506040513d601f19601f82011682018060405250810190610bb09190611589565b8214610bf1576040517f08c379a0000000000000000000000000000000000000000000000000000000008152600401610be8906119d0565b60405180910390fd5b600060ce600084815260200190815260200160002060009054906101000a900473ffffffffffffffffffffffffffffffffffffffff1673ffffffffffffffffffffffffffffffffffffffff1614610c7d576040517f08c379a0000000000000000000000000000000000000000000000000000000008152600401610c7490611970565b60405180910390fd5b8160c9819055508060ca60006101000a81548173ffffffffffffffffffffffffffffffffffffffff021916908373ffffffffffffffffffffffffffffffffffffffff16021790555060ca60009054906101000a900473ffffffffffffffffffffffffffffffffffffffff1660ce600084815260200190815260200160002060006101000a81548173ffffffffffffffffffffffffffffffffffffffff021916908373ffffffffffffffffffffffffffffffffffffffff1602179055505050565b60cd6020528060005260406000206000915054906101000a900473ffffffffffffffffffffffffffffffffffffffff1681565b600060cd600083815260200190815260200160002060009054906101000a900473ffffffffffffffffffffffffffffffffffffffff169050919050565b60ce6020528060005260406000206000915054906101000a900473ffffffffffffffffffffffffffffffffffffffff1681565b610de86110e0565b610df0611287565b565b600060ce600083815260200190815260200160002060009054906101000a900473ffffffffffffffffffffffffffffffffffffffff169050919050565b610e376110e0565b600073ffffffffffffffffffffffffffffffffffffffff168173ffffffffffffffffffffffffffffffffffffffff161415610ea7576040517f08c379a0000000000000000000000000000000000000000000000000000000008152600401610e9e906118d0565b60405180910390fd5b610eb08161115e565b50565b6000808273ffffffffffffffffffffffffffffffffffffffff163b119050919050565b600060019054906101000a900460ff16610f25576040517f08c379a0000000000000000000000000000000000000000000000000000000008152600401610f1c906119b0565b60405180910390fd5b80600060026101000a81548173ffffffffffffffffffffffffffffffffffffffff021916908373ffffffffffffffffffffffffffffffffffffffff16021790555050565b600060019054906101000a900460ff16610fb8576040517f08c379a0000000000000000000000000000000000000000000000000000000008152600401610faf906119b0565b60405180910390fd5b565b600060019054906101000a900460ff16611009576040517f08c379a0000000000000000000000000000000000000000000000000000000008152600401611000906119b0565b60405180910390fd5b6110196110146112ea565b61115e565b565b600060019054906101000a900460ff1661106a576040517f08c379a0000000000000000000000000000000000000000000000000000000008152600401611061906119b0565b60405180910390fd5b6000606560006101000a81548160ff021916908315150217905550565b600060019054906101000a900460ff166110d6576040517f08c379a00000000000000000000000000000000000000000000000000000000081526004016110cd906119b0565b60405180910390fd5b6001609781905550565b6110e86112ea565b73ffffffffffffffffffffffffffffffffffffffff166111066109e3565b73ffffffffffffffffffffffffffffffffffffffff161461115c576040517f08c379a000000000000000000000000000000000000000000000000000000000815260040161115390611990565b60405180910390fd5b565b6000603360009054906101000a900473ffffffffffffffffffffffffffffffffffffffff16905081603360006101000a81548173ffffffffffffffffffffffffffffffffffffffff021916908373ffffffffffffffffffffffffffffffffffffffff1602179055508173ffffffffffffffffffffffffffffffffffffffff168173ffffffffffffffffffffffffffffffffffffffff167f8be0079c531659141344cd1fd0a4f28419497f9722a3daafe3b4186f6b6457e060405160405180910390a35050565b61122c6112f2565b6001606560006101000a81548160ff0219169083151502179055507f62e78cea01bee320cd4e420270b5ea74000d11b0c9f74754ebdbfc544b05a2586112706112ea565b60405161127d9190611802565b60405180910390a1565b61128f61133c565b6000606560006101000a81548160ff0219169083151502179055507f5db9ee0a495bf2e6ff9c91a7834c1ba4fdd244a5e8aa4e537bd38aeae4b073aa6112d36112ea565b6040516112e09190611802565b60405180910390a1565b600033905090565b6112fa610948565b1561133a576040517f08c379a000000000000000000000000000000000000000000000000000000000815260040161133190611930565b60405180910390fd5b565b611344610948565b611383576040517f08c379a000000000000000000000000000000000000000000000000000000000815260040161137a90611890565b60405180910390fd5b565b600061139861139384611a4b565b611a26565b9050828152602081018484840111156113b057600080fd5b6113bb848285611b23565b509392505050565b6000813590506113d281611e0b565b92915050565b6000815190506113e781611e0b565b92915050565b600082601f8301126113fe57600080fd5b813561140e848260208601611385565b91505092915050565b60008135905061142681611e22565b92915050565b60008135905061143b81611e39565b92915050565b60008151905061145081611e39565b92915050565b60006020828403121561146857600080fd5b6000611476848285016113c3565b91505092915050565b60006020828403121561149157600080fd5b600061149f848285016113d8565b91505092915050565b600080600080600060a086880312156114c057600080fd5b60006114ce888289016113c3565b95505060206114df8882890161142c565b94505060406114f088828901611417565b935050606061150188828901611417565b925050608061151288828901611417565b9150509295509295909350565b60006020828403121561153157600080fd5b600082013567ffffffffffffffff81111561154b57600080fd5b611557848285016113ed565b91505092915050565b60006020828403121561157257600080fd5b60006115808482850161142c565b91505092915050565b60006020828403121561159b57600080fd5b60006115a984828501611441565b91505092915050565b600080604083850312156115c557600080fd5b60006115d38582860161142c565b92505060206115e485828601611417565b9150509250929050565b6115f781611a98565b82525050565b61160681611aaa565b82525050565b61161581611aed565b82525050565b61162481611b11565b82525050565b600061163582611a7c565b61163f8185611a87565b935061164f818560208601611b32565b61165881611bc5565b840191505092915050565b6000611670601483611a87565b915061167b82611bd6565b602082019050919050565b6000611693600e83611a87565b915061169e82611bff565b602082019050919050565b60006116b6602683611a87565b91506116c182611c28565b604082019050919050565b60006116d9601383611a87565b91506116e482611c77565b602082019050919050565b60006116fc602083611a87565b915061170782611ca0565b602082019050919050565b600061171f601083611a87565b915061172a82611cc9565b602082019050919050565b6000611742602e83611a87565b915061174d82611cf2565b604082019050919050565b6000611765601483611a87565b915061177082611d41565b602082019050919050565b6000611788602083611a87565b915061179382611d6a565b602082019050919050565b60006117ab602b83611a87565b91506117b682611d93565b604082019050919050565b60006117ce601683611a87565b91506117d982611de2565b602082019050919050565b6117ed81611ab6565b82525050565b6117fc81611ad6565b82525050565b600060208201905061181760008301846115ee565b92915050565b600060208201905061183260008301846115fd565b92915050565b600060208201905061184d600083018461160c565b92915050565b6000602082019050611868600083018461161b565b92915050565b60006020820190508181036000830152611888818461162a565b905092915050565b600060208201905081810360008301526118a981611663565b9050919050565b600060208201905081810360008301526118c981611686565b9050919050565b600060208201905081810360008301526118e9816116a9565b9050919050565b60006020820190508181036000830152611909816116cc565b9050919050565b60006020820190508181036000830152611929816116ef565b9050919050565b6000602082019050818103600083015261194981611712565b9050919050565b6000602082019050818103600083015261196981611735565b9050919050565b6000602082019050818103600083015261198981611758565b9050919050565b600060208201905081810360008301526119a98161177b565b9050919050565b600060208201905081810360008301526119c98161179e565b9050919050565b600060208201905081810360008301526119e9816117c1565b9050919050565b6000602082019050611a0560008301846117e4565b92915050565b6000602082019050611a2060008301846117f3565b92915050565b6000611a30611a41565b9050611a3c8282611b65565b919050565b6000604051905090565b600067ffffffffffffffff821115611a6657611a65611b96565b5b611a6f82611bc5565b9050602081019050919050565b600081519050919050565b600082825260208201905092915050565b6000611aa382611ab6565b9050919050565b60008115159050919050565b600073ffffffffffffffffffffffffffffffffffffffff82169050919050565b6000819050919050565b600060ff82169050919050565b6000611af882611aff565b9050919050565b6000611b0a82611ab6565b9050919050565b6000611b1c82611ae0565b9050919050565b82818337600083830152505050565b60005b83811015611b50578082015181840152602081019050611b35565b83811115611b5f576000848401525b50505050565b611b6e82611bc5565b810181811067ffffffffffffffff82111715611b8d57611b8c611b96565b5b80604052505050565b7f4e487b7100000000000000000000000000000000000000000000000000000000600052604160045260246000fd5b6000601f19601f8301169050919050565b7f5061757361626c653a206e6f7420706175736564000000000000000000000000600082015250565b7f696e76616c69642073656e646572000000000000000000000000000000000000600082015250565b7f4f776e61626c653a206e6577206f776e657220697320746865207a65726f206160008201527f6464726573730000000000000000000000000000000000000000000000000000602082015250565b7f6461746168617368206973206578697374656400000000000000000000000000600082015250565b7f436f736d6f73426c6f636b48656164657220697320696e697469616c697a6564600082015250565b7f5061757361626c653a2070617573656400000000000000000000000000000000600082015250565b7f496e697469616c697a61626c653a20636f6e747261637420697320616c72656160008201527f647920696e697469616c697a6564000000000000000000000000000000000000602082015250565b7f626c6f636b486173682069732065786973746564000000000000000000000000600082015250565b7f4f776e61626c653a2063616c6c6572206973206e6f7420746865206f776e6572600082015250565b7f496e697469616c697a61626c653a20636f6e7472616374206973206e6f74206960008201527f6e697469616c697a696e67000000000000000000000000000000000000000000602082015250565b7f696e76616c696420206865696768742068656164657200000000000000000000600082015250565b611e1481611a98565b8114611e1f57600080fd5b50565b611e2b81611ab6565b8114611e3657600080fd5b50565b611e4281611ad6565b8114611e4d57600080fd5b5056fea264697066735822122098d87ac25335db8329aeef6f95653d101816d6359c9bc77596955f7b7e98d3ae64736f6c63430008040033",
  "linkReferences": {},
  "deployedLinkReferences": {}
}