{
  "_format": "hh-sol-artifact-1",
  "contractName": "CosmosBlockHeader",
  "sourceName": "contracts/ethBridge/blockHeader/CosmosBlockHeader.sol",
  "abi": [
    {
      "anonymous": false,
      "inputs": [
        {
          "indexed": false,
          "internalType": "uint8",
          "name": "version",
          "type": "uint8"
        }
      ],
      "name": "Initialized",
      "type": "event"
    },
    {
      "anonymous": false,
      "inputs": [
        {
          "indexed": true,
          "internalType": "address",
          "name": "previousOwner",
          "type": "address"
        },
        {
          "indexed": true,
          "internalType": "address",
          "name": "newOwner",
          "type": "address"
        }
      ],
      "name": "OwnershipTransferred",
      "type": "event"
    },
    {
      "anonymous": false,
      "inputs": [
        {
          "indexed": false,
          "internalType": "address",
          "name": "account",
          "type": "address"
        }
      ],
      "name": "Paused",
      "type": "event"
    },
    {
      "anonymous": false,
      "inputs": [
        {
          "indexed": false,
          "internalType": "address",
          "name": "account",
          "type": "address"
        }
      ],
      "name": "Unpaused",
      "type": "event"
    },
    {
      "inputs": [
        {
          "internalType": "uint256",
          "name": "",
          "type": "uint256"
        }
      ],
      "name": "blockHashAtHeight",
      "outputs": [
        {
          "internalType": "bytes20",
          "name": "",
          "type": "bytes20"
        }
      ],
      "stateMutability": "view",
      "type": "function"
    },
    {
      "inputs": [
        {
          "internalType": "uint256",
          "name": "",
          "type": "uint256"
        }
      ],
      "name": "dataHashAtHeight",
      "outputs": [
        {
          "internalType": "bytes20",
          "name": "",
          "type": "bytes20"
        }
      ],
      "stateMutability": "view",
      "type": "function"
    },
    {
      "inputs": [
        {
          "internalType": "uint256",
          "name": "_height",
          "type": "uint256"
        }
      ],
      "name": "getBlockHash",
      "outputs": [
        {
          "internalType": "bytes20",
          "name": "",
          "type": "bytes20"
        }
      ],
      "stateMutability": "view",
      "type": "function"
    },
    {
      "inputs": [],
      "name": "getCurrentBlockHash",
      "outputs": [
        {
          "internalType": "bytes20",
          "name": "",
          "type": "bytes20"
        }
      ],
      "stateMutability": "view",
      "type": "function"
    },
    {
      "inputs": [],
      "name": "getCurrentBlockHeight",
      "outputs": [
        {
          "internalType": "uint256",
          "name": "",
          "type": "uint256"
        }
      ],
      "stateMutability": "view",
      "type": "function"
    },
    {
      "inputs": [],
      "name": "getCurrentDataHash",
      "outputs": [
        {
          "internalType": "bytes20",
          "name": "",
          "type": "bytes20"
        }
      ],
      "stateMutability": "view",
      "type": "function"
    },
    {
      "inputs": [
        {
          "internalType": "uint256",
          "name": "_height",
          "type": "uint256"
        }
      ],
      "name": "getDataHash",
      "outputs": [
        {
          "internalType": "bytes20",
          "name": "",
          "type": "bytes20"
        }
      ],
      "stateMutability": "view",
      "type": "function"
    },
    {
      "inputs": [
        {
          "internalType": "address",
          "name": "_libAddressManager",
          "type": "address"
        },
        {
          "internalType": "uint256",
          "name": "_height",
          "type": "uint256"
        },
        {
          "internalType": "bytes20",
          "name": "_blockHash",
          "type": "bytes20"
        },
        {
          "internalType": "bytes20",
          "name": "_dataHash",
          "type": "bytes20"
        },
        {
          "internalType": "bytes20",
          "name": "_validatorHash",
          "type": "bytes20"
        }
      ],
      "name": "initialize",
      "outputs": [],
      "stateMutability": "nonpayable",
      "type": "function"
    },
    {
      "inputs": [],
      "name": "libAddressManager",
      "outputs": [
        {
          "internalType": "contract Lib_AddressManager",
          "name": "",
          "type": "address"
        }
      ],
      "stateMutability": "view",
      "type": "function"
    },
    {
      "inputs": [],
      "name": "owner",
      "outputs": [
        {
          "internalType": "address",
          "name": "",
          "type": "address"
        }
      ],
      "stateMutability": "view",
      "type": "function"
    },
    {
      "inputs": [],
      "name": "pause",
      "outputs": [],
      "stateMutability": "nonpayable",
      "type": "function"
    },
    {
      "inputs": [],
      "name": "paused",
      "outputs": [
        {
          "internalType": "bool",
          "name": "",
          "type": "bool"
        }
      ],
      "stateMutability": "view",
      "type": "function"
    },
    {
      "inputs": [],
      "name": "renounceOwnership",
      "outputs": [],
      "stateMutability": "nonpayable",
      "type": "function"
    },
    {
      "inputs": [
        {
          "internalType": "string",
          "name": "_name",
          "type": "string"
        }
      ],
      "name": "resolve",
      "outputs": [
        {
          "internalType": "address",
          "name": "",
          "type": "address"
        }
      ],
      "stateMutability": "view",
      "type": "function"
    },
    {
      "inputs": [
        {
          "internalType": "address",
          "name": "newOwner",
          "type": "address"
        }
      ],
      "name": "transferOwnership",
      "outputs": [],
      "stateMutability": "nonpayable",
      "type": "function"
    },
    {
      "inputs": [],
      "name": "unpauseContract",
      "outputs": [],
      "stateMutability": "nonpayable",
      "type": "function"
    },
    {
      "inputs": [
        {
          "internalType": "uint256",
          "name": "_height",
          "type": "uint256"
        },
        {
          "internalType": "bytes20",
          "name": "_blockHash",
          "type": "bytes20"
        }
      ],
      "name": "updateBlockHash",
      "outputs": [],
      "stateMutability": "nonpayable",
      "type": "function"
    },
    {
      "inputs": [
        {
          "internalType": "uint256",
          "name": "_height",
          "type": "uint256"
        },
        {
          "internalType": "bytes20",
          "name": "_dataHash",
          "type": "bytes20"
        }
      ],
      "name": "updateDataHash",
      "outputs": [],
      "stateMutability": "nonpayable",
      "type": "function"
    }
  ],
  "bytecode": "0x608060405234801561001057600080fd5b50611d54806100206000396000f3fe608060405234801561001057600080fd5b50600436106101165760003560e01c80638456cb59116100a2578063a595d8fc11610071578063a595d8fc14610297578063afa5b49b146102c7578063b33712c5146102f7578063ee82ac5e14610301578063f2fde38b1461033157610116565b80638456cb59146102235780638da5cb5b1461022d57806398a7b57e1461024b578063a22118881461026757610116565b80635c975abb116100e95780635c975abb146101a15780636096ade0146101bf578063715018a6146101dd5780637ca3d498146101e75780638060679e1461020557610116565b80630e95bd721461011b5780630f611d4a14610137578063299ca47814610153578063461a447814610171575b600080fd5b61013560048036038101906101309190611454565b61034d565b005b610151600480360381019061014c919061134a565b61051b565b005b61015b6107d3565b60405161016891906116f5565b60405180910390f35b61018b600480360381019061018691906113c1565b6107f9565b60405161019891906116a4565b60405180910390f35b6101a96108ac565b6040516101b691906116bf565b60405180910390f35b6101c76108c3565b6040516101d491906116da565b60405180910390f35b6101e56108da565b005b6101ef6108ee565b6040516101fc91906116da565b60405180910390f35b61020d610905565b60405161021a91906118ad565b60405180910390f35b61022b61090f565b005b610235610921565b60405161024291906116a4565b60405180910390f35b61026560048036038101906102609190611454565b61094b565b005b610281600480360381019061027c9190611402565b610c2b565b60405161028e91906116da565b60405180910390f35b6102b160048036038101906102ac9190611402565b610c4b565b6040516102be91906116da565b60405180910390f35b6102e160048036038101906102dc9190611402565b610c75565b6040516102ee91906116da565b60405180910390f35b6102ff610c95565b005b61031b60048036038101906103169190611402565b610ca7565b60405161032891906116da565b60405180910390f35b61034b600480360381019061034691906112f8565b610cd1565b005b61038b6040518060400160405280600c81526020017f4f52414953414e5f4741544500000000000000000000000000000000000000008152506107f9565b73ffffffffffffffffffffffffffffffffffffffff163373ffffffffffffffffffffffffffffffffffffffff1614806103f657506103c7610921565b73ffffffffffffffffffffffffffffffffffffffff163373ffffffffffffffffffffffffffffffffffffffff16145b610435576040517f08c379a000000000000000000000000000000000000000000000000000000000815260040161042c9061176d565b60405180910390fd5b600060601b60cd600084815260200190815260200160002060009054906101000a900460601b6bffffffffffffffffffffffff1916146104aa576040517f08c379a00000000000000000000000000000000000000000000000000000000081526004016104a1906117ad565b60405180910390fd5b8060cb60006101000a81548173ffffffffffffffffffffffffffffffffffffffff021916908360601c02179055508060cd600084815260200190815260200160002060006101000a81548173ffffffffffffffffffffffffffffffffffffffff021916908360601c02179055505050565b60008060019054906101000a900460ff1615905080801561054c5750600160008054906101000a900460ff1660ff16105b80610579575061055b30610d55565b1580156105785750600160008054906101000a900460ff1660ff16145b5b6105b8576040517f08c379a00000000000000000000000000000000000000000000000000000000081526004016105af9061180d565b60405180910390fd5b60016000806101000a81548160ff021916908360ff16021790555080156105f5576001600060016101000a81548160ff0219169083151502179055505b600060c9541461063a576040517f08c379a0000000000000000000000000000000000000000000000000000000008152600401610631906117cd565b60405180910390fd5b8460c9819055508360ca60006101000a81548173ffffffffffffffffffffffffffffffffffffffff021916908360601c02179055508260cb60006101000a81548173ffffffffffffffffffffffffffffffffffffffff021916908360601c02179055508160cc60006101000a81548173ffffffffffffffffffffffffffffffffffffffff021916908360601c02179055508260cd600087815260200190815260200160002060006101000a81548173ffffffffffffffffffffffffffffffffffffffff021916908360601c02179055508360ce600087815260200190815260200160002060006101000a81548173ffffffffffffffffffffffffffffffffffffffff021916908360601c021790555061075286610d78565b61075a610e0b565b610762610e5c565b61076a610ebd565b610772610f29565b80156107cb5760008060016101000a81548160ff0219169083151502179055507f7f26b83ff96e1f2b6a682f133852f6798a09c465da95921460cefb384740249860016040516107c29190611710565b60405180910390a15b505050505050565b600060029054906101000a900473ffffffffffffffffffffffffffffffffffffffff1681565b60008060029054906101000a900473ffffffffffffffffffffffffffffffffffffffff1673ffffffffffffffffffffffffffffffffffffffff1663bf40fac1836040518263ffffffff1660e01b8152600401610855919061172b565b60206040518083038186803b15801561086d57600080fd5b505afa158015610881573d6000803e3d6000fd5b505050506040513d601f19601f820116820180604052508101906108a59190611321565b9050919050565b6000606560009054906101000a900460ff16905090565b600060cb60009054906101000a900460601b905090565b6108e2610f82565b6108ec6000611000565b565b600060ca60009054906101000a900460601b905090565b600060c954905090565b610917610f82565b61091f6110c6565b565b6000603360009054906101000a900473ffffffffffffffffffffffffffffffffffffffff16905090565b6109896040518060400160405280600c81526020017f4f52414953414e5f4741544500000000000000000000000000000000000000008152506107f9565b73ffffffffffffffffffffffffffffffffffffffff163373ffffffffffffffffffffffffffffffffffffffff1614806109f457506109c5610921565b73ffffffffffffffffffffffffffffffffffffffff163373ffffffffffffffffffffffffffffffffffffffff16145b610a33576040517f08c379a0000000000000000000000000000000000000000000000000000000008152600401610a2a9061176d565b60405180910390fd5b610a716040518060400160405280601181526020017f434f534d4f535f56414c494441544f52530000000000000000000000000000008152506107f9565b73ffffffffffffffffffffffffffffffffffffffff16638060679e6040518163ffffffff1660e01b815260040160206040518083038186803b158015610ab657600080fd5b505afa158015610aca573d6000803e3d6000fd5b505050506040513d601f19601f82011682018060405250810190610aee919061142b565b8214610b2f576040517f08c379a0000000000000000000000000000000000000000000000000000000008152600401610b269061188d565b60405180910390fd5b600060601b60ce600084815260200190815260200160002060009054906101000a900460601b6bffffffffffffffffffffffff191614610ba4576040517f08c379a0000000000000000000000000000000000000000000000000000000008152600401610b9b9061182d565b60405180910390fd5b8160c9819055508060ca60006101000a81548173ffffffffffffffffffffffffffffffffffffffff021916908360601c021790555060ca60009054906101000a900460601b60ce600084815260200190815260200160002060006101000a81548173ffffffffffffffffffffffffffffffffffffffff021916908360601c02179055505050565b60cd6020528060005260406000206000915054906101000a900460601b81565b600060cd600083815260200190815260200160002060009054906101000a900460601b9050919050565b60ce6020528060005260406000206000915054906101000a900460601b81565b610c9d610f82565b610ca5611129565b565b600060ce600083815260200190815260200160002060009054906101000a900460601b9050919050565b610cd9610f82565b600073ffffffffffffffffffffffffffffffffffffffff168173ffffffffffffffffffffffffffffffffffffffff161415610d49576040517f08c379a0000000000000000000000000000000000000000000000000000000008152600401610d409061178d565b60405180910390fd5b610d5281611000565b50565b6000808273ffffffffffffffffffffffffffffffffffffffff163b119050919050565b600060019054906101000a900460ff16610dc7576040517f08c379a0000000000000000000000000000000000000000000000000000000008152600401610dbe9061186d565b60405180910390fd5b80600060026101000a81548173ffffffffffffffffffffffffffffffffffffffff021916908373ffffffffffffffffffffffffffffffffffffffff16021790555050565b600060019054906101000a900460ff16610e5a576040517f08c379a0000000000000000000000000000000000000000000000000000000008152600401610e519061186d565b60405180910390fd5b565b600060019054906101000a900460ff16610eab576040517f08c379a0000000000000000000000000000000000000000000000000000000008152600401610ea29061186d565b60405180910390fd5b610ebb610eb661118c565b611000565b565b600060019054906101000a900460ff16610f0c576040517f08c379a0000000000000000000000000000000000000000000000000000000008152600401610f039061186d565b60405180910390fd5b6000606560006101000a81548160ff021916908315150217905550565b600060019054906101000a900460ff16610f78576040517f08c379a0000000000000000000000000000000000000000000000000000000008152600401610f6f9061186d565b60405180910390fd5b6001609781905550565b610f8a61118c565b73ffffffffffffffffffffffffffffffffffffffff16610fa8610921565b73ffffffffffffffffffffffffffffffffffffffff1614610ffe576040517f08c379a0000000000000000000000000000000000000000000000000000000008152600401610ff59061184d565b60405180910390fd5b565b6000603360009054906101000a900473ffffffffffffffffffffffffffffffffffffffff16905081603360006101000a81548173ffffffffffffffffffffffffffffffffffffffff021916908373ffffffffffffffffffffffffffffffffffffffff1602179055508173ffffffffffffffffffffffffffffffffffffffff168173ffffffffffffffffffffffffffffffffffffffff167f8be0079c531659141344cd1fd0a4f28419497f9722a3daafe3b4186f6b6457e060405160405180910390a35050565b6110ce611194565b6001606560006101000a81548160ff0219169083151502179055507f62e78cea01bee320cd4e420270b5ea74000d11b0c9f74754ebdbfc544b05a25861111261118c565b60405161111f91906116a4565b60405180910390a1565b6111316111de565b6000606560006101000a81548160ff0219169083151502179055507f5db9ee0a495bf2e6ff9c91a7834c1ba4fdd244a5e8aa4e537bd38aeae4b073aa61117561118c565b60405161118291906116a4565b60405180910390a1565b600033905090565b61119c6108ac565b156111dc576040517f08c379a00000000000000000000000000000000000000000000000000000000081526004016111d3906117ed565b60405180910390fd5b565b6111e66108ac565b611225576040517f08c379a000000000000000000000000000000000000000000000000000000000815260040161121c9061174d565b60405180910390fd5b565b600061123a611235846118ed565b6118c8565b90508281526020810184848401111561125257600080fd5b61125d8482856119f1565b509392505050565b60008135905061127481611cd9565b92915050565b60008151905061128981611cd9565b92915050565b60008135905061129e81611cf0565b92915050565b600082601f8301126112b557600080fd5b81356112c5848260208601611227565b91505092915050565b6000813590506112dd81611d07565b92915050565b6000815190506112f281611d07565b92915050565b60006020828403121561130a57600080fd5b600061131884828501611265565b91505092915050565b60006020828403121561133357600080fd5b60006113418482850161127a565b91505092915050565b600080600080600060a0868803121561136257600080fd5b600061137088828901611265565b9550506020611381888289016112ce565b94505060406113928882890161128f565b93505060606113a38882890161128f565b92505060806113b48882890161128f565b9150509295509295909350565b6000602082840312156113d357600080fd5b600082013567ffffffffffffffff8111156113ed57600080fd5b6113f9848285016112a4565b91505092915050565b60006020828403121561141457600080fd5b6000611422848285016112ce565b91505092915050565b60006020828403121561143d57600080fd5b600061144b848285016112e3565b91505092915050565b6000806040838503121561146757600080fd5b6000611475858286016112ce565b92505060206114868582860161128f565b9150509250929050565b6114998161193a565b82525050565b6114a88161194c565b82525050565b6114b781611958565b82525050565b6114c6816119bb565b82525050565b6114d5816119df565b82525050565b60006114e68261191e565b6114f08185611929565b9350611500818560208601611a00565b61150981611a93565b840191505092915050565b6000611521601483611929565b915061152c82611aa4565b602082019050919050565b6000611544600e83611929565b915061154f82611acd565b602082019050919050565b6000611567602683611929565b915061157282611af6565b604082019050919050565b600061158a601383611929565b915061159582611b45565b602082019050919050565b60006115ad602083611929565b91506115b882611b6e565b602082019050919050565b60006115d0601083611929565b91506115db82611b97565b602082019050919050565b60006115f3602e83611929565b91506115fe82611bc0565b604082019050919050565b6000611616601483611929565b915061162182611c0f565b602082019050919050565b6000611639602083611929565b915061164482611c38565b602082019050919050565b600061165c602b83611929565b915061166782611c61565b604082019050919050565b600061167f601683611929565b915061168a82611cb0565b602082019050919050565b61169e816119a4565b82525050565b60006020820190506116b96000830184611490565b92915050565b60006020820190506116d4600083018461149f565b92915050565b60006020820190506116ef60008301846114ae565b92915050565b600060208201905061170a60008301846114bd565b92915050565b600060208201905061172560008301846114cc565b92915050565b6000602082019050818103600083015261174581846114db565b905092915050565b6000602082019050818103600083015261176681611514565b9050919050565b6000602082019050818103600083015261178681611537565b9050919050565b600060208201905081810360008301526117a68161155a565b9050919050565b600060208201905081810360008301526117c68161157d565b9050919050565b600060208201905081810360008301526117e6816115a0565b9050919050565b60006020820190508181036000830152611806816115c3565b9050919050565b60006020820190508181036000830152611826816115e6565b9050919050565b6000602082019050818103600083015261184681611609565b9050919050565b600060208201905081810360008301526118668161162c565b9050919050565b600060208201905081810360008301526118868161164f565b9050919050565b600060208201905081810360008301526118a681611672565b9050919050565b60006020820190506118c26000830184611695565b92915050565b60006118d26118e3565b90506118de8282611a33565b919050565b6000604051905090565b600067ffffffffffffffff82111561190857611907611a64565b5b61191182611a93565b9050602081019050919050565b600081519050919050565b600082825260208201905092915050565b600061194582611984565b9050919050565b60008115159050919050565b60007fffffffffffffffffffffffffffffffffffffffff00000000000000000000000082169050919050565b600073ffffffffffffffffffffffffffffffffffffffff82169050919050565b6000819050919050565b600060ff82169050919050565b60006119c6826119cd565b9050919050565b60006119d882611984565b9050919050565b60006119ea826119ae565b9050919050565b82818337600083830152505050565b60005b83811015611a1e578082015181840152602081019050611a03565b83811115611a2d576000848401525b50505050565b611a3c82611a93565b810181811067ffffffffffffffff82111715611a5b57611a5a611a64565b5b80604052505050565b7f4e487b7100000000000000000000000000000000000000000000000000000000600052604160045260246000fd5b6000601f19601f8301169050919050565b7f5061757361626c653a206e6f7420706175736564000000000000000000000000600082015250565b7f696e76616c69642073656e646572000000000000000000000000000000000000600082015250565b7f4f776e61626c653a206e6577206f776e657220697320746865207a65726f206160008201527f6464726573730000000000000000000000000000000000000000000000000000602082015250565b7f6461746168617368206973206578697374656400000000000000000000000000600082015250565b7f436f736d6f73426c6f636b48656164657220697320696e697469616c697a6564600082015250565b7f5061757361626c653a2070617573656400000000000000000000000000000000600082015250565b7f496e697469616c697a61626c653a20636f6e747261637420697320616c72656160008201527f647920696e697469616c697a6564000000000000000000000000000000000000602082015250565b7f626c6f636b486173682069732065786973746564000000000000000000000000600082015250565b7f4f776e61626c653a2063616c6c6572206973206e6f7420746865206f776e6572600082015250565b7f496e697469616c697a61626c653a20636f6e7472616374206973206e6f74206960008201527f6e697469616c697a696e67000000000000000000000000000000000000000000602082015250565b7f696e76616c696420206865696768742068656164657200000000000000000000600082015250565b611ce28161193a565b8114611ced57600080fd5b50565b611cf981611958565b8114611d0457600080fd5b50565b611d10816119a4565b8114611d1b57600080fd5b5056fea2646970667358221220d57ab2821587b2cf8c5a4e3558b5f946957dc0dafbeb2a9a77669f629022ea3764736f6c63430008040033",
  "linkReferences": {},
  "deployedLinkReferences": {}
}