{
  "_format": "hh-sol-artifact-1",
  "contractName": "CosmosValidators",
  "sourceName": "contracts/ethBridge/cosmosValidators/CosmosValidators.sol",
  "abi": [
    {
      "anonymous": false,
      "inputs": [
        {
          "indexed": false,
          "internalType": "uint8",
          "name": "version",
          "type": "uint8"
        }
      ],
      "name": "Initialized",
      "type": "event"
    },
    {
      "anonymous": false,
      "inputs": [
        {
          "indexed": true,
          "internalType": "address",
          "name": "previousOwner",
          "type": "address"
        },
        {
          "indexed": true,
          "internalType": "address",
          "name": "newOwner",
          "type": "address"
        }
      ],
      "name": "OwnershipTransferred",
      "type": "event"
    },
    {
      "anonymous": false,
      "inputs": [
        {
          "indexed": false,
          "internalType": "address",
          "name": "account",
          "type": "address"
        }
      ],
      "name": "Paused",
      "type": "event"
    },
    {
      "anonymous": false,
      "inputs": [
        {
          "indexed": false,
          "internalType": "address",
          "name": "account",
          "type": "address"
        }
      ],
      "name": "Unpaused",
      "type": "event"
    },
    {
      "inputs": [
        {
          "internalType": "uint256",
          "name": "x",
          "type": "uint256"
        },
        {
          "internalType": "uint256",
          "name": "len",
          "type": "uint256"
        }
      ],
      "name": "countBitOne",
      "outputs": [
        {
          "internalType": "uint256",
          "name": "",
          "type": "uint256"
        }
      ],
      "stateMutability": "pure",
      "type": "function"
    },
    {
      "inputs": [],
      "name": "getCurrentBlockHeight",
      "outputs": [
        {
          "internalType": "uint256",
          "name": "",
          "type": "uint256"
        }
      ],
      "stateMutability": "view",
      "type": "function"
    },
    {
      "inputs": [
        {
          "internalType": "uint256",
          "name": "_height",
          "type": "uint256"
        },
        {
          "internalType": "uint256",
          "name": "_index",
          "type": "uint256"
        }
      ],
      "name": "getValidatorAtHeight",
      "outputs": [
        {
          "internalType": "address",
          "name": "",
          "type": "address"
        }
      ],
      "stateMutability": "view",
      "type": "function"
    },
    {
      "inputs": [
        {
          "internalType": "address",
          "name": "_pubkey",
          "type": "address"
        }
      ],
      "name": "getValidatorHeight",
      "outputs": [
        {
          "internalType": "uint256",
          "name": "",
          "type": "uint256"
        }
      ],
      "stateMutability": "view",
      "type": "function"
    },
    {
      "inputs": [
        {
          "internalType": "uint256",
          "name": "_height",
          "type": "uint256"
        }
      ],
      "name": "getValidatorSetAtHeight",
      "outputs": [
        {
          "internalType": "address[]",
          "name": "",
          "type": "address[]"
        }
      ],
      "stateMutability": "view",
      "type": "function"
    },
    {
      "inputs": [
        {
          "internalType": "address",
          "name": "_libAddressManager",
          "type": "address"
        },
        {
          "internalType": "uint256",
          "name": "_currentHeight",
          "type": "uint256"
        },
        {
          "internalType": "address[]",
          "name": "_validatorSet",
          "type": "address[]"
        }
      ],
      "name": "initialize",
      "outputs": [],
      "stateMutability": "nonpayable",
      "type": "function"
    },
    {
      "inputs": [],
      "name": "libAddressManager",
      "outputs": [
        {
          "internalType": "contract Lib_AddressManager",
          "name": "",
          "type": "address"
        }
      ],
      "stateMutability": "view",
      "type": "function"
    },
    {
      "inputs": [],
      "name": "owner",
      "outputs": [
        {
          "internalType": "address",
          "name": "",
          "type": "address"
        }
      ],
      "stateMutability": "view",
      "type": "function"
    },
    {
      "inputs": [],
      "name": "pause",
      "outputs": [],
      "stateMutability": "nonpayable",
      "type": "function"
    },
    {
      "inputs": [],
      "name": "paused",
      "outputs": [
        {
          "internalType": "bool",
          "name": "",
          "type": "bool"
        }
      ],
      "stateMutability": "view",
      "type": "function"
    },
    {
      "inputs": [],
      "name": "renounceOwnership",
      "outputs": [],
      "stateMutability": "nonpayable",
      "type": "function"
    },
    {
      "inputs": [
        {
          "internalType": "string",
          "name": "_name",
          "type": "string"
        }
      ],
      "name": "resolve",
      "outputs": [
        {
          "internalType": "address",
          "name": "",
          "type": "address"
        }
      ],
      "stateMutability": "view",
      "type": "function"
    },
    {
      "inputs": [
        {
          "internalType": "address",
          "name": "newOwner",
          "type": "address"
        }
      ],
      "name": "transferOwnership",
      "outputs": [],
      "stateMutability": "nonpayable",
      "type": "function"
    },
    {
      "inputs": [],
      "name": "unpauseContract",
      "outputs": [],
      "stateMutability": "nonpayable",
      "type": "function"
    },
    {
      "inputs": [
        {
          "internalType": "uint256",
          "name": "_height",
          "type": "uint256"
        },
        {
          "internalType": "address[]",
          "name": "_validatorLeft",
          "type": "address[]"
        },
        {
          "internalType": "address[]",
          "name": "_validatorRight",
          "type": "address[]"
        }
      ],
      "name": "updateValidatorSet",
      "outputs": [],
      "stateMutability": "nonpayable",
      "type": "function"
    },
    {
      "inputs": [
        {
          "components": [
            {
              "internalType": "uint256",
              "name": "height",
              "type": "uint256"
            },
            {
              "internalType": "uint160",
              "name": "blockHash",
              "type": "uint160"
            },
            {
              "internalType": "uint256",
              "name": "blockTime",
              "type": "uint256"
            },
            {
              "internalType": "uint160",
              "name": "dataHash",
              "type": "uint160"
            },
            {
              "internalType": "uint160",
              "name": "validatorHash",
              "type": "uint160"
            }
          ],
          "internalType": "struct ICosmosBlockHeader.Header",
          "name": "_newBlockHeader",
          "type": "tuple"
        },
        {
          "components": [
            {
              "internalType": "string",
              "name": "optionName",
              "type": "string"
            },
            {
              "internalType": "uint256[2]",
              "name": "pi_a",
              "type": "uint256[2]"
            },
            {
              "internalType": "uint256[2][2]",
              "name": "pi_b",
              "type": "uint256[2][2]"
            },
            {
              "internalType": "uint256[2]",
              "name": "pi_c",
              "type": "uint256[2]"
            },
            {
              "internalType": "uint256",
              "name": "totalVPsigned",
              "type": "uint256"
            },
            {
              "internalType": "uint256",
              "name": "totalVP",
              "type": "uint256"
            },
            {
              "internalType": "address[]",
              "name": "validatorAddress",
              "type": "address[]"
            },
            {
              "internalType": "uint256",
              "name": "signed",
              "type": "uint256"
            }
          ],
          "internalType": "struct IVerifier.ValidatorHashLeftProof",
          "name": "_validatorHashLeftProof",
          "type": "tuple"
        },
        {
          "components": [
            {
              "internalType": "string",
              "name": "optionName",
              "type": "string"
            },
            {
              "internalType": "uint256[2]",
              "name": "pi_a",
              "type": "uint256[2]"
            },
            {
              "internalType": "uint256[2][2]",
              "name": "pi_b",
              "type": "uint256[2][2]"
            },
            {
              "internalType": "uint256[2]",
              "name": "pi_c",
              "type": "uint256[2]"
            },
            {
              "internalType": "uint256",
              "name": "totalVPsigned",
              "type": "uint256"
            },
            {
              "internalType": "uint256",
              "name": "totalVP",
              "type": "uint256"
            },
            {
              "internalType": "address[]",
              "name": "validatorAddress",
              "type": "address[]"
            },
            {
              "internalType": "uint256",
              "name": "signed",
              "type": "uint256"
            }
          ],
          "internalType": "struct IVerifier.ValidatorHashRightProof",
          "name": "_validatorHashRightProof",
          "type": "tuple"
        },
        {
          "components": [
            {
              "internalType": "string",
              "name": "optionName",
              "type": "string"
            },
            {
              "internalType": "uint256[2]",
              "name": "pi_a",
              "type": "uint256[2]"
            },
            {
              "internalType": "uint256[2][2]",
              "name": "pi_b",
              "type": "uint256[2][2]"
            },
            {
              "internalType": "uint256[2]",
              "name": "pi_c",
              "type": "uint256[2]"
            },
            {
              "internalType": "uint256",
              "name": "index",
              "type": "uint256"
            }
          ],
          "internalType": "struct IVerifier.SignatureValidatorProof[]",
          "name": "_signatureValidatorProof",
          "type": "tuple[]"
        }
      ],
      "name": "verifyNewHeader",
      "outputs": [
        {
          "internalType": "bool",
          "name": "",
          "type": "bool"
        }
      ],
      "stateMutability": "view",
      "type": "function"
    },
    {
      "inputs": [
        {
          "components": [
            {
              "internalType": "uint256",
              "name": "height",
              "type": "uint256"
            },
            {
              "internalType": "uint160",
              "name": "blockHash",
              "type": "uint160"
            },
            {
              "internalType": "uint256",
              "name": "blockTime",
              "type": "uint256"
            },
            {
              "internalType": "uint160",
              "name": "dataHash",
              "type": "uint160"
            },
            {
              "internalType": "uint160",
              "name": "validatorHash",
              "type": "uint160"
            }
          ],
          "internalType": "struct ICosmosBlockHeader.Header",
          "name": "_newBlockHeader",
          "type": "tuple"
        },
        {
          "internalType": "address",
          "name": "_validatorAddress",
          "type": "address"
        },
        {
          "components": [
            {
              "internalType": "string",
              "name": "optionName",
              "type": "string"
            },
            {
              "internalType": "uint256[2]",
              "name": "pi_a",
              "type": "uint256[2]"
            },
            {
              "internalType": "uint256[2][2]",
              "name": "pi_b",
              "type": "uint256[2][2]"
            },
            {
              "internalType": "uint256[2]",
              "name": "pi_c",
              "type": "uint256[2]"
            },
            {
              "internalType": "uint256",
              "name": "index",
              "type": "uint256"
            }
          ],
          "internalType": "struct IVerifier.SignatureValidatorProof",
          "name": "_signatureValidatorProof",
          "type": "tuple"
        }
      ],
      "name": "verifyProofSignature",
      "outputs": [
        {
          "internalType": "bool",
          "name": "",
          "type": "bool"
        }
      ],
      "stateMutability": "view",
      "type": "function"
    },
    {
      "inputs": [
        {
          "internalType": "uint160",
          "name": "_validatorHash",
          "type": "uint160"
        },
        {
          "components": [
            {
              "internalType": "string",
              "name": "optionName",
              "type": "string"
            },
            {
              "internalType": "uint256[2]",
              "name": "pi_a",
              "type": "uint256[2]"
            },
            {
              "internalType": "uint256[2][2]",
              "name": "pi_b",
              "type": "uint256[2][2]"
            },
            {
              "internalType": "uint256[2]",
              "name": "pi_c",
              "type": "uint256[2]"
            },
            {
              "internalType": "uint256",
              "name": "totalVPsigned",
              "type": "uint256"
            },
            {
              "internalType": "uint256",
              "name": "totalVP",
              "type": "uint256"
            },
            {
              "internalType": "address[]",
              "name": "validatorAddress",
              "type": "address[]"
            },
            {
              "internalType": "uint256",
              "name": "signed",
              "type": "uint256"
            }
          ],
          "internalType": "struct IVerifier.ValidatorHashLeftProof",
          "name": "_validatorHashLeftProof",
          "type": "tuple"
        }
      ],
      "name": "verifyValidatorHashLeft",
      "outputs": [
        {
          "internalType": "bool",
          "name": "",
          "type": "bool"
        }
      ],
      "stateMutability": "view",
      "type": "function"
    },
    {
      "inputs": [
        {
          "components": [
            {
              "internalType": "uint256",
              "name": "height",
              "type": "uint256"
            },
            {
              "internalType": "uint160",
              "name": "blockHash",
              "type": "uint160"
            },
            {
              "internalType": "uint256",
              "name": "blockTime",
              "type": "uint256"
            },
            {
              "internalType": "uint160",
              "name": "dataHash",
              "type": "uint160"
            },
            {
              "internalType": "uint160",
              "name": "validatorHash",
              "type": "uint160"
            }
          ],
          "internalType": "struct ICosmosBlockHeader.Header",
          "name": "_newBlockHeader",
          "type": "tuple"
        },
        {
          "components": [
            {
              "internalType": "string",
              "name": "optionName",
              "type": "string"
            },
            {
              "internalType": "uint256[2]",
              "name": "pi_a",
              "type": "uint256[2]"
            },
            {
              "internalType": "uint256[2][2]",
              "name": "pi_b",
              "type": "uint256[2][2]"
            },
            {
              "internalType": "uint256[2]",
              "name": "pi_c",
              "type": "uint256[2]"
            },
            {
              "internalType": "uint256",
              "name": "totalVPsigned",
              "type": "uint256"
            },
            {
              "internalType": "uint256",
              "name": "totalVP",
              "type": "uint256"
            },
            {
              "internalType": "address[]",
              "name": "validatorAddress",
              "type": "address[]"
            },
            {
              "internalType": "uint256",
              "name": "signed",
              "type": "uint256"
            }
          ],
          "internalType": "struct IVerifier.ValidatorHashRightProof",
          "name": "_validatorHashRightProof",
          "type": "tuple"
        }
      ],
      "name": "verifyValidatorHashRight",
      "outputs": [
        {
          "internalType": "bool",
          "name": "",
          "type": "bool"
        }
      ],
      "stateMutability": "view",
      "type": "function"
    }
  ],
  "bytecode": "0x608060405234801561001057600080fd5b50613c83806100206000396000f3fe608060405234801561001057600080fd5b50600436106101215760003560e01c80638060679e116100ad578063b33712c511610071578063b33712c51461031e578063b9c9579f14610328578063f2fde38b14610344578063fbc4f88114610360578063fe35250c1461039057610121565b80638060679e146102785780638456cb591461029657806387f562a1146102a05780638a44ccd2146102d05780638da5cb5b1461030057610121565b80634ee97517116100f45780634ee97517146101d45780635c975abb14610204578063671aed20146102225780636d91457a14610252578063715018a61461026e57610121565b80632546c1b014610126578063299ca478146101565780633521bf9314610174578063461a4478146101a4575b600080fd5b610140600480360381019061013b9190612b6a565b6103c0565b60405161014d9190613144565b60405180910390f35b61015e610461565b60405161016b91906131cf565b60405180910390f35b61018e60048036038101906101899190612c12565b610487565b60405161019b9190613129565b60405180910390f35b6101be60048036038101906101b9919061296e565b61055f565b6040516101cb9190613129565b60405180910390f35b6101ee60048036038101906101e9919061288c565b610612565b6040516101fb9190613427565b60405180910390f35b61020c61065b565b60405161021991906131b4565b60405180910390f35b61023c600480360381019061023791906129af565b610672565b60405161024991906131b4565b60405180910390f35b61026c600480360381019061026791906128de565b61087a565b005b610276610b9c565b005b610280610bb0565b60405161028d9190613427565b60405180910390f35b61029e610bba565b005b6102ba60048036038101906102b59190612c12565b610bcc565b6040516102c79190613427565b60405180910390f35b6102ea60048036038101906102e59190612ac2565b610c10565b6040516102f791906131b4565b60405180910390f35b610308610fe4565b6040516103159190613129565b60405180910390f35b61032661100e565b005b610342600480360381019061033d9190612b93565b611020565b005b61035e6004803603810190610359919061288c565b61144c565b005b61037a60048036038101906103759190612a16565b6114d0565b60405161038791906131b4565b60405180910390f35b6103aa60048036038101906103a59190612b16565b611945565b6040516103b791906131b4565b60405180910390f35b606060cd600083815260200190815260200160002080548060200260200160405190810160405280929190818152602001828054801561045557602002820191906000526020600020905b8160009054906101000a900473ffffffffffffffffffffffffffffffffffffffff1673ffffffffffffffffffffffffffffffffffffffff168152602001906001019080831161040b575b50505050509050919050565b600060029054906101000a900473ffffffffffffffffffffffffffffffffffffffff1681565b600060cd60008481526020019081526020016000208054905082106104e1576040517f08c379a00000000000000000000000000000000000000000000000000000000081526004016104d890613407565b60405180910390fd5b60cd6000848152602001908152602001600020828154811061052c577f4e487b7100000000000000000000000000000000000000000000000000000000600052603260045260246000fd5b9060005260206000200160009054906101000a900473ffffffffffffffffffffffffffffffffffffffff16905092915050565b60008060029054906101000a900473ffffffffffffffffffffffffffffffffffffffff1673ffffffffffffffffffffffffffffffffffffffff1663bf40fac1836040518263ffffffff1660e01b81526004016105bb9190613205565b60206040518083038186803b1580156105d357600080fd5b505afa1580156105e7573d6000803e3d6000fd5b505050506040513d601f19601f8201168201806040525081019061060b91906128b5565b9050919050565b600060ce60008373ffffffffffffffffffffffffffffffffffffffff1673ffffffffffffffffffffffffffffffffffffffff168152602001908152602001600020549050919050565b6000606560009054906101000a900460ff16905090565b600080826000015190506000836020015190506000846040015190506000856060015190506000600467ffffffffffffffff8111156106da577f4e487b7100000000000000000000000000000000000000000000000000000000600052604160045260246000fd5b6040519080825280602002602001820160405280156107085781602001602082028036833780820191505090505b5090508773ffffffffffffffffffffffffffffffffffffffff168160008151811061075c577f4e487b7100000000000000000000000000000000000000000000000000000000600052603260045260246000fd5b602002602001018181525050886020015173ffffffffffffffffffffffffffffffffffffffff16816001815181106107bd577f4e487b7100000000000000000000000000000000000000000000000000000000600052603260045260246000fd5b602002602001018181525050886000015181600281518110610808577f4e487b7100000000000000000000000000000000000000000000000000000000600052603260045260246000fd5b602002602001018181525050886040015181600381518110610853577f4e487b7100000000000000000000000000000000000000000000000000000000600052603260045260246000fd5b60200260200101818152505061086c8585858585611c3d565b955050505050509392505050565b60008060019054906101000a900460ff161590508080156108ab5750600160008054906101000a900460ff1660ff16105b806108d857506108ba30611ce1565b1580156108d75750600160008054906101000a900460ff1660ff16145b5b610917576040517f08c379a000000000000000000000000000000000000000000000000000000000815260040161090e90613347565b60405180910390fd5b60016000806101000a81548160ff021916908360ff1602179055508015610954576001600060016101000a81548160ff0219169083151502179055505b600060cb5414610999576040517f08c379a000000000000000000000000000000000000000000000000000000000815260040161099090613367565b60405180910390fd5b815160ca819055508260cb8190555060005b60ca54811015610aef5760cc8382815181106109f0577f4e487b7100000000000000000000000000000000000000000000000000000000600052603260045260246000fd5b60200260200101519080600181540180825580915050600190039060005260206000200160009091909190916101000a81548173ffffffffffffffffffffffffffffffffffffffff021916908373ffffffffffffffffffffffffffffffffffffffff1602179055508360ce6000858481518110610a96577f4e487b7100000000000000000000000000000000000000000000000000000000600052603260045260246000fd5b602002602001015173ffffffffffffffffffffffffffffffffffffffff1673ffffffffffffffffffffffffffffffffffffffff168152602001908152602001600020819055508080610ae790613811565b9150506109ab565b60cc60cd6000868152602001908152602001600020908054610b129291906121b3565b50610b1c85611d04565b610b24611d97565b610b2c611de8565b610b34611e49565b610b3c611eb5565b508015610b965760008060016101000a81548160ff0219169083151502179055507f7f26b83ff96e1f2b6a682f133852f6798a09c465da95921460cefb38474024986001604051610b8d91906131ea565b60405180910390a15b50505050565b610ba4611f0e565b610bae6000611f8c565b565b600060cb54905090565b610bc2611f0e565b610bca612052565b565b6000806000905060005b83811015610c055760018186901c1682610bf0919061362f565b91508080610bfd90613811565b915050610bd6565b508091505092915050565b6000808260000151905060008360200151905060008460400151905060008560600151905060008660800151905060008760a00151905060008860c001515190506000816006610c60919061362f565b67ffffffffffffffff811115610c9f577f4e487b7100000000000000000000000000000000000000000000000000000000600052604160045260246000fd5b604051908082528060200260200182016040528015610ccd5781602001602082028036833780820191505090505b50905060008482600081518110610d0d577f4e487b7100000000000000000000000000000000000000000000000000000000600052603260045260246000fd5b6020026020010181815250508382600181518110610d54577f4e487b7100000000000000000000000000000000000000000000000000000000600052603260045260246000fd5b602002602001018181525050600090505b82811015610e2c578a60c001518181518110610daa577f4e487b7100000000000000000000000000000000000000000000000000000000600052603260045260246000fd5b602002602001015173ffffffffffffffffffffffffffffffffffffffff1682600283610dd6919061362f565b81518110610e0d577f4e487b7100000000000000000000000000000000000000000000000000000000600052603260045260246000fd5b6020026020010181815250508080610e2490613811565b915050610d65565b8b6080015173ffffffffffffffffffffffffffffffffffffffff1682600285610e55919061362f565b81518110610e8c577f4e487b7100000000000000000000000000000000000000000000000000000000600052603260045260246000fd5b6020026020010181815250508b6060015173ffffffffffffffffffffffffffffffffffffffff1682600385610ec1919061362f565b81518110610ef8577f4e487b7100000000000000000000000000000000000000000000000000000000600052603260045260246000fd5b6020026020010181815250508b6020015173ffffffffffffffffffffffffffffffffffffffff1682600485610f2d919061362f565b81518110610f64577f4e487b7100000000000000000000000000000000000000000000000000000000600052603260045260246000fd5b6020026020010181815250508a60e0015182600585610f83919061362f565b81518110610fba577f4e487b7100000000000000000000000000000000000000000000000000000000600052603260045260246000fd5b602002602001018181525050610fd38989898986611c3d565b995050505050505050505092915050565b6000603360009054906101000a900473ffffffffffffffffffffffffffffffffffffffff16905090565b611016611f0e565b61101e6120b5565b565b61105e6040518060400160405280600c81526020017f4f52414953414e5f47415445000000000000000000000000000000000000000081525061055f565b73ffffffffffffffffffffffffffffffffffffffff163373ffffffffffffffffffffffffffffffffffffffff1614806110c9575061109a610fe4565b73ffffffffffffffffffffffffffffffffffffffff163373ffffffffffffffffffffffffffffffffffffffff16145b611108576040517f08c379a00000000000000000000000000000000000000000000000000000000081526004016110ff90613247565b60405180910390fd5b600060cd60008581526020019081526020016000208054905014611161576040517f08c379a000000000000000000000000000000000000000000000000000000000815260040161115890613327565b60405180910390fd5b8260cb8190555060008251905060008251905060cc60006111829190612205565b60005b828110156112c75760cc8582815181106111c8577f4e487b7100000000000000000000000000000000000000000000000000000000600052603260045260246000fd5b60200260200101519080600181540180825580915050600190039060005260206000200160009091909190916101000a81548173ffffffffffffffffffffffffffffffffffffffff021916908373ffffffffffffffffffffffffffffffffffffffff1602179055508560ce600087848151811061126e577f4e487b7100000000000000000000000000000000000000000000000000000000600052603260045260246000fd5b602002602001015173ffffffffffffffffffffffffffffffffffffffff1673ffffffffffffffffffffffffffffffffffffffff1681526020019081526020016000208190555080806112bf90613811565b915050611185565b600090505b8181101561140e5760cc84828151811061130f577f4e487b7100000000000000000000000000000000000000000000000000000000600052603260045260246000fd5b60200260200101519080600181540180825580915050600190039060005260206000200160009091909190916101000a81548173ffffffffffffffffffffffffffffffffffffffff021916908373ffffffffffffffffffffffffffffffffffffffff1602179055508560ce60008684815181106113b5577f4e487b7100000000000000000000000000000000000000000000000000000000600052603260045260246000fd5b602002602001015173ffffffffffffffffffffffffffffffffffffffff1673ffffffffffffffffffffffffffffffffffffffff16815260200190815260200160002081905550808061140690613811565b9150506112cc565b60cc60cd60008881526020019081526020016000209080546114319291906121b3565b50818361143e919061362f565b60ca81905550505050505050565b611454611f0e565b600073ffffffffffffffffffffffffffffffffffffffff168173ffffffffffffffffffffffffffffffffffffffff1614156114c4576040517f08c379a00000000000000000000000000000000000000000000000000000000081526004016114bb90613267565b60405180910390fd5b6114cd81611f8c565b50565b6000808360a001518560a001516114e7919061362f565b60026114f39190613685565b84608001518660800151611507919061362f565b60036115139190613685565b11611553576040517f08c379a000000000000000000000000000000000000000000000000000000000815260040161154a90613307565b60405180910390fd5b61155d8685610c10565b61159c576040517f08c379a000000000000000000000000000000000000000000000000000000000815260040161159390613287565b60405180910390fd5b6115aa866080015186611945565b6115e9576040517f08c379a00000000000000000000000000000000000000000000000000000000081526004016115e0906132e7565b60405180910390fd5b60008351905060008660c0015151905060008660c0015151905060008860e00151905060008860e00151905061161f8184610bcc565b6116298386610bcc565b611633919061362f565b851015611675576040517f08c379a000000000000000000000000000000000000000000000000000000000815260040161166c906133a7565b60405180910390fd5b60008060008098505b878910156118d457868b8a815181106116c0577f4e487b7100000000000000000000000000000000000000000000000000000000600052603260045260246000fd5b6020026020010151608001511061172657868b8a8151811061170b577f4e487b7100000000000000000000000000000000000000000000000000000000600052603260045260246000fd5b60200260200101516080015161172191906136df565b61176c565b8a898151811061175f577f4e487b7100000000000000000000000000000000000000000000000000000000600052603260045260246000fd5b6020026020010151608001515b91508682106117bf578b60c0015182815181106117b2577f4e487b7100000000000000000000000000000000000000000000000000000000600052603260045260246000fd5b6020026020010151611805565b8c60c0015182815181106117fc577f4e487b7100000000000000000000000000000000000000000000000000000000600052603260045260246000fd5b60200260200101515b92506001808387901c1614156118a0576118608e848d8c81518110611853577f4e487b7100000000000000000000000000000000000000000000000000000000600052603260045260246000fd5b6020026020010151610672565b61189f576040517f08c379a0000000000000000000000000000000000000000000000000000000008152600401611896906132a7565b60405180910390fd5b5b60cb546118ac84610612565b14156118c15780806118bd90613811565b9150505b88806118cc90613811565b99505061167e565b60ca5460026118e39190613685565b8160036118f09190613685565b11611930576040517f08c379a0000000000000000000000000000000000000000000000000000000008152600401611927906133c7565b60405180910390fd5b60019950505050505050505050949350505050565b6000808260000151905060008360200151905060008460400151905060008560600151905060008660800151905060008760a00151905060008860c001515190506000816004611995919061362f565b67ffffffffffffffff8111156119d4577f4e487b7100000000000000000000000000000000000000000000000000000000600052604160045260246000fd5b604051908082528060200260200182016040528015611a025781602001602082028036833780820191505090505b50905060008482600081518110611a42577f4e487b7100000000000000000000000000000000000000000000000000000000600052603260045260246000fd5b6020026020010181815250508382600181518110611a89577f4e487b7100000000000000000000000000000000000000000000000000000000600052603260045260246000fd5b602002602001018181525050600090505b82811015611b61578a60c001518181518110611adf577f4e487b7100000000000000000000000000000000000000000000000000000000600052603260045260246000fd5b602002602001015173ffffffffffffffffffffffffffffffffffffffff1682600283611b0b919061362f565b81518110611b42577f4e487b7100000000000000000000000000000000000000000000000000000000600052603260045260246000fd5b6020026020010181815250508080611b5990613811565b915050611a9a565b8b73ffffffffffffffffffffffffffffffffffffffff1682600285611b86919061362f565b81518110611bbd577f4e487b7100000000000000000000000000000000000000000000000000000000600052603260045260246000fd5b6020026020010181815250508a60e0015182600385611bdc919061362f565b81518110611c13577f4e487b7100000000000000000000000000000000000000000000000000000000600052603260045260246000fd5b602002602001018181525050611c2c8989898986611c3d565b995050505050505050505092915050565b6000611c488661055f565b73ffffffffffffffffffffffffffffffffffffffff1663c32e370e868686866040518563ffffffff1660e01b8152600401611c869493929190613166565b60206040518083038186803b158015611c9e57600080fd5b505afa158015611cb2573d6000803e3d6000fd5b505050506040513d601f19601f82011682018060405250810190611cd69190612945565b905095945050505050565b6000808273ffffffffffffffffffffffffffffffffffffffff163b119050919050565b600060019054906101000a900460ff16611d53576040517f08c379a0000000000000000000000000000000000000000000000000000000008152600401611d4a906133e7565b60405180910390fd5b80600060026101000a81548173ffffffffffffffffffffffffffffffffffffffff021916908373ffffffffffffffffffffffffffffffffffffffff16021790555050565b600060019054906101000a900460ff16611de6576040517f08c379a0000000000000000000000000000000000000000000000000000000008152600401611ddd906133e7565b60405180910390fd5b565b600060019054906101000a900460ff16611e37576040517f08c379a0000000000000000000000000000000000000000000000000000000008152600401611e2e906133e7565b60405180910390fd5b611e47611e42612118565b611f8c565b565b600060019054906101000a900460ff16611e98576040517f08c379a0000000000000000000000000000000000000000000000000000000008152600401611e8f906133e7565b60405180910390fd5b6000606560006101000a81548160ff021916908315150217905550565b600060019054906101000a900460ff16611f04576040517f08c379a0000000000000000000000000000000000000000000000000000000008152600401611efb906133e7565b60405180910390fd5b6001609781905550565b611f16612118565b73ffffffffffffffffffffffffffffffffffffffff16611f34610fe4565b73ffffffffffffffffffffffffffffffffffffffff1614611f8a576040517f08c379a0000000000000000000000000000000000000000000000000000000008152600401611f8190613387565b60405180910390fd5b565b6000603360009054906101000a900473ffffffffffffffffffffffffffffffffffffffff16905081603360006101000a81548173ffffffffffffffffffffffffffffffffffffffff021916908373ffffffffffffffffffffffffffffffffffffffff1602179055508173ffffffffffffffffffffffffffffffffffffffff168173ffffffffffffffffffffffffffffffffffffffff167f8be0079c531659141344cd1fd0a4f28419497f9722a3daafe3b4186f6b6457e060405160405180910390a35050565b61205a612120565b6001606560006101000a81548160ff0219169083151502179055507f62e78cea01bee320cd4e420270b5ea74000d11b0c9f74754ebdbfc544b05a25861209e612118565b6040516120ab9190613129565b60405180910390a1565b6120bd61216a565b6000606560006101000a81548160ff0219169083151502179055507f5db9ee0a495bf2e6ff9c91a7834c1ba4fdd244a5e8aa4e537bd38aeae4b073aa612101612118565b60405161210e9190613129565b60405180910390a1565b600033905090565b61212861065b565b15612168576040517f08c379a000000000000000000000000000000000000000000000000000000000815260040161215f906132c7565b60405180910390fd5b565b61217261065b565b6121b1576040517f08c379a00000000000000000000000000000000000000000000000000000000081526004016121a890613227565b60405180910390fd5b565b8280548282559060005260206000209081019282156121f45760005260206000209182015b828111156121f35782548255916001019190600101906121d8565b5b5090506122019190612226565b5090565b50805460008255906000526020600020908101906122239190612226565b50565b5b8082111561223f576000816000905550600101612227565b5090565b600061225661225184613467565b613442565b9050808382526020820190508285602086028201111561227557600080fd5b60005b858110156122a5578161228b8882612439565b845260208401935060208301925050600181019050612278565b5050509392505050565b60006122c26122bd84613493565b613442565b905080828560408602820111156122d857600080fd5b60005b8581101561230857816122ee88826124de565b8452602084019350604083019250506001810190506122db565b5050509392505050565b6000612325612320846134b9565b613442565b9050808382526020820190508285602086028201111561234457600080fd5b60005b8581101561238e57813567ffffffffffffffff81111561236657600080fd5b80860161237389826125cc565b85526020850194506020840193505050600181019050612347565b5050509392505050565b60006123ab6123a6846134e5565b613442565b905080828560208602820111156123c157600080fd5b60005b858110156123f157816123d78882612877565b8452602084019350602083019250506001810190506123c4565b5050509392505050565b600061240e6124098461350b565b613442565b90508281526020810184848401111561242657600080fd5b61243184828561379e565b509392505050565b60008135905061244881613bf1565b92915050565b60008151905061245d81613bf1565b92915050565b600082601f83011261247457600080fd5b8135612484848260208601612243565b91505092915050565b600082601f83011261249e57600080fd5b60026124ab8482856122af565b91505092915050565b600082601f8301126124c557600080fd5b81356124d5848260208601612312565b91505092915050565b600082601f8301126124ef57600080fd5b60026124fc848285612398565b91505092915050565b60008151905061251481613c08565b92915050565b600082601f83011261252b57600080fd5b813561253b8482602086016123fb565b91505092915050565b600060a0828403121561255657600080fd5b61256060a0613442565b9050600061257084828501612877565b600083015250602061258484828501612862565b602083015250604061259884828501612877565b60408301525060606125ac84828501612862565b60608301525060806125c084828501612862565b60808301525092915050565b600061014082840312156125df57600080fd5b6125e960a0613442565b9050600082013567ffffffffffffffff81111561260557600080fd5b6126118482850161251a565b6000830152506020612625848285016124de565b60208301525060606126398482850161248d565b60408301525060e061264d848285016124de565b60608301525061012061266284828501612877565b60808301525092915050565b60006101a0828403121561268157600080fd5b61268c610100613442565b9050600082013567ffffffffffffffff8111156126a857600080fd5b6126b48482850161251a565b60008301525060206126c8848285016124de565b60208301525060606126dc8482850161248d565b60408301525060e06126f0848285016124de565b60608301525061012061270584828501612877565b60808301525061014061271a84828501612877565b60a08301525061016082013567ffffffffffffffff81111561273b57600080fd5b61274784828501612463565b60c08301525061018061275c84828501612877565b60e08301525092915050565b60006101a0828403121561277b57600080fd5b612786610100613442565b9050600082013567ffffffffffffffff8111156127a257600080fd5b6127ae8482850161251a565b60008301525060206127c2848285016124de565b60208301525060606127d68482850161248d565b60408301525060e06127ea848285016124de565b6060830152506101206127ff84828501612877565b60808301525061014061281484828501612877565b60a08301525061016082013567ffffffffffffffff81111561283557600080fd5b61284184828501612463565b60c08301525061018061285684828501612877565b60e08301525092915050565b60008135905061287181613c1f565b92915050565b60008135905061288681613c36565b92915050565b60006020828403121561289e57600080fd5b60006128ac84828501612439565b91505092915050565b6000602082840312156128c757600080fd5b60006128d58482850161244e565b91505092915050565b6000806000606084860312156128f357600080fd5b600061290186828701612439565b935050602061291286828701612877565b925050604084013567ffffffffffffffff81111561292f57600080fd5b61293b86828701612463565b9150509250925092565b60006020828403121561295757600080fd5b600061296584828501612505565b91505092915050565b60006020828403121561298057600080fd5b600082013567ffffffffffffffff81111561299a57600080fd5b6129a68482850161251a565b91505092915050565b600080600060e084860312156129c457600080fd5b60006129d286828701612544565b93505060a06129e386828701612439565b92505060c084013567ffffffffffffffff811115612a0057600080fd5b612a0c868287016125cc565b9150509250925092565b6000806000806101008587031215612a2d57600080fd5b6000612a3b87828801612544565b94505060a085013567ffffffffffffffff811115612a5857600080fd5b612a648782880161266e565b93505060c085013567ffffffffffffffff811115612a8157600080fd5b612a8d87828801612768565b92505060e085013567ffffffffffffffff811115612aaa57600080fd5b612ab6878288016124b4565b91505092959194509250565b60008060c08385031215612ad557600080fd5b6000612ae385828601612544565b92505060a083013567ffffffffffffffff811115612b0057600080fd5b612b0c85828601612768565b9150509250929050565b60008060408385031215612b2957600080fd5b6000612b3785828601612862565b925050602083013567ffffffffffffffff811115612b5457600080fd5b612b608582860161266e565b9150509250929050565b600060208284031215612b7c57600080fd5b6000612b8a84828501612877565b91505092915050565b600080600060608486031215612ba857600080fd5b6000612bb686828701612877565b935050602084013567ffffffffffffffff811115612bd357600080fd5b612bdf86828701612463565b925050604084013567ffffffffffffffff811115612bfc57600080fd5b612c0886828701612463565b9150509250925092565b60008060408385031215612c2557600080fd5b6000612c3385828601612877565b9250506020612c4485828601612877565b9150509250929050565b6000612c5a8383612c96565b60208301905092915050565b6000612c728383612d69565b60408301905092915050565b6000612c8a838361310b565b60208301905092915050565b612c9f81613713565b82525050565b612cae81613713565b82525050565b6000612cbf82613570565b612cc981856135db565b9350612cd48361353c565b8060005b83811015612d05578151612cec8882612c4e565b9750612cf7836135a7565b925050600181019050612cd8565b5085935050505092915050565b612d1b8161357b565b612d2581846135ec565b9250612d308261354c565b8060005b83811015612d61578151612d488782612c66565b9650612d53836135b4565b925050600181019050612d34565b505050505050565b612d7281613586565b612d7c81846135f7565b9250612d8782613556565b8060005b83811015612db8578151612d9f8782612c7e565b9650612daa836135c1565b925050600181019050612d8b565b505050505050565b612dc981613586565b612dd38184613602565b9250612dde82613556565b8060005b83811015612e0f578151612df68782612c7e565b9650612e01836135c1565b925050600181019050612de2565b505050505050565b6000612e2282613591565b612e2c818561360d565b9350612e3783613560565b8060005b83811015612e68578151612e4f8882612c7e565b9750612e5a836135ce565b925050600181019050612e3b565b5085935050505092915050565b612e7e81613725565b82525050565b612e8d81613768565b82525050565b612e9c8161378c565b82525050565b6000612ead8261359c565b612eb7818561361e565b9350612ec78185602086016137ad565b612ed0816138b8565b840191505092915050565b6000612ee860148361361e565b9150612ef3826138c9565b602082019050919050565b6000612f0b600e8361361e565b9150612f16826138f2565b602082019050919050565b6000612f2e60268361361e565b9150612f398261391b565b604082019050919050565b6000612f51601b8361361e565b9150612f5c8261396a565b602082019050919050565b6000612f7460158361361e565b9150612f7f82613993565b602082019050919050565b6000612f9760108361361e565b9150612fa2826139bc565b602082019050919050565b6000612fba601c8361361e565b9150612fc5826139e5565b602082019050919050565b6000612fdd601a8361361e565b9150612fe882613a0e565b602082019050919050565b600061300060238361361e565b915061300b82613a37565b604082019050919050565b6000613023602e8361361e565b915061302e82613a86565b604082019050919050565b6000613046601f8361361e565b915061305182613ad5565b602082019050919050565b600061306960208361361e565b915061307482613afe565b602082019050919050565b600061308c60208361361e565b915061309782613b27565b602082019050919050565b60006130af601c8361361e565b91506130ba82613b50565b602082019050919050565b60006130d2602b8361361e565b91506130dd82613b79565b604082019050919050565b60006130f5600d8361361e565b915061310082613bc8565b602082019050919050565b61311481613751565b82525050565b61312381613751565b82525050565b600060208201905061313e6000830184612ca5565b92915050565b6000602082019050818103600083015261315e8184612cb4565b905092915050565b60006101208201905061317c6000830187612dc0565b6131896040830186612d12565b61319660c0830185612dc0565b8181036101008301526131a98184612e17565b905095945050505050565b60006020820190506131c96000830184612e75565b92915050565b60006020820190506131e46000830184612e84565b92915050565b60006020820190506131ff6000830184612e93565b92915050565b6000602082019050818103600083015261321f8184612ea2565b905092915050565b6000602082019050818103600083015261324081612edb565b9050919050565b6000602082019050818103600083015261326081612efe565b9050919050565b6000602082019050818103600083015261328081612f21565b9050919050565b600060208201905081810360008301526132a081612f44565b9050919050565b600060208201905081810360008301526132c081612f67565b9050919050565b600060208201905081810360008301526132e081612f8a565b9050919050565b6000602082019050818103600083015261330081612fad565b9050919050565b6000602082019050818103600083015261332081612fd0565b9050919050565b6000602082019050818103600083015261334081612ff3565b9050919050565b6000602082019050818103600083015261336081613016565b9050919050565b6000602082019050818103600083015261338081613039565b9050919050565b600060208201905081810360008301526133a08161305c565b9050919050565b600060208201905081810360008301526133c08161307f565b9050919050565b600060208201905081810360008301526133e0816130a2565b9050919050565b60006020820190508181036000830152613400816130c5565b9050919050565b60006020820190508181036000830152613420816130e8565b9050919050565b600060208201905061343c600083018461311a565b92915050565b600061344c61345d565b905061345882826137e0565b919050565b6000604051905090565b600067ffffffffffffffff82111561348257613481613889565b5b602082029050602081019050919050565b600067ffffffffffffffff8211156134ae576134ad613889565b5b602082029050919050565b600067ffffffffffffffff8211156134d4576134d3613889565b5b602082029050602081019050919050565b600067ffffffffffffffff821115613500576134ff613889565b5b602082029050919050565b600067ffffffffffffffff82111561352657613525613889565b5b61352f826138b8565b9050602081019050919050565b6000819050602082019050919050565b6000819050919050565b6000819050919050565b6000819050602082019050919050565b600081519050919050565b600060029050919050565b600060029050919050565b600081519050919050565b600081519050919050565b6000602082019050919050565b6000602082019050919050565b6000602082019050919050565b6000602082019050919050565b600082825260208201905092915050565b600081905092915050565b600081905092915050565b600081905092915050565b600082825260208201905092915050565b600082825260208201905092915050565b600061363a82613751565b915061364583613751565b9250827fffffffffffffffffffffffffffffffffffffffffffffffffffffffffffffffff0382111561367a5761367961385a565b5b828201905092915050565b600061369082613751565b915061369b83613751565b9250817fffffffffffffffffffffffffffffffffffffffffffffffffffffffffffffffff04831182151516156136d4576136d361385a565b5b828202905092915050565b60006136ea82613751565b91506136f583613751565b9250828210156137085761370761385a565b5b828203905092915050565b600061371e82613731565b9050919050565b60008115159050919050565b600073ffffffffffffffffffffffffffffffffffffffff82169050919050565b6000819050919050565b600060ff82169050919050565b60006137738261377a565b9050919050565b600061378582613731565b9050919050565b60006137978261375b565b9050919050565b82818337600083830152505050565b60005b838110156137cb5780820151818401526020810190506137b0565b838111156137da576000848401525b50505050565b6137e9826138b8565b810181811067ffffffffffffffff8211171561380857613807613889565b5b80604052505050565b600061381c82613751565b91507fffffffffffffffffffffffffffffffffffffffffffffffffffffffffffffffff82141561384f5761384e61385a565b5b600182019050919050565b7f4e487b7100000000000000000000000000000000000000000000000000000000600052601160045260246000fd5b7f4e487b7100000000000000000000000000000000000000000000000000000000600052604160045260246000fd5b6000601f19601f8301169050919050565b7f5061757361626c653a206e6f7420706175736564000000000000000000000000600082015250565b7f696e76616c69642073656e646572000000000000000000000000000000000000600082015250565b7f4f776e61626c653a206e6577206f776e657220697320746865207a65726f206160008201527f6464726573730000000000000000000000000000000000000000000000000000602082015250565b7f696e76616c69642076616c696461746f722068617368206c6566740000000000600082015250565b7f696e76616c69642076616c696461746f72207365740000000000000000000000600082015250565b7f5061757361626c653a2070617573656400000000000000000000000000000000600082015250565b7f696e76616c69642076616c696461746f72206861736820526967687400000000600082015250565b7f496e76616c696420746f74616c20766f74696e6720706f776572000000000000600082015250565b7f76616c696461746f72207365742077617320757064617465642061742068656960008201527f6768740000000000000000000000000000000000000000000000000000000000602082015250565b7f496e697469616c697a61626c653a20636f6e747261637420697320616c72656160008201527f647920696e697469616c697a6564000000000000000000000000000000000000602082015250565b7f434f534d4f535f56414c494441544f525320697320696e697469616c697a6500600082015250565b7f4f776e61626c653a2063616c6c6572206973206e6f7420746865206f776e6572600082015250565b7f696e76616c696420746865206e756d626572206f66207369676e617475726573600082015250565b7f696e76616c6964206e756d626572206f662076616c696461746f727300000000600082015250565b7f496e697469616c697a61626c653a20636f6e7472616374206973206e6f74206960008201527f6e697469616c697a696e67000000000000000000000000000000000000000000602082015250565b7f696e76616c696420696e64657800000000000000000000000000000000000000600082015250565b613bfa81613713565b8114613c0557600080fd5b50565b613c1181613725565b8114613c1c57600080fd5b50565b613c2881613731565b8114613c3357600080fd5b50565b613c3f81613751565b8114613c4a57600080fd5b5056fea26469706673582212209e031801e5989a57da349f9ee992973ec194d8618629e65987a7370f7c09cb9064736f6c63430008040033",
  "linkReferences": {},
  "deployedLinkReferences": {}
}