{
  "_format": "hh-sol-artifact-1",
  "contractName": "CosmosValidators",
  "sourceName": "contracts/ethBridge/cosmosValidators/CosmosValidators.sol",
  "abi": [
    {
      "anonymous": false,
      "inputs": [
        {
          "indexed": false,
          "internalType": "uint8",
          "name": "version",
          "type": "uint8"
        }
      ],
      "name": "Initialized",
      "type": "event"
    },
    {
      "anonymous": false,
      "inputs": [
        {
          "indexed": true,
          "internalType": "address",
          "name": "previousOwner",
          "type": "address"
        },
        {
          "indexed": true,
          "internalType": "address",
          "name": "newOwner",
          "type": "address"
        }
      ],
      "name": "OwnershipTransferred",
      "type": "event"
    },
    {
      "anonymous": false,
      "inputs": [
        {
          "indexed": false,
          "internalType": "address",
          "name": "account",
          "type": "address"
        }
      ],
      "name": "Paused",
      "type": "event"
    },
    {
      "anonymous": false,
      "inputs": [
        {
          "indexed": false,
          "internalType": "address",
          "name": "account",
          "type": "address"
        }
      ],
      "name": "Unpaused",
      "type": "event"
    },
    {
      "inputs": [
        {
          "internalType": "uint256",
          "name": "x",
          "type": "uint256"
        },
        {
          "internalType": "uint256",
          "name": "len",
          "type": "uint256"
        }
      ],
      "name": "countBitOne",
      "outputs": [
        {
          "internalType": "uint256",
          "name": "",
          "type": "uint256"
        }
      ],
      "stateMutability": "pure",
      "type": "function"
    },
    {
      "inputs": [],
      "name": "getCurrentBlockHeight",
      "outputs": [
        {
          "internalType": "uint256",
          "name": "",
          "type": "uint256"
        }
      ],
      "stateMutability": "view",
      "type": "function"
    },
    {
      "inputs": [
        {
          "internalType": "uint256",
          "name": "_height",
          "type": "uint256"
        },
        {
          "internalType": "uint256",
          "name": "_index",
          "type": "uint256"
        }
      ],
      "name": "getValidatorAtHeight",
      "outputs": [
        {
          "internalType": "address",
          "name": "",
          "type": "address"
        }
      ],
      "stateMutability": "view",
      "type": "function"
    },
    {
      "inputs": [
        {
          "internalType": "address",
          "name": "_pubkey",
          "type": "address"
        }
      ],
      "name": "getValidatorHeight",
      "outputs": [
        {
          "internalType": "uint256",
          "name": "",
          "type": "uint256"
        }
      ],
      "stateMutability": "view",
      "type": "function"
    },
    {
      "inputs": [
        {
          "internalType": "uint256",
          "name": "_height",
          "type": "uint256"
        }
      ],
      "name": "getValidatorSetAtHeight",
      "outputs": [
        {
          "internalType": "address[]",
          "name": "",
          "type": "address[]"
        }
      ],
      "stateMutability": "view",
      "type": "function"
    },
    {
      "inputs": [
        {
          "internalType": "address",
          "name": "_libAddressManager",
          "type": "address"
        },
        {
          "internalType": "uint256",
          "name": "_currentHeight",
          "type": "uint256"
        },
        {
          "internalType": "address[]",
          "name": "_validatorSet",
          "type": "address[]"
        }
      ],
      "name": "initialize",
      "outputs": [],
      "stateMutability": "nonpayable",
      "type": "function"
    },
    {
      "inputs": [],
      "name": "libAddressManager",
      "outputs": [
        {
          "internalType": "contract Lib_AddressManager",
          "name": "",
          "type": "address"
        }
      ],
      "stateMutability": "view",
      "type": "function"
    },
    {
      "inputs": [],
      "name": "owner",
      "outputs": [
        {
          "internalType": "address",
          "name": "",
          "type": "address"
        }
      ],
      "stateMutability": "view",
      "type": "function"
    },
    {
      "inputs": [],
      "name": "pause",
      "outputs": [],
      "stateMutability": "nonpayable",
      "type": "function"
    },
    {
      "inputs": [],
      "name": "paused",
      "outputs": [
        {
          "internalType": "bool",
          "name": "",
          "type": "bool"
        }
      ],
      "stateMutability": "view",
      "type": "function"
    },
    {
      "inputs": [],
      "name": "renounceOwnership",
      "outputs": [],
      "stateMutability": "nonpayable",
      "type": "function"
    },
    {
      "inputs": [
        {
          "internalType": "string",
          "name": "_name",
          "type": "string"
        }
      ],
      "name": "resolve",
      "outputs": [
        {
          "internalType": "address",
          "name": "",
          "type": "address"
        }
      ],
      "stateMutability": "view",
      "type": "function"
    },
    {
      "inputs": [
        {
          "internalType": "address",
          "name": "newOwner",
          "type": "address"
        }
      ],
      "name": "transferOwnership",
      "outputs": [],
      "stateMutability": "nonpayable",
      "type": "function"
    },
    {
      "inputs": [],
      "name": "unpauseContract",
      "outputs": [],
      "stateMutability": "nonpayable",
      "type": "function"
    },
    {
      "inputs": [
        {
          "internalType": "uint256",
          "name": "_height",
          "type": "uint256"
        },
        {
          "internalType": "address[]",
          "name": "_validatorLeft",
          "type": "address[]"
        },
        {
          "internalType": "address[]",
          "name": "_validatorRight",
          "type": "address[]"
        }
      ],
      "name": "updateValidatorSetLR",
      "outputs": [],
      "stateMutability": "nonpayable",
      "type": "function"
    },
    {
      "inputs": [
        {
          "internalType": "uint256",
          "name": "_height",
          "type": "uint256"
        },
        {
          "internalType": "address",
          "name": "_validatorSet",
          "type": "address"
        }
      ],
      "name": "updateValidatorSetTestnet",
      "outputs": [],
      "stateMutability": "nonpayable",
      "type": "function"
    },
    {
      "inputs": [
        {
          "components": [
            {
              "internalType": "uint256",
              "name": "height",
              "type": "uint256"
            },
            {
              "internalType": "bytes20",
              "name": "blockHash",
              "type": "bytes20"
            },
            {
              "internalType": "uint256",
              "name": "blockTime",
              "type": "uint256"
            },
            {
              "internalType": "bytes20",
              "name": "dataHash",
              "type": "bytes20"
            },
            {
              "internalType": "bytes20",
              "name": "validatorHash",
              "type": "bytes20"
            }
          ],
          "internalType": "struct ICosmosBlockHeader.Header",
          "name": "_newBlockHeader",
          "type": "tuple"
        },
        {
          "components": [
            {
              "internalType": "string",
              "name": "optionName",
              "type": "string"
            },
            {
              "internalType": "uint256[2]",
              "name": "pi_a",
              "type": "uint256[2]"
            },
            {
              "internalType": "uint256[2][2]",
              "name": "pi_b",
              "type": "uint256[2][2]"
            },
            {
              "internalType": "uint256[2]",
              "name": "pi_c",
              "type": "uint256[2]"
            },
            {
              "internalType": "uint256",
              "name": "totalVPsigned",
              "type": "uint256"
            },
            {
              "internalType": "uint256",
              "name": "totalVP",
              "type": "uint256"
            },
            {
              "internalType": "address[]",
              "name": "validatorAddress",
              "type": "address[]"
            },
            {
              "internalType": "uint256",
              "name": "signed",
              "type": "uint256"
            }
          ],
          "internalType": "struct IVerifier.ValidatorHashLeftProof",
          "name": "_validatorHashLeftProof",
          "type": "tuple"
        },
        {
          "components": [
            {
              "internalType": "string",
              "name": "optionName",
              "type": "string"
            },
            {
              "internalType": "uint256[2]",
              "name": "pi_a",
              "type": "uint256[2]"
            },
            {
              "internalType": "uint256[2][2]",
              "name": "pi_b",
              "type": "uint256[2][2]"
            },
            {
              "internalType": "uint256[2]",
              "name": "pi_c",
              "type": "uint256[2]"
            },
            {
              "internalType": "uint256",
              "name": "totalVPsigned",
              "type": "uint256"
            },
            {
              "internalType": "uint256",
              "name": "totalVP",
              "type": "uint256"
            },
            {
              "internalType": "address[]",
              "name": "validatorAddress",
              "type": "address[]"
            },
            {
              "internalType": "uint256",
              "name": "signed",
              "type": "uint256"
            }
          ],
          "internalType": "struct IVerifier.ValidatorHashRightProof",
          "name": "_validatorHashRightProof",
          "type": "tuple"
        },
        {
          "components": [
            {
              "internalType": "string",
              "name": "optionName",
              "type": "string"
            },
            {
              "internalType": "uint256[2]",
              "name": "pi_a",
              "type": "uint256[2]"
            },
            {
              "internalType": "uint256[2][2]",
              "name": "pi_b",
              "type": "uint256[2][2]"
            },
            {
              "internalType": "uint256[2]",
              "name": "pi_c",
              "type": "uint256[2]"
            },
            {
              "internalType": "uint256",
              "name": "index",
              "type": "uint256"
            }
          ],
          "internalType": "struct IVerifier.SignatureValidatorProof[]",
          "name": "_signatureValidatorProof",
          "type": "tuple[]"
        }
      ],
      "name": "verifyNewHeader",
      "outputs": [
        {
          "internalType": "bool",
          "name": "",
          "type": "bool"
        }
      ],
      "stateMutability": "view",
      "type": "function"
    },
    {
      "inputs": [
        {
          "components": [
            {
              "internalType": "uint256",
              "name": "height",
              "type": "uint256"
            },
            {
              "internalType": "bytes20",
              "name": "blockHash",
              "type": "bytes20"
            },
            {
              "internalType": "uint256",
              "name": "blockTime",
              "type": "uint256"
            },
            {
              "internalType": "bytes20",
              "name": "dataHash",
              "type": "bytes20"
            },
            {
              "internalType": "bytes20",
              "name": "validatorHash",
              "type": "bytes20"
            }
          ],
          "internalType": "struct ICosmosBlockHeader.Header",
          "name": "_newBlockHeader",
          "type": "tuple"
        },
        {
          "internalType": "address",
          "name": "_validatorAddress",
          "type": "address"
        },
        {
          "components": [
            {
              "internalType": "string",
              "name": "optionName",
              "type": "string"
            },
            {
              "internalType": "uint256[2]",
              "name": "pi_a",
              "type": "uint256[2]"
            },
            {
              "internalType": "uint256[2][2]",
              "name": "pi_b",
              "type": "uint256[2][2]"
            },
            {
              "internalType": "uint256[2]",
              "name": "pi_c",
              "type": "uint256[2]"
            },
            {
              "internalType": "uint256",
              "name": "index",
              "type": "uint256"
            }
          ],
          "internalType": "struct IVerifier.SignatureValidatorProof",
          "name": "_signatureValidatorProof",
          "type": "tuple"
        }
      ],
      "name": "verifyProofSignature",
      "outputs": [
        {
          "internalType": "bool",
          "name": "",
          "type": "bool"
        }
      ],
      "stateMutability": "view",
      "type": "function"
    },
    {
      "inputs": [
        {
          "internalType": "bytes20",
          "name": "_validatorHash",
          "type": "bytes20"
        },
        {
          "components": [
            {
              "internalType": "string",
              "name": "optionName",
              "type": "string"
            },
            {
              "internalType": "uint256[2]",
              "name": "pi_a",
              "type": "uint256[2]"
            },
            {
              "internalType": "uint256[2][2]",
              "name": "pi_b",
              "type": "uint256[2][2]"
            },
            {
              "internalType": "uint256[2]",
              "name": "pi_c",
              "type": "uint256[2]"
            },
            {
              "internalType": "uint256",
              "name": "totalVPsigned",
              "type": "uint256"
            },
            {
              "internalType": "uint256",
              "name": "totalVP",
              "type": "uint256"
            },
            {
              "internalType": "address[]",
              "name": "validatorAddress",
              "type": "address[]"
            },
            {
              "internalType": "uint256",
              "name": "signed",
              "type": "uint256"
            }
          ],
          "internalType": "struct IVerifier.ValidatorHashLeftProof",
          "name": "_validatorHashLeftProof",
          "type": "tuple"
        }
      ],
      "name": "verifyValidatorHashLeft",
      "outputs": [
        {
          "internalType": "bool",
          "name": "",
          "type": "bool"
        }
      ],
      "stateMutability": "view",
      "type": "function"
    },
    {
      "inputs": [
        {
          "components": [
            {
              "internalType": "uint256",
              "name": "height",
              "type": "uint256"
            },
            {
              "internalType": "bytes20",
              "name": "blockHash",
              "type": "bytes20"
            },
            {
              "internalType": "uint256",
              "name": "blockTime",
              "type": "uint256"
            },
            {
              "internalType": "bytes20",
              "name": "dataHash",
              "type": "bytes20"
            },
            {
              "internalType": "bytes20",
              "name": "validatorHash",
              "type": "bytes20"
            }
          ],
          "internalType": "struct ICosmosBlockHeader.Header",
          "name": "_newBlockHeader",
          "type": "tuple"
        },
        {
          "components": [
            {
              "internalType": "string",
              "name": "optionName",
              "type": "string"
            },
            {
              "internalType": "uint256[2]",
              "name": "pi_a",
              "type": "uint256[2]"
            },
            {
              "internalType": "uint256[2][2]",
              "name": "pi_b",
              "type": "uint256[2][2]"
            },
            {
              "internalType": "uint256[2]",
              "name": "pi_c",
              "type": "uint256[2]"
            },
            {
              "internalType": "uint256",
              "name": "totalVPsigned",
              "type": "uint256"
            },
            {
              "internalType": "uint256",
              "name": "totalVP",
              "type": "uint256"
            },
            {
              "internalType": "address[]",
              "name": "validatorAddress",
              "type": "address[]"
            },
            {
              "internalType": "uint256",
              "name": "signed",
              "type": "uint256"
            }
          ],
          "internalType": "struct IVerifier.ValidatorHashRightProof",
          "name": "_validatorHashRightProof",
          "type": "tuple"
        }
      ],
      "name": "verifyValidatorHashRight",
      "outputs": [
        {
          "internalType": "bool",
          "name": "",
          "type": "bool"
        }
      ],
      "stateMutability": "view",
      "type": "function"
    }
  ],
  "bytecode": "0x608060405234801561001057600080fd5b50613fbb806100206000396000f3fe608060405234801561001057600080fd5b506004361061012c5760003560e01c8063715018a6116100ad5780638da5cb5b116100715780638da5cb5b14610357578063908099521461037557806391123a5b14610391578063b33712c5146103c1578063f2fde38b146103cb5761012c565b8063715018a6146102c55780638060679e146102cf5780638456cb59146102ed57806387f562a1146102f75780638bb4adc0146103275761012c565b80634013195d116100f45780634013195d146101fb578063461a44781461022b5780634ee975171461025b5780635c975abb1461028b5780636d91457a146102a95761012c565b80632546c1b01461013157806325d44ca514610161578063299ca4781461017d5780633521bf931461019b5780633f824a03146101cb575b600080fd5b61014b60048036038101906101469190612e3a565b6103e7565b6040516101589190613450565b60405180910390f35b61017b60048036038101906101769190612e63565b610488565b005b610185610722565b60405161019291906134db565b60405180910390f35b6101b560048036038101906101b09190612f1e565b610748565b6040516101c29190613435565b60405180910390f35b6101e560048036038101906101e09190612de6565b610820565b6040516101f291906134c0565b60405180910390f35b61021560048036038101906102109190612d3a565b610bfd565b60405161022291906134c0565b60405180910390f35b61024560048036038101906102409190612c92565b611072565b6040516102529190613435565b60405180910390f35b61027560048036038101906102709190612b5c565b611125565b6040516102829190613733565b60405180910390f35b61029361116e565b6040516102a091906134c0565b60405180910390f35b6102c360048036038101906102be9190612bae565b611185565b005b6102cd6114a7565b005b6102d76114bb565b6040516102e49190613733565b60405180910390f35b6102f56114c5565b005b610311600480360381019061030c9190612f1e565b6114d7565b60405161031e9190613733565b60405180910390f35b610341600480360381019061033c9190612cd3565b61151b565b60405161034e91906134c0565b60405180910390f35b61035f611726565b60405161036c9190613435565b60405180910390f35b61038f600480360381019061038a9190612e9f565b611750565b005b6103ab60048036038101906103a69190612c3e565b611b7c565b6040516103b891906134c0565b60405180910390f35b6103c9611e77565b005b6103e560048036038101906103e09190612b5c565b611e89565b005b606060cd600083815260200190815260200160002080548060200260200160405190810160405280929190818152602001828054801561047c57602002820191906000526020600020905b8160009054906101000a900473ffffffffffffffffffffffffffffffffffffffff1673ffffffffffffffffffffffffffffffffffffffff1681526020019060010190808311610432575b50505050509050919050565b6104c66040518060400160405280600c81526020017f4f52414953414e5f474154450000000000000000000000000000000000000000815250611072565b73ffffffffffffffffffffffffffffffffffffffff163373ffffffffffffffffffffffffffffffffffffffff1614806105315750610502611726565b73ffffffffffffffffffffffffffffffffffffffff163373ffffffffffffffffffffffffffffffffffffffff16145b610570576040517f08c379a000000000000000000000000000000000000000000000000000000000815260040161056790613553565b60405180910390fd5b600060cd600084815260200190815260200160002080549050146105c9576040517f08c379a00000000000000000000000000000000000000000000000000000000081526004016105c090613633565b60405180910390fd5b8160cb819055508073ffffffffffffffffffffffffffffffffffffffff1660cc600081548110610622577f4e487b7100000000000000000000000000000000000000000000000000000000600052603260045260246000fd5b9060005260206000200160009054906101000a900473ffffffffffffffffffffffffffffffffffffffff1673ffffffffffffffffffffffffffffffffffffffff161461071e5760cc60006106769190612483565b60cc819080600181540180825580915050600190039060005260206000200160009091909190916101000a81548173ffffffffffffffffffffffffffffffffffffffff021916908373ffffffffffffffffffffffffffffffffffffffff1602179055508160ce60008373ffffffffffffffffffffffffffffffffffffffff1673ffffffffffffffffffffffffffffffffffffffff168152602001908152602001600020819055505b5050565b600060029054906101000a900473ffffffffffffffffffffffffffffffffffffffff1681565b600060cd60008481526020019081526020016000208054905082106107a2576040517f08c379a000000000000000000000000000000000000000000000000000000000815260040161079990613713565b60405180910390fd5b60cd600084815260200190815260200160002082815481106107ed577f4e487b7100000000000000000000000000000000000000000000000000000000600052603260045260246000fd5b9060005260206000200160009054906101000a900473ffffffffffffffffffffffffffffffffffffffff16905092915050565b6000808260000151905060008360200151905060008460400151905060008560600151905060008660800151905060008760a00151905060008860c001515190506000816006610870919061393b565b67ffffffffffffffff8111156108af577f4e487b7100000000000000000000000000000000000000000000000000000000600052604160045260246000fd5b6040519080825280602002602001820160405280156108dd5781602001602082028036833780820191505090505b5090506000848260008151811061091d577f4e487b7100000000000000000000000000000000000000000000000000000000600052603260045260246000fd5b6020026020010181815250508382600181518110610964577f4e487b7100000000000000000000000000000000000000000000000000000000600052603260045260246000fd5b602002602001018181525050600090505b82811015610a3c578a60c0015181815181106109ba577f4e487b7100000000000000000000000000000000000000000000000000000000600052603260045260246000fd5b602002602001015173ffffffffffffffffffffffffffffffffffffffff16826002836109e6919061393b565b81518110610a1d577f4e487b7100000000000000000000000000000000000000000000000000000000600052603260045260246000fd5b6020026020010181815250508080610a3490613b49565b915050610975565b8b6080015160601c73ffffffffffffffffffffffffffffffffffffffff1682600285610a68919061393b565b81518110610a9f577f4e487b7100000000000000000000000000000000000000000000000000000000600052603260045260246000fd5b6020026020010181815250508b6060015160601c73ffffffffffffffffffffffffffffffffffffffff1682600385610ad7919061393b565b81518110610b0e577f4e487b7100000000000000000000000000000000000000000000000000000000600052603260045260246000fd5b6020026020010181815250508b6020015160601c73ffffffffffffffffffffffffffffffffffffffff1682600485610b46919061393b565b81518110610b7d577f4e487b7100000000000000000000000000000000000000000000000000000000600052603260045260246000fd5b6020026020010181815250508a60e0015182600585610b9c919061393b565b81518110610bd3577f4e487b7100000000000000000000000000000000000000000000000000000000600052603260045260246000fd5b602002602001018181525050610bec8989898986611f0d565b995050505050505050505092915050565b6000808360a001518560a00151610c14919061393b565b6002610c209190613991565b84608001518660800151610c34919061393b565b6003610c409190613991565b11610c80576040517f08c379a0000000000000000000000000000000000000000000000000000000008152600401610c7790613613565b60405180910390fd5b610c8a8685610820565b610cc9576040517f08c379a0000000000000000000000000000000000000000000000000000000008152600401610cc090613593565b60405180910390fd5b610cd7866080015186611b7c565b610d16576040517f08c379a0000000000000000000000000000000000000000000000000000000008152600401610d0d906135f3565b60405180910390fd5b60008351905060008660c0015151905060008660c0015151905060008860e00151905060008860e001519050610d4c81846114d7565b610d5683866114d7565b610d60919061393b565b851015610da2576040517f08c379a0000000000000000000000000000000000000000000000000000000008152600401610d99906136b3565b60405180910390fd5b60008060008098505b8789101561100157868b8a81518110610ded577f4e487b7100000000000000000000000000000000000000000000000000000000600052603260045260246000fd5b60200260200101516080015110610e5357868b8a81518110610e38577f4e487b7100000000000000000000000000000000000000000000000000000000600052603260045260246000fd5b602002602001015160800151610e4e91906139eb565b610e99565b8a8981518110610e8c577f4e487b7100000000000000000000000000000000000000000000000000000000600052603260045260246000fd5b6020026020010151608001515b9150868210610eec578b60c001518281518110610edf577f4e487b7100000000000000000000000000000000000000000000000000000000600052603260045260246000fd5b6020026020010151610f32565b8c60c001518281518110610f29577f4e487b7100000000000000000000000000000000000000000000000000000000600052603260045260246000fd5b60200260200101515b92506001808387901c161415610fcd57610f8d8e848d8c81518110610f80577f4e487b7100000000000000000000000000000000000000000000000000000000600052603260045260246000fd5b602002602001015161151b565b610fcc576040517f08c379a0000000000000000000000000000000000000000000000000000000008152600401610fc3906135b3565b60405180910390fd5b5b60cb54610fd984611125565b1415610fee578080610fea90613b49565b9150505b8880610ff990613b49565b995050610dab565b60ca5460026110109190613991565b81600361101d9190613991565b1161105d576040517f08c379a0000000000000000000000000000000000000000000000000000000008152600401611054906136d3565b60405180910390fd5b60019950505050505050505050949350505050565b60008060029054906101000a900473ffffffffffffffffffffffffffffffffffffffff1673ffffffffffffffffffffffffffffffffffffffff1663bf40fac1836040518263ffffffff1660e01b81526004016110ce9190613511565b60206040518083038186803b1580156110e657600080fd5b505afa1580156110fa573d6000803e3d6000fd5b505050506040513d601f19601f8201168201806040525081019061111e9190612b85565b9050919050565b600060ce60008373ffffffffffffffffffffffffffffffffffffffff1673ffffffffffffffffffffffffffffffffffffffff168152602001908152602001600020549050919050565b6000606560009054906101000a900460ff16905090565b60008060019054906101000a900460ff161590508080156111b65750600160008054906101000a900460ff1660ff16105b806111e357506111c530611fb1565b1580156111e25750600160008054906101000a900460ff1660ff16145b5b611222576040517f08c379a000000000000000000000000000000000000000000000000000000000815260040161121990613653565b60405180910390fd5b60016000806101000a81548160ff021916908360ff160217905550801561125f576001600060016101000a81548160ff0219169083151502179055505b600060cb54146112a4576040517f08c379a000000000000000000000000000000000000000000000000000000000815260040161129b90613673565b60405180910390fd5b815160ca819055508260cb8190555060005b60ca548110156113fa5760cc8382815181106112fb577f4e487b7100000000000000000000000000000000000000000000000000000000600052603260045260246000fd5b60200260200101519080600181540180825580915050600190039060005260206000200160009091909190916101000a81548173ffffffffffffffffffffffffffffffffffffffff021916908373ffffffffffffffffffffffffffffffffffffffff1602179055508360ce60008584815181106113a1577f4e487b7100000000000000000000000000000000000000000000000000000000600052603260045260246000fd5b602002602001015173ffffffffffffffffffffffffffffffffffffffff1673ffffffffffffffffffffffffffffffffffffffff1681526020019081526020016000208190555080806113f290613b49565b9150506112b6565b60cc60cd600086815260200190815260200160002090805461141d9291906124a4565b5061142785611fd4565b61142f612067565b6114376120b8565b61143f612119565b611447612185565b5080156114a15760008060016101000a81548160ff0219169083151502179055507f7f26b83ff96e1f2b6a682f133852f6798a09c465da95921460cefb3847402498600160405161149891906134f6565b60405180910390a15b50505050565b6114af6121de565b6114b9600061225c565b565b600060cb54905090565b6114cd6121de565b6114d5612322565b565b6000806000905060005b838110156115105760018186901c16826114fb919061393b565b9150808061150890613b49565b9150506114e1565b508091505092915050565b600080826000015190506000836020015190506000846040015190506000856060015190506000600467ffffffffffffffff811115611583577f4e487b7100000000000000000000000000000000000000000000000000000000600052604160045260246000fd5b6040519080825280602002602001820160405280156115b15781602001602082028036833780820191505090505b5090508773ffffffffffffffffffffffffffffffffffffffff1681600081518110611605577f4e487b7100000000000000000000000000000000000000000000000000000000600052603260045260246000fd5b602002602001018181525050886020015160601c73ffffffffffffffffffffffffffffffffffffffff1681600181518110611669577f4e487b7100000000000000000000000000000000000000000000000000000000600052603260045260246000fd5b6020026020010181815250508860000151816002815181106116b4577f4e487b7100000000000000000000000000000000000000000000000000000000600052603260045260246000fd5b6020026020010181815250508860400151816003815181106116ff577f4e487b7100000000000000000000000000000000000000000000000000000000600052603260045260246000fd5b6020026020010181815250506117188585858585611f0d565b955050505050509392505050565b6000603360009054906101000a900473ffffffffffffffffffffffffffffffffffffffff16905090565b61178e6040518060400160405280600c81526020017f4f52414953414e5f474154450000000000000000000000000000000000000000815250611072565b73ffffffffffffffffffffffffffffffffffffffff163373ffffffffffffffffffffffffffffffffffffffff1614806117f957506117ca611726565b73ffffffffffffffffffffffffffffffffffffffff163373ffffffffffffffffffffffffffffffffffffffff16145b611838576040517f08c379a000000000000000000000000000000000000000000000000000000000815260040161182f90613553565b60405180910390fd5b600060cd60008581526020019081526020016000208054905014611891576040517f08c379a000000000000000000000000000000000000000000000000000000000815260040161188890613633565b60405180910390fd5b8260cb8190555060008251905060008251905060cc60006118b29190612483565b60005b828110156119f75760cc8582815181106118f8577f4e487b7100000000000000000000000000000000000000000000000000000000600052603260045260246000fd5b60200260200101519080600181540180825580915050600190039060005260206000200160009091909190916101000a81548173ffffffffffffffffffffffffffffffffffffffff021916908373ffffffffffffffffffffffffffffffffffffffff1602179055508560ce600087848151811061199e577f4e487b7100000000000000000000000000000000000000000000000000000000600052603260045260246000fd5b602002602001015173ffffffffffffffffffffffffffffffffffffffff1673ffffffffffffffffffffffffffffffffffffffff1681526020019081526020016000208190555080806119ef90613b49565b9150506118b5565b600090505b81811015611b3e5760cc848281518110611a3f577f4e487b7100000000000000000000000000000000000000000000000000000000600052603260045260246000fd5b60200260200101519080600181540180825580915050600190039060005260206000200160009091909190916101000a81548173ffffffffffffffffffffffffffffffffffffffff021916908373ffffffffffffffffffffffffffffffffffffffff1602179055508560ce6000868481518110611ae5577f4e487b7100000000000000000000000000000000000000000000000000000000600052603260045260246000fd5b602002602001015173ffffffffffffffffffffffffffffffffffffffff1673ffffffffffffffffffffffffffffffffffffffff168152602001908152602001600020819055508080611b3690613b49565b9150506119fc565b60cc60cd6000888152602001908152602001600020908054611b619291906124a4565b508183611b6e919061393b565b60ca81905550505050505050565b6000808260000151905060008360200151905060008460400151905060008560600151905060008660800151905060008760a00151905060008860c001515190506000816004611bcc919061393b565b67ffffffffffffffff811115611c0b577f4e487b7100000000000000000000000000000000000000000000000000000000600052604160045260246000fd5b604051908082528060200260200182016040528015611c395781602001602082028036833780820191505090505b50905060008482600081518110611c79577f4e487b7100000000000000000000000000000000000000000000000000000000600052603260045260246000fd5b6020026020010181815250508382600181518110611cc0577f4e487b7100000000000000000000000000000000000000000000000000000000600052603260045260246000fd5b602002602001018181525050600090505b82811015611d98578a60c001518181518110611d16577f4e487b7100000000000000000000000000000000000000000000000000000000600052603260045260246000fd5b602002602001015173ffffffffffffffffffffffffffffffffffffffff1682600283611d42919061393b565b81518110611d79577f4e487b7100000000000000000000000000000000000000000000000000000000600052603260045260246000fd5b6020026020010181815250508080611d9090613b49565b915050611cd1565b8b60601c73ffffffffffffffffffffffffffffffffffffffff1682600285611dc0919061393b565b81518110611df7577f4e487b7100000000000000000000000000000000000000000000000000000000600052603260045260246000fd5b6020026020010181815250508a60e0015182600385611e16919061393b565b81518110611e4d577f4e487b7100000000000000000000000000000000000000000000000000000000600052603260045260246000fd5b602002602001018181525050611e668989898986611f0d565b995050505050505050505092915050565b611e7f6121de565b611e87612385565b565b611e916121de565b600073ffffffffffffffffffffffffffffffffffffffff168173ffffffffffffffffffffffffffffffffffffffff161415611f01576040517f08c379a0000000000000000000000000000000000000000000000000000000008152600401611ef890613573565b60405180910390fd5b611f0a8161225c565b50565b6000611f1886611072565b73ffffffffffffffffffffffffffffffffffffffff1663c32e370e868686866040518563ffffffff1660e01b8152600401611f569493929190613472565b60206040518083038186803b158015611f6e57600080fd5b505afa158015611f82573d6000803e3d6000fd5b505050506040513d601f19601f82011682018060405250810190611fa69190612c15565b905095945050505050565b6000808273ffffffffffffffffffffffffffffffffffffffff163b119050919050565b600060019054906101000a900460ff16612023576040517f08c379a000000000000000000000000000000000000000000000000000000000815260040161201a906136f3565b60405180910390fd5b80600060026101000a81548173ffffffffffffffffffffffffffffffffffffffff021916908373ffffffffffffffffffffffffffffffffffffffff16021790555050565b600060019054906101000a900460ff166120b6576040517f08c379a00000000000000000000000000000000000000000000000000000000081526004016120ad906136f3565b60405180910390fd5b565b600060019054906101000a900460ff16612107576040517f08c379a00000000000000000000000000000000000000000000000000000000081526004016120fe906136f3565b60405180910390fd5b6121176121126123e8565b61225c565b565b600060019054906101000a900460ff16612168576040517f08c379a000000000000000000000000000000000000000000000000000000000815260040161215f906136f3565b60405180910390fd5b6000606560006101000a81548160ff021916908315150217905550565b600060019054906101000a900460ff166121d4576040517f08c379a00000000000000000000000000000000000000000000000000000000081526004016121cb906136f3565b60405180910390fd5b6001609781905550565b6121e66123e8565b73ffffffffffffffffffffffffffffffffffffffff16612204611726565b73ffffffffffffffffffffffffffffffffffffffff161461225a576040517f08c379a000000000000000000000000000000000000000000000000000000000815260040161225190613693565b60405180910390fd5b565b6000603360009054906101000a900473ffffffffffffffffffffffffffffffffffffffff16905081603360006101000a81548173ffffffffffffffffffffffffffffffffffffffff021916908373ffffffffffffffffffffffffffffffffffffffff1602179055508173ffffffffffffffffffffffffffffffffffffffff168173ffffffffffffffffffffffffffffffffffffffff167f8be0079c531659141344cd1fd0a4f28419497f9722a3daafe3b4186f6b6457e060405160405180910390a35050565b61232a6123f0565b6001606560006101000a81548160ff0219169083151502179055507f62e78cea01bee320cd4e420270b5ea74000d11b0c9f74754ebdbfc544b05a25861236e6123e8565b60405161237b9190613435565b60405180910390a1565b61238d61243a565b6000606560006101000a81548160ff0219169083151502179055507f5db9ee0a495bf2e6ff9c91a7834c1ba4fdd244a5e8aa4e537bd38aeae4b073aa6123d16123e8565b6040516123de9190613435565b60405180910390a1565b600033905090565b6123f861116e565b15612438576040517f08c379a000000000000000000000000000000000000000000000000000000000815260040161242f906135d3565b60405180910390fd5b565b61244261116e565b612481576040517f08c379a000000000000000000000000000000000000000000000000000000000815260040161247890613533565b60405180910390fd5b565b50805460008255906000526020600020908101906124a191906124f6565b50565b8280548282559060005260206000209081019282156124e55760005260206000209182015b828111156124e45782548255916001019190600101906124c9565b5b5090506124f291906124f6565b5090565b5b8082111561250f5760008160009055506001016124f7565b5090565b600061252661252184613773565b61374e565b9050808382526020820190508285602086028201111561254557600080fd5b60005b85811015612575578161255b8882612709565b845260208401935060208301925050600181019050612548565b5050509392505050565b600061259261258d8461379f565b61374e565b905080828560408602820111156125a857600080fd5b60005b858110156125d857816125be88826127ae565b8452602084019350604083019250506001810190506125ab565b5050509392505050565b60006125f56125f0846137c5565b61374e565b9050808382526020820190508285602086028201111561261457600080fd5b60005b8581101561265e57813567ffffffffffffffff81111561263657600080fd5b80860161264389826128b1565b85526020850194506020840193505050600181019050612617565b5050509392505050565b600061267b612676846137f1565b61374e565b9050808285602086028201111561269157600080fd5b60005b858110156126c157816126a78882612b47565b845260208401935060208301925050600181019050612694565b5050509392505050565b60006126de6126d984613817565b61374e565b9050828152602081018484840111156126f657600080fd5b612701848285613ad6565b509392505050565b60008135905061271881613f29565b92915050565b60008151905061272d81613f29565b92915050565b600082601f83011261274457600080fd5b8135612754848260208601612513565b91505092915050565b600082601f83011261276e57600080fd5b600261277b84828561257f565b91505092915050565b600082601f83011261279557600080fd5b81356127a58482602086016125e2565b91505092915050565b600082601f8301126127bf57600080fd5b60026127cc848285612668565b91505092915050565b6000815190506127e481613f40565b92915050565b6000813590506127f981613f57565b92915050565b600082601f83011261281057600080fd5b81356128208482602086016126cb565b91505092915050565b600060a0828403121561283b57600080fd5b61284560a061374e565b9050600061285584828501612b47565b6000830152506020612869848285016127ea565b602083015250604061287d84828501612b47565b6040830152506060612891848285016127ea565b60608301525060806128a5848285016127ea565b60808301525092915050565b600061014082840312156128c457600080fd5b6128ce60a061374e565b9050600082013567ffffffffffffffff8111156128ea57600080fd5b6128f6848285016127ff565b600083015250602061290a848285016127ae565b602083015250606061291e8482850161275d565b60408301525060e0612932848285016127ae565b60608301525061012061294784828501612b47565b60808301525092915050565b60006101a0828403121561296657600080fd5b61297161010061374e565b9050600082013567ffffffffffffffff81111561298d57600080fd5b612999848285016127ff565b60008301525060206129ad848285016127ae565b60208301525060606129c18482850161275d565b60408301525060e06129d5848285016127ae565b6060830152506101206129ea84828501612b47565b6080830152506101406129ff84828501612b47565b60a08301525061016082013567ffffffffffffffff811115612a2057600080fd5b612a2c84828501612733565b60c083015250610180612a4184828501612b47565b60e08301525092915050565b60006101a08284031215612a6057600080fd5b612a6b61010061374e565b9050600082013567ffffffffffffffff811115612a8757600080fd5b612a93848285016127ff565b6000830152506020612aa7848285016127ae565b6020830152506060612abb8482850161275d565b60408301525060e0612acf848285016127ae565b606083015250610120612ae484828501612b47565b608083015250610140612af984828501612b47565b60a08301525061016082013567ffffffffffffffff811115612b1a57600080fd5b612b2684828501612733565b60c083015250610180612b3b84828501612b47565b60e08301525092915050565b600081359050612b5681613f6e565b92915050565b600060208284031215612b6e57600080fd5b6000612b7c84828501612709565b91505092915050565b600060208284031215612b9757600080fd5b6000612ba58482850161271e565b91505092915050565b600080600060608486031215612bc357600080fd5b6000612bd186828701612709565b9350506020612be286828701612b47565b925050604084013567ffffffffffffffff811115612bff57600080fd5b612c0b86828701612733565b9150509250925092565b600060208284031215612c2757600080fd5b6000612c35848285016127d5565b91505092915050565b60008060408385031215612c5157600080fd5b6000612c5f858286016127ea565b925050602083013567ffffffffffffffff811115612c7c57600080fd5b612c8885828601612953565b9150509250929050565b600060208284031215612ca457600080fd5b600082013567ffffffffffffffff811115612cbe57600080fd5b612cca848285016127ff565b91505092915050565b600080600060e08486031215612ce857600080fd5b6000612cf686828701612829565b93505060a0612d0786828701612709565b92505060c084013567ffffffffffffffff811115612d2457600080fd5b612d30868287016128b1565b9150509250925092565b6000806000806101008587031215612d5157600080fd5b6000612d5f87828801612829565b94505060a085013567ffffffffffffffff811115612d7c57600080fd5b612d8887828801612953565b93505060c085013567ffffffffffffffff811115612da557600080fd5b612db187828801612a4d565b92505060e085013567ffffffffffffffff811115612dce57600080fd5b612dda87828801612784565b91505092959194509250565b60008060c08385031215612df957600080fd5b6000612e0785828601612829565b92505060a083013567ffffffffffffffff811115612e2457600080fd5b612e3085828601612a4d565b9150509250929050565b600060208284031215612e4c57600080fd5b6000612e5a84828501612b47565b91505092915050565b60008060408385031215612e7657600080fd5b6000612e8485828601612b47565b9250506020612e9585828601612709565b9150509250929050565b600080600060608486031215612eb457600080fd5b6000612ec286828701612b47565b935050602084013567ffffffffffffffff811115612edf57600080fd5b612eeb86828701612733565b925050604084013567ffffffffffffffff811115612f0857600080fd5b612f1486828701612733565b9150509250925092565b60008060408385031215612f3157600080fd5b6000612f3f85828601612b47565b9250506020612f5085828601612b47565b9150509250929050565b6000612f668383612fa2565b60208301905092915050565b6000612f7e8383613075565b60408301905092915050565b6000612f968383613417565b60208301905092915050565b612fab81613a1f565b82525050565b612fba81613a1f565b82525050565b6000612fcb8261387c565b612fd581856138e7565b9350612fe083613848565b8060005b83811015613011578151612ff88882612f5a565b9750613003836138b3565b925050600181019050612fe4565b5085935050505092915050565b61302781613887565b61303181846138f8565b925061303c82613858565b8060005b8381101561306d5781516130548782612f72565b965061305f836138c0565b925050600181019050613040565b505050505050565b61307e81613892565b6130888184613903565b925061309382613862565b8060005b838110156130c45781516130ab8782612f8a565b96506130b6836138cd565b925050600181019050613097565b505050505050565b6130d581613892565b6130df818461390e565b92506130ea82613862565b8060005b8381101561311b5781516131028782612f8a565b965061310d836138cd565b9250506001810190506130ee565b505050505050565b600061312e8261389d565b6131388185613919565b93506131438361386c565b8060005b8381101561317457815161315b8882612f8a565b9750613166836138da565b925050600181019050613147565b5085935050505092915050565b61318a81613a31565b82525050565b61319981613aa0565b82525050565b6131a881613ac4565b82525050565b60006131b9826138a8565b6131c3818561392a565b93506131d3818560208601613ae5565b6131dc81613bf0565b840191505092915050565b60006131f460148361392a565b91506131ff82613c01565b602082019050919050565b6000613217600e8361392a565b915061322282613c2a565b602082019050919050565b600061323a60268361392a565b915061324582613c53565b604082019050919050565b600061325d601b8361392a565b915061326882613ca2565b602082019050919050565b600061328060158361392a565b915061328b82613ccb565b602082019050919050565b60006132a360108361392a565b91506132ae82613cf4565b602082019050919050565b60006132c6601c8361392a565b91506132d182613d1d565b602082019050919050565b60006132e9601a8361392a565b91506132f482613d46565b602082019050919050565b600061330c60238361392a565b915061331782613d6f565b604082019050919050565b600061332f602e8361392a565b915061333a82613dbe565b604082019050919050565b6000613352601f8361392a565b915061335d82613e0d565b602082019050919050565b600061337560208361392a565b915061338082613e36565b602082019050919050565b600061339860208361392a565b91506133a382613e5f565b602082019050919050565b60006133bb601c8361392a565b91506133c682613e88565b602082019050919050565b60006133de602b8361392a565b91506133e982613eb1565b604082019050919050565b6000613401600d8361392a565b915061340c82613f00565b602082019050919050565b61342081613a89565b82525050565b61342f81613a89565b82525050565b600060208201905061344a6000830184612fb1565b92915050565b6000602082019050818103600083015261346a8184612fc0565b905092915050565b60006101208201905061348860008301876130cc565b613495604083018661301e565b6134a260c08301856130cc565b8181036101008301526134b58184613123565b905095945050505050565b60006020820190506134d56000830184613181565b92915050565b60006020820190506134f06000830184613190565b92915050565b600060208201905061350b600083018461319f565b92915050565b6000602082019050818103600083015261352b81846131ae565b905092915050565b6000602082019050818103600083015261354c816131e7565b9050919050565b6000602082019050818103600083015261356c8161320a565b9050919050565b6000602082019050818103600083015261358c8161322d565b9050919050565b600060208201905081810360008301526135ac81613250565b9050919050565b600060208201905081810360008301526135cc81613273565b9050919050565b600060208201905081810360008301526135ec81613296565b9050919050565b6000602082019050818103600083015261360c816132b9565b9050919050565b6000602082019050818103600083015261362c816132dc565b9050919050565b6000602082019050818103600083015261364c816132ff565b9050919050565b6000602082019050818103600083015261366c81613322565b9050919050565b6000602082019050818103600083015261368c81613345565b9050919050565b600060208201905081810360008301526136ac81613368565b9050919050565b600060208201905081810360008301526136cc8161338b565b9050919050565b600060208201905081810360008301526136ec816133ae565b9050919050565b6000602082019050818103600083015261370c816133d1565b9050919050565b6000602082019050818103600083015261372c816133f4565b9050919050565b60006020820190506137486000830184613426565b92915050565b6000613758613769565b90506137648282613b18565b919050565b6000604051905090565b600067ffffffffffffffff82111561378e5761378d613bc1565b5b602082029050602081019050919050565b600067ffffffffffffffff8211156137ba576137b9613bc1565b5b602082029050919050565b600067ffffffffffffffff8211156137e0576137df613bc1565b5b602082029050602081019050919050565b600067ffffffffffffffff82111561380c5761380b613bc1565b5b602082029050919050565b600067ffffffffffffffff82111561383257613831613bc1565b5b61383b82613bf0565b9050602081019050919050565b6000819050602082019050919050565b6000819050919050565b6000819050919050565b6000819050602082019050919050565b600081519050919050565b600060029050919050565b600060029050919050565b600081519050919050565b600081519050919050565b6000602082019050919050565b6000602082019050919050565b6000602082019050919050565b6000602082019050919050565b600082825260208201905092915050565b600081905092915050565b600081905092915050565b600081905092915050565b600082825260208201905092915050565b600082825260208201905092915050565b600061394682613a89565b915061395183613a89565b9250827fffffffffffffffffffffffffffffffffffffffffffffffffffffffffffffffff0382111561398657613985613b92565b5b828201905092915050565b600061399c82613a89565b91506139a783613a89565b9250817fffffffffffffffffffffffffffffffffffffffffffffffffffffffffffffffff04831182151516156139e0576139df613b92565b5b828202905092915050565b60006139f682613a89565b9150613a0183613a89565b925082821015613a1457613a13613b92565b5b828203905092915050565b6000613a2a82613a69565b9050919050565b60008115159050919050565b60007fffffffffffffffffffffffffffffffffffffffff00000000000000000000000082169050919050565b600073ffffffffffffffffffffffffffffffffffffffff82169050919050565b6000819050919050565b600060ff82169050919050565b6000613aab82613ab2565b9050919050565b6000613abd82613a69565b9050919050565b6000613acf82613a93565b9050919050565b82818337600083830152505050565b60005b83811015613b03578082015181840152602081019050613ae8565b83811115613b12576000848401525b50505050565b613b2182613bf0565b810181811067ffffffffffffffff82111715613b4057613b3f613bc1565b5b80604052505050565b6000613b5482613a89565b91507fffffffffffffffffffffffffffffffffffffffffffffffffffffffffffffffff821415613b8757613b86613b92565b5b600182019050919050565b7f4e487b7100000000000000000000000000000000000000000000000000000000600052601160045260246000fd5b7f4e487b7100000000000000000000000000000000000000000000000000000000600052604160045260246000fd5b6000601f19601f8301169050919050565b7f5061757361626c653a206e6f7420706175736564000000000000000000000000600082015250565b7f696e76616c69642073656e646572000000000000000000000000000000000000600082015250565b7f4f776e61626c653a206e6577206f776e657220697320746865207a65726f206160008201527f6464726573730000000000000000000000000000000000000000000000000000602082015250565b7f696e76616c69642076616c696461746f722068617368206c6566740000000000600082015250565b7f696e76616c69642076616c696461746f72207365740000000000000000000000600082015250565b7f5061757361626c653a2070617573656400000000000000000000000000000000600082015250565b7f696e76616c69642076616c696461746f72206861736820526967687400000000600082015250565b7f496e76616c696420746f74616c20766f74696e6720706f776572000000000000600082015250565b7f76616c696461746f72207365742077617320757064617465642061742068656960008201527f6768740000000000000000000000000000000000000000000000000000000000602082015250565b7f496e697469616c697a61626c653a20636f6e747261637420697320616c72656160008201527f647920696e697469616c697a6564000000000000000000000000000000000000602082015250565b7f434f534d4f535f56414c494441544f525320697320696e697469616c697a6500600082015250565b7f4f776e61626c653a2063616c6c6572206973206e6f7420746865206f776e6572600082015250565b7f696e76616c696420746865206e756d626572206f66207369676e617475726573600082015250565b7f696e76616c6964206e756d626572206f662076616c696461746f727300000000600082015250565b7f496e697469616c697a61626c653a20636f6e7472616374206973206e6f74206960008201527f6e697469616c697a696e67000000000000000000000000000000000000000000602082015250565b7f696e76616c696420696e64657800000000000000000000000000000000000000600082015250565b613f3281613a1f565b8114613f3d57600080fd5b50565b613f4981613a31565b8114613f5457600080fd5b50565b613f6081613a3d565b8114613f6b57600080fd5b50565b613f7781613a89565b8114613f8257600080fd5b5056fea26469706673582212209cfe297d32fb7d9a42230a874be9ae441eb4134bc383b614c71a4cfe13909d9764736f6c63430008040033",
  "linkReferences": {},
  "deployedLinkReferences": {}
}