{
  "_format": "hh-sol-artifact-1",
  "contractName": "MerkleTreeWithHistory",
  "sourceName": "contracts/ethBridge/MerkleTreeWithHistory.sol",
  "abi": [
    {
      "anonymous": false,
      "inputs": [
        {
          "indexed": false,
          "internalType": "uint8",
          "name": "version",
          "type": "uint8"
        }
      ],
      "name": "Initialized",
      "type": "event"
    },
    {
      "inputs": [],
      "name": "ROOT_HISTORY_SIZE",
      "outputs": [
        {
          "internalType": "uint256",
          "name": "",
          "type": "uint256"
        }
      ],
      "stateMutability": "view",
      "type": "function"
    },
    {
      "inputs": [],
      "name": "currentDepositRoot",
      "outputs": [
        {
          "internalType": "uint256",
          "name": "",
          "type": "uint256"
        }
      ],
      "stateMutability": "view",
      "type": "function"
    },
    {
      "inputs": [
        {
          "internalType": "uint256",
          "name": "",
          "type": "uint256"
        }
      ],
      "name": "depositRoots",
      "outputs": [
        {
          "internalType": "uint256",
          "name": "",
          "type": "uint256"
        }
      ],
      "stateMutability": "view",
      "type": "function"
    },
    {
      "inputs": [],
      "name": "getLastDepositRoot",
      "outputs": [
        {
          "internalType": "uint256",
          "name": "",
          "type": "uint256"
        }
      ],
      "stateMutability": "view",
      "type": "function"
    },
    {
      "inputs": [
        {
          "internalType": "uint256",
          "name": "_depositRoot",
          "type": "uint256"
        }
      ],
      "name": "isKnownDepostRoot",
      "outputs": [
        {
          "internalType": "bool",
          "name": "",
          "type": "bool"
        }
      ],
      "stateMutability": "view",
      "type": "function"
    },
    {
      "inputs": [],
      "name": "levels",
      "outputs": [
        {
          "internalType": "uint256",
          "name": "",
          "type": "uint256"
        }
      ],
      "stateMutability": "view",
      "type": "function"
    }
  ],
  "bytecode": "0x608060405234801561001057600080fd5b5061034b806100206000396000f3fe608060405234801561001057600080fd5b50600436106100625760003560e01c80632cd4300c146100675780634ecf518b146100855780637ae1293f146100a35780639df22cd5146100d35780639ef46d0f146100f1578063cd87a3b414610121575b600080fd5b61006f61013f565b60405161007c9190610274565b60405180910390f35b61008d61015c565b60405161009a9190610274565b60405180910390f35b6100bd60048036038101906100b89190610212565b610162565b6040516100ca9190610259565b60405180910390f35b6100db6101d9565b6040516100e89190610274565b60405180910390f35b61010b60048036038101906101069190610212565b6101df565b6040516101189190610274565b60405180910390f35b6101296101f7565b6040516101369190610274565b60405180910390f35b600060046000600354815260200190815260200160002054905090565b60025481565b60008082141561017557600090506101d4565b6000600354905060008190505b60046000828152602001908152602001600020548414156101a8576001925050506101d4565b60008114156101b75760015490505b80806101c2906102a5565b91505081811415610182576000925050505b919050565b60035481565b60046020528060005260406000206000915090505481565b60015481565b60008135905061020c816102fe565b92915050565b60006020828403121561022457600080fd5b6000610232848285016101fd565b91505092915050565b6102448161028f565b82525050565b6102538161029b565b82525050565b600060208201905061026e600083018461023b565b92915050565b6000602082019050610289600083018461024a565b92915050565b60008115159050919050565b6000819050919050565b60006102b08261029b565b915060008214156102c4576102c36102cf565b5b600182039050919050565b7f4e487b7100000000000000000000000000000000000000000000000000000000600052601160045260246000fd5b6103078161029b565b811461031257600080fd5b5056fea264697066735822122032f25a26eb7270e24c5ced4219787ef14f455fa2a24ef196ee7829289908074364736f6c63430008040033",
  "linkReferences": {},
  "deployedLinkReferences": {}
}