{
  "_format": "hh-sol-artifact-1",
  "contractName": "ProcessString",
  "sourceName": "contracts/libs/utils/ProcessString.sol",
  "abi": [
    {
      "anonymous": false,
      "inputs": [
        {
          "indexed": false,
          "internalType": "uint8",
          "name": "version",
          "type": "uint8"
        }
      ],
      "name": "Initialized",
      "type": "event"
    },
    {
      "inputs": [
        {
          "internalType": "uint8[]",
          "name": "_a",
          "type": "uint8[]"
        },
        {
          "internalType": "uint8[]",
          "name": "_b",
          "type": "uint8[]"
        }
      ],
      "name": "compareBytesArray32",
      "outputs": [
        {
          "internalType": "bool",
          "name": "",
          "type": "bool"
        }
      ],
      "stateMutability": "pure",
      "type": "function"
    },
    {
      "inputs": [
        {
          "internalType": "bytes",
          "name": "_bytes",
          "type": "bytes"
        }
      ],
      "name": "convertBytesToUint8Array32",
      "outputs": [
        {
          "internalType": "uint8[32]",
          "name": "",
          "type": "uint8[32]"
        }
      ],
      "stateMutability": "pure",
      "type": "function"
    },
    {
      "inputs": [
        {
          "internalType": "uint8[32]",
          "name": "_uint8Array",
          "type": "uint8[32]"
        }
      ],
      "name": "convertUint8Array32ToBytes",
      "outputs": [
        {
          "internalType": "bytes",
          "name": "",
          "type": "bytes"
        }
      ],
      "stateMutability": "pure",
      "type": "function"
    },
    {
      "inputs": [
        {
          "internalType": "uint256",
          "name": "a",
          "type": "uint256"
        }
      ],
      "name": "encodeSovInt",
      "outputs": [
        {
          "internalType": "bytes",
          "name": "",
          "type": "bytes"
        }
      ],
      "stateMutability": "pure",
      "type": "function"
    },
    {
      "inputs": [],
      "name": "initialize",
      "outputs": [],
      "stateMutability": "nonpayable",
      "type": "function"
    },
    {
      "inputs": [
        {
          "internalType": "uint256",
          "name": "a",
          "type": "uint256"
        }
      ],
      "name": "sovInt",
      "outputs": [
        {
          "internalType": "uint256",
          "name": "",
          "type": "uint256"
        }
      ],
      "stateMutability": "pure",
      "type": "function"
    }
  ],
  "bytecode": "0x608060405234801561001057600080fd5b50611272806100206000396000f3fe608060405234801561001057600080fd5b50600436106100625760003560e01c8063397f379e1461006757806339e3af5d1461009757806341a4776a146100c75780635c470118146100f75780638129fc1c14610127578063a9633ffb14610131575b600080fd5b610081600480360381019061007c9190610b4e565b610161565b60405161008e9190610e7a565b60405180910390f35b6100b160048036038101906100ac9190610b4e565b6101a2565b6040516100be9190610ddd565b60405180910390f35b6100e160048036038101906100dc9190610b0d565b610457565b6040516100ee9190610da6565b60405180910390f35b610111600480360381019061010c9190610a77565b610464565b60405161011e9190610ddd565b60405180910390f35b61012f6105cf565b005b61014b60048036038101906101469190610aa1565b610770565b6040516101589190610dc2565b60405180910390f35b600080600090505b6000831461018b57600183901c9250808061018390611086565b915050610169565b600780821761019a9190610fad565b915050919050565b60606000806101b084610161565b905060008167ffffffffffffffff8111156101f4577f4e487b7100000000000000000000000000000000000000000000000000000000600052604160045260246000fd5b6040519080825280602002602001820160405280156102225781602001602082028036833780820191505090505b5090505b6080851061029c576080607f86161781848151811061026e577f4e487b7100000000000000000000000000000000000000000000000000000000600052603260045260246000fd5b602002602001019060ff16908160ff1681525050600785901c9450828061029490611086565b935050610226565b848184815181106102d6577f4e487b7100000000000000000000000000000000000000000000000000000000600052603260045260246000fd5b602002602001019060ff16908160ff168152505060008267ffffffffffffffff81111561032c577f4e487b7100000000000000000000000000000000000000000000000000000000600052604160045260246000fd5b6040519080825280601f01601f19166020018201604052801561035e5781602001600182028036833780820191505090505b50905060005b8381101561042b578281815181106103a5577f4e487b7100000000000000000000000000000000000000000000000000000000600052603260045260246000fd5b602002602001015160f81b8282815181106103e9577f4e487b7100000000000000000000000000000000000000000000000000000000600052603260045260246000fd5b60200101907effffffffffffffffffffffffffffffffffffffffffffffffffffffffffffff1916908160001a905350808061042390611086565b915050610364565b508060405160200161043d9190610d8f565b604051602081830303815290604052945050505050919050565b61045f6108a2565b919050565b60606000602067ffffffffffffffff8111156104a9577f4e487b7100000000000000000000000000000000000000000000000000000000600052604160045260246000fd5b6040519080825280601f01601f1916602001820160405280156104db5781602001600182028036833780820191505090505b50905060005b60208110156105a657838160208110610523577f4e487b7100000000000000000000000000000000000000000000000000000000600052603260045260246000fd5b602002015160f81b828281518110610564577f4e487b7100000000000000000000000000000000000000000000000000000000600052603260045260246000fd5b60200101907effffffffffffffffffffffffffffffffffffffffffffffffffffffffffffff1916908160001a905350808061059e90611086565b9150506104e1565b50826040516020016105b89190610d73565b604051602081830303815290604052915050919050565b60008060019054906101000a900460ff161590508080156106005750600160008054906101000a900460ff1660ff16105b8061062d575061060f3061087f565b15801561062c5750600160008054906101000a900460ff1660ff16145b5b61066c576040517f08c379a000000000000000000000000000000000000000000000000000000000815260040161066390610e5a565b60405180910390fd5b60016000806101000a81548160ff021916908360ff16021790555080156106a9576001600060016101000a81548160ff0219169083151502179055505b600060029054906101000a900460ff16156106f9576040517f08c379a00000000000000000000000000000000000000000000000000000000081526004016106f090610e1a565b60405180910390fd5b6001600060026101000a81548160ff021916908315150217905550801561076d5760008060016101000a81548160ff0219169083151502179055507f7f26b83ff96e1f2b6a682f133852f6798a09c465da95921460cefb384740249860016040516107649190610dff565b60405180910390a15b50565b600081518351146107b6576040517f08c379a00000000000000000000000000000000000000000000000000000000081526004016107ad90610e3a565b60405180910390fd5b60008351905060005b8181101561087257838181518110610800577f4e487b7100000000000000000000000000000000000000000000000000000000600052603260045260246000fd5b602002602001015160ff16858281518110610844577f4e487b7100000000000000000000000000000000000000000000000000000000600052603260045260246000fd5b602002602001015160ff161461085f57600092505050610879565b808061086a90611086565b9150506107bf565b5060019150505b92915050565b6000808273ffffffffffffffffffffffffffffffffffffffff163b119050919050565b604051806104000160405280602090602082028036833780820191505090505090565b60006108d86108d384610eba565b610e95565b905080828560208602820111156108ee57600080fd5b60005b8581101561091e57816109048882610a62565b8452602084019350602083019250506001810190506108f1565b5050509392505050565b600061093b61093684610ee0565b610e95565b9050808382526020820190508285602086028201111561095a57600080fd5b60005b8581101561098a57816109708882610a62565b84526020840193506020830192505060018101905061095d565b5050509392505050565b60006109a76109a284610f0c565b610e95565b9050828152602081018484840111156109bf57600080fd5b6109ca848285611013565b509392505050565b600082601f8301126109e357600080fd5b60206109f08482856108c5565b91505092915050565b600082601f830112610a0a57600080fd5b8135610a1a848260208601610928565b91505092915050565b600082601f830112610a3457600080fd5b8135610a44848260208601610994565b91505092915050565b600081359050610a5c8161120e565b92915050565b600081359050610a7181611225565b92915050565b60006104008284031215610a8a57600080fd5b6000610a98848285016109d2565b91505092915050565b60008060408385031215610ab457600080fd5b600083013567ffffffffffffffff811115610ace57600080fd5b610ada858286016109f9565b925050602083013567ffffffffffffffff811115610af757600080fd5b610b03858286016109f9565b9150509250929050565b600060208284031215610b1f57600080fd5b600082013567ffffffffffffffff811115610b3957600080fd5b610b4584828501610a23565b91505092915050565b600060208284031215610b6057600080fd5b6000610b6e84828501610a4d565b91505092915050565b6000610b838383610d55565b60208301905092915050565b6000610b9b8383610d64565b60208301905092915050565b610bb081610f47565b610bba8184610f6a565b9250610bc582610f3d565b8060005b83811015610bf6578151610bdd8782610b77565b9650610be883610f5d565b925050600181019050610bc9565b505050505050565b610c0781610f47565b610c118184610f75565b9250610c1c82610f3d565b8060005b83811015610c4d578151610c348782610b8f565b9650610c3f83610f5d565b925050600181019050610c20565b505050505050565b610c5e81610fde565b82525050565b6000610c6f82610f52565b610c798185610f80565b9350610c89818560208601611022565b610c928161115c565b840191505092915050565b6000610ca882610f52565b610cb28185610f91565b9350610cc2818560208601611022565b80840191505092915050565b610cd781611001565b82525050565b6000610cea601983610f9c565b9150610cf58261116d565b602082019050919050565b6000610d0d601783610f9c565b9150610d1882611196565b602082019050919050565b6000610d30602e83610f9c565b9150610d3b826111bf565b604082019050919050565b610d4f81610fea565b82525050565b610d5e81610ff4565b82525050565b610d6d81610ff4565b82525050565b6000610d7f8284610bfe565b6104008201915081905092915050565b6000610d9b8284610c9d565b915081905092915050565b600061040082019050610dbc6000830184610ba7565b92915050565b6000602082019050610dd76000830184610c55565b92915050565b60006020820190508181036000830152610df78184610c64565b905092915050565b6000602082019050610e146000830184610cce565b92915050565b60006020820190508181036000830152610e3381610cdd565b9050919050565b60006020820190508181036000830152610e5381610d00565b9050919050565b60006020820190508181036000830152610e7381610d23565b9050919050565b6000602082019050610e8f6000830184610d46565b92915050565b6000610e9f610eb0565b9050610eab8282611055565b919050565b6000604051905090565b600067ffffffffffffffff821115610ed557610ed461112d565b5b602082029050919050565b600067ffffffffffffffff821115610efb57610efa61112d565b5b602082029050602081019050919050565b600067ffffffffffffffff821115610f2757610f2661112d565b5b610f308261115c565b9050602081019050919050565b6000819050919050565b600060209050919050565b600081519050919050565b6000602082019050919050565b600081905092915050565b600081905092915050565b600082825260208201905092915050565b600081905092915050565b600082825260208201905092915050565b6000610fb882610fea565b9150610fc383610fea565b925082610fd357610fd26110fe565b5b828204905092915050565b60008115159050919050565b6000819050919050565b600060ff82169050919050565b600061100c82610ff4565b9050919050565b82818337600083830152505050565b60005b83811015611040578082015181840152602081019050611025565b8381111561104f576000848401525b50505050565b61105e8261115c565b810181811067ffffffffffffffff8211171561107d5761107c61112d565b5b80604052505050565b600061109182610fea565b91507fffffffffffffffffffffffffffffffffffffffffffffffffffffffffffffffff8214156110c4576110c36110cf565b5b600182019050919050565b7f4e487b7100000000000000000000000000000000000000000000000000000000600052601160045260246000fd5b7f4e487b7100000000000000000000000000000000000000000000000000000000600052601260045260246000fd5b7f4e487b7100000000000000000000000000000000000000000000000000000000600052604160045260246000fd5b6000601f19601f8301169050919050565b7f50726f63657373537472696e67206973206465706c6f79656400000000000000600082015250565b7f63616e277420636f6d706172652074776f206172726179000000000000000000600082015250565b7f496e697469616c697a61626c653a20636f6e747261637420697320616c72656160008201527f647920696e697469616c697a6564000000000000000000000000000000000000602082015250565b61121781610fea565b811461122257600080fd5b50565b61122e81610ff4565b811461123957600080fd5b5056fea26469706673582212209971df94c9bb88a60d84a09900857b0430f11e37d1f85e6dd46dd1ae32f77f1864736f6c63430008040033",
  "linkReferences": {},
  "deployedLinkReferences": {}
}