{
  "_format": "hh-sol-artifact-1",
  "contractName": "Lib_AddressManager",
  "sourceName": "contracts/libs/Lib_AddressManager.sol",
  "abi": [
    {
      "anonymous": false,
      "inputs": [
        {
          "indexed": false,
          "internalType": "uint8",
          "name": "version",
          "type": "uint8"
        }
      ],
      "name": "Initialized",
      "type": "event"
    },
    {
      "anonymous": false,
      "inputs": [
        {
          "indexed": true,
          "internalType": "address",
          "name": "previousOwner",
          "type": "address"
        },
        {
          "indexed": true,
          "internalType": "address",
          "name": "newOwner",
          "type": "address"
        }
      ],
      "name": "OwnershipTransferred",
      "type": "event"
    },
    {
      "inputs": [
        {
          "internalType": "string",
          "name": "_name",
          "type": "string"
        }
      ],
      "name": "getAddress",
      "outputs": [
        {
          "internalType": "address",
          "name": "",
          "type": "address"
        }
      ],
      "stateMutability": "view",
      "type": "function"
    },
    {
      "inputs": [],
      "name": "initialize",
      "outputs": [],
      "stateMutability": "nonpayable",
      "type": "function"
    },
    {
      "inputs": [],
      "name": "owner",
      "outputs": [
        {
          "internalType": "address",
          "name": "",
          "type": "address"
        }
      ],
      "stateMutability": "view",
      "type": "function"
    },
    {
      "inputs": [],
      "name": "renounceOwnership",
      "outputs": [],
      "stateMutability": "nonpayable",
      "type": "function"
    },
    {
      "inputs": [
        {
          "internalType": "string",
          "name": "_name",
          "type": "string"
        },
        {
          "internalType": "address",
          "name": "_address",
          "type": "address"
        }
      ],
      "name": "setAddress",
      "outputs": [],
      "stateMutability": "nonpayable",
      "type": "function"
    },
    {
      "inputs": [
        {
          "internalType": "address",
          "name": "newOwner",
          "type": "address"
        }
      ],
      "name": "transferOwnership",
      "outputs": [],
      "stateMutability": "nonpayable",
      "type": "function"
    }
  ],
  "bytecode": "0x608060405234801561001057600080fd5b50610cdd806100206000396000f3fe608060405234801561001057600080fd5b50600436106100625760003560e01c8063715018a6146100675780638129fc1c146100715780638da5cb5b1461007b5780639b2ea4bd14610099578063bf40fac1146100b5578063f2fde38b146100e5575b600080fd5b61006f610101565b005b610079610115565b005b610083610325565b60405161009091906108d4565b60405180910390f35b6100b360048036038101906100ae919061076b565b61034f565b005b6100cf60048036038101906100ca919061072a565b6103bb565b6040516100dc91906108d4565b60405180910390f35b6100ff60048036038101906100fa9190610701565b610400565b005b610109610484565b6101136000610502565b565b60008060019054906101000a900460ff161590508080156101465750600160008054906101000a900460ff1660ff16105b806101735750610155306105c8565b1580156101725750600160008054906101000a900460ff1660ff16145b5b6101b2576040517f08c379a00000000000000000000000000000000000000000000000000000000081526004016101a99061092a565b60405180910390fd5b60016000806101000a81548160ff021916908360ff16021790555080156101ef576001600060016101000a81548160ff0219169083151502179055505b600073ffffffffffffffffffffffffffffffffffffffff16606560009054906101000a900473ffffffffffffffffffffffffffffffffffffffff1673ffffffffffffffffffffffffffffffffffffffff1614610280576040517f08c379a00000000000000000000000000000000000000000000000000000000081526004016102779061096a565b60405180910390fd5b33606560006101000a81548173ffffffffffffffffffffffffffffffffffffffff021916908373ffffffffffffffffffffffffffffffffffffffff1602179055506102c96105eb565b80156103225760008060016101000a81548160ff0219169083151502179055507f7f26b83ff96e1f2b6a682f133852f6798a09c465da95921460cefb3847402498600160405161031991906108ef565b60405180910390a15b50565b6000603360009054906101000a900473ffffffffffffffffffffffffffffffffffffffff16905090565b610357610484565b60006103628361064c565b9050816066600083815260200190815260200160002060006101000a81548173ffffffffffffffffffffffffffffffffffffffff021916908373ffffffffffffffffffffffffffffffffffffffff160217905550505050565b6000606660006103ca8461064c565b815260200190815260200160002060009054906101000a900473ffffffffffffffffffffffffffffffffffffffff169050919050565b610408610484565b600073ffffffffffffffffffffffffffffffffffffffff168173ffffffffffffffffffffffffffffffffffffffff161415610478576040517f08c379a000000000000000000000000000000000000000000000000000000000815260040161046f9061090a565b60405180910390fd5b61048181610502565b50565b61048c61067c565b73ffffffffffffffffffffffffffffffffffffffff166104aa610325565b73ffffffffffffffffffffffffffffffffffffffff1614610500576040517f08c379a00000000000000000000000000000000000000000000000000000000081526004016104f79061094a565b60405180910390fd5b565b6000603360009054906101000a900473ffffffffffffffffffffffffffffffffffffffff16905081603360006101000a81548173ffffffffffffffffffffffffffffffffffffffff021916908373ffffffffffffffffffffffffffffffffffffffff1602179055508173ffffffffffffffffffffffffffffffffffffffff168173ffffffffffffffffffffffffffffffffffffffff167f8be0079c531659141344cd1fd0a4f28419497f9722a3daafe3b4186f6b6457e060405160405180910390a35050565b6000808273ffffffffffffffffffffffffffffffffffffffff163b119050919050565b600060019054906101000a900460ff1661063a576040517f08c379a00000000000000000000000000000000000000000000000000000000081526004016106319061098a565b60405180910390fd5b61064a61064561067c565b610502565b565b60008160405160200161065f91906108bd565b604051602081830303815290604052805190602001209050919050565b600033905090565b6000610697610692846109cf565b6109aa565b9050828152602081018484840111156106af57600080fd5b6106ba848285610a78565b509392505050565b6000813590506106d181610c90565b92915050565b600082601f8301126106e857600080fd5b81356106f8848260208601610684565b91505092915050565b60006020828403121561071357600080fd5b6000610721848285016106c2565b91505092915050565b60006020828403121561073c57600080fd5b600082013567ffffffffffffffff81111561075657600080fd5b610762848285016106d7565b91505092915050565b6000806040838503121561077e57600080fd5b600083013567ffffffffffffffff81111561079857600080fd5b6107a4858286016106d7565b92505060206107b5858286016106c2565b9150509250929050565b6107c881610a27565b82525050565b6107d781610a66565b82525050565b60006107e882610a00565b6107f28185610a1c565b9350610802818560208601610a87565b80840191505092915050565b600061081b602683610a0b565b915061082682610b2b565b604082019050919050565b600061083e602e83610a0b565b915061084982610b7a565b604082019050919050565b6000610861602083610a0b565b915061086c82610bc9565b602082019050919050565b6000610884602583610a0b565b915061088f82610bf2565b604082019050919050565b60006108a7602b83610a0b565b91506108b282610c41565b604082019050919050565b60006108c982846107dd565b915081905092915050565b60006020820190506108e960008301846107bf565b92915050565b600060208201905061090460008301846107ce565b92915050565b600060208201905081810360008301526109238161080e565b9050919050565b6000602082019050818103600083015261094381610831565b9050919050565b6000602082019050818103600083015261096381610854565b9050919050565b6000602082019050818103600083015261098381610877565b9050919050565b600060208201905081810360008301526109a38161089a565b9050919050565b60006109b46109c5565b90506109c08282610aba565b919050565b6000604051905090565b600067ffffffffffffffff8211156109ea576109e9610aeb565b5b6109f382610b1a565b9050602081019050919050565b600081519050919050565b600082825260208201905092915050565b600081905092915050565b6000610a3282610a39565b9050919050565b600073ffffffffffffffffffffffffffffffffffffffff82169050919050565b600060ff82169050919050565b6000610a7182610a59565b9050919050565b82818337600083830152505050565b60005b83811015610aa5578082015181840152602081019050610a8a565b83811115610ab4576000848401525b50505050565b610ac382610b1a565b810181811067ffffffffffffffff82111715610ae257610ae1610aeb565b5b80604052505050565b7f4e487b7100000000000000000000000000000000000000000000000000000000600052604160045260246000fd5b6000601f19601f8301169050919050565b7f4f776e61626c653a206e6577206f776e657220697320746865207a65726f206160008201527f6464726573730000000000000000000000000000000000000000000000000000602082015250565b7f496e697469616c697a61626c653a20636f6e747261637420697320616c72656160008201527f647920696e697469616c697a6564000000000000000000000000000000000000602082015250565b7f4f776e61626c653a2063616c6c6572206973206e6f7420746865206f776e6572600082015250565b7f4c69625f416464726573734d616e6167657220616c726561647920696e74696160008201527f6c697a6564000000000000000000000000000000000000000000000000000000602082015250565b7f496e697469616c697a61626c653a20636f6e7472616374206973206e6f74206960008201527f6e697469616c697a696e67000000000000000000000000000000000000000000602082015250565b610c9981610a27565b8114610ca457600080fd5b5056fea264697066735822122082138f20e0d4ceccb8aff6145db1f848815d7b916dcfd7cff5a660e84a1519d164736f6c63430008040033",
  "linkReferences": {},
  "deployedLinkReferences": {}
}