{
  "_format": "hh-sol-artifact-1",
  "contractName": "OraisanBridge",
  "sourceName": "contracts/ethBridge/OraisanBridge.sol",
  "abi": [
    {
      "anonymous": false,
      "inputs": [
        {
          "indexed": true,
          "internalType": "uint256[]",
          "name": "inputs",
          "type": "uint256[]"
        },
        {
          "indexed": false,
          "internalType": "uint256",
          "name": "timestamp",
          "type": "uint256"
        }
      ],
      "name": "ClaimTransactionCompleted",
      "type": "event"
    },
    {
      "anonymous": false,
      "inputs": [
        {
          "indexed": false,
          "internalType": "uint8",
          "name": "version",
          "type": "uint8"
        }
      ],
      "name": "Initialized",
      "type": "event"
    },
    {
      "anonymous": false,
      "inputs": [
        {
          "indexed": true,
          "internalType": "address",
          "name": "previousOwner",
          "type": "address"
        },
        {
          "indexed": true,
          "internalType": "address",
          "name": "newOwner",
          "type": "address"
        }
      ],
      "name": "OwnershipTransferred",
      "type": "event"
    },
    {
      "anonymous": false,
      "inputs": [
        {
          "indexed": false,
          "internalType": "address",
          "name": "account",
          "type": "address"
        }
      ],
      "name": "Paused",
      "type": "event"
    },
    {
      "anonymous": false,
      "inputs": [
        {
          "indexed": false,
          "internalType": "address",
          "name": "account",
          "type": "address"
        }
      ],
      "name": "Unpaused",
      "type": "event"
    },
    {
      "anonymous": false,
      "inputs": [
        {
          "indexed": true,
          "internalType": "uint256[]",
          "name": "inputs",
          "type": "uint256[]"
        },
        {
          "indexed": false,
          "internalType": "uint256",
          "name": "timestamp",
          "type": "uint256"
        }
      ],
      "name": "UpdateDepositRootCompleted",
      "type": "event"
    },
    {
      "inputs": [],
      "name": "ROOT_HISTORY_SIZE",
      "outputs": [
        {
          "internalType": "uint256",
          "name": "",
          "type": "uint256"
        }
      ],
      "stateMutability": "view",
      "type": "function"
    },
    {
      "inputs": [
        {
          "components": [
            {
              "internalType": "string",
              "name": "optionName",
              "type": "string"
            },
            {
              "internalType": "uint256[2]",
              "name": "pi_a",
              "type": "uint256[2]"
            },
            {
              "internalType": "uint256[2][2]",
              "name": "pi_b",
              "type": "uint256[2][2]"
            },
            {
              "internalType": "uint256[2]",
              "name": "pi_c",
              "type": "uint256[2]"
            },
            {
              "internalType": "address",
              "name": "eth_bridge_address",
              "type": "address"
            },
            {
              "internalType": "address",
              "name": "eth_receiver",
              "type": "address"
            },
            {
              "internalType": "uint256",
              "name": "amount",
              "type": "uint256"
            },
            {
              "internalType": "uint160",
              "name": "cosmos_token_address",
              "type": "uint160"
            },
            {
              "internalType": "uint256",
              "name": "depositRoot",
              "type": "uint256"
            }
          ],
          "internalType": "struct IVerifier.ClaimTransactionProof",
          "name": "_claimTransactionProof",
          "type": "tuple"
        }
      ],
      "name": "claimTransaction",
      "outputs": [],
      "stateMutability": "nonpayable",
      "type": "function"
    },
    {
      "inputs": [
        {
          "internalType": "uint160",
          "name": "",
          "type": "uint160"
        }
      ],
      "name": "cosmosToEthTokenAddress",
      "outputs": [
        {
          "internalType": "address",
          "name": "",
          "type": "address"
        }
      ],
      "stateMutability": "view",
      "type": "function"
    },
    {
      "inputs": [],
      "name": "currentDepositRoot",
      "outputs": [
        {
          "internalType": "uint256",
          "name": "",
          "type": "uint256"
        }
      ],
      "stateMutability": "view",
      "type": "function"
    },
    {
      "inputs": [
        {
          "internalType": "uint160",
          "name": "_cosmosTokenAddress",
          "type": "uint160"
        }
      ],
      "name": "deleteTokenPair",
      "outputs": [],
      "stateMutability": "nonpayable",
      "type": "function"
    },
    {
      "inputs": [
        {
          "internalType": "uint256",
          "name": "",
          "type": "uint256"
        }
      ],
      "name": "depositRoots",
      "outputs": [
        {
          "internalType": "uint256",
          "name": "",
          "type": "uint256"
        }
      ],
      "stateMutability": "view",
      "type": "function"
    },
    {
      "inputs": [
        {
          "internalType": "address",
          "name": "",
          "type": "address"
        }
      ],
      "name": "ethToCosmosTokenAddress",
      "outputs": [
        {
          "internalType": "uint160",
          "name": "",
          "type": "uint160"
        }
      ],
      "stateMutability": "view",
      "type": "function"
    },
    {
      "inputs": [],
      "name": "getLastDepositRoot",
      "outputs": [
        {
          "internalType": "uint256",
          "name": "",
          "type": "uint256"
        }
      ],
      "stateMutability": "view",
      "type": "function"
    },
    {
      "inputs": [
        {
          "internalType": "uint160",
          "name": "_cosmosBridge",
          "type": "uint160"
        }
      ],
      "name": "getSupportCosmosBridge",
      "outputs": [
        {
          "internalType": "bool",
          "name": "",
          "type": "bool"
        }
      ],
      "stateMutability": "view",
      "type": "function"
    },
    {
      "inputs": [
        {
          "internalType": "uint160",
          "name": "_cosmosToken",
          "type": "uint160"
        }
      ],
      "name": "getTokenPairOfCosmosToken",
      "outputs": [
        {
          "internalType": "address",
          "name": "",
          "type": "address"
        }
      ],
      "stateMutability": "view",
      "type": "function"
    },
    {
      "inputs": [
        {
          "internalType": "address",
          "name": "_ethToken",
          "type": "address"
        }
      ],
      "name": "getTokenPairOfEthToken",
      "outputs": [
        {
          "internalType": "uint160",
          "name": "",
          "type": "uint160"
        }
      ],
      "stateMutability": "view",
      "type": "function"
    },
    {
      "inputs": [
        {
          "internalType": "address",
          "name": "_libAddressManager",
          "type": "address"
        },
        {
          "internalType": "uint32",
          "name": "_merkleTreeHeight",
          "type": "uint32"
        }
      ],
      "name": "initialize",
      "outputs": [],
      "stateMutability": "nonpayable",
      "type": "function"
    },
    {
      "inputs": [
        {
          "internalType": "uint256",
          "name": "",
          "type": "uint256"
        }
      ],
      "name": "isClaimed",
      "outputs": [
        {
          "internalType": "bool",
          "name": "",
          "type": "bool"
        }
      ],
      "stateMutability": "view",
      "type": "function"
    },
    {
      "inputs": [
        {
          "internalType": "uint256",
          "name": "_depositRoot",
          "type": "uint256"
        }
      ],
      "name": "isKnownDepostRoot",
      "outputs": [
        {
          "internalType": "bool",
          "name": "",
          "type": "bool"
        }
      ],
      "stateMutability": "view",
      "type": "function"
    },
    {
      "inputs": [
        {
          "internalType": "uint160",
          "name": "",
          "type": "uint160"
        }
      ],
      "name": "isSupportCosmosBridge",
      "outputs": [
        {
          "internalType": "bool",
          "name": "",
          "type": "bool"
        }
      ],
      "stateMutability": "view",
      "type": "function"
    },
    {
      "inputs": [],
      "name": "levels",
      "outputs": [
        {
          "internalType": "uint256",
          "name": "",
          "type": "uint256"
        }
      ],
      "stateMutability": "view",
      "type": "function"
    },
    {
      "inputs": [],
      "name": "libAddressManager",
      "outputs": [
        {
          "internalType": "contract Lib_AddressManager",
          "name": "",
          "type": "address"
        }
      ],
      "stateMutability": "view",
      "type": "function"
    },
    {
      "inputs": [],
      "name": "owner",
      "outputs": [
        {
          "internalType": "address",
          "name": "",
          "type": "address"
        }
      ],
      "stateMutability": "view",
      "type": "function"
    },
    {
      "inputs": [],
      "name": "pause",
      "outputs": [],
      "stateMutability": "nonpayable",
      "type": "function"
    },
    {
      "inputs": [],
      "name": "paused",
      "outputs": [
        {
          "internalType": "bool",
          "name": "",
          "type": "bool"
        }
      ],
      "stateMutability": "view",
      "type": "function"
    },
    {
      "inputs": [
        {
          "internalType": "uint160",
          "name": "_cosmosBridge",
          "type": "uint160"
        },
        {
          "internalType": "bool",
          "name": "_isSupport",
          "type": "bool"
        }
      ],
      "name": "registerCosmosBridge",
      "outputs": [],
      "stateMutability": "nonpayable",
      "type": "function"
    },
    {
      "inputs": [
        {
          "internalType": "uint160",
          "name": "_cosmosTokenAddress",
          "type": "uint160"
        },
        {
          "internalType": "address",
          "name": "_ethTokenAddress",
          "type": "address"
        }
      ],
      "name": "registerTokenPair",
      "outputs": [],
      "stateMutability": "nonpayable",
      "type": "function"
    },
    {
      "inputs": [],
      "name": "renounceOwnership",
      "outputs": [],
      "stateMutability": "nonpayable",
      "type": "function"
    },
    {
      "inputs": [
        {
          "internalType": "string",
          "name": "_name",
          "type": "string"
        }
      ],
      "name": "resolve",
      "outputs": [
        {
          "internalType": "address",
          "name": "",
          "type": "address"
        }
      ],
      "stateMutability": "view",
      "type": "function"
    },
    {
      "inputs": [
        {
          "internalType": "address",
          "name": "newOwner",
          "type": "address"
        }
      ],
      "name": "transferOwnership",
      "outputs": [],
      "stateMutability": "nonpayable",
      "type": "function"
    },
    {
      "inputs": [],
      "name": "unpauseContract",
      "outputs": [],
      "stateMutability": "nonpayable",
      "type": "function"
    },
    {
      "inputs": [
        {
          "components": [
            {
              "internalType": "string",
              "name": "optionName",
              "type": "string"
            },
            {
              "internalType": "uint256[2]",
              "name": "pi_a",
              "type": "uint256[2]"
            },
            {
              "internalType": "uint256[2][2]",
              "name": "pi_b",
              "type": "uint256[2][2]"
            },
            {
              "internalType": "uint256[2]",
              "name": "pi_c",
              "type": "uint256[2]"
            },
            {
              "internalType": "uint160",
              "name": "cosmosSender",
              "type": "uint160"
            },
            {
              "internalType": "uint160",
              "name": "cosmosBridge",
              "type": "uint160"
            },
            {
              "internalType": "uint256",
              "name": "depositRoot",
              "type": "uint256"
            },
            {
              "internalType": "uint160",
              "name": "dataHash",
              "type": "uint160"
            }
          ],
          "internalType": "struct IVerifier.DepositRootProof",
          "name": "_depositRootProof",
          "type": "tuple"
        }
      ],
      "name": "updateRootDepositTree",
      "outputs": [
        {
          "internalType": "bool",
          "name": "",
          "type": "bool"
        }
      ],
      "stateMutability": "nonpayable",
      "type": "function"
    }
  ],
  "bytecode": "0x608060405234801561001057600080fd5b5061387c806100206000396000f3fe608060405234801561001057600080fd5b50600436106101a95760003560e01c80638da5cb5b116100f9578063b33712c511610097578063cd87a3b411610071578063cd87a3b4146104bc578063dcc4dcd2146104da578063e80b885b1461050a578063f2fde38b1461053a576101a9565b8063b33712c514610466578063bf60f95414610470578063c5e4c9f9146104a0576101a9565b80639df22cd5116100d35780639df22cd5146103b85780639e34070f146103d65780639ef46d0f14610406578063af00aa9214610436576101a9565b80638da5cb5b1461033a5780638e3327fa146103585780639139153f14610388576101a9565b8063461a4478116101665780635c975abb116101405780635c975abb146102d8578063715018a6146102f65780637ae1293f146103005780638456cb5914610330576101a9565b8063461a44781461026e5780634ecf518b1461029e578063517b0dc1146102bc576101a9565b806304ac7468146101ae5780631c00464e146101ca578063299ca478146101e65780632cd4300c146102045780633c975edb1461022257806341cfc0541461023e575b600080fd5b6101c860048036038101906101c39190612726565b610556565b005b6101e460048036038101906101df9190612778565b6106c4565b005b6101ee610922565b6040516101fb9190612dea565b60405180910390f35b61020c610948565b604051610219919061307d565b60405180910390f35b61023c600480360381019061023791906127b4565b610965565b005b610258600480360381019061025391906125ac565b610a63565b6040516102659190613062565b60405180910390f35b61028860048036038101906102839190612663565b610a96565b6040516102959190612d3d565b60405180910390f35b6102a6610b49565b6040516102b3919061307d565b60405180910390f35b6102d660048036038101906102d191906126a4565b610b4f565b005b6102e0611136565b6040516102ed9190612dcf565b60405180910390f35b6102fe61114d565b005b61031a600480360381019061031591906127f0565b611161565b6040516103279190612dcf565b60405180910390f35b6103386111d8565b005b6103426111ea565b60405161034f9190612d3d565b60405180910390f35b610372600480360381019061036d9190612726565b611214565b60405161037f9190612dcf565b60405180910390f35b6103a2600480360381019061039d91906125ac565b61126a565b6040516103af9190613062565b60405180910390f35b6103c06112d3565b6040516103cd919061307d565b60405180910390f35b6103f060048036038101906103eb91906127f0565b6112d9565b6040516103fd9190612dcf565b60405180910390f35b610420600480360381019061041b91906127f0565b6112f9565b60405161042d919061307d565b60405180910390f35b610450600480360381019061044b91906126e5565b611311565b60405161045d9190612dcf565b60405180910390f35b61046e61181f565b005b61048a60048036038101906104859190612726565b611831565b6040516104979190612d3d565b60405180910390f35b6104ba60048036038101906104b591906125fe565b611864565b005b6104c4611a73565b6040516104d1919061307d565b60405180910390f35b6104f460048036038101906104ef9190612726565b611a79565b6040516105019190612dcf565b60405180910390f35b610524600480360381019061051f9190612726565b611a99565b6040516105319190612d3d565b60405180910390f35b610554600480360381019061054f91906125ac565b611b02565b005b61055e611b86565b600060ce60008373ffffffffffffffffffffffffffffffffffffffff1673ffffffffffffffffffffffffffffffffffffffff16815260200190815260200160002060009054906101000a900473ffffffffffffffffffffffffffffffffffffffff169050600060ce60008473ffffffffffffffffffffffffffffffffffffffff1673ffffffffffffffffffffffffffffffffffffffff16815260200190815260200160002060006101000a81548173ffffffffffffffffffffffffffffffffffffffff021916908373ffffffffffffffffffffffffffffffffffffffff160217905550600060cf60008373ffffffffffffffffffffffffffffffffffffffff1673ffffffffffffffffffffffffffffffffffffffff16815260200190815260200160002060006101000a81548173ffffffffffffffffffffffffffffffffffffffff021916908373ffffffffffffffffffffffffffffffffffffffff1602179055505050565b6106cc611c04565b6106d4611b86565b600073ffffffffffffffffffffffffffffffffffffffff1660ce60008473ffffffffffffffffffffffffffffffffffffffff1673ffffffffffffffffffffffffffffffffffffffff16815260200190815260200160002060009054906101000a900473ffffffffffffffffffffffffffffffffffffffff1673ffffffffffffffffffffffffffffffffffffffff1614806107e35750600060cf60008373ffffffffffffffffffffffffffffffffffffffff1673ffffffffffffffffffffffffffffffffffffffff16815260200190815260200160002060009054906101000a900473ffffffffffffffffffffffffffffffffffffffff1673ffffffffffffffffffffffffffffffffffffffff16145b610822576040517f08c379a000000000000000000000000000000000000000000000000000000000815260040161081990613042565b60405180910390fd5b8060ce60008473ffffffffffffffffffffffffffffffffffffffff1673ffffffffffffffffffffffffffffffffffffffff16815260200190815260200160002060006101000a81548173ffffffffffffffffffffffffffffffffffffffff021916908373ffffffffffffffffffffffffffffffffffffffff1602179055508160cf60008373ffffffffffffffffffffffffffffffffffffffff1673ffffffffffffffffffffffffffffffffffffffff16815260200190815260200160002060006101000a81548173ffffffffffffffffffffffffffffffffffffffff021916908373ffffffffffffffffffffffffffffffffffffffff1602179055505050565b600060029054906101000a900473ffffffffffffffffffffffffffffffffffffffff1681565b600060046000600354815260200190815260200160002054905090565b61096d611c04565b610975611b86565b80151560cd60008473ffffffffffffffffffffffffffffffffffffffff1673ffffffffffffffffffffffffffffffffffffffff16815260200190815260200160002060009054906101000a900460ff1615151415610a08576040517f08c379a00000000000000000000000000000000000000000000000000000000081526004016109ff90612e62565b60405180910390fd5b8060cd60008473ffffffffffffffffffffffffffffffffffffffff1673ffffffffffffffffffffffffffffffffffffffff16815260200190815260200160002060006101000a81548160ff0219169083151502179055505050565b60cf6020528060005260406000206000915054906101000a900473ffffffffffffffffffffffffffffffffffffffff1681565b60008060029054906101000a900473ffffffffffffffffffffffffffffffffffffffff1673ffffffffffffffffffffffffffffffffffffffff1663bf40fac1836040518263ffffffff1660e01b8152600401610af29190612e20565b60206040518083038186803b158015610b0a57600080fd5b505afa158015610b1e573d6000803e3d6000fd5b505050506040513d601f19601f82011682018060405250810190610b4291906125d5565b9050919050565b60025481565b600073ffffffffffffffffffffffffffffffffffffffff1660ce60008360e0015173ffffffffffffffffffffffffffffffffffffffff1673ffffffffffffffffffffffffffffffffffffffff16815260200190815260200160002060009054906101000a900473ffffffffffffffffffffffffffffffffffffffff1673ffffffffffffffffffffffffffffffffffffffff161415610c22576040517f08c379a0000000000000000000000000000000000000000000000000000000008152600401610c1990612fa2565b60405180910390fd5b3073ffffffffffffffffffffffffffffffffffffffff16816080015173ffffffffffffffffffffffffffffffffffffffff1614610c94576040517f08c379a0000000000000000000000000000000000000000000000000000000008152600401610c8b90612ec2565b60405180910390fd5b610ca2816101000151611161565b610ce1576040517f08c379a0000000000000000000000000000000000000000000000000000000008152600401610cd890612f82565b60405180910390fd5b6000816000015190506000826020015190506000836040015190506000846060015190506000600567ffffffffffffffff811115610d48577f4e487b7100000000000000000000000000000000000000000000000000000000600052604160045260246000fd5b604051908082528060200260200182016040528015610d765781602001602082028036833780820191505090505b509050856080015173ffffffffffffffffffffffffffffffffffffffff1681600081518110610dce577f4e487b7100000000000000000000000000000000000000000000000000000000600052603260045260246000fd5b6020026020010181815250508560a0015173ffffffffffffffffffffffffffffffffffffffff1681600181518110610e2f577f4e487b7100000000000000000000000000000000000000000000000000000000600052603260045260246000fd5b6020026020010181815250508560c0015181600281518110610e7a577f4e487b7100000000000000000000000000000000000000000000000000000000600052603260045260246000fd5b6020026020010181815250508560e0015173ffffffffffffffffffffffffffffffffffffffff1681600381518110610edb577f4e487b7100000000000000000000000000000000000000000000000000000000600052603260045260246000fd5b60200260200101818152505085610100015181600481518110610f27577f4e487b7100000000000000000000000000000000000000000000000000000000600052603260045260246000fd5b602002602001018181525050610f3c85610a96565b73ffffffffffffffffffffffffffffffffffffffff1663c32e370e858585856040518563ffffffff1660e01b8152600401610f7a9493929190612d81565b60206040518083038186803b158015610f9257600080fd5b505afa158015610fa6573d6000803e3d6000fd5b505050506040513d601f19601f82011682018060405250810190610fca919061263a565b611009576040517f08c379a000000000000000000000000000000000000000000000000000000000815260040161100090612fc2565b60405180910390fd5b60ce60008760e0015173ffffffffffffffffffffffffffffffffffffffff1673ffffffffffffffffffffffffffffffffffffffff16815260200190815260200160002060009054906101000a900473ffffffffffffffffffffffffffffffffffffffff1673ffffffffffffffffffffffffffffffffffffffff166340c10f198760a001518860c001516040518363ffffffff1660e01b81526004016110af929190612d58565b600060405180830381600087803b1580156110c957600080fd5b505af11580156110dd573d6000803e3d6000fd5b50505050806040516110ef9190612d26565b60405180910390207f4e7589f75d86eccc05b3d94910b69255d4a905f5381ec472e446718f2c46079442604051611126919061307d565b60405180910390a2505050505050565b6000606960009054906101000a900460ff16905090565b611155611b86565b61115f6000611c4e565b565b60008082141561117457600090506111d3565b6000600354905060008190505b60046000828152602001908152602001600020548414156111a7576001925050506111d3565b60008114156111b65760015490505b80806111c190613332565b91505081811415611181576000925050505b919050565b6111e0611b86565b6111e8611d14565b565b6000603760009054906101000a900473ffffffffffffffffffffffffffffffffffffffff16905090565b600060cd60008373ffffffffffffffffffffffffffffffffffffffff1673ffffffffffffffffffffffffffffffffffffffff16815260200190815260200160002060009054906101000a900460ff169050919050565b600060cf60008373ffffffffffffffffffffffffffffffffffffffff1673ffffffffffffffffffffffffffffffffffffffff16815260200190815260200160002060009054906101000a900473ffffffffffffffffffffffffffffffffffffffff169050919050565b60035481565b60d06020528060005260406000206000915054906101000a900460ff1681565b60046020528060005260406000206000915090505481565b600061131b611c04565b60cd60008360a0015173ffffffffffffffffffffffffffffffffffffffff1673ffffffffffffffffffffffffffffffffffffffff16815260200190815260200160002060009054906101000a900460ff166113ab576040517f08c379a00000000000000000000000000000000000000000000000000000000081526004016113a290612f42565b60405180910390fd5b6113e96040518060400160405280601381526020017f434f534d4f535f424c4f434b5f48454144455200000000000000000000000000815250610a96565b73ffffffffffffffffffffffffffffffffffffffff16636096ade06040518163ffffffff1660e01b815260040160206040518083038186803b15801561142e57600080fd5b505afa158015611442573d6000803e3d6000fd5b505050506040513d601f19601f82011682018060405250810190611466919061274f565b73ffffffffffffffffffffffffffffffffffffffff168260e0015173ffffffffffffffffffffffffffffffffffffffff16146114d7576040517f08c379a00000000000000000000000000000000000000000000000000000000081526004016114ce90612ea2565b60405180910390fd5b6000826000015190506000836020015190506000846040015190506000856060015190506000600467ffffffffffffffff81111561153e577f4e487b7100000000000000000000000000000000000000000000000000000000600052604160045260246000fd5b60405190808252806020026020018201604052801561156c5781602001602082028036833780820191505090505b509050866080015173ffffffffffffffffffffffffffffffffffffffff16816000815181106115c4577f4e487b7100000000000000000000000000000000000000000000000000000000600052603260045260246000fd5b6020026020010181815250508660a0015173ffffffffffffffffffffffffffffffffffffffff1681600181518110611625577f4e487b7100000000000000000000000000000000000000000000000000000000600052603260045260246000fd5b6020026020010181815250508660c0015181600281518110611670577f4e487b7100000000000000000000000000000000000000000000000000000000600052603260045260246000fd5b6020026020010181815250508660e0015173ffffffffffffffffffffffffffffffffffffffff16816003815181106116d1577f4e487b7100000000000000000000000000000000000000000000000000000000600052603260045260246000fd5b6020026020010181815250506116e685610a96565b73ffffffffffffffffffffffffffffffffffffffff1663c32e370e858585856040518563ffffffff1660e01b81526004016117249493929190612d81565b60206040518083038186803b15801561173c57600080fd5b505afa158015611750573d6000803e3d6000fd5b505050506040513d601f19601f82011682018060405250810190611774919061263a565b6117b3576040517f08c379a00000000000000000000000000000000000000000000000000000000081526004016117aa90612fc2565b60405180910390fd5b60006117c28860c00151611d77565b9050816040516117d29190612d26565b60405180910390207fb863fd571fb24a5c7ec2e5259d558b03685336f31dcbf081507d6c4254bed30542604051611809919061307d565b60405180910390a2809650505050505050919050565b611827611b86565b61182f611dc3565b565b60ce6020528060005260406000206000915054906101000a900473ffffffffffffffffffffffffffffffffffffffff1681565b60008060019054906101000a900460ff161590508080156118955750600160008054906101000a900460ff1660ff16105b806118c257506118a430611e26565b1580156118c15750600160008054906101000a900460ff1660ff16145b5b611901576040517f08c379a00000000000000000000000000000000000000000000000000000000081526004016118f890612f22565b60405180910390fd5b60016000806101000a81548160ff021916908360ff160217905550801561193e576001600060016101000a81548160ff0219169083151502179055505b600060025414801561199e5750600073ffffffffffffffffffffffffffffffffffffffff16600060029054906101000a900473ffffffffffffffffffffffffffffffffffffffff1673ffffffffffffffffffffffffffffffffffffffff16145b6119dd576040517f08c379a00000000000000000000000000000000000000000000000000000000081526004016119d490612ee2565b60405180910390fd5b6119e683611e49565b6119f58263ffffffff16611edc565b6119fd611fe6565b611a05612037565b611a0d612098565b611a15612104565b8015611a6e5760008060016101000a81548160ff0219169083151502179055507f7f26b83ff96e1f2b6a682f133852f6798a09c465da95921460cefb38474024986001604051611a659190612e05565b60405180910390a15b505050565b60015481565b60cd6020528060005260406000206000915054906101000a900460ff1681565b600060ce60008373ffffffffffffffffffffffffffffffffffffffff1673ffffffffffffffffffffffffffffffffffffffff16815260200190815260200160002060009054906101000a900473ffffffffffffffffffffffffffffffffffffffff169050919050565b611b0a611b86565b600073ffffffffffffffffffffffffffffffffffffffff168173ffffffffffffffffffffffffffffffffffffffff161415611b7a576040517f08c379a0000000000000000000000000000000000000000000000000000000008152600401611b7190612e82565b60405180910390fd5b611b8381611c4e565b50565b611b8e61215d565b73ffffffffffffffffffffffffffffffffffffffff16611bac6111ea565b73ffffffffffffffffffffffffffffffffffffffff1614611c02576040517f08c379a0000000000000000000000000000000000000000000000000000000008152600401611bf990612f62565b60405180910390fd5b565b611c0c611136565b15611c4c576040517f08c379a0000000000000000000000000000000000000000000000000000000008152600401611c4390612f02565b60405180910390fd5b565b6000603760009054906101000a900473ffffffffffffffffffffffffffffffffffffffff16905081603760006101000a81548173ffffffffffffffffffffffffffffffffffffffff021916908373ffffffffffffffffffffffffffffffffffffffff1602179055508173ffffffffffffffffffffffffffffffffffffffff168173ffffffffffffffffffffffffffffffffffffffff167f8be0079c531659141344cd1fd0a4f28419497f9722a3daafe3b4186f6b6457e060405160405180910390a35050565b611d1c611c04565b6001606960006101000a81548160ff0219169083151502179055507f62e78cea01bee320cd4e420270b5ea74000d11b0c9f74754ebdbfc544b05a258611d6061215d565b604051611d6d9190612d3d565b60405180910390a1565b6000806001546001600354611d8c91906131ff565b611d96919061338d565b90508060038190555082600460006003548152602001908152602001600020819055506001915050919050565b611dcb612165565b6000606960006101000a81548160ff0219169083151502179055507f5db9ee0a495bf2e6ff9c91a7834c1ba4fdd244a5e8aa4e537bd38aeae4b073aa611e0f61215d565b604051611e1c9190612d3d565b60405180910390a1565b6000808273ffffffffffffffffffffffffffffffffffffffff163b119050919050565b600060019054906101000a900460ff16611e98576040517f08c379a0000000000000000000000000000000000000000000000000000000008152600401611e8f90612fe2565b60405180910390fd5b80600060026101000a81548173ffffffffffffffffffffffffffffffffffffffff021916908373ffffffffffffffffffffffffffffffffffffffff16021790555050565b600060019054906101000a900460ff16611f2b576040517f08c379a0000000000000000000000000000000000000000000000000000000008152600401611f2290612fe2565b60405180910390fd5b60008111611f6e576040517f08c379a0000000000000000000000000000000000000000000000000000000008152600401611f6590613022565b60405180910390fd5b60288110611fb1576040517f08c379a0000000000000000000000000000000000000000000000000000000008152600401611fa890613002565b60405180910390fd5b80600281905550600a600181905550600060038190555060006004600060035481526020019081526020016000208190555050565b600060019054906101000a900460ff16612035576040517f08c379a000000000000000000000000000000000000000000000000000000000815260040161202c90612fe2565b60405180910390fd5b565b600060019054906101000a900460ff16612086576040517f08c379a000000000000000000000000000000000000000000000000000000000815260040161207d90612fe2565b60405180910390fd5b61209661209161215d565b611c4e565b565b600060019054906101000a900460ff166120e7576040517f08c379a00000000000000000000000000000000000000000000000000000000081526004016120de90612fe2565b60405180910390fd5b6000606960006101000a81548160ff021916908315150217905550565b600060019054906101000a900460ff16612153576040517f08c379a000000000000000000000000000000000000000000000000000000000815260040161214a90612fe2565b60405180910390fd5b6001609b81905550565b600033905090565b61216d611136565b6121ac576040517f08c379a00000000000000000000000000000000000000000000000000000000081526004016121a390612e42565b60405180910390fd5b565b60006121c16121bc846130bd565b613098565b905080828560408602820111156121d757600080fd5b60005b8581101561220757816121ed8882612303565b8452602084019350604083019250506001810190506121da565b5050509392505050565b600061222461221f846130e3565b613098565b9050808285602086028201111561223a57600080fd5b60005b8581101561226a57816122508882612582565b84526020840193506020830192505060018101905061223d565b5050509392505050565b600061228761228284613109565b613098565b90508281526020810184848401111561229f57600080fd5b6122aa8482856132f0565b509392505050565b6000813590506122c1816137d3565b92915050565b6000815190506122d6816137d3565b92915050565b600082601f8301126122ed57600080fd5b60026122fa8482856121ae565b91505092915050565b600082601f83011261231457600080fd5b6002612321848285612211565b91505092915050565b600081359050612339816137ea565b92915050565b60008151905061234e816137ea565b92915050565b600082601f83011261236557600080fd5b8135612375848260208601612274565b91505092915050565b60006101c0828403121561239157600080fd5b61239c610120613098565b9050600082013567ffffffffffffffff8111156123b857600080fd5b6123c484828501612354565b60008301525060206123d884828501612303565b60208301525060606123ec848285016122dc565b60408301525060e061240084828501612303565b606083015250610120612415848285016122b2565b60808301525061014061242a848285016122b2565b60a08301525061016061243f84828501612582565b60c08301525061018061245484828501612558565b60e0830152506101a061246984828501612582565b6101008301525092915050565b60006101a0828403121561248957600080fd5b612494610100613098565b9050600082013567ffffffffffffffff8111156124b057600080fd5b6124bc84828501612354565b60008301525060206124d084828501612303565b60208301525060606124e4848285016122dc565b60408301525060e06124f884828501612303565b60608301525061012061250d84828501612558565b60808301525061014061252284828501612558565b60a08301525061016061253784828501612582565b60c08301525061018061254c84828501612558565b60e08301525092915050565b60008135905061256781613801565b92915050565b60008151905061257c81613801565b92915050565b60008135905061259181613818565b92915050565b6000813590506125a68161382f565b92915050565b6000602082840312156125be57600080fd5b60006125cc848285016122b2565b91505092915050565b6000602082840312156125e757600080fd5b60006125f5848285016122c7565b91505092915050565b6000806040838503121561261157600080fd5b600061261f858286016122b2565b925050602061263085828601612597565b9150509250929050565b60006020828403121561264c57600080fd5b600061265a8482850161233f565b91505092915050565b60006020828403121561267557600080fd5b600082013567ffffffffffffffff81111561268f57600080fd5b61269b84828501612354565b91505092915050565b6000602082840312156126b657600080fd5b600082013567ffffffffffffffff8111156126d057600080fd5b6126dc8482850161237e565b91505092915050565b6000602082840312156126f757600080fd5b600082013567ffffffffffffffff81111561271157600080fd5b61271d84828501612476565b91505092915050565b60006020828403121561273857600080fd5b600061274684828501612558565b91505092915050565b60006020828403121561276157600080fd5b600061276f8482850161256d565b91505092915050565b6000806040838503121561278b57600080fd5b600061279985828601612558565b92505060206127aa858286016122b2565b9150509250929050565b600080604083850312156127c757600080fd5b60006127d585828601612558565b92505060206127e68582860161232a565b9150509250929050565b60006020828403121561280257600080fd5b600061281084828501612582565b91505092915050565b600061282583836128c7565b60408301905092915050565b600061283d8383612cf9565b60208301905092915050565b60006128558383612d17565b60208301905092915050565b61286a81613255565b82525050565b6128798161315e565b61288381846131b1565b925061288e8261313a565b8060005b838110156128bf5781516128a68782612819565b96506128b18361318a565b925050600181019050612892565b505050505050565b6128d081613169565b6128da81846131bc565b92506128e582613144565b8060005b838110156129165781516128fd8782612831565b965061290883613197565b9250506001810190506128e9565b505050505050565b61292781613169565b61293181846131c7565b925061293c82613144565b8060005b8381101561296d5781516129548782612831565b965061295f83613197565b925050600181019050612940565b505050505050565b600061298082613174565b61298a81856131d2565b93506129958361314e565b8060005b838110156129c65781516129ad8882612831565b97506129b8836131a4565b925050600181019050612999565b5085935050505092915050565b60006129de82613174565b6129e881856131e3565b93506129f38361314e565b8060005b83811015612a24578151612a0b8882612849565b9750612a16836131a4565b9250506001810190506129f7565b5085935050505092915050565b612a3a81613267565b82525050565b612a49816132ba565b82525050565b612a58816132de565b82525050565b6000612a698261317f565b612a7381856131ee565b9350612a838185602086016132ff565b612a8c8161344b565b840191505092915050565b6000612aa46014836131ee565b9150612aaf8261345c565b602082019050919050565b6000612ac7601c836131ee565b9150612ad282613485565b602082019050919050565b6000612aea6026836131ee565b9150612af5826134ae565b604082019050919050565b6000612b0d6015836131ee565b9150612b18826134fd565b602082019050919050565b6000612b30602c836131ee565b9150612b3b82613526565b604082019050919050565b6000612b53601d836131ee565b9150612b5e82613575565b602082019050919050565b6000612b766010836131ee565b9150612b818261359e565b602082019050919050565b6000612b99602e836131ee565b9150612ba4826135c7565b604082019050919050565b6000612bbc601a836131ee565b9150612bc782613616565b602082019050919050565b6000612bdf6020836131ee565b9150612bea8261363f565b602082019050919050565b6000612c026017836131ee565b9150612c0d82613668565b602082019050919050565b6000612c256016836131ee565b9150612c3082613691565b602082019050919050565b6000612c486019836131ee565b9150612c53826136ba565b602082019050919050565b6000612c6b602b836131ee565b9150612c76826136e3565b604082019050919050565b6000612c8e601e836131ee565b9150612c9982613732565b602082019050919050565b6000612cb16023836131ee565b9150612cbc8261375b565b604082019050919050565b6000612cd46015836131ee565b9150612cdf826137aa565b602082019050919050565b612cf381613273565b82525050565b612d0281613293565b82525050565b612d1181613293565b82525050565b612d2081613293565b82525050565b6000612d3282846129d3565b915081905092915050565b6000602082019050612d526000830184612861565b92915050565b6000604082019050612d6d6000830185612861565b612d7a6020830184612d08565b9392505050565b600061012082019050612d97600083018761291e565b612da46040830186612870565b612db160c083018561291e565b818103610100830152612dc48184612975565b905095945050505050565b6000602082019050612de46000830184612a31565b92915050565b6000602082019050612dff6000830184612a40565b92915050565b6000602082019050612e1a6000830184612a4f565b92915050565b60006020820190508181036000830152612e3a8184612a5e565b905092915050565b60006020820190508181036000830152612e5b81612a97565b9050919050565b60006020820190508181036000830152612e7b81612aba565b9050919050565b60006020820190508181036000830152612e9b81612add565b9050919050565b60006020820190508181036000830152612ebb81612b00565b9050919050565b60006020820190508181036000830152612edb81612b23565b9050919050565b60006020820190508181036000830152612efb81612b46565b9050919050565b60006020820190508181036000830152612f1b81612b69565b9050919050565b60006020820190508181036000830152612f3b81612b8c565b9050919050565b60006020820190508181036000830152612f5b81612baf565b9050919050565b60006020820190508181036000830152612f7b81612bd2565b9050919050565b60006020820190508181036000830152612f9b81612bf5565b9050919050565b60006020820190508181036000830152612fbb81612c18565b9050919050565b60006020820190508181036000830152612fdb81612c3b565b9050919050565b60006020820190508181036000830152612ffb81612c5e565b9050919050565b6000602082019050818103600083015261301b81612c81565b9050919050565b6000602082019050818103600083015261303b81612ca4565b9050919050565b6000602082019050818103600083015261305b81612cc7565b9050919050565b60006020820190506130776000830184612cea565b92915050565b60006020820190506130926000830184612d08565b92915050565b60006130a26130b3565b90506130ae828261335c565b919050565b6000604051905090565b600067ffffffffffffffff8211156130d8576130d761341c565b5b602082029050919050565b600067ffffffffffffffff8211156130fe576130fd61341c565b5b602082029050919050565b600067ffffffffffffffff8211156131245761312361341c565b5b61312d8261344b565b9050602081019050919050565b6000819050919050565b6000819050919050565b6000819050602082019050919050565b600060029050919050565b600060029050919050565b600081519050919050565b600081519050919050565b6000602082019050919050565b6000602082019050919050565b6000602082019050919050565b600081905092915050565b600081905092915050565b600081905092915050565b600082825260208201905092915050565b600081905092915050565b600082825260208201905092915050565b600061320a82613293565b915061321583613293565b9250827fffffffffffffffffffffffffffffffffffffffffffffffffffffffffffffffff0382111561324a576132496133be565b5b828201905092915050565b600061326082613273565b9050919050565b60008115159050919050565b600073ffffffffffffffffffffffffffffffffffffffff82169050919050565b6000819050919050565b600063ffffffff82169050919050565b600060ff82169050919050565b60006132c5826132cc565b9050919050565b60006132d782613273565b9050919050565b60006132e9826132ad565b9050919050565b82818337600083830152505050565b60005b8381101561331d578082015181840152602081019050613302565b8381111561332c576000848401525b50505050565b600061333d82613293565b91506000821415613351576133506133be565b5b600182039050919050565b6133658261344b565b810181811067ffffffffffffffff821117156133845761338361341c565b5b80604052505050565b600061339882613293565b91506133a383613293565b9250826133b3576133b26133ed565b5b828206905092915050565b7f4e487b7100000000000000000000000000000000000000000000000000000000600052601160045260246000fd5b7f4e487b7100000000000000000000000000000000000000000000000000000000600052601260045260246000fd5b7f4e487b7100000000000000000000000000000000000000000000000000000000600052604160045260246000fd5b6000601f19601f8301169050919050565b7f5061757361626c653a206e6f7420706175736564000000000000000000000000600082015250565b7f636f736d6f73206272696467652077617320737570706f727465642100000000600082015250565b7f4f776e61626c653a206e6577206f776e657220697320746865207a65726f206160008201527f6464726573730000000000000000000000000000000000000000000000000000602082015250565b7f44617461206861736820697320696e76616c6964210000000000000000000000600082015250565b7f54686973206272696467652069736e277420737570706f727420666f7220636c60008201527f616d6d696e6720746f6b656e0000000000000000000000000000000000000000602082015250565b7f42726964676520697320616c726561647920696e697469616c697a6564000000600082015250565b7f5061757361626c653a2070617573656400000000000000000000000000000000600082015250565b7f496e697469616c697a61626c653a20636f6e747261637420697320616c72656160008201527f647920696e697469616c697a6564000000000000000000000000000000000000602082015250565b7f446f206e6f7420737570706f7274207468697320627269646765000000000000600082015250565b7f4f776e61626c653a2063616c6c6572206973206e6f7420746865206f776e6572600082015250565b7f4465706f73697420726f6f7420697320696e76616c6964000000000000000000600082015250565b7f4e6f7420737570706f7274207468697320746f6b656e00000000000000000000600082015250565b7f496e76616c6964206465706f736974526f6f742070726f6f6600000000000000600082015250565b7f496e697469616c697a61626c653a20636f6e7472616374206973206e6f74206960008201527f6e697469616c697a696e67000000000000000000000000000000000000000000602082015250565b7f5f6c6576656c732073686f756c64206265206c657373207468616e2034300000600082015250565b7f5f6c6576656c732073686f756c642062652067726561746572207468616e207a60008201527f65726f0000000000000000000000000000000000000000000000000000000000602082015250565b7f746f6b656e207761732072656769737465726564210000000000000000000000600082015250565b6137dc81613255565b81146137e757600080fd5b50565b6137f381613267565b81146137fe57600080fd5b50565b61380a81613273565b811461381557600080fd5b50565b61382181613293565b811461382c57600080fd5b50565b6138388161329d565b811461384357600080fd5b5056fea264697066735822122069dcadeea7710c10f5bdf3f817ae7c55757e7d80f88f148e4cf9a6840d61361464736f6c63430008040033",
  "linkReferences": {},
  "deployedLinkReferences": {}
}