{
  "_format": "hh-sol-artifact-1",
  "contractName": "OraisanBridge",
  "sourceName": "contracts/ethBridge/OraisanBridge.sol",
  "abi": [
    {
      "anonymous": false,
      "inputs": [
        {
          "indexed": true,
          "internalType": "uint256[]",
          "name": "inputs",
          "type": "uint256[]"
        },
        {
          "indexed": false,
          "internalType": "uint256",
          "name": "timestamp",
          "type": "uint256"
        }
      ],
      "name": "ClaimTransactionCompleted",
      "type": "event"
    },
    {
      "anonymous": false,
      "inputs": [
        {
          "indexed": false,
          "internalType": "uint8",
          "name": "version",
          "type": "uint8"
        }
      ],
      "name": "Initialized",
      "type": "event"
    },
    {
      "anonymous": false,
      "inputs": [
        {
          "indexed": true,
          "internalType": "address",
          "name": "previousOwner",
          "type": "address"
        },
        {
          "indexed": true,
          "internalType": "address",
          "name": "newOwner",
          "type": "address"
        }
      ],
      "name": "OwnershipTransferred",
      "type": "event"
    },
    {
      "anonymous": false,
      "inputs": [
        {
          "indexed": false,
          "internalType": "address",
          "name": "account",
          "type": "address"
        }
      ],
      "name": "Paused",
      "type": "event"
    },
    {
      "anonymous": false,
      "inputs": [
        {
          "indexed": false,
          "internalType": "address",
          "name": "account",
          "type": "address"
        }
      ],
      "name": "Unpaused",
      "type": "event"
    },
    {
      "anonymous": false,
      "inputs": [
        {
          "indexed": true,
          "internalType": "uint256[]",
          "name": "inputs",
          "type": "uint256[]"
        },
        {
          "indexed": false,
          "internalType": "uint256",
          "name": "timestamp",
          "type": "uint256"
        }
      ],
      "name": "UpdateDepositRootCompleted",
      "type": "event"
    },
    {
      "inputs": [],
      "name": "ROOT_HISTORY_SIZE",
      "outputs": [
        {
          "internalType": "uint256",
          "name": "",
          "type": "uint256"
        }
      ],
      "stateMutability": "view",
      "type": "function"
    },
    {
      "inputs": [
        {
          "components": [
            {
              "internalType": "string",
              "name": "optionName",
              "type": "string"
            },
            {
              "internalType": "uint256[2]",
              "name": "pi_a",
              "type": "uint256[2]"
            },
            {
              "internalType": "uint256[2][2]",
              "name": "pi_b",
              "type": "uint256[2][2]"
            },
            {
              "internalType": "uint256[2]",
              "name": "pi_c",
              "type": "uint256[2]"
            },
            {
              "internalType": "address",
              "name": "eth_bridge_address",
              "type": "address"
            },
            {
              "internalType": "address",
              "name": "eth_receiver",
              "type": "address"
            },
            {
              "internalType": "uint256",
              "name": "amount",
              "type": "uint256"
            },
            {
              "internalType": "address",
              "name": "eth_token_address",
              "type": "address"
            },
            {
              "internalType": "uint256",
              "name": "key",
              "type": "uint256"
            },
            {
              "internalType": "uint256",
              "name": "depositRoot",
              "type": "uint256"
            }
          ],
          "internalType": "struct IVerifier.ClaimTransactionProof",
          "name": "_claimTransactionProof",
          "type": "tuple"
        }
      ],
      "name": "claimTransaction",
      "outputs": [],
      "stateMutability": "nonpayable",
      "type": "function"
    },
    {
      "inputs": [
        {
          "internalType": "uint160",
          "name": "",
          "type": "uint160"
        }
      ],
      "name": "cosmosToEthTokenAddress",
      "outputs": [
        {
          "internalType": "address",
          "name": "",
          "type": "address"
        }
      ],
      "stateMutability": "view",
      "type": "function"
    },
    {
      "inputs": [],
      "name": "currentDepositRoot",
      "outputs": [
        {
          "internalType": "uint256",
          "name": "",
          "type": "uint256"
        }
      ],
      "stateMutability": "view",
      "type": "function"
    },
    {
      "inputs": [
        {
          "internalType": "uint160",
          "name": "_cosmosTokenAddress",
          "type": "uint160"
        }
      ],
      "name": "deleteTokenPair",
      "outputs": [],
      "stateMutability": "nonpayable",
      "type": "function"
    },
    {
      "inputs": [
        {
          "internalType": "uint256",
          "name": "",
          "type": "uint256"
        }
      ],
      "name": "depositRoots",
      "outputs": [
        {
          "internalType": "uint256",
          "name": "",
          "type": "uint256"
        }
      ],
      "stateMutability": "view",
      "type": "function"
    },
    {
      "inputs": [
        {
          "internalType": "address",
          "name": "eth_bridge_address",
          "type": "address"
        },
        {
          "internalType": "address",
          "name": "eth_receiver",
          "type": "address"
        },
        {
          "internalType": "uint256",
          "name": "amount",
          "type": "uint256"
        },
        {
          "internalType": "address",
          "name": "eth_token_address",
          "type": "address"
        },
        {
          "internalType": "uint256",
          "name": "key",
          "type": "uint256"
        }
      ],
      "name": "encodeProof",
      "outputs": [
        {
          "internalType": "bytes",
          "name": "",
          "type": "bytes"
        }
      ],
      "stateMutability": "nonpayable",
      "type": "function"
    },
    {
      "inputs": [
        {
          "internalType": "address",
          "name": "",
          "type": "address"
        }
      ],
      "name": "ethToCosmosTokenAddress",
      "outputs": [
        {
          "internalType": "uint160",
          "name": "",
          "type": "uint160"
        }
      ],
      "stateMutability": "view",
      "type": "function"
    },
    {
      "inputs": [],
      "name": "getLastDepositRoot",
      "outputs": [
        {
          "internalType": "uint256",
          "name": "",
          "type": "uint256"
        }
      ],
      "stateMutability": "view",
      "type": "function"
    },
    {
      "inputs": [
        {
          "internalType": "uint160",
          "name": "_cosmosBridge",
          "type": "uint160"
        }
      ],
      "name": "getSupportCosmosBridge",
      "outputs": [
        {
          "internalType": "bool",
          "name": "",
          "type": "bool"
        }
      ],
      "stateMutability": "view",
      "type": "function"
    },
    {
      "inputs": [
        {
          "internalType": "uint160",
          "name": "_cosmosToken",
          "type": "uint160"
        }
      ],
      "name": "getTokenPairOfCosmosToken",
      "outputs": [
        {
          "internalType": "address",
          "name": "",
          "type": "address"
        }
      ],
      "stateMutability": "view",
      "type": "function"
    },
    {
      "inputs": [
        {
          "internalType": "address",
          "name": "_ethToken",
          "type": "address"
        }
      ],
      "name": "getTokenPairOfEthToken",
      "outputs": [
        {
          "internalType": "uint160",
          "name": "",
          "type": "uint160"
        }
      ],
      "stateMutability": "view",
      "type": "function"
    },
    {
      "inputs": [
        {
          "internalType": "address",
          "name": "_libAddressManager",
          "type": "address"
        },
        {
          "internalType": "uint32",
          "name": "_merkleTreeHeight",
          "type": "uint32"
        }
      ],
      "name": "initialize",
      "outputs": [],
      "stateMutability": "nonpayable",
      "type": "function"
    },
    {
      "inputs": [
        {
          "internalType": "uint256",
          "name": "",
          "type": "uint256"
        }
      ],
      "name": "isClaimed",
      "outputs": [
        {
          "internalType": "bool",
          "name": "",
          "type": "bool"
        }
      ],
      "stateMutability": "view",
      "type": "function"
    },
    {
      "inputs": [
        {
          "internalType": "uint256",
          "name": "_depositRoot",
          "type": "uint256"
        }
      ],
      "name": "isKnownDepostRoot",
      "outputs": [
        {
          "internalType": "bool",
          "name": "",
          "type": "bool"
        }
      ],
      "stateMutability": "view",
      "type": "function"
    },
    {
      "inputs": [
        {
          "internalType": "uint160",
          "name": "",
          "type": "uint160"
        }
      ],
      "name": "isSupportCosmosBridge",
      "outputs": [
        {
          "internalType": "bool",
          "name": "",
          "type": "bool"
        }
      ],
      "stateMutability": "view",
      "type": "function"
    },
    {
      "inputs": [],
      "name": "levels",
      "outputs": [
        {
          "internalType": "uint256",
          "name": "",
          "type": "uint256"
        }
      ],
      "stateMutability": "view",
      "type": "function"
    },
    {
      "inputs": [],
      "name": "libAddressManager",
      "outputs": [
        {
          "internalType": "contract Lib_AddressManager",
          "name": "",
          "type": "address"
        }
      ],
      "stateMutability": "view",
      "type": "function"
    },
    {
      "inputs": [],
      "name": "owner",
      "outputs": [
        {
          "internalType": "address",
          "name": "",
          "type": "address"
        }
      ],
      "stateMutability": "view",
      "type": "function"
    },
    {
      "inputs": [],
      "name": "pause",
      "outputs": [],
      "stateMutability": "nonpayable",
      "type": "function"
    },
    {
      "inputs": [],
      "name": "paused",
      "outputs": [
        {
          "internalType": "bool",
          "name": "",
          "type": "bool"
        }
      ],
      "stateMutability": "view",
      "type": "function"
    },
    {
      "inputs": [
        {
          "internalType": "uint160",
          "name": "_cosmosBridge",
          "type": "uint160"
        },
        {
          "internalType": "bool",
          "name": "_isSupport",
          "type": "bool"
        }
      ],
      "name": "registerCosmosBridge",
      "outputs": [],
      "stateMutability": "nonpayable",
      "type": "function"
    },
    {
      "inputs": [
        {
          "internalType": "uint160",
          "name": "_cosmosTokenAddress",
          "type": "uint160"
        },
        {
          "internalType": "address",
          "name": "_ethTokenAddress",
          "type": "address"
        }
      ],
      "name": "registerTokenPair",
      "outputs": [],
      "stateMutability": "nonpayable",
      "type": "function"
    },
    {
      "inputs": [],
      "name": "renounceOwnership",
      "outputs": [],
      "stateMutability": "nonpayable",
      "type": "function"
    },
    {
      "inputs": [
        {
          "internalType": "string",
          "name": "_name",
          "type": "string"
        }
      ],
      "name": "resolve",
      "outputs": [
        {
          "internalType": "address",
          "name": "",
          "type": "address"
        }
      ],
      "stateMutability": "view",
      "type": "function"
    },
    {
      "inputs": [
        {
          "internalType": "bytes32",
          "name": "",
          "type": "bytes32"
        }
      ],
      "name": "sentProof",
      "outputs": [
        {
          "internalType": "bool",
          "name": "",
          "type": "bool"
        }
      ],
      "stateMutability": "view",
      "type": "function"
    },
    {
      "inputs": [
        {
          "internalType": "address",
          "name": "newOwner",
          "type": "address"
        }
      ],
      "name": "transferOwnership",
      "outputs": [],
      "stateMutability": "nonpayable",
      "type": "function"
    },
    {
      "inputs": [],
      "name": "unpauseContract",
      "outputs": [],
      "stateMutability": "nonpayable",
      "type": "function"
    },
    {
      "inputs": [
        {
          "components": [
            {
              "internalType": "string",
              "name": "optionName",
              "type": "string"
            },
            {
              "internalType": "uint256[2]",
              "name": "pi_a",
              "type": "uint256[2]"
            },
            {
              "internalType": "uint256[2][2]",
              "name": "pi_b",
              "type": "uint256[2][2]"
            },
            {
              "internalType": "uint256[2]",
              "name": "pi_c",
              "type": "uint256[2]"
            },
            {
              "internalType": "uint160",
              "name": "cosmosSender",
              "type": "uint160"
            },
            {
              "internalType": "uint160",
              "name": "cosmosBridge",
              "type": "uint160"
            },
            {
              "internalType": "uint256",
              "name": "depositRoot",
              "type": "uint256"
            },
            {
              "internalType": "uint160",
              "name": "dataHash",
              "type": "uint160"
            }
          ],
          "internalType": "struct IVerifier.DepositRootProof",
          "name": "_depositRootProof",
          "type": "tuple"
        }
      ],
      "name": "updateRootDepositTree",
      "outputs": [
        {
          "internalType": "bool",
          "name": "",
          "type": "bool"
        }
      ],
      "stateMutability": "nonpayable",
      "type": "function"
    }
  ],
  "bytecode": "0x608060405234801561001057600080fd5b50613cad806100206000396000f3fe608060405234801561001057600080fd5b50600436106101cf5760003560e01c80638da5cb5b11610104578063b33712c5116100a2578063dcc4dcd211610071578063dcc4dcd214610530578063e80b885b14610560578063ec552d4214610590578063f2fde38b146105c0576101cf565b8063b33712c5146104bc578063bf60f954146104c6578063c5e4c9f9146104f6578063cd87a3b414610512576101cf565b80639df22cd5116100de5780639df22cd51461040e5780639e34070f1461042c5780639ef46d0f1461045c578063af00aa921461048c576101cf565b80638da5cb5b146103905780638e3327fa146103ae5780639139153f146103de576101cf565b80634ecf518b116101715780635e971c561161014b5780635e971c561461031c578063715018a61461034c5780637ae1293f146103565780638456cb5914610386576101cf565b80634ecf518b146102c45780635583804c146102e25780635c975abb146102fe576101cf565b80632cd4300c116101ad5780632cd4300c1461022a5780633c975edb1461024857806341cfc05414610264578063461a447814610294576101cf565b806304ac7468146101d45780631c00464e146101f0578063299ca4781461020c575b600080fd5b6101ee60048036038101906101e99190612965565b6105dc565b005b61020a600480360381019061020591906129b7565b61074a565b005b6102146109a8565b6040516102219190613134565b60405180910390f35b6102326109ce565b60405161023f91906133e7565b60405180910390f35b610262600480360381019061025d91906129f3565b6109eb565b005b61027e6004803603810190610279919061274b565b610ae9565b60405161028b91906133cc565b60405180910390f35b6102ae60048036038101906102a991906128a2565b610b1c565b6040516102bb9190613065565b60405180910390f35b6102cc610bcf565b6040516102d991906133e7565b60405180910390f35b6102fc60048036038101906102f791906128e3565b610bd5565b005b610306611255565b60405161031391906130f7565b60405180910390f35b61033660048036038101906103319190612879565b61126c565b60405161034391906130f7565b60405180910390f35b61035461128c565b005b610370600480360381019061036b9190612a2f565b6112a0565b60405161037d91906130f7565b60405180910390f35b61038e611317565b005b610398611329565b6040516103a59190613065565b60405180910390f35b6103c860048036038101906103c39190612965565b611353565b6040516103d591906130f7565b60405180910390f35b6103f860048036038101906103f3919061274b565b6113a9565b60405161040591906133cc565b60405180910390f35b610416611412565b60405161042391906133e7565b60405180910390f35b61044660048036038101906104419190612a2f565b611418565b60405161045391906130f7565b60405180910390f35b61047660048036038101906104719190612a2f565b611438565b60405161048391906133e7565b60405180910390f35b6104a660048036038101906104a19190612924565b611450565b6040516104b391906130f7565b60405180910390f35b6104c461195e565b005b6104e060048036038101906104db9190612965565b611970565b6040516104ed9190613065565b60405180910390f35b610510600480360381019061050b9190612814565b6119a3565b005b61051a611bb2565b60405161052791906133e7565b60405180910390f35b61054a60048036038101906105459190612965565b611bb8565b60405161055791906130f7565b60405180910390f35b61057a60048036038101906105759190612965565b611bd8565b6040516105879190613065565b60405180910390f35b6105aa60048036038101906105a5919061279d565b611c41565b6040516105b79190613112565b60405180910390f35b6105da60048036038101906105d5919061274b565b611c76565b005b6105e4611cfa565b600060ce60008373ffffffffffffffffffffffffffffffffffffffff1673ffffffffffffffffffffffffffffffffffffffff16815260200190815260200160002060009054906101000a900473ffffffffffffffffffffffffffffffffffffffff169050600060ce60008473ffffffffffffffffffffffffffffffffffffffff1673ffffffffffffffffffffffffffffffffffffffff16815260200190815260200160002060006101000a81548173ffffffffffffffffffffffffffffffffffffffff021916908373ffffffffffffffffffffffffffffffffffffffff160217905550600060cf60008373ffffffffffffffffffffffffffffffffffffffff1673ffffffffffffffffffffffffffffffffffffffff16815260200190815260200160002060006101000a81548173ffffffffffffffffffffffffffffffffffffffff021916908373ffffffffffffffffffffffffffffffffffffffff1602179055505050565b610752611d78565b61075a611cfa565b600073ffffffffffffffffffffffffffffffffffffffff1660ce60008473ffffffffffffffffffffffffffffffffffffffff1673ffffffffffffffffffffffffffffffffffffffff16815260200190815260200160002060009054906101000a900473ffffffffffffffffffffffffffffffffffffffff1673ffffffffffffffffffffffffffffffffffffffff1614806108695750600060cf60008373ffffffffffffffffffffffffffffffffffffffff1673ffffffffffffffffffffffffffffffffffffffff16815260200190815260200160002060009054906101000a900473ffffffffffffffffffffffffffffffffffffffff1673ffffffffffffffffffffffffffffffffffffffff16145b6108a8576040517f08c379a000000000000000000000000000000000000000000000000000000000815260040161089f906133ac565b60405180910390fd5b8060ce60008473ffffffffffffffffffffffffffffffffffffffff1673ffffffffffffffffffffffffffffffffffffffff16815260200190815260200160002060006101000a81548173ffffffffffffffffffffffffffffffffffffffff021916908373ffffffffffffffffffffffffffffffffffffffff1602179055508160cf60008373ffffffffffffffffffffffffffffffffffffffff1673ffffffffffffffffffffffffffffffffffffffff16815260200190815260200160002060006101000a81548173ffffffffffffffffffffffffffffffffffffffff021916908373ffffffffffffffffffffffffffffffffffffffff1602179055505050565b600060029054906101000a900473ffffffffffffffffffffffffffffffffffffffff1681565b600060046000600354815260200190815260200160002054905090565b6109f3611d78565b6109fb611cfa565b80151560cd60008473ffffffffffffffffffffffffffffffffffffffff1673ffffffffffffffffffffffffffffffffffffffff16815260200190815260200160002060009054906101000a900460ff1615151415610a8e576040517f08c379a0000000000000000000000000000000000000000000000000000000008152600401610a85906131ac565b60405180910390fd5b8060cd60008473ffffffffffffffffffffffffffffffffffffffff1673ffffffffffffffffffffffffffffffffffffffff16815260200190815260200160002060006101000a81548160ff0219169083151502179055505050565b60cf6020528060005260406000206000915054906101000a900473ffffffffffffffffffffffffffffffffffffffff1681565b60008060029054906101000a900473ffffffffffffffffffffffffffffffffffffffff1673ffffffffffffffffffffffffffffffffffffffff1663bf40fac1836040518263ffffffff1660e01b8152600401610b78919061316a565b60206040518083038186803b158015610b9057600080fd5b505afa158015610ba4573d6000803e3d6000fd5b505050506040513d601f19601f82011682018060405250810190610bc89190612774565b9050919050565b60025481565b600060cf60008360e0015173ffffffffffffffffffffffffffffffffffffffff1673ffffffffffffffffffffffffffffffffffffffff16815260200190815260200160002060009054906101000a900473ffffffffffffffffffffffffffffffffffffffff1673ffffffffffffffffffffffffffffffffffffffff161415610c92576040517f08c379a0000000000000000000000000000000000000000000000000000000008152600401610c899061330c565b60405180910390fd5b3073ffffffffffffffffffffffffffffffffffffffff16816080015173ffffffffffffffffffffffffffffffffffffffff1614610d04576040517f08c379a0000000000000000000000000000000000000000000000000000000008152600401610cfb9061320c565b60405180910390fd5b610d128161012001516112a0565b610d51576040517f08c379a0000000000000000000000000000000000000000000000000000000008152600401610d48906132cc565b60405180910390fd5b6000610d7582608001518360a001518460c001518560e00151866101000151611c41565b905060d160008280519060200120815260200190815260200160002060009054906101000a900460ff1615610ddf576040517f08c379a0000000000000000000000000000000000000000000000000000000008152600401610dd6906132ec565b60405180910390fd5b600160d160008380519060200120815260200190815260200160002060006101000a81548160ff0219169083151502179055506000826000015190506000836020015190506000846040015190506000856060015190506000600667ffffffffffffffff811115610e79577f4e487b7100000000000000000000000000000000000000000000000000000000600052604160045260246000fd5b604051908082528060200260200182016040528015610ea75781602001602082028036833780820191505090505b509050866080015173ffffffffffffffffffffffffffffffffffffffff1681600081518110610eff577f4e487b7100000000000000000000000000000000000000000000000000000000600052603260045260246000fd5b6020026020010181815250508660a0015173ffffffffffffffffffffffffffffffffffffffff1681600181518110610f60577f4e487b7100000000000000000000000000000000000000000000000000000000600052603260045260246000fd5b6020026020010181815250508660c0015181600281518110610fab577f4e487b7100000000000000000000000000000000000000000000000000000000600052603260045260246000fd5b6020026020010181815250508660e0015173ffffffffffffffffffffffffffffffffffffffff168160038151811061100c577f4e487b7100000000000000000000000000000000000000000000000000000000600052603260045260246000fd5b60200260200101818152505086610100015181600481518110611058577f4e487b7100000000000000000000000000000000000000000000000000000000600052603260045260246000fd5b602002602001018181525050866101200151816005815181106110a4577f4e487b7100000000000000000000000000000000000000000000000000000000600052603260045260246000fd5b6020026020010181815250506110b985610b1c565b73ffffffffffffffffffffffffffffffffffffffff1663c32e370e858585856040518563ffffffff1660e01b81526004016110f794939291906130a9565b60206040518083038186803b15801561110f57600080fd5b505afa158015611123573d6000803e3d6000fd5b505050506040513d601f19601f820116820180604052508101906111479190612850565b611186576040517f08c379a000000000000000000000000000000000000000000000000000000000815260040161117d9061332c565b60405180910390fd5b8660e0015173ffffffffffffffffffffffffffffffffffffffff166340c10f198860a001518960c001516040518363ffffffff1660e01b81526004016111cd929190613080565b600060405180830381600087803b1580156111e757600080fd5b505af11580156111fb573d6000803e3d6000fd5b505050508060405161120d919061304e565b60405180910390207f4e7589f75d86eccc05b3d94910b69255d4a905f5381ec472e446718f2c4607944260405161124491906133e7565b60405180910390a250505050505050565b6000606960009054906101000a900460ff16905090565b60d16020528060005260406000206000915054906101000a900460ff1681565b611294611cfa565b61129e6000611dc2565b565b6000808214156112b35760009050611312565b6000600354905060008190505b60046000828152602001908152602001600020548414156112e657600192505050611312565b60008114156112f55760015490505b8080611300906136c2565b915050818114156112c0576000925050505b919050565b61131f611cfa565b611327611e88565b565b6000603760009054906101000a900473ffffffffffffffffffffffffffffffffffffffff16905090565b600060cd60008373ffffffffffffffffffffffffffffffffffffffff1673ffffffffffffffffffffffffffffffffffffffff16815260200190815260200160002060009054906101000a900460ff169050919050565b600060cf60008373ffffffffffffffffffffffffffffffffffffffff1673ffffffffffffffffffffffffffffffffffffffff16815260200190815260200160002060009054906101000a900473ffffffffffffffffffffffffffffffffffffffff169050919050565b60035481565b60d06020528060005260406000206000915054906101000a900460ff1681565b60046020528060005260406000206000915090505481565b600061145a611d78565b60cd60008360a0015173ffffffffffffffffffffffffffffffffffffffff1673ffffffffffffffffffffffffffffffffffffffff16815260200190815260200160002060009054906101000a900460ff166114ea576040517f08c379a00000000000000000000000000000000000000000000000000000000081526004016114e19061328c565b60405180910390fd5b6115286040518060400160405280601381526020017f434f534d4f535f424c4f434b5f48454144455200000000000000000000000000815250610b1c565b73ffffffffffffffffffffffffffffffffffffffff16636096ade06040518163ffffffff1660e01b815260040160206040518083038186803b15801561156d57600080fd5b505afa158015611581573d6000803e3d6000fd5b505050506040513d601f19601f820116820180604052508101906115a5919061298e565b73ffffffffffffffffffffffffffffffffffffffff168260e0015173ffffffffffffffffffffffffffffffffffffffff1614611616576040517f08c379a000000000000000000000000000000000000000000000000000000000815260040161160d906131ec565b60405180910390fd5b6000826000015190506000836020015190506000846040015190506000856060015190506000600467ffffffffffffffff81111561167d577f4e487b7100000000000000000000000000000000000000000000000000000000600052604160045260246000fd5b6040519080825280602002602001820160405280156116ab5781602001602082028036833780820191505090505b509050866080015173ffffffffffffffffffffffffffffffffffffffff1681600081518110611703577f4e487b7100000000000000000000000000000000000000000000000000000000600052603260045260246000fd5b6020026020010181815250508660a0015173ffffffffffffffffffffffffffffffffffffffff1681600181518110611764577f4e487b7100000000000000000000000000000000000000000000000000000000600052603260045260246000fd5b6020026020010181815250508660c00151816002815181106117af577f4e487b7100000000000000000000000000000000000000000000000000000000600052603260045260246000fd5b6020026020010181815250508660e0015173ffffffffffffffffffffffffffffffffffffffff1681600381518110611810577f4e487b7100000000000000000000000000000000000000000000000000000000600052603260045260246000fd5b60200260200101818152505061182585610b1c565b73ffffffffffffffffffffffffffffffffffffffff1663c32e370e858585856040518563ffffffff1660e01b815260040161186394939291906130a9565b60206040518083038186803b15801561187b57600080fd5b505afa15801561188f573d6000803e3d6000fd5b505050506040513d601f19601f820116820180604052508101906118b39190612850565b6118f2576040517f08c379a00000000000000000000000000000000000000000000000000000000081526004016118e99061332c565b60405180910390fd5b60006119018860c00151611eeb565b905081604051611911919061304e565b60405180910390207fb863fd571fb24a5c7ec2e5259d558b03685336f31dcbf081507d6c4254bed3054260405161194891906133e7565b60405180910390a2809650505050505050919050565b611966611cfa565b61196e611f37565b565b60ce6020528060005260406000206000915054906101000a900473ffffffffffffffffffffffffffffffffffffffff1681565b60008060019054906101000a900460ff161590508080156119d45750600160008054906101000a900460ff1660ff16105b80611a0157506119e330611f9a565b158015611a005750600160008054906101000a900460ff1660ff16145b5b611a40576040517f08c379a0000000000000000000000000000000000000000000000000000000008152600401611a379061326c565b60405180910390fd5b60016000806101000a81548160ff021916908360ff1602179055508015611a7d576001600060016101000a81548160ff0219169083151502179055505b6000600254148015611add5750600073ffffffffffffffffffffffffffffffffffffffff16600060029054906101000a900473ffffffffffffffffffffffffffffffffffffffff1673ffffffffffffffffffffffffffffffffffffffff16145b611b1c576040517f08c379a0000000000000000000000000000000000000000000000000000000008152600401611b139061322c565b60405180910390fd5b611b2583611fbd565b611b348263ffffffff16612050565b611b3c61215a565b611b446121ab565b611b4c61220c565b611b54612278565b8015611bad5760008060016101000a81548160ff0219169083151502179055507f7f26b83ff96e1f2b6a682f133852f6798a09c465da95921460cefb38474024986001604051611ba4919061314f565b60405180910390a15b505050565b60015481565b60cd6020528060005260406000206000915054906101000a900460ff1681565b600060ce60008373ffffffffffffffffffffffffffffffffffffffff1673ffffffffffffffffffffffffffffffffffffffff16815260200190815260200160002060009054906101000a900473ffffffffffffffffffffffffffffffffffffffff169050919050565b60608585858585604051602001611c5c959493929190612fef565b604051602081830303815290604052905095945050505050565b611c7e611cfa565b600073ffffffffffffffffffffffffffffffffffffffff168173ffffffffffffffffffffffffffffffffffffffff161415611cee576040517f08c379a0000000000000000000000000000000000000000000000000000000008152600401611ce5906131cc565b60405180910390fd5b611cf781611dc2565b50565b611d026122d1565b73ffffffffffffffffffffffffffffffffffffffff16611d20611329565b73ffffffffffffffffffffffffffffffffffffffff1614611d76576040517f08c379a0000000000000000000000000000000000000000000000000000000008152600401611d6d906132ac565b60405180910390fd5b565b611d80611255565b15611dc0576040517f08c379a0000000000000000000000000000000000000000000000000000000008152600401611db79061324c565b60405180910390fd5b565b6000603760009054906101000a900473ffffffffffffffffffffffffffffffffffffffff16905081603760006101000a81548173ffffffffffffffffffffffffffffffffffffffff021916908373ffffffffffffffffffffffffffffffffffffffff1602179055508173ffffffffffffffffffffffffffffffffffffffff168173ffffffffffffffffffffffffffffffffffffffff167f8be0079c531659141344cd1fd0a4f28419497f9722a3daafe3b4186f6b6457e060405160405180910390a35050565b611e90611d78565b6001606960006101000a81548160ff0219169083151502179055507f62e78cea01bee320cd4e420270b5ea74000d11b0c9f74754ebdbfc544b05a258611ed46122d1565b604051611ee19190613065565b60405180910390a1565b6000806001546001600354611f009190613585565b611f0a919061374b565b90508060038190555082600460006003548152602001908152602001600020819055506001915050919050565b611f3f6122d9565b6000606960006101000a81548160ff0219169083151502179055507f5db9ee0a495bf2e6ff9c91a7834c1ba4fdd244a5e8aa4e537bd38aeae4b073aa611f836122d1565b604051611f909190613065565b60405180910390a1565b6000808273ffffffffffffffffffffffffffffffffffffffff163b119050919050565b600060019054906101000a900460ff1661200c576040517f08c379a00000000000000000000000000000000000000000000000000000000081526004016120039061334c565b60405180910390fd5b80600060026101000a81548173ffffffffffffffffffffffffffffffffffffffff021916908373ffffffffffffffffffffffffffffffffffffffff16021790555050565b600060019054906101000a900460ff1661209f576040517f08c379a00000000000000000000000000000000000000000000000000000000081526004016120969061334c565b60405180910390fd5b600081116120e2576040517f08c379a00000000000000000000000000000000000000000000000000000000081526004016120d99061338c565b60405180910390fd5b60288110612125576040517f08c379a000000000000000000000000000000000000000000000000000000000815260040161211c9061336c565b60405180910390fd5b80600281905550600a600181905550600060038190555060006004600060035481526020019081526020016000208190555050565b600060019054906101000a900460ff166121a9576040517f08c379a00000000000000000000000000000000000000000000000000000000081526004016121a09061334c565b60405180910390fd5b565b600060019054906101000a900460ff166121fa576040517f08c379a00000000000000000000000000000000000000000000000000000000081526004016121f19061334c565b60405180910390fd5b61220a6122056122d1565b611dc2565b565b600060019054906101000a900460ff1661225b576040517f08c379a00000000000000000000000000000000000000000000000000000000081526004016122529061334c565b60405180910390fd5b6000606960006101000a81548160ff021916908315150217905550565b600060019054906101000a900460ff166122c7576040517f08c379a00000000000000000000000000000000000000000000000000000000081526004016122be9061334c565b60405180910390fd5b6001609b81905550565b600033905090565b6122e1611255565b612320576040517f08c379a00000000000000000000000000000000000000000000000000000000081526004016123179061318c565b60405180910390fd5b565b600061233561233084613427565b613402565b9050808285604086028201111561234b57600080fd5b60005b8581101561237b57816123618882612477565b84526020840193506040830192505060018101905061234e565b5050509392505050565b60006123986123938461344d565b613402565b905080828560208602820111156123ae57600080fd5b60005b858110156123de57816123c48882612721565b8452602084019350602083019250506001810190506123b1565b5050509392505050565b60006123fb6123f684613473565b613402565b90508281526020810184848401111561241357600080fd5b61241e848285613680565b509392505050565b60008135905061243581613bed565b92915050565b60008151905061244a81613bed565b92915050565b600082601f83011261246157600080fd5b600261246e848285612322565b91505092915050565b600082601f83011261248857600080fd5b6002612495848285612385565b91505092915050565b6000813590506124ad81613c04565b92915050565b6000815190506124c281613c04565b92915050565b6000813590506124d781613c1b565b92915050565b600082601f8301126124ee57600080fd5b81356124fe8482602086016123e8565b91505092915050565b60006101e0828403121561251a57600080fd5b612525610140613402565b9050600082013567ffffffffffffffff81111561254157600080fd5b61254d848285016124dd565b600083015250602061256184828501612477565b602083015250606061257584828501612450565b60408301525060e061258984828501612477565b60608301525061012061259e84828501612426565b6080830152506101406125b384828501612426565b60a0830152506101606125c884828501612721565b60c0830152506101806125dd84828501612426565b60e0830152506101a06125f284828501612721565b610100830152506101c061260884828501612721565b6101208301525092915050565b60006101a0828403121561262857600080fd5b612633610100613402565b9050600082013567ffffffffffffffff81111561264f57600080fd5b61265b848285016124dd565b600083015250602061266f84828501612477565b602083015250606061268384828501612450565b60408301525060e061269784828501612477565b6060830152506101206126ac848285016126f7565b6080830152506101406126c1848285016126f7565b60a0830152506101606126d684828501612721565b60c0830152506101806126eb848285016126f7565b60e08301525092915050565b60008135905061270681613c32565b92915050565b60008151905061271b81613c32565b92915050565b60008135905061273081613c49565b92915050565b60008135905061274581613c60565b92915050565b60006020828403121561275d57600080fd5b600061276b84828501612426565b91505092915050565b60006020828403121561278657600080fd5b60006127948482850161243b565b91505092915050565b600080600080600060a086880312156127b557600080fd5b60006127c388828901612426565b95505060206127d488828901612426565b94505060406127e588828901612721565b93505060606127f688828901612426565b925050608061280788828901612721565b9150509295509295909350565b6000806040838503121561282757600080fd5b600061283585828601612426565b925050602061284685828601612736565b9150509250929050565b60006020828403121561286257600080fd5b6000612870848285016124b3565b91505092915050565b60006020828403121561288b57600080fd5b6000612899848285016124c8565b91505092915050565b6000602082840312156128b457600080fd5b600082013567ffffffffffffffff8111156128ce57600080fd5b6128da848285016124dd565b91505092915050565b6000602082840312156128f557600080fd5b600082013567ffffffffffffffff81111561290f57600080fd5b61291b84828501612507565b91505092915050565b60006020828403121561293657600080fd5b600082013567ffffffffffffffff81111561295057600080fd5b61295c84828501612615565b91505092915050565b60006020828403121561297757600080fd5b6000612985848285016126f7565b91505092915050565b6000602082840312156129a057600080fd5b60006129ae8482850161270c565b91505092915050565b600080604083850312156129ca57600080fd5b60006129d8858286016126f7565b92505060206129e985828601612426565b9150509250929050565b60008060408385031215612a0657600080fd5b6000612a14858286016126f7565b9250506020612a258582860161249e565b9150509250929050565b600060208284031215612a4157600080fd5b6000612a4f84828501612721565b91505092915050565b6000612a648383612b1d565b60408301905092915050565b6000612a7c8383612fab565b60208301905092915050565b6000612a948383612fc9565b60208301905092915050565b612aa9816135db565b82525050565b612ac0612abb826135db565b61371d565b82525050565b612acf816134c8565b612ad98184613526565b9250612ae4826134a4565b8060005b83811015612b15578151612afc8782612a58565b9650612b07836134ff565b925050600181019050612ae8565b505050505050565b612b26816134d3565b612b308184613531565b9250612b3b826134ae565b8060005b83811015612b6c578151612b538782612a70565b9650612b5e8361350c565b925050600181019050612b3f565b505050505050565b612b7d816134d3565b612b87818461353c565b9250612b92826134ae565b8060005b83811015612bc3578151612baa8782612a70565b9650612bb58361350c565b925050600181019050612b96565b505050505050565b6000612bd6826134de565b612be08185613547565b9350612beb836134b8565b8060005b83811015612c1c578151612c038882612a70565b9750612c0e83613519565b925050600181019050612bef565b5085935050505092915050565b6000612c34826134de565b612c3e8185613558565b9350612c49836134b8565b8060005b83811015612c7a578151612c618882612a88565b9750612c6c83613519565b925050600181019050612c4d565b5085935050505092915050565b612c90816135ed565b82525050565b6000612ca1826134e9565b612cab8185613563565b9350612cbb81856020860161368f565b612cc481613809565b840191505092915050565b612cd88161364a565b82525050565b612ce78161366e565b82525050565b6000612cf8826134f4565b612d028185613574565b9350612d1281856020860161368f565b612d1b81613809565b840191505092915050565b6000612d33601483613574565b9150612d3e82613827565b602082019050919050565b6000612d56601c83613574565b9150612d6182613850565b602082019050919050565b6000612d79602683613574565b9150612d8482613879565b604082019050919050565b6000612d9c601583613574565b9150612da7826138c8565b602082019050919050565b6000612dbf602c83613574565b9150612dca826138f1565b604082019050919050565b6000612de2601d83613574565b9150612ded82613940565b602082019050919050565b6000612e05601083613574565b9150612e1082613969565b602082019050919050565b6000612e28602e83613574565b9150612e3382613992565b604082019050919050565b6000612e4b601a83613574565b9150612e56826139e1565b602082019050919050565b6000612e6e602083613574565b9150612e7982613a0a565b602082019050919050565b6000612e91601783613574565b9150612e9c82613a33565b602082019050919050565b6000612eb4602183613574565b9150612ebf82613a5c565b604082019050919050565b6000612ed7601683613574565b9150612ee282613aab565b602082019050919050565b6000612efa601983613574565b9150612f0582613ad4565b602082019050919050565b6000612f1d602b83613574565b9150612f2882613afd565b604082019050919050565b6000612f40601e83613574565b9150612f4b82613b4c565b602082019050919050565b6000612f63602383613574565b9150612f6e82613b75565b604082019050919050565b6000612f86601583613574565b9150612f9182613bc4565b602082019050919050565b612fa581613603565b82525050565b612fb481613623565b82525050565b612fc381613623565b82525050565b612fd281613623565b82525050565b612fe9612fe482613623565b613741565b82525050565b6000612ffb8288612aaf565b60148201915061300b8287612aaf565b60148201915061301b8286612fd8565b60208201915061302b8285612aaf565b60148201915061303b8284612fd8565b6020820191508190509695505050505050565b600061305a8284612c29565b915081905092915050565b600060208201905061307a6000830184612aa0565b92915050565b60006040820190506130956000830185612aa0565b6130a26020830184612fba565b9392505050565b6000610120820190506130bf6000830187612b74565b6130cc6040830186612ac6565b6130d960c0830185612b74565b8181036101008301526130ec8184612bcb565b905095945050505050565b600060208201905061310c6000830184612c87565b92915050565b6000602082019050818103600083015261312c8184612c96565b905092915050565b60006020820190506131496000830184612ccf565b92915050565b60006020820190506131646000830184612cde565b92915050565b600060208201905081810360008301526131848184612ced565b905092915050565b600060208201905081810360008301526131a581612d26565b9050919050565b600060208201905081810360008301526131c581612d49565b9050919050565b600060208201905081810360008301526131e581612d6c565b9050919050565b6000602082019050818103600083015261320581612d8f565b9050919050565b6000602082019050818103600083015261322581612db2565b9050919050565b6000602082019050818103600083015261324581612dd5565b9050919050565b6000602082019050818103600083015261326581612df8565b9050919050565b6000602082019050818103600083015261328581612e1b565b9050919050565b600060208201905081810360008301526132a581612e3e565b9050919050565b600060208201905081810360008301526132c581612e61565b9050919050565b600060208201905081810360008301526132e581612e84565b9050919050565b6000602082019050818103600083015261330581612ea7565b9050919050565b6000602082019050818103600083015261332581612eca565b9050919050565b6000602082019050818103600083015261334581612eed565b9050919050565b6000602082019050818103600083015261336581612f10565b9050919050565b6000602082019050818103600083015261338581612f33565b9050919050565b600060208201905081810360008301526133a581612f56565b9050919050565b600060208201905081810360008301526133c581612f79565b9050919050565b60006020820190506133e16000830184612f9c565b92915050565b60006020820190506133fc6000830184612fba565b92915050565b600061340c61341d565b905061341882826136ec565b919050565b6000604051905090565b600067ffffffffffffffff821115613442576134416137da565b5b602082029050919050565b600067ffffffffffffffff821115613468576134676137da565b5b602082029050919050565b600067ffffffffffffffff82111561348e5761348d6137da565b5b61349782613809565b9050602081019050919050565b6000819050919050565b6000819050919050565b6000819050602082019050919050565b600060029050919050565b600060029050919050565b600081519050919050565b600081519050919050565b600081519050919050565b6000602082019050919050565b6000602082019050919050565b6000602082019050919050565b600081905092915050565b600081905092915050565b600081905092915050565b600082825260208201905092915050565b600081905092915050565b600082825260208201905092915050565b600082825260208201905092915050565b600061359082613623565b915061359b83613623565b9250827fffffffffffffffffffffffffffffffffffffffffffffffffffffffffffffffff038211156135d0576135cf61377c565b5b828201905092915050565b60006135e682613603565b9050919050565b60008115159050919050565b6000819050919050565b600073ffffffffffffffffffffffffffffffffffffffff82169050919050565b6000819050919050565b600063ffffffff82169050919050565b600060ff82169050919050565b60006136558261365c565b9050919050565b600061366782613603565b9050919050565b60006136798261363d565b9050919050565b82818337600083830152505050565b60005b838110156136ad578082015181840152602081019050613692565b838111156136bc576000848401525b50505050565b60006136cd82613623565b915060008214156136e1576136e061377c565b5b600182039050919050565b6136f582613809565b810181811067ffffffffffffffff82111715613714576137136137da565b5b80604052505050565b60006137288261372f565b9050919050565b600061373a8261381a565b9050919050565b6000819050919050565b600061375682613623565b915061376183613623565b925082613771576137706137ab565b5b828206905092915050565b7f4e487b7100000000000000000000000000000000000000000000000000000000600052601160045260246000fd5b7f4e487b7100000000000000000000000000000000000000000000000000000000600052601260045260246000fd5b7f4e487b7100000000000000000000000000000000000000000000000000000000600052604160045260246000fd5b6000601f19601f8301169050919050565b60008160601b9050919050565b7f5061757361626c653a206e6f7420706175736564000000000000000000000000600082015250565b7f636f736d6f73206272696467652077617320737570706f727465642100000000600082015250565b7f4f776e61626c653a206e6577206f776e657220697320746865207a65726f206160008201527f6464726573730000000000000000000000000000000000000000000000000000602082015250565b7f44617461206861736820697320696e76616c6964210000000000000000000000600082015250565b7f54686973206272696467652069736e277420737570706f727420666f7220636c60008201527f616d6d696e6720746f6b656e0000000000000000000000000000000000000000602082015250565b7f42726964676520697320616c726561647920696e697469616c697a6564000000600082015250565b7f5061757361626c653a2070617573656400000000000000000000000000000000600082015250565b7f496e697469616c697a61626c653a20636f6e747261637420697320616c72656160008201527f647920696e697469616c697a6564000000000000000000000000000000000000602082015250565b7f446f206e6f7420737570706f7274207468697320627269646765000000000000600082015250565b7f4f776e61626c653a2063616c6c6572206973206e6f7420746865206f776e6572600082015250565b7f4465706f73697420726f6f7420697320696e76616c6964000000000000000000600082015250565b7f746f6b656e2077617320636c61696d6564207769746820746869732070726f6f60008201527f6600000000000000000000000000000000000000000000000000000000000000602082015250565b7f4e6f7420737570706f7274207468697320746f6b656e00000000000000000000600082015250565b7f496e76616c6964206465706f736974526f6f742070726f6f6600000000000000600082015250565b7f496e697469616c697a61626c653a20636f6e7472616374206973206e6f74206960008201527f6e697469616c697a696e67000000000000000000000000000000000000000000602082015250565b7f5f6c6576656c732073686f756c64206265206c657373207468616e2034300000600082015250565b7f5f6c6576656c732073686f756c642062652067726561746572207468616e207a60008201527f65726f0000000000000000000000000000000000000000000000000000000000602082015250565b7f746f6b656e207761732072656769737465726564210000000000000000000000600082015250565b613bf6816135db565b8114613c0157600080fd5b50565b613c0d816135ed565b8114613c1857600080fd5b50565b613c24816135f9565b8114613c2f57600080fd5b50565b613c3b81613603565b8114613c4657600080fd5b50565b613c5281613623565b8114613c5d57600080fd5b50565b613c698161362d565b8114613c7457600080fd5b5056fea264697066735822122050e712ab15292ca9f0e4b7db86ec62fba19637b3a3c0fe4dc756329751817f5364736f6c63430008040033",
  "linkReferences": {},
  "deployedLinkReferences": {}
}