{
  "_format": "hh-sol-artifact-1",
  "contractName": "OraisanBridge",
  "sourceName": "contracts/ethBridge/OraisanBridge.sol",
  "abi": [
    {
      "anonymous": false,
      "inputs": [
        {
          "indexed": true,
          "internalType": "uint256[]",
          "name": "inputs",
          "type": "uint256[]"
        },
        {
          "indexed": false,
          "internalType": "uint256",
          "name": "timestamp",
          "type": "uint256"
        }
      ],
      "name": "ClaimTransactionCompleted",
      "type": "event"
    },
    {
      "anonymous": false,
      "inputs": [
        {
          "indexed": false,
          "internalType": "uint8",
          "name": "version",
          "type": "uint8"
        }
      ],
      "name": "Initialized",
      "type": "event"
    },
    {
      "anonymous": false,
      "inputs": [
        {
          "indexed": true,
          "internalType": "address",
          "name": "previousOwner",
          "type": "address"
        },
        {
          "indexed": true,
          "internalType": "address",
          "name": "newOwner",
          "type": "address"
        }
      ],
      "name": "OwnershipTransferred",
      "type": "event"
    },
    {
      "anonymous": false,
      "inputs": [
        {
          "indexed": false,
          "internalType": "address",
          "name": "account",
          "type": "address"
        }
      ],
      "name": "Paused",
      "type": "event"
    },
    {
      "anonymous": false,
      "inputs": [
        {
          "indexed": false,
          "internalType": "address",
          "name": "account",
          "type": "address"
        }
      ],
      "name": "Unpaused",
      "type": "event"
    },
    {
      "anonymous": false,
      "inputs": [
        {
          "indexed": true,
          "internalType": "uint256[]",
          "name": "inputs",
          "type": "uint256[]"
        },
        {
          "indexed": false,
          "internalType": "uint256",
          "name": "timestamp",
          "type": "uint256"
        }
      ],
      "name": "UpdateDepositRootCompleted",
      "type": "event"
    },
    {
      "inputs": [],
      "name": "ROOT_HISTORY_SIZE",
      "outputs": [
        {
          "internalType": "uint256",
          "name": "",
          "type": "uint256"
        }
      ],
      "stateMutability": "view",
      "type": "function"
    },
    {
      "inputs": [
        {
          "components": [
            {
              "internalType": "string",
              "name": "optionName",
              "type": "string"
            },
            {
              "internalType": "uint256[2]",
              "name": "pi_a",
              "type": "uint256[2]"
            },
            {
              "internalType": "uint256[2][2]",
              "name": "pi_b",
              "type": "uint256[2][2]"
            },
            {
              "internalType": "uint256[2]",
              "name": "pi_c",
              "type": "uint256[2]"
            },
            {
              "internalType": "address",
              "name": "eth_bridge_address",
              "type": "address"
            },
            {
              "internalType": "address",
              "name": "eth_receiver",
              "type": "address"
            },
            {
              "internalType": "uint256",
              "name": "amount",
              "type": "uint256"
            },
            {
              "internalType": "address",
              "name": "eth_token_address",
              "type": "address"
            },
            {
              "internalType": "uint256",
              "name": "key",
              "type": "uint256"
            },
            {
              "internalType": "uint256",
              "name": "depositRoot",
              "type": "uint256"
            }
          ],
          "internalType": "struct IVerifier.ClaimTransactionProof",
          "name": "_claimTransactionProof",
          "type": "tuple"
        }
      ],
      "name": "claimTransaction",
      "outputs": [],
      "stateMutability": "nonpayable",
      "type": "function"
    },
    {
      "inputs": [
        {
          "internalType": "address",
          "name": "",
          "type": "address"
        }
      ],
      "name": "cosmosToEthTokenAddress",
      "outputs": [
        {
          "internalType": "address",
          "name": "",
          "type": "address"
        }
      ],
      "stateMutability": "view",
      "type": "function"
    },
    {
      "inputs": [],
      "name": "currentDepositRoot",
      "outputs": [
        {
          "internalType": "uint256",
          "name": "",
          "type": "uint256"
        }
      ],
      "stateMutability": "view",
      "type": "function"
    },
    {
      "inputs": [
        {
          "internalType": "address",
          "name": "_cosmosTokenAddress",
          "type": "address"
        }
      ],
      "name": "deleteTokenPair",
      "outputs": [],
      "stateMutability": "nonpayable",
      "type": "function"
    },
    {
      "inputs": [
        {
          "internalType": "uint256",
          "name": "",
          "type": "uint256"
        }
      ],
      "name": "depositRoots",
      "outputs": [
        {
          "internalType": "uint256",
          "name": "",
          "type": "uint256"
        }
      ],
      "stateMutability": "view",
      "type": "function"
    },
    {
      "inputs": [
        {
          "internalType": "address",
          "name": "eth_bridge_address",
          "type": "address"
        },
        {
          "internalType": "address",
          "name": "eth_receiver",
          "type": "address"
        },
        {
          "internalType": "uint256",
          "name": "amount",
          "type": "uint256"
        },
        {
          "internalType": "address",
          "name": "eth_token_address",
          "type": "address"
        },
        {
          "internalType": "uint256",
          "name": "key",
          "type": "uint256"
        }
      ],
      "name": "encodeProof",
      "outputs": [
        {
          "internalType": "bytes32",
          "name": "",
          "type": "bytes32"
        }
      ],
      "stateMutability": "pure",
      "type": "function"
    },
    {
      "inputs": [
        {
          "internalType": "address",
          "name": "",
          "type": "address"
        }
      ],
      "name": "ethToCosmosTokenAddress",
      "outputs": [
        {
          "internalType": "address",
          "name": "",
          "type": "address"
        }
      ],
      "stateMutability": "view",
      "type": "function"
    },
    {
      "inputs": [],
      "name": "getLastDepositRoot",
      "outputs": [
        {
          "internalType": "uint256",
          "name": "",
          "type": "uint256"
        }
      ],
      "stateMutability": "view",
      "type": "function"
    },
    {
      "inputs": [
        {
          "internalType": "address",
          "name": "_cosmosBridge",
          "type": "address"
        }
      ],
      "name": "getSupportCosmosBridge",
      "outputs": [
        {
          "internalType": "bool",
          "name": "",
          "type": "bool"
        }
      ],
      "stateMutability": "view",
      "type": "function"
    },
    {
      "inputs": [
        {
          "internalType": "address",
          "name": "_cosmosToken",
          "type": "address"
        }
      ],
      "name": "getTokenPairOfCosmosToken",
      "outputs": [
        {
          "internalType": "address",
          "name": "",
          "type": "address"
        }
      ],
      "stateMutability": "view",
      "type": "function"
    },
    {
      "inputs": [
        {
          "internalType": "address",
          "name": "_ethToken",
          "type": "address"
        }
      ],
      "name": "getTokenPairOfEthToken",
      "outputs": [
        {
          "internalType": "address",
          "name": "",
          "type": "address"
        }
      ],
      "stateMutability": "view",
      "type": "function"
    },
    {
      "inputs": [
        {
          "internalType": "address",
          "name": "_libAddressManager",
          "type": "address"
        },
        {
          "internalType": "uint32",
          "name": "_merkleTreeHeight",
          "type": "uint32"
        }
      ],
      "name": "initialize",
      "outputs": [],
      "stateMutability": "nonpayable",
      "type": "function"
    },
    {
      "inputs": [
        {
          "internalType": "uint256",
          "name": "",
          "type": "uint256"
        }
      ],
      "name": "isClaimed",
      "outputs": [
        {
          "internalType": "bool",
          "name": "",
          "type": "bool"
        }
      ],
      "stateMutability": "view",
      "type": "function"
    },
    {
      "inputs": [
        {
          "internalType": "uint256",
          "name": "_depositRoot",
          "type": "uint256"
        }
      ],
      "name": "isKnownDepostRoot",
      "outputs": [
        {
          "internalType": "bool",
          "name": "",
          "type": "bool"
        }
      ],
      "stateMutability": "view",
      "type": "function"
    },
    {
      "inputs": [
        {
          "internalType": "address",
          "name": "",
          "type": "address"
        }
      ],
      "name": "isSupportCosmosBridge",
      "outputs": [
        {
          "internalType": "bool",
          "name": "",
          "type": "bool"
        }
      ],
      "stateMutability": "view",
      "type": "function"
    },
    {
      "inputs": [],
      "name": "levels",
      "outputs": [
        {
          "internalType": "uint256",
          "name": "",
          "type": "uint256"
        }
      ],
      "stateMutability": "view",
      "type": "function"
    },
    {
      "inputs": [],
      "name": "libAddressManager",
      "outputs": [
        {
          "internalType": "contract Lib_AddressManager",
          "name": "",
          "type": "address"
        }
      ],
      "stateMutability": "view",
      "type": "function"
    },
    {
      "inputs": [],
      "name": "owner",
      "outputs": [
        {
          "internalType": "address",
          "name": "",
          "type": "address"
        }
      ],
      "stateMutability": "view",
      "type": "function"
    },
    {
      "inputs": [],
      "name": "pause",
      "outputs": [],
      "stateMutability": "nonpayable",
      "type": "function"
    },
    {
      "inputs": [],
      "name": "paused",
      "outputs": [
        {
          "internalType": "bool",
          "name": "",
          "type": "bool"
        }
      ],
      "stateMutability": "view",
      "type": "function"
    },
    {
      "inputs": [
        {
          "internalType": "address",
          "name": "_cosmosBridge",
          "type": "address"
        },
        {
          "internalType": "bool",
          "name": "_isSupport",
          "type": "bool"
        }
      ],
      "name": "registerCosmosBridge",
      "outputs": [],
      "stateMutability": "nonpayable",
      "type": "function"
    },
    {
      "inputs": [
        {
          "internalType": "address",
          "name": "_cosmosTokenAddress",
          "type": "address"
        },
        {
          "internalType": "address",
          "name": "_ethTokenAddress",
          "type": "address"
        }
      ],
      "name": "registerTokenPair",
      "outputs": [],
      "stateMutability": "nonpayable",
      "type": "function"
    },
    {
      "inputs": [],
      "name": "renounceOwnership",
      "outputs": [],
      "stateMutability": "nonpayable",
      "type": "function"
    },
    {
      "inputs": [
        {
          "internalType": "string",
          "name": "_name",
          "type": "string"
        }
      ],
      "name": "resolve",
      "outputs": [
        {
          "internalType": "address",
          "name": "",
          "type": "address"
        }
      ],
      "stateMutability": "view",
      "type": "function"
    },
    {
      "inputs": [
        {
          "internalType": "bytes32",
          "name": "",
          "type": "bytes32"
        }
      ],
      "name": "sentProof",
      "outputs": [
        {
          "internalType": "bool",
          "name": "",
          "type": "bool"
        }
      ],
      "stateMutability": "view",
      "type": "function"
    },
    {
      "inputs": [
        {
          "internalType": "address",
          "name": "newOwner",
          "type": "address"
        }
      ],
      "name": "transferOwnership",
      "outputs": [],
      "stateMutability": "nonpayable",
      "type": "function"
    },
    {
      "inputs": [],
      "name": "unpauseContract",
      "outputs": [],
      "stateMutability": "nonpayable",
      "type": "function"
    },
    {
      "inputs": [
        {
          "components": [
            {
              "internalType": "string",
              "name": "optionName",
              "type": "string"
            },
            {
              "internalType": "uint256[2]",
              "name": "pi_a",
              "type": "uint256[2]"
            },
            {
              "internalType": "uint256[2][2]",
              "name": "pi_b",
              "type": "uint256[2][2]"
            },
            {
              "internalType": "uint256[2]",
              "name": "pi_c",
              "type": "uint256[2]"
            },
            {
              "internalType": "address",
              "name": "cosmosSender",
              "type": "address"
            },
            {
              "internalType": "address",
              "name": "cosmosBridge",
              "type": "address"
            },
            {
              "internalType": "uint256",
              "name": "depositRoot",
              "type": "uint256"
            },
            {
              "internalType": "bytes20",
              "name": "dataHash",
              "type": "bytes20"
            }
          ],
          "internalType": "struct IVerifier.DepositRootProof",
          "name": "_depositRootProof",
          "type": "tuple"
        }
      ],
      "name": "updateRootDepositTree",
      "outputs": [
        {
          "internalType": "bool",
          "name": "",
          "type": "bool"
        }
      ],
      "stateMutability": "nonpayable",
      "type": "function"
    }
  ],
  "bytecode": "0x608060405234801561001057600080fd5b50613e28806100206000396000f3fe608060405234801561001057600080fd5b50600436106101cf5760003560e01c80638456cb5911610104578063bae94466116100a2578063defc7e7e11610071578063defc7e7e14610544578063ec552d4214610574578063f0bbfbd2146105a4578063f2fde38b146105c0576101cf565b8063bae94466146104aa578063c0d34b8a146104da578063c5e4c9f91461050a578063cd87a3b414610526576101cf565b80639df22cd5116100de5780639df22cd5146104225780639e34070f146104405780639ef46d0f14610470578063b33712c5146104a0576101cf565b80638456cb59146103ca5780638da5cb5b146103d45780639139153f146103f2576101cf565b80634ecf518b116101715780635e971c561161014b5780635e971c5614610330578063715018a614610360578063733314b01461036a5780637ae1293f1461039a576101cf565b80634ecf518b146102d85780635583804c146102f65780635c975abb14610312576101cf565b8063299ca478116101ad578063299ca4781461023c5780632cd4300c1461025a57806341cfc05414610278578063461a4478146102a8576101cf565b80631201deea146101d45780631418c61c146101f057806317e1bcdb14610220575b600080fd5b6101ee60048036038101906101e99190612913565b6105dc565b005b61020a600480360381019061020591906128c1565b610850565b6040516102179190613179565b60405180910390f35b61023a600480360381019061023591906128c1565b6108b9565b005b610244610a27565b6040516102519190613241565b60405180910390f35b610262610a4d565b60405161026f9190613509565b60405180910390f35b610292600480360381019061028d91906128c1565b610a6a565b60405161029f9190613179565b60405180910390f35b6102c260048036038101906102bd9190612ab9565b610a9d565b6040516102cf9190613179565b60405180910390f35b6102e0610b50565b6040516102ed9190613509565b60405180910390f35b610310600480360381019061030b9190612afa565b610b56565b005b61031a6111de565b604051610327919061320b565b60405180910390f35b61034a60048036038101906103459190612a90565b6111f5565b604051610357919061320b565b60405180910390f35b610368611215565b005b610384600480360381019061037f91906128c1565b611229565b604051610391919061320b565b60405180910390f35b6103b460048036038101906103af9190612b7c565b611249565b6040516103c1919061320b565b60405180910390f35b6103d26112c0565b005b6103dc6112d2565b6040516103e99190613179565b60405180910390f35b61040c600480360381019061040791906128c1565b6112fc565b6040516104199190613179565b60405180910390f35b61042a611365565b6040516104379190613509565b60405180910390f35b61045a60048036038101906104559190612b7c565b61136b565b604051610467919061320b565b60405180910390f35b61048a60048036038101906104859190612b7c565b61138b565b6040516104979190613509565b60405180910390f35b6104a86113a3565b005b6104c460048036038101906104bf9190612b3b565b6113b5565b6040516104d1919061320b565b60405180910390f35b6104f460048036038101906104ef91906128c1565b611957565b604051610501919061320b565b60405180910390f35b610524600480360381019061051f9190612a02565b6119ad565b005b61052e611bbc565b60405161053b9190613509565b60405180910390f35b61055e600480360381019061055991906128c1565b611bc2565b60405161056b9190613179565b60405180910390f35b61058e6004803603810190610589919061294f565b611bf5565b60405161059b9190613226565b60405180910390f35b6105be60048036038101906105b991906129c6565b611c31565b005b6105da60048036038101906105d591906128c1565b611d2f565b005b6105e4611db3565b6105ec611dfd565b600073ffffffffffffffffffffffffffffffffffffffff1660ce60008473ffffffffffffffffffffffffffffffffffffffff1673ffffffffffffffffffffffffffffffffffffffff16815260200190815260200160002060009054906101000a900473ffffffffffffffffffffffffffffffffffffffff1673ffffffffffffffffffffffffffffffffffffffff1614806107115750600073ffffffffffffffffffffffffffffffffffffffff1660cf60008373ffffffffffffffffffffffffffffffffffffffff1673ffffffffffffffffffffffffffffffffffffffff16815260200190815260200160002060009054906101000a900473ffffffffffffffffffffffffffffffffffffffff1673ffffffffffffffffffffffffffffffffffffffff16145b610750576040517f08c379a0000000000000000000000000000000000000000000000000000000008152600401610747906134e9565b60405180910390fd5b8060ce60008473ffffffffffffffffffffffffffffffffffffffff1673ffffffffffffffffffffffffffffffffffffffff16815260200190815260200160002060006101000a81548173ffffffffffffffffffffffffffffffffffffffff021916908373ffffffffffffffffffffffffffffffffffffffff1602179055508160cf60008373ffffffffffffffffffffffffffffffffffffffff1673ffffffffffffffffffffffffffffffffffffffff16815260200190815260200160002060006101000a81548173ffffffffffffffffffffffffffffffffffffffff021916908373ffffffffffffffffffffffffffffffffffffffff1602179055505050565b600060ce60008373ffffffffffffffffffffffffffffffffffffffff1673ffffffffffffffffffffffffffffffffffffffff16815260200190815260200160002060009054906101000a900473ffffffffffffffffffffffffffffffffffffffff169050919050565b6108c1611dfd565b600060ce60008373ffffffffffffffffffffffffffffffffffffffff1673ffffffffffffffffffffffffffffffffffffffff16815260200190815260200160002060009054906101000a900473ffffffffffffffffffffffffffffffffffffffff169050600060ce60008473ffffffffffffffffffffffffffffffffffffffff1673ffffffffffffffffffffffffffffffffffffffff16815260200190815260200160002060006101000a81548173ffffffffffffffffffffffffffffffffffffffff021916908373ffffffffffffffffffffffffffffffffffffffff160217905550600060cf60008373ffffffffffffffffffffffffffffffffffffffff1673ffffffffffffffffffffffffffffffffffffffff16815260200190815260200160002060006101000a81548173ffffffffffffffffffffffffffffffffffffffff021916908373ffffffffffffffffffffffffffffffffffffffff1602179055505050565b600060029054906101000a900473ffffffffffffffffffffffffffffffffffffffff1681565b600060046000600354815260200190815260200160002054905090565b60cf6020528060005260406000206000915054906101000a900473ffffffffffffffffffffffffffffffffffffffff1681565b60008060029054906101000a900473ffffffffffffffffffffffffffffffffffffffff1673ffffffffffffffffffffffffffffffffffffffff1663bf40fac1836040518263ffffffff1660e01b8152600401610af99190613277565b60206040518083038186803b158015610b1157600080fd5b505afa158015610b25573d6000803e3d6000fd5b505050506040513d601f19601f82011682018060405250810190610b4991906128ea565b9050919050565b60025481565b600073ffffffffffffffffffffffffffffffffffffffff1660cf60008360e0015173ffffffffffffffffffffffffffffffffffffffff1673ffffffffffffffffffffffffffffffffffffffff16815260200190815260200160002060009054906101000a900473ffffffffffffffffffffffffffffffffffffffff1673ffffffffffffffffffffffffffffffffffffffff161415610c29576040517f08c379a0000000000000000000000000000000000000000000000000000000008152600401610c2090613449565b60405180910390fd5b3073ffffffffffffffffffffffffffffffffffffffff16816080015173ffffffffffffffffffffffffffffffffffffffff1614610c9b576040517f08c379a0000000000000000000000000000000000000000000000000000000008152600401610c9290613349565b60405180910390fd5b610ca9816101200151611249565b610ce8576040517f08c379a0000000000000000000000000000000000000000000000000000000008152600401610cdf90613409565b60405180910390fd5b6000610d0c82608001518360a001518460c001518560e00151866101000151611bf5565b905060d1600082815260200190815260200160002060009054906101000a900460ff1615610d6f576040517f08c379a0000000000000000000000000000000000000000000000000000000008152600401610d6690613429565b60405180910390fd5b600160d1600083815260200190815260200160002060006101000a81548160ff0219169083151502179055506000826000015190506000836020015190506000846040015190506000856060015190506000600667ffffffffffffffff811115610e02577f4e487b7100000000000000000000000000000000000000000000000000000000600052604160045260246000fd5b604051908082528060200260200182016040528015610e305781602001602082028036833780820191505090505b509050866080015173ffffffffffffffffffffffffffffffffffffffff1681600081518110610e88577f4e487b7100000000000000000000000000000000000000000000000000000000600052603260045260246000fd5b6020026020010181815250508660a0015173ffffffffffffffffffffffffffffffffffffffff1681600181518110610ee9577f4e487b7100000000000000000000000000000000000000000000000000000000600052603260045260246000fd5b6020026020010181815250508660c0015181600281518110610f34577f4e487b7100000000000000000000000000000000000000000000000000000000600052603260045260246000fd5b6020026020010181815250508660e0015173ffffffffffffffffffffffffffffffffffffffff1681600381518110610f95577f4e487b7100000000000000000000000000000000000000000000000000000000600052603260045260246000fd5b60200260200101818152505086610100015181600481518110610fe1577f4e487b7100000000000000000000000000000000000000000000000000000000600052603260045260246000fd5b6020026020010181815250508661012001518160058151811061102d577f4e487b7100000000000000000000000000000000000000000000000000000000600052603260045260246000fd5b60200260200101818152505061104285610a9d565b73ffffffffffffffffffffffffffffffffffffffff1663c32e370e858585856040518563ffffffff1660e01b815260040161108094939291906131bd565b60206040518083038186803b15801561109857600080fd5b505afa1580156110ac573d6000803e3d6000fd5b505050506040513d601f19601f820116820180604052508101906110d09190612a3e565b61110f576040517f08c379a000000000000000000000000000000000000000000000000000000000815260040161110690613469565b60405180910390fd5b8660e0015173ffffffffffffffffffffffffffffffffffffffff166340c10f198860a001518960c001516040518363ffffffff1660e01b8152600401611156929190613194565b600060405180830381600087803b15801561117057600080fd5b505af1158015611184573d6000803e3d6000fd5b50505050806040516111969190613162565b60405180910390207f4e7589f75d86eccc05b3d94910b69255d4a905f5381ec472e446718f2c460794426040516111cd9190613509565b60405180910390a250505050505050565b6000606960009054906101000a900460ff16905090565b60d16020528060005260406000206000915054906101000a900460ff1681565b61121d611dfd565b6112276000611e7b565b565b60cd6020528060005260406000206000915054906101000a900460ff1681565b60008082141561125c57600090506112bb565b6000600354905060008190505b600460008281526020019081526020016000205484141561128f576001925050506112bb565b600081141561129e5760015490505b80806112a9906137f4565b91505081811415611269576000925050505b919050565b6112c8611dfd565b6112d0611f41565b565b6000603760009054906101000a900473ffffffffffffffffffffffffffffffffffffffff16905090565b600060cf60008373ffffffffffffffffffffffffffffffffffffffff1673ffffffffffffffffffffffffffffffffffffffff16815260200190815260200160002060009054906101000a900473ffffffffffffffffffffffffffffffffffffffff169050919050565b60035481565b60d06020528060005260406000206000915054906101000a900460ff1681565b60046020528060005260406000206000915090505481565b6113ab611dfd565b6113b3611fa4565b565b60006113bf611db3565b60cd60008360a0015173ffffffffffffffffffffffffffffffffffffffff1673ffffffffffffffffffffffffffffffffffffffff16815260200190815260200160002060009054906101000a900460ff1661144f576040517f08c379a0000000000000000000000000000000000000000000000000000000008152600401611446906133c9565b60405180910390fd5b61148d6040518060400160405280601381526020017f434f534d4f535f424c4f434b5f48454144455200000000000000000000000000815250610a9d565b73ffffffffffffffffffffffffffffffffffffffff16636096ade06040518163ffffffff1660e01b815260040160206040518083038186803b1580156114d257600080fd5b505afa1580156114e6573d6000803e3d6000fd5b505050506040513d601f19601f8201168201806040525081019061150a9190612a67565b6bffffffffffffffffffffffff19168260e001516bffffffffffffffffffffffff19161461156d576040517f08c379a000000000000000000000000000000000000000000000000000000000815260040161156490613329565b60405180910390fd5b6000826000015190506000836020015190506000846040015190506000856060015190506000600467ffffffffffffffff8111156115d4577f4e487b7100000000000000000000000000000000000000000000000000000000600052604160045260246000fd5b6040519080825280602002602001820160405280156116025781602001602082028036833780820191505090505b509050866080015173ffffffffffffffffffffffffffffffffffffffff168160008151811061165a577f4e487b7100000000000000000000000000000000000000000000000000000000600052603260045260246000fd5b6020026020010181815250508660a0015173ffffffffffffffffffffffffffffffffffffffff16816001815181106116bb577f4e487b7100000000000000000000000000000000000000000000000000000000600052603260045260246000fd5b6020026020010181815250508660c0015181600281518110611706577f4e487b7100000000000000000000000000000000000000000000000000000000600052603260045260246000fd5b6020026020010181815250508660e0015160601c73ffffffffffffffffffffffffffffffffffffffff168160038151811061176a577f4e487b7100000000000000000000000000000000000000000000000000000000600052603260045260246000fd5b60200260200101818152505060005b6004811015611814576118016040518060400160405280600681526020017f696e7075742000000000000000000000000000000000000000000000000000008152508383815181106117f4577f4e487b7100000000000000000000000000000000000000000000000000000000600052603260045260246000fd5b6020026020010151612007565b808061180c9061384f565b915050611779565b5061181e85610a9d565b73ffffffffffffffffffffffffffffffffffffffff1663c32e370e858585856040518563ffffffff1660e01b815260040161185c94939291906131bd565b60206040518083038186803b15801561187457600080fd5b505afa158015611888573d6000803e3d6000fd5b505050506040513d601f19601f820116820180604052508101906118ac9190612a3e565b6118eb576040517f08c379a00000000000000000000000000000000000000000000000000000000081526004016118e290613469565b60405180910390fd5b60006118fa8860c001516120a3565b90508160405161190a9190613162565b60405180910390207fb863fd571fb24a5c7ec2e5259d558b03685336f31dcbf081507d6c4254bed305426040516119419190613509565b60405180910390a2809650505050505050919050565b600060cd60008373ffffffffffffffffffffffffffffffffffffffff1673ffffffffffffffffffffffffffffffffffffffff16815260200190815260200160002060009054906101000a900460ff169050919050565b60008060019054906101000a900460ff161590508080156119de5750600160008054906101000a900460ff1660ff16105b80611a0b57506119ed306120ef565b158015611a0a5750600160008054906101000a900460ff1660ff16145b5b611a4a576040517f08c379a0000000000000000000000000000000000000000000000000000000008152600401611a41906133a9565b60405180910390fd5b60016000806101000a81548160ff021916908360ff1602179055508015611a87576001600060016101000a81548160ff0219169083151502179055505b6000600254148015611ae75750600073ffffffffffffffffffffffffffffffffffffffff16600060029054906101000a900473ffffffffffffffffffffffffffffffffffffffff1673ffffffffffffffffffffffffffffffffffffffff16145b611b26576040517f08c379a0000000000000000000000000000000000000000000000000000000008152600401611b1d90613369565b60405180910390fd5b611b2f83612112565b611b3e8263ffffffff166121a5565b611b466122af565b611b4e612300565b611b56612361565b611b5e6123cd565b8015611bb75760008060016101000a81548160ff0219169083151502179055507f7f26b83ff96e1f2b6a682f133852f6798a09c465da95921460cefb38474024986001604051611bae919061325c565b60405180910390a15b505050565b60015481565b60ce6020528060005260406000206000915054906101000a900473ffffffffffffffffffffffffffffffffffffffff1681565b60008585858585604051602001611c10959493929190613103565b60405160208183030381529060405280519060200120905095945050505050565b611c39611db3565b611c41611dfd565b80151560cd60008473ffffffffffffffffffffffffffffffffffffffff1673ffffffffffffffffffffffffffffffffffffffff16815260200190815260200160002060009054906101000a900460ff1615151415611cd4576040517f08c379a0000000000000000000000000000000000000000000000000000000008152600401611ccb906132e9565b60405180910390fd5b8060cd60008473ffffffffffffffffffffffffffffffffffffffff1673ffffffffffffffffffffffffffffffffffffffff16815260200190815260200160002060006101000a81548160ff0219169083151502179055505050565b611d37611dfd565b600073ffffffffffffffffffffffffffffffffffffffff168173ffffffffffffffffffffffffffffffffffffffff161415611da7576040517f08c379a0000000000000000000000000000000000000000000000000000000008152600401611d9e90613309565b60405180910390fd5b611db081611e7b565b50565b611dbb6111de565b15611dfb576040517f08c379a0000000000000000000000000000000000000000000000000000000008152600401611df290613389565b60405180910390fd5b565b611e05612426565b73ffffffffffffffffffffffffffffffffffffffff16611e236112d2565b73ffffffffffffffffffffffffffffffffffffffff1614611e79576040517f08c379a0000000000000000000000000000000000000000000000000000000008152600401611e70906133e9565b60405180910390fd5b565b6000603760009054906101000a900473ffffffffffffffffffffffffffffffffffffffff16905081603760006101000a81548173ffffffffffffffffffffffffffffffffffffffff021916908373ffffffffffffffffffffffffffffffffffffffff1602179055508173ffffffffffffffffffffffffffffffffffffffff168173ffffffffffffffffffffffffffffffffffffffff167f8be0079c531659141344cd1fd0a4f28419497f9722a3daafe3b4186f6b6457e060405160405180910390a35050565b611f49611db3565b6001606960006101000a81548160ff0219169083151502179055507f62e78cea01bee320cd4e420270b5ea74000d11b0c9f74754ebdbfc544b05a258611f8d612426565b604051611f9a9190613179565b60405180910390a1565b611fac61242e565b6000606960006101000a81548160ff0219169083151502179055507f5db9ee0a495bf2e6ff9c91a7834c1ba4fdd244a5e8aa4e537bd38aeae4b073aa611ff0612426565b604051611ffd9190613179565b60405180910390a1565b61209f828260405160240161201d929190613299565b6040516020818303038152906040527fb60e72cc000000000000000000000000000000000000000000000000000000007bffffffffffffffffffffffffffffffffffffffffffffffffffffffff19166020820180517bffffffffffffffffffffffffffffffffffffffffffffffffffffffff8381831617835250505050612477565b5050565b60008060015460016003546120b8919061368b565b6120c291906138c6565b90508060038190555082600460006003548152602001908152602001600020819055506001915050919050565b6000808273ffffffffffffffffffffffffffffffffffffffff163b119050919050565b600060019054906101000a900460ff16612161576040517f08c379a000000000000000000000000000000000000000000000000000000000815260040161215890613489565b60405180910390fd5b80600060026101000a81548173ffffffffffffffffffffffffffffffffffffffff021916908373ffffffffffffffffffffffffffffffffffffffff16021790555050565b600060019054906101000a900460ff166121f4576040517f08c379a00000000000000000000000000000000000000000000000000000000081526004016121eb90613489565b60405180910390fd5b60008111612237576040517f08c379a000000000000000000000000000000000000000000000000000000000815260040161222e906134c9565b60405180910390fd5b6028811061227a576040517f08c379a0000000000000000000000000000000000000000000000000000000008152600401612271906134a9565b60405180910390fd5b80600281905550600a600181905550600060038190555060006004600060035481526020019081526020016000208190555050565b600060019054906101000a900460ff166122fe576040517f08c379a00000000000000000000000000000000000000000000000000000000081526004016122f590613489565b60405180910390fd5b565b600060019054906101000a900460ff1661234f576040517f08c379a000000000000000000000000000000000000000000000000000000000815260040161234690613489565b60405180910390fd5b61235f61235a612426565b611e7b565b565b600060019054906101000a900460ff166123b0576040517f08c379a00000000000000000000000000000000000000000000000000000000081526004016123a790613489565b60405180910390fd5b6000606960006101000a81548160ff021916908315150217905550565b600060019054906101000a900460ff1661241c576040517f08c379a000000000000000000000000000000000000000000000000000000000815260040161241390613489565b60405180910390fd5b6001609b81905550565b600033905090565b6124366111de565b612475576040517f08c379a000000000000000000000000000000000000000000000000000000000815260040161246c906132c9565b60405180910390fd5b565b60006a636f6e736f6c652e6c6f679050600080835160208501845afa505050565b60006124ab6124a684613549565b613524565b905080828560408602820111156124c157600080fd5b60005b858110156124f157816124d788826125ed565b8452602084019350604083019250506001810190506124c4565b5050509392505050565b600061250e6125098461356f565b613524565b9050808285602086028201111561252457600080fd5b60005b85811015612554578161253a8882612897565b845260208401935060208301925050600181019050612527565b5050509392505050565b600061257161256c84613595565b613524565b90508281526020810184848401111561258957600080fd5b6125948482856137b2565b509392505050565b6000813590506125ab81613d68565b92915050565b6000815190506125c081613d68565b92915050565b600082601f8301126125d757600080fd5b60026125e4848285612498565b91505092915050565b600082601f8301126125fe57600080fd5b600261260b8482856124fb565b91505092915050565b60008135905061262381613d7f565b92915050565b60008151905061263881613d7f565b92915050565b60008135905061264d81613d96565b92915050565b60008151905061266281613d96565b92915050565b60008135905061267781613dad565b92915050565b600082601f83011261268e57600080fd5b813561269e84826020860161255e565b91505092915050565b60006101e082840312156126ba57600080fd5b6126c5610140613524565b9050600082013567ffffffffffffffff8111156126e157600080fd5b6126ed8482850161267d565b6000830152506020612701848285016125ed565b6020830152506060612715848285016125c6565b60408301525060e0612729848285016125ed565b60608301525061012061273e8482850161259c565b6080830152506101406127538482850161259c565b60a08301525061016061276884828501612897565b60c08301525061018061277d8482850161259c565b60e0830152506101a061279284828501612897565b610100830152506101c06127a884828501612897565b6101208301525092915050565b60006101a082840312156127c857600080fd5b6127d3610100613524565b9050600082013567ffffffffffffffff8111156127ef57600080fd5b6127fb8482850161267d565b600083015250602061280f848285016125ed565b6020830152506060612823848285016125c6565b60408301525060e0612837848285016125ed565b60608301525061012061284c8482850161259c565b6080830152506101406128618482850161259c565b60a08301525061016061287684828501612897565b60c08301525061018061288b8482850161263e565b60e08301525092915050565b6000813590506128a681613dc4565b92915050565b6000813590506128bb81613ddb565b92915050565b6000602082840312156128d357600080fd5b60006128e18482850161259c565b91505092915050565b6000602082840312156128fc57600080fd5b600061290a848285016125b1565b91505092915050565b6000806040838503121561292657600080fd5b60006129348582860161259c565b92505060206129458582860161259c565b9150509250929050565b600080600080600060a0868803121561296757600080fd5b60006129758882890161259c565b95505060206129868882890161259c565b945050604061299788828901612897565b93505060606129a88882890161259c565b92505060806129b988828901612897565b9150509295509295909350565b600080604083850312156129d957600080fd5b60006129e78582860161259c565b92505060206129f885828601612614565b9150509250929050565b60008060408385031215612a1557600080fd5b6000612a238582860161259c565b9250506020612a34858286016128ac565b9150509250929050565b600060208284031215612a5057600080fd5b6000612a5e84828501612629565b91505092915050565b600060208284031215612a7957600080fd5b6000612a8784828501612653565b91505092915050565b600060208284031215612aa257600080fd5b6000612ab084828501612668565b91505092915050565b600060208284031215612acb57600080fd5b600082013567ffffffffffffffff811115612ae557600080fd5b612af18482850161267d565b91505092915050565b600060208284031215612b0c57600080fd5b600082013567ffffffffffffffff811115612b2657600080fd5b612b32848285016126a7565b91505092915050565b600060208284031215612b4d57600080fd5b600082013567ffffffffffffffff811115612b6757600080fd5b612b73848285016127b5565b91505092915050565b600060208284031215612b8e57600080fd5b6000612b9c84828501612897565b91505092915050565b6000612bb18383612c6a565b60408301905092915050565b6000612bc983836130bf565b60208301905092915050565b6000612be183836130dd565b60208301905092915050565b612bf6816136e1565b82525050565b612c0d612c08826136e1565b613898565b82525050565b612c1c816135ea565b612c26818461363d565b9250612c31826135c6565b8060005b83811015612c62578151612c498782612ba5565b9650612c5483613616565b925050600181019050612c35565b505050505050565b612c73816135f5565b612c7d8184613648565b9250612c88826135d0565b8060005b83811015612cb9578151612ca08782612bbd565b9650612cab83613623565b925050600181019050612c8c565b505050505050565b612cca816135f5565b612cd48184613653565b9250612cdf826135d0565b8060005b83811015612d10578151612cf78782612bbd565b9650612d0283613623565b925050600181019050612ce3565b505050505050565b6000612d2382613600565b612d2d818561365e565b9350612d38836135da565b8060005b83811015612d69578151612d508882612bbd565b9750612d5b83613630565b925050600181019050612d3c565b5085935050505092915050565b6000612d8182613600565b612d8b818561366f565b9350612d96836135da565b8060005b83811015612dc7578151612dae8882612bd5565b9750612db983613630565b925050600181019050612d9a565b5085935050505092915050565b612ddd816136f3565b82525050565b612dec8161372b565b82525050565b612dfb8161377c565b82525050565b612e0a816137a0565b82525050565b6000612e1b8261360b565b612e25818561367a565b9350612e358185602086016137c1565b612e3e81613984565b840191505092915050565b6000612e5660148361367a565b9150612e61826139a2565b602082019050919050565b6000612e79601c8361367a565b9150612e84826139cb565b602082019050919050565b6000612e9c60268361367a565b9150612ea7826139f4565b604082019050919050565b6000612ebf60158361367a565b9150612eca82613a43565b602082019050919050565b6000612ee2602c8361367a565b9150612eed82613a6c565b604082019050919050565b6000612f05601d8361367a565b9150612f1082613abb565b602082019050919050565b6000612f2860108361367a565b9150612f3382613ae4565b602082019050919050565b6000612f4b602e8361367a565b9150612f5682613b0d565b604082019050919050565b6000612f6e601a8361367a565b9150612f7982613b5c565b602082019050919050565b6000612f9160208361367a565b9150612f9c82613b85565b602082019050919050565b6000612fb460178361367a565b9150612fbf82613bae565b602082019050919050565b6000612fd760218361367a565b9150612fe282613bd7565b604082019050919050565b6000612ffa60168361367a565b915061300582613c26565b602082019050919050565b600061301d60198361367a565b915061302882613c4f565b602082019050919050565b6000613040602b8361367a565b915061304b82613c78565b604082019050919050565b6000613063601e8361367a565b915061306e82613cc7565b602082019050919050565b600061308660238361367a565b915061309182613cf0565b604082019050919050565b60006130a960158361367a565b91506130b482613d3f565b602082019050919050565b6130c881613755565b82525050565b6130d781613755565b82525050565b6130e681613755565b82525050565b6130fd6130f882613755565b6138bc565b82525050565b600061310f8288612bfc565b60148201915061311f8287612bfc565b60148201915061312f82866130ec565b60208201915061313f8285612bfc565b60148201915061314f82846130ec565b6020820191508190509695505050505050565b600061316e8284612d76565b915081905092915050565b600060208201905061318e6000830184612bed565b92915050565b60006040820190506131a96000830185612bed565b6131b660208301846130ce565b9392505050565b6000610120820190506131d36000830187612cc1565b6131e06040830186612c13565b6131ed60c0830185612cc1565b8181036101008301526132008184612d18565b905095945050505050565b60006020820190506132206000830184612dd4565b92915050565b600060208201905061323b6000830184612de3565b92915050565b60006020820190506132566000830184612df2565b92915050565b60006020820190506132716000830184612e01565b92915050565b600060208201905081810360008301526132918184612e10565b905092915050565b600060408201905081810360008301526132b38185612e10565b90506132c260208301846130ce565b9392505050565b600060208201905081810360008301526132e281612e49565b9050919050565b6000602082019050818103600083015261330281612e6c565b9050919050565b6000602082019050818103600083015261332281612e8f565b9050919050565b6000602082019050818103600083015261334281612eb2565b9050919050565b6000602082019050818103600083015261336281612ed5565b9050919050565b6000602082019050818103600083015261338281612ef8565b9050919050565b600060208201905081810360008301526133a281612f1b565b9050919050565b600060208201905081810360008301526133c281612f3e565b9050919050565b600060208201905081810360008301526133e281612f61565b9050919050565b6000602082019050818103600083015261340281612f84565b9050919050565b6000602082019050818103600083015261342281612fa7565b9050919050565b6000602082019050818103600083015261344281612fca565b9050919050565b6000602082019050818103600083015261346281612fed565b9050919050565b6000602082019050818103600083015261348281613010565b9050919050565b600060208201905081810360008301526134a281613033565b9050919050565b600060208201905081810360008301526134c281613056565b9050919050565b600060208201905081810360008301526134e281613079565b9050919050565b600060208201905081810360008301526135028161309c565b9050919050565b600060208201905061351e60008301846130ce565b92915050565b600061352e61353f565b905061353a828261381e565b919050565b6000604051905090565b600067ffffffffffffffff82111561356457613563613955565b5b602082029050919050565b600067ffffffffffffffff82111561358a57613589613955565b5b602082029050919050565b600067ffffffffffffffff8211156135b0576135af613955565b5b6135b982613984565b9050602081019050919050565b6000819050919050565b6000819050919050565b6000819050602082019050919050565b600060029050919050565b600060029050919050565b600081519050919050565b600081519050919050565b6000602082019050919050565b6000602082019050919050565b6000602082019050919050565b600081905092915050565b600081905092915050565b600081905092915050565b600082825260208201905092915050565b600081905092915050565b600082825260208201905092915050565b600061369682613755565b91506136a183613755565b9250827fffffffffffffffffffffffffffffffffffffffffffffffffffffffffffffffff038211156136d6576136d56138f7565b5b828201905092915050565b60006136ec82613735565b9050919050565b60008115159050919050565b60007fffffffffffffffffffffffffffffffffffffffff00000000000000000000000082169050919050565b6000819050919050565b600073ffffffffffffffffffffffffffffffffffffffff82169050919050565b6000819050919050565b600063ffffffff82169050919050565b600060ff82169050919050565b60006137878261378e565b9050919050565b600061379982613735565b9050919050565b60006137ab8261376f565b9050919050565b82818337600083830152505050565b60005b838110156137df5780820151818401526020810190506137c4565b838111156137ee576000848401525b50505050565b60006137ff82613755565b91506000821415613813576138126138f7565b5b600182039050919050565b61382782613984565b810181811067ffffffffffffffff8211171561384657613845613955565b5b80604052505050565b600061385a82613755565b91507fffffffffffffffffffffffffffffffffffffffffffffffffffffffffffffffff82141561388d5761388c6138f7565b5b600182019050919050565b60006138a3826138aa565b9050919050565b60006138b582613995565b9050919050565b6000819050919050565b60006138d182613755565b91506138dc83613755565b9250826138ec576138eb613926565b5b828206905092915050565b7f4e487b7100000000000000000000000000000000000000000000000000000000600052601160045260246000fd5b7f4e487b7100000000000000000000000000000000000000000000000000000000600052601260045260246000fd5b7f4e487b7100000000000000000000000000000000000000000000000000000000600052604160045260246000fd5b6000601f19601f8301169050919050565b60008160601b9050919050565b7f5061757361626c653a206e6f7420706175736564000000000000000000000000600082015250565b7f636f736d6f73206272696467652077617320737570706f727465642100000000600082015250565b7f4f776e61626c653a206e6577206f776e657220697320746865207a65726f206160008201527f6464726573730000000000000000000000000000000000000000000000000000602082015250565b7f44617461206861736820697320696e76616c6964210000000000000000000000600082015250565b7f54686973206272696467652069736e277420737570706f727420666f7220636c60008201527f616d6d696e6720746f6b656e0000000000000000000000000000000000000000602082015250565b7f42726964676520697320616c726561647920696e697469616c697a6564000000600082015250565b7f5061757361626c653a2070617573656400000000000000000000000000000000600082015250565b7f496e697469616c697a61626c653a20636f6e747261637420697320616c72656160008201527f647920696e697469616c697a6564000000000000000000000000000000000000602082015250565b7f446f206e6f7420737570706f7274207468697320627269646765000000000000600082015250565b7f4f776e61626c653a2063616c6c6572206973206e6f7420746865206f776e6572600082015250565b7f4465706f73697420726f6f7420697320696e76616c6964000000000000000000600082015250565b7f746f6b656e2077617320636c61696d6564207769746820746869732070726f6f60008201527f6600000000000000000000000000000000000000000000000000000000000000602082015250565b7f4e6f7420737570706f7274207468697320746f6b656e00000000000000000000600082015250565b7f496e76616c6964206465706f736974526f6f742070726f6f6600000000000000600082015250565b7f496e697469616c697a61626c653a20636f6e7472616374206973206e6f74206960008201527f6e697469616c697a696e67000000000000000000000000000000000000000000602082015250565b7f5f6c6576656c732073686f756c64206265206c657373207468616e2034300000600082015250565b7f5f6c6576656c732073686f756c642062652067726561746572207468616e207a60008201527f65726f0000000000000000000000000000000000000000000000000000000000602082015250565b7f746f6b656e207761732072656769737465726564210000000000000000000000600082015250565b613d71816136e1565b8114613d7c57600080fd5b50565b613d88816136f3565b8114613d9357600080fd5b50565b613d9f816136ff565b8114613daa57600080fd5b50565b613db68161372b565b8114613dc157600080fd5b50565b613dcd81613755565b8114613dd857600080fd5b50565b613de48161375f565b8114613def57600080fd5b5056fea264697066735822122048ed62f1ee56fbac97f3a002cf99ac64ee661b115d76df0487c952c146f49cbe64736f6c63430008040033",
  "linkReferences": {},
  "deployedLinkReferences": {}
}