{
  "_format": "hh-sol-artifact-1",
  "contractName": "OraisanBridge",
  "sourceName": "contracts/ethBridge/OraisanBridge.sol",
  "abi": [
    {
      "anonymous": false,
      "inputs": [
        {
          "indexed": true,
          "internalType": "uint256[]",
          "name": "inputs",
          "type": "uint256[]"
        },
        {
          "indexed": false,
          "internalType": "uint256",
          "name": "timestamp",
          "type": "uint256"
        }
      ],
      "name": "ClaimTransactionCompleted",
      "type": "event"
    },
    {
      "anonymous": false,
      "inputs": [
        {
          "indexed": false,
          "internalType": "uint8",
          "name": "version",
          "type": "uint8"
        }
      ],
      "name": "Initialized",
      "type": "event"
    },
    {
      "anonymous": false,
      "inputs": [
        {
          "indexed": true,
          "internalType": "address",
          "name": "previousOwner",
          "type": "address"
        },
        {
          "indexed": true,
          "internalType": "address",
          "name": "newOwner",
          "type": "address"
        }
      ],
      "name": "OwnershipTransferred",
      "type": "event"
    },
    {
      "anonymous": false,
      "inputs": [
        {
          "indexed": false,
          "internalType": "address",
          "name": "account",
          "type": "address"
        }
      ],
      "name": "Paused",
      "type": "event"
    },
    {
      "anonymous": false,
      "inputs": [
        {
          "indexed": false,
          "internalType": "address",
          "name": "account",
          "type": "address"
        }
      ],
      "name": "Unpaused",
      "type": "event"
    },
    {
      "anonymous": false,
      "inputs": [
        {
          "indexed": true,
          "internalType": "uint256[]",
          "name": "inputs",
          "type": "uint256[]"
        },
        {
          "indexed": false,
          "internalType": "uint256",
          "name": "timestamp",
          "type": "uint256"
        }
      ],
      "name": "UpdateDepositRootCompleted",
      "type": "event"
    },
    {
      "inputs": [],
      "name": "ROOT_HISTORY_SIZE",
      "outputs": [
        {
          "internalType": "uint256",
          "name": "",
          "type": "uint256"
        }
      ],
      "stateMutability": "view",
      "type": "function"
    },
    {
      "inputs": [
        {
          "components": [
            {
              "internalType": "string",
              "name": "optionName",
              "type": "string"
            },
            {
              "internalType": "uint256[2]",
              "name": "pi_a",
              "type": "uint256[2]"
            },
            {
              "internalType": "uint256[2][2]",
              "name": "pi_b",
              "type": "uint256[2][2]"
            },
            {
              "internalType": "uint256[2]",
              "name": "pi_c",
              "type": "uint256[2]"
            },
            {
              "internalType": "address",
              "name": "eth_bridge_address",
              "type": "address"
            },
            {
              "internalType": "address",
              "name": "eth_receiver",
              "type": "address"
            },
            {
              "internalType": "uint256",
              "name": "amount",
              "type": "uint256"
            },
            {
              "internalType": "address",
              "name": "eth_token_address",
              "type": "address"
            },
            {
              "internalType": "uint256",
              "name": "key",
              "type": "uint256"
            },
            {
              "internalType": "uint256",
              "name": "depositRoot",
              "type": "uint256"
            }
          ],
          "internalType": "struct IVerifier.ClaimTransactionProof",
          "name": "_claimTransactionProof",
          "type": "tuple"
        }
      ],
      "name": "claimTransaction",
      "outputs": [],
      "stateMutability": "nonpayable",
      "type": "function"
    },
    {
      "inputs": [
        {
          "internalType": "address",
          "name": "",
          "type": "address"
        }
      ],
      "name": "cosmosToEthTokenAddress",
      "outputs": [
        {
          "internalType": "address",
          "name": "",
          "type": "address"
        }
      ],
      "stateMutability": "view",
      "type": "function"
    },
    {
      "inputs": [],
      "name": "currentDepositRoot",
      "outputs": [
        {
          "internalType": "uint256",
          "name": "",
          "type": "uint256"
        }
      ],
      "stateMutability": "view",
      "type": "function"
    },
    {
      "inputs": [
        {
          "internalType": "address",
          "name": "_cosmosTokenAddress",
          "type": "address"
        }
      ],
      "name": "deleteTokenPair",
      "outputs": [],
      "stateMutability": "nonpayable",
      "type": "function"
    },
    {
      "inputs": [
        {
          "internalType": "uint256",
          "name": "",
          "type": "uint256"
        }
      ],
      "name": "depositRoots",
      "outputs": [
        {
          "internalType": "uint256",
          "name": "",
          "type": "uint256"
        }
      ],
      "stateMutability": "view",
      "type": "function"
    },
    {
      "inputs": [
        {
          "internalType": "address",
          "name": "eth_bridge_address",
          "type": "address"
        },
        {
          "internalType": "address",
          "name": "eth_receiver",
          "type": "address"
        },
        {
          "internalType": "uint256",
          "name": "amount",
          "type": "uint256"
        },
        {
          "internalType": "address",
          "name": "eth_token_address",
          "type": "address"
        },
        {
          "internalType": "uint256",
          "name": "key",
          "type": "uint256"
        }
      ],
      "name": "encodeProof",
      "outputs": [
        {
          "internalType": "bytes",
          "name": "",
          "type": "bytes"
        }
      ],
      "stateMutability": "pure",
      "type": "function"
    },
    {
      "inputs": [
        {
          "internalType": "address",
          "name": "",
          "type": "address"
        }
      ],
      "name": "ethToCosmosTokenAddress",
      "outputs": [
        {
          "internalType": "address",
          "name": "",
          "type": "address"
        }
      ],
      "stateMutability": "view",
      "type": "function"
    },
    {
      "inputs": [],
      "name": "getLastDepositRoot",
      "outputs": [
        {
          "internalType": "uint256",
          "name": "",
          "type": "uint256"
        }
      ],
      "stateMutability": "view",
      "type": "function"
    },
    {
      "inputs": [
        {
          "internalType": "address",
          "name": "_cosmosBridge",
          "type": "address"
        }
      ],
      "name": "getSupportCosmosBridge",
      "outputs": [
        {
          "internalType": "bool",
          "name": "",
          "type": "bool"
        }
      ],
      "stateMutability": "view",
      "type": "function"
    },
    {
      "inputs": [
        {
          "internalType": "address",
          "name": "_cosmosToken",
          "type": "address"
        }
      ],
      "name": "getTokenPairOfCosmosToken",
      "outputs": [
        {
          "internalType": "address",
          "name": "",
          "type": "address"
        }
      ],
      "stateMutability": "view",
      "type": "function"
    },
    {
      "inputs": [
        {
          "internalType": "address",
          "name": "_ethToken",
          "type": "address"
        }
      ],
      "name": "getTokenPairOfEthToken",
      "outputs": [
        {
          "internalType": "address",
          "name": "",
          "type": "address"
        }
      ],
      "stateMutability": "view",
      "type": "function"
    },
    {
      "inputs": [
        {
          "internalType": "address",
          "name": "_libAddressManager",
          "type": "address"
        },
        {
          "internalType": "uint32",
          "name": "_merkleTreeHeight",
          "type": "uint32"
        }
      ],
      "name": "initialize",
      "outputs": [],
      "stateMutability": "nonpayable",
      "type": "function"
    },
    {
      "inputs": [
        {
          "internalType": "uint256",
          "name": "",
          "type": "uint256"
        }
      ],
      "name": "isClaimed",
      "outputs": [
        {
          "internalType": "bool",
          "name": "",
          "type": "bool"
        }
      ],
      "stateMutability": "view",
      "type": "function"
    },
    {
      "inputs": [
        {
          "internalType": "uint256",
          "name": "_depositRoot",
          "type": "uint256"
        }
      ],
      "name": "isKnownDepostRoot",
      "outputs": [
        {
          "internalType": "bool",
          "name": "",
          "type": "bool"
        }
      ],
      "stateMutability": "view",
      "type": "function"
    },
    {
      "inputs": [
        {
          "internalType": "address",
          "name": "",
          "type": "address"
        }
      ],
      "name": "isSupportCosmosBridge",
      "outputs": [
        {
          "internalType": "bool",
          "name": "",
          "type": "bool"
        }
      ],
      "stateMutability": "view",
      "type": "function"
    },
    {
      "inputs": [],
      "name": "levels",
      "outputs": [
        {
          "internalType": "uint256",
          "name": "",
          "type": "uint256"
        }
      ],
      "stateMutability": "view",
      "type": "function"
    },
    {
      "inputs": [],
      "name": "libAddressManager",
      "outputs": [
        {
          "internalType": "contract Lib_AddressManager",
          "name": "",
          "type": "address"
        }
      ],
      "stateMutability": "view",
      "type": "function"
    },
    {
      "inputs": [],
      "name": "owner",
      "outputs": [
        {
          "internalType": "address",
          "name": "",
          "type": "address"
        }
      ],
      "stateMutability": "view",
      "type": "function"
    },
    {
      "inputs": [],
      "name": "pause",
      "outputs": [],
      "stateMutability": "nonpayable",
      "type": "function"
    },
    {
      "inputs": [],
      "name": "paused",
      "outputs": [
        {
          "internalType": "bool",
          "name": "",
          "type": "bool"
        }
      ],
      "stateMutability": "view",
      "type": "function"
    },
    {
      "inputs": [
        {
          "internalType": "address",
          "name": "_cosmosBridge",
          "type": "address"
        },
        {
          "internalType": "bool",
          "name": "_isSupport",
          "type": "bool"
        }
      ],
      "name": "registerCosmosBridge",
      "outputs": [],
      "stateMutability": "nonpayable",
      "type": "function"
    },
    {
      "inputs": [
        {
          "internalType": "address",
          "name": "_cosmosTokenAddress",
          "type": "address"
        },
        {
          "internalType": "address",
          "name": "_ethTokenAddress",
          "type": "address"
        }
      ],
      "name": "registerTokenPair",
      "outputs": [],
      "stateMutability": "nonpayable",
      "type": "function"
    },
    {
      "inputs": [],
      "name": "renounceOwnership",
      "outputs": [],
      "stateMutability": "nonpayable",
      "type": "function"
    },
    {
      "inputs": [
        {
          "internalType": "string",
          "name": "_name",
          "type": "string"
        }
      ],
      "name": "resolve",
      "outputs": [
        {
          "internalType": "address",
          "name": "",
          "type": "address"
        }
      ],
      "stateMutability": "view",
      "type": "function"
    },
    {
      "inputs": [
        {
          "internalType": "bytes32",
          "name": "",
          "type": "bytes32"
        }
      ],
      "name": "sentProof",
      "outputs": [
        {
          "internalType": "bool",
          "name": "",
          "type": "bool"
        }
      ],
      "stateMutability": "view",
      "type": "function"
    },
    {
      "inputs": [
        {
          "internalType": "address",
          "name": "newOwner",
          "type": "address"
        }
      ],
      "name": "transferOwnership",
      "outputs": [],
      "stateMutability": "nonpayable",
      "type": "function"
    },
    {
      "inputs": [],
      "name": "unpauseContract",
      "outputs": [],
      "stateMutability": "nonpayable",
      "type": "function"
    },
    {
      "inputs": [
        {
          "components": [
            {
              "internalType": "string",
              "name": "optionName",
              "type": "string"
            },
            {
              "internalType": "uint256[2]",
              "name": "pi_a",
              "type": "uint256[2]"
            },
            {
              "internalType": "uint256[2][2]",
              "name": "pi_b",
              "type": "uint256[2][2]"
            },
            {
              "internalType": "uint256[2]",
              "name": "pi_c",
              "type": "uint256[2]"
            },
            {
              "internalType": "address",
              "name": "cosmosSender",
              "type": "address"
            },
            {
              "internalType": "address",
              "name": "cosmosBridge",
              "type": "address"
            },
            {
              "internalType": "uint256",
              "name": "depositRoot",
              "type": "uint256"
            },
            {
              "internalType": "bytes20",
              "name": "dataHash",
              "type": "bytes20"
            }
          ],
          "internalType": "struct IVerifier.DepositRootProof",
          "name": "_depositRootProof",
          "type": "tuple"
        }
      ],
      "name": "updateRootDepositTree",
      "outputs": [
        {
          "internalType": "bool",
          "name": "",
          "type": "bool"
        }
      ],
      "stateMutability": "nonpayable",
      "type": "function"
    }
  ],
  "bytecode": "0x608060405234801561001057600080fd5b50613ca7806100206000396000f3fe608060405234801561001057600080fd5b50600436106101cf5760003560e01c80638456cb5911610104578063bae94466116100a2578063defc7e7e11610071578063defc7e7e14610544578063ec552d4214610574578063f0bbfbd2146105a4578063f2fde38b146105c0576101cf565b8063bae94466146104aa578063c0d34b8a146104da578063c5e4c9f91461050a578063cd87a3b414610526576101cf565b80639df22cd5116100de5780639df22cd5146104225780639e34070f146104405780639ef46d0f14610470578063b33712c5146104a0576101cf565b80638456cb59146103ca5780638da5cb5b146103d45780639139153f146103f2576101cf565b80634ecf518b116101715780635e971c561161014b5780635e971c5614610330578063715018a614610360578063733314b01461036a5780637ae1293f1461039a576101cf565b80634ecf518b146102d85780635583804c146102f65780635c975abb14610312576101cf565b8063299ca478116101ad578063299ca4781461023c5780632cd4300c1461025a57806341cfc05414610278578063461a4478146102a8576101cf565b80631201deea146101d45780631418c61c146101f057806317e1bcdb14610220575b600080fd5b6101ee60048036038101906101e991906127be565b6105dc565b005b61020a6004803603810190610205919061276c565b610850565b604051610217919061304e565b60405180910390f35b61023a6004803603810190610235919061276c565b6108b9565b005b610244610a27565b604051610251919061311d565b60405180910390f35b610262610a4d565b60405161026f91906133b5565b60405180910390f35b610292600480360381019061028d919061276c565b610a6a565b60405161029f919061304e565b60405180910390f35b6102c260048036038101906102bd9190612964565b610a9d565b6040516102cf919061304e565b60405180910390f35b6102e0610b50565b6040516102ed91906133b5565b60405180910390f35b610310600480360381019061030b91906129a5565b610b56565b005b61031a6111ec565b60405161032791906130e0565b60405180910390f35b61034a6004803603810190610345919061293b565b611203565b60405161035791906130e0565b60405180910390f35b610368611223565b005b610384600480360381019061037f919061276c565b611237565b60405161039191906130e0565b60405180910390f35b6103b460048036038101906103af9190612a27565b611257565b6040516103c191906130e0565b60405180910390f35b6103d26112ce565b005b6103dc6112e0565b6040516103e9919061304e565b60405180910390f35b61040c6004803603810190610407919061276c565b61130a565b604051610419919061304e565b60405180910390f35b61042a611373565b60405161043791906133b5565b60405180910390f35b61045a60048036038101906104559190612a27565b611379565b60405161046791906130e0565b60405180910390f35b61048a60048036038101906104859190612a27565b611399565b60405161049791906133b5565b60405180910390f35b6104a86113b1565b005b6104c460048036038101906104bf91906129e6565b6113c3565b6040516104d191906130e0565b60405180910390f35b6104f460048036038101906104ef919061276c565b6118c6565b60405161050191906130e0565b60405180910390f35b610524600480360381019061051f91906128ad565b61191c565b005b61052e611b2b565b60405161053b91906133b5565b60405180910390f35b61055e6004803603810190610559919061276c565b611b31565b60405161056b919061304e565b60405180910390f35b61058e600480360381019061058991906127fa565b611b64565b60405161059b91906130fb565b60405180910390f35b6105be60048036038101906105b99190612871565b611b99565b005b6105da60048036038101906105d5919061276c565b611c97565b005b6105e4611d1b565b6105ec611d65565b600073ffffffffffffffffffffffffffffffffffffffff1660ce60008473ffffffffffffffffffffffffffffffffffffffff1673ffffffffffffffffffffffffffffffffffffffff16815260200190815260200160002060009054906101000a900473ffffffffffffffffffffffffffffffffffffffff1673ffffffffffffffffffffffffffffffffffffffff1614806107115750600073ffffffffffffffffffffffffffffffffffffffff1660cf60008373ffffffffffffffffffffffffffffffffffffffff1673ffffffffffffffffffffffffffffffffffffffff16815260200190815260200160002060009054906101000a900473ffffffffffffffffffffffffffffffffffffffff1673ffffffffffffffffffffffffffffffffffffffff16145b610750576040517f08c379a000000000000000000000000000000000000000000000000000000000815260040161074790613395565b60405180910390fd5b8060ce60008473ffffffffffffffffffffffffffffffffffffffff1673ffffffffffffffffffffffffffffffffffffffff16815260200190815260200160002060006101000a81548173ffffffffffffffffffffffffffffffffffffffff021916908373ffffffffffffffffffffffffffffffffffffffff1602179055508160cf60008373ffffffffffffffffffffffffffffffffffffffff1673ffffffffffffffffffffffffffffffffffffffff16815260200190815260200160002060006101000a81548173ffffffffffffffffffffffffffffffffffffffff021916908373ffffffffffffffffffffffffffffffffffffffff1602179055505050565b600060ce60008373ffffffffffffffffffffffffffffffffffffffff1673ffffffffffffffffffffffffffffffffffffffff16815260200190815260200160002060009054906101000a900473ffffffffffffffffffffffffffffffffffffffff169050919050565b6108c1611d65565b600060ce60008373ffffffffffffffffffffffffffffffffffffffff1673ffffffffffffffffffffffffffffffffffffffff16815260200190815260200160002060009054906101000a900473ffffffffffffffffffffffffffffffffffffffff169050600060ce60008473ffffffffffffffffffffffffffffffffffffffff1673ffffffffffffffffffffffffffffffffffffffff16815260200190815260200160002060006101000a81548173ffffffffffffffffffffffffffffffffffffffff021916908373ffffffffffffffffffffffffffffffffffffffff160217905550600060cf60008373ffffffffffffffffffffffffffffffffffffffff1673ffffffffffffffffffffffffffffffffffffffff16815260200190815260200160002060006101000a81548173ffffffffffffffffffffffffffffffffffffffff021916908373ffffffffffffffffffffffffffffffffffffffff1602179055505050565b600060029054906101000a900473ffffffffffffffffffffffffffffffffffffffff1681565b600060046000600354815260200190815260200160002054905090565b60cf6020528060005260406000206000915054906101000a900473ffffffffffffffffffffffffffffffffffffffff1681565b60008060029054906101000a900473ffffffffffffffffffffffffffffffffffffffff1673ffffffffffffffffffffffffffffffffffffffff1663bf40fac1836040518263ffffffff1660e01b8152600401610af99190613153565b60206040518083038186803b158015610b1157600080fd5b505afa158015610b25573d6000803e3d6000fd5b505050506040513d601f19601f82011682018060405250810190610b499190612795565b9050919050565b60025481565b600073ffffffffffffffffffffffffffffffffffffffff1660cf60008360e0015173ffffffffffffffffffffffffffffffffffffffff1673ffffffffffffffffffffffffffffffffffffffff16815260200190815260200160002060009054906101000a900473ffffffffffffffffffffffffffffffffffffffff1673ffffffffffffffffffffffffffffffffffffffff161415610c29576040517f08c379a0000000000000000000000000000000000000000000000000000000008152600401610c20906132f5565b60405180910390fd5b3073ffffffffffffffffffffffffffffffffffffffff16816080015173ffffffffffffffffffffffffffffffffffffffff1614610c9b576040517f08c379a0000000000000000000000000000000000000000000000000000000008152600401610c92906131f5565b60405180910390fd5b610ca9816101200151611257565b610ce8576040517f08c379a0000000000000000000000000000000000000000000000000000000008152600401610cdf906132b5565b60405180910390fd5b6000610d0c82608001518360a001518460c001518560e00151866101000151611b64565b905060d160008280519060200120815260200190815260200160002060009054906101000a900460ff1615610d76576040517f08c379a0000000000000000000000000000000000000000000000000000000008152600401610d6d906132d5565b60405180910390fd5b600160d160008380519060200120815260200190815260200160002060006101000a81548160ff0219169083151502179055506000826000015190506000836020015190506000846040015190506000856060015190506000600667ffffffffffffffff811115610e10577f4e487b7100000000000000000000000000000000000000000000000000000000600052604160045260246000fd5b604051908082528060200260200182016040528015610e3e5781602001602082028036833780820191505090505b509050866080015173ffffffffffffffffffffffffffffffffffffffff1681600081518110610e96577f4e487b7100000000000000000000000000000000000000000000000000000000600052603260045260246000fd5b6020026020010181815250508660a0015173ffffffffffffffffffffffffffffffffffffffff1681600181518110610ef7577f4e487b7100000000000000000000000000000000000000000000000000000000600052603260045260246000fd5b6020026020010181815250508660c0015181600281518110610f42577f4e487b7100000000000000000000000000000000000000000000000000000000600052603260045260246000fd5b6020026020010181815250508660e0015173ffffffffffffffffffffffffffffffffffffffff1681600381518110610fa3577f4e487b7100000000000000000000000000000000000000000000000000000000600052603260045260246000fd5b60200260200101818152505086610100015181600481518110610fef577f4e487b7100000000000000000000000000000000000000000000000000000000600052603260045260246000fd5b6020026020010181815250508661012001518160058151811061103b577f4e487b7100000000000000000000000000000000000000000000000000000000600052603260045260246000fd5b60200260200101818152505061105085610a9d565b73ffffffffffffffffffffffffffffffffffffffff1663c32e370e858585856040518563ffffffff1660e01b815260040161108e9493929190613092565b60206040518083038186803b1580156110a657600080fd5b505afa1580156110ba573d6000803e3d6000fd5b505050506040513d601f19601f820116820180604052508101906110de91906128e9565b61111d576040517f08c379a000000000000000000000000000000000000000000000000000000000815260040161111490613315565b60405180910390fd5b8660e0015173ffffffffffffffffffffffffffffffffffffffff166340c10f198860a001518960c001516040518363ffffffff1660e01b8152600401611164929190613069565b600060405180830381600087803b15801561117e57600080fd5b505af1158015611192573d6000803e3d6000fd5b50505050806040516111a49190613037565b60405180910390207f4e7589f75d86eccc05b3d94910b69255d4a905f5381ec472e446718f2c460794426040516111db91906133b5565b60405180910390a250505050505050565b6000606960009054906101000a900460ff16905090565b60d16020528060005260406000206000915054906101000a900460ff1681565b61122b611d65565b6112356000611de3565b565b60cd6020528060005260406000206000915054906101000a900460ff1681565b60008082141561126a57600090506112c9565b6000600354905060008190505b600460008281526020019081526020016000205484141561129d576001925050506112c9565b60008114156112ac5760015490505b80806112b7906136bc565b91505081811415611277576000925050505b919050565b6112d6611d65565b6112de611ea9565b565b6000603760009054906101000a900473ffffffffffffffffffffffffffffffffffffffff16905090565b600060cf60008373ffffffffffffffffffffffffffffffffffffffff1673ffffffffffffffffffffffffffffffffffffffff16815260200190815260200160002060009054906101000a900473ffffffffffffffffffffffffffffffffffffffff169050919050565b60035481565b60d06020528060005260406000206000915054906101000a900460ff1681565b60046020528060005260406000206000915090505481565b6113b9611d65565b6113c1611f0c565b565b60006113cd611d1b565b60cd60008360a0015173ffffffffffffffffffffffffffffffffffffffff1673ffffffffffffffffffffffffffffffffffffffff16815260200190815260200160002060009054906101000a900460ff1661145d576040517f08c379a000000000000000000000000000000000000000000000000000000000815260040161145490613275565b60405180910390fd5b61149b6040518060400160405280601381526020017f434f534d4f535f424c4f434b5f48454144455200000000000000000000000000815250610a9d565b73ffffffffffffffffffffffffffffffffffffffff16636096ade06040518163ffffffff1660e01b815260040160206040518083038186803b1580156114e057600080fd5b505afa1580156114f4573d6000803e3d6000fd5b505050506040513d601f19601f820116820180604052508101906115189190612912565b6bffffffffffffffffffffffff19168260e001516bffffffffffffffffffffffff19161461157b576040517f08c379a0000000000000000000000000000000000000000000000000000000008152600401611572906131d5565b60405180910390fd5b6000826000015190506000836020015190506000846040015190506000856060015190506000600467ffffffffffffffff8111156115e2577f4e487b7100000000000000000000000000000000000000000000000000000000600052604160045260246000fd5b6040519080825280602002602001820160405280156116105781602001602082028036833780820191505090505b509050866080015173ffffffffffffffffffffffffffffffffffffffff1681600081518110611668577f4e487b7100000000000000000000000000000000000000000000000000000000600052603260045260246000fd5b6020026020010181815250508660a0015173ffffffffffffffffffffffffffffffffffffffff16816001815181106116c9577f4e487b7100000000000000000000000000000000000000000000000000000000600052603260045260246000fd5b6020026020010181815250508660c0015181600281518110611714577f4e487b7100000000000000000000000000000000000000000000000000000000600052603260045260246000fd5b6020026020010181815250508660e0015160601c73ffffffffffffffffffffffffffffffffffffffff1681600381518110611778577f4e487b7100000000000000000000000000000000000000000000000000000000600052603260045260246000fd5b60200260200101818152505061178d85610a9d565b73ffffffffffffffffffffffffffffffffffffffff1663c32e370e858585856040518563ffffffff1660e01b81526004016117cb9493929190613092565b60206040518083038186803b1580156117e357600080fd5b505afa1580156117f7573d6000803e3d6000fd5b505050506040513d601f19601f8201168201806040525081019061181b91906128e9565b61185a576040517f08c379a000000000000000000000000000000000000000000000000000000000815260040161185190613315565b60405180910390fd5b60006118698860c00151611f6f565b9050816040516118799190613037565b60405180910390207fb863fd571fb24a5c7ec2e5259d558b03685336f31dcbf081507d6c4254bed305426040516118b091906133b5565b60405180910390a2809650505050505050919050565b600060cd60008373ffffffffffffffffffffffffffffffffffffffff1673ffffffffffffffffffffffffffffffffffffffff16815260200190815260200160002060009054906101000a900460ff169050919050565b60008060019054906101000a900460ff1615905080801561194d5750600160008054906101000a900460ff1660ff16105b8061197a575061195c30611fbb565b1580156119795750600160008054906101000a900460ff1660ff16145b5b6119b9576040517f08c379a00000000000000000000000000000000000000000000000000000000081526004016119b090613255565b60405180910390fd5b60016000806101000a81548160ff021916908360ff16021790555080156119f6576001600060016101000a81548160ff0219169083151502179055505b6000600254148015611a565750600073ffffffffffffffffffffffffffffffffffffffff16600060029054906101000a900473ffffffffffffffffffffffffffffffffffffffff1673ffffffffffffffffffffffffffffffffffffffff16145b611a95576040517f08c379a0000000000000000000000000000000000000000000000000000000008152600401611a8c90613215565b60405180910390fd5b611a9e83611fde565b611aad8263ffffffff16612071565b611ab561217b565b611abd6121cc565b611ac561222d565b611acd612299565b8015611b265760008060016101000a81548160ff0219169083151502179055507f7f26b83ff96e1f2b6a682f133852f6798a09c465da95921460cefb38474024986001604051611b1d9190613138565b60405180910390a15b505050565b60015481565b60ce6020528060005260406000206000915054906101000a900473ffffffffffffffffffffffffffffffffffffffff1681565b60608585858585604051602001611b7f959493929190612fd8565b604051602081830303815290604052905095945050505050565b611ba1611d1b565b611ba9611d65565b80151560cd60008473ffffffffffffffffffffffffffffffffffffffff1673ffffffffffffffffffffffffffffffffffffffff16815260200190815260200160002060009054906101000a900460ff1615151415611c3c576040517f08c379a0000000000000000000000000000000000000000000000000000000008152600401611c3390613195565b60405180910390fd5b8060cd60008473ffffffffffffffffffffffffffffffffffffffff1673ffffffffffffffffffffffffffffffffffffffff16815260200190815260200160002060006101000a81548160ff0219169083151502179055505050565b611c9f611d65565b600073ffffffffffffffffffffffffffffffffffffffff168173ffffffffffffffffffffffffffffffffffffffff161415611d0f576040517f08c379a0000000000000000000000000000000000000000000000000000000008152600401611d06906131b5565b60405180910390fd5b611d1881611de3565b50565b611d236111ec565b15611d63576040517f08c379a0000000000000000000000000000000000000000000000000000000008152600401611d5a90613235565b60405180910390fd5b565b611d6d6122f2565b73ffffffffffffffffffffffffffffffffffffffff16611d8b6112e0565b73ffffffffffffffffffffffffffffffffffffffff1614611de1576040517f08c379a0000000000000000000000000000000000000000000000000000000008152600401611dd890613295565b60405180910390fd5b565b6000603760009054906101000a900473ffffffffffffffffffffffffffffffffffffffff16905081603760006101000a81548173ffffffffffffffffffffffffffffffffffffffff021916908373ffffffffffffffffffffffffffffffffffffffff1602179055508173ffffffffffffffffffffffffffffffffffffffff168173ffffffffffffffffffffffffffffffffffffffff167f8be0079c531659141344cd1fd0a4f28419497f9722a3daafe3b4186f6b6457e060405160405180910390a35050565b611eb1611d1b565b6001606960006101000a81548160ff0219169083151502179055507f62e78cea01bee320cd4e420270b5ea74000d11b0c9f74754ebdbfc544b05a258611ef56122f2565b604051611f02919061304e565b60405180910390a1565b611f146122fa565b6000606960006101000a81548160ff0219169083151502179055507f5db9ee0a495bf2e6ff9c91a7834c1ba4fdd244a5e8aa4e537bd38aeae4b073aa611f586122f2565b604051611f65919061304e565b60405180910390a1565b6000806001546001600354611f849190613553565b611f8e9190613745565b90508060038190555082600460006003548152602001908152602001600020819055506001915050919050565b6000808273ffffffffffffffffffffffffffffffffffffffff163b119050919050565b600060019054906101000a900460ff1661202d576040517f08c379a000000000000000000000000000000000000000000000000000000000815260040161202490613335565b60405180910390fd5b80600060026101000a81548173ffffffffffffffffffffffffffffffffffffffff021916908373ffffffffffffffffffffffffffffffffffffffff16021790555050565b600060019054906101000a900460ff166120c0576040517f08c379a00000000000000000000000000000000000000000000000000000000081526004016120b790613335565b60405180910390fd5b60008111612103576040517f08c379a00000000000000000000000000000000000000000000000000000000081526004016120fa90613375565b60405180910390fd5b60288110612146576040517f08c379a000000000000000000000000000000000000000000000000000000000815260040161213d90613355565b60405180910390fd5b80600281905550600a600181905550600060038190555060006004600060035481526020019081526020016000208190555050565b600060019054906101000a900460ff166121ca576040517f08c379a00000000000000000000000000000000000000000000000000000000081526004016121c190613335565b60405180910390fd5b565b600060019054906101000a900460ff1661221b576040517f08c379a000000000000000000000000000000000000000000000000000000000815260040161221290613335565b60405180910390fd5b61222b6122266122f2565b611de3565b565b600060019054906101000a900460ff1661227c576040517f08c379a000000000000000000000000000000000000000000000000000000000815260040161227390613335565b60405180910390fd5b6000606960006101000a81548160ff021916908315150217905550565b600060019054906101000a900460ff166122e8576040517f08c379a00000000000000000000000000000000000000000000000000000000081526004016122df90613335565b60405180910390fd5b6001609b81905550565b600033905090565b6123026111ec565b612341576040517f08c379a000000000000000000000000000000000000000000000000000000000815260040161233890613175565b60405180910390fd5b565b6000612356612351846133f5565b6133d0565b9050808285604086028201111561236c57600080fd5b60005b8581101561239c57816123828882612498565b84526020840193506040830192505060018101905061236f565b5050509392505050565b60006123b96123b48461341b565b6133d0565b905080828560208602820111156123cf57600080fd5b60005b858110156123ff57816123e58882612742565b8452602084019350602083019250506001810190506123d2565b5050509392505050565b600061241c61241784613441565b6133d0565b90508281526020810184848401111561243457600080fd5b61243f84828561367a565b509392505050565b60008135905061245681613be7565b92915050565b60008151905061246b81613be7565b92915050565b600082601f83011261248257600080fd5b600261248f848285612343565b91505092915050565b600082601f8301126124a957600080fd5b60026124b68482856123a6565b91505092915050565b6000813590506124ce81613bfe565b92915050565b6000815190506124e381613bfe565b92915050565b6000813590506124f881613c15565b92915050565b60008151905061250d81613c15565b92915050565b60008135905061252281613c2c565b92915050565b600082601f83011261253957600080fd5b8135612549848260208601612409565b91505092915050565b60006101e0828403121561256557600080fd5b6125706101406133d0565b9050600082013567ffffffffffffffff81111561258c57600080fd5b61259884828501612528565b60008301525060206125ac84828501612498565b60208301525060606125c084828501612471565b60408301525060e06125d484828501612498565b6060830152506101206125e984828501612447565b6080830152506101406125fe84828501612447565b60a08301525061016061261384828501612742565b60c08301525061018061262884828501612447565b60e0830152506101a061263d84828501612742565b610100830152506101c061265384828501612742565b6101208301525092915050565b60006101a0828403121561267357600080fd5b61267e6101006133d0565b9050600082013567ffffffffffffffff81111561269a57600080fd5b6126a684828501612528565b60008301525060206126ba84828501612498565b60208301525060606126ce84828501612471565b60408301525060e06126e284828501612498565b6060830152506101206126f784828501612447565b60808301525061014061270c84828501612447565b60a08301525061016061272184828501612742565b60c083015250610180612736848285016124e9565b60e08301525092915050565b60008135905061275181613c43565b92915050565b60008135905061276681613c5a565b92915050565b60006020828403121561277e57600080fd5b600061278c84828501612447565b91505092915050565b6000602082840312156127a757600080fd5b60006127b58482850161245c565b91505092915050565b600080604083850312156127d157600080fd5b60006127df85828601612447565b92505060206127f085828601612447565b9150509250929050565b600080600080600060a0868803121561281257600080fd5b600061282088828901612447565b955050602061283188828901612447565b945050604061284288828901612742565b935050606061285388828901612447565b925050608061286488828901612742565b9150509295509295909350565b6000806040838503121561288457600080fd5b600061289285828601612447565b92505060206128a3858286016124bf565b9150509250929050565b600080604083850312156128c057600080fd5b60006128ce85828601612447565b92505060206128df85828601612757565b9150509250929050565b6000602082840312156128fb57600080fd5b6000612909848285016124d4565b91505092915050565b60006020828403121561292457600080fd5b6000612932848285016124fe565b91505092915050565b60006020828403121561294d57600080fd5b600061295b84828501612513565b91505092915050565b60006020828403121561297657600080fd5b600082013567ffffffffffffffff81111561299057600080fd5b61299c84828501612528565b91505092915050565b6000602082840312156129b757600080fd5b600082013567ffffffffffffffff8111156129d157600080fd5b6129dd84828501612552565b91505092915050565b6000602082840312156129f857600080fd5b600082013567ffffffffffffffff811115612a1257600080fd5b612a1e84828501612660565b91505092915050565b600060208284031215612a3957600080fd5b6000612a4784828501612742565b91505092915050565b6000612a5c8383612b15565b60408301905092915050565b6000612a748383612f94565b60208301905092915050565b6000612a8c8383612fb2565b60208301905092915050565b612aa1816135a9565b82525050565b612ab8612ab3826135a9565b613717565b82525050565b612ac781613496565b612ad181846134f4565b9250612adc82613472565b8060005b83811015612b0d578151612af48782612a50565b9650612aff836134cd565b925050600181019050612ae0565b505050505050565b612b1e816134a1565b612b2881846134ff565b9250612b338261347c565b8060005b83811015612b64578151612b4b8782612a68565b9650612b56836134da565b925050600181019050612b37565b505050505050565b612b75816134a1565b612b7f818461350a565b9250612b8a8261347c565b8060005b83811015612bbb578151612ba28782612a68565b9650612bad836134da565b925050600181019050612b8e565b505050505050565b6000612bce826134ac565b612bd88185613515565b9350612be383613486565b8060005b83811015612c14578151612bfb8882612a68565b9750612c06836134e7565b925050600181019050612be7565b5085935050505092915050565b6000612c2c826134ac565b612c368185613526565b9350612c4183613486565b8060005b83811015612c72578151612c598882612a80565b9750612c64836134e7565b925050600181019050612c45565b5085935050505092915050565b612c88816135bb565b82525050565b6000612c99826134b7565b612ca38185613531565b9350612cb3818560208601613689565b612cbc81613803565b840191505092915050565b612cd081613644565b82525050565b612cdf81613668565b82525050565b6000612cf0826134c2565b612cfa8185613542565b9350612d0a818560208601613689565b612d1381613803565b840191505092915050565b6000612d2b601483613542565b9150612d3682613821565b602082019050919050565b6000612d4e601c83613542565b9150612d598261384a565b602082019050919050565b6000612d71602683613542565b9150612d7c82613873565b604082019050919050565b6000612d94601583613542565b9150612d9f826138c2565b602082019050919050565b6000612db7602c83613542565b9150612dc2826138eb565b604082019050919050565b6000612dda601d83613542565b9150612de58261393a565b602082019050919050565b6000612dfd601083613542565b9150612e0882613963565b602082019050919050565b6000612e20602e83613542565b9150612e2b8261398c565b604082019050919050565b6000612e43601a83613542565b9150612e4e826139db565b602082019050919050565b6000612e66602083613542565b9150612e7182613a04565b602082019050919050565b6000612e89601783613542565b9150612e9482613a2d565b602082019050919050565b6000612eac602183613542565b9150612eb782613a56565b604082019050919050565b6000612ecf601683613542565b9150612eda82613aa5565b602082019050919050565b6000612ef2601983613542565b9150612efd82613ace565b602082019050919050565b6000612f15602b83613542565b9150612f2082613af7565b604082019050919050565b6000612f38601e83613542565b9150612f4382613b46565b602082019050919050565b6000612f5b602383613542565b9150612f6682613b6f565b604082019050919050565b6000612f7e601583613542565b9150612f8982613bbe565b602082019050919050565b612f9d8161361d565b82525050565b612fac8161361d565b82525050565b612fbb8161361d565b82525050565b612fd2612fcd8261361d565b61373b565b82525050565b6000612fe48288612aa7565b601482019150612ff48287612aa7565b6014820191506130048286612fc1565b6020820191506130148285612aa7565b6014820191506130248284612fc1565b6020820191508190509695505050505050565b60006130438284612c21565b915081905092915050565b60006020820190506130636000830184612a98565b92915050565b600060408201905061307e6000830185612a98565b61308b6020830184612fa3565b9392505050565b6000610120820190506130a86000830187612b6c565b6130b56040830186612abe565b6130c260c0830185612b6c565b8181036101008301526130d58184612bc3565b905095945050505050565b60006020820190506130f56000830184612c7f565b92915050565b600060208201905081810360008301526131158184612c8e565b905092915050565b60006020820190506131326000830184612cc7565b92915050565b600060208201905061314d6000830184612cd6565b92915050565b6000602082019050818103600083015261316d8184612ce5565b905092915050565b6000602082019050818103600083015261318e81612d1e565b9050919050565b600060208201905081810360008301526131ae81612d41565b9050919050565b600060208201905081810360008301526131ce81612d64565b9050919050565b600060208201905081810360008301526131ee81612d87565b9050919050565b6000602082019050818103600083015261320e81612daa565b9050919050565b6000602082019050818103600083015261322e81612dcd565b9050919050565b6000602082019050818103600083015261324e81612df0565b9050919050565b6000602082019050818103600083015261326e81612e13565b9050919050565b6000602082019050818103600083015261328e81612e36565b9050919050565b600060208201905081810360008301526132ae81612e59565b9050919050565b600060208201905081810360008301526132ce81612e7c565b9050919050565b600060208201905081810360008301526132ee81612e9f565b9050919050565b6000602082019050818103600083015261330e81612ec2565b9050919050565b6000602082019050818103600083015261332e81612ee5565b9050919050565b6000602082019050818103600083015261334e81612f08565b9050919050565b6000602082019050818103600083015261336e81612f2b565b9050919050565b6000602082019050818103600083015261338e81612f4e565b9050919050565b600060208201905081810360008301526133ae81612f71565b9050919050565b60006020820190506133ca6000830184612fa3565b92915050565b60006133da6133eb565b90506133e682826136e6565b919050565b6000604051905090565b600067ffffffffffffffff8211156134105761340f6137d4565b5b602082029050919050565b600067ffffffffffffffff821115613436576134356137d4565b5b602082029050919050565b600067ffffffffffffffff82111561345c5761345b6137d4565b5b61346582613803565b9050602081019050919050565b6000819050919050565b6000819050919050565b6000819050602082019050919050565b600060029050919050565b600060029050919050565b600081519050919050565b600081519050919050565b600081519050919050565b6000602082019050919050565b6000602082019050919050565b6000602082019050919050565b600081905092915050565b600081905092915050565b600081905092915050565b600082825260208201905092915050565b600081905092915050565b600082825260208201905092915050565b600082825260208201905092915050565b600061355e8261361d565b91506135698361361d565b9250827fffffffffffffffffffffffffffffffffffffffffffffffffffffffffffffffff0382111561359e5761359d613776565b5b828201905092915050565b60006135b4826135fd565b9050919050565b60008115159050919050565b60007fffffffffffffffffffffffffffffffffffffffff00000000000000000000000082169050919050565b6000819050919050565b600073ffffffffffffffffffffffffffffffffffffffff82169050919050565b6000819050919050565b600063ffffffff82169050919050565b600060ff82169050919050565b600061364f82613656565b9050919050565b6000613661826135fd565b9050919050565b600061367382613637565b9050919050565b82818337600083830152505050565b60005b838110156136a757808201518184015260208101905061368c565b838111156136b6576000848401525b50505050565b60006136c78261361d565b915060008214156136db576136da613776565b5b600182039050919050565b6136ef82613803565b810181811067ffffffffffffffff8211171561370e5761370d6137d4565b5b80604052505050565b600061372282613729565b9050919050565b600061373482613814565b9050919050565b6000819050919050565b60006137508261361d565b915061375b8361361d565b92508261376b5761376a6137a5565b5b828206905092915050565b7f4e487b7100000000000000000000000000000000000000000000000000000000600052601160045260246000fd5b7f4e487b7100000000000000000000000000000000000000000000000000000000600052601260045260246000fd5b7f4e487b7100000000000000000000000000000000000000000000000000000000600052604160045260246000fd5b6000601f19601f8301169050919050565b60008160601b9050919050565b7f5061757361626c653a206e6f7420706175736564000000000000000000000000600082015250565b7f636f736d6f73206272696467652077617320737570706f727465642100000000600082015250565b7f4f776e61626c653a206e6577206f776e657220697320746865207a65726f206160008201527f6464726573730000000000000000000000000000000000000000000000000000602082015250565b7f44617461206861736820697320696e76616c6964210000000000000000000000600082015250565b7f54686973206272696467652069736e277420737570706f727420666f7220636c60008201527f616d6d696e6720746f6b656e0000000000000000000000000000000000000000602082015250565b7f42726964676520697320616c726561647920696e697469616c697a6564000000600082015250565b7f5061757361626c653a2070617573656400000000000000000000000000000000600082015250565b7f496e697469616c697a61626c653a20636f6e747261637420697320616c72656160008201527f647920696e697469616c697a6564000000000000000000000000000000000000602082015250565b7f446f206e6f7420737570706f7274207468697320627269646765000000000000600082015250565b7f4f776e61626c653a2063616c6c6572206973206e6f7420746865206f776e6572600082015250565b7f4465706f73697420726f6f7420697320696e76616c6964000000000000000000600082015250565b7f746f6b656e2077617320636c61696d6564207769746820746869732070726f6f60008201527f6600000000000000000000000000000000000000000000000000000000000000602082015250565b7f4e6f7420737570706f7274207468697320746f6b656e00000000000000000000600082015250565b7f496e76616c6964206465706f736974526f6f742070726f6f6600000000000000600082015250565b7f496e697469616c697a61626c653a20636f6e7472616374206973206e6f74206960008201527f6e697469616c697a696e67000000000000000000000000000000000000000000602082015250565b7f5f6c6576656c732073686f756c64206265206c657373207468616e2034300000600082015250565b7f5f6c6576656c732073686f756c642062652067726561746572207468616e207a60008201527f65726f0000000000000000000000000000000000000000000000000000000000602082015250565b7f746f6b656e207761732072656769737465726564210000000000000000000000600082015250565b613bf0816135a9565b8114613bfb57600080fd5b50565b613c07816135bb565b8114613c1257600080fd5b50565b613c1e816135c7565b8114613c2957600080fd5b50565b613c35816135f3565b8114613c4057600080fd5b50565b613c4c8161361d565b8114613c5757600080fd5b50565b613c6381613627565b8114613c6e57600080fd5b5056fea2646970667358221220589982d3571be7ee81fe95a7a00cc1acfbe23e2cf0652ea5aab4ffacdcc2141f64736f6c63430008040033",
  "linkReferences": {},
  "deployedLinkReferences": {}
}