{
  "_format": "hh-sol-artifact-1",
  "contractName": "VerifierClaimTransaction",
  "sourceName": "contracts/verifiers/transactions/verifyClaimTransaction.sol",
  "abi": [
    {
      "inputs": [
        {
          "internalType": "uint256[2]",
          "name": "a",
          "type": "uint256[2]"
        },
        {
          "internalType": "uint256[2][2]",
          "name": "b",
          "type": "uint256[2][2]"
        },
        {
          "internalType": "uint256[2]",
          "name": "c",
          "type": "uint256[2]"
        },
        {
          "internalType": "uint256[]",
          "name": "input",
          "type": "uint256[]"
        }
      ],
      "name": "verifyProof",
      "outputs": [
        {
          "internalType": "bool",
          "name": "r",
          "type": "bool"
        }
      ],
      "stateMutability": "view",
      "type": "function"
    }
  ],
  "bytecode": "0x608060405234801561001057600080fd5b50612549806100206000396000f3fe608060405234801561001057600080fd5b506004361061002b5760003560e01c8063c32e370e14610030575b600080fd5b61004a60048036038101906100459190611edc565b610060565b604051610057919061203a565b60405180910390f35b600061006a611bdb565b6040518060400160405280876000600281106100af577f4e487b7100000000000000000000000000000000000000000000000000000000600052603260045260246000fd5b60200201518152602001876001600281106100f3577f4e487b7100000000000000000000000000000000000000000000000000000000600052603260045260246000fd5b602002015181525081600001819052506040518060400160405280604051806040016040528088600060028110610153577f4e487b7100000000000000000000000000000000000000000000000000000000600052603260045260246000fd5b6020020151600060028110610191577f4e487b7100000000000000000000000000000000000000000000000000000000600052603260045260246000fd5b60200201518152602001886000600281106101d5577f4e487b7100000000000000000000000000000000000000000000000000000000600052603260045260246000fd5b6020020151600160028110610213577f4e487b7100000000000000000000000000000000000000000000000000000000600052603260045260246000fd5b60200201518152508152602001604051806040016040528088600160028110610265577f4e487b7100000000000000000000000000000000000000000000000000000000600052603260045260246000fd5b60200201516000600281106102a3577f4e487b7100000000000000000000000000000000000000000000000000000000600052603260045260246000fd5b60200201518152602001886001600281106102e7577f4e487b7100000000000000000000000000000000000000000000000000000000600052603260045260246000fd5b6020020151600160028110610325577f4e487b7100000000000000000000000000000000000000000000000000000000600052603260045260246000fd5b6020020151815250815250816020018190525060405180604001604052808560006002811061037d577f4e487b7100000000000000000000000000000000000000000000000000000000600052603260045260246000fd5b60200201518152602001856001600281106103c1577f4e487b7100000000000000000000000000000000000000000000000000000000600052603260045260246000fd5b602002015181525081604001819052506000835167ffffffffffffffff811115610414577f4e487b7100000000000000000000000000000000000000000000000000000000600052604160045260246000fd5b6040519080825280602002602001820160405280156104425781602001602082028036833780820191505090505b50905060005b84518110156104ea5784818151811061048a577f4e487b7100000000000000000000000000000000000000000000000000000000600052603260045260246000fd5b60200260200101518282815181106104cb577f4e487b7100000000000000000000000000000000000000000000000000000000600052603260045260246000fd5b60200260200101818152505080806104e2906122ee565b915050610448565b5060006104f78284610517565b14156105085760019250505061050f565b6000925050505b949350505050565b6000807f30644e72e131a029b85045b68181585d2833e84879b9709143e1f593f0000001905060006105476107a2565b90508060800151516001865161055d91906121c3565b1461059d576040517f08c379a000000000000000000000000000000000000000000000000000000000815260040161059490612055565b60405180910390fd5b60006040518060400160405280600081526020016000815250905060005b86518110156106fe57838782815181106105fe577f4e487b7100000000000000000000000000000000000000000000000000000000600052603260045260246000fd5b602002602001015110610646576040517f08c379a000000000000000000000000000000000000000000000000000000000815260040161063d90612095565b60405180910390fd5b6106e9826106e4856080015160018561065f91906121c3565b81518110610696577f4e487b7100000000000000000000000000000000000000000000000000000000600052603260045260246000fd5b60200260200101518a85815181106106d7577f4e487b7100000000000000000000000000000000000000000000000000000000600052603260045260246000fd5b6020026020010151610e90565b610fdf565b915080806106f6906122ee565b9150506105bb565b5061074e818360800151600081518110610741577f4e487b7100000000000000000000000000000000000000000000000000000000600052603260045260246000fd5b6020026020010151610fdf565b9050610784610760866000015161117a565b8660200151846000015185602001518587604001518b60400151896060015161121f565b610794576001935050505061079c565b600093505050505b92915050565b6107aa611c0e565b60405180604001604052807f2d4d9aa7e302d9df41749d5507949d05dbea33fbb16c643b22f599a2be6df2e281526020017f14bedd503c37ceb061d8ec60209fe345ce89830a19230301f076caff004d19268152508160000181905250604051806040016040528060405180604001604052807f0967032fcbf776d1afc985f88877f182d38480a653f2decaa9794cbc3bf3060c81526020017f0e187847ad4c798374d0d6732bf501847dd68bc0e071241e0213bc7fc13db7ab815250815260200160405180604001604052807f304cfbd1e08a704a99f5e847d93f8c3caafddec46b7a0d379da69a4d112346a781526020017f1739c1b1a457a8c7313123d24d2f9192f896b7c63eea05a9d57f06547ad0cec88152508152508160200181905250604051806040016040528060405180604001604052807f198e9393920d483a7260bfb731fb5d25f1aa493335a9e71297e485b7aef312c281526020017f1800deef121f1e76426a00665e5c4479674322d4f75edadd46debd5cd992f6ed815250815260200160405180604001604052807f090689d0585ff075ec9e99ad690c3395bc4b313370b38ef355acdadcd122975b81526020017f12c85ea5db8c6deb4aab71808dcb408fe3d1e7690c43d37b4ce6cc0166fa7daa8152508152508160400181905250604051806040016040528060405180604001604052807f198e9393920d483a7260bfb731fb5d25f1aa493335a9e71297e485b7aef312c281526020017f1800deef121f1e76426a00665e5c4479674322d4f75edadd46debd5cd992f6ed815250815260200160405180604001604052807f090689d0585ff075ec9e99ad690c3395bc4b313370b38ef355acdadcd122975b81526020017f12c85ea5db8c6deb4aab71808dcb408fe3d1e7690c43d37b4ce6cc0166fa7daa8152508152508160600181905250600667ffffffffffffffff811115610a97577f4e487b7100000000000000000000000000000000000000000000000000000000600052604160045260246000fd5b604051908082528060200260200182016040528015610ad057816020015b610abd611c55565b815260200190600190039081610ab55790505b50816080018190525060405180604001604052807f1edad0dfb3f972f9c7529d77f43475630fabe7a1921ca570b6229ece12f7104081526020017f24e3ab2755bd5724a6de6fc4b78c5536de30d8aafe0c2ef651a54d76f9a0f70c8152508160800151600081518110610b6c577f4e487b7100000000000000000000000000000000000000000000000000000000600052603260045260246000fd5b602002602001018190525060405180604001604052807f2df411dc760a17f19d4382bdd52def0cd78fc1acfb82f7251caaf387863e9c2f81526020017f1b680dcbd8acb902029a4b311786bea8e01d91945cf9cb866002381e3c37dc968152508160800151600181518110610c0a577f4e487b7100000000000000000000000000000000000000000000000000000000600052603260045260246000fd5b602002602001018190525060405180604001604052807f29beb5a1c80299594d6247454b4bbdb684a85ada88ad418d7ce4b8059caee24d81526020017f2ceb79b340c3ad0fdfcd81c9423826838a3570b92181cc3a0895ce24058c7d828152508160800151600281518110610ca8577f4e487b7100000000000000000000000000000000000000000000000000000000600052603260045260246000fd5b602002602001018190525060405180604001604052807f1d9e451c368c6db849b7fa57ec8adc123d3c47bd7938af80a7c37b984210993481526020017f178bb39c161c536ff4c96e7a520fa2f8e15784270b1f282f85e165e29386574c8152508160800151600381518110610d46577f4e487b7100000000000000000000000000000000000000000000000000000000600052603260045260246000fd5b602002602001018190525060405180604001604052807f2cc98fd942093e1f4fadd5a922f014c33f5a6ec2cde77ed20f9cfd6288fe940a81526020017f22eccaa0b366eb4dbdcc8eecc8dbbd5c15e420bcfd92c1380e944bdc9bf6577b8152508160800151600481518110610de4577f4e487b7100000000000000000000000000000000000000000000000000000000600052603260045260246000fd5b602002602001018190525060405180604001604052807f0d797aa5e215e8d7e22b64215bfd640ba9ca6821aad3c6da4ef09ae2a57e581d81526020017f0de9fe39f668f766d94b81a432ccf58fa3776e8a7ae75201685b2fe54cda81108152508160800151600581518110610e82577f4e487b7100000000000000000000000000000000000000000000000000000000600052603260045260246000fd5b602002602001018190525090565b610e98611c55565b610ea0611c6f565b836000015181600060038110610edf577f4e487b7100000000000000000000000000000000000000000000000000000000600052603260045260246000fd5b602002018181525050836020015181600160038110610f27577f4e487b7100000000000000000000000000000000000000000000000000000000600052603260045260246000fd5b6020020181815250508281600260038110610f6b577f4e487b7100000000000000000000000000000000000000000000000000000000600052603260045260246000fd5b602002018181525050600060608360808460076107d05a03fa90508060008114610f9457610f96565bfe5b5080610fd7576040517f08c379a0000000000000000000000000000000000000000000000000000000008152600401610fce90612075565b60405180910390fd5b505092915050565b610fe7611c55565b610fef611c91565b83600001518160006004811061102e577f4e487b7100000000000000000000000000000000000000000000000000000000600052603260045260246000fd5b602002018181525050836020015181600160048110611076577f4e487b7100000000000000000000000000000000000000000000000000000000600052603260045260246000fd5b6020020181815250508260000151816002600481106110be577f4e487b7100000000000000000000000000000000000000000000000000000000600052603260045260246000fd5b602002018181525050826020015181600360048110611106577f4e487b7100000000000000000000000000000000000000000000000000000000600052603260045260246000fd5b602002018181525050600060608360c08460066107d05a03fa9050806000811461112f57611131565bfe5b5080611172576040517f08c379a0000000000000000000000000000000000000000000000000000000008152600401611169906120d5565b60405180910390fd5b505092915050565b611182611c55565b60007f30644e72e131a029b85045b68181585d97816a916871ca8d3c208c16d87cfd479050600083600001511480156111bf575060008360200151145b156111e357604051806040016040528060008152602001600081525091505061121a565b6040518060400160405280846000015181526020018285602001516112089190612337565b836112139190612273565b8152509150505b919050565b600080600467ffffffffffffffff811115611263577f4e487b7100000000000000000000000000000000000000000000000000000000600052604160045260246000fd5b60405190808252806020026020018201604052801561129c57816020015b611289611c55565b8152602001906001900390816112815790505b5090506000600467ffffffffffffffff8111156112e2577f4e487b7100000000000000000000000000000000000000000000000000000000600052604160045260246000fd5b60405190808252806020026020018201604052801561131b57816020015b611308611cb3565b8152602001906001900390816113005790505b5090508a82600081518110611359577f4e487b7100000000000000000000000000000000000000000000000000000000600052603260045260246000fd5b6020026020010181905250888260018151811061139f577f4e487b7100000000000000000000000000000000000000000000000000000000600052603260045260246000fd5b602002602001018190525086826002815181106113e5577f4e487b7100000000000000000000000000000000000000000000000000000000600052603260045260246000fd5b6020026020010181905250848260038151811061142b577f4e487b7100000000000000000000000000000000000000000000000000000000600052603260045260246000fd5b60200260200101819052508981600081518110611471577f4e487b7100000000000000000000000000000000000000000000000000000000600052603260045260246000fd5b602002602001018190525087816001815181106114b7577f4e487b7100000000000000000000000000000000000000000000000000000000600052603260045260246000fd5b602002602001018190525085816002815181106114fd577f4e487b7100000000000000000000000000000000000000000000000000000000600052603260045260246000fd5b60200260200101819052508381600381518110611543577f4e487b7100000000000000000000000000000000000000000000000000000000600052603260045260246000fd5b60200260200101819052506115588282611568565b9250505098975050505050505050565b600081518351146115ae576040517f08c379a00000000000000000000000000000000000000000000000000000000081526004016115a5906120b5565b60405180910390fd5b60008351905060006006826115c39190612219565b905060008167ffffffffffffffff811115611607577f4e487b7100000000000000000000000000000000000000000000000000000000600052604160045260246000fd5b6040519080825280602002602001820160405280156116355781602001602082028036833780820191505090505b50905060005b83811015611b1a5786818151811061167c577f4e487b7100000000000000000000000000000000000000000000000000000000600052603260045260246000fd5b6020026020010151600001518260006006846116989190612219565b6116a291906121c3565b815181106116d9577f4e487b7100000000000000000000000000000000000000000000000000000000600052603260045260246000fd5b60200260200101818152505086818151811061171e577f4e487b7100000000000000000000000000000000000000000000000000000000600052603260045260246000fd5b60200260200101516020015182600160068461173a9190612219565b61174491906121c3565b8151811061177b577f4e487b7100000000000000000000000000000000000000000000000000000000600052603260045260246000fd5b6020026020010181815250508581815181106117c0577f4e487b7100000000000000000000000000000000000000000000000000000000600052603260045260246000fd5b602002602001015160000151600060028110611805577f4e487b7100000000000000000000000000000000000000000000000000000000600052603260045260246000fd5b602002015182600260068461181a9190612219565b61182491906121c3565b8151811061185b577f4e487b7100000000000000000000000000000000000000000000000000000000600052603260045260246000fd5b6020026020010181815250508581815181106118a0577f4e487b7100000000000000000000000000000000000000000000000000000000600052603260045260246000fd5b6020026020010151600001516001600281106118e5577f4e487b7100000000000000000000000000000000000000000000000000000000600052603260045260246000fd5b60200201518260036006846118fa9190612219565b61190491906121c3565b8151811061193b577f4e487b7100000000000000000000000000000000000000000000000000000000600052603260045260246000fd5b602002602001018181525050858181518110611980577f4e487b7100000000000000000000000000000000000000000000000000000000600052603260045260246000fd5b6020026020010151602001516000600281106119c5577f4e487b7100000000000000000000000000000000000000000000000000000000600052603260045260246000fd5b60200201518260046006846119da9190612219565b6119e491906121c3565b81518110611a1b577f4e487b7100000000000000000000000000000000000000000000000000000000600052603260045260246000fd5b602002602001018181525050858181518110611a60577f4e487b7100000000000000000000000000000000000000000000000000000000600052603260045260246000fd5b602002602001015160200151600160028110611aa5577f4e487b7100000000000000000000000000000000000000000000000000000000600052603260045260246000fd5b6020020151826005600684611aba9190612219565b611ac491906121c3565b81518110611afb577f4e487b7100000000000000000000000000000000000000000000000000000000600052603260045260246000fd5b6020026020010181815250508080611b12906122ee565b91505061163b565b50611b23611cd9565b6000602082602086026020860160086107d05a03fa90508060008114611b4857611b4a565bfe5b5080611b8b576040517f08c379a0000000000000000000000000000000000000000000000000000000008152600401611b82906120f5565b60405180910390fd5b600082600060018110611bc7577f4e487b7100000000000000000000000000000000000000000000000000000000600052603260045260246000fd5b602002015114159550505050505092915050565b6040518060600160405280611bee611c55565b8152602001611bfb611cb3565b8152602001611c08611c55565b81525090565b6040518060a00160405280611c21611c55565b8152602001611c2e611cb3565b8152602001611c3b611cb3565b8152602001611c48611cb3565b8152602001606081525090565b604051806040016040528060008152602001600081525090565b6040518060600160405280600390602082028036833780820191505090505090565b6040518060800160405280600490602082028036833780820191505090505090565b6040518060400160405280611cc6611cfb565b8152602001611cd3611cfb565b81525090565b6040518060200160405280600190602082028036833780820191505090505090565b6040518060400160405280600290602082028036833780820191505090505090565b6000611d30611d2b8461213a565b612115565b90508082856040860282011115611d4657600080fd5b60005b85811015611d765781611d5c8882611e76565b845260208401935060408301925050600181019050611d49565b5050509392505050565b6000611d93611d8e84612160565b612115565b90508082856020860282011115611da957600080fd5b60005b85811015611dd95781611dbf8882611ec7565b845260208401935060208301925050600181019050611dac565b5050509392505050565b6000611df6611df184612186565b612115565b90508083825260208201905082856020860282011115611e1557600080fd5b60005b85811015611e455781611e2b8882611ec7565b845260208401935060208301925050600181019050611e18565b5050509392505050565b600082601f830112611e6057600080fd5b6002611e6d848285611d1d565b91505092915050565b600082601f830112611e8757600080fd5b6002611e94848285611d80565b91505092915050565b600082601f830112611eae57600080fd5b8135611ebe848260208601611de3565b91505092915050565b600081359050611ed6816124fc565b92915050565b6000806000806101208587031215611ef357600080fd5b6000611f0187828801611e76565b9450506040611f1287828801611e4f565b93505060c0611f2387828801611e76565b92505061010085013567ffffffffffffffff811115611f4157600080fd5b611f4d87828801611e9d565b91505092959194509250565b611f62816122a7565b82525050565b6000611f756012836121b2565b9150611f8082612406565b602082019050919050565b6000611f986012836121b2565b9150611fa38261242f565b602082019050919050565b6000611fbb601f836121b2565b9150611fc682612458565b602082019050919050565b6000611fde6016836121b2565b9150611fe982612481565b602082019050919050565b60006120016012836121b2565b915061200c826124aa565b602082019050919050565b60006120246015836121b2565b915061202f826124d3565b602082019050919050565b600060208201905061204f6000830184611f59565b92915050565b6000602082019050818103600083015261206e81611f68565b9050919050565b6000602082019050818103600083015261208e81611f8b565b9050919050565b600060208201905081810360008301526120ae81611fae565b9050919050565b600060208201905081810360008301526120ce81611fd1565b9050919050565b600060208201905081810360008301526120ee81611ff4565b9050919050565b6000602082019050818103600083015261210e81612017565b9050919050565b600061211f612130565b905061212b82826122bd565b919050565b6000604051905090565b600067ffffffffffffffff821115612155576121546123c6565b5b602082029050919050565b600067ffffffffffffffff82111561217b5761217a6123c6565b5b602082029050919050565b600067ffffffffffffffff8211156121a1576121a06123c6565b5b602082029050602081019050919050565b600082825260208201905092915050565b60006121ce826122b3565b91506121d9836122b3565b9250827fffffffffffffffffffffffffffffffffffffffffffffffffffffffffffffffff0382111561220e5761220d612368565b5b828201905092915050565b6000612224826122b3565b915061222f836122b3565b9250817fffffffffffffffffffffffffffffffffffffffffffffffffffffffffffffffff048311821515161561226857612267612368565b5b828202905092915050565b600061227e826122b3565b9150612289836122b3565b92508282101561229c5761229b612368565b5b828203905092915050565b60008115159050919050565b6000819050919050565b6122c6826123f5565b810181811067ffffffffffffffff821117156122e5576122e46123c6565b5b80604052505050565b60006122f9826122b3565b91507fffffffffffffffffffffffffffffffffffffffffffffffffffffffffffffffff82141561232c5761232b612368565b5b600182019050919050565b6000612342826122b3565b915061234d836122b3565b92508261235d5761235c612397565b5b828206905092915050565b7f4e487b7100000000000000000000000000000000000000000000000000000000600052601160045260246000fd5b7f4e487b7100000000000000000000000000000000000000000000000000000000600052601260045260246000fd5b7f4e487b7100000000000000000000000000000000000000000000000000000000600052604160045260246000fd5b6000601f19601f8301169050919050565b7f76657269666965722d6261642d696e7075740000000000000000000000000000600082015250565b7f70616972696e672d6d756c2d6661696c65640000000000000000000000000000600082015250565b7f76657269666965722d6774652d736e61726b2d7363616c61722d6669656c6400600082015250565b7f70616972696e672d6c656e677468732d6661696c656400000000000000000000600082015250565b7f70616972696e672d6164642d6661696c65640000000000000000000000000000600082015250565b7f70616972696e672d6f70636f64652d6661696c65640000000000000000000000600082015250565b612505816122b3565b811461251057600080fd5b5056fea26469706673582212209e7707233e582ec4ee9bca42ded172525168ff1ccc55b75fc20b69731d9cf46064736f6c63430008040033",
  "linkReferences": {},
  "deployedLinkReferences": {}
}